:100000000C94F0010C9437020C9437020C943702D4
:100010000C9437020C9437020C9437020C9437027C
:100020000C9437020C9437020C94B4210C9488225F
:100030000C941E1D0C9437020C9437020C9437025A
:100040000C9437020C9426080C9437020C94370257
:100050000C9437020C94751D0C9437020C943702E3
:100060000C9437020C9437020C9437020C9437022C
:100070000C9437020C9437020C9437020C9437021C
:100080000C9437020C9437020C9437020C9437020C
:100090000C9437020C9437020C9437020C943702FC
:1000A0000C9437020C9437020C943702A65DA85DBD
:1000B000AB5DC75DC95DCC5DE000AD5DB05DCF5DA2
:1000C000D15D2800E100AE5DB45DD45D000052005A
:1000D0000251B25DB55DCE5DD65DE500E300EB5D3E
:1000E0000000E60065425100A75DA95DC55DC85DE1
:1000F000CA5D2900AC5DAA5DC65DD05DCB5D0251D5
:10010000B15DAF5DCD5DD55DD25D00000000B35D3A
:10011000D35D0000D75D0000E2000000EC5DE70069
:1001200050004F000100B75DBA5DDA5DDC5DDF5D58
:100130000100BC5DBF5DE25DE45D01000100BD5DED
:10014000C35DE75D000001000100C15DC45DE15DCC
:10015000E95DE5000100EB5D000001000100010028
:10016000B65DB85DD85DDB5DDD5D0100BB5DB95D91
:10017000D95DE35DDE5D0100C05DBE5DE05DE85D13
:10018000E55D00000000C25DE65D0000EA5D000084
:1001900001000000EC5D01000100010029000100E8
:1001A00001004B0046004C0001000100010052001C
:1001B00049000100010001000100010000000100F0
:1001C0000100010001005100010001000100ED5D8E
:1001D0000000010001000100010001004A004D0083
:1001E00001000100010001004E004F004800010025
:1001F00001000100500001004C000000000001005F
:10020000010000000100000001000000EE5D01009F
:100210000100010000000000000000002A2B28005F
:1002200000000000000000000000000000000029A5
:10023000000000002C1E3420212224342627252EE5
:10024000362D3738271E1F2021222324252633331D
:10025000362E37381F0405060708090A0B0C0D0E49
:100260000F101112131415161718191A1B1C1D2F15
:100270003130232D350405060708090A0B0C0D0E35
:100280000F101112131415161718191A1B1C1D2FF5
:100290003130354C0000000000000000000000007C
:1002A000000000000000000000000000000000004E
:1002B00000000000000000007E0F00D4FFFFFFC719
:1002C00000000078360354005300350032004B0024
:1002D00020004E00490043004F004C004100200028
:1002E0004F0079006100790075006200690020000C
:1002F000530068006900660074000000160349009E
:100300006B006500620065005300610064006100DD
:100310006F0000000403090409023B00020100A071
:10032000FA09040000010301010009211101000183
:100330002240000705810308000A090401000103A7
:10034000000000092111010001223B000705820382
:1003500020000A1201000200000008EDFE691901E8
:10036000000102000105010906A101850605071922
:10037000E029E71500250195087501810205071997
:100380000029EF1500250195F07501810205081976
:10039000012905950575019102950175039101C02B
:1003A00005010906A101050719E029E71500250146
:1003B00095087501810295017508810105071900ED
:1003C00029FF150026FF009506750881000508190C
:1003D000012905950575019102950175039101C0EB
:1003E00011241FBECFEFDAE0DEBFCDBF04B603FE9F
:1003F00027C08091600390916103A0916203B09146
:1004000063038730904BA740B04BD1F41092600348
:1004100010926103109262031092630314BE84B7BA
:10042000877F84BF0FB6F894A8958091600088619B
:1004300080936000109260000FBEE0E0F8E3099541
:1004400012E0A0E0B1E0EEE5FCE402C005900D9200
:10045000AE33B107D9F723E0AEE3B2E001C01D929D
:10046000A036B207E1F70E942F190C94B7240C9420
:100470000000809351028EEB96E00E9400081092DB
:100480004E0210924D0210924B0210924A021092AC
:100490004C02109249020895209152022223F9F051
:1004A000805E91090897D8F480915002FB019281F7
:1004B000992361F0811104C0809151020E94C20E03
:1004C000809150028F5F80935002089581508093F5
:1004D0005002811104C0809151020C94A10E089524
:1004E0009C01265A3D452F31310530F481E06C3EA8
:1004F0007D4551F080E008C0855C9D458697D0F72A
:1005000081E06B3E7D45B1F7817008959C01265ACC
:100510003D4581E02031310538F02F51310981E02E
:100520002331310508F080E081700895CF93DF9387
:10053000C82F0E94F712982F9C27D82FDC23D09524
:100540002C2F2923D223C095C823C9238D2F0E9485
:100550006C0B8C2F0E94730B8D2F9C2FDF91CF91F2
:100560000895CF93C92F0E94730B8C2FCF910C94B9
:100570006C0B80914202811113C080914D029091C9
:100580004E02865A9D458534910550F480914A0269
:1005900090914B028B5E9D45029710F40E942305BB
:1005A000E0914D02F0914E02E65AFD45E233F1052D
:1005B00038F4E754FB4D0C944E2485E30E94FE0A68
:1005C00080914A0290914B028B3E2DE5920709F0F3
:1005D00051C080914D0290914E028F3D2DE59207C2
:1005E000D9F1853E9D45D9F58AE237C08AE3E6CF49
:1005F0008BE3E4CF8CE3E2CF8DE3E0CF8EE3DECF7D
:100600008FE3DCCF80E4DACF81E4D8CF82E4D6CFA9
:1006100083E4D4CF84E4D2CF85E4D0CF8CE4CECFB2
:100620008EE1CCCF8FE1CACF80E2C8CF81E2C6CFC6
:1006300082E2C4CF83E2C2CF84E2C0CF85E2BECFE4
:1006400086E2BCCF87E2BACF8AE2B8CF8FE2B6CFDC
:1006500080E3B4CF81E3B2CF8CE40E94FE0A109213
:10066000420210924E0210924D0210924B021092D2
:100670004A0208958C3E9D4591F7ABCFCF93DF930F
:100680008091440281110E94810480914302811172
:100690000E9478038091420281110E94B9028091E8
:1006A0004A0290914B028B5E9D450297D8F480914F
:1006B00049020E949602EC0180914A0290914B02FD
:1006C0008B5E9D45029770F48CE20E948E0A8091A9
:1006D0004A0290914B028B5E9D45029718F4CE0121
:1006E0000E94B10281E080934302DF91CF9108958F
:1006F0008091430281110AC080914A0290914B027D
:100700008B5E9D45029710F40E943E0380914A0241
:1007100090914B02892B19F08CE20E94FE0A1092F4
:10072000430210924B0210924A020895CF93DF9336
:100730008091440281110E948104809143028111C1
:100740000E9478038091420281110E94B902D0E098
:10075000C0E080914D0290914E02865A9D458534AD
:10076000910530F480914C020E949602D82FC92F37
:10077000E0914D02F0914E02E65AFD45E534F10557
:1007800040F4E551FB4D0C944E2481E191E00E9430
:10079000380A80914D0290914E02865A9D458534CB
:1007A000910520F48D2F9C2F0E94B10281E080934F
:1007B0004402DF91CF91089583E191E0E8CF86E193
:1007C00091E0E5CF89E191E0E2CF8CE191E0DFCFEC
:1007D0008FE191E0DCCF82E291E0D9CF85E291E038
:1007E000D6CF88EF91E0D3CF88E291E0D0CF82E3FB
:1007F00091E0CDCF84E391E0CACF8AE20E948E0AD5
:10080000C8CF82E092E0C3CF86E391E0C0CF89E316
:1008100091E0BDCF8CE391E0BACF8FE391E0B7CF09
:1008200082E491E0B4CF85E491E0B1CF88E491E037
:10083000AECF8CEF91E0ABCF8BE491E0A8CF8EE40C
:1008400091E0A5CF88E591E0A2CF8BE591E09FCF25
:100850008EE591E09CCF81E691E099CF84E691E02E
:1008600096CF87E691E093CF8AE691E090CF8DE630
:1008700091E08DCF80E791E08ACF8BE2BFCF84E11A
:10088000BDCF8AE1BBCF88E0B9CF85E1B7CF87E1A3
:10089000B5CF8CE1B3CF88E1B1CF8CE0AFCF82E1AF
:1008A000ADCF83E1ABCF8DE2A9CF8EE2A7CF84E0BD
:1008B000A5CF86E1A3CF87E0A1CF89E09FCF8AE0D3
:1008C0009DCF8BE09BCF8DE099CF8EE097CF8FE0CF
:1008D00095CF83E393CF84E391CF8DE18FCF8BE1ED
:1008E0008DCF86E08BCF89E189CF85E087CF81E10D
:1008F00085CF80E183CF86E381CF87E37FCF88E315
:100900007DCF8091440281110BC080914D02909166
:100910004E02865A9D458534910510F40E94960337
:10092000E0914D02F0914E02E65AFD45E034F105AA
:1009300038F4E05DFA4D0C944E248AE20E94FE0ADF
:100940001092440210924E0210924D0208958BE2D2
:10095000F5CF84E1F3CF8AE1F1CF88E0EFCF85E1F5
:10096000EDCF87E1EBCF8CE1E9CF88E1E7CF8CE0F9
:10097000E5CF82E1E3CF83E1E1CF8DE2DFCF8EE20D
:10098000DDCF84E0DBCF86E1D9CF87E0D7CF89E028
:10099000D5CF8AE0D3CF8BE0D1CF8DE0CFCF8EE023
:1009A000CDCF8FE0CBCF83E3C9CF84E3C7CF8DE139
:1009B000C5CF8BE1C3CF86E0C1CF89E1BFCF85E052
:1009C000BDCF81E1BBCF80E1B9CF86E3B7CF87E36D
:1009D000B5CF88E3B3CF80914F02823001F1B8F4F4
:1009E0008130D1F010924E0210924D0210924B02C3
:1009F00010924A0210924F0210924102109240024D
:100A000010924402109243021092420208958530DF
:100A100048F70E94B902E6CF0E948104E3CF0E940A
:100A20007803E0CF81E0809352020E94EB04809132
:100A300051020C94A10E109252020E94EB0480917C
:100A400051020C94C20EEF92FF920F931F93CF931B
:100A5000DF938091440281110E94810480914302BE
:100A600081110E9478038091420281110E94B90293
:100A7000D0E0C0E000914D0210914E02C801865AAC
:100A80009D458534910560F5E0904A02F0904B0257
:100A9000C7018B5E9D45029718F5C0914C0280916D
:100AA0004902C82BC8010E9486028823A1F0DC2FCE
:100AB000D272B701C8010E947002D1111EC08170AC
:100AC000909152029923E1F0DD23E1F091E0892732
:100AD000811101C0CD7D8C2F0E949602D82FC92F85
:100AE000E0914D02F0914E02E65AFD45E233F105E8
:100AF00080F4E059FA4D0C944E2491E08927DFCF21
:100B0000D111E6CF882339F3C260E5CF85E30E9497
:100B10008E0A80914A0290914B02E0914D02F09131
:100B20004E028B3E2DE5920709F0C3C0E65BFD4502
:100B3000E533F10508F063C0EE55FA4D0C944E24F0
:100B40008AE3E5CF8BE3E3CF8CE3E1CF8DE3DFCF27
:100B50008EE3DDCF8FE3DBCF80E4D9CF81E4D7CF45
:100B600082E4D5CF83E4D3CF84E4D1CF85E4CFCF63
:100B70008CE4CDCF8EE1CBCF8FE1C9CF80E2C7CF60
:100B800081E2C5CF82E2C3CF83E2C1CF84E2BFCF8F
:100B900085E2BDCF86E2BBCF87E2B9CF8AE2B7CF8D
:100BA0008FE2B5CF80E3B3CF81E3B1CF82E791E0AD
:100BB0000E94380A24C085E092E0FACF85E791E0F0
:100BC000F7CF88E791E0F4CF8CE791E0F1CF8FE7A2
:100BD00091E0EECF82E891E0EBCF85E891E0E8CFBD
:100BE00088E891E0E5CF8BE891E0E2CF8EE891E0F4
:100BF000DFCF80E991E0DCCF8CE40E948E0A809107
:100C00004D0290914E02865A9D458534910560F4BF
:100C100080914A0290914B028B5E9D45029720F491
:100C20008D2F9C2F0E94B10281E080934202DF91C0
:100C3000CF911F910F91FF90EF90089582E991E07D
:100C4000B7CF80EA91E0B4CF85E991E0B1CF88E9F0
:100C500091E0AECF8CE991E0ABCF8FE991E0A8CFE6
:100C600082EA91E0A5CF85EA91E0A2CF88EA91E0FF
:100C70009FCF8AE2C2CF8BEA91E09ACF8EEA91E0D1
:100C800097CF80EB91E094CF89E791E091CF83EB10
:100C900091E08ECF86EB91E08BCF89EB91E088CF0E
:100CA0008CEB91E085CF8FEB91E082CF82EC91E0ED
:100CB0007FCF8C3E9D4509F0A2CFE75BFD45E43335
:100CC000F10508F09CCFE952FA4D0C944E2484ECC7
:100CD00091E06ECF87EC91E06BCF8AEC91E068CF2A
:100CE0008DEC91E065CF84EF91E062CF80ED91E0F3
:100CF0005FCF83ED91E05CCF86ED91E059CF89ED38
:100D000091E056CF8CED91E053CF8EED91E050CF36
:100D100081EE91E04DCF84EE91E04ACF87EE91E0F5
:100D200047CF8AEE91E044CF8DEE91E041CF80EC49
:100D300091E03ECF80EF91E03BCF83EF91E038CF61
:100D400087EF91E035CF8BEF91E032CF8EEF91E0DE
:100D50002FCF81E092E02CCF84E092E029CF87E092
:100D600092E026CF89E991E023CF8AE092E020CF7C
:100D70008DE092E01DCF80E192E01ACF8091400299
:100D800090914102892B89F480914F02823049F081
:100D900018F4813021F00895853028F008950C94DE
:100DA00096030C943E030C9423050895EF92FF9252
:100DB0000F931F93CF93DF938C017B0181E090E031
:100DC00090934102809340020E944E1DEC01F70176
:100DD000F2809801265A3D45FF2009F49CC080917D
:100DE0004F022534310508F047C0823009F440C075
:100DF00008F5882329F1813029F110934E020093E0
:100E00004D020E94F71280934C02D0934802C09387
:100E1000470280E699E00E941808F12C10924102E6
:100E2000109240028F2DDF91CF911F910F91FF9073
:100E3000EF900895833049F08430F9F60E94B902AA
:100E400081E017C00E948104D8CF80914502909123
:100E500046022091470230914802AC01421B530BDD
:100E6000FE01E81BF90B4E175F0740F30E94810457
:100E700084E080934F02C1CF98012B5E3D45223024
:100E80003105B0F5823069F188F4882331F1813081
:100E900069F110934B0200934A020E94F71280936B
:100EA0004902D0934602C0934502B3CF833099F0F4
:100EB000843079F780914702909148022091450251
:100EC00030914602AC01421B530BFE01E81BF90BAB
:100ED0004E175F0748F40E94B90282E080934F02E8
:100EE000D8CF0E947803D5CF0E94780383E0F6CF55
:100EF000823071F028F4813041F010924F028ECF91
:100F00008530D8F70E942305F8CF0E949603F5CFCD
:100F10000E943E03F2CF2734310508F06EC0809165
:100F20004F02823089F170F4813009F077CF8091DF
:100F30004D0290914E028017910709F06FCF0E94E9
:100F40008104DBCF833059F1843009F067CF809181
:100F50004A0290914B028017910709F049C0809195
:100F6000470290914802C81BD90B2091450230914D
:100F70004602821B930B8C179D07B8F16497A8F566
:100F80000E94780381E026C080914A0290914B0232
:100F90008017910709F042CF0E947803AECF80916D
:100FA0004D0290914E0280179107B9F4809145024D
:100FB00090914602C81BD90B2091470230914802FC
:100FC000821B930B8C179D0780F0649770F40E942E
:100FD000810482E080934F0221CF80914A02909158
:100FE0004B028017910709F019CF0E94B90285CFF3
:100FF00080914D0290914E02F4CFFF24F3940ECFD6
:10100000F89490935402809353021092800085E0EC
:1010100080938100109282001092850010928400CB
:101020008FEF9FEF909389008093880078940895C4
:10103000F894109285001092840090938900809318
:10104000880082E080936F00789408951F920F9239
:101050000FB60F9211242F933F934F935F936F938B
:101060007F938F939F93AF93BF93EF93FF93E09101
:101070005302F09154020995FF91EF91BF91AF9106
:101080009F918F917F916F915F914F913F912F91A0
:101090000F900FBE0F901F90189581E00C943902AD
:1010A0000F931F93CF93DF93EC018B01CD3E8DE522
:1010B000D80779F0CE3EEDE5DE07F9F0CE010E94CB
:1010C0004C02B801CE01DF91CF911F910F910C948A
:1010D000D606FB018281882351F083E192E00E94D1
:1010E000380A87E192E00E94380A0E941B0580E0DE
:1010F000DF91CF911F910F910895FB018281882389
:10110000B1F38BE192E00E94380A8FE192E00E94F5
:10111000380A0E941205EBCF81110AC082E06623D3
:1011200059F00E94810E882329F08EE40E94640BFE
:1011300081E0089581E5FACF0E94810E882311F0A5
:101140008BE4F4CF82E5F2CF81E008950C9450084F
:1011500008950C94A8081F93CF93DF9300D000D07C
:101160000F92CDB7DEB749835A836B833091550216
:1011700089819A8131111DC06623B9F02223A9F01B
:101180000E94940F182F682F89819A810E943D0F29
:1011900069817A81812F0F900F900F900F900F909F
:1011A000DF91CF911F910C943F160E946B0F182F67
:1011B000EFCF0E94940F69817A81EDCFFC01262F39
:1011C000408151816281738184810C94AB0881E0FC
:1011D0000895CF93DF93EC0160E00E94DE08BE012A
:1011E000DF91CF910C94A9080E944B170E94420AEC
:1011F0000C946F170C94721780E00C94430A0895B6
:1012000008950E94C60D0E9400092FEF84E39CE020
:10121000215080409040E1F700C000000C94991DDF
:101220000F931F93CF93DF938C0161E00E94DE0840
:10123000EC01B8010E94A6088823A9F1B801CE01EB
:101240000E94541B882379F1B801CE010E943C19F9
:10125000882349F1B801CE010E94BE1A882319F1F2
:10126000F8018281882361F0CB35FDE5DF0721F1AC
:1012700070F4C115ECE5DE07A1F0CF3DDC45C9F007
:10128000C801DF91CF911F910F910C94A408CC3528
:101290008DE5D807A1F0CD35DD4591F70E94BC134F
:1012A000EFCF0E94010980E0DF91CF911F910F9154
:1012B00008950E947614F7CF0E94C513E1CF0E94D3
:1012C000C813DECF0C94FF080E94B01B0E94430A93
:1012D0000C946209DF92EF92FF920F931F93CF93CA
:1012E000DF93E82FF0E0EC5EFD4FD490282F269599
:1012F0002695269530E0F901EC54FD4F0491877056
:1013000010E0082E02C0159507950A94E2F70170C7
:101310001127F901EC55FD4FE490F12C082E02C085
:10132000F594E7940A94E2F791E0E922FF24F901A9
:10133000EC56FD4FC491D0E002C0D595C7958A9573
:10134000E2F7C170DD270115110519F081EE0E9449
:101350008E0AE114F10419F086EE0E948E0A8D2D9A
:101360000E94640BEF2819F086EE0E94FE0A012B02
:1013700019F081EE0E94FE0ACD2B51F08CE2DF9134
:10138000CF911F910F91FF90EF90DF900C94640B21
:10139000DF91CF911F910F91FF90EF90DF90089513
:1013A000EF92FF920F931F93CF93DF93EC01162FD1
:1013B0000AE08881882309F454C0813009F04EC0C6
:1013C0008981813099F47E0122E0E20EF11C8A814C
:1013D0000E94640BE7012196812F815050F3EFE9C1
:1013E000FFE03197F1F700C00000F7CF823041F401
:1013F0007E0182E0E80EF11C8A810E948E0AEACF0B
:10140000833041F47E01E2E0EE0EF11C8A810E94FD
:10141000FE0AE0CF843011F02196DDCF2A8122969A
:1014200090E080E0AE014F5F5F4F2053330B2A30D6
:10143000310548F0019778F2EFE9FFE03197F1F7D5
:1014400000C00000F7CF089FB001099F700D112464
:10145000C901860F971F2981EA01E4CF0E946A091A
:10146000BACFDF91CF911F910F91FF90EF90089528
:1014700060E00C94D00908950C943B0A81E0089533
:101480000C943E0A0895CF93C82F0E943C0A8C2FDB
:10149000CF910C94400ACF93DF93CDB7DEB72B9753
:1014A0000FB6F894DEBF0FBECDBF4F835887698754
:1014B0007A878B8761110E9417131E821D8285E037
:1014C000FE013796DE01119601900D928A95E1F7A3
:1014D0008C819D81892B89F449815A816B817C8122
:1014E0008D819E810E9438122B960FB6F894DEBF34
:1014F0000FBECDBFDF91CF91089589819A81892355
:101500008F3F51F3CE0101960E94E7088111E4CF8D
:10151000EBCFFC01808191810C94D60FCF93C82F23
:10152000882309F469C08238C1F40E94B01B81FD90
:1015300063C089E30E94D2120E943A132FEF81EE1A
:1015400094E0215080409040E1F700C0000089E322
:101550000E94D912CF910C943A138338A1F40E94BF
:10156000B01B80FD49C083E50E94D2120E943A134D
:101570002FEF81EE94E0215080409040E1F700C0D1
:10158000000083E5E5CF8438A1F40E94B01B82FD02
:1015900033C087E40E94D2120E943A132FEF81EEEB
:1015A00094E0215080409040E1F700C0000087E4C3
:1015B000CFCF8CEF8C0F813A90F46C2F8091020189
:1015C000909103010E94161C882329F08C2F0E9401
:1015D000D9120E943A138C2F0E94D212BBCF80E204
:1015E0008C0F883048F4C77081E001C0880FCA951D
:1015F000EAF70E94FA12AECFCF910895882309F43A
:101600004BC0823871F40E94B01B81FF45C089E352
:101610000E94D2120E943A1389E30E94D9120C94BC
:101620003A13833859F40E94B01B80FF35C083E51C
:101630000E94D2120E943A1383E5EFCF843859F406
:101640000E94B01B82FF28C087E40E94D2120E9431
:101650003A1387E4E2CF9CEF980F913AF0F290E2D0
:10166000980F983050F4877091E001C0990F8A95D7
:10167000EAF7892F0E940013D2CF9BE5980F933091
:1016800020F490E080E00C94D61B885A873120F437
:1016900090E080E00C94EC1B08951F93CF93DF93B0
:1016A000182FEB010E948E0A209731F4812FDF91D1
:1016B000CF911F910C94FE0A8FE99FE00197F1F7FB
:1016C00000C000002197F0CF70E060E0893311F492
:1016D00060E570E00C944D0B882321F00E94FA1213
:1016E0000C943A130895882321F00E9400130C945F
:1016F0003A130895BF92CF92DF92EF92FF920F9329
:101700001F93CF93DF936C01D62FC72FFC0112815B
:10171000F580F2949FE0F9220E94F012E82E8823CF
:10172000B9F0E12E1123A1F08C2F807F803421F0BD
:1017300080E28D0F8830D0F080913A0382FD16C090
:1017400082E00E948B130E94F01291E0E82EE926BD
:10175000BC2EB2948FE0B822FBE0FB1508F468C001
:10176000EB2DF0E0E55FF94D0C944E24E12CF0CF29
:101770000C2F0F70C07F11F00295007F112399F09C
:10178000002359F080E28D0F883010F0D11107C08E
:10179000802F0E94FA120E943A138D2F41C0802F91
:1017A0000E940A13F8CF8D2F0E94FE0A002309F42D
:1017B0003FC080E28D0F883010F0D11104C0802F1F
:1017C0000E94001303C0802F0E9410130E943A133E
:1017D0002FC00C2F0F70C07FC03211F00295007F18
:1017E000DD2381F0D13009F469C0112309F473C0FD
:1017F000FF2009F469C0F601858180FFCECF8F708C
:10180000858362C080913A0382FF38C0112359F06A
:10181000002329F0802F0E94FA120E943A1380E0E0
:101820000E948E0A05C080E00E94FE0A0111C7CF07
:10183000EB2DE850FF0B349720F40E94B01B0E9460
:10184000430AEE2009F44BC10E94EC1280FD47C10F
:10185000F60112820E94E6120E94A10EC6010E94A9
:10186000900D0E94E612DF91CF911F910F91FF9092
:10187000EF90DF90CF90BF900C94C20E112389F0AF
:10188000F11006C00E941D13802B0E946C0BD0CF5C
:1018900021E0F212F7CF0E941D13802B0E94231328
:1018A000C7CFF11006C00E943013802F0E94730B27
:1018B000BFCF31E0F31609F4BBCFF5CF112331F0E0
:1018C00085E08F1508F4B4CF802FDFCF94E09F150B
:1018D00008F4AECFEACFFF2041F3D93349F4FFEF4C
:1018E00027EE33E0F15020403040E1F700C0000027
:1018F0008D2F0E94FE0A9CCF8C2F837009F041C06F
:10190000111196CF4D2F429546954770440F440FC5
:101910000D2F0F7010E030E020E0042E04C0000F07
:10192000111F221F331F0A94D2F760E070E0CB0131
:10193000D4FF0FC06FE070E080E090E004C0660F5D
:10194000771F881F991F4A95D2F7609570958095EB
:101950009095C695C695C370602B712B822B932BE7
:10196000C23049F058F4C13019F00E94330E60CFF4
:101970000E94210E5DCF0E94450E5ACF0E941F0E7D
:1019800057CF8695112311F08C2F8170882309F48D
:101990004FCF4D2F429546954770440F440F0D2F62
:1019A0000F7010E030E020E0042E04C0000F111F83
:1019B000221F331F0A94D2F760E070E0CB01D4FFFE
:1019C0000FC06FE070E080E090E004C0660F771F0A
:1019D000881F991F4A95D2F76095709580959095CC
:1019E000C695C695C370602B712B822B932BC2308A
:1019F00049F058F4C13019F00E94180F19CF0E9415
:101A0000060F16CF0E942A0F13CF0E945B0E10CF35
:101A1000CF70112329F08C2F0E94A10E8D2F35CF6E
:101A20008D2F0E94730B8C2F0E94C20E01CFD23FCC
:101A300051F160F4D03FB9F0D13F81F0112309F4A6
:101A400049C0F110AACE8C2F8F7121C0D33F11F164
:101A5000D43FA1F780913A0382FF26C08C2F8F716B
:101A6000112311F314C0112349F084E08F1508F4F9
:101A7000DFCE8C2F8F710E94E50EDACE95E09F1598
:101A800008F4D6CEF6CF8C2F8F711111CDCF0E94D6
:101A9000A10ECECE112329F08C2F8F710E948C0EB7
:101AA000C7CE0E94670EC4CE112349F0CF718C2F90
:101AB0000E94A10E63E08C2F0E947013B9CE81E0CA
:101AC0000E948B13E1E0EF1508F0B2CE82E00E9495
:101AD0008B13AECEF11001CF8C2F8F71A5CFDF917C
:101AE000CF911F910F91FF90EF90DF90CF90BF901B
:101AF00008950F931F93CF93DF93EC016881798151
:101B00008A810E94E00F8C010E943C0F0E941E0EF1
:101B1000B801CE01DF91CF911F910F910C947A0BF8
:101B2000CF93DF93EC018B819C81892B29F08881F5
:101B3000998189238F3F59F4DF91CF910895CE0188
:101B40000E94790DCE01DF91CF910C94E908CE016E
:101B50000E9410098111F3CF0E94F012882361F3D3
:101B60008A81882349F380913A0382FDE5CF82E0A0
:101B7000DF91CF910C948B130E9417130E941A13BC
:101B80000C943A130E94E0120C94BC0D0E940713AF
:101B90000C94C20DE92FE295EF70E250EE3070F434
:101BA000F0E0E95EF94D0C944E24803F19F020F4EA
:101BB000883E20F481E00895843FE1F380E00895B9
:101BC000883EC0F3813FD1F7F5CF93FB882780F99A
:101BD0000895FC01808191810E94D60F0C94CA0D5A
:101BE000CF93DF9300D000D00F92CDB7DEB70F9028
:101BF0000F900F900F900F90DF91CF910895CF939A
:101C0000DF9300D000D000D0CDB7DEB726960FB658
:101C1000F894DEBF0FBECDBFDF91CF910895089538
:101C20000C940F0E0E94100E609382027093830238
:101C300080938402909385020C94BC0D08950C94BB
:101C4000120E0F931F930091820210918302209134
:101C5000840230918502602B712B822B932B1F9174
:101C60000F910C94120E0F931F930091820210910A
:101C700083022091840230918502602371238223A4
:101C800093231F910F910C94120E0F931F930091A9
:101C90008202109183022091840230918502602794
:101CA0007127822793271F910F910C94120E0C9489
:101CB0000F0E0C94570E0E94590E60937E02709383
:101CC0007F0280938002909381020C94BC0D60E0AF
:101CD00070E0CB010C945B0E6115710581059105D7
:101CE00029F481E0442361F080E00895DC01CB0118
:101CF00004C0B695A795979587954A95D2F78170B8
:101D00000895482F60917E0270917F028091800239
:101D1000909181020C946C0E0F931F9341E050E060
:101D200060E070E08A019B0104C0000F111F221FB8
:101D3000331F8A95D2F7C901B8011F910F910C94F6
:101D40005B0E0F931F9341E050E060E070E004C031
:101D5000440F551F661F771F8A95D2F780917E0228
:101D600090917F02A0918002B09181028A019B0133
:101D7000082B192B2A2B3B2BC901B8011F910F915E
:101D80000C945B0E0F931F9341E050E060E070E015
:101D900004C0440F551F661F771F8A95D2F7CB01E9
:101DA000BA01609570958095909500917E02109192
:101DB0007F0220918002309181026023712382236F
:101DC00093231F910F910C945B0E0F931F9341E08F
:101DD00050E060E070E004C0440F551F661F771F9D
:101DE0008A95D2F780917E0290917F02A091800225
:101DF000B09181028A019B01082719272A273B27D6
:101E0000C901B8011F910F910C945B0E0F931F93A2
:101E100000917E0210917F02209180023091810218
:101E2000602B712B822B932B1F910F910C945B0EC7
:101E30000F931F9300917E0210917F0220918002E8
:101E40003091810260237123822393231F910F918C
:101E50000C945B0E0F931F9300917E0210917F02F2
:101E60002091800230918102602771278227932779
:101E70001F910F910C945B0E0895E92FEE0FE90F5F
:101E8000EE0F8E0F982F977041E001C0440F9A9586
:101E9000EAF786958695869595E0899FF00111244D
:101EA000EA5AFD4F30E020E070E05191DF011197D8
:101EB000CB01022E02C0969587950A94E2F78170B5
:101EC00081958527842385278C932F5F3F4F25306D
:101ED000310559F70895E92FEE0FE90FEE0F8E0F38
:101EE000982F977086958695869525E0829FF001BC
:101EF0001124EA5AFD4F50E040E080E0219130E0AB
:101F0000092E02C0369527950A94E2F721703327EF
:101F1000042E01C0220F0A94EAF7822B4F5F5F4F15
:101F20004530510559F70895BF92CF92DF92EF9255
:101F3000FF920F931F93CF93DF938C01C0907E028B
:101F4000D0907F02E0908002F09081028091820226
:101F500090918302A0918402B0918502C82AD92A67
:101F6000EA2AFB2ACFE1D0E0BC2ED701C6010C2E15
:101F700004C0B695A795979587950A94D2F780FDEA
:101F80000EC0219788F7B12C8B2DDF91CF911F9137
:101F90000F91FF90EF90DF90CF90BF900895B80120
:101FA0008C2F0E945316019761F3EECFCF93DF93EE
:101FB000EC010E94940FBE01DF91CF910C94531657
:101FC0001F93CF93DF93EB0190915502992331F04A
:101FD000CB01DF91CF911F910C94D60F882379F01C
:101FE000CB010E94940F182F682FCE010E943D0F45
:101FF000BE01812FDF91CF911F910C945316CB011D
:102000000E946B0F182FF4CF1F93CF93DF93C091D3
:10201000860216E0809187028C1304C0DF91CF9175
:102020001F910895D0E01C9FF0011D9FF00D112419
:10203000E857FD4F40815181628173818481958190
:102040000E94FF0D2196C770E5CF4091B8025091D4
:10205000B9026091BA027091BB028091BC0290916A
:10206000BD020C94FF0DFF920F931F93CF93DF934C
:102070008091BD02807FD1F48091BA028823B1F0B3
:1020800080918602109187026091B8027091B90226
:10209000A091BB02B091BC02062F0723C0910001A2
:1020A000D091010196E0F92E181306C0DF91CF916F
:1020B0001F910F91FF90089590E0109711F00F3F3E
:1020C00019F401968770F0CFF89E9001F99E300DBB
:1020D0001124F901E857FD4F41814713F2CF4081A8
:1020E0004613EFCF42814111ECCF438154814A1B0B
:1020F0005B0B4C175D0728F78091BD028F708061E4
:102100008093BD02F901E357FD4F80818F7080619C
:10211000808388EB92E00E94900DDF91CF911F9118
:102120000F91FF900C940410AF92BF92CF92DF9268
:10213000EF92FF920F931F93CF93DF93CDB7DEB74C
:1021400061970FB6F894DEBF0FBECDBF8C0185E05E
:10215000F801DE011D9601900D928A95E1F7F801D4
:10216000E28088EBC82E82E0D82E6091BB0270918D
:10217000BC026115710509F45FC19091B80220910C
:10218000B902892F82238F3F09F456C140815181C2
:10219000A380B480F090BA02F501E61BF70BBF01F3
:1021A000E0910001F0910101FF2009F4F6C0809157
:1021B000BD02382F307F6E177F0708F0AFC0311196
:1021C00079C0FE2C251323C0941321C0E1101FC039
:1021D0008F7080618093BD020E942510C6010E940D
:1021E000900D8091BD02F80185838F2D61960FB609
:1021F000F894DEBF0FBECDBFDF91CF911F910F913D
:10220000FF90EF90DF90CF90BF90AF900895AB28F4
:1022100029F0842F85238F3F09F027C180E0F82F14
:10222000F170DF2E80FF3CC08091860220918702F2
:1022300036E0821315C04D875E878D859E850E948E
:10224000D60F292F22952F702230F0F0243018F568
:102250009F70F1F0F8019581907FD1F4D12C1EC0D0
:1022600090E0389FF001399FF00D1124E857FD4FA1
:102270006181651306C06081641303C062816E11C1
:102280000FC001968770D5CF9F7011F0882331F36E
:10229000805E883018F3C8010E94900DFD2CA5CFF8
:1022A000EE2009F4A2CF8091BD0281608093BD022F
:1022B000F12C9BCF251306C0941304C0F801EE2027
:1022C00009F487C0C8010E94E90D882319F1EE20A6
:1022D00009F18091BD02803270F02091B8023091F6
:1022E000B90238872F831986BB86AA868C87CE01D0
:1022F00007960E94900D86E0F801A8EBB2E00190ED
:102300000D928A95E1F70E9433100E942510FF2458
:10231000F3946BCFC8010E94900DF9CF311113C017
:102320007A2DB98AA88A6E2D89890E94F00D88EBD2
:1023300092E00E94900D86E0F60111928A95E9F7ED
:102340000E942510B5CF25130FC094130DC0E110C6
:102350000BC0F8018583C8010E94900D86E0F6014C
:1023600011928A95E9F741CFC8010E94E90D8823AF
:1023700089F2EE2079F28091BD02803208F4BBCF61
:102380002091B8023091B9023A8329831B82BD8221
:10239000AC828E83CE010196ACCF6E177F0708F01A
:1023A0003EC0FE2CEE2009F4B5CF25132AC09413AD
:1023B00028C08091BD0280FD1BC0982F907FC1F086
:1023C000F8018583903F31F0982F907F905F8F7058
:1023D000892B8583C8010E94900D86E0F801A8EB47
:1023E000B2E001900D928A95E1F70E942510FDCE92
:1023F00086E0F801A8EBB2E001900D928A95E1F732
:10240000F4CEC8010E94E90D811175CF8091BD0203
:1024100081608093BD02C8010E94900DE6CE7A2DA6
:10242000B98AA88A6E2D89890E94F00D86E0F6018E
:1024300011928A95E9F7D9CFEE2009F46BCFC80144
:102440000E94E90DF82E882309F464CF86E0F80194
:10245000A8EBB2E001900D928A95E1F788EB92E04B
:102460000E94890A0E943310C0CF81E08E25D7CE0A
:102470001F93CF93DF93CDB7DEB72C970FB6F894A9
:10248000DEBF0FBECDBF4F83588769877A878B87A2
:102490009C87CE0107960E949410882369F08A8554
:1024A0009B85892B39F04F815885842F85238F3F59
:1024B00009F071C016E05FC086E0FE013796DE01CC
:1024C000119601900D928A95E1F78A859B85892B5B
:1024D00089F38F81988589238F3F61F3209187024B
:1024E00030E0C9010196877099274091860248170C
:1024F000190671F40E94C60D10928702109286028E
:1025000086E0E8EBF2E0DF011D928A95E9F7D2CF91
:1025100096E0929FD001939FB00D1124A857BD4F14
:10252000FE01319601900D929A95E1F78093870212
:102530000E940410BFCF819FC001112488579D4F76
:102540000E9494108823E9F0E09186021E9FF0011A
:102550001124E857FD4F408151816281738184814C
:1025600095810E94FF0D8091860290E00196877010
:102570009927809386028091860290918702891321
:10258000DACF2C960FB6F894DEBF0FBECDBFDF9129
:10259000CF911F91089569857A858B859C850E94CE
:1025A000FF0D88CF682F80910201909103010C9458
:1025B000961C682F80910201909103010C94A11C3C
:1025C00080910201909103010C94AC1C8091BE0299
:1025D00085958595859508958091BE0287700895AB
:1025E0009091BE02977081E009F480E00895809197
:1025F000E20208959091E202892B8093E20208950D
:1026000080959091E20298239093E20208951092AF
:10261000E20208959091E102892B8093E1020895EE
:1026200080959091E10298239093E1020895109291
:10263000E10208951092E00208958091BF0208958A
:1026400008950C94201390913A0392FD08C0909144
:10265000BF02981721F08093BF020C9421130895B4
:102660008091BF02882329F01092BF0280E00C9471
:1026700021130895E0910201F09103018091E2029B
:102680008083E0910201F091030180819091E10249
:10269000892B8083E0910201F09103018081909168
:1026A000E002892B80839091BF02992381F0E09111
:1026B0000201F09103018081892B808380910201C6
:1026C000909103010E94021C81110E94301380919D
:1026D0000201909103010C94BC1B08950C946D139E
:1026E00090913A0392FD10C098E0899F90011124C7
:1026F000622B6093BE020E94A10E8091BE0285955E
:10270000859585950C946E130C94A10E1092BE02C3
:1027100080E00C946E139091BE0280958923809383
:10272000BE02282F277091F4282F082E000C330B9F
:102730009217130659F090913A0392FD07C08595C0
:10274000859585950E94C20E0C94861308959091EC
:102750003A0392FB222720F9281769F080FB92F9AF
:1027600090933A038091390390913A030E94F213B7
:1027700082E00C948B13089580913A0382FB8827A2
:1027800080F991E089270C94A71381E00C94A7139A
:1027900080E00C94A7136FEF7FEF90E080E00C9443
:1027A000A12490E080E00E947D2421E0893E9E4F9C
:1027B00009F020E0822F089582E090E00C947524C7
:1027C00083E090E00C947524CF9384E090E00E9425
:1027D0007524C82F82E290E00E947524982F8C2FD8
:1027E000CF910895CF93C92F682F84E090E00E9485
:1027F00083246C2F82E290E0CF910C948324AB0170
:10280000BC018FE090E00C949524AB01BC0183E106
:1028100090E00C94952460E070E0CB010C940514DA
:1028200060E070E0CB010E94FF130C940B1469EE82
:102830007EEF90E080E00E94A12460E082E090E0E2
:102840000E94832460E083E090E00E948324109241
:10285000820210928302109284021092850260E03C
:1028600084E090E00E94832460E082E290E00E9495
:10287000832460E085E090E00E94832460E086E0AD
:1028800090E00E9483246FEF87E090E00E94832411
:1028900040E050E0BA0188E090E00E94952460E0BA
:1028A0008DE090E00E94832440E050E0BA0188E18E
:1028B00090E00E94952460E087E190E00E948324EC
:1028C00040E050E0BA018CE190E00E94952470E075
:1028D00060E080E290E00E94A12440E050E0BA0174
:1028E00088E190E00E9495240C9410140C94171425
:1028F000682F8EE090E00C9483240E945A1D609310
:10290000F6027093F7028093F8029093F9026093B5
:10291000F2027093F3028093F4029093F50208950B
:102920000E945A1D6093F6027093F7028093F8029A
:102930009093F9026093EE027093EF028093F0029D
:102940009093F102089585B7806885BF85B7806848
:1029500085BF0895089508950C94AA1408950C94C1
:10296000AE140E94A31481E397E10E94A61B0E946B
:10297000AB140C94AC1481E008950C94BB1408952E
:1029800008950E94BF140C94C0140E94451D0E941B
:102990007C180E94681A0C94AF14AF92BF92CF9229
:1029A000DF92EF92FF920F931F93CF93DF93CDB7F8
:1029B000DEB72A970FB6F894DEBF0FBECDBF0E94D8
:1029C000911881110E947D1484EEA82E82E0B82E09
:1029D00010E000E0C02E802F0E947417E82EF50151
:1029E000F1905F01F81609F451C08091FA0281FD5F
:1029F0000E947A178F2D8E25D12CFF24F394982FC7
:102A00009F2109F43EC00E94BD14882399F0DE8204
:102A1000CF82EF2081E009F480E088870E944E1D7C
:102A20008160782F9A8789874E815F8168858A8542
:102A30000E944B0AF801EC51FD4F8081F826F0828C
:102A40000E94771A81110E9490140E94B01B9091ED
:102A5000E302891791F10E94B01B8093E3022A964A
:102A60000FB6F894DEBF0FBECDBFDF91CF911F919F
:102A70000F91FF90EF90DF90CF90BF90AF900C94AC
:102A8000430AD394FF0CF6E0DF12B9CF0F5F1F4F5C
:102A90000A30110509F09ECF8FEF89838A831B824C
:102AA0000E944E1D8160782F9D838C8349815A81BD
:102AB0006B818D810E944B0AC3CF2A960FB6F89482
:102AC000DEBF0FBECDBFDF91CF911F910F91FF9061
:102AD000EF90DF90CF90BF90AF900895CF93DF93AA
:102AE0000E945716EC01811523E5920790F5811598
:102AF00032E5930708F096C081159042C8F4C115DD
:102B000081E0D80788F4C53AD10548F4C430D1052E
:102B100058F4C130D10541F0D0E0C0E005C0CE018D
:102B2000805E91090897C0F7CE01DF91CF9108959B
:102B3000C11591E5D90708F070C0C11520E5D2078D
:102B400008F04EC0C11530E4D30730F3DF70D06A0F
:102B5000EBCF811546E59407F0F4C11585E5D8075C
:102B600008F075C0C11594E5D90708F06BC0CE0117
:102B70008370992721E030E002C0220F331F8A952D
:102B8000E2F7C695C69590E2C99FE0011124C22BD9
:102B9000D32BDA68C9CF81152AE5920778F481151D
:102BA00039E5930708F05EC0811548E5940708F4FD
:102BB000B3CFD82FCC27C06FD06AB6CF905681152F
:102BC000904208F0A9CF8D2F8F710E94EE1690E0F1
:102BD000982F882788279F719C012C2BE90140C0E2
:102BE000CE01E4E096958795EA95E1F783702C2F66
:102BF00026952695237040E2249F90011124382BBE
:102C00008C2F8370C1E0D0E002C0CC0FDD1F8A950D
:102C1000E2F7C22BD32BDC6887CFDC2FCC27C16F28
:102C2000D06A82CF8370992721E030E002C0220F62
:102C3000331F8A95E2F7C695C69580E2C89FE001EA
:102C40001124E7CFDC2FCC27C46FD06A6DCF8C2F37
:102C50000E94EE16C82FD0E0DC2FCC27CC27DF71E6
:102C6000D06262CF8F700E94EE1634E0D695C79581
:102C70003A95E1F7CF709C2FEC01D06955CF972F93
:102C800070E026E0929F600D711D1124FB019CE312
:102C9000899FE00DF11D1124EE0FFF1FE455FF4F3A
:102CA0008591949108950E943F160C946E15823878
:102CB0009105B1F1B0F48133910509F475C048F480
:102CC0008932910509F469C08A32910509F473C00B
:102CD00008958533910509F459C08933910501F1AF
:102CE0000895833E9105A9F138F4803E9105F9F0ED
:102CF000823E910549F10895863E9105A9F1873EEE
:102D00009105C9F1843E910519F520913A0321FFFF
:102D10001FC08091390384FD14C087EE90E00895B0
:102D2000209139032370A1F080EE90E00895209166
:102D3000390320FD47C030913A0330FF09C024FF1A
:102D400044C090E080E004C02091390322FDF7CF19
:102D500008952091390322FD3BC030913A0330FDA4
:102D6000E3CF24FFF5CFEDCF2091390323FFF0CF40
:102D700024FDE7CFD2CF2091390323FD2CC0309121
:102D80003A0331FFEECF84EE90E0089520913903AD
:102D900025FFDECF89E290E008952091390325FFD9
:102DA000D7CF85E390E008952091390326FFD0CF57
:102DB0008AE290E008952091390326FFC9CF81E38C
:102DC00090E0089589E390E0089583EE90E00895FF
:102DD00082EE90E0089586EE90E008959091390398
:102DE00092FF06C0282F28712830F9F4877F84606D
:102DF00093FF06C0282F28712831F1F4877E846163
:102E000020913A0320FF06C0382F38713830D9F4AA
:102E1000877F816021FF06C0282F28712831D1F4D7
:102E2000877E816194FD877E0895282F2471243048
:102E3000F9F68B7F8860DCCF282F2471243101F7CD
:102E40008B7E8861DDCF382F3171313019F78E7F5D
:102E50008860E0CF282F2171213121F78E7E886193
:102E6000E1CF80E008950C94CB130E9491188FE37A
:102E70009CE90197F1F700C000000E94911880E0E2
:102E80000E94741780FF04C00E9433170C94991D90
:102E900008950C9435170E94D113811102C00E942D
:102EA00076140E94DC138093FA020E94E41390933C
:102EB0003A03809339030E9449170E94E013682F58
:102EC00070E090E080E00E941F0E60917E027091A1
:102ED0007F0280918002909181020C94590E0C9493
:102EE0004D0808950C947117E82FF0E0EB5BFC4F50
:102EF00080810895089580EA8A95F1F7089500C0C9
:102F000008950C947B17F894E82FE295EF70F0E0A9
:102F100031A1282F2F7081E090E001C0880F2A9501
:102F2000EAF7982F9095932391A392A1892B82A3DE
:102F300078940895F894E82FE295EF70F0E031A1CD
:102F4000282F2F7081E090E001C0880F2A95EAF7C2
:102F5000382B31A392A18095892382A37894089578
:102F6000DF92EF92FF920F931F93CF93DF93EC01C9
:102F7000D62E062F10E0F801E75DFD4FE0808FEFC1
:102F8000E81681F18E2D0E949A170E947F17E3E2C6
:102F9000F2E049E252E081E0F12C91919F3F79F01B
:102FA000A92FA295AF70B0E090962C9130E09F7061
:102FB00002C0359527959A95E2F7982F20FD90E06D
:102FC000F92A880F4E175F0741F78E2D0E9483174D
:102FD00061E0F11001C060E08D2D0E948117C00FEB
:102FE000D11FF882DF91CF911F910F91FF90EF9049
:102FF000DF900895CF92DF92EF92FF920F931F938D
:10300000CF93DF93E82E092F162FF42EC62FD0E092
:10301000CD5DDD4F88818F3F09F445C00E949A172E
:103020000E947F1789E2C82E82E0D82EEE2DF02F65
:10303000AF014B5F5F4F00E0EF2CE094D6019D9114
:103040006D0181919F01215031099F3F41F1692F0D
:1030500062956F7070E0DB0190966C9170E09F70EC
:1030600002C0759567959A95E2F760FD18C08F29A3
:10307000D9018C9301E0E417F50701F788818F3FB0
:1030800011F00E948317602F812FDF91CF911F9144
:103090000F91FF90EF90DF90CF900C9481178E21CD
:1030A000D9018C93E8CFDF91CF911F910F91FF90C1
:1030B000EF90DF90CF9008950F931F93CF93DF93FE
:1030C000C9E2D2E089918F3F11F00E94831782E01C
:1030D000CE32D807B9F7C3E2D2E009E212E0899113
:1030E0008F3F11F00E9483170C171D07C1F7DF9166
:1030F000CF911F910F9108950E945C188AE0E5E43A
:10310000F3E0DF01982F1D929A95E9F7EBEFF2E0DB
:10311000DF011D928A95E9F785E00E94EC180C9476
:10312000F408EF92FF920F931F93CF93DF93CDB7E5
:10313000DEB72A970FB6F894DEBF0FBECDBF8E0163
:103140000F5F1F4F8AE0F80111928A95E9F7F12C81
:103150006F2DC8010E94B017F394F5E0FF12F8CF6D
:10316000F12CEE24E3944E2D6F2DCE0106960E9495
:10317000FA17F394EE0C86E0F812F5CF4AE050E02F
:10318000B8018BEF92E00E946824FF24F39400972B
:1031900009F4F12C892B41F08AE0F801ABEFB2E0A1
:1031A00001900D928A95E1F72F2D4AE065E473E0D6
:1031B0008BEF92E00E94ED180E94FA088F2D2A965C
:1031C0000FB6F894DEBF0FBECDBFDF91CF911F9138
:1031D0000F91FF90EF9008950895FF920F931F9322
:1031E000CF93DF93F82E092F162FD72FC42F22232A
:1031F00049F081E0809307030E944E1D90930603DF
:1032000080930503809107038823A1F08091050333
:10321000909106030E94661D059760F0EF2DF02F38
:10322000A12FBD2FCE0FDF2FD11DEC17FD0741F4CD
:1032300010920703DF91CF911F910F91FF90089596
:1032400081918D93F2CF0E940E1F0E94C5140C94A1
:103250001A1F0E941E1F0E94CD140C94381F0E943A
:10326000D81C0E94F51E0E94B1140E9423190E94CE
:1032700029190E94C114FBCFCF93DF93EC01FB010E
:103280008281882309F420C1C430FDE5DF07C8F539
:10329000CB3F9CE5D90730F49E0122503C452431B8
:1032A000310598F50E94E41390933A038093390313
:1032B000C031FCE5DF0709F4E0C008F061C0C830A8
:1032C0009CE5D90709F4CBC088F5C430FCE5DF07DD
:1032D00009F4B3C0E8F4C2309CE5D90709F4A7C0EB
:1032E000809139038260C330DC4509F4A3C080912A
:1032F000390390913A030E94F2130E94C60D80E0B8
:1033000004C0C236EDE5DE0769F2DF91CF91089582
:10331000809139038061C630FCE5DF0709F48AC07B
:1033200008F48FC080913903806284C08091390392
:103330008D7FCC309CE5D90709F47CC070F4809176
:1033400039038C60CA30FCE5DF0709F473C008F468
:103350008AC0809139038E7F6DC080913903877F49
:10336000CE309CE5D90709F465C0809139038B7F85
:10337000CF30DC4508F45EC0809139038F7E5AC09F
:10338000CD3FFCE5DF0709F474C040F5C4319CE58E
:10339000D90709F48AC058F4C231FCE5DF0709F403
:1033A00074C008F46EC080913903837F43C0CB3F63
:1033B0009CE5D90709F449C008F04DC0C531DC458A
:1033C00009F095CF8091390382FB992790F921E08C
:1033D000922790FB82F990FB83F92CC0C1308DE5D8
:1033E000D80709F458C088F480913A038360CF3F2E
:1033F000ECE5DE0769F180913A038D7FC115DD456B
:1034000038F180913A038C7F23C0C3308DE5D80713
:1034100009F458C008F452C0C236DD4509F067CF40
:1034200090913903892F8F7E94FF806103C0809132
:1034300039038160809339035ACF809139038460C6
:10344000F9CF809139038860F5CF80913A0381608C
:1034500080933A034CCF80913A038260F9CF8091F8
:1034600039038064E7CF0E94C60D809139038068DC
:10347000E1CF80913A038E7FEBCF809139038F7D2E
:10348000D9CF809139038F7BD5CF0E94C60D809113
:1034900039038F77CFCF80913A03982F9095917011
:1034A0008E7F892B90FB81F9D3CF0E94C60D90911E
:1034B0003903892F97FB87F98058BCCF81E00E94A0
:1034C000781415CF80E0FBCF81E01FCF0C948C08DF
:1034D0005098589A5198599A89B18170499905C064
:1034E00090E0892B80930A03089592E0FACFE0914F
:1034F0000A03EE0FEE0FE0930A0349B1842F8170A7
:1035000049B141FB222720F941FF02C022E030E00F
:10351000822BE82BE0930A03EF70F0E0E25DFD4FB1
:10352000808190910903890F8093090320E0843002
:1035300054F0809108038F5F8093080360E080E07F
:103540000E94661A21E0809109038D3F54F4809116
:10355000080381508093080361E080E00E94661AAE
:1035600021E080910903082E000C990B64E070E0C3
:103570000E943A2480930903822F0895CF93DF930A
:10358000EB0186319C4511F50E94F7129A8199232F
:1035900099F08A7A91E009F490E090930B038111FD
:1035A00009C089E20E94D2120E943A1380E0DF91A2
:1035B000CF91089585E3F6CF80910B03811104C06C
:1035C00089E20E94D912F0CF85E3FBCF81E0EFCFF3
:1035D0000F931F93CF93DF93C42FD22FFC018281CF
:1035E0008823C9F040930E030E944E1D90930D0353
:1035F00080930C0380E28C0F883008F050C0C770B5
:1036000081E001C0880FCA95EAF7DF91CF911F9141
:103610000F910C946C0B10910E03141335C0809114
:103620000C0390910D030E94661D883C910560F586
:10363000C0E2CD0F1D17B9F080E2810F883040F451
:10364000177081E001C0880F1A95EAF70E94730B8A
:10365000C83048F481E09D2F977001C0880F9A957B
:10366000EAF70E946C0B802F0E94640BC830B8F4FC
:10367000D77081E001C0880FDA95EAF7DF91CF912A
:103680001F910F910C94730B80E28C0F883038F4EB
:10369000C77081E001C0880FCA95EAF7EFCFDF91CC
:1036A000CF911F910F9108950F939C01CB01243F5F
:1036B0004CE5340759F1A8F4293DFCE53F0701F139
:1036C0002A3D4CE53407D1F1283D3C4591F406E212
:1036D00021EE41EE68ED7CE50E94E81A80E00F9152
:1036E0000895263FFCE53F07E9F0B0F0273F3C4551
:1036F000F9F0FC018281882339F110920E03EFCF9B
:1037000007E225EE45EE69ED7CE5E6CF06E221EE27
:1037100040EE64EF7CE5E0CF07E225EE44EE65EF96
:103720007CE5DACF06E221EE42EE66EF7CE5D4CF0F
:1037300007E225EE46EE67EF7CE5CECF08E221E01A
:1037400045EE6AED7CE5C8CF81E0C9CF90933F029A
:1037500080933E0208959093140380931303089579
:10376000E0911303F0911403309721F00190F08160
:10377000E02D099480E00895E0911303F091140383
:10378000309799F020911001222359F020913903AC
:1037900027FF07C0DC012C9111962C93119726E08E
:1037A0002C930280F381E02D099408952091110358
:1037B000309112032817390771F090931203809308
:1037C0001103E0911303F0911403309721F0068068
:1037D000F781E02D0994089520910F033091100393
:1037E0002817390771F09093100380930F03E0912D
:1037F0001303F0911403309721F00084F185E02D3C
:1038000009940895FC01329680911001882321F0DB
:10381000809139039EE187FF96E080E0915008F4A3
:10382000089521912223D1F38F5FF8CF662301F110
:10383000209110012223F1F02091390327FF1AC0B3
:10384000462F4695469546954E3190F4677021E097
:1038500030E002C0220F331F6A95E2F7840F911DFA
:10386000FC01828190E02823392381E0232B69F435
:1038700080E00895FC01329608962191261721F0E8
:10388000E817F907D1F7F4CF81E008959C01FC0116
:1038900032969FEF80E04191461751F09F3F19F417
:1038A000411101C0982F8F5F8630A9F79F3F09F41F
:1038B0000895290F311D97FD3A95F9016283089506
:1038C000FC01329608962191261303C0DF0111975F
:1038D0001C92E817F907B9F70895E62FE695E695E3
:1038E000E695EE3168F4E80FF92FF11D677021E0DD
:1038F00030E001C0220F6A95EAF78281822B828331
:103900000895E62FE695E695E695EE3170F4E80F1A
:10391000F92FF11D677021E030E001C0220F6A9598
:10392000EAF72095828128232283089520911001AF
:10393000222329F02091390327FD0C946D1C0C944F
:10394000461C20911001222329F02091390327FDE4
:103950000C94811C0C94601CFC0132968091100127
:10396000882351F08091390387FF06C08EE1DF0183
:103970001D928A95E9F7089586E0F9CF08950C9491
:10398000BE1C811105C081E0809315030C94BF1CFF
:1039900082E0FACF83E0809315030C94BF1C0C9453
:1039A000C11C81E0809315030C94BF1C0C94D11CA6
:1039B000089580915703843031F10E94FC081092E1
:1039C000160388E190E020E40FB6F894A895809360
:1039D00060000FBE2093600083B7817F846083BF47
:1039E00083B7816083BF7894889583B78E7F83BFC8
:1039F0000FB6F894A895809160008861809360006C
:103A0000109260000FBE089508950895CF930E940C
:103A1000041D0E9491180E94051DC0E08C2F0E9479
:103A20007417811105C0CF5FCA30C1F7CF910895D7
:103A300081E0FCCF0E94C60D0C9464091F921FB652
:103A40001F9211248F939F93AF93BF93809116037E
:103A5000811113C080914F0390915003A0915103A5
:103A6000B09152034196A11DB11D80934F039093D5
:103A70005003A0935103B0935203BF91AF919F9114
:103A80008F911F901FBE1F90189582E084BD93E018
:103A900095BD9AEF97BD80936E0008952FB7F89467
:103AA00080914F0390915003A0915103B091520324
:103AB0002FBF08952FB7F89460914F037091500372
:103AC00080915103909152032FBF08959C014FB7ED
:103AD000F89480914F0390915003A0915103B091BD
:103AE00052034FBF821B930B089578941F921FB609
:103AF0001F9211248F939F93AF93BF9380914F0395
:103B000090915003A0915103B09152030196A11DD1
:103B1000B11D80934F0390935003A0935103B09332
:103B20005203BF91AF919F918F911F901FBE1F9025
:103B3000189581E08093E00080E28093D800109295
:103B4000C9008FE19EE40197F1F700C0000087E013
:103B500090EBDC018093600390936103A093620378
:103B6000B093630388E19CE00FB6F894A895809326
:103B700060000FBE90936000FFCF809137030895DF
:103B800008950895CF93DF93EC018091100188236D
:103B9000B1F18091390387FF32C060E282E0809307
:103BA000E9008FEF9091E800815095FD06C095EDFA
:103BB0009A95F1F700008111F5CF8091E80085FF1B
:103BC0001BC08091100170E050E040E0811104C002
:103BD00050E040E068E070E0CE010E94A91F8091B3
:103BE000E8008E778093E80080E2FE01A7E1B3E071
:103BF00001900D928A95E1F7DF91CF91089568E0E9
:103C000081E0CDCF0895089580915603811109C0B8
:103C10000E9439210E9496218091E2008460809365
:103C2000E20008951092560308950C94D11C6091FF
:103C3000530381E0611101C080E00C94CA1C909193
:103C4000570381E0943009F080E0609153030C94B5
:103C5000CF1C42E061EC81E00E94B52042E261ECC1
:103C600082E00E94B5209091570381E0943009F0E2
:103C700080E0609153030C94C11C80915903833000
:103C800009F460C030F48130C9F1823009F49CC07D
:103C900008958A3009F488C08B3009F46EC08930E9
:103CA00009F04FC080915803813209F04AC08091D9
:103CB0005C0390915D03029708F043C08091E80097
:103CC000877F8093E8008091E80082FF36C0909162
:103CD000F3008091F200029731F48091F10081307D
:103CE00011F0863021F48091F100809337038091A8
:103CF000E8008B778093E8000C94E92080915803CA
:103D0000813AF9F48091E800877F8093E800809100
:103D10005C0390915D03892B61F460E287E193E09D
:103D200070E00E94F81F8091E8008B778093E80094
:103D3000089560E090E080E0F3CF80915703811117
:103D4000C2CF089580915803813AD9F780915C03DE
:103D500090915D03892BA9F78091E800877F80937C
:103D6000E8008091E80080FFFCCF809110018093F3
:103D7000F1008091E8008E77BDCF809158038132A9
:103D800001F780915C0390915D03892BD1F68091BE
:103D9000E800877F8093E8000E94E92080915A0321
:103DA000809310010C94C60D80915803813249F61E
:103DB0008091E800877F8093E8000E94E92080914D
:103DC0005B0380933803089580915803813A09F08A
:103DD000B8CF8091E800877F8093E8008091E80069
:103DE00080FFFCCF80913803C2CF84B7877F84BF28
:103DF0000FB6F894A8958091600088618093600068
:103E0000109260000FBE80E890E00FB6F8948093A7
:103E10006100909361000FBE0C94D61C0E94392162
:103E20000E949621E2EEF0E08081846080837894A5
:103E30000C941F2484E091E00C94AB1B80915703F9
:103E40008530A9F480915703853011F00C941A1D28
:103E50000E94D91C809155038823A1F30E94061D5E
:103E6000882381F30E94931F0E94C60DEBCF089513
:103E700008950C943B1F292F33272330310519F166
:103E800068F42130310509F444C02230310509F4C9
:103E900045C090E080E030E020E025C021323105CF
:103EA00049F122323105A9F780E490E020EA33E0BD
:103EB00061157105C1F08BE390E025E633E06130D8
:103EC000710589F0E6CF99278130910581F000973F
:103ED00029F00297F1F6E4ECF2E002C0E4E1F3E04D
:103EE000849190E09F01FA01318320830895ECEFE3
:103EF000F2E0F6CF89E090E02AE233E06115710547
:103F000091F389E090E023E433E06130710559F3E7
:103F1000C0CF82E190E023E533E0E5CF8BE390E092
:103F200028E133E0E0CF80E189BD82E189BD09B4B9
:103F300000FEFDCF8091D8008F7D8093D8008091C6
:103F4000E00082608093E0008091E00081FDFCCF82
:103F50000895AF92BF92CF92DF92FF920F931F937B
:103F6000CF93DF936C01EB018A010E940821F82EA8
:103F7000811123C00115110539F0F801808191816B
:103F8000C81BD90BC80ED91EB12CA12C2097A9F0A3
:103F90008091E80085FD22C08091E8008E778093B3
:103FA000E80001151105A1F0F80180819181A80EAA
:103FB000B91EB182A08285E0F82E8F2DDF91CF91BE
:103FC0001F910F91FF90DF90CF90BF90AF90089519
:103FD0000E9408218823D1F2F82EEFCFF6018191BB
:103FE0006F018093F1002197FFEFAF1ABF0ACECF88
:103FF000FC0180915E0390915F0386179707A0F004
:104000006115710529F49091E8009E779093E8007E
:1040100090E06115710551F4911108C08091E8009C
:1040200082FF34C080E00895BC01F2CF8091570335
:104030008823C1F18530C1F18091E80083FD30C053
:104040008091E80082FDEACF8091E80080FFE1CF17
:104050008091F3002091F200382F6115710519F05D
:104060002830310558F091E02830310509F090E012
:104070002091E8002E772093E800CBCF81918093A8
:10408000F100615071092F5F3F4FE7CF80915703D7
:10409000882341F0853041F08091E80083FFBECF56
:1040A00081E0089582E0089583E00895FC01809105
:1040B0005E0390915F0386179707A0F06115710565
:1040C00029F48091E8008E778093E80090E06115F4
:1040D000710551F4911108C08091E80082FF35C04C
:1040E00080E00895BC01F2CF809157038823C9F185
:1040F0008530C9F18091E80083FD31C08091E800EE
:1041000082FDEACF8091E80080FFE1CF8091F3004B
:104110002091F200382F6115710519F02830310512
:1041200058F091E02830310509F090E08091E800E6
:104130008E778093E800CBCF84918093F100319605
:10414000615071092F5F3F4FE6CF8091570388235D
:1041500041F0853041F08091E80083FFBDCF81E0E0
:10416000089582E0089583E00895982F973028F00D
:104170008F708093E90081E008959093E900242FE7
:10418000762F50E0981731F07091EC002091ED00FF
:104190005091F00021FD02C09F5FE8CF3091EB000D
:1041A0003E7F3093EB003091ED003D7F3093ED008A
:1041B0003091EB0031603093EB007093EC00209372
:1041C000ED005093F0002091EE0027FDE5CF80E058
:1041D00008958091580387FF13C08091E80082FF03
:1041E00006C08091E8008B778093E80004C080913E
:1041F00057038111F2CF0895809157038823D9F393
:104200008091E80080FFF8CF8091E8008E77ECCFB6
:104210002091E4003091E50095E6A9012091EC00A1
:10422000822F817020FF06C08091E80080FF06C0C9
:1042300080E008952091E80022FD1AC08091570384
:10424000882389F0853089F08091EB0085FD0FC0CF
:104250002091E4003091E50042175307F9F29150A4
:10426000E1F684E0089582E0089583E0089581E016
:1042700008950E94A7210E94AF21E0EEF0E0808126
:1042800081608083E8EDF0E080818F77808319BCC6
:10429000A7EDB0E08C918E7F8C9380818F7E8083A0
:1042A0001092560308950F931F93CF93DF930E94AC
:1042B000A7210E94AF21C8EDD0E088818F77888345
:1042C00088818068888388818F7D888319BC10925B
:1042D000570310925303109255031092540300EEAB
:1042E00010E0F80180818B7F8083888181608883E2
:1042F00042E060E080E00E94B520E1EEF0E08081E5
:104300008E7F8083E2EEF0E0808181608083808117
:1043100088608083F80180818E7F808388818061BE
:104320008883DF91CF911F910F910895E8EDF0E020
:1043300080818F7E8083E7EDF0E0808181608083E3
:1043400084E082BF81E0809356030C945321E8ED12
:10435000F0E080818E7F80831092E20008951092B9
:10436000DA001092E10008951F920F920FB60F929B
:1043700011242F933F934F935F936F937F938F936A
:104380009F93AF93BF93EF93FF938091E10082FFE0
:104390000BC08091E20082FF07C08091E1008B7F1B
:1043A0008093E1000E941E248091DA0080FF19C0F2
:1043B0008091D80080FF15C08091DA008E7F8093B5
:1043C000DA008091D90080FF96C080E189BD82E14A
:1043D00089BD09B400FEFDCF81E0809357030E94A0
:1043E000041E8091E10080FF19C08091E20080FFEF
:1043F00015C08091E2008E7F8093E2008091E20000
:1044000080618093E2008091D80080628093D80020
:1044100019BC85E0809357030E94171E8091E1002C
:1044200084FF2BC08091E20084FF27C080E189BD1A
:1044300082E189BD89B5982F917080FFFBCF809173
:10444000D8008F7D8093D8008091E1008F7E80938B
:10445000E1008091E2008F7E8093E2008091E20093
:1044600081608093E20080915303882309F449C05E
:1044700084E0809357030E941F1E8091E10083FF18
:1044800029C08091E20083FF25C08091E100877FF1
:104490008093E10082E08093570310925303809150
:1044A000E1008E7F8093E1008091E2008E7F809317
:1044B000E2008091E20080618093E20042E060E0EF
:1044C00080E00E94B5208091F00088608093F00029
:1044D0000E94151EFF91EF91BF91AF919F918F9117
:1044E0007F916F915F914F913F912F910F900FBEF0
:1044F0000F901F90189519BC109257030E94121E1E
:1045000070CF8091E30087FD93E090935703B3CF82
:104510001F920F920FB60F9211242F933F934F9338
:104520005F936F937F938F939F93AF93BF93CF933B
:10453000DF93EF93FF93D091E900DF708091EC005F
:10454000C82FC17080FDC0E81092E9008091F00092
:10455000877F8093F00078940E94CC221092E9002B
:104560008091F00088608093F000CD2BCF70C093D5
:10457000E900FF91EF91DF91CF91BF91AF919F91B2
:104580008F917F916F915F914F913F912F910F90FC
:104590000FBE0F901F9018951F93CF93DF93CDB749
:1045A000DEB7AA970FB6F894DEBF0FBECDBF88E581
:1045B00093E02091F100FC012193CF01F3E08036DC
:1045C0009F07B9F70E943D1E8091E80083FF1EC13E
:1045D00080915803909159039A3008F017C1E92F40
:1045E000F0E0EB5DF94D0C944E24803899F0823860
:1045F00009F00CC180915C038F70873008F006C110
:104600008093E9008091EB0085FB882780F9109268
:10461000E90006C080915403909155039111826086
:104620009091E800977F9093E8008093F1001092BA
:10463000F1008091E8008E77E5C0882309F4D3C0AB
:10464000823009F0E3C080915A038111D6C0809175
:104650005C038F702FEF280F263008F0D7C08093AF
:10466000E9002091EB0020FFC8C0933031F4809125
:10467000EB0080628093EB00C0C09091EB009061F2
:104680009093EB0021E030E001C0220F8A95EAF719
:104690002093EA001092EA008091EB008860EACF54
:1046A0008111B4C010915A031F778091E300807884
:1046B000812B8093E3008091E800877F8093E8005E
:1046C0000E94E9208091E80080FFFCCF8091E30008
:1046D00080688093E30082E0111183E080935703A8
:1046E00095C08058823008F091C080915A03909113
:1046F0005B038C3D23E09207A1F583E08A838AE285
:1047000089834FB7F894DE01139620E03EE051E232
:10471000E32FF0E050935700E49120FF03C0E295AF
:10472000EF703F5FEF708E2F90E0EA30C0F0C796D9
:104730008D939D932F5F243159F74FBF8091E800EF
:10474000877F8093E8006AE270E0CE0101960E94C4
:10475000F81F8091E8008B778093E80057C0C096DF
:10476000E7CF60915C0370915D03AE014F5F5F4FD7
:104770000E94391FBC01892B09F448C09091E800C0
:10478000977F9093E80089819A810E945620E1CF1B
:104790008038E1F58091E800877F8093E800809180
:1047A00053038093F10045CF811130C090915A039B
:1047B000923060F58091E800877F8093E8009093C5
:1047C00053030E94E92080915303882311F084E071
:1047D00005C08091E30087FDFACF81E08093570305
:1047E0000E94291E13C080915A03813079F481E020
:1047F000933009F080E0809355031092E900809196
:10480000E800877F8093E8000E94E9208091E8001B
:1048100083FF0AC08091E800877F8093E800809141
:10482000EB0080628093EB00AA960FB6F894DEBF8F
:104830000FBECDBFDF91CF911F9108950895CF9303
:10484000809157038823A1F0C091E900CF70909127
:10485000EC00892F817090FD80E8C82B1092E90050
:104860008091E80083FD0E94CC22CF70C093E900C4
:10487000CF91089597FB072E16F4009407D077FD8B
:1048800009D00E94542407FC05D03EF490958195F0
:104890009F4F0895709561957F4F0895EE0FFF1F0C
:1048A0000590F491E02D0994AA1BBB1B51E107C0B0
:1048B000AA1FBB1FA617B70710F0A61BB70B881FB0
:1048C000991F5A95A9F780959095BC01CD0108953F
:1048D000FB01DC0104C08D910190801921F441504D
:1048E0005040C8F7881B990B0895F999FECF92BDE7
:1048F00081BDF89A992780B50895A8E1B0E042E01B
:1049000050E00C94A924262FF999FECF92BD81BDC9
:10491000F89A019700B4021639F01FBA20BD0FB6FD
:10492000F894FA9AF99A0FBE08950396272F0E94D9
:1049300084240E948324252F0E948424242F0C94F5
:1049400084240196272F0E9484240C948324DC0164
:10495000CB01FC01F999FECF06C0F2BDE1BDF89A8A
:10496000319600B40D9241505040B8F70895F89434
:10497000FFCFDD02F602F802FA02FC02FE0210038B
:104980001203140316031803E002E002E002E0023F
:10499000E002E002E002E002E002E002E002E00207
:1049A000E002E002E002E002E002E002E002E002F7
:1049B000000302030403060308030A030C030E03A7
:1049C0001A031C031E03200322032403E002E00257
:1049D000260328032A033D043F04410443044504FD
:1049E0004704570459045B045D045F046D046F04BD
:1049F000710473047504C503DC03DF03E203E503FC
:104A00000104040407040A040D041F0422042504FD
:104A100028042B0449044B044D044F04510453044F
:104A20005504FD03610463046504670469046B04B1
:104A3000770479047B047D047F04E803EB03EE0331
:104A4000F103F403F703FA03FD031004130416043F
:104A500019041C04FD032E043104340437043A0401
:104A6000A704A904AB04AD04AF04B104C104C3049A
:104A7000C504C704C904D704D904DB04DD04DF047A
:104A8000A004A004A004A004A004A004A004A00406
:104A9000A004A004A004A004A004A004A004B304E3
:104AA000B504B704B904BB04BD04BF049D04CB0422
:104AB000CD04CF04D104D304D504E104E304E50418
:104AC000E704E904A004A004A004A004A004A00436
:104AD000A0049D04A004A004A004A004A0049D04BC
:104AE0008605A005A205A405A605A805BA05BC056E
:104AF000BE05C005C20589058905890589058905A1
:104B00008905890589058905890589058905890535
:104B10008905890589058905890589058905AA0504
:104B2000AC05AE05B005B205B405B605B805C405BB
:104B3000C605C805CA05CC05CE0589058905D00579
:104B4000D205D405D605DB05DE05E105E4051E0624
:104B50002106240627062A063B063E064106440691
:104B60004706FF05FF05FF05FF05FF05FF05FF05DC
:104B7000FF05FF05FF05FF05FF05FF05FF05FF0515
:104B8000FF05FF05FF05FF05E705EA05ED05F00553
:104B9000F305F605F905FC052D0630063306360645
:104BA000FF0539064A064D065006530656066706A7
:104BB0006A066D067006850688068B068E069106C7
:104BC000FF05A306A606A906AC06FF05FF05FF051F
:104BD000FF05FF05FF05FF05FF05FF05FF05FF05B5
:104BE000FF05FF05FF05FF05FF05FF05FF05FF05A5
:104BF0007306760679067C067F063E068206FC056D
:104C0000940697069A069D06A0063906AF06B206D8
:104C1000B506B806BB06B80BB80BE90BE90B180CC8
:104C2000180C180C180C7C0C080D170D170DD50D51
:104C3000D50DDE0DDE0DE00DDE0DDE0DDE0DD50D2C
:104C4000D50DE50DDE0DDE0DE50DF5221D23062447
:0E4C50001D230624502371230624C823D423D9
:104C5E00C800C002BD1DC21D021EC01D031EC11D07
:104C6E00012E006B61007461006B6F007361007246
:104C7E0061007469006B7500010139010136010193
:104C8E0039002C003B007369007465006B6500737E
:104C9E006500686100746F006B69006E6E00010143
:104CAE0039010137010139006869007375006875B3
:104CBE00006865006D6500736F006E6500686F00BB
:104CCE002F0078610072690078796100726500705A
:104CDE0061006469006775006475007069005F00AB
:104CEE002B00776F006E6100787975006D6F006232
:104CFE006100646F00676900706F007875002D00A9
:104D0E00726F007869007075007A6F0070650062CE
:104D1E006F003F00676100646100676F007A610099
:104D2E006E69007275006D61007865003D007675E4
:104D3E00007A69006465006765007A65006D690038
:104D4E006E6F0078796F00787475006269007A75FD
:104D5E00006275006265006E75006D75007761000A
:104D6E00786F0001018B000101910001018A0001A1
:104D7E00019000679495969734929335366600FFAE
:0E4D8E000100010000FFFF0000010001FF0016
:00000001FF
