:100000000C9498010C94DF010C94DF010C94DF0137
:100010000C94DF010C94DF010C94DF010C94DF01E0
:100020000C94DF010C94DF010C948B220C945F2361
:100030000C94F51D0C94DF010C94DF010C94DF018E
:100040000C94DF010C9455090C94DF010C94DF0132
:100050000C94DF010C944C1E0C94DF010C94DF0116
:100060000C94DF010C94DF010C94DF010C94DF0190
:100070000C94DF010C94DF010C94DF010C94DF0180
:100080000C94DF010C94DF010C94DF010C94DF0170
:100090000C94DF010C94DF010C94DF010C94DF0160
:1000A0000C94DF010C94DF010C94DF01A65DA85DC8
:1000B000AB5DC75DC95DCC5DE000AD5DB05DCF5DA2
:1000C000D15D2800E100AE5DB45DD45D0000ED5D62
:1000D0000251B25DB55DCE5DD65DE500E300EF5D3A
:1000E0000000E6006542EC5DA75DA95DC55DC85DE9
:1000F000CA5D2900AC5DAA5DC65DD05DCB5D0251D5
:10010000B15DAF5DCD5DD55DD25D00000000B35D3A
:10011000D35D0000D75D0000E2000000F05DE70065
:10012000EB5DEE5D0100B75DBA5DDA5DDC5DDF5D64
:100130000100BC5DBF5DE25DE45D01000100BD5DED
:10014000C35DE75D000001000100C15DC45DE15DCC
:10015000E95DE5000100EF5D000001000100010024
:10016000B65DB85DD85DDB5DDD5D0100BB5DB95D91
:10017000D95DE35DDE5D0100C05DBE5DE05DE85D13
:10018000E55D00000000C25DE65D0000EA5D000084
:1001900001000000F05D01000100010029000100E4
:1001A00001004B0046004C0001000100010052001C
:1001B00049000100010001000100010000000100F0
:1001C0000100010001005100010001000100F15D8A
:1001D0000000010001000100010001004A004D0083
:1001E00001000100010001004E004F004800010025
:1001F00001000100500001004C000000000001005F
:10020000010000000100000001000000F25D01009B
:1002100001000100360354005300350032004B004A
:1002200020004E00490043004F004C0041002000D8
:100230004F007900610079007500620069002000BC
:10024000530068006900660074000000160349004E
:100250006B0065006200650053006100640061008E
:100260006F0000000403090409023B00020100A022
:10027000FA09040000010301010009211101000134
:100280002240000705810308000A09040100010358
:10029000000000092111010001223B000705820333
:1002A00020000A1201000200000008EDFE69190199
:1002B000000102000105010906A1018506050719D3
:1002C000E029E71500250195087501810205071948
:1002D0000029EF1500250195F07501810205081927
:1002E000012905950575019102950175039101C0DC
:1002F00005010906A101050719E029E715002501F7
:10030000950875018102950175088101050719009D
:1003100029FF150026FF00950675088100050819BC
:10032000012905950575019102950175039101C09B
:1003300011241FBECFEFDAE0DEBFCDBF04B603FE4F
:1003400027C080916B0290916C02A0916D02B091D8
:100350006E028730904BA740B04BD1F410926B02E5
:1003600010926C0210926D0210926E0214BE84B74D
:10037000877F84BF0FB6F894A8958091600088614C
:1003800080936000109260000FBEE0E0F8E30995F2
:1003900011E0A0E0B1E0E0E7FFE402C005900D92BB
:1003A000AC32B107D9F722E0ACE2B1E001C01D9256
:1003B000AB36B207E1F70E94061A0C948E250C9416
:1003C0000000CF93C0E080913001C81720F0109258
:1003D0003001CF9108958C2F90E0FC01EE0FFF1FAC
:1003E000E80FF91FE45DFD4F808191812281222376
:1003F00021F00E940C0ACF5FE6CF0E94230AFBCFB8
:100400008093440188E497E00E942F0910924101F3
:100410001092400110923F0110923E0108952091E8
:1004200045012223F9F0805E91090897D8F4809164
:100430004301FB019281992361F0811104C08091F5
:1004400044010E94960F809143018F5F8093430186
:100450000895815080934301811104C0809144012B
:100460000C94750F08959C01265A3D452F31310596
:1004700030F481E0603F7D4551F080E008C0855C4C
:100480009D458697D0F781E06F3E7D45B1F781703D
:1004900008959C01265A3D4581E02031310538F010
:1004A0002F51310981E02331310508F080E081705E
:1004B000089580913701811113C08091400190917E
:1004C0004101865A9D458934910550F480913E0141
:1004D00090913F018F5E9D45029710F40E94C905DF
:1004E000E0914001F0914101E65AFD45E934F10502
:1004F00038F4E057FA4D0C94252585E30E94C40B8F
:1005000080913E0190913F018F3E2DE5920709F0C9
:10051000B0C0E0914001F0914101E35BFD45E8335B
:10052000F10508F060C0E752FA4D0C9425258AE3E6
:10053000E5CF8BE3E3CF8CE3E1CF8DE3DFCF8EE339
:10054000DDCF8FE3DBCF80E4D9CF81E4D7CF82E466
:10055000D5CF83E4D3CF84E4D1CF85E4CFCF8CE46F
:10056000CDCF8EE1CBCF8FE1C9CF80E2C7CF81E283
:10057000C5CF82E2C3CF83E2C1CF84E2BFCF85E2A1
:10058000BDCF86E2BBCF87E2B9CF8AE2B7CF8FE299
:10059000B5CF80E3B3CF81E3B1CF8AE4AFCF8EE4B0
:1005A000ADCF8BE4ABCF8DE4A9CF8BE10E94C40B20
:1005B00084E017C085E10E94C40B8CE012C08BE17F
:1005C0000E94C40B8CE1F2CF85E10E94C40B88E04D
:1005D00008C083E1EBCF87E0EECF8AE00E94C40B36
:1005E00088E10E94C40B10923701109241011092D1
:1005F000400110923F0110923E010C94E10187E00E
:10060000EDCF83E1D8CF8DE2ECCF8EE2EACF8CE460
:10061000E8CF8AE10E94C40B82E1E3CF81E1C6CF3B
:100620008BE10E94C40B8CE1D9CF80E1F3CF85E050
:10063000BDCF87E0EFCF8AE0BECF83E1EBCF8AE288
:10064000D0CF8BE1CBCF85E1E5CF8BE1B4CF83E198
:10065000C5CF8DE1DFCF83E1B8CF85E0DBCF88E385
:10066000C0CF80E5BECF81E5BCCF8BE4BACF8DE4AF
:10067000B8CF803F9D4509F0B6CFE0914001F091A1
:100680004101E35BFD45E833F10508F0ACCFEF5ED7
:10069000F94D0C9425258AE089CF87E087CF8AE041
:1006A000B9CF8DE183CF81E186CF85E197CF80E11E
:1006B0007DCF8BE18ACF89E191CF8DE17CCF87E03F
:1006C00084CF8AE082CF8DE180CF80E174CF81E159
:1006D000A1CF8BE10E94C40B8CE19CCF8BE10E94E7
:1006E000C40B87E17BCF85E066CF8DE177CF85E0D6
:1006F00075CF85E06ACF81E171CF80E16FCF8AE16C
:1007000055CF8BE187CF8AE46CCF8EE46ACF82E548
:1007100068CF8FE466CF8091390181110E943E0439
:100720008091380181110E94F90480913201811178
:100730000E942A058091370181110E9459028091FF
:10074000310181110C94830508950E948B03E0917F
:100750004001F0914101E65AFD45E934F10538F4D4
:10076000E75BF94D0C94252587E30E94540B81E04B
:10077000809339010C94E1018EE00E94540B84E0D7
:10078000F4CF87E1FACF8EE00E94540B82E1EDCFE7
:1007900086E1F3CF85E1F1CF87E10E94540B8CE035
:1007A000E4CF8EE00E94540B88E1DFCF87E1FACFDF
:1007B00086E3DBCF83E3D9CF8AE2D7CF86E1EDCFE3
:1007C00087E10E94540B88E0D0CF8EE0FACF86E11B
:1007D000F8CF8BE0D2CF87E1D7CF8EE0DECF81E1BB
:1007E0000E94540B81E1C1CF8BE0D7CF86E1DACFF5
:1007F0008BE0D8CF8BE0E5CF80E1E3CF86E1C4CFBB
:1008000081E1DFCF8BE0C0CF88E3AFCF8BE2ADCF0C
:1008100084E1ABCF8AE1A9CF85E1A7CF87E1A5CF5E
:100820008CE1A3CF83E1A1CF8DE29FCF8EE29DCF5C
:1008300086E19BCF87E099CF89E097CF8AE095CF7B
:100840008BE093CF8DE091CF8EE08FCF8FE08DCF77
:1008500084E38BCF8DE189CF8BE187CF86E085CF95
:1008600089E183CF85E081CF80E17FCF80E57DCFB7
:1008700081E57BCF82E579CF8FE477CF8091390115
:1008800081110BC08091400190914101865A9D4594
:100890008934910510F40E94A503E0914001F09184
:1008A0004101E65AFD45E934F10538F4EE56F94DBB
:1008B0000C94252587E30E94C40B109239011092F5
:1008C0004101109240010C94E1018EE00E94C40BA2
:1008D00084E0F1CF87E1FACF8EE00E94C40B82E181
:1008E000EACF86E1F3CF85E1F1CF87E10E94C40B27
:1008F0008CE0E1CF8EE00E94C40B88E1DCCF87E181
:10090000FACF86E3D8CF83E3D6CF8AE2D4CF86E18D
:10091000EDCF87E10E94C40B88E0CDCF8EE0FACF07
:1009200086E1F8CF8BE0D2CF87E1D7CF8EE0DECF64
:1009300081E10E94C40B81E1BECF8BE0D7CF86E17D
:10094000DACF8BE0D8CF8BE0E5CF80E1E3CF86E153
:10095000C4CF81E1DFCF8BE0C0CF88E3ACCF8BE2A7
:10096000AACF84E1A8CF8AE1A6CF85E1A4CF87E111
:10097000A2CF8CE1A0CF83E19ECF8DE29CCF8EE20F
:100980009ACF86E198CF87E096CF89E094CF8AE02E
:1009900092CF8BE090CF8DE08ECF8EE08CCF8FE02A
:1009A0008ACF84E388CF8DE186CF8BE184CF86E048
:1009B00082CF89E180CF85E07ECF80E17CCF80E56A
:1009C0007ACF81E578CF82E576CF8FE474CF0E942D
:1009D0008B0380913E0190913F018F5E9D45029770
:1009E00018F48CE20E94540B81E0809338010C943F
:1009F000E1018091380181110AC080913E019091FE
:100A00003F018F5E9D45029710F40E94E70480919C
:100A10003E0190913F01892B19F08CE20E94C40B9A
:100A20001092380110923F0110923E010C94E101A6
:100A30000E948B0380913501909136018F5E9D4518
:100A4000029718F48CE20E94540B81E080933201EB
:100A50000C94E1018091320181110AC0809135012D
:100A6000909136018F5E9D45029710F40E94180503
:100A70008091350190913601892B19F08CE20E940A
:100A8000C40B1092320110923601109235010C9471
:100A9000E1010E948B0380913E0190913F01803FD4
:100AA0002DE59207C9F480913501909136018F3E72
:100AB0009D4569F48AE80E94540B80E90E94540B1A
:100AC00081E080934501809144010E94750F81E08F
:100AD000809331010C94E1018F3E9D45C1F78091D7
:100AE000350190913601803F9D4589F78BE80E9442
:100AF000540B81E90E94540B1092450180914401EE
:100B00000E94960FE4CF80913101811112C0809133
:100B10003E0190913F018F5E9D45029750F4809178
:100B20003501909136018F5E9D45029710F40E9429
:100B3000490580913E0190913F01803F2DE592074C
:100B4000C9F480913501909136018F3E9D4531F475
:100B500080E90E94C40B8AE80E94C40B1092310104
:100B600010923F0110923E01109236011092350111
:100B70000C94E1018F3E9D4589F78091350190915C
:100B80003601803F9D4551F781E90E94C40B8BE8F7
:100B9000E3CF1F93CF93DF930E948B03C09140015B
:100BA000D0914101CE010E944902182F882379F08B
:100BB000C33B2DE5D207FCF0C53B8DE5D8072CF0F3
:100BC000CE01835D9D450297B0F410E012C0809184
:100BD0003E0190913F018F3E9D4559F4CD3D8DE5FD
:100BE000D8073CF0CF3D2DE5D20744F1CA3EDD45A4
:100BF00029F1C0E016C060913E0170913F01CE0125
:100C00000E94330290914501192F1827981789F3F4
:100C10000E94CB13C82F827299F08C2F8D7D0E9479
:100C2000DB13E0914001F0914101E65AFD45E934C2
:100C3000F10560F4E552F94D0C94252511E0E8CF5B
:100C40008C2F8260ECCF85E30E94540B80913E0193
:100C500090913F018F3E2DE5920709F0B1C0E091E0
:100C60004001F0914101E35BFD45E833F10508F0F7
:100C700060C0EC5DF84D0C9425258AE3E5CF8BE34D
:100C8000E3CF8CE3E1CF8DE3DFCF8EE3DDCF8FE3E6
:100C9000DBCF80E4D9CF81E4D7CF82E4D5CF83E422
:100CA000D3CF84E4D1CF85E4CFCF8CE4CDCF8EE118
:100CB000CBCF8FE1C9CF80E2C7CF81E2C5CF82E23F
:100CC000C3CF83E2C1CF84E2BFCF85E2BDCF86E24E
:100CD000BBCF87E2B9CF8AE2B7CF8FE2B5CF80E34F
:100CE000B3CF81E3B1CF8AE4AFCF8EE4ADCF8BE455
:100CF000ABCF8DE4A9CF8BE10E94540B84E017C0E9
:100D000085E10E94540B8CE012C08BE10E94540BD1
:100D10008CE1F2CF85E10E94540B88E008C083E1AA
:100D2000EBCF87E0EECF8AE00E94540B88E10E946F
:100D3000540B112319F08C2F0E94DB1381E0809358
:100D40003701DF91CF911F910C94E10187E0ECCF47
:100D500083E1D7CF8DE2EBCF8EE2E9CF8CE4E7CF12
:100D60008AE10E94540B82E1E2CF81E1C5CF8BE1A1
:100D70000E94540B8CE1D8CF80E1F3CF85E0BCCF4B
:100D800087E0EFCF8AE0BDCF83E1EBCF8AE2CFCF20
:100D90008BE1CACF85E1E5CF8BE1B3CF83E1C4CF4F
:100DA0008DE1DFCF83E1B7CF85E0DBCF88E3BFCF35
:100DB00080E5BDCF81E5BBCF8BE4B9CF8DE4B7CF64
:100DC000803F9D4509F0B5CFE0914001F091410190
:100DD000E35BFD45E833F10508F0ABCFE45AF84D8D
:100DE0000C9425258AE088CF87E086CF8AE0B9CFAA
:100DF0008DE182CF81E185CF85E196CF80E17CCF07
:100E00008BE189CF89E190CF8DE17BCF87E083CFE4
:100E10008AE081CF8DE17FCF80E173CF81E1A1CFE7
:100E20008BE10E94540B8CE19CCF8BE10E94540B10
:100E300087E17ACF85E065CF8DE176CF85E074CF0D
:100E400085E069CF81E170CF80E16ECF8AE154CF38
:100E50008BE187CF8AE46BCF8EE469CF82E567CFE1
:100E60008FE465CF80914201853038F4833060F49F
:100E7000813031F0823031F00895853039F00895B5
:100E80000C94A5030C94E7040C94C9050C94490533
:100E900080912E0190912F01892B11F40C9432072F
:100EA000089580914201853048F4833090F4813078
:100EB00051F0823059F01092420108958530D9F7EF
:100EC0000E948305F8CF0E943E04F5CF0E94F904EA
:100ED000F2CF0E945902EFCF81E0809345010E943A
:100EE0005107809144010C94750F109245010E94A6
:100EF0005107809144010C94960FCF92DF92FF929C
:100F00000F931F93CF93DF938C016B0181E090E0EF
:100F100090932F0180932E010E94251EEC01D60193
:100F20001296FC9012979801265A3D4580914201F5
:100F3000FF2009F4DCC02934310508F05FC082309D
:100F400009F44EC0F8F4882309F444C0813061F1FB
:100F50001093410100934001D0933D01C0933C01A7
:100F600080E095E00E944709F12C10922F01109229
:100F70002E018F2DDF91CF911F910F91FF90DF9068
:100F8000CF900895843021F190F0853009F7809159
:100F90003A0190913B019E01281B390B2135310507
:100FA00008F10E94830516C00E943E04D1CF8091B3
:100FB0003A0190913B0120913C0130913D01FC01AF
:100FC000E21BF30BAE01481B590BE417F50730F495
:100FD0000E94590281E080934201BACF0E943E04F0
:100FE00084E0F9CF4091330150913401841B950B7B
:100FF00082179307B0F20E942A05F2CF98012F5E64
:101000003D452230310508F054C08230B9F078F403
:10101000882309F446C0813009F449C010933F0188
:1010200000933E01D0933B01C0933A0199CF8430A5
:1010300029F1A8F1853091F70E942A0580913A01A3
:1010400090913B019E01281B390B2135310598F405
:1010500020913E0130913F012017310761F045E0BA
:10106000409342013093360120933501909334012F
:1010700080933301D3CF0E94F904D0CF80913C01FB
:1010800090913D0120913A0130913B01DC01A21B7E
:10109000B30BFE01E81BF90BAE17BF0730F40E943B
:1010A000590282E080934201B9CF0E94F90483E0A3
:1010B000F9CF882309F459CF80913001883090F41A
:1010C000282F30E0F901EE0FFF1FE20FF31FE45D60
:1010D000FD4F1183008312969C9192838F5F8093C2
:1010E000300142CF0E943207FF24F3943ECF2B34CD
:1010F000310508F09AC0833009F442C080F4813091
:1011000091F1823009F031CF80913E0190913F0101
:101110008017910709F029CF0E94F9042EC084306E
:1011200009F455C0853009F020CF809135019091A8
:1011300036018017910709F06DC080913A019091B6
:101140003B01C81BD90B2091330130913401821B24
:10115000930B8C179D0708F465C0649708F062C074
:101160000E942A0527C0809140019091410180177B
:10117000910709F0FACE0E943E0410924201F5CE8A
:10118000809140019091410180179107A9F48091CD
:101190003A0190913B01C81BD90B20913C01309141
:1011A0003D01821B930B8C179D0770F0649760F4D0
:1011B0000E943E0482E026C080913E0190913F0152
:1011C0008017910709F0D1CE0E945902D6CF8091A5
:1011D0003E0190913F0180179107B9F480913C0145
:1011E00090913D01C81BD90B20913A0130913B01F0
:1011F000821B930B8C179D0738F3649728F70E9486
:10120000F90481E080934201B0CE80914001909139
:101210004101D6CF80913E0190913F018017910707
:1012200009F0A3CE0E948305A8CF882309F45CCFE0
:1012300080913001883008F055CF282F30E0F90137
:10124000EE0FFF1FE20FF31FE45DFD4F11830083DC
:1012500012969C9192838F5F8093300186CEF89492
:1012600090934701809346011092800085E080931F
:1012700081001092820010928500109284008FEFFE
:101280009FEF909389008093880078940895F89454
:1012900010928500109284009093890080938800BA
:1012A00082E080936F00789408951F920F920FB69A
:1012B0000F9211242F933F934F935F936F937F93DC
:1012C0008F939F93AF93BF93EF93FF93E09146016A
:1012D000F09147010995FF91EF91BF91AF919F91D7
:1012E0008F917F916F915F914F913F912F910F90CF
:1012F0000FBE0F901F90189581E00C9400020F9381
:101300001F93CF93DF93EC018B01C13F8DE5D8078D
:1013100079F0C23FEDE5DE0721F1CE010E940F0218
:10132000B801CE01DF91CF911F910F910C947D07F1
:10133000FB018281882371F08BE80E94540B81E9C4
:101340000E94540B0E94750780E0DF91CF911F919E
:101350000F91089581E90E94C40B8BE80E94C40B91
:10136000F3CFFB018281882349F08AE80E94540B65
:1013700080E90E94540B0E946C07E6CF80E90E942E
:10138000C40B8AE8EBCF81110AC082E0662359F0D2
:101390000E94550F882329F08EE40E942A0C81E0D8
:1013A000089581E5FACF0E94550F882311F08BE450
:1013B000F4CF82E5F2CF9C013A9521153F4150F5DB
:1013C000FC01EE27F170BC0166277270AC01442766
:1013D00054709C012227387094FF0EC080E1EF2BDF
:1013E00009F480E0672B09F08062452B09F08064E6
:1013F000232B89F08068089581E0EF2B09F480E0C9
:10140000672B09F08260452B09F08460232B19F0CB
:101410008860089580E00895CF93DF93EC010E94E7
:10142000DB099E01205E31092830310510F020973C
:1014300039F40E94320C8C2FDF91CF910C94540B15
:101440000E94820EF8CFCF93DF93EC010E94C40B71
:10145000CE010E94DB099E01205E31092830310552
:1014600010F0CD2B21F4DF91CF910C94390CDF914A
:10147000CF910C94890E81E008950C947F09089512
:101480000C943F0A1F93CF93DF9300D000D00F92AC
:10149000CDB7DEB749835A836B8330914801898188
:1014A0009A8131111DC06623B9F02223A9F00E9450
:1014B0006810182F682F89819A810E941110698104
:1014C0007A81812F0F900F900F900F900F90DF91E6
:1014D000CF911F910C9416170E943F10182FEFCF39
:1014E0000E94681069817A81EDCFFC01262F40812E
:1014F00051816281738184810C94420A81E0089554
:10150000CF93DF93EC0160E00E94750ABE01DF918A
:10151000CF910C94400A0E9422180E94080B0C9450
:1015200046180C94491880E00C94090B089508950E
:101530000E949A0E0E94970A2FEF84E39CE02150AC
:1015400080409040E1F700C000000C94701E0F93A3
:101550001F93CF93DF938C0161E00E94750AEC0129
:10156000B8010E943D0A8823A9F1B801CE010E946A
:101570002B1C882379F1B801CE010E94131A88230D
:1015800049F1B801CE010E94951B882319F1F80199
:101590008281882361F0CB35FDE5DF0721F170F40E
:1015A000C115ECE5DE07A1F0CF3DDC45C9F0C8016F
:1015B000DF91CF911F910F910C943B0ACC358DE5B3
:1015C000D807A1F0CD35DD4591F70E949314EFCFF8
:1015D0000E94980A80E0DF91CF911F910F910895AA
:1015E0000E944D15F7CF0E949C14E1CF0E949F14DA
:1015F000DECF0C94960A0E94871C0E94090B0C9463
:10160000F90A08950C94010B81E008950C94040BE1
:101610000895CF93C82F0E94020B8C2FCF910C946A
:10162000060BCF93DF93CDB7DEB72B970FB6F894A9
:10163000DEBF0FBECDBF4F83588769877A878B8700
:1016400061110E94EE131E821D8285E0FE01379615
:10165000DE01119601900D928A95E1F78C819D81B2
:10166000892B89F449815A816B817C818D819E818E
:101670000E940C132B960FB6F894DEBF0FBECDBFA1
:10168000DF91CF91089589819A8189238F3F51F30A
:10169000CE0101960E947E0A8111E4CFEBCFFC01BE
:1016A000808191810C94AA10CF93C82F882309F4CC
:1016B00069C08238C1F40E94871C81FD63C089E340
:1016C0000E94A6130E9411142FEF81EE94E0215086
:1016D00080409040E1F700C0000089E30E94AD1314
:1016E000CF910C9411148338A1F40E94871C80FDC3
:1016F00049C083E50E94A6130E9411142FEF81EECA
:1017000094E0215080409040E1F700C0000083E564
:10171000E5CF8438A1F40E94871C82FD33C087E4A2
:101720000E94A6130E9411142FEF81EE94E0215025
:1017300080409040E1F700C0000087E4CFCF8CEFFD
:101740008C0F813A90F46C2F8091020190910301EB
:101750000E94ED1C882329F08C2F0E94AD130E945B
:1017600011148C2F0E94A613BBCF80E28C0F8830FF
:1017700048F4C77081E001C0880FCA95EAF70E945B
:10178000CE13AECFCF910895882309F44BC0823891
:1017900071F40E94871C81FF45C089E30E94A61353
:1017A0000E94111489E30E94AD130C941114833824
:1017B00059F40E94871C80FF35C083E50E94A61360
:1017C0000E94111483E5EFCF843859F40E94871CDE
:1017D00082FF28C087E40E94A6130E94111487E4A8
:1017E000E2CF9CEF980F913AF0F290E2980F983088
:1017F00050F4877091E001C0990F8A95EAF7892F1C
:101800000E94D413D2CF9BE5980F933020F490E040
:1018100080E00C94AD1C885A873120F490E080E081
:101820000C94C31C08951F93CF93DF93182FEB01E3
:101830000E94540B209731F4812FDF91CF911F919B
:101840000C94C40B8FE99FE00197F1F700C00000F2
:101850002197F0CF70E060E0893311F460E570E02B
:101860000C94130C882321F00E94CE130C941114B5
:101870000895882321F00E94D4130C941114089524
:10188000BF92CF92DF92EF92FF920F931F93CF936D
:10189000DF936C01D62FC72FFC011281F580F294E3
:1018A0009FE0F9220E94C413E82E8823B9F0E12EAC
:1018B0001123A1F08C2F807F803421F080E28D0FE6
:1018C0008830D0F08091450282FD16C082E00E94EF
:1018D00062140E94C41391E0E82EE926BC2EB29453
:1018E0008FE0B822FBE0FB1508F468C0EB2DF0E0B8
:1018F000EC56F84D0C942525E12CF0CF0C2F0F70F1
:10190000C07F11F00295007F112399F0002359F058
:1019100080E28D0F883010F0D11107C0802F0E9417
:10192000CE130E9411148D2F41C0802F0E94E1130D
:10193000F8CF8D2F0E94C40B002309F43FC080E232
:101940008D0F883010F0D11104C0802F0E94D41365
:1019500003C0802F0E94E7130E9411142FC00C2F88
:101960000F70C07FC03211F00295007FDD2381F03F
:10197000D13009F469C0112309F473C0FF2009F4C0
:1019800069C0F601858180FFCECF8F70858362C0EC
:101990008091450282FF38C0112359F0002329F0BD
:1019A000802F0E94CE130E94111480E00E94540BDD
:1019B00005C080E00E94C40B0111C7CFEB2DE85099
:1019C000FF0B349720F40E94871C0E94090BEE2025
:1019D00009F44BC10E94C01380FD47C1F601128279
:1019E0000E94BA130E94750FC6010E94560E0E94F3
:1019F000BA13DF91CF911F910F91FF90EF90DF907D
:101A0000CF90BF900C94960F112389F0F11006C06F
:101A10000E94F413802B0E94320CD0CF21E0F212EE
:101A2000F7CF0E94F413802B0E94FA13C7CFF11056
:101A300006C00E940714802F0E94390CBFCF31E0EE
:101A4000F31609F4BBCFF5CF112331F085E08F15E4
:101A500008F4B4CF802FDFCF94E09F1508F4AECF09
:101A6000EACFFF2041F3D93349F4FFEF27EE33E00B
:101A7000F15020403040E1F700C000008D2F0E945F
:101A8000C40B9CCF8C2F837009F041C0111196CFED
:101A90004D2F429546954770440F440F0D2F0F7000
:101AA00010E030E020E0042E04C0000F111F221FC0
:101AB000331F0A94D2F760E070E0CB01D4FF0FC06F
:101AC0006FE070E080E090E004C0660F771F881F31
:101AD000991F4A95D2F76095709580959095C69517
:101AE000C695C370602B712B822B932BC23049F0AB
:101AF00058F4C13019F00E94070F60CF0E94F50E14
:101B00005DCF0E94190F5ACF0E94F30E57CF8695D2
:101B1000112311F08C2F8170882309F44FCF4D2FA2
:101B2000429546954770440F440F0D2F0F7010E0FB
:101B300030E020E0042E04C0000F111F221F331FCD
:101B40000A94D2F760E070E0CB01D4FF0FC06FE0E1
:101B500070E080E090E004C0660F771F881F991F37
:101B60004A95D2F76095709580959095C695C695E3
:101B7000C370602B712B822B932BC23049F058F429
:101B8000C13019F00E94EC0F19CF0E94DA0F16CF66
:101B90000E94FE0F13CF0E942F0F10CFCF70112382
:101BA00029F08C2F0E94750F8D2F35CF8D2F0E941D
:101BB000390C8C2F0E94960F01CFD23F51F160F467
:101BC000D03FB9F0D13F81F0112309F449C0F110A1
:101BD000AACE8C2F8F7121C0D33F11F1D43FA1F732
:101BE0008091450282FF26C08C2F8F71112311F343
:101BF00014C0112349F084E08F1508F4DFCE8C2F38
:101C00008F710E94B90FDACE95E09F1508F4D6CEF9
:101C1000F6CF8C2F8F711111CDCF0E94750FCECEC4
:101C2000112329F08C2F8F710E94600FC7CE0E9464
:101C30003B0FC4CE112349F0CF718C2F0E94750F3A
:101C400063E08C2F0E944714B9CE81E00E94621499
:101C5000E1E0EF1508F0B2CE82E00E946214AECE51
:101C6000F11001CF8C2F8F71A5CFDF91CF911F91F4
:101C70000F91FF90EF90DF90CF90BF9008950F935A
:101C80001F93CF93DF93EC01688179818A810E9451
:101C9000B4108C010E9410100E94F20EB801CE0107
:101CA000DF91CF911F910F910C94400CCF93DF9354
:101CB000EC018B819C81892B29F088819981892372
:101CC0008F3F59F4DF91CF910895CE010E943F0ECE
:101CD000CE01DF91CF910C94800ACE010E94A70A19
:101CE0008111F3CF0E94C413882361F38A81882372
:101CF00049F38091450282FDE5CF82E0DF91CF91EB
:101D00000C946214882321F00E94E1130C941114A6
:101D10000895882321F00E94E7130C94111408956C
:101D20000E94EE130E94F1130C9411140E94B4133C
:101D30000C94900E0E94DE130C94960EE92FE295FF
:101D4000EF70E250EE3070F4F0E0E056F84D0C9495
:101D50002525803F19F020F4883E20F481E0089585
:101D6000843FE1F380E00895883EC0F3813FD1F7DE
:101D7000F5CF93FB882780F90895FC01808191813C
:101D80000E94AA100C949E0ECF93DF9300D000D037
:101D90000F92CDB7DEB70F900F900F900F900F906E
:101DA000DF91CF910895CF93DF9300D000D000D082
:101DB000CDB7DEB726960FB6F894DEBF0FBECDBF07
:101DC000DF91CF91089508950C94E30E0E94E40EE4
:101DD00060937501709376018093770190937801F9
:101DE0000C94900E08950C94E60E0F931F9300919F
:101DF0007501109176012091770130917801602B67
:101E0000712B822B932B1F910F910C94E60E0F9345
:101E10001F93009175011091760120917701309107
:101E2000780160237123822393231F910F910C94D7
:101E3000E60E0F931F93009175011091760120918A
:101E400077013091780160277127822793271F91AE
:101E50000F910C94E60E0C94E30E0C942B0F0E9441
:101E60002D0F6093710170937201809373019093B1
:101E700074010C94900E60E070E0CB010C942F0F75
:101E8000611571058105910529F481E0442361F014
:101E900080E00895DC01CB0104C0B695A795979525
:101EA00087954A95D2F781700895482F6091710106
:101EB0007091720180917301909174010C94400FA4
:101EC0000F931F9341E050E060E070E08A019B01B6
:101ED00004C0000F111F221F331F8A95D2F7C901BA
:101EE000B8011F910F910C942F0F0F931F9341E096
:101EF00050E060E070E004C0440F551F661F771F7C
:101F00008A95D2F78091710190917201A09173012D
:101F1000B09174018A019B01082B192B2A2B3B2BB2
:101F2000C901B8011F910F910C942F0F0F931F93AC
:101F300041E050E060E070E004C0440F551F661FB0
:101F4000771F8A95D2F7CB01BA016095709580957D
:101F5000909500917101109172012091730130915F
:101F6000740160237123822393231F910F910C949A
:101F70002F0F0F931F9341E050E060E070E004C02A
:101F8000440F551F661F771F8A95D2F78091710104
:101F900090917201A0917301B09174018A019B012B
:101FA000082719272A273B27C901B8011F910F913C
:101FB0000C942F0F0F931F930091710110917201D8
:101FC0002091730130917401602B712B822B932B24
:101FD0001F910F910C942F0F0F931F93009171017C
:101FE000109172012091730130917401602371236B
:101FF000822393231F910F910C942F0F0F931F9304
:10200000009171011091720120917301309174015E
:1020100060277127822793271F910F910C942F0F10
:102020000895E92FEE0FE90FEE0F8E0F982F97709E
:1020300041E001C0440F9A95EAF78695869586950A
:1020400095E0899FF0011124E75BFE4F30E020E02E
:1020500070E05191DF011197CB01022E02C09695DD
:1020600087950A94E2F781708195852784238527D7
:102070008C932F5F3F4F2530310559F70895E92F95
:10208000EE0FE90FEE0F8E0F982F977086958695BD
:10209000869525E0829FF0011124E75BFE4F50E01A
:1020A00040E080E0219130E0092E02C0369527956E
:1020B0000A94E2F721703327042E01C0220F0A94FC
:1020C000EAF7822B4F5F5F4F4530510559F708956E
:1020D000BF92CF92DF92EF92FF920F931F93CF9315
:1020E000DF938C01C0907101D0907201E090730178
:1020F000F09074018091750190917601A091770123
:10210000B0917801C82AD92AEA2AFB2ACFE1D0E087
:10211000BC2ED701C6010C2E04C0B695A795979585
:1021200087950A94D2F780FD0EC0219788F7B12CCD
:102130008B2DDF91CF911F910F91FF90EF90DF904A
:10214000CF90BF900895B8018C2F0E942A17019755
:1021500061F3EECFCF93DF93EC010E946810BE01D4
:10216000DF91CF910C942A171F93CF93DF93EB014C
:1021700090914801992331F0CB01DF91CF911F91CC
:102180000C94AA10882379F0CB010E946810182FB4
:10219000682FCE010E941110BE01812FDF91CF91D7
:1021A0001F910C942A17CB010E943F10182FF4CFD7
:1021B0001F93CF93DF93C091790116E080917A014C
:1021C0008C1304C0DF91CF911F910895D0E01C9F24
:1021D000F0011D9FF00D1124E558FE4F4081518103
:1021E00062817381848195810E94D30E2196C7708C
:1021F000E5CF4091AB015091AC016091AD01709180
:10220000AE018091AF019091B0010C94D30EFF927A
:102210000F931F93CF93DF938091B001807FD1F410
:102220008091AD018823B1F08091790110917A01FC
:102230006091AB017091AC01A091AE01B091AF0182
:10224000062F0723C0910001D091010196E0F92EDD
:10225000181306C0DF91CF911F910F91FF90089541
:1022600090E0109711F00F3F19F401968770F0CFAE
:10227000F89E9001F99E300D1124F901E558FE4FAA
:1022800041814713F2CF40814613EFCF4281411184
:10229000ECCF438154814A1B5B0B4C175D0728F739
:1022A0008091B0018F7080618093B001F901E05896
:1022B000FE4F80818F70806180838BEA91E00E9465
:1022C000560EDF91CF911F910F91FF900C94D81073
:1022D000AF92BF92CF92DF92EF92FF920F931F9334
:1022E000CF93DF93CDB7DEB761970FB6F894DEBF1B
:1022F0000FBECDBF8C0185E0F801DE011D96019077
:102300000D928A95E1F7F801E2808BEAC82E81E010
:10231000D82E6091AE017091AF016115710509F47D
:102320005FC19091AB012091AC01892F82238F3F37
:1023300009F456C140815181A380B480F090AD0171
:10234000F501E61BF70BBF01E0910001F0910101DF
:10235000FF2009F4F6C08091B001382F307F6E174E
:102360007F0708F0AFC0311179C0FE2C251323C0C0
:10237000941321C0E1101FC08F7080618093B00161
:102380000E94F910C6010E94560E8091B001F8011A
:1023900085838F2D61960FB6F894DEBF0FBECDBF3B
:1023A000DF91CF911F910F91FF90EF90DF90CF9031
:1023B000BF90AF900895AB2829F0842F85238F3FDD
:1023C00009F027C180E0F82FF170DF2E80FF3CC0BC
:1023D0008091790120917A0136E0821315C04D87F2
:1023E0005E878D859E850E94AA10292F22952F70C9
:1023F0002230F0F0243018F59F70F1F0F80195814B
:10240000907FD1F4D12C1EC090E0389FF001399F0D
:10241000F00D1124E558FE4F6181651306C06081FF
:10242000641303C062816E110FC001968770D5CF0F
:102430009F7011F0882331F3805E883018F3C80153
:102440000E94560EFD2CA5CFEE2009F4A2CF80915C
:10245000B00181608093B001F12C9BCF251306C0A1
:10246000941304C0F801EE2009F487C0C8010E944B
:10247000BD0E882319F1EE2009F18091B001803260
:1024800070F02091AB013091AC0138872F83198611
:10249000BB86AA868C87CE0107960E94560E86E0E0
:1024A000F801ABEAB1E001900D928A95E1F70E9444
:1024B00007110E94F910FF24F3946BCFC8010E940A
:1024C000560EF9CF311113C07A2DB98AA88A6E2D14
:1024D00089890E94C40E8BEA91E00E94560E86E024
:1024E000F60111928A95E9F70E94F910B5CF2513EC
:1024F0000FC094130DC0E1100BC0F8018583C80113
:102500000E94560E86E0F60111928A95E9F741CFB6
:10251000C8010E94BD0E882389F2EE2079F28091D5
:10252000B001803208F4BBCF2091AB013091AC01F7
:102530003A8329831B82BD82AC828E83CE010196B1
:10254000ACCF6E177F0708F03EC0FE2CEE2009F4DA
:10255000B5CF25132AC0941328C08091B00180FD07
:102560001BC0982F907FC1F0F8018583903F31F018
:10257000982F907F905F8F70892B8583C8010E9470
:10258000560E86E0F801ABEAB1E001900D928A9513
:10259000E1F70E94F910FDCE86E0F801ABEAB1E068
:1025A00001900D928A95E1F7F4CEC8010E94BD0E0C
:1025B000811175CF8091B00181608093B001C80115
:1025C0000E94560EE6CE7A2DB98AA88A6E2D898988
:1025D0000E94C40E86E0F60111928A95E9F7D9CFE0
:1025E000EE2009F46BCFC8010E94BD0EF82E88239F
:1025F00009F464CF86E0F801ABEAB1E001900D92F6
:102600008A95E1F78BEA91E00E944F0B0E94071137
:10261000C0CF81E08E25D7CE1F93CF93DF93CDB768
:10262000DEB72C970FB6F894DEBF0FBECDBF4F8339
:10263000588769877A878B879C87CE0107960E9487
:102640006811882369F08A859B85892B39F04F8131
:102650005885842F85238F3F09F071C016E05FC035
:1026600086E0FE013796DE01119601900D928A9563
:10267000E1F78A859B85892B89F38F81988589234A
:102680008F3F61F320917A0130E0C9010196877094
:102690009927409179014817190671F40E949A0E02
:1026A00010927A011092790186E0EBEAF1E0DF0105
:1026B0001D928A95E9F7D2CF96E0929FD001939F21
:1026C000B00D1124A558BE4FFE01319601900D9218
:1026D0009A95E1F780937A010E94D810BFCF819F2D
:1026E000C001112485589E4F0E9468118823E9F08B
:1026F000E09179011E9FF0011124E558FE4F4081C1
:10270000518162817381848195810E94D30E809171
:10271000790190E0019687709927809379018091E3
:10272000790190917A018913DACF2C960FB6F8943B
:10273000DEBF0FBECDBFDF91CF911F910895698598
:102740007A858B859C850E94D30E88CF682F8091D7
:102750000201909103010C946D1D682F809102017C
:10276000909103010C94781D8091020190910301D6
:102770000C94831D8091B10185958595859508956B
:102780008091B101877008959091B101977081E0B7
:1027900009F480E008958091D50108959091D501C4
:1027A000892B8093D501089580959091D501982328
:1027B0009093D50108958093D50108951092D50185
:1027C00008959091D401892B8093D4010895809528
:1027D0009091D40198239093D40108951092D4013C
:1027E00008951092D30108958091B201089508953B
:1027F0000C94F7139091450292FD08C09091B2019C
:10280000981721F08093B2010C94F81308958091E9
:10281000B201882329F01092B20180E00C94F813E1
:102820000895E0910201F09103018091D501808328
:10283000E0910201F091030180819091D401892BF4
:102840008083E0910201F091030180819091D30196
:10285000892B80839091B201992381F0E09102014C
:10286000F09103018081892B8083809102019091F6
:1028700003010E94D91C81110E940714809102015A
:10288000909103010C94931C08950C94441490911E
:10289000450292FD10C098E0899F90011124622B9F
:1028A0006093B1010E94750F8091B1018595859566
:1028B00085950C9445140C94750F1092B10180E02D
:1028C0000C9445149091B101809589238093B101B6
:1028D000282F277091F4282F082E000C330B921705
:1028E000130659F09091450292FD07C08595859594
:1028F00085950E94960F0C945D1408959091450261
:1029000092FB222720F9281769F080FB92F9909317
:10291000450280914402909145020E94C91482E0D0
:102920000C94621408958091450282FB882780F9F7
:1029300091E089270C947E1481E00C947E1480E051
:102940000C947E146FEF7FEF90E080E00C9478257C
:1029500090E080E00E94542521E0893E9E4F09F0DE
:1029600020E0822F089582E090E00C944C2583E0D3
:1029700090E00C944C25CF9384E090E00E944C258D
:10298000C82F82E290E00E944C25982F8C2FCF9187
:102990000895CF93C92F682F84E090E00E945A25B4
:1029A0006C2F82E290E0CF910C945A25AB01BC01D0
:1029B0008FE090E00C946C25AB01BC0183E190E0CA
:1029C0000C946C2560E070E0CB010C94DC1460E0AA
:1029D00070E0CB010E94D6140C94E21469EE7EEFF5
:1029E00090E080E00E94782560E082E090E00E9424
:1029F0005A2560E083E090E00E945A25109275010C
:102A000010927601109277011092780160E084E0D4
:102A100090E00E945A2560E082E290E00E945A25F0
:102A200060E085E090E00E945A2560E086E090E05A
:102A30000E945A256FEF87E090E00E945A2540E0FF
:102A400050E0BA0188E090E00E946C2560E08DE0E3
:102A500090E00E945A2540E050E0BA0188E190E001
:102A60000E946C2560E087E190E00E945A2540E0DA
:102A700050E0BA018CE190E00E946C2570E060E0CB
:102A800080E290E00E94782540E050E0BA0188E1C1
:102A900090E00E946C250C94E7140C94EE14682FBF
:102AA0008EE090E00C945A250E94311E6093E9015B
:102AB0007093EA018093EB019093EC016093E50140
:102AC0007093E6018093E7019093E80108950E94D6
:102AD000311E6093E9017093EA018093EB019093BA
:102AE000EC016093E1017093E2018093E301909324
:102AF000E401089585B7806885BF85B7806885BF84
:102B00000895089508950C94811508950C948515E1
:102B10000E947A1588E098E10E947D1C0E9482152F
:102B20000C94831581E008950C94921508950895EE
:102B30000E9496150C9497150E941C1E0E94531912
:102B40000E943F1B0C948615AF92BF92CF92DF92EA
:102B5000EF92FF920F931F93CF93DF93CDB7DEB722
:102B60002A970FB6F894DEBF0FBECDBF0E9468193A
:102B700081110E94541587EDA82E81E0B82E10E037
:102B800000E0C02E802F0E944B18E82EF501F19036
:102B90005F01F81609F451C08091ED0181FD0E949A
:102BA00051188F2D8E25D12CFF24F394982F9F211F
:102BB00009F43EC00E949415882399F0DE82CF82EA
:102BC000EF2081E009F480E088870E94251E816063
:102BD000782F9A8789874E815F8168858A850E94D0
:102BE000110BF801E952FE4F8081F826F0820E9415
:102BF0004E1B81110E9467150E94871C9091D6017F
:102C0000891791F10E94871C8093D6012A960FB6EE
:102C1000F894DEBF0FBECDBFDF91CF911F910F9112
:102C2000FF90EF90DF90CF90BF90AF900C94090B86
:102C3000D394FF0CF6E0DF12B9CF0F5F1F4F0A30BD
:102C4000110509F09ECF8FEF89838A831B820E9432
:102C5000251E8160782F9D838C8349815A816B81E9
:102C60008D810E94110BC3CF2A960FB6F894DEBF58
:102C70000FBECDBFDF91CF911F910F91FF90EF90CD
:102C8000DF90CF90BF90AF900895CF93DF930E94D5
:102C90002E17EC01811523E5920790F5811532E599
:102CA000930708F096C081159042C8F4C11581E0E1
:102CB000D80788F4C53AD10548F4C430D10558F492
:102CC000C130D10541F0D0E0C0E005C0CE01805E4A
:102CD00091090897C0F7CE01DF91CF910895C115F2
:102CE00091E5D90708F070C0C11520E5D20708F0BA
:102CF0004EC0C11530E4D30730F3DF70D06AEBCF9C
:102D0000811546E59407F0F4C11585E5D80708F06C
:102D100075C0C11594E5D90708F06BC0CE0183706A
:102D2000992721E030E002C0220F331F8A95E2F795
:102D3000C695C69590E2C99FE0011124C22BD32B02
:102D4000DA68C9CF81152AE5920778F4811539E54B
:102D5000930708F05EC0811548E5940708F4B3CFE7
:102D6000D82FCC27C06FD06AB6CF9056811590422D
:102D700008F0A9CF8D2F8F710E94C51790E0982F72
:102D8000882788279F719C012C2BE90140C0CE0128
:102D9000E4E096958795EA95E1F783702C2F2695C8
:102DA0002695237040E2249F90011124382B8C2F0C
:102DB0008370C1E0D0E002C0CC0FDD1F8A95E2F73E
:102DC000C22BD32BDC6887CFDC2FCC27C16FD06A16
:102DD00082CF8370992721E030E002C0220F331F99
:102DE0008A95E2F7C695C69580E2C89FE001112456
:102DF000E7CFDC2FCC27C46FD06A6DCF8C2F0E9419
:102E0000C517C82FD0E0DC2FCC27CC27DF71D062CC
:102E100062CF8F700E94C51734E0D695C7953A955A
:102E2000E1F7CF709C2FEC01D06955CF972F70E060
:102E300026E0929F600D711D1124FB019CE3899F88
:102E4000E00DF11D1124EE0FFF1FE455FF4F85919A
:102E5000949108950E9416170C9445168238910596
:102E6000B1F1B0F48133910509F475C048F48932A9
:102E7000910509F469C08A32910509F473C0089577
:102E80008533910509F459C08933910501F10895FD
:102E9000833E9105A9F138F4803E9105F9F0823E18
:102EA000910549F10895863E9105A9F1873E910566
:102EB000C9F1843E910519F52091450221FF1FC0FB
:102EC0008091440284FD14C087EE90E00895209123
:102ED00044022370A1F080EE90E008952091440216
:102EE00020FD47C03091450230FF09C024FF44C097
:102EF00090E080E004C02091440222FDF7CF0895C5
:102F00002091440222FD3BC03091450230FDE3CFC9
:102F100024FFF5CFEDCF2091440223FFF0CF24FD15
:102F2000E7CFD2CF2091440223FD2CC0309145023F
:102F300031FFEECF84EE90E008952091440225FF0A
:102F4000DECF89E290E008952091440225FFD7CF9B
:102F500085E390E008952091440226FFD0CF8AE2D5
:102F600090E008952091440226FFC9CF81E390E0CC
:102F7000089589E390E0089583EE90E0089582EE4D
:102F800090E0089586EE90E008959091440292FFBB
:102F900006C0282F28712830F9F4877F846093FFBA
:102FA00006C0282F28712831F1F4877E8461209192
:102FB000450220FF06C0382F38713830D9F4877F9A
:102FC000816021FF06C0282F28712831D1F4877E27
:102FD000816194FD877E0895282F24712430F9F6AD
:102FE0008B7F8860DCCF282F2471243101F78B7E02
:102FF0008861DDCF382F3171313019F78E7F8860CD
:10300000E0CF282F2171213121F78E7E8861E1CF19
:1030100080E008950C94A2140E9468198FE39CE943
:103020000197F1F700C000000E94681980E00E943B
:103030004B1880FF04C00E940A180C94701E08955B
:103040000C940C180E94A814811102C00E944D1506
:103050000E94B3148093ED010E94BB14909345022B
:10306000809344020E9420180E94B714682F70E0D9
:1030700090E080E00E94F30E609171017091720106
:1030800080917301909174010C942D0F0C947C0924
:1030900008950C944818E82FF0E0E05BFD4F808124
:1030A0000895089580EA8A95F1F7089500C008957B
:1030B0000C945218F894E82FE295EF70F0E031A1EB
:1030C000282F2F7081E090E001C0880F2A95EAF741
:1030D000982F9095932391A392A1892B82A3789402
:1030E0000895F894E82FE295EF70F0E031A1282FD1
:1030F0002F7081E090E001C0880F2A95EAF7382B05
:1031000031A392A18095892382A378940895DF92B8
:10311000EF92FF920F931F93CF93DF93EC01D62E84
:10312000062F10E0F801E95EFE4FE0808FEFE81611
:1031300081F18E2D0E9471180E945618E1E1F1E094
:1031400047E151E081E0F12C91919F3F79F0A92F67
:10315000A295AF70B0E090962C9130E09F7002C0C5
:10316000359527959A95E2F7982F20FD90E0F92A5A
:10317000880F4E175F0741F78E2D0E945A1861E0A5
:10318000F11001C060E08D2D0E945818C00FD11FB2
:10319000F882DF91CF911F910F91FF90EF90DF9018
:1031A0000895CF92DF92EF92FF920F931F93CF93E8
:1031B000DF93E82E092F162FF42EC62FD0E0CF5E16
:1031C000DE4F88818F3F09F445C00E9471180E942C
:1031D000561887E1C82E81E0D82EEE2DF02FAF01D2
:1031E0004B5F5F4F00E0EF2CE094D6019D916D01A5
:1031F00081919F01215031099F3F41F1692F6295D3
:103200006F7070E0DB0190966C9170E09F7002C06F
:10321000759567959A95E2F760FD18C08F29D901D9
:103220008C9301E0E417F50701F788818F3F11F0D7
:103230000E945A18602F812FDF91CF911F910F911B
:10324000FF90EF90DF90CF900C9458188E21D90109
:103250008C93E8CFDF91CF911F910F91FF90EF906A
:10326000DF90CF9008950F931F93CF93DF93C7E123
:10327000D1E089918F3F11F00E945A1881E0CC3142
:10328000D807B9F7C1E1D1E007E111E089918F3F9B
:1032900011F00E945A180C171D07C1F7DF91CF914A
:1032A0001F910F9108950E9433198AE0E0E5F2E042
:1032B000DF01982F1D929A95E9F7EEEEF1E0DF011C
:1032C0001D928A95E9F785E00E94C3190C948B0A38
:1032D000EF92FF920F931F93CF93DF93CDB7DEB79B
:1032E0002A970FB6F894DEBF0FBECDBF8E010F5FD9
:1032F0001F4F8AE0F80111928A95E9F7F12C6F2DA2
:10330000C8010E948718F394F5E0FF12F8CFF12C62
:10331000EE24E3944E2D6F2DCE0106960E94D11817
:10332000F394EE0C86E0F812F5CF4AE050E0B801D5
:103330008EEE91E00E943F25FF24F394009709F45C
:10334000F12C892B41F08AE0F801AEEEB1E001905A
:103350000D928A95E1F72F2D4AE060E572E08EEE3E
:1033600091E00E94C4190E94910A8F2D2A960FB6EF
:10337000F894DEBF0FBECDBFDF91CF911F910F91AB
:10338000FF90EF9008950895FF920F931F93CF93AE
:10339000DF93F82E092F162FD72FC42F222349F0A1
:1033A00081E08093FA010E94251E9093F901809399
:1033B000F8018091FA018823A1F08091F8019091A1
:1033C000F9010E943D1E059760F0EF2DF02FA12F0F
:1033D000BD2FCE0FDF2FD11DEC17FD0741F410924A
:1033E000FA01DF91CF911F910F91FF900895819184
:1033F0008D93F2CF0E94E51F0E949C150C94F11F43
:103400000E94F51F0E94A4150C940F200E94AF1D6E
:103410000E94CC1F0E9488150E94FA190E94001A6F
:103420000E949815FBCFCF93DF93EC01FB018281C3
:10343000882309F420C1C430FDE5DF07C8F5CB3F80
:103440009CE5D90730F49E0122503C4524313105DA
:1034500098F50E94BB149093450280934402C031BA
:10346000FCE5DF0709F4E0C008F061C0C8309CE566
:10347000D90709F4CBC088F5C430FCE5DF0709F4AF
:10348000B3C0E8F4C2309CE5D90709F4A7C0809125
:1034900044028260C330DC4509F4A3C08091440239
:1034A000909145020E94C9140E949A0E80E004C0C7
:1034B000C236EDE5DE0769F2DF91CF910895809184
:1034C00044028061C630FCE5DF0709F48AC008F4D5
:1034D0008FC080914402806284C0809144028D7FBD
:1034E000CC309CE5D90709F47CC070F4809144028B
:1034F0008C60CA30FCE5DF0709F473C008F48AC0A9
:10350000809144028E7F6DC080914402877FCE30CF
:103510009CE5D90709F465C0809144028B7FCF30C8
:10352000DC4508F45EC0809144028F7E5AC0CD3FD6
:10353000FCE5DF0709F474C040F5C4319CE5D90708
:1035400009F48AC058F4C231FCE5DF0709F474C0FD
:1035500008F46EC080914402837F43C0CB3F9CE55A
:10356000D90709F449C008F04DC0C531DC4509F060
:1035700095CF8091440282FB992790F921E0922710
:1035800090FB82F990FB83F92CC0C1308DE5D80700
:1035900009F458C088F4809145028360CF3FECE580
:1035A000DE0769F1809145028D7FC115DD4538F157
:1035B000809145028C7F23C0C3308DE5D80709F484
:1035C00058C008F452C0C236DD4509F067CF90916B
:1035D0004402892F8F7E94FF806103C08091440252
:1035E0008160809344025ACF809144028460F9CF75
:1035F000809144028860F5CF80914502816080937C
:1036000045024CCF809145028260F9CF80914402FF
:103610008064E7CF0E949A0E809144028068E1CFD7
:10362000809145028E7FEBCF809144028F7DD9CF70
:10363000809144028F7BD5CF0E949A0E80914402E4
:103640008F77CFCF80914502982F909591708E7F84
:10365000892B90FB81F9D3CF0E949A0E909144025E
:10366000892F97FB87F98058BCCF81E00E944F15C6
:1036700015CF80E0FBCF81E01FCF0C94C309509899
:10368000589A5198599A89B18170499905C090E02A
:10369000892B8093FD01089592E0FACFE091FD011E
:1036A000EE0FEE0FE093FD0149B1842F817049B117
:1036B00041FB222720F941FF02C022E030E0822BAB
:1036C000E82BE093FD01EF70F0E0E45EFE4F8081B7
:1036D0009091FC01890F8093FC0120E0843054F02C
:1036E0008091FB018F5F8093FB0160E080E00E948E
:1036F0003D1B21E08091FC018D3F54F48091FB0142
:1037000081508093FB0161E080E00E943D1B21E03D
:103710008091FC01082E000C990B64E070E00E947F
:1037200011258093FC01822F0895CF93DF93EB0145
:1037300086319C4511F50E94CB139A81992399F00B
:103740008A7A91E009F490E09093FE01811109C01A
:1037500089E20E94A6130E94111480E0DF91CF91AC
:10376000089585E3F6CF8091FE01811104C089E2BE
:103770000E94AD13F0CF85E3FBCF81E0EFCF0F9335
:103780001F93CF93DF93C42FD22FFC018281882314
:10379000C9F0409301020E94251E9093000280937D
:1037A000FF0180E28C0F883008F050C0C77081E0C4
:1037B00001C0880FCA95EAF7DF91CF911F910F9151
:1037C0000C94320C10910102141335C08091FF014A
:1037D000909100020E943D1E883C910560F5C0E278
:1037E000CD0F1D17B9F080E2810F883040F41770BB
:1037F00081E001C0880F1A95EAF70E94390CC830A1
:1038000048F481E09D2F977001C0880F9A95EAF7E0
:103810000E94320C802F0E942A0CC830B8F4D77056
:1038200081E001C0880FDA95EAF7DF91CF911F910F
:103830000F910C94390C80E28C0F883038F4C770EB
:1038400081E001C0880FCA95EAF7EFCFDF91CF91F1
:103850001F910F9108950F939C01CB01243F4CE5DC
:10386000340759F1A8F4293DFCE53F0701F12A3D51
:103870004CE53407D1F1283D3C4591F406E221EEB8
:1038800041EE68ED7CE50E94BF1B80E00F9108953A
:10389000263FFCE53F07E9F0B0F0273F3C45F9F053
:1038A000FC018281882339F110920102EFCF07E2F7
:1038B00025EE45EE69ED7CE5E6CF06E221EE40EE31
:1038C00064EF7CE5E0CF07E225EE44EE65EF7CE5B2
:1038D000DACF06E221EE42EE66EF7CE5D4CF07E2D6
:1038E00025EE46EE67EF7CE5CECF08E221E045EE1F
:1038F0006AED7CE5C8CF81E0C9CF90932D0180931C
:103900002C01089590930702809306020895E09198
:103910000602F0910702309721F00190F081E02D2E
:10392000099480E00895E0910602F0910702309733
:1039300099F020911001222359F02091440227FF91
:1039400007C0DC012C9111962C93119726E02C9343
:103950000280F381E02D09940895209104023091B2
:1039600005022817390771F090930502809304022D
:10397000E0910602F0910702309721F00680F7816E
:10398000E02D099408952091020230910302281736
:10399000390771F09093030280930202E0910602CE
:1039A000F0910702309721F00084F185E02D099411
:1039B0000895FC01329680911001882321F08091B6
:1039C00044029EE187FF96E080E0915008F408955C
:1039D00021912223D1F38F5FF8CF662301F120914B
:1039E00010012223F1F02091440227FF1AC0462F34
:1039F0004695469546954E3190F4677021E030E04B
:103A000002C0220F331F6A95E2F7840F911DFC015B
:103A1000828190E02823392381E0232B69F480E020
:103A20000895FC01329608962191261721F0E81797
:103A3000F907D1F7F4CF81E008959C01FC0132969B
:103A40009FEF80E04191461751F09F3F19F44111DB
:103A500001C0982F8F5F8630A9F79F3F09F4089522
:103A6000290F311D97FD3A95F90162830895FC01F4
:103A7000329608962191261303C0DF0111971C92FC
:103A8000E817F907B9F70895E62FE695E695E69564
:103A9000EE3168F4E80FF92FF11D677021E030E096
:103AA00001C0220F6A95EAF78281822B82830895F2
:103AB000E62FE695E695E695EE3170F4E80FF92FDE
:103AC000F11D677021E030E001C0220F6A95EAF72E
:103AD000209582812823228308952091100122239A
:103AE00029F02091440227FD0C94441D0C941D1DC7
:103AF00020911001222329F02091440227FD0C94EB
:103B0000581D0C94371DFC013296809110018823BA
:103B100051F08091440287FF06C08EE1DF011D92C3
:103B20008A95E9F7089586E0F9CF08950C94951DDC
:103B3000811105C081E0809308020C94961D82E0FB
:103B4000FACF83E0809308020C94961D0C94981D84
:103B500081E0809308020C94961D0C94A81D089592
:103B600080916202843031F10E94930A109209021E
:103B700088E190E020E40FB6F894A8958093600067
:103B80000FBE2093600083B7817F846083BF83B7BB
:103B9000816083BF7894889583B78E7F83BF0FB68B
:103BA000F894A895809160008861809360001092DD
:103BB00060000FBE089508950895CF930E94DB1D05
:103BC0000E9468190E94DC1DC0E08C2F0E944B18D7
:103BD000811105C0CF5FCA30C1F7CF91089581E050
:103BE000FCCF0E949A0E0C94FB0A1F921FB61F92E4
:103BF00011248F939F93AF93BF93809109028111FA
:103C000013C080915A0290915B02A0915C02B09126
:103C10005D024196A11DB11D80935A0290935B02F3
:103C2000A0935C02B0935D02BF91AF919F918F9181
:103C30001F901FBE1F90189582E084BD93E095BD34
:103C40009AEF97BD80936E0008952FB7F8948091F6
:103C50005A0290915B02A0915C02B0915D022FBF6D
:103C600008952FB7F89460915A0270915B02809189
:103C70005C0290915D022FBF08959C014FB7F894AC
:103C800080915A0290915B02A0915C02B0915D021A
:103C90004FBF821B930B089578941F921FB61F92FB
:103CA00011248F939F93AF93BF9380915A02909169
:103CB0005B02A0915C02B0915D020196A11DB11D55
:103CC00080935A0290935B02A0935C02B0935D02D2
:103CD000BF91AF919F918F911F901FBE1F9018951C
:103CE00081E08093E00080E28093D8001092C900C8
:103CF0008FE19EE40197F1F700C0000087E090EBB0
:103D0000DC0180936B0290936C02A0936D02B093E0
:103D10006E0288E19CE00FB6F894A895809360004D
:103D20000FBE90936000FFCF80912A0208950895FE
:103D30000895CF93DF93EC01809110018823B1F1B6
:103D40008091440287FF32C060E282E08093E90004
:103D50008FEF9091E800815095FD06C095ED9A9502
:103D6000F1F700008111F5CF8091E80085FF1BC0BD
:103D70008091100170E050E040E0811104C050E0FB
:103D800040E068E070E0CE010E9480208091E80071
:103D90008E778093E80080E2FE01AAE0B2E0019015
:103DA0000D928A95E1F7DF91CF91089568E081E067
:103DB000CDCF0895089580916102811109C00E94BC
:103DC00010220E946D228091E20084608093E200C4
:103DD00008951092610208950C94A81D60915E02EE
:103DE00081E0611101C080E00C94A11D90916202FC
:103DF00081E0943009F080E060915E020C94A61D91
:103E000042E061EC81E00E948C2142E261EC82E0C0
:103E10000E948C219091620281E0943009F080E050
:103E200060915E020C94981D80916402833009F4C5
:103E300060C030F48130C9F1823009F49CC008952B
:103E40008A3009F488C08B3009F46EC0893009F0DB
:103E50004FC080916302813209F04AC080916702AD
:103E600090916802029708F043C08091E800877F34
:103E70008093E8008091E80082FF36C09091F300C3
:103E80008091F200029731F48091F100813011F0BD
:103E9000863021F48091F10080932A028091E8001D
:103EA0008B778093E8000C94C02180916302813A63
:103EB000F9F48091E800877F8093E80080916702A1
:103EC00090916802892B61F460E28AE092E070E0F0
:103ED0000E94CF208091E8008B778093E8000895BE
:103EE00060E090E080E0F3CF809162028111C2CF68
:103EF000089580916302813AD9F780916702909189
:103F00006802892BA9F78091E800877F8093E800F9
:103F10008091E80080FFFCCF809110018093F10038
:103F20008091E8008E77BDCF80916302813201F7E6
:103F30008091670290916802892BD1F68091E80008
:103F4000877F8093E8000E94C02180916502809362
:103F500010010C949A0E80916302813249F680918F
:103F6000E800877F8093E8000E94C021809166026C
:103F700080932B02089580916302813A09F0B8CFB3
:103F80008091E800877F8093E8008091E80080FFBF
:103F9000FCCF80912B02C2CF84B7877F84BF0FB63E
:103FA000F894A895809160008861809360001092D9
:103FB00060000FBE80E890E00FB6F8948093610037
:103FC000909361000FBE0C94AD1D0E9410220E94C0
:103FD0006D22E2EEF0E080818460808378940C941E
:103FE000F62484E091E00C94821C8091620285307A
:103FF000A9F480916202853011F00C94F11D0E94A9
:10400000B01D809160028823A1F30E94DD1D8823EA
:1040100081F30E946A200E949A0EEBCF08950895C2
:104020000C941220292F33272330310519F168F41D
:104030002130310509F444C02230310509F445C06E
:1040400090E080E030E020E025C02132310549F1E8
:1040500022323105A9F780E490E020EF32E06115CB
:104060007105C1F08BE390E025EB32E06130710522
:1040700089F0E6CF99278130910581F0009729F0EA
:104080000297F1F6E4E1F2E002C0E4E6F2E08491A6
:1040900090E09F01FA01318320830895ECE4F2E07F
:1040A000F6CF89E090E02AE732E06115710591F3DF
:1040B00089E090E023E932E06130710559F3C0CF27
:1040C00082E190E023EA32E0E5CF8BE390E028E65E
:1040D00032E0E0CF80E189BD82E189BD09B400FE14
:1040E000FDCF8091D8008F7D8093D8008091E00033
:1040F00082608093E0008091E00081FDFCCF089514
:10410000AF92BF92CF92DF92FF920F931F93CF9304
:10411000DF936C01EB018A010E94DF21F82E8111EF
:1041200023C00115110539F0F80180819181C81B68
:10413000D90BC80ED91EB12CA12C2097A9F08091C3
:10414000E80085FD22C08091E8008E778093E8002A
:1041500001151105A1F0F80180819181A80EB91E09
:10416000B182A08285E0F82E8F2DDF91CF911F9133
:104170000F91FF90DF90CF90BF90AF9008950E9475
:10418000DF218823D1F2F82EEFCFF60181916F0164
:104190008093F1002197FFEFAF1ABF0ACECFFC0149
:1041A0008091690290916A0286179707A0F06115C5
:1041B000710529F49091E8009E779093E80090E0D3
:1041C0006115710551F4911108C08091E80082FFDA
:1041D00034C080E00895BC01F2CF80916202882350
:1041E000C1F18530C1F18091E80083FD30C080913C
:1041F000E80082FDEACF8091E80080FFE1CF809166
:10420000F3002091F200382F6115710519F0283064
:10421000310558F091E02830310509F090E0209107
:10422000E8002E772093E800CBCF81918093F100B6
:10423000615071092F5F3F4FE7CF80916202882361
:1042400041F0853041F08091E80083FFBECF81E0EE
:10425000089582E0089583E00895FC018091690249
:1042600090916A0286179707A0F06115710529F4ED
:104270008091E8008E778093E80090E061157105E9
:1042800051F4911108C08091E80082FF35C080E0B0
:104290000895BC01F2CF809162028823C9F1853074
:1042A000C9F18091E80083FD31C08091E80082FD72
:1042B000EACF8091E80080FFE1CF8091F300209168
:1042C000F200382F6115710519F02830310558F0CA
:1042D00091E02830310509F090E08091E8008E7778
:1042E0008093E800CBCF84918093F10031966150A8
:1042F00071092F5F3F4FE6CF80916202882341F022
:10430000853041F08091E80083FFBDCF81E00895C2
:1043100082E0089583E00895982F973028F08F70F9
:104320008093E90081E008959093E900242F762F8F
:1043300050E0981731F07091EC002091ED00509111
:10434000F00021FD02C09F5FE8CF3091EB003E7F7F
:104350003093EB003091ED003D7F3093ED003091D4
:10436000EB0031603093EB007093EC002093ED0094
:104370005093F0002091EE0027FDE5CF80E00895F6
:104380008091630287FF13C08091E80082FF06C01E
:104390008091E8008B778093E80004C080916202EE
:1043A0008111F2CF0895809162028823D9F3809120
:1043B000E80080FFF8CF8091E8008E77ECCF209165
:1043C000E4003091E50095E6A9012091EC00822FF0
:1043D000817020FF06C08091E80080FF06C080E069
:1043E00008952091E80022FD1AC08091620288237E
:1043F00089F0853089F08091EB0085FD0FC0209118
:10440000E4003091E50042175307F9F29150E1F6CC
:1044100084E0089582E0089583E0089581E008959E
:104420000E947E220E948622E0EEF0E08081816080
:104430008083E8EDF0E080818F77808319BCA7ED61
:10444000B0E08C918E7F8C9380818F7E80831092E0
:10445000610208950F931F93CF93DF930E947E22F2
:104460000E948622C8EDD0E088818F77888388817A
:104470008068888388818F7D888319BC109262024E
:1044800010925E021092600210925F0200EE10E045
:10449000F80180818B7F808388818160888342E0FE
:1044A00060E080E00E948C21E1EEF0E080818E7F70
:1044B0008083E2EEF0E0808181608083808188608B
:1044C0008083F80180818E7F8083888180618883EA
:1044D000DF91CF911F910F910895E8EDF0E0808179
:1044E0008F7E8083E7EDF0E080818160808384E0CF
:1044F00082BF81E0809361020C942A22E8EDF0E013
:1045000080818E7F80831092E20008951092DA00FD
:104510001092E10008951F920F920FB60F9211248E
:104520002F933F934F935F936F937F938F939F93BB
:10453000AF93BF93EF93FF938091E10082FF0BC095
:104540008091E20082FF07C08091E1008B7F809321
:10455000E1000E94F5248091DA0080FF19C080916B
:10456000D80080FF15C08091DA008E7F8093DA003A
:104570008091D90080FF96C080E189BD82E189BD2C
:1045800009B400FEFDCF81E0809362020E94DB1E31
:104590008091E10080FF19C08091E20080FF15C08A
:1045A0008091E2008E7F8093E2008091E200806142
:1045B0008093E2008091D80080628093D80019BC7B
:1045C00085E0809362020E94EE1E8091E10084FFEC
:1045D0002BC08091E20084FF27C080E189BD82E189
:1045E00089BD89B5982F917080FFFBCF8091D8004D
:1045F0008F7D8093D8008091E1008F7E8093E100D1
:104600008091E2008F7E8093E2008091E2008160E1
:104610008093E20080915E02882309F449C084E01F
:10462000809362020E94F61E8091E10083FF29C000
:104630008091E20083FF25C08091E100877F809315
:10464000E10082E08093620210925E028091E100BC
:104650008E7F8093E1008091E2008E7F8093E20064
:104660008091E20080618093E20042E060E080E0BF
:104670000E948C218091F00088608093F0000E945D
:10468000EC1EFF91EF91BF91AF919F918F917F9120
:104690006F915F914F913F912F910F900FBE0F90AF
:1046A0001F90189519BC109262020E94E91E70CFEB
:1046B0008091E30087FD93E090936202B3CF1F9255
:1046C0000F920FB60F9211242F933F934F935F9346
:1046D0006F937F938F939F93AF93BF93CF93DF930A
:1046E000EF93FF93D091E900DF708091EC00C82F29
:1046F000C17080FDC0E81092E9008091F000877FD2
:104700008093F00078940E94A3231092E900809196
:10471000F00088608093F000CD2BCF70C093E9004B
:10472000FF91EF91DF91CF91BF91AF919F918F91C9
:104730007F916F915F914F913F912F910F900FBE9D
:104740000F901F9018951F93CF93DF93CDB7DEB7CF
:10475000AA970FB6F894DEBF0FBECDBF83E692E0F6
:104760002091F100FC012193CF01F2E08B369F07ED
:10477000B9F70E94141F8091E80083FF1EC1809149
:104780006302909164029A3008F017C1E92FF0E0BB
:10479000E255F84D0C942525803899F0823809F0BF
:1047A0000CC1809167028F70873008F006C180933A
:1047B000E9008091EB0085FB882780F91092E900E1
:1047C00006C080915F029091600291118260909189
:1047D000E800977F9093E8008093F1001092F10039
:1047E0008091E8008E77E5C0882309F4D3C0823039
:1047F00009F0E3C0809165028111D6C08091670203
:104800008F702FEF280F263008F0D7C08093E90073
:104810002091EB0020FFC8C0933031F48091EB0071
:1048200080628093EB00C0C09091EB009061909308
:10483000EB0021E030E001C0220F8A95EAF72093D7
:10484000EA001092EA008091EB008860EACF8111C3
:10485000B4C0109165021F778091E3008078812BAE
:104860008093E3008091E800877F8093E8000E94B6
:10487000C0218091E80080FFFCCF8091E300806838
:104880008093E30082E0111183E08093620295C07F
:104890008058823008F091C0809165029091660244
:1048A0008C3D23E09207A1F583E08A838AE2898325
:1048B0004FB7F894DE01139620E03EE051E2E32F7B
:1048C000F0E050935700E49120FF03C0E295EF70B1
:1048D0003F5FEF708E2F90E0EA30C0F0C7968D9367
:1048E0009D932F5F243159F74FBF8091E800877F58
:1048F0008093E8006AE270E0CE0101960E94CF202A
:104900008091E8008B778093E80057C0C096E7CF8E
:104910006091670270916802AE014F5F5F4F0E9425
:104920001020BC01892B09F448C09091E800977FC2
:104930009093E80089819A810E942D21E1CF8038EF
:10494000E1F58091E800877F8093E80080915E0226
:104950008093F10045CF811130C090916502923073
:1049600060F58091E800877F8093E80090935E0275
:104970000E94C02180915E02882311F084E005C06E
:104980008091E30087FDFACF81E0809362020E946C
:10499000001F13C080916502813079F481E093306B
:1049A00009F080E0809360021092E9008091E800B5
:1049B000877F8093E8000E94C0218091E80083FFF8
:1049C0000AC08091E800877F8093E8008091EB0027
:1049D00080628093EB00AA960FB6F894DEBF0FBEFC
:1049E000CDBFDF91CF911F9108950895CF9380910E
:1049F00062028823A1F0C091E900CF709091EC0091
:104A0000892F817090FD80E8C82B1092E900809179
:104A1000E80083FD0E94A323CF70C093E900CF91EB
:104A2000089597FB072E16F4009407D077FD09D060
:104A30000E942B2507FC05D03EF4909581959F4F51
:104A40000895709561957F4F0895EE0FFF1F0590B3
:104A5000F491E02D0994AA1BBB1B51E107C0AA1FCA
:104A6000BB1FA617B70710F0A61BB70B881F991F0F
:104A70005A95A9F780959095BC01CD010895FB0149
:104A8000DC0104C08D910190801921F44150504007
:104A9000C8F7881B990B0895F999FECF92BD81BD87
:104AA000F89A992780B50895A8E1B0E042E050E077
:104AB0000C948025262FF999FECF92BD81BDF89ADE
:104AC000019700B4021639F01FBA20BD0FB6F89452
:104AD000FA9AF99A0FBE08950396272F0E945B2534
:104AE0000E945A25252F0E945B25242F0C945B25BC
:104AF0000196272F0E945B250C945A25DC01CB01DF
:104B0000FC01F999FECF06C0F2BDE1BDF89A3196DD
:104B100000B40D9241505040B8F70895F894FFCF7B
:104B20007D02970299029B029D029F02B102B3028D
:104B3000B502B702B90280028002800280028002C0
:104B40008002800280028002800280028002800255
:104B50008002800280028002800280028002A10224
:104B6000A302A502A702A902AB02AD02AF02BB02DB
:104B7000BD02BF02C102C302C50280028002C70299
:104B8000C902CB0280028002800280028002800281
:104B90008002800280028002800280028002800205
:104BA00080028002800280028002CD02CF02D10208
:104BB000D30231033303F302D502E702DA02DF0244
:104BC000E4020903D8020E031003150321030303B3
:104BD0002303E2022503F302F302F302F302F302DA
:104BE000F302F302F302F302F302F302F302F3021D
:104BF000F30235033703F302F302F302E902EB0297
:104C0000ED02FF0201030303050307031703190362
:104C10001B031D03F3021F03270329032B032D038B
:104C20002F0383038503F302F3024B034D034F036A
:104C300051035B035D035F0361036303F3027303CB
:104C4000750377037903F302F302F302F302F3022D
:104C5000F302F302F302F302F302F302F302F302AC
:104C6000F30287038903F302F302F3026C03530395
:104C700055035703590303030503070365030C0397
:104C8000670369036E031F037B0313037D037F0325
:104C90008103060408040A04E3030C040E04BF03A2
:104CA00018041A041C041E042A042C042E043004C4
:104CB0003204B403BC03C103C303C803D403DE033B
:104CC000E003E503E703B403F403F603F803FA0390
:104CD0001004D403CF03C603120414041604DC0327
:104CE0002004220424042604DA032804F2033404F2
:104CF000D803B4030404CA03CC03D103D603D803F6
:104D0000D803DA03DC03E903EB03ED03CF03EF037E
:104D1000DC03FC03FE03000402040404360438042C
:104D20003A043C04AF04B104B3048C04B504B704E2
:104D30006804C104C304C504C704D304D504D7045C
:104D4000D904DB045A0465046A046C0471047D040C
:104D5000870489048E0490045A049D049F04A104CE
:104D6000A304B9047D0478046F04BB04BD04BF042C
:104D70008504C904CB04CD04CF048304D1049B046F
:104D8000DD0481045A04AD04730475047A047F04BD
:104D900081048104830485049204940496047804B5
:104DA00098048504A504A704A904AB04AD04DF049A
:104DB000E104E304E50423063D063F0641064306FD
:104DC0004506570659065B065D065F06260626065B
:104DD0002606260626062606260626062606260673
:104DE0002606260626062606260626062606260663
:104DF00026062606470649064B064D064F0651066F
:104E000053065506610663066506670669066B0666
:104E1000260626066D066F06710626062606260657
:104E20002606260626062606260626062606260622
:104E30002606260626062606260626062606260612
:104E40007306750677067906D806DA0699067B0694
:104E50008D06800685068A06B0067E06B506B7066C
:104E6000BC06C806AA06CA068806CC069906990694
:104E7000990699069906990699069906990699063A
:104E80009906990699069906DC06DE0699069906A2
:104E900099068F0691069306A606A806AA06AC06F2
:104EA000AE06BE06C006C206C4069906C606CE06F3
:104EB000D006D206D406D6062A072C0799069906EC
:104EC000F206F406F606F8060207040706070807C6
:104ED0000A0799061A071C071E0720079906990654
:104EE00099069906990699069906990699069906CA
:104EF00099069906990699062E073007990699068C
:104F000099061307FA06FC06FE060007AA06AC0679
:104F1000AE060C07B3060E0710071507C6062207D4
:104F2000BA062407260728077E0C7E0CAF0CAF0CB0
:104F3000DE0CDE0CDE0CDE0C420DCE0DDD0DDD0DCB
:104F4000A90EA90EB20EB20EB40EB20EB20EB20E71
:104F5000A90EA90EB90EB20EB20EB90ECC23F423CF
:104F6000DD24F423DD2427244824DD249F24AB24DE
:104F7000C800B301941E991ED91E971EDA1E981EF2
:104F800001679495969734929335366600FF010039
:0C4F9000010000FFFF0000010001FF0015
:00000001FF
