:100000000C94F0010C9437020C9437020C943702D4
:100010000C9437020C9437020C9437020C9437027C
:100020000C9437020C9437020C94D5210C94A9221D
:100030000C943F1D0C9437020C9437020C94370239
:100040000C9437020C94D6070C9437020C943702A8
:100050000C9437020C94961D0C9437020C943702C2
:100060000C9437020C9437020C9437020C9437022C
:100070000C9437020C9437020C9437020C9437021C
:100080000C9437020C9437020C9437020C9437020C
:100090000C9437020C9437020C9437020C943702FC
:1000A0000C9437020C9437020C943702A65DA85DBD
:1000B000AB5DC75DC95DCC5DE000AD5DB05DCF5DA2
:1000C000D15D2800E100AE5DB45DD45D000052005A
:1000D0000251B25DB55DCE5DD65DE500E300EB5D3E
:1000E0000000E60065425100A75DA95DC55DC85DE1
:1000F000CA5D2900AC5DAA5DC65DD05DCB5D0251D5
:10010000B15DAF5DCD5DD55DD25D00000000B35D3A
:10011000D35D0000D75D0000E2000000EC5DE70069
:1001200050004F000100B75DBA5DDA5DDC5DDF5D58
:100130000100BC5DBF5DE25DE45D01000100BD5DED
:10014000C35DE75D000001000100C15DC45DE15DCC
:10015000E95DE5000100EB5D000001000100010028
:10016000B65DB85DD85DDB5DDD5D0100BB5DB95D91
:10017000D95DE35DDE5D0100C05DBE5DE05DE85D13
:10018000E55D00000000C25DE65D0000EA5D000084
:1001900001000000EC5D01000100010029000100E8
:1001A00001004B0046004C0001000100010052001C
:1001B00049000100010001000100010000000100F0
:1001C0000100010001005100010001000100ED5D8E
:1001D0000000010001000100010001004A004D0083
:1001E00001000100010001004E004F004800010025
:1001F00001000100500001004C000000000001005F
:10020000010000000100000001000000EE5D01009F
:100210000100010000000000000000002A2B28005F
:1002200000000000000000000000000000000029A5
:10023000000000002C1E3420212224342627252EE5
:10024000362D3738271E1F2021222324252633331D
:10025000362E37381F0405060708090A0B0C0D0E49
:100260000F101112131415161718191A1B1C1D2F15
:100270003130232D350405060708090A0B0C0D0E35
:100280000F101112131415161718191A1B1C1D2FF5
:100290003130354C0000000000000000000000007C
:1002A000000000000000000000000000000000004E
:1002B00000000000000000007E0F00D4FFFFFFC719
:1002C00000000078360354005300350032004B0024
:1002D00020004E00490043004F004C004100200028
:1002E0004F0079006100790075006200690020000C
:1002F000530068006900660074000000160349009E
:100300006B006500620065005300610064006100DD
:100310006F0000000403090409023B00020100A071
:10032000FA09040000010301010009211101000183
:100330002240000705810308000A090401000103A7
:10034000000000092111010001223B000705820382
:1003500020000A1201000200000008EDFE691901E8
:10036000000102000105010906A101850605071922
:10037000E029E71500250195087501810205071997
:100380000029EF1500250195F07501810205081976
:10039000012905950575019102950175039101C02B
:1003A00005010906A101050719E029E71500250146
:1003B00095087501810295017508810105071900ED
:1003C00029FF150026FF009506750881000508190C
:1003D000012905950575019102950175039101C0EB
:1003E00011241FBECFEFDAE0DEBFCDBF04B603FE9F
:1003F00027C08091770390917803A0917903B09101
:100400007A038730904BA740B04BD1F4109277031A
:10041000109278031092790310927A0314BE84B775
:10042000877F84BF0FB6F894A8958091600088619B
:1004300080936000109260000FBEE0E0F8E3099541
:1004400012E0A0E0B1E0E0EAFCE402C005900D9209
:10045000AE33B107D9F723E0AEE3B2E001C01D929D
:10046000A737B207E1F70E9450190C94D8240C94D6
:100470000000CF93C0E080914202C81720F0109294
:100480004202CF9108958C2F90E0FC01EE0FFF1FE8
:10049000E80FF91FE85CFC4F8081918122812223C3
:1004A00021F00E948508CF5FE6CF0E949C08FBCF19
:1004B0008093500281E596E00E94B00710924D02B1
:1004C00010924C0210924B0210924A020895209111
:1004D00051022223F9F0805E91090897D8F48091A7
:1004E0004F02FB019281992361F0811104C0809138
:1004F00050020E94E00E80914F028F5F80934F0266
:100500000895815080934F02811104C08091500260
:100510000C94BF0E08959C01265A3D452F3131059C
:1005200030F481E06C3E7D4551F080E008C0855C90
:100530009D458697D0F781E06B3E7D45B1F7817090
:1005400008959C01265A3D4581E02031310538F05F
:100550002F51310981E02331310508F080E08170AD
:10056000089580914302811113C080914C029091B3
:100570004D02865A9D458534910550F480914A027A
:1005800090914B028B5E9D45029710F40E94E2040D
:10059000E0914C02F0914D02E65AFD45E233F1053F
:1005A00038F4E652FB4D0C946F2485E30E940E0B49
:1005B00080914A0290914B028B3E2DE5920709F003
:1005C00052C080914C0290914D028F3D2DE59207D3
:1005D000D9F1853E9D45D9F58AE237C08AE3E6CF59
:1005E0008BE3E4CF8CE3E2CF8DE3E0CF8EE3DECF8D
:1005F0008FE3DCCF80E4DACF81E4D8CF82E4D6CFBA
:1006000083E4D4CF84E4D2CF85E4D0CF8CE4CECFC2
:100610008EE1CCCF8FE1CACF80E2C8CF81E2C6CFD6
:1006200082E2C4CF83E2C2CF84E2C0CF85E2BECFF4
:1006300086E2BCCF87E2BACF8AE2B8CF8FE2B6CFEC
:1006400080E3B4CF81E3B2CF8CE40E940E0B109212
:10065000430210924D0210924C0210924B021092E3
:100660004A020C9439028C3E9D4589F7AACF8091AD
:10067000450281110E943F048091440281110E9431
:1006800056038091430281110E94B10280914A0277
:1006900090914B028B5E9D45029718F48CE20E946C
:1006A0009E0A81E0809344020C94390280914402B6
:1006B00081110AC080914A0290914B028B5E9D4548
:1006C000029710F40E94370380914A0290914B02E6
:1006D000892B19F08CE20E940E0B109244021092AA
:1006E0004B0210924A020C9439028091450281110A
:1006F0000E943F048091440281110E945603809120
:10070000430281110E94B102E0914C02F0914D022E
:10071000E65AFD45E534F10540F4E45FFA4D0C94EA
:100720006F2481E191E00E94480A81E080934502B4
:100730000C94390283E191E0F6CF86E191E0F3CFAA
:1007400089E191E0F0CF8CE191E0EDCF8FE191E094
:10075000EACF82E291E0E7CF85E291E0E4CF88EF53
:1007600091E0E1CF88E291E0DECF82E391E0DBCF60
:1007700084E391E0D8CF8AE20E949E0AD6CF82E03D
:1007800092E0D1CF86E391E0CECF89E391E0CBCF69
:100790008CE391E0C8CF8FE391E0C5CF82E491E094
:1007A000C2CF85E491E0BFCF88E491E0BCCF8CEF6D
:1007B00091E0B9CF8BE491E0B6CF8EE491E0B3CF76
:1007C00088E591E0B0CF8BE591E0ADCF8EE591E08B
:1007D000AACF81E691E0A7CF84E691E0A4CF87E697
:1007E00091E0A1CF8AE691E09ECF8DE691E09BCF8C
:1007F00080E791E098CF8BE2BFCF84E1BDCF8AE163
:10080000BBCF88E0B9CF85E1B7CF87E1B5CF8CE129
:10081000B3CF88E1B1CF8CE0AFCF82E1ADCF83E140
:10082000ABCF8DE2A9CF8EE2A7CF84E0A5CF86E142
:10083000A3CF87E0A1CF89E09FCF8AE09DCF8BE057
:100840009BCF8DE099CF8EE097CF8FE095CF83E35C
:1008500093CF84E391CF8DE18FCF8BE18DCF86E075
:100860008BCF89E189CF85E087CF81E185CF80E19A
:1008700083CF86E381CF87E37FCF88E37DCF8091ED
:10088000450281110BC080914C0290914D02865A15
:100890009D458534910510F40E947503E0914C024A
:1008A000F0914D02E65AFD45E034F10538F4EF5A77
:1008B000FA4D0C946F248AE20E940E0B10924502AE
:1008C00010924D0210924C020C9439028BE2F4CF3C
:1008D00084E1F2CF8AE1F0CF88E0EECF85E1ECCF82
:1008E00087E1EACF8CE1E8CF88E1E6CF8CE0E4CF86
:1008F00082E1E2CF83E1E0CF8DE2DECF8EE2DCCF9A
:1009000084E0DACF86E1D8CF87E0D6CF89E0D4CFB4
:100910008AE0D2CF8BE0D0CF8DE0CECF8EE0CCCFAF
:100920008FE0CACF83E3C8CF84E3C6CF8DE1C4CFC5
:100930008BE1C2CF86E0C0CF89E1BECF85E0BCCFDE
:1009400081E1BACF80E1B8CF86E3B6CF87E3B4CFF9
:1009500088E3B2CF80914E02823001F1B8F4813049
:10096000D1F010924D0210924C0210924B02109254
:100970004A0210924E0210924102109240021092CE
:10098000450210924402109243020895853048F7C0
:100990000E94B102E6CF0E943F04E3CF0E945603BB
:1009A000E0CF81E0809351020E94AA04809150021E
:1009B0000C94BF0E109251020E94AA048091500222
:1009C0000C94E00E0F931F93CF93DF938091450219
:1009D00081110E943F048091440281110E945603BC
:1009E0008091430281110E94B10200914C0210914A
:1009F0004D02C8010E94A102D82F882329F16091DD
:100A00004A0270914B02C8010E948B0290915102E0
:100A10009817C9F00E941513C82F827289F08C2F85
:100A20008D7D0E942513E0914C02F0914D02E65A13
:100A3000FD45E233F10568F4EF56FA4D0C946F244E
:100A40008C2F8260EECFD0E0C0E0EDCF85E30E9436
:100A50009E0A80914A0290914B028B3E2DE59207AF
:100A600009F0B6C0E0914C02F0914D02E65BFD4505
:100A7000E533F10508F063C0ED53FA4D0C946F2493
:100A80008AE3E5CF8BE3E3CF8CE3E1CF8DE3DFCFE8
:100A90008EE3DDCF8FE3DBCF80E4D9CF81E4D7CF06
:100AA00082E4D5CF83E4D3CF84E4D1CF85E4CFCF24
:100AB0008CE4CDCF8EE1CBCF8FE1C9CF80E2C7CF21
:100AC00081E2C5CF82E2C3CF83E2C1CF84E2BFCF50
:100AD00085E2BDCF86E2BBCF87E2B9CF8AE2B7CF4E
:100AE0008FE2B5CF80E3B3CF81E3B1CF82E791E06E
:100AF0000E94480A24C085E092E0FACF85E791E0A1
:100B0000F7CF88E791E0F4CF8CE791E0F1CF8FE762
:100B100091E0EECF82E891E0EBCF85E891E0E8CF7D
:100B200088E891E0E5CF8BE891E0E2CF8EE891E0B4
:100B3000DFCF80E991E0DCCF8CE40E949E0ADD23C8
:100B400019F08C2F0E94251381E080934302DF91DE
:100B5000CF911F910F910C94390282E991E0C8CF97
:100B600080EA91E0C5CF85E991E0C2CF88E991E0C4
:100B7000BFCF8CE991E0BCCF8FE991E0B9CF82EA99
:100B800091E0B6CF85EA91E0B3CF88EA91E0B0CFAB
:100B90008AE2D3CF8BEA91E0ABCF8EEA91E0A8CF87
:100BA00080EB91E0A5CF89E791E0A2CF83EB91E0C4
:100BB0009FCF86EB91E09CCF89EB91E099CF8CEBB6
:100BC00091E096CF8FEB91E093CF82EC91E090CFC4
:100BD0008C3E9D4509F0B3CFE0914C02F0914D025F
:100BE000E75BFD45E433F10508F0A9CFE850FA4D85
:100BF0000C946F2484EC91E07BCF87EC91E078CF6C
:100C00008AEC91E075CF8DEC91E072CF84EF91E0AA
:100C10006FCF80ED91E06CCF83ED91E069CF86EDF1
:100C200091E066CF89ED91E063CF8CED91E060CFEC
:100C30008EED91E05DCF81EE91E05ACF84EE91E0B0
:100C400057CF87EE91E054CF8AEE91E051CF8DEEF1
:100C500091E04ECF80EC91E04BCF80EF91E048CF18
:100C600083EF91E045CF87EF91E042CF8BEF91E0AA
:100C70003FCF8EEF91E03CCF81E092E039CF84E02E
:100C800092E036CF87E092E033CF89E991E030CF30
:100C90008AE092E02DCF8DE092E02ACF80E192E0D1
:100CA00027CF8091400290914102892B89F4809155
:100CB0004E02823049F018F4813021F008958530D9
:100CC00028F008950C9475030C9437030C94E204F7
:100CD0000895CF92DF92FF920F931F93CF93DF93EC
:100CE000EC016B0181E090E090934102809340021F
:100CF0000E946F1D8C01D6011296FC9012979E01E6
:100D0000265A3D4580914E02FF2009F499C02534B2
:100D1000310508F043C08230E9F1F0F4882311F185
:100D2000813011F1D0934D02C0934C0210934902CF
:100D30000093480280E699E00E94C807F12C1092C7
:100D40004102109240028F2DDF91CF911F910F91A0
:100D5000FF90DF90CF900895833049F0843011F7F1
:100D60000E94B10281E017C00E943F04DBCF809156
:100D70004602909147022091480230914902FC01BD
:100D8000E21BF30BA801481B590BE417F50740F3CE
:100D90000E943F0484E080934E02C4CF9E012B5EEC
:100DA0003D452230310590F5823049F168F48823C1
:100DB00011F1813049F1D0934B02C0934A02109354
:100DC000470200934602B6CF833099F0843099F7FA
:100DD0008091480290914902209146023091470249
:100DE000DC01A21BB30BF801E81BF90BAE17BF0720
:100DF00048F40E94B10282E080934E02DCCF0E9450
:100E00005603D9CF0E94560383E0F6CF882309F416
:100E100096CF80914202883008F090CF282F30E0A2
:100E2000F901EE0FFF1FE20FF31FE85CFC4FD183C7
:100E3000C08312969C9192838F5F809342027ECFF3
:100E40002734310508F070C08230A1F180F4813080
:100E500009F075CF80914C0290914D028C179D073F
:100E600009F06DCF0E943F0410924E0268CF83308C
:100E700061F1843009F063CF80914A0290914B0276
:100E80008C179D0709F04BC0809148029091490250
:100E9000081B190B2091460230914702821B930BCD
:100EA00080179107C8F104311105B0F50E9456036F
:100EB00081E027C080914A0290914B028C179D07D8
:100EC00009F03DCF0E945603CFCF80914C02909104
:100ED0004D028C179D07C1F4809146029091470204
:100EE000081B190B2091480230914902821B930B79
:100EF0008017910788F00431110570F40E943F04B7
:100F000082E080934E021BCF80914A0290914B0267
:100F10008C179D0709F013CF0E94B102A5CF8091D5
:100F20004C0290914D02F4CF8823B9F08091420297
:100F3000883008F004CF282F30E0F901EE0FFF1FB2
:100F4000E20FF31FE85CFC4FD183C08312969C91A3
:100F500092838F5F80934202F2CEFF24F394EFCE10
:100F6000F89490935302809352021092800085E08F
:100F7000809381001092820010928500109284006C
:100F80008FEF9FEF90938900809388007894089565
:100F9000F8941092850010928400909389008093B9
:100FA000880082E080936F00789408951F920F92DA
:100FB0000FB60F9211242F933F934F935F936F932C
:100FC0007F938F939F93AF93BF93EF93FF93E091A2
:100FD0005202F09153020995FF91EF91BF91AF91A9
:100FE0009F918F917F916F915F914F913F912F9141
:100FF0000F900FBE0F901F90189581E00C9458022F
:101000000F931F93CF93DF93EC018B01CD3E8DE5C2
:10101000D80779F0CE3EEDE5DE07F9F0CE010E946B
:101020006702B801CE01DF91CF911F910F910C940F
:101030006906FB018281882351F083E192E00E94DE
:10104000480A87E192E00E94480A0E94DA0480E0A0
:10105000DF91CF911F910F910895FB018281882329
:10106000B1F38BE192E00E94480A8FE192E00E9486
:10107000480A0E94D104EBCF81110AC082E06623A6
:1010800059F00E949F0E882329F08EE40E94740B71
:1010900081E0089581E5FACF0E949F0E882311F028
:1010A0008BE4F4CF82E5F2CF9C013A9521153F41C4
:1010B00050F5FC01EE27F170BC0166277270AC019F
:1010C000442754709C012227387094FF0EC080E1A1
:1010D000EF2B09F480E0672B09F08062452B09F0C3
:1010E0008064232B89F08068089581E0EF2B09F458
:1010F00080E0672B09F08260452B09F08460232B88
:1011000019F08860089580E00895CF93DF93EC0193
:101110000E9454089E01205E31092830310510F0EC
:10112000209739F40E947C0B8C2FDF91CF910C9487
:101130009E0A0E94CC0DF8CFCF93DF93EC010E9462
:101140000E0BCE010E9454089E01205E310928300A
:10115000310510F0CD2B21F4DF91CF910C94830B4E
:10116000DF91CF910C94D30D81E008950C94000889
:1011700008950C94B8081F93CF93DF9300D000D04C
:101180000F92CDB7DEB749835A836B8330915402F7
:1011900089819A8131111DC06623B9F02223A9F0FB
:1011A0000E94B20F182F682F89819A810E945B0FCD
:1011B00069817A81812F0F900F900F900F900F907F
:1011C000DF91CF911F910C9460160E94890F182F08
:1011D000EFCF0E94B20F69817A81EDCFFC01262FFB
:1011E000408151816281738184810C94BB0881E0CC
:1011F0000895CF93DF93EC0160E00E94EE08BE01FA
:10120000DF91CF910C94B9080E946C170E94520A8A
:101210000C9490170C94931780E00C94530A089543
:1012200008950E94E40D0E9410092FEF84E39CE0D2
:10123000215080409040E1F700C000000C94BA1D9E
:101240000F931F93CF93DF938C0161E00E94EE0810
:10125000EC01B8010E94B6088823A9F1B801CE01BB
:101260000E94751B882379F1B801CE010E945D1997
:10127000882349F1B801CE010E94DF1A882319F1B1
:10128000F8018281882361F0CB35FDE5DF0721F18C
:1012900070F4C115ECE5DE07A1F0CF3DDC45C9F0E7
:1012A000C801DF91CF911F910F910C94B408CC35F8
:1012B0008DE5D807A1F0CD35DD4591F70E94DD130E
:1012C000EFCF0E94110980E0DF91CF911F910F9124
:1012D00008950E949714F7CF0E94E613E1CF0E9471
:1012E000E913DECF0C940F090E94D11B0E94530A10
:1012F0000C947209DF92EF92FF920F931F93CF939A
:10130000DF93E82FF0E0EC5EFD4FD490282F269578
:101310002695269530E0F901EC54FD4F0491877035
:1013200010E0082E02C0159507950A94E2F70170A7
:101330001127F901EC55FD4FE490F12C082E02C065
:10134000F594E7940A94E2F791E0E922FF24F90189
:10135000EC56FD4FC491D0E002C0D595C7958A9553
:10136000E2F7C170DD270115110519F081EE0E9429
:101370009E0AE114F10419F086EE0E949E0A8D2D5A
:101380000E94740BEF2819F086EE0E940E0B012BC1
:1013900019F081EE0E940E0BCD2B51F08CE2DF9103
:1013A000CF911F910F91FF90EF90DF900C94740BF1
:1013B000DF91CF911F910F91FF90EF90DF900895F3
:1013C000EF92FF920F931F93CF93DF93EC01162FB1
:1013D0000AE08881882309F454C0813009F04EC0A6
:1013E0008981813099F47E0122E0E20EF11C8A812C
:1013F0000E94740BE7012196812F815050F3EFE991
:10140000FFE03197F1F700C00000F7CF823041F4E0
:101410007E0182E0E80EF11C8A810E949E0AEACFDA
:10142000833041F47E01E2E0EE0EF11C8A810E94DD
:101430000E0BE0CF843011F02196DDCF2A81229669
:1014400090E080E0AE014F5F5F4F2053330B2A30B6
:10145000310548F0019778F2EFE9FFE03197F1F7B5
:1014600000C00000F7CF089FB001099F700D112444
:10147000C901860F971F2981EA01E4CF0E947A09EA
:10148000BACFDF91CF911F910F91FF90EF90089508
:1014900060E00C94E00908950C944B0A81E00895F3
:1014A0000C944E0A0895CF93C82F0E944C0A8C2F9B
:1014B000CF910C94500ACF93DF93CDB7DEB72B9723
:1014C0000FB6F894DEBF0FBECDBF4F835887698734
:1014D0007A878B8761110E9438131E821D8285E0F6
:1014E000FE013796DE01119601900D928A95E1F783
:1014F0008C819D81892B89F449815A816B817C8102
:101500008D819E810E9456122B960FB6F894DEBFF5
:101510000FBECDBFDF91CF91089589819A81892334
:101520008F3F51F3CE0101960E94F7088111E4CF5D
:10153000EBCFFC01808191810C94F40FCF93C82FE5
:10154000882309F469C08238C1F40E94D11B81FD4F
:1015500063C089E30E94F0120E945B132FEF81EEBB
:1015600094E0215080409040E1F700C0000089E302
:101570000E94F712CF910C945B138338A1F40E9460
:10158000D11B80FD49C083E50E94F0120E945B13CD
:101590002FEF81EE94E0215080409040E1F700C0B1
:1015A000000083E5E5CF8438A1F40E94D11B82FDC1
:1015B00033C087E40E94F0120E945B132FEF81EE8C
:1015C00094E0215080409040E1F700C0000087E4A3
:1015D000CFCF8CEF8C0F813A90F46C2F8091020169
:1015E000909103010E94371C882329F08C2F0E94C0
:1015F000F7120E945B138C2F0E94F012BBCF80E287
:101600008C0F883048F4C77081E001C0880FCA95FC
:10161000EAF70E941813AECFCF910895882309F4FA
:101620004BC0823871F40E94D11B81FF45C089E311
:101630000E94F0120E945B1389E30E94F7120C943F
:101640005B13833859F40E94D11B80FF35C083E5BA
:101650000E94F0120E945B1383E5EFCF843859F4A7
:101660000E94D11B82FF28C087E40E94F0120E94D2
:101670005B1387E4E2CF9CEF980F913AF0F290E28F
:10168000980F983050F4877091E001C0990F8A95B7
:10169000EAF7892F0E941E13D2CF9BE5980F933053
:1016A00020F490E080E00C94F71B885A873120F4F6
:1016B00090E080E00C940D1C08951F93CF93DF936E
:1016C000182FEB010E949E0A209731F4812FDF91A1
:1016D000CF911F910C940E0B8FE99FE00197F1F7CA
:1016E00000C000002197F0CF70E060E0893311F472
:1016F00060E570E00C945D0B882321F00E941813C4
:101700000C945B130895882321F00E941E130C94FF
:101710005B130895BF92CF92DF92EF92FF920F93E7
:101720001F93CF93DF936C01D62FC72FFC0112813B
:10173000F580F2949FE0F9220E940E13E82E882390
:10174000B9F0E12E1123A1F08C2F807F803421F09D
:1017500080E28D0F8830D0F08091510382FD16C059
:1017600082E00E94AC130E940E1391E0E82EE9265D
:10177000BC2EB2948FE0B822FBE0FB1508F468C0E1
:10178000EB2DF0E0E45DF94D0C946F24E12CF0CFEB
:101790000C2F0F70C07F11F00295007F112399F07C
:1017A000002359F080E28D0F883010F0D11107C06E
:1017B000802F0E9418130E945B138D2F41C0802F31
:1017C0000E942B13F8CF8D2F0E940E0B002309F4DB
:1017D0003FC080E28D0F883010F0D11104C0802FFF
:1017E0000E941E1303C0802F0E9431130E945B13BE
:1017F0002FC00C2F0F70C07FC03211F00295007FF8
:10180000DD2381F0D13009F469C0112309F473C0DC
:10181000FF2009F469C0F601858180FFCECF8F706B
:10182000858362C08091510382FF38C0112359F033
:10183000002329F0802F0E9418130E945B1380E080
:101840000E949E0A05C080E00E940E0B0111C7CFC6
:10185000EB2DE850FF0B349720F40E94D11B0E941F
:10186000530AEE2009F44BC10E940A1380FD47C1C0
:10187000F60112820E9404130E94BF0EC6010E944C
:10188000A00D0E940413DF91CF911F910F91FF9043
:10189000EF90DF90CF90BF900C94E00E112389F071
:1018A000F11006C00E943E13802B0E947C0BD0CF0B
:1018B00021E0F212F7CF0E943E13802B0E944413C6
:1018C000C7CFF11006C00E945113802F0E94830BD6
:1018D000BFCF31E0F31609F4BBCFF5CF112331F0C0
:1018E00085E08F1508F4B4CF802FDFCF94E09F15EB
:1018F00008F4AECFEACFFF2041F3D93349F4FFEF2C
:1019000027EE33E0F15020403040E1F700C0000006
:101910008D2F0E940E0B9CCF8C2F837009F041C03D
:10192000111196CF4D2F429546954770440F440FA5
:101930000D2F0F7010E030E020E0042E04C0000FE7
:10194000111F221F331F0A94D2F760E070E0CB0111
:10195000D4FF0FC06FE070E080E090E004C0660F3D
:10196000771F881F991F4A95D2F7609570958095CB
:101970009095C695C695C370602B712B822B932BC7
:10198000C23049F058F4C13019F00E94510E60CFB6
:101990000E943F0E5DCF0E94630E5ACF0E943D0E03
:1019A00057CF8695112311F08C2F8170882309F46D
:1019B0004FCF4D2F429546954770440F440F0D2F42
:1019C0000F7010E030E020E0042E04C0000F111F63
:1019D000221F331F0A94D2F760E070E0CB01D4FFDE
:1019E0000FC06FE070E080E090E004C0660F771FEA
:1019F000881F991F4A95D2F76095709580959095AC
:101A0000C695C695C370602B712B822B932BC23069
:101A100049F058F4C13019F00E94360F19CF0E94D6
:101A2000240F16CF0E94480F13CF0E94790E10CFBB
:101A3000CF70112329F08C2F0E94BF0E8D2F35CF30
:101A40008D2F0E94830B8C2F0E94E00E01CFD23F7E
:101A500051F160F4D03FB9F0D13F81F0112309F486
:101A600049C0F110AACE8C2F8F7121C0D33F11F144
:101A7000D43FA1F78091510382FF26C08C2F8F7134
:101A8000112311F314C0112349F084E08F1508F4D9
:101A9000DFCE8C2F8F710E94030FDACE95E09F1559
:101AA00008F4D6CEF6CF8C2F8F711111CDCF0E94B6
:101AB000BF0ECECE112329F08C2F8F710E94AA0E5B
:101AC000C7CE0E94850EC4CE112349F0CF718C2F52
:101AD0000E94BF0E63E08C2F0E949113B9CE81E06B
:101AE0000E94AC13E1E0EF1508F0B2CE82E00E9454
:101AF000AC13AECEF11001CF8C2F8F71A5CFDF913B
:101B0000CF911F910F91FF90EF90DF90CF90BF90FA
:101B100008950F931F93CF93DF93EC016881798130
:101B20008A810E94FE0F8C010E945A0F0E943C0E77
:101B3000B801CE01DF91CF911F910F910C948A0BC8
:101B4000CF93DF93EC018B819C81892B29F08881D5
:101B5000998189238F3F59F4DF91CF910895CE0168
:101B60000E94890DCE01DF91CF910C94F908CE012E
:101B70000E9420098111F3CF0E940E13882361F384
:101B80008A81882349F38091510382FDE5CF82E069
:101B9000DF91CF910C94AC13882321F00E942B137A
:101BA0000C945B130895882321F00E9431130C9448
:101BB0005B1308950E9438130E943B130C945B132F
:101BC0000E94FE120C94DA0D0E9428130C94E00D72
:101BD000E92FE295EF70E250EE3070F4F0E0E85C4F
:101BE000F94D0C946F24803F19F020F4883E20F4C6
:101BF00081E00895843FE1F380E00895883EC0F3DA
:101C0000813FD1F7F5CF93FB882780F90895FC0138
:101C1000808191810E94F40F0C94E80DCF93DF93A3
:101C200000D000D00F92CDB7DEB70F900F900F907D
:101C30000F900F90DF91CF910895CF93DF9300D055
:101C400000D000D0CDB7DEB726960FB6F894DEBF31
:101C50000FBECDBFDF91CF91089508950C942D0E46
:101C60000E942E0E60938102709382028093830201
:101C7000909384020C94DA0D08950C94300E0F9317
:101C80001F93009181021091820220918302309172
:101C90008402602B712B822B932B1F910F910C943C
:101CA000300E0F931F9300918102109182022091B8
:101CB00083023091840260237123822393231F9136
:101CC0000F910C94300E0F931F930091810210918D
:101CD000820220918302309184026027712782273B
:101CE00093271F910F910C94300E0C942D0E0C9491
:101CF000750E0E94770E60937D0270937E02809332
:101D00007F02909380020C94DA0D60E070E0CB01CA
:101D10000C94790E611571058105910529F481E016
:101D2000442361F080E00895DC01CB0104C0B69546
:101D3000A795979587954A95D2F781700895482F72
:101D400060917D0270917E0280917F02909180026D
:101D50000C948A0E0F931F9341E050E060E070E016
:101D60008A019B0104C0000F111F221F331F8A9597
:101D7000D2F7C901B8011F910F910C94790E0F93FE
:101D80001F9341E050E060E070E004C0440F551F35
:101D9000661F771F8A95D2F780917D0290917E020F
:101DA000A0917F02B09180028A019B01082B192B20
:101DB0002A2B3B2BC901B8011F910F910C94790E6E
:101DC0000F931F9341E050E060E070E004C0440FC7
:101DD000551F661F771F8A95D2F7CB01BA01609510
:101DE00070958095909500917D0210917E022091D2
:101DF0007F023091800260237123822393231F91FD
:101E00000F910C94790E0F931F9341E050E060E026
:101E100070E004C0440F551F661F771F8A95D2F7E4
:101E200080917D0290917E02A0917F02B09180020C
:101E30008A019B01082719272A273B27C901B801D6
:101E40001F910F910C94790E0F931F9300917D02B7
:101E500010917E0220917F0230918002602B712BC5
:101E6000822B932B1F910F910C94790E0F931F933C
:101E700000917D0210917E0220917F0230918002BC
:101E800060237123822393231F910F910C94790E69
:101E90000F931F9300917D0210917E0220917F028B
:101EA0003091800260277127822793271F910F911D
:101EB0000C94790E0895E92FEE0FE90FEE0F8E0FB7
:101EC000982F977041E001C0440F9A95EAF78695E4
:101ED0008695869595E0899FF0011124EB5AFD4F78
:101EE00030E020E070E05191DF011197CB01022E2C
:101EF00002C0969587950A94E2F7817081958527AF
:101F0000842385278C932F5F3F4F2530310559F768
:101F10000895E92FEE0FE90FEE0F8E0F982F9770AF
:101F200086958695869525E0829FF0011124EB5ACF
:101F3000FD4F50E040E080E0219130E0092E02C0EA
:101F4000369527950A94E2F721703327042E01C0B5
:101F5000220F0A94EAF7822B4F5F5F4F45305105FD
:101F600059F70895BF92CF92DF92EF92FF920F93AD
:101F70001F93CF93DF938C01C0907D02D0907E029F
:101F8000E0907F02F0908002809181029091820225
:101F9000A0918302B0918402C82AD92AEA2AFB2A96
:101FA000CFE1D0E0BC2ED701C6010C2E04C0B695FF
:101FB000A795979587950A94D2F780FD0EC0219733
:101FC00088F7B12C8B2DDF91CF911F910F91FF904E
:101FD000EF90DF90CF90BF900895B8018C2F0E94B2
:101FE0007416019761F3EECFCF93DF93EC010E945B
:101FF000B20FBE01DF91CF910C9474161F93CF9353
:10200000DF93EB0190915402992331F0CB01DF91E2
:10201000CF911F910C94F40F882379F0CB010E948B
:10202000B20F182F682FCE010E945B0FBE01812FC7
:10203000DF91CF911F910C947416CB010E94890FF0
:10204000182FF4CF1F93CF93DF93C091850216E032
:10205000809186028C1304C0DF91CF911F91089567
:10206000D0E01C9FF0011D9FF00D1124E957FD4F9A
:102070004081518162817381848195810E941D0E0E
:102080002196C770E5CF4091B7025091B802609198
:10209000B9027091BA028091BB029091BC020C947B
:1020A0001D0EFF920F931F93CF93DF938091BC027D
:1020B000807FD1F48091B9028823B1F080918502AC
:1020C000109186026091B7027091B802A091BA0295
:1020D000B091BB02062F0723C0910001D0910101EE
:1020E00096E0F92E181306C0DF91CF911F910F9142
:1020F000FF90089590E0109711F00F3F19F40196AA
:102100008770F0CFF89E9001F99E300D1124F901EF
:10211000E957FD4F41814713F2CF40814613EFCF7E
:1021200042814111ECCF438154814A1B5B0B4C1718
:102130005D0728F78091BC028F7080618093BC029C
:10214000F901E457FD4F80818F708061808387EBB8
:1021500092E00E94A00DDF91CF911F910F91FF900F
:102160000C942210AF92BF92CF92DF92EF92FF9227
:102170000F931F93CF93DF93CDB7DEB761970FB661
:10218000F894DEBF0FBECDBF8C0185E0F801DE0103
:102190001D9601900D928A95E1F7F801E28087EB98
:1021A000C82E82E0D82E6091BA027091BB026115F0
:1021B000710509F45FC19091B7022091B802892F8F
:1021C00082238F3F09F456C140815181A380B4809E
:1021D000F090B902F501E61BF70BBF01E091000199
:1021E000F0910101FF2009F4F6C08091BC02382F64
:1021F000307F6E177F0708F0AFC0311179C0FE2C19
:10220000251323C0941321C0E1101FC08F7080617B
:102210008093BC020E944310C6010E94A00D8091D1
:10222000BC02F80185838F2D61960FB6F894DEBF4E
:102230000FBECDBFDF91CF911F910F91FF90EF9017
:10224000DF90CF90BF90AF900895AB2829F0842FF6
:1022500085238F3F09F027C180E0F82FF170DF2E32
:1022600080FF3CC0809185022091860236E0821377
:1022700015C04D875E878D859E850E94F40F292F9E
:1022800022952F702230F0F0243018F59F70F1F075
:10229000F8019581907FD1F4D12C1EC090E0389F39
:1022A000F001399FF00D1124E957FD4F618165134D
:1022B00006C06081641303C062816E110FC0019675
:1022C0008770D5CF9F7011F0882331F3805E8830FE
:1022D00018F3C8010E94A00DFD2CA5CFEE2009F433
:1022E000A2CF8091BC0281608093BC02F12C9BCF75
:1022F000251306C0941304C0F801EE2009F487C02A
:10230000C8010E94070E882319F1EE2009F180917F
:10231000BC02803270F02091B7023091B802388749
:102320002F831986BB86AA868C87CE0107960E94CA
:10233000A00D86E0F801A7EBB2E001900D928A951E
:10234000E1F70E9451100E944310FF24F3946BCFD9
:10235000C8010E94A00DF9CF311113C07A2DB98A9E
:10236000A88A6E2D89890E940E0E87EB92E00E944A
:10237000A00D86E0F60111928A95E9F70E944310BC
:10238000B5CF25130FC094130DC0E1100BC0F80199
:102390008583C8010E94A00D86E0F60111928A95FE
:1023A000E9F741CFC8010E94070E882389F2EE2089
:1023B00079F28091BC02803208F4BBCF2091B70241
:1023C0003091B8023A8329831B82BD82AC828E830E
:1023D000CE010196ACCF6E177F0708F03EC0FE2CF1
:1023E000EE2009F4B5CF25132AC0941328C080919C
:1023F000BC0280FD1BC0982F907FC1F0F80185833F
:10240000903F31F0982F907F905F8F70892B85835C
:10241000C8010E94A00D86E0F801A7EBB2E0019090
:102420000D928A95E1F70E944310FDCE86E0F801F7
:10243000A7EBB2E001900D928A95E1F7F4CEC801C6
:102440000E94070E811175CF8091BC02816080933C
:10245000BC02C8010E94A00DE6CE7A2DB98AA88AD6
:102460006E2D89890E940E0E86E0F60111928A95E2
:10247000E9F7D9CFEE2009F46BCFC8010E94070E0F
:10248000F82E882309F464CF86E0F801A7EBB2E0C8
:1024900001900D928A95E1F787EB92E00E94990AEC
:1024A0000E945110C0CF81E08E25D7CE1F93CF93CD
:1024B000DF93CDB7DEB72C970FB6F894DEBF0FBE13
:1024C000CDBF4F83588769877A878B879C87CE01DA
:1024D00007960E94B210882369F08A859B85892B14
:1024E00039F04F815885842F85238F3F09F071C0C3
:1024F00016E05FC086E0FE013796DE01119601907E
:102500000D928A95E1F78A859B85892B89F38F81C6
:10251000988589238F3F61F32091860230E0C901BD
:10252000019687709927409185024817190671F422
:102530000E94E40D109286021092850286E0E7EB7D
:10254000F2E0DF011D928A95E9F7D2CF96E0929FE3
:10255000D001939FB00D1124A957BD4FFE013196B4
:1025600001900D929A95E1F7809386020E942210C5
:10257000BFCF819FC001112489579D4F0E94B21087
:102580008823E9F0E09185021E9FF0011124E957AC
:10259000FD4F4081518162817381848195810E94C8
:1025A0001D0E8091850290E0019687709927809397
:1025B000850280918502909186028913DACF2C964C
:1025C0000FB6F894DEBF0FBECDBFDF91CF911F9144
:1025D000089569857A858B859C850E941D0E88CF1C
:1025E000682F80910201909103010C94B71C682F11
:1025F00080910201909103010C94C21C8091020110
:10260000909103010C94CD1C8091BD028595859518
:10261000859508958091BD02877008959091BD02BF
:10262000977081E009F480E008958091E1020895B7
:102630009091E102892B8093E10208958095909119
:10264000E10298239093E10208958093E1020895B6
:102650001092E10208959091E002892B8093E002AC
:10266000089580959091E00298239093E002089558
:102670001092E00208951092DF0208958091BE0248
:10268000089508950C9441139091510392FD08C050
:102690009091BE02981721F08093BE020C944213D1
:1026A00008958091BE02882329F01092BE0280E036
:1026B0000C9442130895E0910201F091030180917E
:1026C000E1028083E0910201F09103018081909109
:1026D000E002892B8083E0910201F0910301808167
:1026E0009091DF02892B80839091BE02992381F023
:1026F000E0910201F09103018081892B8083809118
:102700000201909103010E94231C81110E94511328
:1027100080910201909103010C94DD1B08950C94AB
:102720008E139091510392FD10C098E0899F900103
:102730001124622B6093BD020E94BF0E8091BD02E6
:102740008595859585950C948F130C94BF0E1092EA
:10275000BD0280E00C948F139091BD028095892377
:102760008093BD02282F277091F4282F082E000C8B
:10277000330B9217130659F09091510392FD07C045
:102780008595859585950E94E00E0C94A713089574
:102790009091510392FB222720F9281769F080FBC2
:1027A00092F99093510380915003909151030E94AC
:1027B000131482E00C94AC1308958091510382FBB2
:1027C000882780F991E089270C94C81381E00C9444
:1027D000C81380E00C94C8136FEF7FEF90E080E0A7
:1027E0000C94C22490E080E00E949E2421E0893E67
:1027F0009E4F09F020E0822F089582E090E00C9433
:10280000962483E090E00C949624CF9384E090E0AB
:102810000E949624C82F82E290E00E949624982F6E
:102820008C2FCF910895CF93C92F682F84E090E02B
:102830000E94A4246C2F82E290E0CF910C94A424F7
:10284000AB01BC018FE090E00C94B624AB01BC015D
:1028500083E190E00C94B62460E070E0CB010C942E
:10286000261460E070E0CB010E9420140C942C141C
:1028700069EE7EEF90E080E00E94C22460E082E09A
:1028800090E00E94A42460E083E090E00E94A424F1
:10289000109281021092820210928302109284029E
:1028A00060E084E090E00E94A42460E082E290E096
:1028B0000E94A42460E085E090E00E94A42460E0EF
:1028C00086E090E00E94A4246FEF87E090E00E94F1
:1028D000A42440E050E0BA0188E090E00E94B624D1
:1028E00060E08DE090E00E94A42440E050E0BA0156
:1028F00088E190E00E94B62460E087E190E00E94C9
:10290000A42440E050E0BA018CE190E00E94B6249B
:1029100070E060E080E290E00E94C22440E050E07D
:10292000BA0188E190E00E94B6240C9431140C9412
:102930003814682F8EE090E00C94A4240E947B1D34
:102940006093F5027093F6028093F7029093F80279
:102950006093F1027093F2028093F3029093F40279
:1029600008950E947B1D6093F5027093F602809398
:10297000F7029093F8026093ED027093EE02809359
:10298000EF029093F002089585B7806885BF85B700
:10299000806885BF0895089508950C94CB14089518
:1029A0000C94CF140E94C41482E597E10E94C71BC7
:1029B0000E94CC140C94CD1481E008950C94DC1486
:1029C000089508950E94E0140C94E1140E94661D7D
:1029D0000E949D180E94891A0C94D014AF92BF9245
:1029E000CF92DF92EF92FF920F931F93CF93DF93DB
:1029F000CDB7DEB72A970FB6F894DEBF0FBECDBFB6
:102A00000E94B21881110E949E1483EEA82E82E0CB
:102A1000B82E10E000E0C02E802F0E949517E82EFF
:102A2000F501F1905F01F81609F451C08091F902A7
:102A300081FD0E949B178F2D8E25D12CFF24F394AE
:102A4000982F9F2109F43EC00E94DE14882399F03C
:102A5000DE82CF82EF2081E009F480E088870E9447
:102A60006F1D8160782F9A8789874E815F81688585
:102A70008A850E945B0AF801ED51FD4F8081F8269E
:102A8000F0820E94981A81110E94B1140E94D11BF9
:102A90009091E202891791F10E94D11B8093E2028A
:102AA0002A960FB6F894DEBF0FBECDBFDF91CF914F
:102AB0001F910F91FF90EF90DF90CF90BF90AF905C
:102AC0000C94530AD394FF0CF6E0DF12B9CF0F5FDA
:102AD0001F4F0A30110509F09ECF8FEF89838A833B
:102AE0001B820E946F1D8160782F9D838C8349819A
:102AF0005A816B818D810E945B0AC3CF2A960FB6E3
:102B0000F894DEBF0FBECDBFDF91CF911F910F9123
:102B1000FF90EF90DF90CF90BF90AF900895CF934C
:102B2000DF930E947816EC01811523E5920790F55A
:102B3000811532E5930708F096C081159042C8F4DC
:102B4000C11581E0D80788F4C53AD10548F4C430EE
:102B5000D10558F4C130D10541F0D0E0C0E005C046
:102B6000CE01805E91090897C0F7CE01DF91CF9129
:102B70000895C11591E5D90708F070C0C11520E589
:102B8000D20708F04EC0C11530E4D30730F3DF7030
:102B9000D06AEBCF811546E59407F0F4C11585E5C1
:102BA000D80708F075C0C11594E5D90708F06BC0C7
:102BB000CE018370992721E030E002C0220F331F3D
:102BC0008A95E2F7C695C69590E2C99FE001112467
:102BD000C22BD32BDA68C9CF81152AE5920778F486
:102BE000811539E5930708F05EC0811548E5940723
:102BF00008F4B3CFD82FCC27C06FD06AB6CF905689
:102C00008115904208F0A9CF8D2F8F710E940F1768
:102C100090E0982F882788279F719C012C2BE90131
:102C200040C0CE01E4E096958795EA95E1F7837080
:102C30002C2F26952695237040E2249F9001112485
:102C4000382B8C2F8370C1E0D0E002C0CC0FDD1F89
:102C50008A95E2F7C22BD32BDC6887CFDC2FCC27F9
:102C6000C16FD06A82CF8370992721E030E002C023
:102C7000220F331F8A95E2F7C695C69580E2C89F5A
:102C8000E0011124E7CFDC2FCC27C46FD06A6DCFD1
:102C90008C2F0E940F17C82FD0E0DC2FCC27CC2719
:102CA000DF71D06262CF8F700E940F1734E0D6952B
:102CB000C7953A95E1F7CF709C2FEC01D06955CFBD
:102CC000972F70E026E0929F600D711D1124FB018B
:102CD0009CE3899FE00DF11D1124EE0FFF1FE455C9
:102CE000FF4F8591949108950E9460160C948F1562
:102CF00082389105B1F1B0F48133910509F475C0C2
:102D000048F48932910509F469C08A32910509F4C1
:102D100073C008958533910509F459C0893391052D
:102D200001F10895833E9105A9F138F4803E9105A3
:102D3000F9F0823E910549F10895863E9105A9F189
:102D4000873E9105C9F1843E910519F52091510303
:102D500021FF1FC08091500384FD14C087EE90E0D6
:102D60000895209150032370A1F080EE90E0089523
:102D70002091500320FD47C03091510330FF09C01E
:102D800024FF44C090E080E004C02091500322FD65
:102D9000F7CF08952091500322FD3BC0309151039D
:102DA00030FDE3CF24FFF5CFEDCF2091500323FF7B
:102DB000F0CF24FDE7CFD2CF2091500323FD2CC0CC
:102DC0003091510331FFEECF84EE90E008952091D1
:102DD000500325FFDECF89E290E008952091500353
:102DE00025FFD7CF85E390E008952091500326FF7B
:102DF000D0CF8AE290E008952091500326FFC9CFFA
:102E000081E390E0089589E390E0089583EE90E0F7
:102E1000089582EE90E0089586EE90E008959091F6
:102E2000500392FF06C0282F28712830F9F4877FBD
:102E3000846093FF06C0282F28712831F1F4877E23
:102E400084612091510320FF06C0382F387138303B
:102E5000D9F4877F816021FF06C0282F287128318F
:102E6000D1F4877E816194FD877E0895282F247197
:102E70002430F9F68B7F8860DCCF282F2471243131
:102E800001F78B7E8861DDCF382F3171313019F732
:102E90008E7F8860E0CF282F2171213121F78E7E2F
:102EA0008861E1CF80E008950C94EC130E94B21881
:102EB0008FE39CE90197F1F700C000000E94B2186F
:102EC00080E00E94951780FF04C00E9454170C9464
:102ED000BA1D08950C9456170E94F213811102C076
:102EE0000E9497140E94FD138093F9020E9405141A
:102EF00090935103809350030E946A170E9401141B
:102F0000682F70E090E080E00E943D0E60917D02AD
:102F100070917E0280917F02909180020C94770ED6
:102F20000C94FD0708950C949217E82FF0E0E45AF2
:102F3000FC4F80810895089580EA8A95F1F70895FD
:102F400000C008950C949C17F894E82FE295EF7058
:102F5000F0E031A1282F2F7081E090E001C0880FB0
:102F60002A95EAF7982F9095932391A392A1892B04
:102F700082A378940895F894E82FE295EF70F0E03A
:102F800031A1282F2F7081E090E001C0880F2A9591
:102F9000EAF7382B31A392A18095892382A37894F4
:102FA0000895DF92EF92FF920F931F93CF93DF93D9
:102FB000EC01D62E062F10E0F801E75DFD4FE08012
:102FC0008FEFE81681F18E2D0E94BB170E94A0178B
:102FD000E3E2F2E049E252E081E0F12C91919F3F7F
:102FE00079F0A92FA295AF70B0E090962C9130E0C7
:102FF0009F7002C0359527959A95E2F7982F20FD8E
:1030000090E0F92A880F4E175F0741F78E2D0E9436
:10301000A41761E0F11001C060E08D2D0E94A2179D
:10302000C00FD11FF882DF91CF911F910F91FF90B8
:10303000EF90DF900895CF92DF92EF92FF920F937F
:103040001F93CF93DF93E82E092F162FF42EC62F50
:10305000D0E0CD5DDD4F88818F3F09F445C00E94EF
:10306000BB170E94A01789E2C82E82E0D82EEE2D51
:10307000F02FAF014B5F5F4F00E0EF2CE094D601E3
:103080009D916D0181919F01215031099F3F41F137
:10309000692F62956F7070E0DB0190966C9170E023
:1030A0009F7002C0759567959A95E2F760FD18C00C
:1030B0008F29D9018C9301E0E417F50701F7888186
:1030C0008F3F11F00E94A417602F812FDF91CF91C5
:1030D0001F910F91FF90EF90DF90CF900C94A2176B
:1030E0008E21D9018C93E8CFDF91CF911F910F9161
:1030F000FF90EF90DF90CF9008950F931F93CF93A1
:10310000DF93C9E2D2E089918F3F11F00E94A417AA
:1031100082E0CE32D807B9F7C3E2D2E009E212E08A
:1031200089918F3F11F00E94A4170C171D07C1F75A
:10313000DF91CF911F910F9108950E947D188AE031
:10314000ECE5F3E0DF01982F1D929A95E9F7EAEF9D
:10315000F2E0DF011D928A95E9F785E00E940D19E2
:103160000C940409EF92FF920F931F93CF93DF9378
:10317000CDB7DEB72A970FB6F894DEBF0FBECDBF2E
:103180008E010F5F1F4F8AE0F80111928A95E9F7CF
:10319000F12C6F2DC8010E94D117F394F5E0FF12B6
:1031A000F8CFF12CEE24E3944E2D6F2DCE01069630
:1031B0000E941B18F394EE0C86E0F812F5CF4AE05B
:1031C00050E0B8018AEF92E00E948924FF24F39432
:1031D000009709F4F12C892B41F08AE0F801AAEF5D
:1031E000B2E001900D928A95E1F72F2D4AE06CE54F
:1031F00073E08AEF92E00E940E190E940A098F2D57
:103200002A960FB6F894DEBF0FBECDBFDF91CF91E7
:103210001F910F91FF90EF9008950895FF920F93E3
:103220001F93CF93DF93F82E092F162FD72FC42F7C
:10323000222349F081E0809306030E946F1D909342
:10324000050380930403809106038823A1F08091F5
:103250000403909105030E94871D059760F0EF2DF0
:10326000F02FA12FBD2FCE0FDF2FD11DEC17FD07A3
:1032700041F410920603DF91CF911F910F91FF90BF
:10328000089581918D93F2CF0E942F1F0E94E61422
:103290000C943B1F0E943F1F0E94EE140C94591F78
:1032A0000E94F91C0E94161F0E94D2140E94441909
:1032B0000E944A190E94E214FBCFCF93DF93EC01E6
:1032C000FB018281882309F420C1C430FDE5DF07BA
:1032D000C8F5CB3F9CE5D90730F49E0122503C4510
:1032E0002431310598F50E94051490935103809381
:1032F0005003C031FCE5DF0709F4E0C008F061C00D
:10330000C8309CE5D90709F4CBC088F5C430FCE58A
:10331000DF0709F4B3C0E8F4C2309CE5D90709F42B
:10332000A7C0809150038260C330DC4509F4A3C07C
:1033300080915003909151030E9413140E94E40D58
:1033400080E004C0C236EDE5DE0769F2DF91CF917F
:103350000895809150038061C630FCE5DF0709F4D1
:103360008AC008F48FC080915003806284C080912D
:1033700050038D7FCC309CE5D90709F47CC070F4F4
:10338000809150038C60CA30FCE5DF0709F473C0FC
:1033900008F48AC0809150038E7F6DC080915003E5
:1033A000877FCE309CE5D90709F465C08091500332
:1033B0008B7FCF30DC4508F45EC0809150038F7E58
:1033C0005AC0CD3FFCE5DF0709F474C040F5C431B5
:1033D0009CE5D90709F48AC058F4C231FCE5DF073F
:1033E00009F474C008F46EC080915003837F43C019
:1033F000CB3F9CE5D90709F449C008F04DC0C53161
:10340000DC4509F095CF8091500382FB992790F914
:1034100021E0922790FB82F990FB83F92CC0C13008
:103420008DE5D80709F458C088F480915103836072
:10343000CF3FECE5DE0769F1809151038D7FC11527
:10344000DD4538F1809151038C7F23C0C3308DE579
:10345000D80709F458C008F452C0C236DD4509F057
:1034600067CF90915003892F8F7E94FF806103C0B6
:10347000809150038160809350035ACF8091500314
:103480008460F9CF809150038860F5CF809151031B
:103490008160809351034CCF809151038260F9CFBA
:1034A000809150038064E7CF0E94E40D8091500327
:1034B0008068E1CF809151038E7FEBCF80915003E4
:1034C0008F7DD9CF809150038F7BD5CF0E94E40DA3
:1034D000809150038F77CFCF80915103982F909593
:1034E00091708E7F892B90FB81F9D3CF0E94E40DE0
:1034F00090915003892F97FB87F98058BCCF81E0CA
:103500000E94991415CF80E0FBCF81E01FCF0C946F
:103510003C085098589A5198599A89B181704999A4
:1035200005C090E0892B80930903089592E0FACFBB
:10353000E0910903EE0FEE0FE093090349B1842FE8
:10354000817049B141FB222720F941FF02C022E0EE
:1035500030E0822BE82BE0930903EF70F0E0E25DAE
:10356000FD4F808190910803890F8093080320E02C
:10357000843054F0809107038F5F8093070360E0ED
:1035800080E00E94871A21E0809108038D3F54F467
:103590008091070381508093070361E080E00E94DF
:1035A000871A21E080910803082E000C990B64E033
:1035B00070E00E945B2480930803822F0895CF93CC
:1035C000DF93EB0186319C4511F50E9415139A811A
:1035D000992399F08A7A91E009F490E090930A0394
:1035E000811109C089E20E94F0120E945B1380E001
:1035F000DF91CF91089585E3F6CF80910A03811181
:1036000004C089E20E94F712F0CF85E3FBCF81E08E
:10361000EFCF0F931F93CF93DF93C42FD22FFC01D3
:1036200082818823C9F040930D030E946F1D9093FF
:103630000C0380930B0380E28C0F883008F050C09D
:10364000C77081E001C0880FCA95EAF7DF91CF917A
:103650001F910F910C947C0B10910D03141335C026
:1036600080910B0390910C030E94871D883C91056B
:1036700060F5C0E2CD0F1D17B9F080E2810F8830F0
:1036800040F4177081E001C0880F1A95EAF70E9494
:10369000830BC83048F481E09D2F977001C0880FDC
:1036A0009A95EAF70E947C0B802F0E94740BC83019
:1036B000B8F4D77081E001C0880FDA95EAF7DF919E
:1036C000CF911F910F910C94830B80E28C0F883067
:1036D00038F4C77081E001C0880FCA95EAF7EFCFD0
:1036E000DF91CF911F910F9108950F939C01CB0112
:1036F000243F4CE5340759F1A8F4293DFCE53F0788
:1037000001F12A3D4CE53407D1F1283D3C4591F4C7
:1037100006E221EE41EE68ED7CE50E94091B80E0A7
:103720000F910895263FFCE53F07E9F0B0F0273FF1
:103730003C45F9F0FC018281882339F110920D0398
:10374000EFCF07E225EE45EE69ED7CE5E6CF06E238
:1037500021EE40EE64EF7CE5E0CF07E225EE44EE9B
:1037600065EF7CE5DACF06E221EE42EE66EF7CE51E
:10377000D4CF07E225EE46EE67EF7CE5CECF08E238
:1037800021E045EE6AED7CE5C8CF81E0C9CF90939A
:103790003F0280933E020895909313038093120397
:1037A0000895E0911203F0911303309721F00190F6
:1037B000F081E02D099480E00895E0911203F091EA
:1037C0001303309799F020911001222359F0209192
:1037D000500327FF07C0DC012C9111962C93119701
:1037E00026E02C930280F381E02D09940895209126
:1037F0001003309111032817390771F090931103CA
:1038000080931003E0911203F0911303309721F09D
:103810000680F781E02D0994089520910E033091E0
:103820000F032817390771F090930F0380930E034D
:10383000E0911203F0911303309721F00084F18599
:10384000E02D09940895FC0132968091100188239F
:1038500021F0809150039EE187FF96E080E0915037
:1038600008F4089521912223D1F38F5FF8CF6623C6
:1038700001F1209110012223F1F02091500327FF44
:103880001AC0462F4695469546954E3190F467707E
:1038900021E030E002C0220F331F6A95E2F7840F67
:1038A000911DFC01828190E02823392381E0232BA4
:1038B00069F480E00895FC0132960896219126175C
:1038C00021F0E817F907D1F7F4CF81E008959C01C2
:1038D000FC0132969FEF80E04191461751F09F3FE7
:1038E00019F4411101C0982F8F5F8630A9F79F3FCF
:1038F00009F40895290F311D97FD3A95F901628366
:103900000895FC01329608962191261303C0DF0129
:1039100011971C92E817F907B9F70895E62FE69575
:10392000E695E695EE3168F4E80FF92FF11D677022
:1039300021E030E001C0220F6A95EAF78281822BF4
:1039400082830895E62FE695E695E695EE3170F4CC
:10395000E80FF92FF11D677021E030E001C0220F60
:103960006A95EAF720958281282322830895209181
:103970001001222329F02091500327FD0C948E1C66
:103980000C94671C20911001222329F020915003F0
:1039900027FD0C94A21C0C94811CFC013296809192
:1039A0001001882351F08091500387FF06C08EE1FB
:1039B000DF011D928A95E9F7089586E0F9CF089511
:1039C0000C94DF1C811105C081E0809314030C94DA
:1039D000E01C82E0FACF83E0809314030C94E01C97
:1039E0000C94E21C81E0809314030C94E01C0C9472
:1039F000F21C089580916E03843031F10E940C090D
:103A00001092150388E190E020E40FB6F894A89591
:103A1000809360000FBE2093600083B7817F846035
:103A200083BF83B7816083BF7894889583B78E7F87
:103A300083BF0FB6F894A895809160008861809349
:103A40006000109260000FBE089508950895CF930E
:103A50000E94251D0E94B2180E94261DC0E08C2FD6
:103A60000E949517811105C0CF5FCA30C1F7CF9171
:103A7000089581E0FCCF0E94E40D0C9474091F921C
:103A80001FB61F9211248F939F93AF93BF93809182
:103A90001503811113C08091660390916703A09173
:103AA0006803B09169034196A11DB11D809366031F
:103AB00090936703A0936803B0936903BF91AF919C
:103AC0009F918F911F901FBE1F90189582E084BD1B
:103AD00093E095BD9AEF97BD80936E0008952FB740
:103AE000F8948091660390916703A0916803B09168
:103AF00069032FBF08952FB7F89460916603709102
:103B0000670380916803909169032FBF08959C011A
:103B10004FB7F8948091660390916703A091680372
:103B2000B09169034FBF821B930B089578941F9245
:103B30001FB61F9211248F939F93AF93BF938091D1
:103B4000660390916703A0916803B09169030196A1
:103B5000A11DB11D8093660390936703A093680332
:103B6000B0936903BF91AF919F918F911F901FBE3A
:103B70001F90189581E08093E00080E28093D80048
:103B80001092C9008FE19EE40197F1F700C0000098
:103B900087E090EBDC018093770390937803A09308
:103BA0007903B0937A0388E19CE00FB6F894A89566
:103BB000809360000FBE90936000FFCF809136032A
:103BC000089508950895CF93DF93EC01809110013B
:103BD0008823B1F18091500387FF32C060E282E018
:103BE0008093E9008FEF9091E800815095FD06C029
:103BF00095ED9A95F1F700008111F5CF8091E800DD
:103C000085FF1BC08091100170E050E040E0811101
:103C100004C050E040E068E070E0CE010E94CA1F9E
:103C20008091E8008E778093E80080E2FE01A6E1B3
:103C3000B3E001900D928A95E1F7DF91CF9108955D
:103C400068E081E0CDCF0895089580916D038111E2
:103C500009C00E945A210E94B7218091E20084602D
:103C60008093E200089510926D0308950C94F21C65
:103C700060916A0381E0611101C080E00C94EB1C4B
:103C800090916E0381E0943009F080E060916A03C6
:103C90000C94F01C42E061EC81E00E94D62042E2EC
:103CA00061EC82E00E94D62090916E0381E0943016
:103CB00009F080E060916A030C94E21C809170032B
:103CC000833009F460C030F48130C9F1823009F4E6
:103CD0009CC008958A3009F488C08B3009F46EC006
:103CE000893009F04FC080916F03813209F04AC0DA
:103CF0008091730390917403029708F043C0809100
:103D0000E800877F8093E8008091E80082FF36C05A
:103D10009091F3008091F200029731F48091F100CC
:103D2000813011F0863021F48091F10080933603C8
:103D30008091E8008B778093E8000C940A218091B1
:103D40006F03813AF9F48091E800877F8093E8005F
:103D50008091730390917403892B61F460E286E192
:103D600093E070E00E9419208091E8008B778093A7
:103D7000E800089560E090E080E0F3CF80916E036A
:103D80008111C2CF089580916F03813AD9F7809154
:103D9000730390917403892BA9F78091E800877FC2
:103DA0008093E8008091E80080FFFCCF80911001B3
:103DB0008093F1008091E8008E77BDCF80916F03F2
:103DC000813201F78091730390917403892BD1F6AE
:103DD0008091E800877F8093E8000E940A2180910B
:103DE0007103809310010C94E40D80916F03813274
:103DF00049F68091E800877F8093E8000E940A21BD
:103E00008091720380933703089580916F03813A04
:103E100009F0B8CF8091E800877F8093E800809117
:103E2000E80080FFFCCF80913703C2CF84B7877F43
:103E300084BF0FB6F894A895809160008861809344
:103E40006000109260000FBE80E890E00FB6F8941A
:103E500080936100909361000FBE0C94F71C0E9448
:103E60005A210E94B721E2EEF0E0808184608083D5
:103E700078940C94402484E091E00C94CC1B8091C5
:103E80006E038530A9F480916E03853011F00C9497
:103E90003B1D0E94FA1C80916C038823A1F30E94B1
:103EA000271D882381F30E94B41F0E94E40DEBCFED
:103EB000089508950C945C1F292F33272330310572
:103EC00019F168F42130310509F444C0223031057C
:103ED00009F445C090E080E030E020E025C02132C8
:103EE000310549F122323105A9F780E490E020EA5A
:103EF00033E061157105C1F08BE390E025E633E016
:103F00006130710589F0E6CF99278130910581F004
:103F1000009729F00297F1F6E4ECF2E002C0E4E148
:103F2000F3E0849190E09F01FA01318320830895AA
:103F3000ECEFF2E0F6CF89E090E02AE233E06115A1
:103F4000710591F389E090E023E433E0613071057D
:103F500059F3C0CF82E190E023E533E0E5CF8BE376
:103F600090E028E133E0E0CF80E189BD82E189BDC6
:103F700009B400FEFDCF8091D8008F7D8093D800DA
:103F80008091E00082608093E0008091E00081FDFC
:103F9000FCCF0895AF92BF92CF92DF92FF920F9322
:103FA0001F93CF93DF936C01EB018A010E942921BB
:103FB000F82E811123C00115110539F0F801808117
:103FC0009181C81BD90BC80ED91EB12CA12C2097EA
:103FD000A9F08091E80085FD22C08091E8008E77ED
:103FE0008093E80001151105A1F0F801808191810D
:103FF000A80EB91EB182A08285E0F82E8F2DDF9128
:10400000CF911F910F91FF90DF90CF90BF90AF9015
:1040100008950E9429218823D1F2F82EEFCFF601CE
:1040200081916F018093F1002197FFEFAF1ABF0AD2
:10403000CECFFC0180917503909176038617970788
:10404000A0F06115710529F49091E8009E77909396
:10405000E80090E06115710551F4911108C080915C
:10406000E80082FF34C080E00895BC01F2CF809167
:104070006E038823C1F18530C1F18091E80083FD92
:1040800030C08091E80082FDEACF8091E80080FF97
:10409000E1CF8091F3002091F200382F6115710576
:1040A00019F02830310558F091E02830310509F039
:1040B00090E02091E8002E772093E800CBCF81910B
:1040C0008093F100615071092F5F3F4FE7CF8091DE
:1040D0006E03882341F0853041F08091E80083FF32
:1040E000BECF81E0089582E0089583E00895FC0149
:1040F000809175039091760386179707A0F061155C
:10410000710529F48091E8008E778093E80090E0B3
:104110006115710551F4911108C08091E80082FF8A
:1041200035C080E00895BC01F2CF80916E038823F2
:10413000C9F18530C9F18091E80083FD31C08091DB
:10414000E80082FDEACF8091E80080FFE1CF809116
:10415000F3002091F200382F6115710519F0283015
:10416000310558F091E02830310509F090E0809158
:10417000E8008E778093E800CBCF84918093F100A4
:104180003196615071092F5F3F4FE6CF80916E03EA
:10419000882341F0853041F08091E80083FFBDCF56
:1041A00081E0089582E0089583E00895982F973084
:1041B00028F08F708093E90081E008959093E900E2
:1041C000242F762F50E0981731F07091EC00209159
:1041D000ED005091F00021FD02C09F5FE8CF3091CB
:1041E000EB003E7F3093EB003091ED003D7F30934C
:1041F000ED003091EB0031603093EB007093EC00F8
:104200002093ED005093F0002091EE0027FDE5CFC4
:1042100080E0089580916F0387FF13C08091E800CC
:1042200082FF06C08091E8008B778093E80004C08D
:1042300080916E038111F2CF089580916E038823DF
:10424000D9F38091E80080FFF8CF8091E8008E7765
:10425000ECCF2091E4003091E50095E6A901209192
:10426000EC00822F817020FF06C08091E80080FF63
:1042700006C080E008952091E80022FD1AC08091D8
:104280006E03882389F0853089F08091EB0085FDED
:104290000FC02091E4003091E50042175307F9F276
:1042A0009150E1F684E0089582E0089583E0089556
:1042B00081E008950E94C8210E94D021E0EEF0E044
:1042C000808181608083E8EDF0E080818F7780835A
:1042D00019BCA7EDB0E08C918E7F8C9380818F7E8E
:1042E000808310926D0308950F931F93CF93DF93F4
:1042F0000E94C8210E94D021C8EDD0E088818F772C
:10430000888388818068888388818F7D888319BCB1
:1043100010926E0310926A0310926C0310926B035A
:1043200000EE10E0F80180818B7F808388818160BE
:10433000888342E060E080E00E94D620E1EEF0E079
:1043400080818E7F8083E2EEF0E0808181608083D7
:10435000808188608083F80180818E7F808388815E
:1043600080618883DF91CF911F910F910895E8EDCF
:10437000F0E080818F7E8083E7EDF0E080818160D6
:10438000808384E082BF81E080936D030C9474216C
:10439000E8EDF0E080818E7F80831092E200089546
:1043A0001092DA001092E10008951F920F920FB65A
:1043B0000F9211242F933F934F935F936F937F93AB
:1043C0008F939F93AF93BF93EF93FF938091E100FF
:1043D00082FF0BC08091E20082FF07C08091E10064
:1043E0008B7F8093E1000E943F248091DA0080FF60
:1043F00019C08091D80080FF15C08091DA008E7FAF
:104400008093DA008091D90080FF96C080E189BD59
:1044100082E189BD09B400FEFDCF81E080936E0387
:104420000E94251E8091E10080FF19C08091E2006A
:1044300080FF15C08091E2008E7F8093E200809122
:10444000E20080618093E2008091D80080628093D6
:10445000D80019BC85E080936E030E94381E8091BD
:10446000E10084FF2BC08091E20084FF27C080E13F
:1044700089BD82E189BD89B5982F917080FFFBCFFE
:104480008091D8008F7D8093D8008091E1008F7E4D
:104490008093E1008091E2008F7E8093E200809122
:1044A000E20081608093E20080916A03882309F42E
:1044B00049C084E080936E030E94401E8091E10019
:1044C00083FF29C08091E20083FF25C08091E10035
:1044D000877F8093E10082E080936E0310926A03ED
:1044E0008091E1008E7F8093E1008091E2008E7FD9
:1044F0008093E2008091E20080618093E20042E0DC
:1045000060E080E00E94D6208091F0008860809377
:10451000F0000E94361EFF91EF91BF91AF919F91E5
:104520008F917F916F915F914F913F912F910F905C
:104530000FBE0F901F90189519BC10926E030E9429
:10454000331E70CF8091E30087FD93E090936E035C
:10455000B3CF1F920F920FB60F9211242F933F9358
:104560004F935F936F937F938F939F93AF93BF937B
:10457000CF93DF93EF93FF93D091E900DF708091A9
:10458000EC00C82FC17080FDC0E81092E900809156
:10459000F000877F8093F00078940E94ED221092C3
:1045A000E9008091F00088608093F000CD2BCF70FF
:1045B000C093E900FF91EF91DF91CF91BF91AF914F
:1045C0009F918F917F916F915F914F913F912F912B
:1045D0000F900FBE0F901F9018951F93CF93DF93EE
:1045E000CDB7DEB7AA970FB6F894DEBF0FBECDBF2A
:1045F0008FE693E02091F100FC012193CF01F3E0DD
:1046000087379F07B9F70E945E1E8091E80083FFFD
:104610001EC180916F03909170039A3008F017C10A
:10462000E92FF0E0EA5BF94D0C946F24803899F0A3
:10463000823809F00CC1809173038F70873008F0C5
:1046400006C18093E9008091EB0085FB882780F903
:104650001092E90006C080916B0390916C03911158
:1046600082609091E800977F9093E8008093F1003A
:104670001092F1008091E8008E77E5C0882309F45C
:10468000D3C0823009F0E3C0809171038111D6C09C
:10469000809173038F702FEF280F263008F0D7C05A
:1046A0008093E9002091EB0020FFC8C0933031F4E3
:1046B0008091EB0080628093EB00C0C09091EB0092
:1046C00090619093EB0021E030E001C0220F8A95C9
:1046D000EAF72093EA001092EA008091EB008860EC
:1046E000EACF8111B4C0109171031F778091E3006C
:1046F0008078812B8093E3008091E800877F80930E
:10470000E8000E940A218091E80080FFFCCF8091A0
:10471000E30080688093E30082E0111183E08093DE
:104720006E0395C08058823008F091C0809171036B
:10473000909172038C3D23E09207A1F583E08A8378
:104740008AE289834FB7F894DE01139620E03EE0B9
:1047500051E2E32FF0E050935700E49120FF03C0B3
:10476000E295EF703F5FEF708E2F90E0EA30C0F07F
:10477000C7968D939D932F5F243159F74FBF80913A
:10478000E800877F8093E8006AE270E0CE0101963E
:104790000E9419208091E8008B778093E80057C031
:1047A000C096E7CF6091730370917403AE014F5FC1
:1047B0005F4F0E945A1FBC01892B09F448C0909199
:1047C000E800977F9093E80089819A810E94772082
:1047D000E1CF8038E1F58091E800877F8093E800A1
:1047E00080916A038093F10045CF811130C0909190
:1047F0007103923060F58091E800877F8093E80034
:1048000090936A030E940A2180916A03882311F021
:1048100084E005C08091E30087FDFACF81E08093BA
:104820006E030E944A1E13C080917103813079F497
:1048300081E0933009F080E080936C031092E900EE
:104840008091E800877F8093E8000E940A21809190
:10485000E80083FF0AC08091E800877F8093E8002A
:104860008091EB0080628093EB00AA960FB6F894DB
:10487000DEBF0FBECDBFDF91CF911F910895089588
:10488000CF9380916E038823A1F0C091E900CF708F
:104890009091EC00892F817090FD80E8C82B1092D8
:1048A000E9008091E80083FD0E94ED22CF70C09363
:1048B000E900CF91089597FB072E16F4009407D0D6
:1048C00077FD09D00E94752407FC05D03EF4909531
:1048D00081959F4F0895709561957F4F0895EE0FD4
:1048E000FF1F0590F491E02D0994AA1BBB1B51E119
:1048F00007C0AA1FBB1FA617B70710F0A61BB70B50
:10490000881F991F5A95A9F780959095BC01CD01F4
:104910000895FB01DC0104C08D910190801921F400
:1049200041505040C8F7881B990B0895F999FECF64
:1049300092BD81BDF89A992780B50895A8E1B0E0AD
:1049400042E050E00C94CA24262FF999FECF92BD84
:1049500081BDF89A019700B4021639F01FBA20BD44
:104960000FB6F894FA9AF99A0FBE08950396272F76
:104970000E94A5240E94A424252F0E94A524242F50
:104980000C94A5240196272F0E94A5240C94A424FE
:10499000DC01CB01FC01F999FECF06C0F2BDE1BDFF
:1049A000F89A319600B40D9241505040B8F70895EE
:1049B000F894FFCFD502EE02F002F202F402F60202
:1049C00008030A030C030E031003D802D802D8020E
:1049D000D802D802D802D802D802D802D802D80207
:1049E000D802D802D802D802D802D802D802D802F7
:1049F000D802F802FA02FC02FE02000302030403DA
:104A0000060312031403160318031A031C03D80227
:104A1000D8021E0320032203FB03FD03FF0301044E
:104A2000030405041504170419041B041D042B04B6
:104A30002D042F043104330491039A039D03A00332
:104A4000A303BF03C203C503C803CB03DD03E00315
:104A5000E303E603E903070409040B040D040F0450
:104A600011041304BB031F04210423042504270499
:104A700029043504370439043B043D04A603A90383
:104A8000AC03AF03B203B503B803BB03CE03D1033A
:104A9000D403D703DA03BB03EC03EF03F203F503FC
:104AA000F803660468046A046C046E0470048004ED
:104AB0008204840486048804960498049A049C045E
:104AC0009E045E045E045E045E045E045E045E0496
:104AD0005E045E045E045E045E045E045E045E04C6
:104AE00072047404760478047A047C047E045B0403
:104AF0008A048C048E04900492049404A004A204FA
:104B0000A404A604A8045E045E045E045E045E04BD
:104B10005E045E045B045E045E045E045E045E0488
:104B20005B042605400542054405460548055A052F
:104B30005C055E056005620529052905290529052D
:104B400029052905290529052905290529052905F5
:104B500029052905290529052905290529052905E5
:104B60004A054C054E055005520554055605580595
:104B70006405660568056A056C056E052905290545
:104B800070057205740576057B057E058105840533
:104B9000AD05B005B305B605B905CA05CD05D00507
:104BA000D305D6059F059F059F059F059F059F057A
:104BB0009F059F059F059F059F059F059F059F05D5
:104BC0009F059F059F059F059F0587058A058D0504
:104BD00090059305960599059C05BC05BF05C20582
:104BE000C5059F05C805D905DC05DF05E205E50516
:104BF000FA05FD050006030618061B061E0621061B
:104C000024069F05360639063C063F069F059F058C
:104C10009F059F059F059F059F059F059F059F0574
:104C20009F059F059F059F059F059F059F059F0564
:104C30009F05060609060C060F061206CD05150689
:104C40009C0527062A062D0630063306C8054206AF
:104C5000450648064B064E06C80BC80BF90BF90B68
:104C6000280C280C280C280C8C0C180D270D270D4F
:104C7000F30DF30DFC0DFC0DFE0DFC0DFC0DFC0DFC
:104C8000F30DF30D030EFC0DFC0D030E16233E2356
:104C900027243E232724712392232724E923F52365
:104CA000C800BF02DE1DE31D231EE11D241EE21D00
:104CB000012E006B61007461006B6F007361007204
:104CC00061007469006B7500010139010136010151
:104CD00039002C003B007369007465006B6500733C
:104CE0006500686100746F006B69006E6E00010101
:104CF0003901013701013900686900737500687571
:104D0000006865006D6500736F006E6500686F0078
:104D10002F00786100726900787961007265007017
:104D200061006469006775006475007069005F0068
:104D30002B00776F006E6100787975006D6F0062EF
:104D40006100646F00676900706F007875002D0066
:104D5000726F007869007075007A6F00706500628C
:104D60006F003F00676100646100676F007A610057
:104D70006E69007275006D61007865003D007675A2
:104D8000007A69006465006765007A65006D6900F6
:104D90006E6F0078796F00787475006269007A75BB
:104DA000006275006265006E75006D7500776100C8
:104DB000786F0001018B000101910001018A00015F
:104DC000019000679495969734929335366600FF6C
:0E4DD0000100010000FFFF0000010001FF00D4
:00000001FF
