:100000000C94F0010C9437020C9437020C943702D4
:100010000C9437020C9437020C9437020C9437027C
:100020000C9437020C9437020C9450220C94242325
:100030000C94BA1D0C9437020C9437020C943702BE
:100040000C9437020C9451080C9437020C9437022C
:100050000C9437020C94111E0C9437020C94370246
:100060000C9437020C9437020C9437020C9437022C
:100070000C9437020C9437020C9437020C9437021C
:100080000C9437020C9437020C9437020C9437020C
:100090000C9437020C9437020C9437020C943702FC
:1000A0000C9437020C9437020C943702A65DA85DBD
:1000B000AB5DC75DC95DCC5DE000AD5DB05DCF5DA2
:1000C000D15D2800E100AE5DB45DD45D000052005A
:1000D0000251B25DB55DCE5DD65DE500E300EB5D3E
:1000E0000000E60065425100A75DA95DC55DC85DE1
:1000F000CA5D2900AC5DAA5DC65DD05DCB5D0251D5
:10010000B15DAF5DCD5DD55DD25D00000000B35D3A
:10011000D35D0000D75D0000E2000000EC5DE70069
:1001200050004F000100B75DBA5DDA5DDC5DDF5D58
:100130000100BC5DBF5DE25DE45D01000100BD5DED
:10014000C35DE75D000001000100C15DC45DE15DCC
:10015000E95DE5000100EB5D000001000100010028
:10016000B65DB85DD85DDB5DDD5D0100BB5DB95D91
:10017000D95DE35DDE5D0100C05DBE5DE05DE85D13
:10018000E55D00000000C25DE65D0000EA5D000084
:1001900001000000EC5D01000100010029000100E8
:1001A00001004B0046004C0001000100010052001C
:1001B00049000100010001000100010000000100F0
:1001C0000100010001005100010001000100ED5D8E
:1001D0000000010001000100010001004A004D0083
:1001E00001000100010001004E004F004800010025
:1001F00001000100500001004C000000000001005F
:10020000010000000100000001000000EE5D01009F
:100210000100010000000000000000002A2B28005F
:1002200000000000000000000000000000000029A5
:10023000000000002C1E3420212224342627252EE5
:10024000362D3738271E1F2021222324252633331D
:10025000362E37381F0405060708090A0B0C0D0E49
:100260000F101112131415161718191A1B1C1D2F15
:100270003130232D350405060708090A0B0C0D0E35
:100280000F101112131415161718191A1B1C1D2FF5
:100290003130354C0000000000000000000000007C
:1002A000000000000000000000000000000000004E
:1002B00000000000000000007E0F00D4FFFFFFC719
:1002C00000000078360354005300350032004B0024
:1002D00020004E00490043004F004C004100200028
:1002E0004F0079006100790075006200690020000C
:1002F000530068006900660074000000160349009E
:100300006B006500620065005300610064006100DD
:100310006F0000000403090409023B00020100A071
:10032000FA09040000010301010009211101000183
:100330002240000705810308000A090401000103A7
:10034000000000092111010001223B000705820382
:1003500020000A1201000200000008EDFE691901E8
:10036000000102000105010906A101850605071922
:10037000E029E71500250195087501810205071997
:100380000029EF1500250195F07501810205081976
:10039000012905950575019102950175039101C02B
:1003A00005010906A101050719E029E71500250146
:1003B00095087501810295017508810105071900ED
:1003C00029FF150026FF009506750881000508190C
:1003D000012905950575019102950175039101C0EB
:1003E00011241FBECFEFDAE0DEBFCDBF04B603FE9F
:1003F00027C08091750290917602A0917702B0910A
:1004000078028730904BA740B04BD1F41092750220
:1004100010927602109277021092780214BE84B77E
:10042000877F84BF0FB6F894A8958091600088619B
:1004300080936000109260000FBEE0E0F8E3099541
:1004400011E0A0E0B1E0E2E7FEE402C005900D9209
:10045000AC33B107D9F722E0ACE3B1E001C01D92A3
:10046000A537B207E1F70E94CB190C9453250C94E1
:100470000000CF93C0E080914001C81720F0109297
:100480004001CF9108958C2F90E0FC01EE0FFF1FEB
:10049000E80FF91FEA5CFD4F8081918122812223C0
:1004A00021F00E940009CF5FE6CF0E941709FBCF21
:1004B00080934E018CEC96E00E942B0810924B0129
:1004C00010924A011092490110924801089520911A
:1004D0004F012223F9F0805E91090897D8F48091AA
:1004E0004D01FB019281992361F0811104C080913B
:1004F0004E010E945B0F80914D018F5F80934D01F3
:100500000895815080934D01811104C080914E0166
:100510000C943A0F08959C01265A3D452F31310520
:1005200030F481E06C3E7D4551F080E008C0855C90
:100530009D458697D0F781E06B3E7D45B1F7817090
:1005400008959C01265A3D4581E02031310538F05F
:100550002F51310981E02331310508F080E08170AD
:10056000089580914101811113C080914A019091B9
:100570004B01865A9D458534910550F48091480180
:10058000909149018B5E9D45029710F40E94800571
:10059000E0914A01F0914B01E65AFD45E233F10545
:1005A00038F4EB5AFA4D0C94EA2485E30E94890B47
:1005B00080914801909149018B3E2DE5920709F009
:1005C000A0C0E0914A01F0914B01E65BFD45E533A7
:1005D000F10508F058C0E957FA4D0C94EA248AE373
:1005E000E5CF8BE3E3CF8CE3E1CF8DE3DFCF8EE389
:1005F000DDCF8FE3DBCF80E4D9CF81E4D7CF82E4B6
:10060000D5CF83E4D3CF84E4D1CF85E4CFCF8CE4BE
:10061000CDCF8EE1CBCF8FE1C9CF80E2C7CF81E2D2
:10062000C5CF82E2C3CF83E2C1CF84E2BFCF85E2F0
:10063000BDCF86E2BBCF87E2B9CF8AE2B7CF8FE2E8
:10064000B5CF80E3B3CF81E3B1CF8BE10E94890BBB
:1006500084E017C085E10E94890B8CE012C08BE119
:100660000E94890B8CE1F2CF85E10E94890B88E022
:1006700008C083E1EBCF87E0EECF8AE00E94890BD0
:1006800088E10E94890B1092410110924B01109257
:100690004A0110924901109248010C94390287E0F6
:1006A000EDCF83E1D8CF8DE2ECCF8EE2EACF8CE4C0
:1006B000E8CF8AE10E94890B82E1E3CF81E1C6CFD6
:1006C0008BE10E94890B8CE1D9CF80E1F3CF85E0EB
:1006D000BDCF87E0EFCF8AE0BECF83E1EBCF8AE2E8
:1006E000D0CF8BE1CBCF85E1E5CF8BE1B4CF83E1F8
:1006F000C5CF8DE1DFCF83E1B8CF85E0DBCF88E3E5
:10070000C0CF8C3E9D4509F0BECFE0914A01F091EB
:100710004B01E75BFD45E433F10508F0B4CFE45449
:10072000FA4D0C94EA248AE091CF87E08FCF8AE0DB
:10073000C1CF8DE18BCF81E18ECF85E19FCF80E16D
:1007400085CF8BE192CF89E199CF8DE184CF87E08E
:100750008CCF8AE08ACF8DE188CF80E17CCF81E1A8
:10076000A9CF8BE10E94890B8CE1A4CF8BE10E9481
:10077000890B87E183CF85E06ECF8DE17FCF85E068
:100780007DCF85E072CF81E179CF80E177CF8AE1BB
:100790005DCF8BE18FCF8091430181110E94A7042F
:1007A0008091420181110E94EA03809141018111EF
:1007B0000E94B10280914801909149018B5E9D4554
:1007C000029718F48CE20E94190B81E08093420199
:1007D0000C9439028091420181110AC08091480134
:1007E000909149018B5E9D45029710F40E94CB03C6
:1007F0008091480190914901892B19F08CE20E9467
:10080000890B1092420110924901109248010C94F8
:1008100039028091430181110E94A7048091420115
:1008200081110E94EA038091410181110E94B1026D
:10083000E0914A01F0914B01E65AFD45E534F1059E
:1008400038F4E051FA4D0C94EA2487E30E94190B26
:1008500081E0809343010C9439028EE00E94190BD1
:1008600084E0F4CF87E1FACF8EE00E94190B82E199
:10087000EDCF86E1F3CF85E1F1CF87E10E94190B3F
:100880008CE0E4CF8EE00E94190B88E1DFCF87E196
:10089000FACF86E3DBCF83E3D9CF8AE2D7CF86E1F5
:1008A000EDCF87E10E94190B88E0D0CF8EE0FACF20
:1008B00086E1F8CF8BE0D2CF87E1D7CF8EE0DECFD5
:1008C00081E10E94190B81E1C1CF8BE0D7CF86E196
:1008D000DACF8BE0D8CF8BE0E5CF80E1E3CF86E1C4
:1008E000C4CF81E1DFCF8BE0C0CF88E3AFCF8BE215
:1008F000ADCF84E1ABCF8AE1A9CF85E1A7CF87E176
:10090000A5CF8CE1A3CF83E1A1CF8DE29FCF8EE273
:100910009DCF86E19BCF87E099CF89E097CF8AE092
:1009200095CF8BE093CF8DE091CF8EE08FCF8FE08E
:100930008DCF84E38BCF8DE189CF8BE187CF86E0AC
:1009400085CF89E183CF85E081CF80E17FCF809122
:10095000430181110BC080914A0190914B01865A4D
:100960009D458534910510F40E940904E0914A01E7
:10097000F0914B01E65AFD45E534F10538F4EB5CA6
:10098000F94D0C94EA2487E30E94890B10924301ED
:1009900010924B0110924A010C9439028EE00E9491
:1009A000890B84E0F1CF87E1FACF8EE00E94890BBA
:1009B00082E1EACF86E1F3CF85E1F1CF87E10E94C2
:1009C000890B8CE0E1CF8EE00E94890B88E1DCCFBF
:1009D00087E1FACF86E3D8CF83E3D6CF8AE2D4CFBC
:1009E00086E1EDCF87E10E94890B88E0CDCF8EE0D4
:1009F000FACF86E1F8CF8BE0D2CF87E1D7CF8EE078
:100A0000DECF81E10E94890B81E1BECF8BE0D7CFA1
:100A100086E1DACF8BE0D8CF8BE0E5CF80E1E3CF82
:100A200086E1C4CF81E1DFCF8BE0C0CF88E3ACCFDC
:100A30008BE2AACF84E1A8CF8AE1A6CF85E1A4CF3B
:100A400087E1A2CF8CE1A0CF83E19ECF8DE29CCF46
:100A50008EE29ACF86E198CF87E096CF89E094CF57
:100A60008AE092CF8BE090CF8DE08ECF8EE08CCF5E
:100A70008FE08ACF84E388CF8DE186CF8BE184CF6E
:100A800086E082CF89E180CF85E07ECF80E17CCF98
:100A900080914C01823001F1B8F48130D1F0109294
:100AA0004B0110924A011092490110924801109294
:100AB0004C0110923F0110923E011092430110929E
:100AC0004201109241010895853048F70E94B10219
:100AD000E6CF0E94A704E3CF0E94EA03E0CF81E0C3
:100AE00080934F010E94480580914E010C943A0F6B
:100AF00010924F010E94480580914E010C945B0FAB
:100B00000F931F93CF93DF938091430181110E9434
:100B1000A7048091420181110E94EA038091410162
:100B200081110E94B10200914A0110914B01C8014C
:100B30000E94A102D82F6091480170914901882339
:100B400059F0C8010E948B0290914F01D92FD827EC
:100B5000981311C0C0E018C06B3E7D45D9F70D3D1C
:100B60008DE51807BCF30F3D2DE512071CF00A3E7A
:100B70001D4581F7D1E00E949013C82F827289F041
:100B80008C2F8D7D0E94A013E0914A01F0914B01C2
:100B9000E65AFD45E233F10550F4E658F94D0C9460
:100BA000EA248C2F8260EECF85E30E94190B80919E
:100BB0004801909149018B3E2DE5920709F0A2C0B2
:100BC000E0914A01F0914B01E65BFD45E533F1050B
:100BD00008F058C0E455F94D0C94EA248AE3E5CFB7
:100BE0008BE3E3CF8CE3E1CF8DE3DFCF8EE3DDCF8B
:100BF0008FE3DBCF80E4D9CF81E4D7CF82E4D5CFB8
:100C000083E4D3CF84E4D1CF85E4CFCF8CE4CDCFC0
:100C10008EE1CBCF8FE1C9CF80E2C7CF81E2C5CFD4
:100C200082E2C3CF83E2C1CF84E2BFCF85E2BDCFF2
:100C300086E2BBCF87E2B9CF8AE2B7CF8FE2B5CFEA
:100C400080E3B3CF81E3B1CF8BE10E94190B84E045
:100C500017C085E10E94190B8CE012C08BE10E9445
:100C6000190B8CE1F2CF85E10E94190B88E008C0D6
:100C700083E1EBCF87E0EECF8AE00E94190B88E199
:100C80000E94190BDD2319F08C2F0E94A01381E024
:100C900080934101DF91CF911F910F910C94390204
:100CA00087E0EBCF83E1D6CF8DE2EACF8EE2E8CFCB
:100CB0008CE4E6CF8AE10E94190B82E1E1CF81E169
:100CC000C4CF8BE10E94190B8CE1D7CF80E1F3CF29
:100CD00085E0BBCF87E0EFCF8AE0BCCF83E1EBCFED
:100CE0008AE2CECF8BE1C9CF85E1E5CF8BE1B2CFF0
:100CF00083E1C3CF8DE1DFCF83E1B6CF85E0DBCFEA
:100D000088E3BECF8C3E9D4509F0BCCFE0914A01FF
:100D1000F0914B01E75BFD45E433F10508F0B2CFFC
:100D2000EF51F94D0C94EA248AE08FCF87E08DCF04
:100D30008AE0C1CF8DE189CF81E18CCF85E19DCF64
:100D400080E183CF8BE190CF89E197CF8DE182CF96
:100D500087E08ACF8AE088CF8DE186CF80E17ACFA5
:100D600081E1A9CF8BE10E94190B8CE1A4CF8BE12B
:100D70000E94190B87E181CF85E06CCF8DE17DCF9B
:100D800085E07BCF85E070CF81E177CF80E175CFC3
:100D90008AE15BCF8BE18FCF80913E0190913F0143
:100DA000892B89F480914C01823049F018F481300C
:100DB00021F00895853028F008950C9409040C94CE
:100DC000CB030C9480050895CF92DF92FF920F938E
:100DD0001F93CF93DF93EC016B0181E090E0909340
:100DE0003F0180933E010E94EA1D8C01D6011296BC
:100DF000FC9012979E01265A3D4580914C01FF20A0
:100E000009F499C02534310508F043C08230E9F176
:100E1000F0F4882311F1813011F1D0934B01C0938C
:100E20004A01109347010093460180E095E00E943B
:100E30004308F12C10923F0110923E018F2DDF915B
:100E4000CF911F910F91FF90DF90CF900895833045
:100E500049F0843011F70E94B10281E017C00E946E
:100E6000A704DBCF80914401909145012091460178
:100E700030914701FC01E21BF30BA801481B590B01
:100E8000E417F50740F30E94A70484E080934C0127
:100E9000C4CF9E012B5E3D452230310590F5823056
:100EA00049F168F4882311F1813049F1D093490167
:100EB000C09348011093450100934401B6CF83309D
:100EC00099F0843099F780914601909147012091E3
:100ED000440130914501DC01A21BB30BF801E81B72
:100EE000F90BAE17BF0748F40E94B10282E080936D
:100EF0004C01DCCF0E94EA03D9CF0E94EA0383E0D1
:100F0000F6CF882309F496CF80914001883008F00D
:100F100090CF282F30E0F901EE0FFF1FE20FF31FF3
:100F2000EA5CFD4FD183C08312969C9192838F5FC0
:100F3000809340017ECF2734310508F070C08230A5
:100F4000A1F180F4813009F075CF80914A01909130
:100F50004B018C179D0709F06DCF0E94A7041092DA
:100F60004C0168CF833061F1843009F063CF809108
:100F70004801909149018C179D0709F04BC0809161
:100F8000460190914701081B190B209144013091B3
:100F90004501821B930B80179107C8F1043111059D
:100FA000B0F50E94EA0381E027C08091480190914A
:100FB00049018C179D0709F03DCF0E94EA03CFCF6E
:100FC00080914A0190914B018C179D07C1F480914B
:100FD000440190914501081B190B20914601309165
:100FE0004701821B930B8017910788F0043111058C
:100FF00070F40E94A70482E080934C011BCF809183
:101000004801909149018C179D0709F013CF0E9468
:10101000B102A5CF80914A0190914B01F4CF882372
:10102000B9F080914001883008F004CF282F30E0DB
:10103000F901EE0FFF1FE20FF31FEA5CFD4FD183B2
:10104000C08312969C9192838F5F80934001F2CE71
:10105000FF24F394EFCEF8949093510180935001C4
:101060001092800085E0809381001092820010929F
:101070008500109284008FEF9FEF909389008093FA
:10108000880078940895F894109285001092840056
:10109000909389008093880082E080936F00789419
:1010A00008951F920F920FB60F9211242F933F9322
:1010B0004F935F936F937F938F939F93AF93BF9360
:1010C000EF93FF93E0915001F09151010995FF9149
:1010D000EF91BF91AF919F918F917F916F915F91B0
:1010E0004F913F912F910F900FBE0F901F90189529
:1010F00081E00C9458020F931F93CF93DF93EC0180
:101100008B01CD3E8DE5D80779F0CE3EEDE5DE07CB
:10111000F9F0CE010E946702B801CE01DF91CF91B4
:101120001F910F910C94E406FB018281882351F0FA
:1011300081E191E00E94C30A85E191E00E94C30A27
:101140000E94780580E0DF91CF911F910F91089563
:10115000FB0182818823B1F389E191E00E94C30AF7
:101160008DE191E00E94C30A0E946F05EBCF8111CF
:101170000AC082E0662359F00E941A0F882329F0E2
:101180008EE40E94EF0B81E0089581E5FACF0E9482
:101190001A0F882311F08BE4F4CF82E5F2CF9C0183
:1011A0003A9521153F4150F5FC01EE27F170BC0145
:1011B00066277270AC01442754709C012227387056
:1011C00094FF0EC080E1EF2B09F480E0672B09F05B
:1011D0008062452B09F08064232B89F08068089594
:1011E00081E0EF2B09F480E0672B09F08260452B4A
:1011F00009F08460232B19F08860089580E0089539
:10120000CF93DF93EC010E94CF089E01205E31094D
:101210002830310510F0209739F40E94F70B8C2FFD
:10122000DF91CF910C94190B0E94470EF8CFCF930A
:10123000DF93EC010E94890BCE010E94CF089E0132
:10124000205E31092830310510F0CD2B21F4DF91DB
:10125000CF910C94FE0BDF91CF910C944E0E81E058
:1012600008950C947B0808950C9433091F93CF9331
:10127000DF9300D000D00F92CDB7DEB749835A83F9
:101280006B833091520189819A8131111DC066238F
:10129000B9F02223A9F00E942D10182F682F898100
:1012A0009A810E94D60F69817A81812F0F900F90C9
:1012B0000F900F900F90DF91CF911F910C94DB1640
:1012C0000E940410182FEFCF0E942D1069817A819F
:1012D000EDCFFC01262F4081518162817381848191
:1012E0000C94360981E00895CF93DF93EC0160E020
:1012F0000E946909BE01DF91CF910C9434090E94CC
:10130000E7170E94CD0A0C940B180C940E1880E07D
:101310000C94CE0A089508950E945F0E0E948B09D6
:101320002FEF84E39CE0215080409040E1F700C023
:1013300000000C94351E0F931F93CF93DF938C0105
:1013400061E00E946909EC01B8010E94310988231B
:10135000A9F1B801CE010E94F01B882379F1B801F0
:10136000CE010E94D819882349F1B801CE010E940C
:101370005A1B882319F1F8018281882361F0CB354B
:10138000FDE5DF0721F170F4C115ECE5DE07A1F002
:10139000CF3DDC45C9F0C801DF91CF911F910F917E
:1013A0000C942F09CC358DE5D807A1F0CD35DD455E
:1013B00091F70E945814EFCF0E948C0980E0DF91D2
:1013C000CF911F910F9108950E941215F7CF0E949F
:1013D0006114E1CF0E946414DECF0C948A090E944C
:1013E0004C1C0E94CE0A0C94ED09DF92EF92FF9202
:1013F0000F931F93CF93DF93E82FF0E0EC5EFD4F48
:10140000D490282F26952695269530E0F901EC54A6
:10141000FD4F0491877010E0082E02C015950795C6
:101420000A94E2F701701127F901EC55FD4FE490A1
:10143000F12C082E02C0F594E7940A94E2F791E0AB
:10144000E922FF24F901EC56FD4FC491D0E002C01F
:10145000D595C7958A95E2F7C170DD27011511056D
:1014600019F081EE0E94190BE114F10419F086EED7
:101470000E94190B8D2D0E94EF0BEF2819F086EEBC
:101480000E94890B012B19F081EE0E94890BCD2B54
:1014900051F08CE2DF91CF911F910F91FF90EF906F
:1014A000DF900C94EF0BDF91CF911F910F91FF9084
:1014B000EF90DF900895EF92FF920F931F93CF93D9
:1014C000DF93EC01162F0AE08881882309F454C0C9
:1014D000813009F04EC08981813099F47E0122E08B
:1014E000E20EF11C8A810E94EF0BE7012196812F09
:1014F000815050F3EFE9FFE03197F1F700C00000B1
:10150000F7CF823041F47E0182E0E80EF11C8A813F
:101510000E94190BEACF833041F47E01E2E0EE0E27
:10152000F11C8A810E94890BE0CF843011F0219652
:10153000DDCF2A81229690E080E0AE014F5F5F4FC1
:101540002053330B2A30310548F0019778F2EFE948
:10155000FFE03197F1F700C00000F7CF089FB0011E
:10156000099F700D1124C901860F971F2981EA0177
:10157000E4CF0E94F509BACFDF91CF911F910F916F
:10158000FF90EF90089560E00C945B0A08950C942E
:10159000C60A81E008950C94C90A0895CF93C82F14
:1015A0000E94C70A8C2FCF910C94CB0ACF93DF9364
:1015B000CDB7DEB72B970FB6F894DEBF0FBECDBF09
:1015C0004F83588769877A878B8761110E94B3138D
:1015D0001E821D8285E0FE013796DE011196019084
:1015E0000D928A95E1F78C819D81892B89F449813F
:1015F0005A816B817C818D819E810E94D1122B96B4
:101600000FB6F894DEBF0FBECDBFDF91CF91089526
:1016100089819A8189238F3F51F3CE0101960E94DF
:1016200072098111E4CFEBCFFC01808191810C9490
:101630006F10CF93C82F882309F469C08238C1F492
:101640000E944C1C81FD63C089E30E946B130E94C1
:10165000D6132FEF81EE94E0215080409040E1F7C7
:1016600000C0000089E30E947213CF910C94D6133E
:101670008338A1F40E944C1C80FD49C083E50E9480
:101680006B130E94D6132FEF81EE94E0215080401F
:101690009040E1F700C0000083E5E5CF8438A1F475
:1016A0000E944C1C82FD33C087E40E946B130E9491
:1016B000D6132FEF81EE94E0215080409040E1F767
:1016C00000C0000087E4CFCF8CEF8C0F813A90F4FC
:1016D0006C2F80910201909103010E94B21C88231B
:1016E00029F08C2F0E9472130E94D6138C2F0E9417
:1016F0006B13BBCF80E28C0F883048F4C77081E059
:1017000001C0880FCA95EAF70E949313AECFCF911C
:101710000895882309F44BC0823871F40E944C1C50
:1017200081FF45C089E30E946B130E94D61389E3B1
:101730000E9472130C94D613833859F40E944C1CE7
:1017400080FF35C083E50E946B130E94D61383E5AA
:10175000EFCF843859F40E944C1C82FF28C087E4E4
:101760000E946B130E94D61387E4E2CF9CEF980F80
:10177000913AF0F290E2980F983050F4877091E02F
:1017800001C0990F8A95EAF7892F0E949913D2CF49
:101790009BE5980F933020F490E080E00C94721C4D
:1017A000885A873120F490E080E00C94881C0895DA
:1017B0001F93CF93DF93182FEB010E94190B2097F3
:1017C00031F4812FDF91CF911F910C94890B8FE918
:1017D0009FE00197F1F700C000002197F0CF70E083
:1017E00060E0893311F460E570E00C94D80B882335
:1017F00021F00E9493130C94D6130895882321F0AE
:101800000E9499130C94D6130895BF92CF92DF9241
:10181000EF92FF920F931F93CF93DF936C01D62F1C
:10182000C72FFC011281F580F2949FE0F9220E94FB
:101830008913E82E8823B9F0E12E1123A1F08C2F13
:10184000807F803421F080E28D0F8830D0F080914D
:101850004F0282FD16C082E00E9427140E94891365
:1018600091E0E82EE926BC2EB2948FE0B822FBE08E
:10187000FB1508F468C0EB2DF0E0EB5EF84D0C941E
:10188000EA24E12CF0CF0C2F0F70C07F11F00295ED
:10189000007F112399F0002359F080E28D0F8830EA
:1018A00010F0D11107C0802F0E9493130E94D6130D
:1018B0008D2F41C0802F0E94A613F8CF8D2F0E943C
:1018C000890B002309F43FC080E28D0F883010F0AF
:1018D000D11104C0802F0E94991303C0802F0E9451
:1018E000AC130E94D6132FC00C2F0F70C07FC032D4
:1018F00011F00295007FDD2381F0D13009F469C039
:10190000112309F473C0FF2009F469C0F601858131
:1019100080FFCECF8F70858362C080914F0282FF9F
:1019200038C0112359F0002329F0802F0E9493130F
:101930000E94D61380E00E94190B05C080E00E942F
:10194000890B0111C7CFEB2DE850FF0B349720F422
:101950000E944C1C0E94CE0AEE2009F44BC10E944A
:10196000851380FD47C1F60112820E947F130E94F9
:101970003A0FC6010E941B0E0E947F13DF91CF9188
:101980001F910F91FF90EF90DF90CF90BF900C943C
:101990005B0F112389F0F11006C00E94B913802B50
:1019A0000E94F70BD0CF21E0F212F7CF0E94B913BB
:1019B000802B0E94BF13C7CFF11006C00E94CC132A
:1019C000802F0E94FE0BBFCF31E0F31609F4BBCF8E
:1019D000F5CF112331F085E08F1508F4B4CF802FB7
:1019E000DFCF94E09F1508F4AECFEACFFF2041F39C
:1019F000D93349F4FFEF27EE33E0F1502040304077
:101A0000E1F700C000008D2F0E94890B9CCF8C2F26
:101A1000837009F041C0111196CF4D2F4295469524
:101A20004770440F440F0D2F0F7010E030E020E09E
:101A3000042E04C0000F111F221F331F0A94D2F777
:101A400060E070E0CB01D4FF0FC06FE070E080E099
:101A500090E004C0660F771F881F991F4A95D2F740
:101A60006095709580959095C695C695C370602BCE
:101A7000712B822B932BC23049F058F4C13019F0EE
:101A80000E94CC0E60CF0E94BA0E5DCF0E94DE0E87
:101A90005ACF0E94B80E57CF8695112311F08C2F84
:101AA0008170882309F44FCF4D2F4295469547709A
:101AB000440F440F0D2F0F7010E030E020E0042E93
:101AC00004C0000F111F221F331F0A94D2F760E0D9
:101AD00070E0CB01D4FF0FC06FE070E080E090E0D9
:101AE00004C0660F771F881F991F4A95D2F760952B
:101AF000709580959095C695C695C370602B712B97
:101B0000822B932BC23049F058F4C13019F00E9457
:101B1000B10F19CF0E949F0F16CF0E94C30F13CF92
:101B20000E94F40E10CFCF70112329F08C2F0E9449
:101B30003A0F8D2F35CF8D2F0E94FE0B8C2F0E94D8
:101B40005B0F01CFD23F51F160F4D03FB9F0D13FEC
:101B500081F0112309F449C0F110AACE8C2F8F71A6
:101B600021C0D33F11F1D43FA1F780914F0282FFF2
:101B700026C08C2F8F71112311F314C0112349F04B
:101B800084E08F1508F4DFCE8C2F8F710E947E0FBA
:101B9000DACE95E09F1508F4D6CEF6CF8C2F8F7154
:101BA0001111CDCF0E943A0FCECE112329F08C2FE8
:101BB0008F710E94250FC7CE0E94000FC4CE112343
:101BC00049F0CF718C2F0E943A0F63E08C2F0E9456
:101BD0000C14B9CE81E00E942714E1E0EF1508F063
:101BE000B2CE82E00E942714AECEF11001CF8C2F2E
:101BF0008F71A5CFDF91CF911F910F91FF90EF9043
:101C0000DF90CF90BF9008950F931F93CF93DF93F2
:101C1000EC01688179818A810E9479108C010E948F
:101C2000D50F0E94B70EB801CE01DF91CF911F9161
:101C30000F910C94050CCF93DF93EC018B819C8169
:101C4000892B29F08881998189238F3F59F4DF916D
:101C5000CF910895CE010E94040ECE01DF91CF9165
:101C60000C947409CE010E949B098111F3CF0E944C
:101C70008913882361F38A81882349F380914F0275
:101C800082FDE5CF82E0DF91CF910C942714882369
:101C900021F00E94A6130C94D6130895882321F0F6
:101CA0000E94AC130C94D61308950E94B3130E94A3
:101CB000B6130C94D6130E9479130C94550E0E94FF
:101CC000A3130C945B0EE92FE295EF70E250EE3017
:101CD00070F4F0E0EF5DF84D0C94EA24803F19F0C9
:101CE00020F4883E20F481E00895843FE1F380E011
:101CF0000895883EC0F3813FD1F7F5CF93FB882745
:101D000080F90895FC01808191810E946F100C94EC
:101D1000630ECF93DF9300D000D00F92CDB7DEB724
:101D20000F900F900F900F900F90DF91CF9108952B
:101D3000CF93DF9300D000D000D0CDB7DEB726968A
:101D40000FB6F894DEBF0FBECDBFDF91CF910895DF
:101D500008950C94A80E0E94A90E60937F017093C1
:101D6000800180938101909382010C94550E089517
:101D70000C94AB0E0F931F9300917F011091800183
:101D80002091810130918201602B712B822B932B4A
:101D90001F910F910C94AB0E0F931F9300917F0135
:101DA0001091800120918101309182016023712383
:101DB000822393231F910F910C94AB0E0F931F93CB
:101DC00000917F0110918001209181013091820169
:101DD00060277127822793271F910F910C94AB0ED8
:101DE0000C94A80E0C94F00E0E94F20E60937B01EE
:101DF00070937C0180937D0190937E010C94550E2D
:101E000060E070E0CB010C94F40E61157105810562
:101E1000910529F481E0442361F080E00895DC011C
:101E2000CB0104C0B695A795979587954A95D2F7AB
:101E300081700895482F60917B0170917C018091A1
:101E40007D0190917E010C94050F0F931F9341E04B
:101E500050E060E070E08A019B0104C0000F111F98
:101E6000221F331F8A95D2F7C901B8011F910F9124
:101E70000C94F40E0F931F9341E050E060E070E08B
:101E800004C0440F551F661F771F8A95D2F78091B3
:101E90007B0190917C01A0917D01B0917E018A012E
:101EA0009B01082B192B2A2B3B2BC901B8011F9131
:101EB0000F910C94F40E0F931F9341E050E060E0FB
:101EC00070E004C0440F551F661F771F8A95D2F734
:101ED000CB01BA01609570958095909500917B013A
:101EE00010917C0120917D0130917E01602371234E
:101EF000822393231F910F910C94F40E0F931F9341
:101F000041E050E060E070E004C0440F551F661FE0
:101F1000771F8A95D2F780917B0190917C01A091E7
:101F20007D01B0917E018A019B01082719272A278C
:101F30003B27C901B8011F910F910C94F40E0F9328
:101F40001F9300917B0110917C0120917D013091C4
:101F50007E01602B712B822B932B1F910F910C9480
:101F6000F40E0F931F9300917B0110917C0120913F
:101F70007D0130917E0160237123822393231F9181
:101F80000F910C94F40E0F931F9300917B0110910D
:101F90007C0120917D0130917E016027712782278D
:101FA00093271F910F910C94F40E0895E92FEE0FD3
:101FB000E90FEE0F8E0F982F977041E001C0440F8C
:101FC0009A95EAF786958695869595E0899FF00122
:101FD0001124ED5AFE4F30E020E070E05191DF0116
:101FE0001197CB01022E02C0969587950A94E2F7CD
:101FF000817081958527842385278C932F5F3F4FA0
:102000002530310559F70895E92FEE0FE90FEE0F4E
:102010008E0F982F977086958695869525E0829FDE
:10202000F0011124ED5AFE4F50E040E080E0219194
:1020300030E0092E02C0369527950A94E2F7217008
:102040003327042E01C0220F0A94EAF7822B4F5F38
:102050005F4F4530510559F70895BF92CF92DF92F7
:10206000EF92FF920F931F93CF93DF938C01C09059
:102070007B01D0907C01E0907D01F0907E01809109
:102080007F0190918001A0918101B0918201C82AC5
:10209000D92AEA2AFB2ACFE1D0E0BC2ED701C6011B
:1020A0000C2E04C0B695A795979587950A94D2F7FC
:1020B00080FD0EC0219788F7B12C8B2DDF91CF9139
:1020C0001F910F91FF90EF90DF90CF90BF900895F8
:1020D000B8018C2F0E94EF16019761F3EECFCF93DA
:1020E000DF93EC010E942D10BE01DF91CF910C9483
:1020F000EF161F93CF93DF93EB0190915201992339
:1021000031F0CB01DF91CF911F910C946F10882398
:1021100079F0CB010E942D10182F682FCE010E945C
:10212000D60FBE01812FDF91CF911F910C94EF1636
:10213000CB010E940410182FF4CF1F93CF93DF938D
:10214000C091830116E0809184018C1304C0DF915B
:10215000CF911F910895D0E01C9FF0011D9FF00DBD
:102160001124EB57FE4F408151816281738184813C
:1021700095810E94980E2196C770E5CF4091B501D8
:102180005091B6016091B7017091B8018091B90189
:102190009091BA010C94980EFF920F931F93CF93D6
:1021A000DF938091BA01807FD1F48091B7018823B9
:1021B000B1F080918301109184016091B50170911B
:1021C000B601A091B801B091B901062F0723C091C3
:1021D0000001D091010196E0F92E181306C0DF919D
:1021E000CF911F910F91FF90089590E0109711F0FB
:1021F0000F3F19F401968770F0CFF89E9001F99E79
:10220000300D1124F901EB57FE4F41814713F2CFF6
:1022100040814613EFCF42814111ECCF438154817D
:102220004A1B5B0B4C175D0728F78091BA018F7032
:1022300080618093BA01F901E657FE4F80818F706B
:102240008061808385EB91E00E941B0EDF91CF912E
:102250001F910F91FF900C949D10AF92BF92CF925F
:10226000DF92EF92FF920F931F93CF93DF93CDB73F
:10227000DEB761970FB6F894DEBF0FBECDBF8C01FD
:1022800085E0F801DE011D9601900D928A95E1F737
:10229000F801E28085EBC82E81E0D82E6091B8016C
:1022A0007091B9016115710509F45FC19091B50193
:1022B0002091B601892F82238F3F09F456C14081B6
:1022C0005181A380B480F090B701F501E61BF70BB4
:1022D000BF01E0910001F0910101FF2009F4F6C077
:1022E0008091BA01382F307F6E177F0708F0AFC09A
:1022F000311179C0FE2C251323C0941321C0E110A5
:102300001FC08F7080618093BA010E94BE10C60109
:102310000E941B0E8091BA01F80185838F2D619672
:102320000FB6F894DEBF0FBECDBFDF91CF911F91E6
:102330000F91FF90EF90DF90CF90BF90AF900895F6
:10234000AB2829F0842F85238F3F09F027C180E037
:10235000F82FF170DF2E80FF3CC080918301209127
:10236000840136E0821315C04D875E878D859E857A
:102370000E946F10292F22952F702230F0F0243008
:1023800018F59F70F1F0F8019581907FD1F4D12C70
:102390001EC090E0389FF001399FF00D1124EB57DB
:1023A000FE4F6181651306C06081641303C06281C2
:1023B0006E110FC001968770D5CF9F7011F08823E2
:1023C00031F3805E883018F3C8010E941B0EFD2C8B
:1023D000A5CFEE2009F4A2CF8091BA01816080934D
:1023E000BA01F12C9BCF251306C0941304C0F80149
:1023F000EE2009F487C0C8010E94820E882319F1DB
:10240000EE2009F18091BA01803270F02091B5017F
:102410003091B60138872F831986BB86AA868C87B0
:10242000CE0107960E941B0E86E0F801A5EBB1E0F5
:1024300001900D928A95E1F70E94CC100E94BE1087
:10244000FF24F3946BCFC8010E941B0EF9CF31110A
:1024500013C07A2DB98AA88A6E2D89890E94890EA7
:1024600085EB91E00E941B0E86E0F60111928A95A1
:10247000E9F70E94BE10B5CF25130FC094130DC00D
:10248000E1100BC0F8018583C8010E941B0E86E095
:10249000F60111928A95E9F741CFC8010E94820E98
:1024A000882389F2EE2079F28091BA01803208F413
:1024B000BBCF2091B5013091B6013A8329831B82AD
:1024C000BD82AC828E83CE010196ACCF6E177F07A2
:1024D00008F03EC0FE2CEE2009F4B5CF25132AC02B
:1024E000941328C08091BA0180FD1BC0982F907F63
:1024F000C1F0F8018583903F31F0982F907F905F75
:102500008F70892B8583C8010E941B0E86E0F8011D
:10251000A5EBB1E001900D928A95E1F70E94BE1003
:10252000FDCE86E0F801A5EBB1E001900D928A9511
:10253000E1F7F4CEC8010E94820E811175CF80911F
:10254000BA0181608093BA01C8010E941B0EE6CED9
:102550007A2DB98AA88A6E2D89890E94890E86E013
:10256000F60111928A95E9F7D9CFEE2009F46BCFE5
:10257000C8010E94820EF82E882309F464CF86E0F9
:10258000F801A5EBB1E001900D928A95E1F785EB9A
:1025900091E00E94140B0E94CC10C0CF81E08E25E8
:1025A000D7CE1F93CF93DF93CDB7DEB72C970FB65F
:1025B000F894DEBF0FBECDBF4F83588769877A87F7
:1025C0008B879C87CE0107960E942D11882369F086
:1025D0008A859B85892B39F04F815885842F8523E7
:1025E0008F3F09F071C016E05FC086E0FE013796AC
:1025F000DE01119601900D928A95E1F78A859B85FF
:10260000892B89F38F81988589238F3F61F32091EE
:10261000840130E0C90101968770992740918301B8
:102620004817190671F40E945F0E109284011092EF
:10263000830186E0E5EBF1E0DF011D928A95E9F781
:10264000D2CF96E0929FD001939FB00D1124AB574B
:10265000BE4FFE01319601900D929A95E1F780935D
:1026600084010E949D10BFCF819FC00111248B5710
:102670009E4F0E942D118823E9F0E09183011E9F57
:10268000F0011124EB57FE4F40815181628173812B
:10269000848195810E94980E8091830190E001963B
:1026A00087709927809383018091830190918401A1
:1026B0008913DACF2C960FB6F894DEBF0FBECDBFCC
:1026C000DF91CF911F91089569857A858B859C85CF
:1026D0000E94980E88CF682F80910201909103018B
:1026E0000C94321D682F80910201909103010C948B
:1026F0003D1D80910201909103010C94481D809131
:10270000BB0185958595859508958091BB0187705E
:1027100008959091BB01977081E009F480E00895DD
:102720008091DF0108959091DF01892B8093DF0173
:10273000089580959091DF0198239093DF0108958B
:102740008093DF0108951092DF0108959091DE01DA
:10275000892B8093DE01089580959091DE01982366
:102760009093DE0108951092DE0108951092DD012C
:1027700008958091BC01089508950C94BC13909124
:102780004F0292FD08C09091BC01981721F08093F0
:10279000BC010C94BD1308958091BC01882329F0DD
:1027A0001092BC0180E00C94BD130895E0910201E9
:1027B000F09103018091DF018083E0910201F091AB
:1027C000030180819091DE01892B8083E0910201D9
:1027D000F091030180819091DD01892B808390919C
:1027E000BC01992381F0E0910201F0910301808105
:1027F000892B808380910201909103010E949E1C8D
:1028000081110E94CC1380910201909103010C94DC
:10281000581C08950C94091490914F0292FD10C019
:1028200098E0899F90011124622B6093BB010E9464
:102830003A0F8091BB018595859585950C940A1476
:102840000C943A0F1092BB0180E00C940A14909102
:10285000BB01809589238093BB01282F277091F4B9
:10286000282F082E000C330B9217130659F0909165
:102870004F0292FD07C08595859585950E945B0F57
:102880000C942214089590914F0292FB222720F974
:10289000281769F080FB92F990934F0280914E02C5
:1028A00090914F020E948E1482E00C942714089598
:1028B00080914F0282FB882780F991E089270C9450
:1028C000431481E00C94431480E00C9443146FEFA4
:1028D0007FEF90E080E00C943D2590E080E00E9446
:1028E000192521E0893E9E4F09F020E0822F0895AE
:1028F00082E090E00C94112583E090E00C94112587
:10290000CF9384E090E00E941125C82F82E290E0EE
:102910000E941125982F8C2FCF910895CF93C92F06
:10292000682F84E090E00E941F256C2F82E290E0E7
:10293000CF910C941F25AB01BC018FE090E00C946B
:102940003125AB01BC0183E190E00C94312560E0BE
:1029500070E0CB010C94A11460E070E0CB010E9408
:102960009B140C94A71469EE7EEF90E080E00E9427
:102970003D2560E082E090E00E941F2560E083E05A
:1029800090E00E941F2510927F011092800110920A
:1029900081011092820160E084E090E00E941F2596
:1029A00060E082E290E00E941F2560E085E090E018
:1029B0000E941F2560E086E090E00E941F256FEFD7
:1029C00087E090E00E941F2540E050E0BA0188E0D7
:1029D00090E00E94312560E08DE090E00E941F258C
:1029E00040E050E0BA0188E190E00E94312560E0CB
:1029F00087E190E00E941F2540E050E0BA018CE1A1
:102A000090E00E94312570E060E080E290E00E945A
:102A10003D2540E050E0BA0188E190E00E94312578
:102A20000C94AC140C94B314682F8EE090E00C94CA
:102A30001F250E94F61D6093F3017093F4018093AB
:102A4000F5019093F6016093EF017093F00180938C
:102A5000F1019093F20108950E94F61D6093F30135
:102A60007093F4018093F5019093F6016093EB016C
:102A70007093EC018093ED019093EE01089585B77A
:102A8000806885BF85B7806885BF089508950895DB
:102A90000C94461508950C944A150E943F158DEC30
:102AA00097E10E94421C0E9447150C94481581E052
:102AB00008950C945715089508950E945B150C9481
:102AC0005C150E94E11D0E9418190E94041B0C94C1
:102AD0004B15AF92BF92CF92DF92EF92FF920F937E
:102AE0001F93CF93DF93CDB7DEB72A970FB6F89435
:102AF000DEBF0FBECDBF0E942D1981110E94191596
:102B000081EEA82E81E0B82E10E000E0C02E802FCC
:102B10000E941018E82EF501F1905F01F81609F4F3
:102B200051C08091F70181FD0E9416188F2D8E25CE
:102B3000D12CFF24F394982F9F2109F43EC00E94CA
:102B40005915882399F0DE82CF82EF2081E009F4C5
:102B500080E088870E94EA1D8160782F9A878987A4
:102B60004E815F8168858A850E94D60AF801EF51FF
:102B7000FE4F8081F826F0820E94131B81110E9473
:102B80002C150E944C1C9091E001891791F10E9434
:102B90004C1C8093E0012A960FB6F894DEBF0FBE5E
:102BA000CDBFDF91CF911F910F91FF90EF90DF90FC
:102BB000CF90BF90AF900C94CE0AD394FF0CF6E068
:102BC000DF12B9CF0F5F1F4F0A30110509F09ECFFA
:102BD0008FEF89838A831B820E94EA1D8160782F90
:102BE0009D838C8349815A816B818D810E94D60A95
:102BF000C3CF2A960FB6F894DEBF0FBECDBFDF91CC
:102C0000CF911F910F91FF90EF90DF90CF90BF90E9
:102C1000AF900895CF93DF930E94F316EC018115D6
:102C200023E5920790F5811532E5930708F096C0E9
:102C300081159042C8F4C11581E0D80788F4C53ADF
:102C4000D10548F4C430D10558F4C130D10541F064
:102C5000D0E0C0E005C0CE01805E91090897C0F7C2
:102C6000CE01DF91CF910895C11591E5D90708F004
:102C700070C0C11520E5D20708F04EC0C11530E480
:102C8000D30730F3DF70D06AEBCF811546E59407A8
:102C9000F0F4C11585E5D80708F075C0C11594E5B5
:102CA000D90708F06BC0CE018370992721E030E08E
:102CB00002C0220F331F8A95E2F7C695C69590E2AF
:102CC000C99FE0011124C22BD32BDA68C9CF81152B
:102CD0002AE5920778F4811539E5930708F05EC07C
:102CE000811548E5940708F4B3CFD82FCC27C06FDF
:102CF000D06AB6CF90568115904208F0A9CF8D2F9B
:102D00008F710E948A1790E0982F882788279F71DB
:102D10009C012C2BE90140C0CE01E4E096958795FB
:102D2000EA95E1F783702C2F26952695237040E2D3
:102D3000249F90011124382B8C2F8370C1E0D0E0A8
:102D400002C0CC0FDD1F8A95E2F7C22BD32BDC68C3
:102D500087CFDC2FCC27C16FD06A82CF83709927B1
:102D600021E030E002C0220F331F8A95E2F7C695BA
:102D7000C69580E2C89FE0011124E7CFDC2FCC2765
:102D8000C46FD06A6DCF8C2F0E948A17C82FD0E0F5
:102D9000DC2FCC27CC27DF71D06262CF8F700E94EE
:102DA0008A1734E0D695C7953A95E1F7CF709C2FF6
:102DB000EC01D06955CF972F70E026E0929F600D0F
:102DC000711D1124FB019CE3899FE00DF11D11246D
:102DD000EE0FFF1FE455FF4F8591949108950E94D7
:102DE000DB160C940A1682389105B1F1B0F48133E8
:102DF000910509F475C048F48932910509F469C058
:102E00008A32910509F473C008958533910509F458
:102E100059C08933910501F10895833E9105A9F1C7
:102E200038F4803E9105F9F0823E910549F108950C
:102E3000863E9105A9F1873E9105C9F1843E910531
:102E400019F520914F0221FF1FC080914E0284FD91
:102E500014C087EE90E0089520914E022370A1F0F7
:102E600080EE90E0089520914E0220FD47C0309101
:102E70004F0230FF09C024FF44C090E080E004C04E
:102E800020914E0222FDF7CF089520914E0222FD9F
:102E90003BC030914F0230FDE3CF24FFF5CFEDCFA3
:102EA00020914E0223FFF0CF24FDE7CFD2CF209117
:102EB0004E0223FD2CC030914F0231FFEECF84EE45
:102EC00090E0089520914E0225FFDECF89E290E048
:102ED000089520914E0225FFD7CF85E390E0089515
:102EE00020914E0226FFD0CF8AE290E008952091F3
:102EF0004E0226FFC9CF81E390E0089589E390E078
:102F0000089583EE90E0089582EE90E0089586EEB5
:102F100090E0089590914E0292FF06C0282F2871EC
:102F20002830F9F4877F846093FF06C0282F28712A
:102F30002831F1F4877E846120914F0220FF06C082
:102F4000382F38713830D9F4877F816021FF06C06F
:102F5000282F28712831D1F4877E816194FD877EE6
:102F60000895282F24712430F9F68B7F8860DCCFF8
:102F7000282F2471243101F78B7E8861DDCF382F13
:102F80003171313019F78E7F8860E0CF282F2171A1
:102F9000213121F78E7E8861E1CF80E008950C9485
:102FA00067140E942D198FE39CE90197F1F700C087
:102FB00000000E942D1980E00E94101880FF04C0BC
:102FC0000E94CF170C94351E08950C94D1170E94BF
:102FD0006D14811102C00E9412150E947814809312
:102FE000F7010E94801490934F0280934E020E943A
:102FF000E5170E947C14682F70E090E080E00E944A
:10300000B80E60917B0170917C0180917D0190915F
:103010007E010C94F20E0C94780808950C940D180F
:10302000E82FF0E0E65AFD4F80810895089580EA88
:103030008A95F1F7089500C008950C941718F89434
:10304000E82FE295EF70F0E031A1282F2F7081E09A
:1030500090E001C0880F2A95EAF7982F9095932366
:1030600091A392A1892B82A378940895F894E82FD4
:10307000E295EF70F0E031A1282F2F7081E090E011
:1030800001C0880F2A95EAF7382B31A392A18095C9
:10309000892382A378940895DF92EF92FF920F9391
:1030A0001F93CF93DF93EC01D62E062F10E0F8018B
:1030B000E95DFE4FE0808FEFE81681F18E2D0E94D2
:1030C00036180E941B18E1E2F1E047E251E081E08E
:1030D000F12C91919F3F79F0A92FA295AF70B0E0AC
:1030E00090962C9130E09F7002C0359527959A9567
:1030F000E2F7982F20FD90E0F92A880F4E175F071E
:1031000041F78E2D0E941F1861E0F11001C060E0B0
:103110008D2D0E941D18C00FD11FF882DF91CF9115
:103120001F910F91FF90EF90DF900895CF92DF9263
:10313000EF92FF920F931F93CF93DF93E82E092F07
:10314000162FF42EC62FD0E0CF5DDE4F88818F3F43
:1031500009F445C00E9436180E941B1887E2C82E49
:1031600081E0D82EEE2DF02FAF014B5F5F4F00E0D6
:10317000EF2CE094D6019D916D0181919F0121502A
:1031800031099F3F41F1692F62956F7070E0DB015B
:1031900090966C9170E09F7002C0759567959A95B6
:1031A000E2F760FD18C08F29D9018C9301E0E41784
:1031B000F50701F788818F3F11F00E941F18602FDB
:1031C000812FDF91CF911F910F91FF90EF90DF90B2
:1031D000CF900C941D188E21D9018C93E8CFDF91EC
:1031E000CF911F910F91FF90EF90DF90CF900895B6
:1031F0000F931F93CF93DF93C7E2D1E089918F3F65
:1032000011F00E941F1881E0CC32D807B9F7C1E253
:10321000D1E007E211E089918F3F11F00E941F1861
:103220000C171D07C1F7DF91CF911F910F910895E2
:103230000E94F8188AE0EAE5F2E0DF01982F1D927B
:103240009A95E9F7E8EFF1E0DF011D928A95E9F739
:1032500085E00E9488190C947F09EF92FF920F93EA
:103260001F93CF93DF93CDB7DEB72A970FB6F894AD
:10327000DEBF0FBECDBF8E010F5F1F4F8AE0F8018A
:1032800011928A95E9F7F12C6F2DC8010E944C1814
:10329000F394F5E0FF12F8CFF12CEE24E3944E2DD9
:1032A0006F2DCE0106960E949618F394EE0C86E0E0
:1032B000F812F5CF4AE050E0B80188EF91E00E94A3
:1032C0000425FF24F394009709F4F12C892B41F095
:1032D0008AE0F801A8EFB1E001900D928A95E1F73C
:1032E0002F2D4AE06AE572E088EF91E00E9489198B
:1032F0000E9485098F2D2A960FB6F894DEBF0FBE67
:10330000CDBFDF91CF911F910F91FF90EF90089566
:103310000895FF920F931F93CF93DF93F82E092FF9
:10332000162FD72FC42F222349F081E08093040267
:103330000E94EA1D9093030280930202809104028E
:103340008823A1F080910202909103020E94021E44
:10335000059760F0EF2DF02FA12FBD2FCE0FDF2F9F
:10336000D11DEC17FD0741F410920402DF91CF91BB
:103370001F910F91FF90089581918D93F2CF0E943C
:10338000AA1F0E9461150C94B61F0E94BA1F0E94CA
:1033900069150C94D41F0E94741D0E94911F0E94F5
:1033A0004D150E94BF190E94C5190E945D15FBCFE3
:1033B000CF93DF93EC01FB018281882309F420C1C4
:1033C000C430FDE5DF07C8F5CB3F9CE5D90730F4F5
:1033D0009E0122503C452431310598F50E9480140D
:1033E00090934F0280934E02C031FCE5DF0709F451
:1033F000E0C008F061C0C8309CE5D90709F4CBC033
:1034000088F5C430FCE5DF0709F4B3C0E8F4C23046
:103410009CE5D90709F4A7C080914E028260C330B1
:10342000DC4509F4A3C080914E0290914F020E94A6
:103430008E140E945F0E80E004C0C236EDE5DE0708
:1034400069F2DF91CF91089580914E028061C6307C
:10345000FCE5DF0709F48AC008F48FC080914E02B2
:10346000806284C080914E028D7FCC309CE5D9076C
:1034700009F47CC070F480914E028C60CA30FCE587
:10348000DF0709F473C008F48AC080914E028E7F72
:103490006DC080914E02877FCE309CE5D90709F43C
:1034A00065C080914E028B7FCF30DC4508F45EC052
:1034B00080914E028F7E5AC0CD3FFCE5DF0709F4B4
:1034C00074C040F5C4319CE5D90709F48AC058F4AA
:1034D000C231FCE5DF0709F474C008F46EC08091C6
:1034E0004E02837F43C0CB3F9CE5D90709F449C016
:1034F00008F04DC0C531DC4509F095CF80914E02F2
:1035000082FB992790F921E0922790FB82F990FBAA
:1035100083F92CC0C1308DE5D80709F458C088F470
:1035200080914F028360CF3FECE5DE0769F1809127
:103530004F028D7FC115DD4538F180914F028C7FA0
:1035400023C0C3308DE5D80709F458C008F452C031
:10355000C236DD4509F067CF90914E02892F8F7EEC
:1035600094FF806103C080914E02816080934E027F
:103570005ACF80914E028460F9CF80914E028860CC
:10358000F5CF80914F02816080934F024CCF8091A4
:103590004F028260F9CF80914E028064E7CF0E9493
:1035A0005F0E80914E028068E1CF80914F028E7F46
:1035B000EBCF80914E028F7DD9CF80914E028F7BD1
:1035C000D5CF0E945F0E80914E028F77CFCF809132
:1035D0004F02982F909591708E7F892B90FB81F9E7
:1035E000D3CF0E945F0E90914E02892F97FB87F9EF
:1035F0008058BCCF81E00E94141515CF80E0FBCF2E
:1036000081E01FCF0C94B7085098589A5198599A56
:1036100089B18170499905C090E0892B8093070298
:10362000089592E0FACFE0910702EE0FEE0FE093DB
:10363000070249B1842F817049B141FB222720F94B
:1036400041FF02C022E030E0822BE82BE09307022A
:10365000EF70F0E0E45DFE4F808190910602890FEB
:103660008093060220E0843054F0809105028F5F41
:103670008093050260E080E00E94021B21E08091BF
:1036800006028D3F54F4809105028150809305021B
:1036900061E080E00E94021B21E080910602082E7A
:1036A000000C990B64E070E00E94D624809306021F
:1036B000822F0895CF93DF93EB0186319C4511F55E
:1036C0000E9490139A81992399F08A7A91E009F4E3
:1036D00090E090930802811109C089E20E946B1367
:1036E0000E94D61380E0DF91CF91089585E3F6CF55
:1036F00080910802811104C089E20E947213F0CF08
:1037000085E3FBCF81E0EFCF0F931F93CF93DF9340
:10371000C42FD22FFC0182818823C9F040930B0271
:103720000E94EA1D90930A028093090280E28C0FA6
:10373000883008F050C0C77081E001C0880FCA957A
:10374000EAF7DF91CF911F910F910C94F70B109135
:103750000B02141335C08091090290910A020E9455
:10376000021E883C910560F5C0E2CD0F1D17B9F02F
:1037700080E2810F883040F4177081E001C0880F2B
:103780001A95EAF70E94FE0BC83048F481E09D2F9D
:10379000977001C0880F9A95EAF70E94F70B802F67
:1037A0000E94EF0BC830B8F4D77081E001C0880FD9
:1037B000DA95EAF7DF91CF911F910F910C94FE0BF0
:1037C00080E28C0F883038F4C77081E001C0880F28
:1037D000CA95EAF7EFCFDF91CF911F910F9108952E
:1037E0000F939C01CB01243F4CE5340759F1A8F419
:1037F000293DFCE53F0701F12A3D4CE53407D1F1B5
:10380000283D3C4591F406E221EE41EE68ED7CE571
:103810000E94841B80E00F910895263FFCE53F073E
:10382000E9F0B0F0273F3C45F9F0FC0182818823A4
:1038300039F110920B02EFCF07E225EE45EE69ED6C
:103840007CE5E6CF06E221EE40EE64EF7CE5E0CFDA
:1038500007E225EE44EE65EF7CE5DACF06E221EEE5
:1038600042EE66EF7CE5D4CF07E225EE46EE67EF49
:103870007CE5CECF08E221E045EE6AED7CE5C8CFDD
:1038800081E0C9CF90933D0180933C0108959093CE
:103890001102809310020895E0911002F09111023C
:1038A000309721F00190F081E02D099480E0089597
:1038B000E0911002F0911102309799F020911001DF
:1038C000222359F020914E0227FF07C0DC012C91E2
:1038D00011962C93119726E02C930280F381E02D12
:1038E0000994089520910E0230910F02281739078C
:1038F00071F090930F0280930E02E0911002F0910C
:103900001102309721F00680F781E02D0994089587
:1039100020910C0230910D022817390771F0909315
:103920000D0280930C02E0911002F0911102309789
:1039300021F00084F185E02D09940895FC01329670
:1039400080911001882321F080914E029EE187FF33
:1039500096E080E0915008F4089521912223D1F35C
:103960008F5FF8CF662301F1209110012223F1F03F
:1039700020914E0227FF1AC0462F46954695469540
:103980004E3190F4677021E030E002C0220F331F07
:103990006A95E2F7840F911DFC01828190E0282353
:1039A000392381E0232B69F480E00895FC013296ED
:1039B00008962191261721F0E817F907D1F7F4CFDF
:1039C00081E008959C01FC0132969FEF80E04191D7
:1039D000461751F09F3F19F4411101C0982F8F5F96
:1039E0008630A9F79F3F09F40895290F311D97FDEF
:1039F0003A95F90162830895FC0132960896219167
:103A0000261303C0DF0111971C92E817F907B9F7D5
:103A10000895E62FE695E695E695EE3168F4E80F11
:103A2000F92FF11D677021E030E001C0220F6A9587
:103A3000EAF78281822B82830895E62FE695E69548
:103A4000E695EE3170F4E80FF92FF11D677021E073
:103A500030E001C0220F6A95EAF720958281282381
:103A60002283089520911001222329F020914E02F3
:103A700027FD0C94091D0C94E21C209110012223B7
:103A800029F020914E0227FD0C941D1D0C94FC1C66
:103A9000FC01329680911001882351F080914E02F2
:103AA00087FF06C08EE1DF011D928A95E9F7089530
:103AB00086E0F9CF08950C945A1D811105C081E06C
:103AC000809312020C945B1D82E0FACF83E0809316
:103AD00012020C945B1D0C945D1D81E08093120218
:103AE0000C945B1D0C946D1D089580916C028430C4
:103AF00031F10E9487091092130288E190E020E4DE
:103B00000FB6F894A895809360000FBE20936000D4
:103B100083B7817F846083BF83B7816083BF7894DC
:103B2000889583B78E7F83BF0FB6F894A895809150
:103B30006000886180936000109260000FBE08955D
:103B400008950895CF930E94A01D0E942D190E94F0
:103B5000A11DC0E08C2F0E941018811105C0CF5FFD
:103B6000CA30C1F7CF91089581E0FCCF0E945F0E6B
:103B70000C94EF091F921FB61F9211248F939F93ED
:103B8000AF93BF9380911302811113C0809164029F
:103B900090916502A0916602B09167024196A11DC5
:103BA000B11D8093640290936502A0936602B09366
:103BB0006702BF91AF919F918F911F901FBE1F9081
:103BC000189582E084BD93E095BD9AEF97BD8093F0
:103BD0006E0008952FB7F894809164029091650269
:103BE000A0916602B09167022FBF08952FB7F89495
:103BF0006091640270916502809166029091670203
:103C00002FBF08959C014FB7F89480916402909162
:103C10006502A0916602B09167024FBF821B930BB1
:103C2000089578941F921FB61F9211248F939F932B
:103C3000AF93BF938091640290916502A091660258
:103C4000B09167020196A11DB11D8093640290930B
:103C50006502A0936602B0936702BF91AF919F91F6
:103C60008F911F901FBE1F90189581E08093E000F8
:103C700080E28093D8001092C9008FE19EE4019702
:103C8000F1F700C0000087E090EBDC018093750243
:103C900090937602A0937702B093780288E19CE03B
:103CA0000FB6F894A895809360000FBE90936000C3
:103CB000FFCF80913402089508950895CF93DF9344
:103CC000EC01809110018823B1F180914E0287FFB1
:103CD00032C060E282E08093E9008FEF9091E800CB
:103CE000815095FD06C095ED9A95F1F70000811180
:103CF000F5CF8091E80085FF1BC08091100170E036
:103D000050E040E0811104C050E040E068E070E025
:103D1000CE010E9445208091E8008E778093E800D4
:103D200080E2FE01A4E1B2E001900D928A95E1F7F4
:103D3000DF91CF91089568E081E0CDCF0895089597
:103D400080916B02811109C00E94D5210E9432220C
:103D50008091E20084608093E200089510926B02EB
:103D600008950C946D1D6091680281E0611101C09D
:103D700080E00C94661D90916C0281E0943009F013
:103D800080E0609168020C946B1D42E061EC81E080
:103D90000E94512142E261EC82E00E945121909107
:103DA0006C0281E0943009F080E0609168020C942C
:103DB0005D1D80916E02833009F460C030F4813063
:103DC000C9F1823009F49CC008958A3009F488C092
:103DD0008B3009F46EC0893009F04FC080916D02BC
:103DE000813209F04AC0809171029091720202976B
:103DF00008F043C08091E800877F8093E8008091BD
:103E0000E80082FF36C09091F3008091F2000297A3
:103E100031F48091F100813011F0863021F48091ED
:103E2000F100809334028091E8008B778093E80062
:103E30000C94852180916D02813AF9F48091E8001B
:103E4000877F8093E8008091710290917202892BA4
:103E500061F460E284E192E070E00E94942080913D
:103E6000E8008B778093E800089560E090E080E0C0
:103E7000F3CF80916C028111C2CF089580916D02C1
:103E8000813AD9F78091710290917202892BA9F73A
:103E90008091E800877F8093E8008091E80080FFB0
:103EA000FCCF809110018093F1008091E8008E7723
:103EB000BDCF80916D02813201F7809171029091A6
:103EC0007202892BD1F68091E800877F8093E80009
:103ED0000E94852180916F02809310010C945F0EE7
:103EE00080916D02813249F68091E800877F80934E
:103EF000E8000E9485218091700280933502089528
:103F000080916D02813A09F0B8CF8091E800877FF7
:103F10008093E8008091E80080FFFCCF809135021B
:103F2000C2CF84B7877F84BF0FB6F894A8958091DD
:103F30006000886180936000109260000FBE80E88E
:103F400090E00FB6F89480936100909361000FBEEB
:103F50000C94721D0E94D5210E943222E2EEF0E004
:103F600080818460808378940C94BB2484E091E009
:103F70000C94471C80916C028530A9F480916C02EE
:103F8000853011F00C94B61D0E94751D80916A0257
:103F90008823A1F30E94A21D882381F30E942F2071
:103FA0000E945F0EEBCF089508950C94D71F292F20
:103FB00033272330310519F168F42130310509F434
:103FC00044C02230310509F445C090E080E030E083
:103FD00020E025C02132310549F122323105A9F70F
:103FE00080E490E020EA33E061157105C1F08BE3D5
:103FF00090E025E633E06130710589F0E6CF99273E
:104000008130910581F0009729F00297F1F6E4ECF8
:10401000F2E002C0E4E1F3E0849190E09F01FA0154
:10402000318320830895ECEFF2E0F6CF89E090E051
:104030002AE233E06115710591F389E090E023E411
:1040400033E06130710559F3C0CF82E190E023E5A0
:1040500033E0E5CF8BE390E028E133E0E0CF80E18F
:1040600089BD82E189BD09B400FEFDCF8091D800F1
:104070008F7D8093D8008091E00082608093E00083
:104080008091E00081FDFCCF0895AF92BF92CF9266
:10409000DF92FF920F931F93CF93DF936C01EB019D
:1040A0008A010E94A421F82E811123C00115110557
:1040B00039F0F80180819181C81BD90BC80ED91E37
:1040C000B12CA12C2097A9F08091E80085FD22C099
:1040D0008091E8008E778093E80001151105A1F02A
:1040E000F80180819181A80EB91EB182A08285E07D
:1040F000F82E8F2DDF91CF911F910F91FF90DF90C0
:10410000CF90BF90AF9008950E94A4218823D1F250
:10411000F82EEFCFF60181916F018093F100219786
:10412000FFEFAF1ABF0ACECFFC01809173029091CE
:10413000740286179707A0F06115710529F4909114
:10414000E8009E779093E80090E06115710551F4C6
:10415000911108C08091E80082FF34C080E008958A
:10416000BC01F2CF80916C028823C1F18530C1F18E
:104170008091E80083FD30C08091E80082FDEACFA5
:104180008091E80080FFE1CF8091F3002091F20060
:10419000382F6115710519F02830310558F091E07C
:1041A0002830310509F090E02091E8002E77209327
:1041B000E800CBCF81918093F100615071092F5FAE
:1041C0003F4FE7CF80916C02882341F0853041F06A
:1041D0008091E80083FFBECF81E0089582E00895DA
:1041E00083E00895FC018091730290917402861718
:1041F0009707A0F06115710529F48091E8008E778A
:104200008093E80090E06115710551F4911108C0A8
:104210008091E80082FF35C080E00895BC01F2CFB4
:1042200080916C028823C9F18530C9F18091E80042
:1042300083FD31C08091E80082FDEACF8091E800E3
:1042400080FFE1CF8091F3002091F200382F6115BB
:10425000710519F02830310558F091E0283031050A
:1042600009F090E08091E8008E778093E800CBCF52
:1042700084918093F1003196615071092F5F3F4F17
:10428000E6CF80916C02882341F0853041F0809127
:10429000E80083FFBDCF81E0089582E0089583E0C8
:1042A0000895982F973028F08F708093E90081E06F
:1042B00008959093E900242F762F50E0981731F05D
:1042C0007091EC002091ED005091F00021FD02C0B2
:1042D0009F5FE8CF3091EB003E7F3093EB00309151
:1042E000ED003D7F3093ED003091EB003160309375
:1042F000EB007093EC002093ED005093F0002091C0
:10430000EE0027FDE5CF80E0089580916D0287FFE4
:1043100013C08091E80082FF06C08091E8008B778F
:104320008093E80004C080916C028111F2CF08955F
:1043300080916C028823D9F38091E80080FFF8CF48
:104340008091E8008E77ECCF2091E4003091E50079
:1043500095E6A9012091EC00822F817020FF06C014
:104360008091E80080FF06C080E008952091E80079
:1043700022FD1AC080916C02882389F0853089F073
:104380008091EB0085FD0FC02091E4003091E500A5
:1043900042175307F9F29150E1F684E0089582E064
:1043A000089583E0089581E008950E9443220E94C9
:1043B0004B22E0EEF0E0808181608083E8EDF0E068
:1043C00080818F77808319BCA7EDB0E08C918E7FC0
:1043D0008C9380818F7E808310926B0208950F935F
:1043E0001F93CF93DF930E9443220E944B22C8ED7C
:1043F000D0E088818F7788838881806888838881EE
:104400008F7D888319BC10926C0210926802109202
:104410006A021092690200EE10E0F80180818B7F41
:10442000808388818160888342E060E080E00E9430
:104430005121E1EEF0E080818E7F8083E2EEF0E0BA
:10444000808181608083808188608083F8018081A1
:104450008E7F8083888180618883DF91CF911F91D7
:104460000F910895E8EDF0E080818F7E8083E7ED85
:10447000F0E080818160808384E082BF81E080936E
:104480006B020C94EF21E8EDF0E080818E7F808359
:104490001092E20008951092DA001092E10008955F
:1044A0001F920F920FB60F9211242F933F934F93A9
:1044B0005F936F937F938F939F93AF93BF93EF938C
:1044C000FF938091E10082FF0BC08091E20082FFA8
:1044D00007C08091E1008B7F8093E1000E94BA24A5
:1044E0008091DA0080FF19C08091D80080FF15C04C
:1044F0008091DA008E7F8093DA008091D90080FF6E
:1045000096C080E189BD82E189BD09B400FEFDCF7E
:1045100081E080936C020E94A01E8091E10080FFE8
:1045200019C08091E20080FF15C08091E2008E7F6B
:104530008093E2008091E20080618093E2008091AC
:10454000D80080628093D80019BC85E080936C020B
:104550000E94B31E8091E10084FF2BC08091E20095
:1045600084FF27C080E189BD82E189BD89B5982F8C
:10457000917080FFFBCF8091D8008F7D8093D80011
:104580008091E1008F7E8093E1008091E2008F7E38
:104590008093E2008091E20081608093E20080914C
:1045A0006802882309F449C084E080936C020E9469
:1045B000BB1E8091E10083FF29C08091E20083FF50
:1045C00025C08091E100877F8093E10082E08093A5
:1045D0006C02109268028091E1008E7F8093E1006E
:1045E0008091E2008E7F8093E2008091E200806102
:1045F0008093E20042E060E080E00E9451218091DF
:10460000F00088608093F0000E94B11EFF91EF914E
:10461000BF91AF919F918F917F916F915F914F91DA
:104620003F912F910F900FBE0F901F90189519BCBE
:1046300010926C020E94AE1E70CF8091E30087FD45
:1046400093E090936C02B3CF1F920F920FB60F922C
:1046500011242F933F934F935F936F937F938F9387
:104660009F93AF93BF93CF93DF93EF93FF93D0913B
:10467000E900DF708091EC00C82FC17080FDC0E8B8
:104680001092E9008091F000877F8093F000789489
:104690000E9468231092E9008091F0008860809366
:1046A000F000CD2BCF70C093E900FF91EF91DF9127
:1046B000CF91BF91AF919F918F917F916F915F91BA
:1046C0004F913F912F910F900FBE0F901F90189513
:1046D0001F93CF93DF93CDB7DEB7AA970FB6F894A9
:1046E000DEBF0FBECDBF8DE692E02091F100FC0150
:1046F0002193CF01F2E085379F07B9F70E94D91EB9
:104700008091E80083FF1EC180916D0290916E023E
:104710009A3008F017C1E92FF0E0E15DF84D0C94F4
:10472000EA24803899F0823809F00CC18091710236
:104730008F70873008F006C18093E9008091EB000C
:1047400085FB882780F91092E90006C080916902F4
:1047500090916A02911182609091E800977F909306
:10476000E8008093F1001092F1008091E8008E77CC
:10477000E5C0882309F4D3C0823009F0E3C08091FA
:104780006F028111D6C0809171028F702FEF280FB8
:10479000263008F0D7C08093E9002091EB0020FF7D
:1047A000C8C0933031F48091EB0080628093EB00BD
:1047B000C0C09091EB0090619093EB0021E030E05D
:1047C00001C0220F8A95EAF72093EA001092EA00CE
:1047D0008091EB008860EACF8111B4C010916F0224
:1047E0001F778091E3008078812B8093E300809194
:1047F000E800877F8093E8000E9485218091E8008F
:1048000080FFFCCF8091E30080688093E30082E02A
:10481000111183E080936C0295C08058823008F0BB
:1048200091C080916F02909170028C3D23E09207BD
:10483000A1F583E08A838AE289834FB7F894DE0189
:10484000139620E03EE051E2E32FF0E05093570052
:10485000E49120FF03C0E295EF703F5FEF708E2F71
:1048600090E0EA30C0F0C7968D939D932F5F24317E
:1048700059F74FBF8091E800877F8093E8006AE294
:1048800070E0CE0101960E9494208091E8008B7721
:104890008093E80057C0C096E7CF60917102709195
:1048A0007202AE014F5F5F4F0E94D51FBC01892B82
:1048B00009F448C09091E800977F9093E8008981BF
:1048C0009A810E94F220E1CF8038E1F58091E800E2
:1048D000877F8093E800809168028093F10045CF44
:1048E000811130C090916F02923060F58091E800A4
:1048F000877F8093E800909368020E9485218091D1
:104900006802882311F084E005C08091E30087FDF0
:10491000FACF81E080936C020E94C51E13C0809183
:104920006F02813079F481E0933009F080E0809368
:104930006A021092E9008091E800877F8093E80086
:104940000E9485218091E80083FF0AC08091E800E1
:10495000877F8093E8008091EB0080628093EB007A
:10496000AA960FB6F894DEBF0FBECDBFDF91CF91F0
:104970001F9108950895CF9380916C028823A1F030
:10498000C091E900CF709091EC00892F817090FD6B
:1049900080E8C82B1092E9008091E80083FD0E9416
:1049A0006823CF70C093E900CF91089597FB072E3D
:1049B00016F4009407D077FD09D00E94F02407FC7C
:1049C00005D03EF4909581959F4F0895709561951F
:1049D0007F4F0895EE0FFF1F0590F491E02D09948D
:1049E000AA1BBB1B51E107C0AA1FBB1FA617B70715
:1049F00010F0A61BB70B881F991F5A95A9F7809531
:104A00009095BC01CD010895FB01DC0104C08D919E
:104A10000190801921F441505040C8F7881B990B30
:104A20000895F999FECF92BD81BDF89A992780B576
:104A30000895A8E1B0E042E050E00C944525262F0F
:104A4000F999FECF92BD81BDF89A019700B4021684
:104A500039F01FBA20BD0FB6F894FA9AF99A0FBE32
:104A600008950396272F0E9420250E941F25252F99
:104A70000E942025242F0C9420250196272F0E9488
:104A800020250C941F25DC01CB01FC01F999FECFF8
:104A900006C0F2BDE1BDF89A319600B40D924150C6
:104AA0005040B8F70895F894FFCFD502EF02F10215
:104AB000F302F502F70209030B030D030F031103C1
:104AC000D802D802D802D802D802D802D802D80216
:104AD000D802D802D802D802D802D802D802D80206
:104AE000D802D802D802D802F902FB02FD02FF0266
:104AF0000103030305030703130315031703190336
:104B00001B031D03D802D8021F032103230325031F
:104B100037032A032F033403590328035E0360037A
:104B200065037103530373033203750343034303A4
:104B30004303430343034303430343034303430345
:104B40004303430343034303430343034303430335
:104B5000430339033B033D034F0351035303550301
:104B60005703670369036B036D0343036F03770305
:104B700079037B037D037F039303950397039903D5
:104B8000A303A503A703A903AB034303BB03BD030F
:104B9000BF03C103430343034303430343034303EB
:104BA00043034303430343034303430343034303D5
:104BB00043034303430343034303B4039B039D03A2
:104BC0009F03A103530355035703AD035C03AF03D6
:104BD000B103B6036F03C3036303C503C703C9036C
:104BE000770479047B0454047D047F043004890431
:104BF0008B048D048F049B049D049F04A104A304D3
:104C000025042D0432043404390445044F045104AE
:104C10005604580425046504670469046B04810480
:104C20004504400437048304850487044D0491043B
:104C30009304950497044B0499046304A504490460
:104C4000250475043B043D04420447044904490417
:104C50004B044D045A045C045E04400460044D049B
:104C60006D046F0471047304750418051A051C059E
:104C7000F5041E052005D1042A052C052E05300556
:104C80003C053E05400542054405C304CE04D3045B
:104C9000D504DA04E604F004F204F704F904C304CA
:104CA000060508050A050C052205E604E104D804FA
:104CB000240526052805EE04320534053605380599
:104CC000EC043A0504054605EA04C3041605DC04B1
:104CD000DE04E304E804EA04EA04EC04EE04FB0462
:104CE000FD04FF04E1040105EE040E0510051205A4
:104CF00014051605D405EE05F005F205F405F605D4
:104D000008060A060C060E061006D705D705D705B5
:104D1000D705D705D705D705D705D705D705D705B3
:104D2000D705D705D705D705D705D705D705D705A3
:104D3000D705F805FA05FC05FE050006020604067F
:104D4000060612061406160618061A061C06D705CD
:104D5000D7051E06200622062406360629062E063C
:104D600033065A0627065F06610666067206540673
:104D7000740631067606420642064206420642069E
:104D800042064206420642064206420642064206E3
:104D900042064206420642064206420638063A06E5
:104DA0003C065006520654065606580668066A0621
:104DB0006C066E064206700678067A067C067E064B
:104DC00080069406960698069A06A406A606A806E5
:104DD000AA06AC064206BC06BE06C006C2064206CD
:104DE0004206420642064206420642064206420683
:104DF0004206420642064206420642064206420673
:104E000042064206B5069C069E06A006A206540669
:104E100056065806AE065D06B006B206B706700620
:104E2000C4066406C606C806CA06430C430C740CC6
:104E3000740CA30CA30CA30CA30C070D930DA20DD3
:104E4000A20D6E0E6E0E770E770E790E770E770E20
:104E5000770E6E0E6E0E7E0E770E770E7E0E9123FF
:104E6000B923A224B923A224EC230D24A224642470
:024E70007024AC
:104E7200C800BD01591E5E1E9E1E5C1E9F1E5D1E49
:104E82000101018B000101910001018A00010190E1
:104E920000679495969734929335366600FF010029
:0C4EA200010000FFFF0000010001FF0004
:00000001FF
