:100000000C9498010C94DF010C94DF010C94DF0137
:100010000C94DF010C94DF010C94DF010C94DF01E0
:100020000C94DF010C94DF010C9429210C94FD2128
:100030000C94931C0C94DF010C94DF010C94DF01F1
:100040000C94DF010C943D080C94DF010C94DF014B
:100050000C94DF010C94EA1C0C94DF010C94DF017A
:100060000C94DF010C94DF010C94DF010C94DF0190
:100070000C94DF010C94DF010C94DF010C94DF0180
:100080000C94DF010C94DF010C94DF010C94DF0170
:100090000C94DF010C94DF010C94DF010C94DF0160
:1000A0000C94DF010C94DF010C94DF01A65DA85DC8
:1000B000AB5DC75DC95DCC5DE000AD5DB05DCF5DA2
:1000C000D15D2800E100AE5DB45DD45D0000ED5D62
:1000D000F15DB25DB55DCE5DD65DE500E300EF5D3F
:1000E000000002516500EC5DA75DA95DC55DC85DBE
:1000F000CA5D0000AC5DAA5DC65DD05DCB5D290028
:10010000B15DAF5DCD5DD55DD25D00000000B35D3A
:10011000D35D0000D75D0000E2000000F05DE70065
:10012000EB5DEE5D0100B75DBA5DDA5DDC5DDF5D64
:100130000100BC5DBF5DE25DE45D01000100BD5DED
:10014000C35DE75D000001000100C15DC45DE15DCC
:10015000E95DE5000100EF5D000001000100010024
:10016000B65DB85DD85DDB5DDD5D0100BB5DB95D91
:10017000D95DE35DDE5D0100C05DBE5DE05DE85D13
:10018000E55D00000000C25DE65D0000EA5D000084
:1001900001000000F05D01000100010029000100E4
:1001A00001004B0046004C0001000100010052001C
:1001B00049000100010001000100010000000100F0
:1001C00001000100010051000100010001000100D7
:1001D0000000010001000100010001004A004D0083
:1001E00001000100010001004E004F004800010025
:1001F00001000100500001004C000000000001005F
:1002000001000000010000000100000001000100E9
:1002100001000100360354005300350032004B004A
:1002200020004E00490043004F004C0041002000D8
:100230004F007900610079007500620069002000BC
:10024000530068006900660074000000160349004E
:100250006B0065006200650053006100640061008E
:100260006F0000000403090409023B00020100A022
:10027000FA09040000010301010009211101000134
:100280002240000705810308000A09040100010358
:10029000000000092111010001223B000705820333
:1002A00020000A1201000200000008EDFE69190199
:1002B000000102000105010906A1018506050719D3
:1002C000E029E71500250195087501810205071948
:1002D0000029EF1500250195F07501810205081927
:1002E000012905950575019102950175039101C0DC
:1002F00005010906A101050719E029E715002501F7
:10030000950875018102950175088101050719009D
:1003100029FF150026FF00950675088100050819BC
:10032000012905950575019102950175039101C09B
:1003300011241FBECFEFDAE0DEBFCDBF04B603FE4F
:1003400027C08091650290916602A0916702B091EA
:1003500068028730904BA740B04BD1F410926502F1
:1003600010926602109267021092680214BE84B75F
:10037000877F84BF0FB6F894A8958091600088614C
:1003800080936000109260000FBEE0E0F8E30995F2
:1003900011E0A0E0B1E0ECEAFCE402C005900D92AF
:1003A000AC32B107D9F722E0ACE2B1E001C01D9256
:1003B000A536B207E1F70E94A4180C942C240C94E3
:1003C0000000CF93C0E080913001C81720F0109258
:1003D0003001CF9108958C2F90E0FC01EE0FFF1FAC
:1003E000E80FF91FEA5DFD4F808191812281222370
:1003F00021F00E94CA08CF5FE6CF0E94E108FBCF40
:1004000080933E0188EA96E00E94170810923B0113
:1004100010923A01109239011092380108952091FA
:100420003F012223F9F0805E91090897D8F480916A
:100430003D01FB019281992361F0811104C08091FB
:100440003E010E94340E80913D018F5F80933D01FB
:100450000895815080933D01811104C080913E0137
:100460000C94130E08959C01265A3D452F313105F9
:1004700030F481E0603F7D4551F080E008C0855C4C
:100480009D458697D0F781E06F3E7D45B1F781703D
:1004900008959C01265A3D4581E02031310538F010
:1004A0002F51310981E02331310508F080E081705E
:1004B000089580913101811113C080913A0190918A
:1004C0003B01865A9D458934910550F4809138014D
:1004D000909139018F5E9D45029710F40E94350579
:1004E000E0913A01F0913B01E65AFD45E934F1050E
:1004F00038F4E25DFB4D0C94C32385E30E94820A2D
:1005000080913801909139018F3E2DE5920709F0D5
:10051000B0C0E0913A01F0913B01E35BFD45E83367
:10052000F10508F060C0E958FB4D0C94C3238AE341
:10053000E5CF8BE3E3CF8CE3E1CF8DE3DFCF8EE339
:10054000DDCF8FE3DBCF80E4D9CF81E4D7CF82E466
:10055000D5CF83E4D3CF84E4D1CF85E4CFCF8CE46F
:10056000CDCF8EE1CBCF8FE1C9CF80E2C7CF81E283
:10057000C5CF82E2C3CF83E2C1CF84E2BFCF85E2A1
:10058000BDCF86E2BBCF87E2B9CF8AE2B7CF8FE299
:10059000B5CF80E3B3CF81E3B1CF8AE4AFCF8EE4B0
:1005A000ADCF8BE4ABCF8DE4A9CF8BE10E94820A63
:1005B00084E017C085E10E94820A8CE012C08BE1C2
:1005C0000E94820A8CE1F2CF85E10E94820A88E0D3
:1005D00008C083E1EBCF87E0EECF8AE00E94820A79
:1005E00088E10E94820A1092310110923B01109220
:1005F0003A0110923901109238010C94E10187E020
:10060000EDCF83E1D8CF8DE2ECCF8EE2EACF8CE460
:10061000E8CF8AE10E94820A82E1E3CF81E1C6CF7E
:100620008BE10E94820A8CE1D9CF80E1F3CF85E093
:10063000BDCF87E0EFCF8AE0BECF83E1EBCF8AE288
:10064000D0CF8BE1CBCF85E1E5CF8BE1B4CF83E198
:10065000C5CF8DE1DFCF83E1B8CF85E0DBCF88E385
:10066000C0CF80E5BECF81E5BCCF8BE4BACF8DE4AF
:10067000B8CF803F9D4509F0B6CFE0913A01F091A7
:100680003B01E35BFD45E833F10508F0ACCFE155F4
:10069000FB4D0C94C3238AE089CF87E087CF8AE0A3
:1006A000B9CF8DE183CF81E186CF85E197CF80E11E
:1006B0007DCF8BE18ACF89E191CF8DE17CCF87E03F
:1006C00084CF8AE082CF8DE180CF80E174CF81E159
:1006D000A1CF8BE10E94820A8CE19CCF8BE10E942A
:1006E000820A87E17BCF85E066CF8DE177CF85E019
:1006F00075CF85E06ACF81E171CF80E16FCF8AE16C
:1007000055CF8BE187CF8AE46CCF8EE46ACF82E548
:1007100068CF8FE466CF8091330181110E94340449
:100720008091320181110E94F80480913101811180
:100730000C94590208950E948B03E0913A01F091C4
:100740003B01E65AFD45E934F10538F4E951FB4D2A
:100750000C94C32387E30E94120A81E08093330143
:100760000C94E1018EE00E94120A84E0F4CF87E14C
:10077000FACF8EE00E94120A82E1EDCF86E1F3CF3C
:1007800085E1F1CF87E10E94120A8CE0E4CF8EE090
:100790000E94120A88E1DFCF87E1FACF86E3DBCF40
:1007A00083E3D9CF8AE2D7CF86E1EDCF87E10E94FC
:1007B000120A88E0D0CF8EE0FACF86E1F8CF8BE046
:1007C000D2CF87E1D7CF8EE0DECF81E10E94120A3F
:1007D00081E1C1CF8BE0D7CF86E1DACF8BE0D8CFF4
:1007E0008BE0E5CF80E1E3CF86E1C4CF81E1DFCFCD
:1007F0008BE0C0CF88E3AFCF8BE2ADCF84E1ABCF4E
:100800008AE1A9CF85E1A7CF87E1A5CF8CE1A3CF6E
:1008100083E1A1CF8DE29FCF8EE29DCF86E19BCF7A
:1008200087E099CF89E097CF8AE095CF8BE093CF8F
:100830008DE091CF8EE08FCF8FE08DCF84E38BCF93
:100840008DE189CF8BE187CF86E085CF89E183CFAA
:1008500085E081CF80E17FCF80E57DCF81E57BCFD3
:1008600082E579CF8FE477CF8091330181110BC07E
:1008700080913A0190913B01865A9D4589349105BA
:1008800010F40E949B03E0913A01F0913B01E65A7B
:10089000FD45E934F10538F4E05DFA4D0C94C323CD
:1008A00087E30E94820A1092330110923B0110925A
:1008B0003A010C94E1018EE00E94820A84E0F1CFBB
:1008C00087E1FACF8EE00E94820A82E1EACF86E1D8
:1008D000F3CF85E1F1CF87E10E94820A8CE0E1CF7E
:1008E0008EE00E94820A88E1DCCF87E1FACF86E3BE
:1008F000D8CF83E3D6CF8AE2D4CF86E1EDCF87E1AC
:100900000E94820A88E0CDCF8EE0FACF86E1F8CF50
:100910008BE0D2CF87E1D7CF8EE0DECF81E10E949E
:10092000820A81E1BECF8BE0D7CF86E1DACF8BE0C0
:10093000D8CF8BE0E5CF80E1E3CF86E1C4CF81E182
:10094000DFCF8BE0C0CF88E3ACCF8BE2AACF84E1CE
:10095000A8CF8AE1A6CF85E1A4CF87E1A2CF8CE121
:10096000A0CF83E19ECF8DE29CCF8EE29ACF86E12D
:1009700098CF87E096CF89E094CF8AE092CF8BE042
:1009800090CF8DE08ECF8EE08CCF8FE08ACF84E346
:1009900088CF8DE186CF8BE184CF86E082CF89E15D
:1009A00080CF85E07ECF80E17CCF80E57ACF81E586
:1009B00078CF82E576CF8FE474CF0E948B0380914D
:1009C0003801909139018F3E2DE5920741F48CE278
:1009D0000E94120A81E0809332010C94E101803F71
:1009E0009D45C1F780913F018111F1CF80E9F0CFA2
:1009F0008091320181110AC08091380190913901B2
:100A00008F5E9D45029710F40E94DD0480913801AD
:100A1000909139018F3E2DE59207F1F48CE20E940E
:100A2000820A0E94E1018091380190913901803F52
:100A30009D4559F480913F01811107C081E0809369
:100A40003F0180913E010E94130E109232011092DC
:100A50003901109238010895803F9D4511F780912A
:100A60003F018111DBCF80E9DACF1F93CF93DF9372
:100A70000E948B03C0913A01D0913B01CE010E94AC
:100A80004902182F6091380170913901882341F192
:100A900010913F01C33B2DE5D20794F1C53B8DE595
:100AA000D8072CF0CE01835D9D45029748F51123B0
:100AB00029F10E946912C82F827239F18C2F8D7D25
:100AC0000E94791211E0E0913A01F0913B01E65A5F
:100AD000FD45E934F105F8F4E758FA4D0C94C323C9
:100AE0006F3E7D4559F4CD3D8DE5D8073CF0CF3DB7
:100AF0002DE5D207F4F2CA3EDD45D9F2C0E0E3CFDE
:100B0000CE010E9433021827D2CF8C2F8260D8CF1B
:100B100085E30E94120A80913801909139018F3E3D
:100B20002DE5920709F0B1C0E0913A01F0913B0147
:100B3000E35BFD45E833F10508F060C0EE53FA4D84
:100B40000C94C3238AE3E5CF8BE3E3CF8CE3E1CFBF
:100B50008DE3DFCF8EE3DDCF8FE3DBCF80E4D9CF32
:100B600081E4D7CF82E4D5CF83E4D3CF84E4D1CF5F
:100B700085E4CFCF8CE4CDCF8EE1CBCF8FE1C9CF51
:100B800080E2C7CF81E2C5CF82E2C3CF83E2C1CF8B
:100B900084E2BFCF85E2BDCF86E2BBCF87E2B9CF8B
:100BA0008AE2B7CF8FE2B5CF80E3B3CF81E3B1CF95
:100BB0008AE4AFCF8EE4ADCF8BE4ABCF8DE4A9CF89
:100BC0008BE10E94120A84E017C085E10E94120A9C
:100BD0008CE012C08BE10E94120A8CE1F2CF85E119
:100BE0000E94120A88E008C083E1EBCF87E0EECFD5
:100BF0008AE00E94120A88E10E94120A112319F069
:100C00008C2F0E94791281E080933101DF91CF9186
:100C10001F910C94E10187E0ECCF83E1D7CF8DE207
:100C2000EBCF8EE2E9CF8CE4E7CF8AE10E94120A93
:100C300082E1E2CF81E1C5CF8BE10E94120A8CE113
:100C4000D8CF80E1F3CF85E0BCCF87E0EFCF8AE05B
:100C5000BDCF83E1EBCF8AE2CFCF8BE1CACF85E175
:100C6000E5CF8BE1B3CF83E1C4CF8DE1DFCF83E16B
:100C7000B7CF85E0DBCF88E3BFCF80E5BDCF81E58F
:100C8000BBCF8BE4B9CF8DE4B7CF803F9D4509F052
:100C9000B5CFE0913A01F0913B01E35BFD45E833CC
:100CA000F10508F0ABCFE650FA4D0C94C3238AE06F
:100CB00088CF87E086CF8AE0B9CF8DE182CF81E10E
:100CC00085CF85E196CF80E17CCF8BE189CF89E12B
:100CD00090CF8DE17BCF87E083CF8AE081CF8DE11C
:100CE0007FCF80E173CF81E1A1CF8BE10E94120A17
:100CF0008CE19CCF8BE10E94120A87E17ACF85E0DC
:100D000065CF8DE176CF85E074CF85E069CF81E155
:100D100070CF80E16ECF8AE154CF8BE187CF8AE438
:100D20006BCF8EE469CF82E567CF8FE465CF80918A
:100D30003C01823049F018F4813021F0089585306B
:100D400028F008950C949B030C94DD040C94350555
:100D500080912E0190912F01892B11F40C9497060C
:100D6000089580913C01823071F028F4813041F087
:100D700010923C0108958530D8F70E945902F8CFAF
:100D80000E943404F5CF0E94F804F2CF10923F0184
:100D90000E94B10680913E010C94340ECF92DF92F6
:100DA000FF920F931F93CF93DF93EC016B0181E0D0
:100DB00090E090932F0180932E010E94C31C8C0120
:100DC000D6011296FC9012979E01265A3D458091BD
:100DD0003C01FF2009F49DC02934310508F043C0CF
:100DE0008230E9F1F0F4882311F1813011F1D093D0
:100DF0003B01C0933A01109337010093360180E024
:100E000095E00E942F08F12C10922F0110922E01D4
:100E10008F2DDF91CF911F910F91FF90DF90CF9099
:100E20000895833049F0843011F70E94590281E01F
:100E300017C00E943404DBCF8091340190913501BA
:100E40002091360130913701FC01E21BF30BA80120
:100E5000481B590BE417F50740F30E94340484E063
:100E600080933C01C4CF9E012F5E3D452230310569
:100E700090F5823049F168F4882311F1813049F10D
:100E8000D0933901C0933801109335010093340198
:100E9000B6CF833099F0843099F7809136019091E4
:100EA00037012091340130913501DC01A21BB30BD5
:100EB000F801E81BF90BAE17BF0748F40E9459026E
:100EC00082E080933C01DCCF0E94F804D9CF0E94DD
:100ED000F80483E0F6CF882309F496CF809130019F
:100EE000883090F4282F30E0F901EE0FFF1FE20F59
:100EF000F31FEA5DFD4FD183C08312969C919283CC
:100F00008F5F809330017FCF0E949706FF24F39478
:100F10007BCF2B34310508F070C08230A1F180F412
:100F2000813009F071CF80913A0190913B018C178B
:100F30009D0709F069CF0E94340410923C0164CFF0
:100F4000833061F1843009F05FCF80913801909156
:100F500039018C179D0709F04BC0809136019091A3
:100F60003701081B190B2091340130913501821B88
:100F7000930B80179107C8F104311105B0F50E9459
:100F8000F80481E027C080913801909139018C17D5
:100F90009D0709F039CF0E94F804CFCF80913A0124
:100FA00090913B018C179D07C1F480913401909181
:100FB0003501081B190B2091360130913701821B36
:100FC000930B8017910788F00431110570F40E948B
:100FD000340482E080933C0117CF809138019091D6
:100FE00039018C179D0709F00FCF0E945902A5CF38
:100FF00080913A0190913B01F4CF882309F486CF88
:1010000080913001883008F07FCF282F30E0F9013F
:10101000EE0FFF1FE20FF31FEA5DFD4FD183C08388
:1010200012969C9192838F5F80933001EDCEF8945D
:1010300090934101809340011092800085E080935D
:1010400081001092820010928500109284008FEF30
:101050009FEF909389008093880078940895F89486
:1010600010928500109284009093890080938800EC
:1010700082E080936F00789408951F920F920FB6CC
:101080000F9211242F933F934F935F936F937F930E
:101090008F939F93AF93BF93EF93FF93E0914001A2
:1010A000F09141010995FF91EF91BF91AF919F910F
:1010B0008F917F916F915F914F913F912F910F9001
:1010C0000FBE0F901F90189581E00C9400020F93B3
:1010D0001F93CF93DF93EC018B01C13F8DE5D807C0
:1010E00099F4FB018281882359F081E90E94120A58
:1010F0000E94C60680E0DF91CF911F910F91089565
:1011000081E90E94820AF6CFCE010E940F02B80147
:10111000CE01DF91CF911F910F910C94CE068111DA
:1011200006C08EE4611101C08BE40E94E80A81E0F0
:1011300008959C013A9521153F4150F5FC01EE2799
:10114000F170BC0166277270AC01442754709C0199
:101150002227387094FF0EC080E1EF2B09F480E065
:10116000672B09F08062452B09F08064232B89F0FE
:101170008068089581E0EF2B09F480E0672B09F087
:101180008260452B09F08460232B19F08860089554
:1011900080E00895CF93DF93EC010E9499089E01AF
:1011A000205E31092830310510F0209739F40E9473
:1011B000F00A8C2FDF91CF910C94120A0E94400DFF
:1011C000F8CFCF93DF93EC010E94820ACE010E94F8
:1011D00099089E01205E31092830310510F0CD2B91
:1011E00021F4DF91CF910C94F70ADF91CF910C9409
:1011F000470D81E008950C94670808950C94FD084C
:101200001F93CF93DF9300D000D00F92CDB7DEB7FE
:1012100049835A836B833091420189819A813111CC
:101220001DC06623B9F02223A9F00E94060F182FD3
:10123000682F89819A810E94AF0E69817A81812FFE
:101240000F900F900F900F900F90DF91CF911F9103
:101250000C94B4150E94DD0E182FEFCF0E94060FDC
:1012600069817A81EDCFFC01262F40815181628115
:10127000738184810C94000981E00895CF93DF93FA
:10128000EC0160E00E943309BE01DF91CF910C9424
:10129000FE080E94C0160E94C6090C94E4160C9425
:1012A000E71680E00C94C709089508950E94580D30
:1012B0000E9455092FEF84E39CE02150804090402C
:1012C000E1F700C000000C940E1D0F931F93CF9305
:1012D000DF938C0161E00E943309EC01B8010E94A8
:1012E000FB088823A9F1B801CE010E94C91A8823FE
:1012F00079F1B801CE010E94B118882349F1B801F3
:10130000CE010E94331A882319F1F80182818823C3
:1013100061F0CB35FDE5DF0721F170F4C115ECE597
:10132000DE07A1F0CF3DDC45C9F0C801DF91CF91C8
:101330001F910F910C94F908CC358DE5D807A1F0D9
:10134000CD35DD4591F70E943113EFCF0E9456094C
:1013500080E0DF91CF911F910F9108950E94EB13D0
:10136000F7CF0E943A13E1CF0E943D13DECF0C94D9
:1013700054090E94251B0E94C7090C94B7090895BF
:101380000C94BF0981E008950C94C2090895CF938D
:10139000C82F0E94C0098C2FCF910C94C409CF9301
:1013A000DF93CDB7DEB72B970FB6F894DEBF0FBE35
:1013B000CDBF4F83588769877A878B8761110E94D9
:1013C0008C121E821D8285E0FE013796DE01119689
:1013D00001900D928A95E1F78C819D81892B89F48A
:1013E00049815A816B817C818D819E810E94AA11E5
:1013F0002B960FB6F894DEBF0FBECDBFDF91CF9115
:10140000089589819A8189238F3F51F3CE010196F6
:101410000E943C098111E4CFEBCFFC0180819181D6
:101420000C94480FCF93C82F882309F469C08238E1
:10143000C1F40E94251B81FD63C089E30E94441210
:101440000E94AF122FEF81EE94E021508040904037
:10145000E1F700C0000089E30E944B12CF910C9489
:10146000AF128338A1F40E94251B80FD49C083E59B
:101470000E9444120E94AF122FEF81EE94E021509F
:1014800080409040E1F700C0000083E5E5CF84385C
:10149000A1F40E94251B82FD33C087E40E94441200
:1014A0000E94AF122FEF81EE94E0215080409040D7
:1014B000E1F700C0000087E4CFCF8CEF8C0F813ABA
:1014C00090F46C2F80910201909103010E948B1B7C
:1014D000882329F08C2F0E944B120E94AF128C2F70
:1014E0000E944412BBCF80E28C0F883048F4C77052
:1014F00081E001C0880FCA95EAF70E946C12AECF56
:10150000CF910895882309F44BC0823871F40E946A
:10151000251B81FF45C089E30E9444120E94AF123F
:1015200089E30E944B120C94AF12833859F40E9445
:10153000251B80FF35C083E50E9444120E94AF1234
:1015400083E5EFCF843859F40E94251B82FF28C021
:1015500087E40E9444120E94AF1287E4E2CF9CEF1E
:10156000980F913AF0F290E2980F983050F487700B
:1015700091E001C0990F8A95EAF7892F0E947212B3
:10158000D2CF9BE5980F933020F490E080E00C944C
:101590004B1B885A873120F490E080E00C94611B4B
:1015A00008951F93CF93DF93182FEB010E94120A27
:1015B000209731F4812FDF91CF911F910C94820AF3
:1015C0008FE99FE00197F1F700C000002197F0CF6D
:1015D00070E060E0893311F460E570E00C94D10AAA
:1015E000882321F00E946C120C94AF120895882376
:1015F00021F00E9472120C94AF120895BF92CF9204
:10160000DF92EF92FF920F931F93CF93DF936C01C2
:10161000D62FC72FFC011281F580F2949FE0F922AA
:101620000E946212E82E8823B9F0E12E1123A1F066
:101630008C2F807F803421F080E28D0F8830D0F0B5
:1016400080913F0282FD16C082E00E9400130E943A
:10165000621291E0E82EE926BC2EB2948FE0B82207
:10166000FBE0FB1508F468C0EB2DF0E0EE5CF94DF3
:101670000C94C323E12CF0CF0C2F0F70C07F11F01E
:101680000295007F112399F0002359F080E28D0F1D
:10169000883010F0D11107C0802F0E946C120E9478
:1016A000AF128D2F41C0802F0E947F12F8CF8D2F57
:1016B0000E94820A002309F43FC080E28D0F883027
:1016C00010F0D11104C0802F0E94721203C0802F2D
:1016D0000E9485120E94AF122FC00C2F0F70C07F86
:1016E000C03211F00295007FDD2381F0D13009F482
:1016F00069C0112309F473C0FF2009F469C0F60121
:10170000858180FFCECF8F70858362C080913F023C
:1017100082FF38C0112359F0002329F0802F0E9446
:101720006C120E94AF1280E00E94120A05C080E095
:101730000E94820A0111C7CFEB2DE850FF0B3497AE
:1017400020F40E94251B0E94C709EE2009F44BC11A
:101750000E945E1280FD47C1F60112820E9458125B
:101760000E94130EC6010E94140D0E945812DF91B0
:10177000CF911F910F91FF90EF90DF90CF90BF908E
:101780000C94340E112389F0F11006C00E949212BD
:10179000802B0E94F00AD0CF21E0F212F7CF0E94F6
:1017A0009212802B0E949812C7CFF11006C00E949F
:1017B000A512802F0E94F70ABFCF31E0F31609F47B
:1017C000BBCFF5CF112331F085E08F1508F4B4CFEE
:1017D000802FDFCF94E09F1508F4AECFEACFFF2033
:1017E00041F3D93349F4FFEF27EE33E0F1502040C5
:1017F0003040E1F700C000008D2F0E94820A9CCF8C
:101800008C2F837009F041C0111196CF4D2F429556
:1018100046954770440F440F0D2F0F7010E030E0D5
:1018200020E0042E04C0000F111F221F331F0A9452
:10183000D2F760E070E0CB01D4FF0FC06FE070E042
:1018400080E090E004C0660F771F881F991F4A95BB
:10185000D2F76095709580959095C695C695C370A2
:10186000602B712B822B932BC23049F058F4C1307E
:1018700019F00E94C50D60CF0E94B30D5DCF0E948C
:10188000D70D5ACF0E94B10D57CF8695112311F075
:101890008C2F8170882309F44FCF4D2F42954695A8
:1018A0004770440F440F0D2F0F7010E030E020E020
:1018B000042E04C0000F111F221F331F0A94D2F7F9
:1018C00060E070E0CB01D4FF0FC06FE070E080E01B
:1018D00090E004C0660F771F881F991F4A95D2F7C2
:1018E0006095709580959095C695C695C370602B50
:1018F000712B822B932BC23049F058F4C13019F070
:101900000E948A0E19CF0E94780E16CF0E949C0E5C
:1019100013CF0E94ED0D10CFCF70112329F08C2F23
:101920000E94130E8D2F35CF8D2F0E94F70A8C2F1A
:101930000E94340E01CFD23F51F160F4D03FB9F094
:10194000D13F81F0112309F449C0F110AACE8C2FA8
:101950008F7121C0D33F11F1D43FA1F780913F0295
:1019600082FF26C08C2F8F71112311F314C0112315
:1019700049F084E08F1508F4DFCE8C2F8F710E9420
:10198000570EDACE95E09F1508F4D6CEF6CF8C2F01
:101990008F711111CDCF0E94130ECECE112329F0DD
:1019A0008C2F8F710E94FE0DC7CE0E94F90DC4CE00
:1019B000112349F0CF718C2F0E94130E63E08C2FFE
:1019C0000E94E512B9CE81E00E940013E1E0EF151C
:1019D00008F0B2CE82E00E940013AECEF11001CF2B
:1019E0008C2F8F71A5CFDF91CF911F910F91FF9019
:1019F000EF90DF90CF90BF9008950F931F93CF93F8
:101A0000DF93EC01688179818A810E94520F8C01F9
:101A10000E94AE0E0E94B00DB801CE01DF91CF91B1
:101A20001F910F910C94FE0ACF93DF93EC018B81F1
:101A30009C81892B29F08881998189238F3F59F4D2
:101A4000DF91CF910895CE010E94FD0CCE01DF9170
:101A5000CF910C943E09CE010E9465098111F3CF0C
:101A60000E946212882361F38A81882349F380915E
:101A70003F0282FDE5CF82E0DF91CF910C9400130D
:101A8000882321F00E947F120C94AF1208958823BE
:101A900021F00E9485120C94AF1208950E948C12BE
:101AA0000E948F120C94AF120E9452120C944E0D91
:101AB0000E947C120C94540DE92FE295EF70E250D5
:101AC000EE3070F4F0E0E25CF94D0C94C323803FFB
:101AD00019F020F4883E20F481E00895843FE1F37A
:101AE00080E00895883EC0F3813FD1F7F5CF93FBA6
:101AF000882780F90895FC01808191810E94480F18
:101B00000C945C0DCF93DF9300D000D00F92CDB733
:101B1000DEB70F900F900F900F900F90DF91CF9145
:101B20000895CF93DF9300D000D000D0CDB7DEB7BB
:101B300026960FB6F894DEBF0FBECDBFDF91CF91D2
:101B4000089508950C94A10D0E94A20D60936F0159
:101B50007093700180937101909372010C944E0DFB
:101B600008950C94A40D0F931F9300916F01109191
:101B700070012091710130917201602B712B822BC9
:101B8000932B1F910F910C94A40D0F931F93009111
:101B90006F011091700120917101309172016023E9
:101BA0007123822393231F910F910C94A40D0F9303
:101BB0001F9300916F01109170012091710130917C
:101BC000720160277127822793271F910F910C9430
:101BD000A40D0C94A10D0C94E90D0E94EB0D6093E3
:101BE0006B0170936C0180936D0190936E010C9466
:101BF0004E0D60E070E0CB010C94ED0D0F931F9340
:101C000041E050E060E070E08A019B0104C0000FF9
:101C1000111F221F331F8A95D2F7C901B8011F91E6
:101C20000F910C94ED0D0F931F9341E050E060E095
:101C300070E004C0440F551F661F771F8A95D2F7C6
:101C400080916B0190916C01A0916D01B0916E013A
:101C50008A019B01082B192B2A2B3B2BC901B801A8
:101C60001F910F910C94ED0D0F931F9341E050E0E5
:101C700060E070E004C0440F551F661F771F8A950F
:101C8000D2F7CB01BA01609570958095909500913F
:101C90006B0110916C0120916D0130916E016023F8
:101CA0007123822393231F910F910C94ED0D0F93B9
:101CB0001F9341E050E060E070E004C0440F551F06
:101CC000661F771F8A95D2F780916B0190916C0106
:101CD000A0916D01B0916E018A019B01082719271F
:101CE0002A273B27C901B8011F910F910C94ED0DD4
:101CF0000F931F9300916B0110916C0120916D0166
:101D000030916E01602B712B822B932B1F910F91C1
:101D10000C94ED0D0F931F9300916B0110916C01CA
:101D200020916D0130916E016023712382239323F2
:101D30001F910F910C94ED0D0F931F9300916B0168
:101D400010916C0120916D0130916E016027712717
:101D5000822793271F910F910C94ED0D0895E92F81
:101D6000EE0FE90FEE0F8E0F982F977041E001C034
:101D7000440F9A95EAF786958695869595E0899F12
:101D8000F0011124ED5BFE4F30E020E070E0519156
:101D9000DF011197CB01022E02C0969587950A9418
:101DA000E2F7817081958527842385278C932F5FA7
:101DB0003F4F2530310559F70895E92FEE0FE90F10
:101DC000EE0F8E0F982F977086958695869525E055
:101DD000829FF0011124ED5BFE4F50E040E080E077
:101DE000219130E0092E02C0369527950A94E2F73A
:101DF00021703327042E01C0220F0A94EAF7822BA8
:101E00004F5F5F4F4530510559F70895BF92CF920C
:101E1000DF92EF92FF920F931F93CF93DF938C018A
:101E2000C0906B01D0906C01E0906D01F0906E015C
:101E300080916F0190917001A0917101B091720138
:101E4000C82AD92AEA2AFB2ACFE1D0E0BC2ED70142
:101E5000C6010C2E04C0B695A795979587950A9450
:101E6000D2F780FD0EC0219788F7B12C8B2DDF9122
:101E7000CF911F910F91FF90EF90DF90CF90BF9087
:101E80000895B8018C2F0E94C815019761F3EECF19
:101E9000CF93DF93EC010E94060FBE01DF91CF913B
:101EA0000C94C8151F93CF93DF93EB0190914201DF
:101EB000992331F0CB01DF91CF911F910C94480F02
:101EC000882379F0CB010E94060F182F682FCE01CE
:101ED0000E94AF0EBE01812FDF91CF911F910C9414
:101EE000C815CB010E94DD0E182FF4CF1F93CF939E
:101EF000DF93C091730116E0809174018C1304C0CC
:101F0000DF91CF911F910895D0E01C9FF0011D9F9C
:101F1000F00D1124EB58FE4F408151816281738195
:101F2000848195810E94910D2196C770E5CF4091E3
:101F3000A5015091A6016091A7017091A80180911F
:101F4000A9019091AA010C94910DFF920F931F93F8
:101F5000CF93DF938091AA01807FD1F48091A70174
:101F60008823B1F080917301109174016091A501F3
:101F70007091A601A091A801B091A901062F072395
:101F8000C0910001D091010196E0F92E181306C00E
:101F9000DF91CF911F910F91FF90089590E01097DE
:101FA00011F00F3F19F401968770F0CFF89E900161
:101FB000F99E300D1124F901EB58FE4F4181471372
:101FC000F2CF40814613EFCF42814111ECCF4381E4
:101FD00054814A1B5B0B4C175D0728F78091AA01BF
:101FE0008F7080618093AA01F901E658FE4F8081CD
:101FF0008F708061808385EA91E00E94140DDF91EB
:10200000CF911F910F91FF900C94760FAF92BF92DA
:10201000CF92DF92EF92FF920F931F93CF93DF93B4
:10202000CDB7DEB761970FB6F894DEBF0FBECDBF58
:102030008C0185E0F801DE011D9601900D928A95D4
:10204000E1F7F801E28085EAC82E81E0D82E6091A0
:10205000A8017091A9016115710509F45FC1909102
:10206000A5012091A601892F82238F3F09F456C133
:1020700040815181A380B480F090A701F501E61B57
:10208000F70BBF01E0910001F0910101FF2009F47D
:10209000F6C08091AA01382F307F6E177F0708F0B5
:1020A000AFC0311179C0FE2C251323C0941321C079
:1020B000E1101FC08F7080618093AA010E94970F6A
:1020C000C6010E94140D8091AA01F80185838F2D0D
:1020D00061960FB6F894DEBF0FBECDBFDF91CF91F2
:1020E0001F910F91FF90EF90DF90CF90BF90AF9036
:1020F0000895AB2829F0842F85238F3F09F027C14D
:1021000080E0F82FF170DF2E80FF3CC080917301DA
:102110002091740136E0821315C04D875E878D854E
:102120009E850E94480F292F22952F702230F0F0B3
:10213000243018F59F70F1F0F8019581907FD1F46B
:10214000D12C1EC090E0389FF001399FF00D112472
:10215000EB58FE4F6181651306C06081641303C0B4
:1021600062816E110FC001968770D5CF9F7011F0FC
:10217000882331F3805E883018F3C8010E94140D63
:10218000FD2CA5CFEE2009F4A2CF8091AA01816099
:102190008093AA01F12C9BCF251306C0941304C091
:1021A000F801EE2009F487C0C8010E947B0D882346
:1021B00019F1EE2009F18091AA01803270F020918E
:1021C000A5013091A60138872F831986BB86AA8680
:1021D0008C87CE0107960E94140D86E0F801A5EACF
:1021E000B1E001900D928A95E1F70E94A50F0E943F
:1021F000970FFF24F3946BCFC8010E94140DF9CF01
:10220000311113C07A2DB98AA88A6E2D89890E944E
:10221000820D85EA91E00E94140D86E0F60111928C
:102220008A95E9F70E94970FB5CF25130FC0941335
:102230000DC0E1100BC0F8018583C8010E94140D88
:1022400086E0F60111928A95E9F741CFC8010E9414
:102250007B0D882389F2EE2079F28091AA018032E9
:1022600008F4BBCF2091A5013091A6013A832983C0
:102270001B82BD82AC828E83CE010196ACCF6E17DD
:102280007F0708F03EC0FE2CEE2009F4B5CF2513E1
:102290002AC0941328C08091AA0180FD1BC0982FEA
:1022A000907FC1F0F8018583903F31F0982F907FA7
:1022B000905F8F70892B8583C8010E94140D86E082
:1022C000F801A5EAB1E001900D928A95E1F70E942C
:1022D000970FFDCE86E0F801A5EAB1E001900D92DE
:1022E0008A95E1F7F4CEC8010E947B0D811175CF6C
:1022F0008091AA0181608093AA01C8010E94140DF7
:10230000E6CE7A2DB98AA88A6E2D89890E94820D1F
:1023100086E0F60111928A95E9F7D9CFEE2009F40B
:102320006BCFC8010E947B0DF82E882309F464CF7F
:1023300086E0F801A5EAB1E001900D928A95E1F7F7
:1023400085EA91E00E940D0A0E94A50FC0CF81E0AE
:102350008E25D7CE1F93CF93DF93CDB7DEB72C97C3
:102360000FB6F894DEBF0FBECDBF4F835887698785
:102370007A878B879C87CE0107960E940610882358
:1023800069F08A859B85892B39F04F815885842F88
:1023900085238F3F09F071C016E05FC086E0FE0123
:1023A0003796DE01119601900D928A95E1F78A85A4
:1023B0009B85892B89F38F81988589238F3F61F3D2
:1023C0002091740130E0C9010196877099274091EE
:1023D00073014817190671F40E94580D1092740188
:1023E0001092730186E0E5EAF1E0DF011D928A9523
:1023F000E9F7D2CF96E0929FD001939FB00D1124C0
:10240000AB58BE4FFE01319601900D929A95E1F7BF
:10241000809374010E94760FBFCF819FC001112469
:102420008B589E4F0E9406108823E9F0E0917301BB
:102430001E9FF0011124EB58FE4F408151816281B3
:102440007381848195810E94910D8091730190E048
:102450000196877099278093730180917301909101
:1024600074018913DACF2C960FB6F894DEBF0FBE35
:10247000CDBFDF91CF911F91089569857A858B85B6
:102480009C850E94910D88CF682F809102019091C8
:1024900003010C940B1C682F8091020190910301A1
:1024A0000C94161C80910201909103010C94211C44
:1024B0008091AB0185958595859508958091AB01B7
:1024C000877008959091AB01977081E009F480E0E6
:1024D00008958091CF0108959091CF01892B809329
:1024E000CF01089580959091CF0198239093CF01CB
:1024F00008958093CF0108951092CF01089590918F
:10250000CE01892B8093CE01089580959091CE01C4
:1025100098239093CE0108951092CE0108951092C1
:10252000CD0108958091AC01089508950C94951201
:1025300090913F0292FD08C09091AC01981721F054
:102540008093AC010C94961208958091AC0188237D
:1025500029F01092AC0180E00C9496120895E0915D
:102560000201F09103018091CF018083E09102018B
:10257000F091030180819091CE01892B8083E091BD
:102580000201F091030180819091CD01892B80831C
:102590009091AC01992381F0E0910201F091030147
:1025A0008081892B808380910201909103010E9498
:1025B000771B81110E94A512809102019091030165
:1025C0000C94311B08950C94E21290913F0292FDFD
:1025D00010C098E0899F90011124622B6093AB0199
:1025E0000E94130E8091AB018595859585950C947D
:1025F000E3120C94130E1092AB0180E00C94E312E2
:102600009091AB01809589238093AB01282F27708F
:1026100091F4282F082E000C330B9217130659F053
:1026200090913F0292FD07C08595859585950E9402
:10263000340E0C94FB12089590913F0292FB2227D6
:1026400020F9281769F080FB92F990933F0280915E
:102650003E0290913F020E94671382E00C940013A7
:10266000089580913F0282FB882780F991E08927B5
:102670000C941C1381E00C941C1380E00C941C132C
:102680006FEF7FEF90E080E00C94162490E080E004
:102690000E94F22321E0893E9E4F09F020E0822F24
:1026A000089582E090E00C94EA2383E090E00C949B
:1026B000EA23CF9384E090E00E94EA23C82F82E2CD
:1026C00090E00E94EA23982F8C2FCF910895CF930A
:1026D000C92F682F84E090E00E94F8236C2F82E2DB
:1026E00090E0CF910C94F823AB01BC018FE090E017
:1026F0000C940A24AB01BC0183E190E00C940A2401
:1027000060E070E0CB010C947A1360E070E0CB01E4
:102710000E9474130C94801369EE7EEF90E080E0C9
:102720000E94162460E082E090E00E94F82360E0BE
:1027300083E090E00E94F82310926F0110927001E4
:10274000109271011092720160E084E090E00E94AA
:10275000F82360E082E290E00E94F82360E085E0E8
:1027600090E00E94F82360E086E090E00E94F82369
:102770006FEF87E090E00E94F82340E050E0BA015C
:1027800088E090E00E940A2460E08DE090E00E94E2
:10279000F82340E050E0BA0188E190E00E940A246A
:1027A00060E087E190E00E94F82340E050E0BA0149
:1027B0008CE190E00E940A2470E060E080E290E00A
:1027C0000E94162440E050E0BA0188E190E00E94A7
:1027D0000A240C9485130C948C13682F8EE090E0DF
:1027E0000C94F8230E94CF1C6093E3017093E401E2
:1027F0008093E5019093E6016093DF017093E0011F
:102800008093E1019093E20108950E94CF1C6093B0
:10281000E3017093E4018093E5019093E6016093F6
:10282000DB017093DC018093DD019093DE0108955C
:1028300085B7806885BF85B7806885BF089508958E
:1028400008950C941F1408950C9423140E941814D6
:1028500086EA96E10E941B1B0E9420140C9421140E
:1028600081E008950C943014089508950E94341462
:102870000C9435140E94BA1C0E94F1170E94DD19B5
:102880000C942414AF92BF92CF92DF92EF92FF92FA
:102890000F931F93CF93DF93CDB7DEB72A970FB671
:1028A000F894DEBF0FBECDBF0E94061881110E94B2
:1028B000F21381EDA82E81E0B82E10E000E0C02ECA
:1028C000802F0E94E916E82EF501F1905F01F816BD
:1028D00009F451C08091E70181FD0E94EF168F2D10
:1028E0008E25D12CFF24F394982F9F2109F43EC00C
:1028F0000E943214882399F0DE82CF82EF2081E09B
:1029000009F480E088870E94C31C8160782F9A8731
:1029100089874E815F8168858A850E94CF09F80189
:10292000EF52FE4F8081F826F0820E94EC1981114F
:102930000E9405140E94251B9091D001891791F1E6
:102940000E94251B8093D0012A960FB6F894DEBF13
:102950000FBECDBFDF91CF911F910F91FF90EF90F0
:10296000DF90CF90BF90AF900C94C709D394FF0C29
:10297000F6E0DF12B9CF0F5F1F4F0A30110509F0E3
:102980009ECF8FEF89838A831B820E94C31C816044
:10299000782F9D838C8349815A816B818D810E9420
:1029A000CF09C3CF2A960FB6F894DEBF0FBECDBFB6
:1029B000DF91CF911F910F91FF90EF90DF90CF901B
:1029C000BF90AF900895CF93DF930E94CC15EC0198
:1029D000811523E5920790F5811532E5930708F0FC
:1029E00096C081159042C8F4C11581E0D80788F4DB
:1029F000C53AD10548F4C430D10558F4C130D105E9
:102A000041F0D0E0C0E005C0CE01805E910908979A
:102A1000C0F7CE01DF91CF910895C11591E5D90797
:102A200008F070C0C11520E5D20708F04EC0C115EE
:102A300030E4D30730F3DF70D06AEBCF811546E581
:102A40009407F0F4C11585E5D80708F075C0C115E5
:102A500094E5D90708F06BC0CE018370992721E077
:102A600030E002C0220F331F8A95E2F7C695C69563
:102A700090E2C99FE0011124C22BD32BDA68C9CFA1
:102A800081152AE5920778F4811539E5930708F056
:102A90005EC0811548E5940708F4B3CFD82FCC2742
:102AA000C06FD06AB6CF90568115904208F0A9CF7A
:102AB0008D2F8F710E94631690E0982F88278827AA
:102AC0009F719C012C2BE90140C0CE01E4E096955A
:102AD0008795EA95E1F783702C2F2695269523702C
:102AE00040E2249F90011124382B8C2F8370C1E089
:102AF000D0E002C0CC0FDD1F8A95E2F7C22BD32BAA
:102B0000DC6887CFDC2FCC27C16FD06A82CF83707F
:102B1000992721E030E002C0220F331F8A95E2F7A7
:102B2000C695C69580E2C89FE0011124E7CFDC2F4F
:102B3000CC27C46FD06A6DCF8C2F0E946316C82F2C
:102B4000D0E0DC2FCC27CC27DF71D06262CF8F7032
:102B50000E94631634E0D695C7953A95E1F7CF7099
:102B60009C2FEC01D06955CF972F70E026E0929F03
:102B7000600D711D1124FB019CE3899FE00DF11D87
:102B80001124EE0FFF1FE455FF4F85919491089596
:102B90000E94B4150C94E31482389105B1F1B0F49D
:102BA0008133910509F475C048F48932910509F41F
:102BB00069C08A32910509F473C00895853391057F
:102BC00009F459C08933910501F10895833E9105B7
:102BD000A9F138F4803E9105F9F0823E910549F162
:102BE0000895863E9105A9F1873E9105C9F1843E7D
:102BF000910519F520913F0221FF1FC080913E02EF
:102C000084FD14C087EE90E0089520913E02237069
:102C1000A1F080EE90E0089520913E0220FD47C093
:102C200030913F0230FF09C024FF44C090E080E0B3
:102C300004C020913E0222FDF7CF089520913E026C
:102C400022FD3BC030913F0230FDE3CF24FFF5CFA2
:102C5000EDCF20913E0223FFF0CF24FDE7CFD2CF6E
:102C600020913E0223FD2CC030913F0231FFEECF78
:102C700084EE90E0089520913E0225FFDECF89E2A8
:102C800090E0089520913E0225FFD7CF85E390E0A4
:102C9000089520913E0226FFD0CF8AE290E0089569
:102CA00020913E0226FFC9CF81E390E0089589E399
:102CB00090E0089583EE90E0089582EE90E008950C
:102CC00086EE90E0089590913E0292FF06C0282F74
:102CD00028712830F9F4877F846093FF06C0282F7D
:102CE00028712831F1F4877E846120913F0220FF12
:102CF00006C0382F38713830D9F4877F816021FFC2
:102D000006C0282F28712831D1F4877E816194FD77
:102D1000877E0895282F24712430F9F68B7F8860F0
:102D2000DCCF282F2471243101F78B7E8861DDCF21
:102D3000382F3171313019F78E7F8860E0CF282F1E
:102D40002171213121F78E7E8861E1CF80E00895E5
:102D50000C9440130E9406188FE39CE90197F1F749
:102D600000C000000E94061880E00E94E91680FF63
:102D700004C00E94A8160C940E1D08950C94AA1667
:102D80000E944613811102C00E94EB130E9451134E
:102D90008093E7010E94591390933F0280933E0273
:102DA0000E94BE160E945513682F70E090E080E0EC
:102DB0000E94B10D60916B0170916C0180916D0169
:102DC00090916E010C94EB0D0C94640808950C9492
:102DD000E616E82FF0E0E65BFD4F80810895089548
:102DE00080EA8A95F1F7089500C008950C94F016D2
:102DF000F894E82FE295EF70F0E031A1282F2F70C2
:102E000081E090E001C0880F2A95EAF7982F90950D
:102E1000932391A392A1892B82A378940895F89487
:102E2000E82FE295EF70F0E031A1282F2F7081E0BC
:102E300090E001C0880F2A95EAF7382B31A392A1C0
:102E40008095892382A378940895DF92EF92FF9270
:102E50000F931F93CF93DF93EC01D62E062F10E034
:102E6000F801E95EFE4FE0808FEFE81681F18E2DCC
:102E70000E940F170E94F416E1E1F1E047E151E0F2
:102E800081E0F12C91919F3F79F0A92FA295AF702D
:102E9000B0E090962C9130E09F7002C03595279558
:102EA0009A95E2F7982F20FD90E0F92A880F4E17A7
:102EB0005F0741F78E2D0E94F81661E0F11001C006
:102EC00060E08D2D0E94F616C00FD11FF882DF91B1
:102ED000CF911F910F91FF90EF90DF900895CF92C7
:102EE000DF92EF92FF920F931F93CF93DF93E82E21
:102EF000092F162FF42EC62FD0E0CF5EDE4F88812B
:102F00008F3F09F445C00E940F170E94F41687E115
:102F1000C82E81E0D82EEE2DF02FAF014B5F5F4F12
:102F200000E0EF2CE094D6019D916D0181919F010D
:102F3000215031099F3F41F1692F62956F7070E018
:102F4000DB0190966C9170E09F7002C0759567955B
:102F50009A95E2F760FD18C08F29D9018C9301E0A2
:102F6000E417F50701F788818F3F11F00E94F816EA
:102F7000602F812FDF91CF911F910F91FF90EF90E4
:102F8000DF90CF900C94F6168E21D9018C93E8CF68
:102F9000DF91CF911F910F91FF90EF90DF90CF9035
:102FA00008950F931F93CF93DF93C7E1D1E08991E9
:102FB0008F3F11F00E94F81681E0CC31D807B9F7A5
:102FC000C1E1D1E007E111E089918F3F11F00E944A
:102FD000F8160C171D07C1F7DF91CF911F910F91C4
:102FE00008950E94D1178AE0EAE4F2E0DF01982F09
:102FF0001D929A95E9F7E8EEF1E0DF011D928A95BE
:10300000E9F785E00E9461180C944909EF92FF925C
:103010000F931F93CF93DF93CDB7DEB72A970FB6E9
:10302000F894DEBF0FBECDBF8E010F5F1F4F8AE049
:10303000F80111928A95E9F7F12C6F2DC8010E94D1
:103040002517F394F5E0FF12F8CFF12CEE24E3946A
:103050004E2D6F2DCE0106960E946F17F394EE0C45
:1030600086E0F812F5CF4AE050E0B80188EE91E032
:103070000E94DD23FF24F394009709F4F12C892B9F
:1030800041F08AE0F801A8EEB1E001900D928A9536
:10309000E1F72F2D4AE06AE472E088EE91E00E94A9
:1030A00062180E944F098F2D2A960FB6F894DEBF42
:1030B0000FBECDBFDF91CF911F910F91FF90EF9089
:1030C00008950895FF920F931F93CF93DF93F82EE7
:1030D000092F162FD72FC42F222349F081E0809388
:1030E000F4010E94C31C9093F3018093F20180913C
:1030F000F4018823A1F08091F2019091F3010E94E4
:10310000DB1C059760F0EF2DF02FA12FBD2FCE0F08
:10311000DF2FD11DEC17FD0741F41092F401DF9170
:10312000CF911F910F91FF90089581918D93F2CFD0
:103130000E94831E0E943A140C948F1E0E94931EBC
:103140000E9442140C94AD1E0E944D1C0E946A1EE7
:103150000E9426140E9498180E949E180E943614FD
:10316000FBCFCF93DF93EC01FB018281882309F42D
:1031700020C1C430FDE5DF07C8F5CB3F9CE5D9078A
:1031800030F49E0122503C452431310598F50E94CF
:10319000591390933F0280933E02C031FCE5DF0754
:1031A00009F4E0C008F061C0C8309CE5D90709F413
:1031B000CBC088F5C430FCE5DF0709F4B3C0E8F400
:1031C000C2309CE5D90709F4A7C080913E02826015
:1031D000C330DC4509F4A3C080913E0290913F02C8
:1031E0000E9467130E94580D80E004C0C236EDE5CE
:1031F000DE0769F2DF91CF91089580913E028061F0
:10320000C630FCE5DF0709F48AC008F48FC080915E
:103210003E02806284C080913E028D7FCC309CE56E
:10322000D90709F47CC070F480913E028C60CA30EA
:10323000FCE5DF0709F473C008F48AC080913E0200
:103240008E7F6DC080913E02877FCE309CE5D9078E
:1032500009F465C080913E028B7FCF30DC4508F4D5
:103260005EC080913E028F7E5AC0CD3FFCE5DF07F5
:1032700009F474C040F5C4319CE5D90709F48AC04B
:1032800058F4C231FCE5DF0709F474C008F46EC0DD
:1032900080913E02837F43C0CB3F9CE5D90709F470
:1032A00049C008F04DC0C531DC4509F095CF80918B
:1032B0003E0282FB992790F921E0922790FB82F948
:1032C00090FB83F92CC0C1308DE5D80709F458C0B4
:1032D00088F480913F028360CF3FECE5DE0769F11F
:1032E00080913F028D7FC115DD4538F180913F020D
:1032F0008C7F23C0C3308DE5D80709F458C008F48B
:1033000052C0C236DD4509F067CF90913E02892F49
:103310008F7E94FF806103C080913E028160809324
:103320003E025ACF80913E028460F9CF80913E02E6
:103330008860F5CF80913F02816080933F024CCF3F
:1033400080913F028260F9CF80913E028064E7CF96
:103350000E94580D80913E028068E1CF80913F022B
:103360008E7FEBCF80913E028F7DD9CF80913E0240
:103370008F7BD5CF0E94580D80913E028F77CFCFA3
:1033800080913F02982F909591708E7F892B90FBB2
:1033900081F9D3CF0E94580D90913E02892F97FB5F
:1033A00087F98058BCCF81E00E94ED1315CF80E0F3
:1033B000FBCF81E01FCF0C948F085098589A5198FA
:1033C000599A89B18170499905C090E0892B809301
:1033D000F701089592E0FACFE091F701EE0FEE0FBA
:1033E000E093F70149B1842F817049B141FB222755
:1033F00020F941FF02C022E030E0822BE82BE0936D
:10340000F701EF70F0E0E45EFE4F80819091F601ED
:10341000890F8093F60120E0843054F08091F5010B
:103420008F5F8093F50160E080E00E94DB1921E06E
:103430008091F6018D3F54F48091F5018150809385
:10344000F50161E080E00E94DB1921E08091F60146
:10345000082E000C990B64E070E00E94AF2380936B
:10346000F601822F0895CF93DF93EB0186319C45BF
:1034700011F50E9469129A81992399F08A7A91E054
:1034800009F490E09093F801811109C089E20E944B
:1034900044120E94AF1280E0DF91CF91089585E33E
:1034A000F6CF8091F801811104C089E20E944B128D
:1034B000F0CF85E3FBCF81E0EFCF0F931F93CF9346
:1034C000DF93C42FD22FFC0182818823C9F040935F
:1034D000FB010E94C31C9093FA018093F90180E2E2
:1034E0008C0F883008F050C0C77081E001C0880F91
:1034F000CA95EAF7DF91CF911F910F910C94F00AD2
:103500001091FB01141335C08091F9019091FA01DB
:103510000E94DB1C883C910560F5C0E2CD0F1D17B1
:10352000B9F080E2810F883040F4177081E001C06B
:10353000880F1A95EAF70E94F70AC83048F481E02C
:103540009D2F977001C0880F9A95EAF70E94F00AA4
:10355000802F0E94E80AC830B8F4D77081E001C01B
:10356000880FDA95EAF7DF91CF911F910F910C94B4
:10357000F70A80E28C0F883038F4C77081E001C010
:10358000880FCA95EAF7EFCFDF91CF911F910F9186
:1035900008950F939C01CB01243F4CE5340759F16A
:1035A000A8F4293DFCE53F0701F12A3D4CE534072D
:1035B000D1F1283D3C4591F406E221EE41EE68ED63
:1035C0007CE50E945D1A80E00F910895263FFCE59E
:1035D0003F07E9F0B0F0273F3C45F9F0FC0182815C
:1035E000882339F11092FB01EFCF07E225EE45EE7B
:1035F00069ED7CE5E6CF06E221EE40EE64EF7CE586
:10360000E0CF07E225EE44EE65EF7CE5DACF06E297
:1036100021EE42EE66EF7CE5D4CF07E225EE46EEE2
:1036200067EF7CE5CECF08E221E045EE6AED7CE570
:10363000C8CF81E0C9CF90932D0180932C010895CC
:1036400090930102809300020895E0910002F091AE
:103650000102309721F00190F081E02D099480E083
:103660000895E0910002F0910102309799F02091C5
:103670001001222359F020913E0227FF07C0DC01F0
:103680002C9111962C93119726E02C930280F381B4
:10369000E02D099408952091FE013091FF01281733
:1036A000390771F09093FF018093FE01E0910002D1
:1036B000F0910102309721F00680F781E02D099406
:1036C00008952091FC013091FD012817390771F010
:1036D0009093FD018093FC01E0910002F0910102C2
:1036E000309721F00084F185E02D09940895FC01C4
:1036F000329680911001882321F080913E029EE154
:1037000087FF96E080E0915008F4089521912223EC
:10371000D1F38F5FF8CF662301F1209110012223AE
:10372000F1F020913E0227FF1AC0462F469546959C
:1037300046954E3190F4677021E030E002C0220FD0
:10374000331F6A95E2F7840F911DFC01828190E09E
:103750002823392381E0232B69F480E00895FC01BC
:10376000329608962191261721F0E817F907D1F72C
:10377000F4CF81E008959C01FC0132969FEF80E038
:103780004191461751F09F3F19F4411101C0982F04
:103790008F5F8630A9F79F3F09F40895290F311DE7
:1037A00097FD3A95F90162830895FC0132960896D7
:1037B0002191261303C0DF0111971C92E817F90726
:1037C000B9F70895E62FE695E695E695EE3168F4AB
:1037D000E80FF92FF11D677021E030E001C0220FE2
:1037E0006A95EAF78281822B82830895E62FE69517
:1037F000E695E695EE3170F4E80FF92FF11D67704C
:1038000021E030E001C0220F6A95EAF7209582811D
:1038100028232283089520911001222329F020914A
:103820003E0227FD0C94E21B0C94BB1B209110015F
:10383000222329F020913E0227FD0C94F61B0C94C4
:10384000D51BFC01329680911001882351F08091A4
:103850003E0287FF06C08EE1DF011D928A95E9F7DF
:10386000089586E0F9CF08950C94331C811105C0AA
:1038700081E0809302020C94341C82E0FACF83E052
:10388000809302020C94341C0C94361C81E08093CB
:1038900002020C94341C0C94461C089580915C0226
:1038A000843031F10E9451091092030288E190E0C6
:1038B00020E40FB6F894A895809360000FBE209383
:1038C000600083B7817F846083BF83B7816083BFDB
:1038D0007894889583B78E7F83BF0FB6F894A895A8
:1038E00080916000886180936000109260000FBE3C
:1038F000089508950895CF930E94791C0E94061898
:103900000E947A1CC0E08C2F0E94E916811105C02C
:10391000CF5FCA30C1F7CF91089581E0FCCF0E94FC
:10392000580D0C94B9091F921FB61F9211248F9342
:103930009F93AF93BF9380910302811113C0809135
:10394000540290915502A0915602B09157024196AF
:10395000A11DB11D8093540290935502A09356026D
:10396000B0935702BF91AF919F918F911F901FBE4F
:103970001F90189582E084BD93E095BD9AEF97BDA6
:1039800080936E0008952FB7F8948091540290911F
:103990005502A0915602B09157022FBF08952FB73C
:1039A000F894609154027091550280915602909162
:1039B00057022FBF08959C014FB7F894809154028D
:1039C00090915502A0915602B09157024FBF821BB1
:1039D000930B089578941F921FB61F9211248F9312
:1039E0009F93AF93BF938091540290915502A09101
:1039F0005602B09157020196A11DB11D8093540249
:103A000090935502A0935602B0935702BF91AF9185
:103A10009F918F911F901FBE1F90189581E08093FA
:103A2000E00080E28093D8001092C9008FE19EE40C
:103A30000197F1F700C0000087E090EBDC01809374
:103A4000650290936602A0936702B093680288E1D2
:103A50009CE00FB6F894A895809360000FBE9093F9
:103A60006000FFCF80912402089508950895CF93B8
:103A7000DF93EC01809110018823B1F180913E0227
:103A800087FF32C060E282E08093E9008FEF90917F
:103A9000E800815095FD06C095ED9A95F1F700007C
:103AA0008111F5CF8091E80085FF1BC08091100146
:103AB00070E050E040E0811104C050E040E068E078
:103AC00070E0CE010E941E1F8091E8008E778093E7
:103AD000E80080E2FE01A4E0B2E001900D928A9538
:103AE000E1F7DF91CF91089568E081E0CDCF0895AF
:103AF000089580915B02811109C00E94AE200E944E
:103B00000B218091E20084608093E200089510927E
:103B10005B0208950C94461C6091580281E061118B
:103B200001C080E00C943F1C90915C0281E09430D5
:103B300009F080E0609158020C94441C42E061EC72
:103B400081E00E942A2042E261EC82E00E942A2069
:103B500090915C0281E0943009F080E0609158021D
:103B60000C94361C80915E02833009F460C030F4FE
:103B70008130C9F1823009F49CC008958A3009F47B
:103B800088C08B3009F46EC0893009F04FC0809135
:103B90005D02813209F04AC0809161029091620217
:103BA000029708F043C08091E800877F8093E80087
:103BB0008091E80082FF36C09091F3008091F2007E
:103BC000029731F48091F100813011F0863021F4B8
:103BD0008091F100809324028091E8008B7780939C
:103BE000E8000C945E2080915D02813AF9F48091A6
:103BF000E800877F8093E8008091610290916202E3
:103C0000892B61F460E284E092E070E00E946D1F15
:103C10008091E8008B778093E800089560E090E061
:103C200080E0F3CF80915C028111C2CF0895809132
:103C30005D02813AD9F78091610290916202892BED
:103C4000A9F78091E800877F8093E8008091E800E1
:103C500080FFFCCF809110018093F1008091E800FB
:103C60008E77BDCF80915D02813201F78091610234
:103C700090916202892BD1F68091E800877F809332
:103C8000E8000E945E2080915F02809310010C94F6
:103C9000580D80915D02813249F68091E800877F5E
:103CA0008093E8000E945E2080916002809325024C
:103CB000089580915D02813A09F0B8CF8091E800C3
:103CC000877F8093E8008091E80080FFFCCF80919F
:103CD0002502C2CF84B7877F84BF0FB6F894A8951A
:103CE00080916000886180936000109260000FBE38
:103CF00080E890E00FB6F8948093610090936100A3
:103D00000FBE0C944B1C0E94AE200E940B21E2EED1
:103D1000F0E080818460808378940C94942384E024
:103D200091E00C94201B80915C028530A9F4809175
:103D30005C02853011F00C948F1C0E944E1C809107
:103D40005A028823A1F30E947B1C882381F30E94DE
:103D5000081F0E94580DEBCF089508950C94B01ED3
:103D6000292F33272330310519F168F4213031052B
:103D700009F444C02230310509F445C090E080E0E8
:103D800030E020E025C02132310549F122323105F1
:103D9000A9F780E490E020EF32E061157105C1F0F1
:103DA0008BE390E025EB32E06130710589F0E6CFDE
:103DB00099278130910581F0009729F00297F1F65B
:103DC000E4E1F2E002C0E4E6F2E0849190E09F01D9
:103DD000FA01318320830895ECE4F2E0F6CF89E024
:103DE00090E02AE732E06115710591F389E090E0F7
:103DF00023E932E06130710559F3C0CF82E190E0F0
:103E000023EA32E0E5CF8BE390E028E632E0E0CF32
:103E100080E189BD82E189BD09B400FEFDCF8091BA
:103E2000D8008F7D8093D8008091E00082608093DD
:103E3000E0008091E00081FDFCCF0895AF92BF9239
:103E4000CF92DF92FF920F931F93CF93DF936C017A
:103E5000EB018A010E947D20F82E811123C00115FB
:103E6000110539F0F80180819181C81BD90BC80E6A
:103E7000D91EB12CA12C2097A9F08091E80085FDD6
:103E800022C08091E8008E778093E800011511052B
:103E9000A1F0F80180819181A80EB91EB182A082A3
:103EA00085E0F82E8F2DDF91CF911F910F91FF901C
:103EB000DF90CF90BF90AF9008950E947D2088231F
:103EC000D1F2F82EEFCFF60181916F018093F100CE
:103ED0002197FFEFAF1ABF0ACECFFC01809163029A
:103EE0009091640286179707A0F06115710529F477
:103EF0009091E8009E779093E80090E0611571053D
:103F000051F4911108C08091E80082FF34C080E034
:103F10000895BC01F2CF80915C028823C1F1853005
:103F2000C1F18091E80083FD30C08091E80082FDFE
:103F3000EACF8091E80080FFE1CF8091F3002091EB
:103F4000F200382F6115710519F02830310558F04D
:103F500091E02830310509F090E02091E8002E77BB
:103F60002093E800CBCF81918093F10061507109DB
:103F70002F5F3F4FE7CF80915C02882341F085306F
:103F800041F08091E80083FFBECF81E0089582E098
:103F9000089583E00895FC0180916302909164028A
:103FA00086179707A0F06115710529F48091E80044
:103FB0008E778093E80090E06115710551F49111BE
:103FC00008C08091E80082FF35C080E00895BC0100
:103FD000F2CF80915C028823C9F18530C9F18091CC
:103FE000E80083FD31C08091E80082FDEACF809136
:103FF000E80080FFE1CF8091F3002091F200382F9C
:104000006115710519F02830310558F091E028301C
:10401000310509F090E08091E8008E778093E80008
:10402000CBCF84918093F1003196615071092F5F5D
:104030003F4FE6CF80915C02882341F0853041F00C
:104040008091E80083FFBDCF81E0089582E008956C
:1040500083E00895982F973028F08F708093E900BF
:1040600081E008959093E900242F762F50E098176F
:1040700031F07091EC002091ED005091F00021FDA5
:1040800002C09F5FE8CF3091EB003E7F3093EB00A2
:104090003091ED003D7F3093ED003091EB003160C9
:1040A0003093EB007093EC002093ED005093F00000
:1040B0002091EE0027FDE5CF80E0089580915D021C
:1040C00087FF13C08091E80082FF06C08091E8005E
:1040D0008B778093E80004C080915C028111F2CF5D
:1040E000089580915C028823D9F38091E80080FFD5
:1040F000F8CF8091E8008E77ECCF2091E4003091EA
:10410000E50095E6A9012091EC00822F817020FF47
:1041100006C08091E80080FF06C080E008952091ED
:10412000E80022FD1AC080915C02882389F0853066
:1041300089F08091EB0085FD0FC02091E400309163
:10414000E50042175307F9F29150E1F684E0089533
:1041500082E0089583E0089581E008950E941C2183
:104160000E942421E0EEF0E0808181608083E8ED10
:10417000F0E080818F77808319BCA7EDB0E08C914F
:104180008E7F8C9380818F7E808310925B02089556
:104190000F931F93CF93DF930E941C210E94242131
:1041A000C8EDD0E088818F77888388818068888394
:1041B00088818F7D888319BC10925C02109258020E
:1041C00010925A021092590200EE10E0F80180811C
:1041D0008B7F808388818160888342E060E080E01B
:1041E0000E942A20E1EEF0E080818E7F8083E2EE63
:1041F000F0E0808181608083808188608083F80125
:1042000080818E7F8083888180618883DF91CF91D8
:104210001F910F910895E8EDF0E080818F7E8083FB
:10422000E7EDF0E080818160808384E082BF81E0FF
:1042300080935B020C94C820E8EDF0E080818E7FD3
:1042400080831092E20008951092DA001092E1004B
:1042500008951F920F920FB60F9211242F933F9340
:104260004F935F936F937F938F939F93AF93BF937E
:10427000EF93FF938091E10082FF0BC08091E200F9
:1042800082FF07C08091E1008B7F8093E1000E9454
:1042900093238091DA0080FF19C08091D80080FFBD
:1042A00015C08091DA008E7F8093DA008091D9006A
:1042B00080FF96C080E189BD82E189BD09B400FE1E
:1042C000FDCF81E080935C020E94791D8091E10026
:1042D00080FF19C08091E20080FF15C08091E2004C
:1042E0008E7F8093E2008091E20080618093E20003
:1042F0008091D80080628093D80019BC85E08093BB
:104300005C020E948C1D8091E10084FF2BC0809193
:10431000E20084FF27C080E189BD82E189BD89B5C3
:10432000982F917080FFFBCF8091D8008F7D809374
:10433000D8008091E1008F7E8093E1008091E200BF
:104340008F7E8093E2008091E20081608093E200A2
:1043500080915802882309F449C084E080935C026C
:104360000E94941D8091E10083FF29C08091E200AA
:1043700083FF25C08091E100877F8093E10082E088
:1043800080935C02109258028091E1008E7F8093AE
:10439000E1008091E2008E7F8093E2008091E20054
:1043A00080618093E20042E060E080E00E942A2089
:1043B0008091F00088608093F0000E948A1DFF9138
:1043C000EF91BF91AF919F918F917F916F915F918D
:1043D0004F913F912F910F900FBE0F901F90189506
:1043E00019BC10925C020E94871D70CF8091E3007F
:1043F00087FD93E090935C02B3CF1F920F920FB6AC
:104400000F9211242F933F934F935F936F937F935A
:104410008F939F93AF93BF93CF93DF93EF93FF93CC
:10442000D091E900DF708091EC00C82FC17080FD51
:10443000C0E81092E9008091F000877F8093F0003F
:1044400078940E9441221092E9008091F0008860E7
:104450008093F000CD2BCF70C093E900FF91EF91D6
:10446000DF91CF91BF91AF919F918F917F916F918C
:104470005F914F913F912F910F900FBE0F901F9022
:1044800018951F93CF93DF93CDB7DEB7AA970FB6DA
:10449000F894DEBF0FBECDBF8DE592E02091F10014
:1044A000FC012193CF01F2E085369F07B9F70E9406
:1044B000B21D8091E80083FF1EC180915D02909142
:1044C0005E029A3008F017C1E92FF0E0E45BF94D85
:1044D0000C94C323803899F0823809F00CC1809184
:1044E00061028F70873008F006C18093E9008091E7
:1044F000EB0085FB882780F91092E90006C08091C7
:10450000590290915A02911182609091E800977F30
:104510009093E8008093F1001092F1008091E80000
:104520008E77E5C0882309F4D3C0823009F0E3C058
:1045300080915F028111D6C0809161028F702FEF50
:10454000280F263008F0D7C08093E9002091EB00B7
:1045500020FFC8C0933031F48091EB0080628093DB
:10456000EB00C0C09091EB0090619093EB0021E0D4
:1045700030E001C0220F8A95EAF72093EA001092FA
:10458000EA008091EB008860EACF8111B4C01091FD
:104590005F021F778091E3008078812B8093E30096
:1045A0008091E800877F8093E8000E945E208091E0
:1045B000E80080FFFCCF8091E30080688093E300F7
:1045C00082E0111183E080935C0295C080588230B4
:1045D00008F091C080915F02909160028C3D23E0D1
:1045E0009207A1F583E08A838AE289834FB7F89422
:1045F000DE01139620E03EE051E2E32FF0E050931D
:104600005700E49120FF03C0E295EF703F5FEF7029
:104610008E2F90E0EA30C0F0C7968D939D932F5F68
:10462000243159F74FBF8091E800877F8093E800DD
:104630006AE270E0CE0101960E946D1F8091E80051
:104640008B778093E80057C0C096E7CF60916102F6
:1046500070916202AE014F5F5F4F0E94AE1EBC01BF
:10466000892B09F448C09091E800977F9093E80067
:1046700089819A810E94CB1FE1CF8038E1F580913A
:10468000E800877F8093E800809158028093F100D2
:1046900045CF811130C090915F02923060F58091DA
:1046A000E800877F8093E800909358020E945E2084
:1046B00080915802882311F084E005C08091E300C6
:1046C00087FDFACF81E080935C020E949E1D13C09B
:1046D00080915F02813079F481E0933009F080E0CD
:1046E00080935A021092E9008091E800877F8093BE
:1046F000E8000E945E208091E80083FF0AC080915C
:10470000E800877F8093E8008091EB0080628093CF
:10471000EB00AA960FB6F894DEBF0FBECDBFDF91B7
:10472000CF911F9108950895CF9380915C028823C3
:10473000A1F0C091E900CF709091EC00892F8170B9
:1047400090FD80E8C82B1092E9008091E80083FD7D
:104750000E944122CF70C093E900CF91089597FB4A
:10476000072E16F4009407D077FD09D00E94C923C4
:1047700007FC05D03EF4909581959F4F0895709564
:1047800061957F4F0895EE0FFF1F0590F491E02D86
:104790000994AA1BBB1B51E107C0AA1FBB1FA61788
:1047A000B70710F0A61BB70B881F991F5A95A9F7DA
:1047B00080959095BC01CD010895FB01DC0104C0FA
:1047C0008D910190801921F441505040C8F7881B09
:1047D000990B0895F999FECF92BD81BDF89A99275A
:1047E00080B50895A8E1B0E042E050E00C941E24AA
:1047F000262FF999FECF92BD81BDF89A019700B49A
:10480000021639F01FBA20BD0FB6F894FA9AF99A39
:104810000FBE08950396272F0E94F9230E94F823C4
:10482000252F0E94F923242F0C94F9230196272F7A
:104830000E94F9230C94F823DC01CB01FC01F999C7
:10484000FECF06C0F2BDE1BDF89A319600B40D92DC
:1048500041505040B8F70895F894FFCF7D02970279
:1048600099029B029D029F02B102B302B502B702F8
:10487000B9028002800280028002800280028002EF
:104880008002800280028002800280028002800218
:1048900080028002800280028002A102A302A5029F
:1048A000A702A902AB02AD02AF02BB02BD02BF026A
:1048B000C102C302C50280028002C702C902CB0244
:1048C00080028002800280028002800280028002D8
:1048D00080028002800280028002800280028002C8
:1048E000800280028002CD02CF02D102D3023103C6
:1048F0003303F302D502E702DA02DF02E40209031E
:10490000D8020E0310031503210303032303E2025D
:104910002503F302F302F302F302F302F302F302BC
:10492000F302F302F302F302F302F302F30235039C
:104930003703F302F302F302E902EB02ED02FF0296
:104940000103030305030703170319031B031D03D7
:10495000F3021F03270329032B032D032F038303D4
:104960008503F302F3024B034D034F0351035B0333
:104970005D035F0361036303F3027303750377034E
:104980007903F302F302F302F302F302F302F302F8
:10499000F302F302F302F302F302F302F3028703DA
:1049A0008903F302F302F3026C0353035503570325
:1049B000590303030503070365030C036703690336
:1049C0006E031F037B0313037D037F038103FC033B
:1049D000FE030004D90302040404B5030E0410040A
:1049E0001204140420042204240426042804AA0324
:1049F000B203B703B903BE03CA03D403D603DB0370
:104A0000DD03AA03EA03EC03EE03F0030604CA0382
:104A1000C503BC0308040A040C04D20316041804DA
:104A20001A041C04D0031E04E8032A04CE03AA03BC
:104A3000FA03C003C203C703CC03CE03CE03D003E3
:104A4000D203DF03E103E303C503E503D203F2036B
:104A5000F403F603F803FA032C042E0430043204A2
:104A6000A504A704A9048204AB04AD045E04B70442
:104A7000B904BB04BD04C904CB04CD04CF04D104E4
:104A800050045B0460046204670473047D047F04C3
:104A90008404860450049304950497049904AF0495
:104AA00073046E046504B104B304B5047B04BF044D
:104AB000C104C304C5047904C7049104D304770472
:104AC0005004A30469046B0470047504770477042C
:104AD00079047B0488048A048C046E048E047B04AD
:104AE0009B049D049F04A104A304D504D704D90406
:104AF000DB048805A205A405A605A805AA05BC0532
:104B0000BE05C005C205C4058B058B058B058B054D
:104B10008B058B058B058B058B058B058B058B0515
:104B20008B058B058B058B058B058B058B058B0505
:104B3000AC05AE05B005B205B405B605B805BA05B5
:104B4000C605C805CA05CC05CE05D0058B058B0565
:104B5000D205D405D6058B058B058B058B058B05FA
:104B60008B058B058B058B058B058B058B058B05C5
:104B70008B058B058B058B058B058B05D805DA0519
:104B8000DC05DE053D063F06FE05E005F205E50510
:104B9000EA05EF051506E3051A061C0621062D0693
:104BA0000F062F06ED053106FE05FE05FE05FE0586
:104BB000FE05FE05FE05FE05FE05FE05FE05FE05DD
:104BC000FE05FE0541064306FE05FE05FE05F4054D
:104BD000F605F8050B060D060F061106130623064B
:104BE000250627062906FE052B0633063506370659
:104BF00039063B068F069106FE05FE055706590647
:104C00005B065D06670669066B066D066F06FE05A8
:104C10007F06810683068506FE05FE05FE05FE0568
:104C2000FE05FE05FE05FE05FE05FE05FE05FE056C
:104C3000FE05FE0593069506FE05FE05FE057806B3
:104C40005F066106630665060F0611061306710608
:104C50001806730675067A062B0687061F06890650
:104C60008B068D063C0B3C0B6D0B6D0B9C0B9C0B54
:104C70009C0B9C0B000C8C0C9B0C9B0C670D670D0C
:104C8000700D700D720D700D700D700D670D670D4C
:104C9000770D700D700D770D6A2292227B23922280
:0C4CA0007B23C522E6227B233D23492311
:104CAC00C800AD01321D371D771D351D781D361D11
:104CBC0001679495969734929335366600FF010000
:0C4CCC00010000FFFF0000010001FF00DC
:00000001FF
