:100000000C9498010C94DF010C94DF010C94DF0137
:100010000C94DF010C94DF010C94DF010C94DF01E0
:100020000C94DF010C94DF010C9456220C942A23CB
:100030000C94C01D0C94DF010C94DF010C94DF01C3
:100040000C94DF010C944E090C94DF010C94DF0139
:100050000C94DF010C94171E0C94DF010C94DF014B
:100060000C94DF010C94DF010C94DF010C94DF0190
:100070000C94DF010C94DF010C94DF010C94DF0180
:100080000C94DF010C94DF010C94DF010C94DF0170
:100090000C94DF010C94DF010C94DF010C94DF0160
:1000A0000C94DF010C94DF010C94DF01A65DA85DC8
:1000B000AB5DC75DC95DCC5DE000AD5DB05DCF5DA2
:1000C000D15D2800E100AE5DB45DD45D0000ED5D62
:1000D0000251B25DB55DCE5DD65DE500E300EF5D3A
:1000E0000000E6006500EC5DA75DA95DC55DC85D2B
:1000F000CA5D0000AC5DAA5DC65DD05DCB5D290028
:10010000B15DAF5DCD5DD55DD25D00000000B35D3A
:10011000D35D0000D75D0000E2000000F05DE70065
:10012000EB5DEE5D0100B75DBA5DDA5DDC5DDF5D64
:100130000100BC5DBF5DE25DE45D01000100BD5DED
:10014000C35DE75D000001000100C15DC45DE15DCC
:10015000E95DE5000100EF5D000001000100010024
:10016000B65DB85DD85DDB5DDD5D0100BB5DB95D91
:10017000D95DE35DDE5D0100C05DBE5DE05DE85D13
:10018000E55D00000000C25DE65D0000EA5D000084
:1001900001000000F05D01000100010029000100E4
:1001A00001004B0046004C0001000100010052001C
:1001B00049000100010001000100010000000100F0
:1001C0000100010001005100010001000100F15D8A
:1001D0000000010001000100010001004A004D0083
:1001E00001000100010001004E004F004800010025
:1001F00001000100500001004C000000000001005F
:10020000010000000100000001000000F25D01009B
:1002100001000100360354005300350032004B004A
:1002200020004E00490043004F004C0041002000D8
:100230004F007900610079007500620069002000BC
:10024000530068006900660074000000160349004E
:100250006B0065006200650053006100640061008E
:100260006F0000000403090409023B00020100A022
:10027000FA09040000010301010009211101000134
:100280002240000705810308000A09040100010358
:10029000000000092111010001223B000705820333
:1002A00020000A1201000200000008EDFE69190199
:1002B000000102000105010906A1018506050719D3
:1002C000E029E71500250195087501810205071948
:1002D0000029EF1500250195F07501810205081927
:1002E000012905950575019102950175039101C0DC
:1002F00005010906A101050719E029E715002501F7
:10030000950875018102950175088101050719009D
:1003100029FF150026FF00950675088100050819BC
:10032000012905950575019102950175039101C09B
:1003300011241FBECFEFDAE0DEBFCDBF04B603FE4F
:1003400027C080916B0290916C02A0916D02B091D8
:100350006E028730904BA740B04BD1F410926B02E5
:1003600010926C0210926D0210926E0214BE84B74D
:10037000877F84BF0FB6F894A8958091600088614C
:1003800080936000109260000FBEE0E0F8E30995F2
:1003900011E0A0E0B1E0E6E0FFE402C005900D92BC
:1003A000AC32B107D9F722E0ACE2B1E001C01D9256
:1003B000AB36B207E1F70E94D1190C9459250C9481
:1003C0000000CF93C0E080913001C81720F0109258
:1003D0003001CF9108958C2F90E0FC01EE0FFF1FAC
:1003E000E80FF91FE45DFD4F808191812281222376
:1003F00021F00E94F709CF5FE6CF0E940E0AFBCFE3
:100400008093440181E497E00E9428091092410101
:100410001092400110923F0110923E0108952091E8
:1004200045012223F9F0805E91090897D8F4809164
:100430004301FB019281992361F0811104C08091F5
:1004400044010E94610F809143018F5F80934301BB
:100450000895815080934301811104C0809144012B
:100460000C94400F08959C01265A3D452F313105CB
:1004700030F481E0603F7D4551F080E008C0855C4C
:100480009D458697D0F781E06F3E7D45B1F781703D
:1004900008959C01265A3D4581E02031310538F010
:1004A0002F51310981E02331310508F080E081705E
:1004B000089580913701811113C08091400190917E
:1004C0004101865A9D458934910550F480913E0141
:1004D00090913F018F5E9D45029710F40E94C905DF
:1004E000E0914001F0914101E65AFD45E934F10502
:1004F00038F4E55AFA4D0C94F02485E30E94AF0BD2
:1005000080913E0190913F018F3E2DE5920709F0C9
:10051000B0C0E0914001F0914101E35BFD45E8335B
:10052000F10508F060C0EC55FA4D0C94F0248AE314
:10053000E5CF8BE3E3CF8CE3E1CF8DE3DFCF8EE339
:10054000DDCF8FE3DBCF80E4D9CF81E4D7CF82E466
:10055000D5CF83E4D3CF84E4D1CF85E4CFCF8CE46F
:10056000CDCF8EE1CBCF8FE1C9CF80E2C7CF81E283
:10057000C5CF82E2C3CF83E2C1CF84E2BFCF85E2A1
:10058000BDCF86E2BBCF87E2B9CF8AE2B7CF8FE299
:10059000B5CF80E3B3CF81E3B1CF8AE4AFCF8EE4B0
:1005A000ADCF8BE4ABCF8DE4A9CF8BE10E94AF0B35
:1005B00084E017C085E10E94AF0B8CE012C08BE194
:1005C0000E94AF0B8CE1F2CF85E10E94AF0B88E077
:1005D00008C083E1EBCF87E0EECF8AE00E94AF0B4B
:1005E00088E10E94AF0B10923701109241011092E6
:1005F000400110923F0110923E010C94E10187E00E
:10060000EDCF83E1D8CF8DE2ECCF8EE2EACF8CE460
:10061000E8CF8AE10E94AF0B82E1E3CF81E1C6CF50
:100620008BE10E94AF0B8CE1D9CF80E1F3CF85E065
:10063000BDCF87E0EFCF8AE0BECF83E1EBCF8AE288
:10064000D0CF8BE1CBCF85E1E5CF8BE1B4CF83E198
:10065000C5CF8DE1DFCF83E1B8CF85E0DBCF88E385
:10066000C0CF80E5BECF81E5BCCF8BE4BACF8DE4AF
:10067000B8CF803F9D4509F0B6CFE0914001F091A1
:100680004101E35BFD45E833F10508F0ACCFE452EE
:10069000FA4D0C94F0248AE089CF87E087CF8AE076
:1006A000B9CF8DE183CF81E186CF85E197CF80E11E
:1006B0007DCF8BE18ACF89E191CF8DE17CCF87E03F
:1006C00084CF8AE082CF8DE180CF80E174CF81E159
:1006D000A1CF8BE10E94AF0B8CE19CCF8BE10E94FC
:1006E000AF0B87E17BCF85E066CF8DE177CF85E0EB
:1006F00075CF85E06ACF81E171CF80E16FCF8AE16C
:1007000055CF8BE187CF8AE46CCF8EE46ACF82E548
:1007100068CF8FE466CF8091390181110E943E0439
:100720008091380181110E94F90480913201811178
:100730000E942A058091370181110E9459028091FF
:10074000310181110C94830508950E948B03E0917F
:100750004001F0914101E65AFD45E934F10538F4D4
:10076000EC5EF94D0C94F02487E30E943F0B81E08E
:10077000809339010C94E1018EE00E943F0B84E0EC
:10078000F4CF87E1FACF8EE00E943F0B82E1EDCFFC
:1007900086E1F3CF85E1F1CF87E10E943F0B8CE04A
:1007A000E4CF8EE00E943F0B88E1DFCF87E1FACFF4
:1007B00086E3DBCF83E3D9CF8AE2D7CF86E1EDCFE3
:1007C00087E10E943F0B88E0D0CF8EE0FACF86E130
:1007D000F8CF8BE0D2CF87E1D7CF8EE0DECF81E1BB
:1007E0000E943F0B81E1C1CF8BE0D7CF86E1DACF0A
:1007F0008BE0D8CF8BE0E5CF80E1E3CF86E1C4CFBB
:1008000081E1DFCF8BE0C0CF88E3AFCF8BE2ADCF0C
:1008100084E1ABCF8AE1A9CF85E1A7CF87E1A5CF5E
:100820008CE1A3CF83E1A1CF8DE29FCF8EE29DCF5C
:1008300086E19BCF87E099CF89E097CF8AE095CF7B
:100840008BE093CF8DE091CF8EE08FCF8FE08DCF77
:1008500084E38BCF8DE189CF8BE187CF86E085CF95
:1008600089E183CF85E081CF80E17FCF80E57DCFB7
:1008700081E57BCF82E579CF8FE477CF8091390115
:1008800081110BC08091400190914101865A9D4594
:100890008934910510F40E94A503E0914001F09184
:1008A0004101E65AFD45E934F10538F4E35AF94DC2
:1008B0000C94F02487E30E94AF0B10923901109240
:1008C0004101109240010C94E1018EE00E94AF0BB7
:1008D00084E0F1CF87E1FACF8EE00E94AF0B82E196
:1008E000EACF86E1F3CF85E1F1CF87E10E94AF0B3C
:1008F0008CE0E1CF8EE00E94AF0B88E1DCCF87E196
:10090000FACF86E3D8CF83E3D6CF8AE2D4CF86E18D
:10091000EDCF87E10E94AF0B88E0CDCF8EE0FACF1C
:1009200086E1F8CF8BE0D2CF87E1D7CF8EE0DECF64
:1009300081E10E94AF0B81E1BECF8BE0D7CF86E192
:10094000DACF8BE0D8CF8BE0E5CF80E1E3CF86E153
:10095000C4CF81E1DFCF8BE0C0CF88E3ACCF8BE2A7
:10096000AACF84E1A8CF8AE1A6CF85E1A4CF87E111
:10097000A2CF8CE1A0CF83E19ECF8DE29CCF8EE20F
:100980009ACF86E198CF87E096CF89E094CF8AE02E
:1009900092CF8BE090CF8DE08ECF8EE08CCF8FE02A
:1009A0008ACF84E388CF8DE186CF8BE184CF86E048
:1009B00082CF89E180CF85E07ECF80E17CCF80E56A
:1009C0007ACF81E578CF82E576CF8FE474CF0E942D
:1009D0008B0380913E0190913F018F5E9D45029770
:1009E00018F48CE20E943F0B81E0809338010C9454
:1009F000E1018091380181110AC080913E019091FE
:100A00003F018F5E9D45029710F40E94E70480919C
:100A10003E0190913F01892B19F08CE20E94AF0BAF
:100A20001092380110923F0110923E010C94E101A6
:100A30000E948B0380913501909136018F5E9D4518
:100A4000029718F48CE20E943F0B81E08093320100
:100A50000C94E1018091320181110AC0809135012D
:100A6000909136018F5E9D45029710F40E94180503
:100A70008091350190913601892B19F08CE20E940A
:100A8000AF0B1092320110923601109235010C9486
:100A9000E1010E948B0380913E0190913F01803FD4
:100AA0002DE59207C9F480913501909136018F3E72
:100AB0009D4569F48AE80E943F0B80E90E943F0B44
:100AC00081E080934501809144010E94400F81E0C4
:100AD000809331010C94E1018F3E9D45C1F78091D7
:100AE000350190913601803F9D4589F78BE80E9442
:100AF0003F0B81E90E943F0B109245018091440118
:100B00000E94610FE4CF80913101811112C0809168
:100B10003E0190913F018F5E9D45029750F4809178
:100B20003501909136018F5E9D45029710F40E9429
:100B3000490580913E0190913F01803F2DE592074C
:100B4000C9F480913501909136018F3E9D4531F475
:100B500080E90E94AF0B8AE80E94AF0B109231012E
:100B600010923F0110923E01109236011092350111
:100B70000C94E1018F3E9D4589F78091350190915C
:100B80003601803F9D4551F781E90E94AF0B8BE80C
:100B9000E3CF1F93CF93DF930E948B03C09140015B
:100BA000D0914101CE010E944902182F60913E016F
:100BB00070913F01882341F110914501C33B2DE520
:100BC000D20794F1C53B8DE5D8072CF0CE01835DAB
:100BD0009D45029748F5112329F10E949613C82FCD
:100BE000827239F18C2F8D7D0E94A61311E0E09165
:100BF0004001F0914101E65AFD45E934F105F8F470
:100C0000EA55F94D0C94F0246F3E7D4559F4CD3DE5
:100C10008DE5D8073CF0CF3D2DE5D207F4F2CA3E72
:100C2000DD45D9F2C0E0E3CFCE010E9433021827A0
:100C3000D2CF8C2F8260D8CF85E30E943F0B80916A
:100C40003E0190913F018F3E2DE5920709F0B1C022
:100C5000E0914001F0914101E35BFD45E833F1058E
:100C600008F060C0E151F94D0C94F0248AE3E5CF1F
:100C70008BE3E3CF8CE3E1CF8DE3DFCF8EE3DDCFFA
:100C80008FE3DBCF80E4D9CF81E4D7CF82E4D5CF27
:100C900083E4D3CF84E4D1CF85E4CFCF8CE4CDCF30
:100CA0008EE1CBCF8FE1C9CF80E2C7CF81E2C5CF44
:100CB00082E2C3CF83E2C1CF84E2BFCF85E2BDCF62
:100CC00086E2BBCF87E2B9CF8AE2B7CF8FE2B5CF5A
:100CD00080E3B3CF81E3B1CF8AE4AFCF8EE4ADCF71
:100CE0008BE4ABCF8DE4A9CF8BE10E943F0B84E076
:100CF00017C085E10E943F0B8CE012C08BE10E947F
:100D00003F0B8CE1F2CF85E10E943F0B88E008C0E9
:100D100083E1EBCF87E0EECF8AE00E943F0B88E1D2
:100D20000E943F0B112319F08C2F0E94A61381E023
:100D300080933701DF91CF911F910C94E10187E0FF
:100D4000ECCF83E1D7CF8DE2EBCF8EE2E9CF8CE41D
:100D5000E7CF8AE10E943F0B82E1E2CF81E1C5CF7C
:100D60008BE10E943F0B8CE1D8CF80E1F3CF85E08F
:100D7000BCCF87E0EFCF8AE0BDCF83E1EBCF8AE243
:100D8000CFCF8BE1CACF85E1E5CF8BE1B3CF83E154
:100D9000C4CF8DE1DFCF83E1B7CF85E0DBCF88E340
:100DA000BFCF80E5BDCF81E5BBCF8BE4B9CF8DE46C
:100DB000B7CF803F9D4509F0B5CFE0914001F0915C
:100DC0004101E35BFD45E833F10508F0ABCFE95D98
:100DD000F84D0C94F0248AE088CF87E086CF8AE033
:100DE000B9CF8DE182CF81E185CF85E196CF80E1DA
:100DF0007CCF8BE189CF89E190CF8DE17BCF87E0FC
:100E000083CF8AE081CF8DE17FCF80E173CF81E115
:100E1000A1CF8BE10E943F0B8CE19CCF8BE10E9424
:100E20003F0B87E17ACF85E065CF8DE176CF85E016
:100E300074CF85E069CF81E170CF80E16ECF8AE128
:100E400054CF8BE187CF8AE46BCF8EE469CF82E504
:100E500067CF8FE465CF80914201853038F48330CD
:100E600060F4813031F0823031F00895853039F00E
:100E700008950C94A5030C94E7040C94C9050C94F4
:100E8000490580912E0190912F01892B11F40C942A
:100E90002B07089580914201853048F4833090F407
:100EA000813051F0823059F010924201089585301E
:100EB000D9F70E948305F8CF0E943E04F5CF0E9427
:100EC000F904F2CF0E945902EFCF81E080934501EF
:100ED0000E944A07809144010C94400F10924501F2
:100EE0000E944A07809144010C94610FCF92DF92D7
:100EF000FF920F931F93CF93DF938C016B0181E0DF
:100F000090E090932F0180932E010E94F01DEC0140
:100F1000D6011296FC9012979801265A3D45809171
:100F20004201FF2009F4DCC02934310508F05FC01C
:100F3000823009F44EC0F8F4882309F444C08130AB
:100F400061F11093410100934001D0933D01C093A2
:100F50003C0180E095E00E944009F12C10922F01A5
:100F600010922E018F2DDF91CF911F910F91FF9045
:100F7000DF90CF900895843021F190F0853009F70B
:100F800080913A0190913B019E01281B390B21353C
:100F9000310508F10E94830516C00E943E04D1CF9E
:100FA00080913A0190913B0120913C0130913D01AB
:100FB000FC01E21BF30BAE01481B590BE417F507CC
:100FC00030F40E94590281E080934201BACF0E941E
:100FD0003E0484E0F9CF4091330150913401841BE9
:100FE000950B82179307B0F20E942A05F2CF980161
:100FF0002F5E3D452230310508F054C08230B9F0F3
:1010000078F4882309F446C0813009F449C010936C
:101010003F0100933E01D0933B01C0933A0199CF29
:10102000843029F1A8F1853091F70E942A0580913A
:101030003A0190913B019E01281B390B2135310566
:1010400098F420913E0130913F012017310761F063
:1010500045E040934201309336012093350190934F
:10106000340180933301D3CF0E94F904D0CF809113
:101070003C0190913D0120913A0130913B01DC010E
:10108000A21BB30BFE01E81BF90BAE17BF0730F430
:101090000E94590282E080934201B9CF0E94F90474
:1010A00083E0F9CF882309F459CF8091300188304B
:1010B00090F4282F30E0F901EE0FFF1FE20FF31F2D
:1010C000E45DFD4F1183008312969C9192838F5FA4
:1010D0008093300142CF0E942B07FF24F3943ECF30
:1010E0002B34310508F09AC0833009F442C080F4F3
:1010F000813091F1823009F031CF80913E019091A1
:101100003F018017910709F029CF0E94F9042EC0F2
:10111000843009F455C0853009F020CF8091350125
:10112000909136018017910709F06DC080913A01C6
:1011300090913B01C81BD90B2091330130913401B0
:10114000821B930B8C179D0708F465C0649708F009
:1011500062C00E942A0527C0809140019091410100
:101160008017910709F0FACE0E943E0410924201C6
:10117000F5CE809140019091410180179107A9F42B
:1011800080913A0190913B01C81BD90B20913C0101
:1011900030913D01821B930B8C179D0770F0649773
:1011A00060F40E943E0482E026C080913E0190914E
:1011B0003F018017910709F0D1CE0E945902D6CF86
:1011C00080913E0190913F0180179107B9F4809181
:1011D0003C0190913D01C81BD90B20913A013091FF
:1011E0003B01821B930B8C179D0738F3649728F7FC
:1011F0000E94F90481E080934201B0CE80914001C9
:1012000090914101D6CF80913E0190913F0180178E
:10121000910709F0A3CE0E948305A8CF882309F483
:101220005CCF80913001883008F055CF282F30E016
:10123000F901EE0FFF1FE20FF31FE45DFD4F118375
:10124000008312969C9192838F5F8093300186CEAB
:10125000F89490934701809346011092800085E0B6
:101260008093810010928200109285001092840079
:101270008FEF9FEF90938900809388007894089572
:10128000F8941092850010928400909389008093C6
:10129000880082E080936F00789408951F920F92E7
:1012A0000FB60F9211242F933F934F935F936F9339
:1012B0007F938F939F93AF93BF93EF93FF93E091AF
:1012C0004601F09147010995FF91EF91BF91AF91D0
:1012D0009F918F917F916F915F914F913F912F914E
:1012E0000F900FBE0F901F90189581E00C94000294
:1012F0000F931F93CF93DF93EC018B01C13F8DE5DB
:10130000D80779F0C23FEDE5DE0721F1CE010E945A
:101310000F02B801CE01DF91CF911F910F910C9474
:101320007607FB018281882371F08BE80E943F0BD6
:1013300081E90E943F0B0E946E0780E0DF91CF9110
:101340001F910F91089581E90E94AF0B8BE80E94D5
:10135000AF0BF3CFFB018281882349F08AE80E941A
:101360003F0B80E90E943F0B0E946507E6CF80E9B2
:101370000E94AF0B8AE8EBCF811106C08EE46111A9
:1013800001C08BE40E94150C81E008959C013A9500
:1013900021153F4150F5FC01EE27F170BC01662795
:1013A0007270AC01442754709C012227387094FF5E
:1013B0000EC080E1EF2B09F480E0672B09F080621A
:1013C000452B09F08064232B89F08068089581E023
:1013D000EF2B09F480E0672B09F08260452B09F0C0
:1013E0008460232B19F08860089580E00895CF93DE
:1013F000DF93EC010E94C6099E01205E310928306E
:10140000310510F0209739F40E941D0C8C2FDF91CC
:10141000CF910C943F0B0E946D0EF8CFCF93DF93CA
:10142000EC010E94AF0BCE010E94C6099E01205E16
:1014300031092830310510F0CD2B21F4DF91CF9107
:101440000C94240CDF91CF910C94740E81E00895DC
:101450000C94780908950C942A0A1F93CF93DF9374
:1014600000D000D00F92CDB7DEB749835A836B838B
:101470003091480189819A8131111DC06623B9F0EC
:101480002223A9F00E943310182F682F89819A8196
:101490000E94DC0F69817A81812F0F900F900F904D
:1014A0000F900F90DF91CF911F910C94E1160E9445
:1014B0000A10182FEFCF0E94331069817A81EDCF87
:1014C000FC01262F408151816281738184810C94BB
:1014D0002D0A81E00895CF93DF93EC0160E00E9434
:1014E000600ABE01DF91CF910C942B0A0E94ED1788
:1014F0000E94F30A0C9411180C94141880E00C94B8
:10150000F40A089508950E94850E0E94820A2FEF22
:1015100084E39CE0215080409040E1F700C000004F
:101520000C943B1E0F931F93CF93DF938C0161E0CC
:101530000E94600AEC01B8010E94280A8823A9F1E0
:10154000B801CE010E94F61B882379F1B801CE01C3
:101550000E94DE19882349F1B801CE010E94601B68
:10156000882319F1F8018281882361F0CB35FDE5EC
:10157000DF0721F170F4C115ECE5DE07A1F0CF3DE6
:10158000DC45C9F0C801DF91CF911F910F910C94F8
:10159000260ACC358DE5D807A1F0CD35DD4591F78C
:1015A0000E945E14EFCF0E94830A80E0DF91CF910A
:1015B0001F910F9108950E941815F7CF0E9467148C
:1015C000E1CF0E946A14DECF0C94810A0E94521C63
:1015D0000E94F40A0C94E40A08950C94EC0A81E049
:1015E00008950C94EF0A0895CF93C82F0E94ED0A36
:1015F0008C2FCF910C94F10ACF93DF93CDB7DEB748
:101600002B970FB6F894DEBF0FBECDBF4F83588720
:1016100069877A878B8761110E94B9131E821D82A8
:1016200085E0FE013796DE01119601900D928A95B4
:10163000E1F78C819D81892B89F449815A816B81E5
:101640007C818D819E810E94D7122B960FB6F894D3
:10165000DEBF0FBECDBFDF91CF91089589819A8102
:1016600089238F3F51F3CE0101960E94690A8111AF
:10167000E4CFEBCFFC01808191810C947510CF9366
:10168000C82F882309F469C08238C1F40E94521C13
:1016900081FD63C089E30E9471130E94DC132FEF68
:1016A00081EE94E0215080409040E1F700C00000BE
:1016B00089E30E947813CF910C94DC138338A1F452
:1016C0000E94521C80FD49C083E50E9471130E9454
:1016D000DC132FEF81EE94E0215080409040E1F741
:1016E00000C0000083E5E5CF8438A1F40E94521CBD
:1016F00082FD33C087E40E9471130E94DC132FEF38
:1017000081EE94E0215080409040E1F700C000005D
:1017100087E4CFCF8CEF8C0F813A90F46C2F8091BF
:101720000201909103010E94B81C882329F08C2F9C
:101730000E9478130E94DC138C2F0E947113BBCF80
:1017400080E28C0F883048F4C77081E001C0880FB8
:10175000CA95EAF70E949913AECFCF9108958823D6
:1017600009F44BC0823871F40E94521C81FF45C0BD
:1017700089E30E9471130E94DC1389E30E947813AD
:101780000C94DC13833859F40E94521C80FF35C03E
:1017900083E50E9471130E94DC1383E5EFCF843848
:1017A00059F40E94521C82FF28C087E40E947113E2
:1017B0000E94DC1387E4E2CF9CEF980F913AF0F29D
:1017C00090E2980F983050F4877091E001C0990F23
:1017D0008A95EAF7892F0E949F13D2CF9BE5980F35
:1017E000933020F490E080E00C94781C885A873184
:1017F00020F490E080E00C948E1C08951F93CF930A
:10180000DF93182FEB010E943F0B209731F4812FBB
:10181000DF91CF911F910C94AF0B8FE99FE001975F
:10182000F1F700C000002197F0CF70E060E089334D
:1018300011F460E570E00C94FE0B882321F00E9407
:1018400099130C94DC130895882321F00E949F13B0
:101850000C94DC130895BF92CF92DF92EF92FF9227
:101860000F931F93CF93DF936C01D62FC72FFC01EB
:101870001281F580F2949FE0F9220E948F13E82EE6
:101880008823B9F0E12E1123A1F08C2F807F8034C2
:1018900021F080E28D0F8830D0F08091450282FDEA
:1018A00016C082E00E942D140E948F1391E0E82E52
:1018B000E926BC2EB2948FE0B822FBE0FB1508F4B9
:1018C00068C0EB2DF0E0E15AF84D0C94F024E12CC7
:1018D000F0CF0C2F0F70C07F11F00295007F112305
:1018E00099F0002359F080E28D0F883010F0D1116B
:1018F00007C0802F0E9499130E94DC138D2F41C0D6
:10190000802F0E94AC13F8CF8D2F0E94AF0B0023C5
:1019100009F43FC080E28D0F883010F0D11104C06F
:10192000802F0E949F1303C0802F0E94B2130E9439
:10193000DC132FC00C2F0F70C07FC03211F0029546
:10194000007FDD2381F0D13009F469C0112309F44F
:1019500073C0FF2009F469C0F601858180FFCECFF6
:101960008F70858362C08091450282FF38C0112349
:1019700059F0002329F0802F0E9499130E94DC1354
:1019800080E00E943F0B05C080E00E94AF0B011178
:10199000C7CFEB2DE850FF0B349720F40E94521C68
:1019A0000E94F40AEE2009F44BC10E948B1380FDC3
:1019B00047C1F60112820E9485130E94400FC601A2
:1019C0000E94410E0E948513DF91CF911F910F91CC
:1019D000FF90EF90DF90CF90BF900C94610F112398
:1019E00089F0F11006C00E94BF13802B0E941D0CCD
:1019F000D0CF21E0F212F7CF0E94BF13802B0E94BC
:101A0000C513C7CFF11006C00E94D213802F0E94C9
:101A1000240CBFCF31E0F31609F4BBCFF5CF11236F
:101A200031F085E08F1508F4B4CF802FDFCF94E03C
:101A30009F1508F4AECFEACFFF2041F3D93349F424
:101A4000FFEF27EE33E0F15020403040E1F700C0D7
:101A500000008D2F0E94AF0B9CCF8C2F837009F05C
:101A600041C0111196CF4D2F429546954770440FB6
:101A7000440F0D2F0F7010E030E020E0042E04C062
:101A8000000F111F221F331F0A94D2F760E070E08D
:101A9000CB01D4FF0FC06FE070E080E090E004C0A5
:101AA000660F771F881F991F4A95D2F7609570952A
:101AB00080959095C695C695C370602B712B822B2F
:101AC000932BC23049F058F4C13019F00E94F20E45
:101AD00060CF0E94E00E5DCF0E94040F5ACF0E949B
:101AE000DE0E57CF8695112311F08C2F817088233D
:101AF00009F44FCF4D2F429546954770440F440F40
:101B00000D2F0F7010E030E020E0042E04C0000F15
:101B1000111F221F331F0A94D2F760E070E0CB013F
:101B2000D4FF0FC06FE070E080E090E004C0660F6B
:101B3000771F881F991F4A95D2F7609570958095F9
:101B40009095C695C695C370602B712B822B932BF5
:101B5000C23049F058F4C13019F00E94B70F19CFC4
:101B60000E94A50F16CF0E94C90F13CF0E941A0F13
:101B700010CFCF70112329F08C2F0E94400F8D2F92
:101B800035CF8D2F0E94240C8C2F0E94610F01CF26
:101B9000D23F51F160F4D03FB9F0D13F81F0112331
:101BA00009F449C0F110AACE8C2F8F7121C0D33F08
:101BB00011F1D43FA1F78091450282FF26C08C2FFE
:101BC0008F71112311F314C0112349F084E08F1594
:101BD00008F4DFCE8C2F8F710E94840FDACE95E04F
:101BE0009F1508F4D6CEF6CF8C2F8F711111CDCF63
:101BF0000E94400FCECE112329F08C2F8F710E94AE
:101C00002B0FC7CE0E94260FC4CE112349F0CF71EF
:101C10008C2F0E94400F63E08C2F0E941214B9CECB
:101C200081E00E942D14E1E0EF1508F0B2CE82E0D1
:101C30000E942D14AECEF11001CF8C2F8F71A5CF45
:101C4000DF91CF911F910F91FF90EF90DF90CF9098
:101C5000BF9008950F931F93CF93DF93EC0168819A
:101C600079818A810E947F108C010E94DB0F0E9483
:101C7000DD0EB801CE01DF91CF911F910F910C9431
:101C80002B0CCF93DF93EC018B819C81892B29F066
:101C90008881998189238F3F59F4DF91CF910895ED
:101CA000CE010E942A0ECE01DF91CF910C946B0AD7
:101CB000CE010E94920A8111F3CF0E948F138823D4
:101CC00061F38A81882349F38091450282FDE5CF43
:101CD00082E0DF91CF910C942D14882321F00E9493
:101CE000AC130C94DC130895882321F00E94B213E6
:101CF0000C94DC1308950E94B9130E94BC130C9439
:101D0000DC130E947F130C947B0E0E94A9130C9489
:101D1000810EE92FE295EF70E250EE3070F4F0E0C2
:101D2000E559F84D0C94F024803F19F020F4883EDA
:101D300020F481E00895843FE1F380E00895883E37
:101D4000C0F3813FD1F7F5CF93FB882780F9089541
:101D5000FC01808191810E9475100C94890ECF93B3
:101D6000DF9300D000D00F92CDB7DEB70F900F9069
:101D70000F900F900F90DF91CF910895CF93DF9345
:101D800000D000D000D0CDB7DEB726960FB6F894BD
:101D9000DEBF0FBECDBFDF91CF91089508950C94A3
:101DA000CE0E0E94CF0E60937501709376018093E2
:101DB0007701909378010C947B0E08950C94D10ECA
:101DC0000F931F9300917501109176012091770177
:101DD00030917801602B712B822B932B1F910F91E7
:101DE0000C94D10E0F931F93009175011091760101
:101DF000209177013091780160237123822393230E
:101E00001F910F910C94D10E0F931F9300917501A8
:101E10001091760120917701309178016027712728
:101E2000822793271F910F910C94D10E0C94CE0E04
:101E30000C94160F0E94180F609371017093720139
:101E400080937301909374010C947B0E60E070E0BA
:101E5000CB010C941A0F0F931F9341E050E060E008
:101E600070E08A019B0104C0000F111F221F331F65
:101E70008A95D2F7C901B8011F910F910C941A0FDE
:101E80000F931F9341E050E060E070E004C0440F06
:101E9000551F661F771F8A95D2F780917101909127
:101EA0007201A0917301B09174018A019B01082B0A
:101EB000192B2A2B3B2BC901B8011F910F910C94B0
:101EC0001A0F0F931F9341E050E060E070E004C0F0
:101ED000440F551F661F771F8A95D2F7CB01BA01B1
:101EE00060957095809590950091710110917201A7
:101EF0002091730130917401602371238223932315
:101F00001F910F910C941A0F0F931F9341E050E013
:101F100060E070E004C0440F551F661F771F8A956C
:101F2000D2F78091710190917201A0917301B091EB
:101F300074018A019B01082719272A273B27C90119
:101F4000B8011F910F910C941A0F0F931F930091DA
:101F50007101109172012091730130917401602B15
:101F6000712B822B932B1F910F910C941A0F0F93AF
:101F70001F930091710110917201209173013091B2
:101F8000740160237123822393231F910F910C947A
:101F90001A0F0F931F9300917101109172012091FC
:101FA00073013091740160277127822793271F9155
:101FB0000F910C941A0F0895E92FEE0FE90FEE0F11
:101FC0008E0F982F977041E001C0440F9A95EAF761
:101FD00086958695869595E0899FF0011124E75BAB
:101FE000FE4F30E020E070E05191DF011197CB010E
:101FF000022E02C0969587950A94E2F7817081952A
:102000008527842385278C932F5F3F4F253031050B
:1020100059F70895E92FEE0FE90FEE0F8E0F982F65
:10202000977086958695869525E0829FF00111240C
:10203000E75BFE4F50E040E080E0219130E0092E68
:1020400002C0369527950A94E2F721703327042EB3
:1020500001C0220F0A94EAF7822B4F5F5F4F453091
:10206000510559F70895BF92CF92DF92EF92FF92F8
:102070000F931F93CF93DF938C01C0907101D09089
:102080007201E0907301F09074018091750190915C
:102090007601A0917701B0917801C82AD92AEA2A5D
:1020A000FB2ACFE1D0E0BC2ED701C6010C2E04C024
:1020B000B695A795979587950A94D2F780FD0EC09F
:1020C000219788F7B12C8B2DDF91CF911F910F9124
:1020D000FF90EF90DF90CF90BF900895B8018C2FC4
:1020E0000E94F516019761F3EECFCF93DF93EC01D9
:1020F0000E943310BE01DF91CF910C94F5161F930F
:10210000CF93DF93EB0190914801992331F0CB01FC
:10211000DF91CF911F910C947510882379F0CB013A
:102120000E943310182F682FCE010E94DC0FBE01D1
:10213000812FDF91CF911F910C94F516CB010E9456
:102140000A10182FF4CF1F93CF93DF93C09179011A
:1021500016E080917A018C1304C0DF91CF911F911A
:102160000895D0E01C9FF0011D9FF00D1124E5584B
:10217000FE4F4081518162817381848195810E94EB
:10218000BE0E2196C770E5CF4091AB015091AC01D6
:102190006091AD017091AE018091AF019091B0015D
:1021A0000C94BE0EFF920F931F93CF93DF938091F9
:1021B000B001807FD1F48091AD018823B1F080918E
:1021C000790110917A016091AB017091AC01A091FD
:1021D000AE01B091AF01062F0723C0910001D0914D
:1021E000010196E0F92E181306C0DF91CF911F91DF
:1021F0000F91FF90089590E0109711F00F3F19F4A0
:1022000001968770F0CFF89E9001F99E300D112451
:10221000F901E558FE4F41814713F2CF4081461343
:10222000EFCF42814111ECCF438154814A1B5B0BBC
:102230004C175D0728F78091B0018F708061809303
:10224000B001F901E058FE4F80818F70806180837A
:102250008BEA91E00E94410EDF91CF911F910F9187
:10226000FF900C94A310AF92BF92CF92DF92EF92A7
:10227000FF920F931F93CF93DF93CDB7DEB7619794
:102280000FB6F894DEBF0FBECDBF8C0185E0F8011C
:10229000DE011D9601900D928A95E1F7F801E2802A
:1022A0008BEAC82E81E0D82E6091AE017091AF010B
:1022B0006115710509F45FC19091AB012091AC01EA
:1022C000892F82238F3F09F456C140815181A38019
:1022D000B480F090AD01F501E61BF70BBF01E09172
:1022E0000001F0910101FF2009F4F6C08091B001D6
:1022F000382F307F6E177F0708F0AFC0311179C0DB
:10230000FE2C251323C0941321C0E1101FC08F7031
:1023100080618093B0010E94C410C6010E94410EEA
:102320008091B001F80185838F2D61960FB6F894E6
:10233000DEBF0FBECDBFDF91CF911F910F91FF90F8
:10234000EF90DF90CF90BF90AF900895AB2829F029
:10235000842F85238F3F09F027C180E0F82FF1708B
:10236000DF2E80FF3CC08091790120917A0136E018
:10237000821315C04D875E878D859E850E947510DE
:10238000292F22952F702230F0F0243018F59F70FD
:10239000F1F0F8019581907FD1F4D12C1EC090E02E
:1023A000389FF001399FF00D1124E558FE4F6181EF
:1023B000651306C06081641303C062816E110FC093
:1023C00001968770D5CF9F7011F0882331F3805E1E
:1023D000883018F3C8010E94410EFD2CA5CFEE20D5
:1023E00009F4A2CF8091B00181608093B001F12CFB
:1023F0009BCF251306C0941304C0F801EE2009F406
:1024000087C0C8010E94A80E882319F1EE2009F1A7
:102410008091B001803270F02091AB013091AC011D
:1024200038872F831986BB86AA868C87CE010796AC
:102430000E94410E86E0F801ABEAB1E001900D92F6
:102440008A95E1F70E94D2100E94C410FF24F394F1
:102450006BCFC8010E94410EF9CF311113C07A2D04
:10246000B98AA88A6E2D89890E94AF0E8BEA91E005
:102470000E94410E86E0F60111928A95E9F70E94CA
:10248000C410B5CF25130FC094130DC0E1100BC0BD
:10249000F8018583C8010E94410E86E0F601119281
:1024A0008A95E9F741CFC8010E94A80E882389F2D6
:1024B000EE2079F28091B001803208F4BBCF2091F8
:1024C000AB013091AC013A8329831B82BD82AC827F
:1024D0008E83CE010196ACCF6E177F0708F03EC009
:1024E000FE2CEE2009F4B5CF25132AC0941328C082
:1024F0008091B00180FD1BC0982F907FC1F0F80142
:102500008583903F31F0982F907F905F8F70892B5B
:102510008583C8010E94410E86E0F801ABEAB1E074
:1025200001900D928A95E1F70E94C410FDCE86E0DD
:10253000F801ABEAB1E001900D928A95E1F7F4CE93
:10254000C8010E94A80E811175CF8091B0018160F1
:102550008093B001C8010E94410EE6CE7A2DB98A5F
:10256000A88A6E2D89890E94AF0E86E0F60111922D
:102570008A95E9F7D9CFEE2009F46BCFC8010E9404
:10258000A80EF82E882309F464CF86E0F801ABEAA0
:10259000B1E001900D928A95E1F78BEA91E00E94FB
:1025A0003A0B0E94D210C0CF81E08E25D7CE1F9368
:1025B000CF93DF93CDB7DEB72C970FB6F894DEBF7D
:1025C0000FBECDBF4F83588769877A878B879C87DB
:1025D000CE0107960E943311882369F08A859B8576
:1025E000892B39F04F815885842F85238F3F09F03F
:1025F00071C016E05FC086E0FE013796DE011196DD
:1026000001900D928A95E1F78A859B85892B89F344
:102610008F81988589238F3F61F320917A0130E083
:10262000C9010196877099274091790148171906C9
:1026300071F40E94850E10927A011092790186E061
:10264000EBEAF1E0DF011D928A95E9F7D2CF96E03F
:10265000929FD001939FB00D1124A558BE4FFE014B
:10266000319601900D929A95E1F780937A010E943C
:10267000A310BFCF819FC001112485589E4F0E9497
:1026800033118823E9F0E09179011E9FF0011124B4
:10269000E558FE4F4081518162817381848195812B
:1026A0000E94BE0E8091790190E001968770992773
:1026B000809379018091790190917A018913DACF21
:1026C0002C960FB6F894DEBF0FBECDBFDF91CF9131
:1026D0001F91089569857A858B859C850E94BE0E21
:1026E00088CF682F80910201909103010C94381DCE
:1026F000682F80910201909103010C94431D8091F9
:102700000201909103010C944E1D8091B1018595B9
:102710008595859508958091B10187700895909170
:10272000B101977081E009F480E008958091D501AE
:1027300008959091D501892B8093D50108958095B6
:102740009091D50198239093D50108958093D50158
:1027500008951092D50108959091D401892B80930A
:10276000D401089580959091D40198239093D40139
:1027700008951092D40108951092D3010895809184
:10278000B201089508950C94C2139091450292FDF0
:1027900008C09091B201981721F08093B2010C9477
:1027A000C31308958091B201882329F01092B201D9
:1027B00080E00C94C3130895E0910201F0910301AD
:1027C0008091D5018083E0910201F0910301808125
:1027D0009091D401892B8083E0910201F091030153
:1027E00080819091D301892B80839091B2019923AC
:1027F00081F0E0910201F09103018081892B8083B7
:1028000080910201909103010E94A41C81110E94F9
:10281000D21380910201909103010C945E1C0895E3
:102820000C940F149091450292FD10C098E0899F7E
:1028300090011124622B6093B1010E94400F80919E
:10284000B1018595859585950C9410140C94400FD5
:102850001092B10180E00C9410149091B101809518
:1028600089238093B101282F277091F4282F082EF7
:10287000000C330B9217130659F09091450292FD0C
:1028800007C08595859585950E94610F0C94281445
:1028900008959091450292FB222720F9281769F0AC
:1028A00080FB92F9909345028091440290914502F9
:1028B0000E94941482E00C942D1408958091450296
:1028C00082FB882780F991E089270C94491481E0E4
:1028D0000C94491480E00C9449146FEF7FEF90E062
:1028E00080E00C94432590E080E00E941F2521E0C9
:1028F000893E9E4F09F020E0822F089582E090E00B
:102900000C94172583E090E00C941725CF9384E076
:1029100090E00E941725C82F82E290E00E941725C0
:10292000982F8C2FCF910895CF93C92F682F84E0D3
:1029300090E00E9425256C2F82E290E0CF910C94CC
:102940002525AB01BC018FE090E00C943725AB014D
:10295000BC0183E190E00C94372560E070E0CB018E
:102960000C94A71460E070E0CB010E94A1140C94B9
:10297000AD1469EE7EEF90E080E00E94432560E0B8
:1029800082E090E00E94252560E083E090E00E94D4
:102990002525109275011092760110927701109200
:1029A000780160E084E090E00E94252560E082E20A
:1029B00090E00E94252560E085E090E00E942525BA
:1029C00060E086E090E00E9425256FEF87E090E0D0
:1029D0000E94252540E050E0BA0188E090E00E9486
:1029E000372560E08DE090E00E94252540E050E032
:1029F000BA0188E190E00E94372560E087E190E02D
:102A00000E94252540E050E0BA018CE190E00E9450
:102A1000372570E060E080E290E00E94432540E0CE
:102A200050E0BA0188E190E00E9437250C94B2147E
:102A30000C94B914682F8EE090E00C9425250E9428
:102A4000FC1D6093E9017093EA018093EB01909380
:102A5000EC016093E5017093E6018093E7019093A8
:102A6000E80108950E94FC1D6093E9017093EA015A
:102A70008093EB019093EC016093E1017093E2018C
:102A80008093E3019093E401089585B7806885BF42
:102A900085B7806885BF0895089508950C944C15F6
:102AA00008950C9450150E94451583ED97E10E94FE
:102AB000481C0E944D150C944E1581E008950C940D
:102AC0005D15089508950E9461150C9462150E9489
:102AD000E71D0E941E190E940A1B0C945115AF920B
:102AE000BF92CF92DF92EF92FF920F931F93CF93FB
:102AF000DF93CDB7DEB72A970FB6F894DEBF0FBECF
:102B0000CDBF0E94331981110E941F1587EDA82E99
:102B100081E0B82E10E000E0C02E802F0E94161831
:102B2000E82EF501F1905F01F81609F451C080918B
:102B3000ED0181FD0E941C188F2D8E25D12CFF24C4
:102B4000F394982F9F2109F43EC00E945F158823BB
:102B500099F0DE82CF82EF2081E009F480E088875F
:102B60000E94F01D8160782F9A8789874E815F814E
:102B700068858A850E94FC0AF801E952FE4F80812F
:102B8000F826F0820E94191B81110E9432150E94C2
:102B9000521C9091D601891791F10E94521C80938A
:102BA000D6012A960FB6F894DEBF0FBECDBFDF91D7
:102BB000CF911F910F91FF90EF90DF90CF90BF903A
:102BC000AF900C94F40AD394FF0CF6E0DF12B9CF67
:102BD0000F5F1F4F0A30110509F09ECF8FEF8983D9
:102BE0008A831B820E94F01D8160782F9D838C83D5
:102BF00049815A816B818D810E94FC0AC3CF2A963C
:102C00000FB6F894DEBF0FBECDBFDF91CF911F91FD
:102C10000F91FF90EF90DF90CF90BF90AF9008950D
:102C2000CF93DF930E94F916EC01811523E59207FB
:102C300090F5811532E5930708F096C08115904212
:102C4000C8F4C11581E0D80788F4C53AD10548F425
:102C5000C430D10558F4C130D10541F0D0E0C0E016
:102C600005C0CE01805E91090897C0F7CE01DF91C3
:102C7000CF910895C11591E5D90708F070C0C1152D
:102C800020E5D20708F04EC0C11530E4D30730F379
:102C9000DF70D06AEBCF811546E59407F0F4C115DB
:102CA00085E5D80708F075C0C11594E5D90708F087
:102CB0006BC0CE018370992721E030E002C0220F63
:102CC000331F8A95E2F7C695C69590E2C99FE00149
:102CD0001124C22BD32BDA68C9CF81152AE59207BC
:102CE00078F4811539E5930708F05EC0811548E551
:102CF000940708F4B3CFD82FCC27C06FD06AB6CFD3
:102D000090568115904208F0A9CF8D2F8F710E94A7
:102D1000901790E0982F882788279F719C012C2B73
:102D2000E90140C0CE01E4E096958795EA95E1F788
:102D300083702C2F26952695237040E2249F9001C6
:102D40001124382B8C2F8370C1E0D0E002C0CC0F4F
:102D5000DD1F8A95E2F7C22BD32BDC6887CFDC2FEF
:102D6000CC27C16FD06A82CF8370992721E030E0F1
:102D700002C0220F331F8A95E2F7C695C69580E2FE
:102D8000C89FE0011124E7CFDC2FCC27C46FD06AA5
:102D90006DCF8C2F0E949017C82FD0E0DC2FCC274E
:102DA000CC27DF71D06262CF8F700E94901734E021
:102DB000D695C7953A95E1F7CF709C2FEC01D06975
:102DC00055CF972F70E026E0929F600D711D112462
:102DD000FB019CE3899FE00DF11D1124EE0FFF1F05
:102DE000E455FF4F8591949108950E94E1160C944B
:102DF000101682389105B1F1B0F48133910509F4D0
:102E000075C048F48932910509F469C08A32910588
:102E100009F473C008958533910509F459C08933C5
:102E2000910501F10895833E9105A9F138F4803EA2
:102E30009105F9F0823E910549F10895863E91058C
:102E4000A9F1873E9105C9F1843E910519F52091BC
:102E5000450221FF1FC08091440284FD14C087EE0B
:102E600090E00895209144022370A1F080EE90E05C
:102E700008952091440220FD47C03091450230FF63
:102E800009C024FF44C090E080E004C020914402C7
:102E900022FDF7CF08952091440222FD3BC03091DE
:102EA000450230FDE3CF24FFF5CFEDCF2091440262
:102EB00023FFF0CF24FDE7CFD2CF2091440223FDA2
:102EC0002CC03091450231FFEECF84EE90E00895A2
:102ED0002091440225FFDECF89E290E00895209101
:102EE000440225FFD7CF85E390E008952091440266
:102EF00026FFD0CF8AE290E008952091440226FF79
:102F0000C9CF81E390E0089589E390E0089583EECE
:102F100090E0089582EE90E0089586EE90E00895A6
:102F20009091440292FF06C0282F28712830F9F4AE
:102F3000877F846093FF06C0282F28712831F1F421
:102F4000877E84612091450220FF06C0382F3871AA
:102F50003830D9F4877F816021FF06C0282F28717F
:102F60002831D1F4877E816194FD877E0895282FD2
:102F700024712430F9F68B7F8860DCCF282F2471F0
:102F8000243101F78B7E8861DDCF382F31713130EC
:102F900019F78E7F8860E0CF282F2171213121F72A
:102FA0008E7E8861E1CF80E008950C946D140E94BC
:102FB00033198FE39CE90197F1F700C000000E94EC
:102FC000331980E00E94161880FF04C00E94D517B4
:102FD0000C943B1E08950C94D7170E947314811112
:102FE00002C00E9418150E947E148093ED010E9479
:102FF000861490934502809344020E94EB170E942E
:103000008214682F70E090E080E00E94DE0E6091F4
:1030100071017091720180917301909174010C940F
:10302000180F0C94750908950C941318E82FF0E00C
:10303000E05BFD4F80810895089580EA8A95F1F75D
:10304000089500C008950C941D18F894E82FE29597
:10305000EF70F0E031A1282F2F7081E090E001C0E7
:10306000880F2A95EAF7982F9095932391A392A120
:10307000892B82A378940895F894E82FE295EF7055
:10308000F0E031A1282F2F7081E090E001C0880F7F
:103090002A95EAF7382B31A392A18095892382A340
:1030A00078940895DF92EF92FF920F931F93CF933E
:1030B000DF93EC01D62E062F10E0F801E95EFE4FFB
:1030C000E0808FEFE81681F18E2D0E943C180E945F
:1030D0002118E1E1F1E047E151E081E0F12C91912B
:1030E0009F3F79F0A92FA295AF70B0E090962C91F8
:1030F00030E09F7002C0359527959A95E2F7982F9A
:1031000020FD90E0F92A880F4E175F0741F78E2DBA
:103110000E94251861E0F11001C060E08D2D0E9431
:103120002318C00FD11FF882DF91CF911F910F910B
:10313000FF90EF90DF900895CF92DF92EF92FF9291
:103140000F931F93CF93DF93E82E092F162FF42EA2
:10315000C62FD0E0CF5EDE4F88818F3F09F445C097
:103160000E943C180E94211887E1C82E81E0D82EC9
:10317000EE2DF02FAF014B5F5F4F00E0EF2CE0949E
:10318000D6019D916D0181919F01215031099F3F91
:1031900041F1692F62956F7070E0DB0190966C9140
:1031A00070E09F7002C0759567959A95E2F760FD93
:1031B00018C08F29D9018C9301E0E417F50701F7B6
:1031C00088818F3F11F00E942518602F812FDF9199
:1031D000CF911F910F91FF90EF90DF90CF900C94C3
:1031E00023188E21D9018C93E8CFDF91CF911F91C5
:1031F0000F91FF90EF90DF90CF9008950F931F9362
:10320000CF93DF93C7E1D1E089918F3F11F00E9406
:10321000251881E0CC31D807B9F7C1E1D1E007E149
:1032200011E089918F3F11F00E9425180C171D079E
:10323000C1F7DF91CF911F910F9108950E94FE1861
:103240008AE0E0E5F2E0DF01982F1D929A95E9F718
:10325000EEEEF1E0DF011D928A95E9F785E00E942C
:103260008E190C94760AEF92FF920F931F93CF93CF
:10327000DF93CDB7DEB72A970FB6F894DEBF0FBE47
:10328000CDBF8E010F5F1F4F8AE0F80111928A9522
:10329000E9F7F12C6F2DC8010E945218F394F5E064
:1032A000FF12F8CFF12CEE24E3944E2D6F2DCE01BA
:1032B00006960E949C18F394EE0C86E0F812F5CF67
:1032C0004AE050E0B8018EEE91E00E940A25FF240A
:1032D000F394009709F4F12C892B41F08AE0F8016E
:1032E000AEEEB1E001900D928A95E1F72F2D4AE004
:1032F00060E572E08EEE91E00E948F190E947C0AD8
:103300008F2D2A960FB6F894DEBF0FBECDBFDF918A
:10331000CF911F910F91FF90EF9008950895FF9224
:103320000F931F93CF93DF93F82E092F162FD72FCC
:10333000C42F222349F081E08093FA010E94F01DFE
:103340009093F9018093F8018091FA018823A1F00C
:103350008091F8019091F9010E94081E059760F094
:10336000EF2DF02FA12FBD2FCE0FDF2FD11DEC178A
:10337000FD0741F41092FA01DF91CF911F910F9157
:10338000FF90089581918D93F2CF0E94B01F0E940B
:1033900067150C94BC1F0E94C01F0E946F150C94EF
:1033A000DA1F0E947A1D0E94971F0E9453150E94E7
:1033B000C5190E94CB190E946315FBCFCF93DF93F1
:1033C000EC01FB018281882309F420C1C430FDE5B2
:1033D000DF07C8F5CB3F9CE5D90730F49E012250AA
:1033E0003C452431310598F50E948614909345029E
:1033F00080934402C031FCE5DF0709F4E0C008F027
:1034000061C0C8309CE5D90709F4CBC088F5C43049
:10341000FCE5DF0709F4B3C0E8F4C2309CE5D90746
:1034200009F4A7C0809144028260C330DC4509F4EE
:10343000A3C080914402909145020E9494140E947E
:10344000850E80E004C0C236EDE5DE0769F2DF914B
:10345000CF910895809144028061C630FCE5DF077A
:1034600009F48AC008F48FC080914402806284C04D
:10347000809144028D7FCC309CE5D90709F47CC053
:1034800070F4809144028C60CA30FCE5DF0709F4D7
:1034900073C008F48AC0809144028E7F6DC0809111
:1034A0004402877FCE309CE5D90709F465C080913E
:1034B00044028B7FCF30DC4508F45EC0809144022B
:1034C0008F7E5AC0CD3FFCE5DF0709F474C040F59C
:1034D000C4319CE5D90709F48AC058F4C231FCE52F
:1034E000DF0709F474C008F46EC080914402837F42
:1034F00043C0CB3F9CE5D90709F449C008F04DC053
:10350000C531DC4509F095CF8091440282FB9927B3
:1035100090F921E0922790FB82F990FB83F92CC06F
:10352000C1308DE5D80709F458C088F48091450270
:103530008360CF3FECE5DE0769F1809145028D7F26
:10354000C115DD4538F1809145028C7F23C0C33021
:103550008DE5D80709F458C008F452C0C236DD45DD
:1035600009F067CF90914402892F8F7E94FF80618C
:1035700003C0809144028160809344025ACF8091BD
:1035800044028460F9CF809144028860F5CF809135
:1035900045028160809345024CCF80914502826054
:1035A000F9CF809144028064E7CF0E94850E80911C
:1035B00044028068E1CF809145028E7FEBCF8091FD
:1035C00044028F7DD9CF809144028F7BD5CF0E945A
:1035D000850E809144028F77CFCF80914502982F3E
:1035E000909591708E7F892B90FB81F9D3CF0E94AB
:1035F000850E90914402892F97FB87F98058BCCFA4
:1036000081E00E941A1515CF80E0FBCF81E01FCF2B
:103610000C94BC095098589A5198599A89B1817064
:10362000499905C090E0892B8093FD01089592E0AF
:10363000FACFE091FD01EE0FEE0FE093FD0149B1ED
:10364000842F817049B141FB222720F941FF02C03C
:1036500022E030E0822BE82BE093FD01EF70F0E0F8
:10366000E45EFE4F80819091FC01890F8093FC0104
:1036700020E0843054F08091FB018F5F8093FB0148
:1036800060E080E00E94081B21E08091FC018D3FFA
:1036900054F48091FB0181508093FB0161E080E054
:1036A0000E94081B21E08091FC01082E000C990B60
:1036B00064E070E00E94DC248093FC01822F089576
:1036C000CF93DF93EB0186319C4511F50E94961351
:1036D0009A81992399F08A7A91E009F490E0909385
:1036E000FE01811109C089E20E9471130E94DC135E
:1036F00080E0DF91CF91089585E3F6CF8091FE01C0
:10370000811104C089E20E947813F0CF85E3FBCFDA
:1037100081E0EFCF0F931F93CF93DF93C42FD22F6E
:10372000FC0182818823C9F0409301020E94F01DB0
:10373000909300028093FF0180E28C0F883008F0A4
:1037400050C0C77081E001C0880FCA95EAF7DF91C9
:10375000CF911F910F910C941D0C10910102141325
:1037600035C08091FF01909100020E94081E883CA4
:10377000910560F5C0E2CD0F1D17B9F080E2810F11
:10378000883040F4177081E001C0880F1A95EAF77D
:103790000E94240CC83048F481E09D2F977001C02E
:1037A000880F9A95EAF70E941D0C802F0E94150C35
:1037B000C830B8F4D77081E001C0880FDA95EAF715
:1037C000DF91CF911F910F910C94240C80E28C0F0C
:1037D000883038F4C77081E001C0880FCA95EAF7D5
:1037E000EFCFDF91CF911F910F9108950F939C011F
:1037F000CB01243F4CE5340759F1A8F4293DFCE501
:103800003F0701F12A3D4CE53407D1F1283D3C4505
:1038100091F406E221EE41EE68ED7CE50E948A1B00
:1038200080E00F910895263FFCE53F07E9F0B0F0F6
:10383000273F3C45F9F0FC018281882339F1109241
:103840000102EFCF07E225EE45EE69ED7CE5E6CF1C
:1038500006E221EE40EE64EF7CE5E0CF07E225EEE4
:1038600044EE65EF7CE5DACF06E221EE42EE66EF4C
:103870007CE5D4CF07E225EE46EE67EF7CE5CECFC0
:1038800008E221E045EE6AED7CE5C8CF81E0C9CFD2
:1038900090932D0180932C010895909307028093BB
:1038A00006020895E0910602F0910702309721F098
:1038B0000190F081E02D099480E00895E0910602E6
:1038C000F0910702309799F020911001222359F0CE
:1038D0002091440227FF07C0DC012C9111962C9304
:1038E000119726E02C930280F381E02D099408952E
:1038F00020910402309105022817390771F0909346
:10390000050280930402E0910602F09107023097CD
:1039100021F00680F781E02D09940895209102029C
:10392000309103022817390771F0909303028093B6
:103930000202E0910602F0910702309721F0008424
:10394000F185E02D09940895FC01329680911001D3
:10395000882321F0809144029EE187FF96E080E079
:10396000915008F4089521912223D1F38F5FF8CF6D
:10397000662301F1209110012223F1F020914402ED
:1039800027FF1AC0462F4695469546954E3190F42E
:10399000677021E030E002C0220F331F6A95E2F722
:1039A000840F911DFC01828190E02823392381E05E
:1039B000232B69F480E00895FC013296089621914A
:1039C000261721F0E817F907D1F7F4CF81E0089521
:1039D0009C01FC0132969FEF80E04191461751F027
:1039E0009F3F19F4411101C0982F8F5F8630A9F7CE
:1039F0009F3F09F40895290F311D97FD3A95F9016C
:103A000062830895FC01329608962191261303C023
:103A1000DF0111971C92E817F907B9F70895E62F0F
:103A2000E695E695E695EE3168F4E80FF92FF11D7D
:103A3000677021E030E001C0220F6A95EAF78281C9
:103A4000822B82830895E62FE695E695E695EE3182
:103A500070F4E80FF92FF11D677021E030E001C02C
:103A6000220F6A95EAF72095828128232283089500
:103A700020911001222329F02091440227FD0C946B
:103A80000F1D0C94E81C20911001222329F0209195
:103A9000440227FD0C94231D0C94021DFC01329658
:103AA00080911001882351F08091440287FF06C065
:103AB0008EE1DF011D928A95E9F7089586E0F9CF3E
:103AC00008950C94601D811105C081E08093080267
:103AD0000C94611D82E0FACF83E0809308020C947D
:103AE000611D0C94631D81E0809308020C94611D9C
:103AF0000C94731D089580916202843031F10E940C
:103B00007E0A1092090288E190E020E40FB6F89452
:103B1000A895809360000FBE2093600083B7817FDB
:103B2000846083BF83B7816083BF7894889583B7AF
:103B30008E7F83BF0FB6F894A8958091600088614E
:103B400080936000109260000FBE0895089508955C
:103B5000CF930E94A61D0E9433190E94A71DC0E0AA
:103B60008C2F0E941618811105C0CF5FCA30C1F793
:103B7000CF91089581E0FCCF0E94850E0C94E60A57
:103B80001F921FB61F9211248F939F93AF93BF93E1
:103B900080910902811113C080915A0290915B02B9
:103BA000A0915C02B0915D024196A11DB11D809370
:103BB0005A0290935B02A0935C02B0935D02BF91A6
:103BC000AF919F918F911F901FBE1F90189582E01B
:103BD00084BD93E095BD9AEF97BD80936E000895E4
:103BE0002FB7F89480915A0290915B02A0915C02E9
:103BF000B0915D022FBF08952FB7F89460915A02DB
:103C000070915B0280915C0290915D022FBF0895DC
:103C10009C014FB7F89480915A0290915B02A09159
:103C20005C02B0915D024FBF821B930B08957894A4
:103C30001F921FB61F9211248F939F93AF93BF9330
:103C400080915A0290915B02A0915C02B0915D025A
:103C50000196A11DB11D80935A0290935B02A0931F
:103C60005C02B0935D02BF91AF919F918F911F90C5
:103C70001FBE1F90189581E08093E00080E2809342
:103C8000D8001092C9008FE19EE40197F1F700C0BF
:103C9000000087E090EBDC0180936B0290936C0254
:103CA000A0936D02B0936E0288E19CE00FB6F89489
:103CB000A895809360000FBE90936000FFCF809125
:103CC0002A02089508950895CF93DF93EC0180911F
:103CD00010018823B1F18091440287FF32C060E275
:103CE00082E08093E9008FEF9091E800815095FD8C
:103CF00006C095ED9A95F1F700008111F5CF8091FE
:103D0000E80085FF1BC08091100170E050E040E0AA
:103D1000811104C050E040E068E070E0CE010E94F4
:103D20004B208091E8008E778093E80080E2FE01CE
:103D3000AAE0B2E001900D928A95E1F7DF91CF9170
:103D4000089568E081E0CDCF0895089580916102E3
:103D5000811109C00E94DB210E9438228091E2007B
:103D600084608093E20008951092610208950C949B
:103D7000731D60915E0281E0611101C080E00C94CE
:103D80006C1D9091620281E0943009F080E06091B6
:103D90005E020C94711D42E061EC81E00E945721AB
:103DA00042E261EC82E00E9457219091620281E040
:103DB000943009F080E060915E020C94631D809164
:103DC0006402833009F460C030F48130C9F182307C
:103DD00009F49CC008958A3009F488C08B3009F436
:103DE0006EC0893009F04FC080916302813209F0C2
:103DF0004AC08091670290916802029708F043C020
:103E00008091E800877F8093E8008091E80082FF3E
:103E100036C09091F3008091F200029731F48091C6
:103E2000F100813011F0863021F48091F10080930F
:103E30002A028091E8008B778093E8000C948B2114
:103E400080916302813AF9F48091E800877F809342
:103E5000E8008091670290916802892B61F460E22A
:103E60008AE092E070E00E949A208091E8008B77CF
:103E70008093E800089560E090E080E0F3CF8091C7
:103E800062028111C2CF089580916302813AD9F70D
:103E90008091670290916802892BA9F78091E800D0
:103EA000877F8093E8008091E80080FFFCCF8091BD
:103EB00010018093F1008091E8008E77BDCF809152
:103EC0006302813201F78091670290916802892B29
:103ED000D1F68091E800877F8093E8000E948B21D3
:103EE00080916502809310010C94850E809163028D
:103EF000813249F68091E800877F8093E8000E9434
:103F00008B218091660280932B0208958091630239
:103F1000813A09F0B8CF8091E800877F8093E8006C
:103F20008091E80080FFFCCF80912B02C2CF84B744
:103F3000877F84BF0FB6F894A89580916000886150
:103F400080936000109260000FBE80E890E00FB692
:103F5000F89480936100909361000FBE0C94781DDB
:103F60000E94DB210E943822E2EEF0E08081846032
:103F7000808378940C94C12484E091E00C944D1CCF
:103F8000809162028530A9F480916202853011F03F
:103F90000C94BC1D0E947B1D809160028823A1F3BC
:103FA0000E94A81D882381F30E9435200E94850E5F
:103FB000EBCF089508950C94DD1F292F332723306C
:103FC000310519F168F42130310509F444C022307B
:103FD000310509F445C090E080E030E020E025C0E4
:103FE0002132310549F122323105A9F780E490E010
:103FF00020EF32E061157105C1F08BE390E025EB15
:1040000032E06130710589F0E6CF99278130910562
:1040100081F0009729F00297F1F6E4E1F2E002C0A6
:10402000E4E6F2E0849190E09F01FA01318320837D
:104030000895ECE4F2E0F6CF89E090E02AE732E080
:104040006115710591F389E090E023E932E0613078
:10405000710559F3C0CF82E190E023EA32E0E5CF69
:104060008BE390E028E632E0E0CF80E189BD82E199
:1040700089BD09B400FEFDCF8091D8008F7D80936B
:10408000D8008091E00082608093E0008091E000A1
:1040900081FDFCCF0895AF92BF92CF92DF92FF9245
:1040A0000F931F93CF93DF936C01EB018A010E9462
:1040B000AA21F82E811123C00115110539F0F8014C
:1040C00080819181C81BD90BC80ED91EB12CA12C9F
:1040D0002097A9F08091E80085FD22C08091E8003A
:1040E0008E778093E80001151105A1F0F801808119
:1040F0009181A80EB91EB182A08285E0F82E8F2D85
:10410000DF91CF911F910F91FF90DF90CF90BF90E3
:10411000AF9008950E94AA218823D1F2F82EEFCF04
:10412000F60181916F018093F1002197FFEFAF1AA3
:10413000BF0ACECFFC018091690290916A02861776
:104140009707A0F06115710529F49091E8009E771A
:104150009093E80090E06115710551F4911108C049
:104160008091E80082FF34C080E00895BC01F2CF66
:10417000809162028823C1F18530C1F18091E8000D
:1041800083FD30C08091E80082FDEACF8091E80095
:1041900080FFE1CF8091F3002091F200382F61156C
:1041A000710519F02830310558F091E028303105BB
:1041B00009F090E02091E8002E772093E800CBCF23
:1041C00081918093F100615071092F5F3F4FE7CFDC
:1041D00080916202882341F0853041F08091E800AF
:1041E00083FFBECF81E0089582E0089583E00895C3
:1041F000FC018091690290916A0286179707A0F0EE
:104200006115710529F48091E8008E778093E800AC
:1042100090E06115710551F4911108C08091E8009A
:1042200082FF35C080E00895BC01F2CF8091620228
:104230008823C9F18530C9F18091E80083FD31C040
:104240008091E80082FDEACF8091E80080FFE1CF15
:104250008091F3002091F200382F6115710519F05B
:104260002830310558F091E02830310509F090E010
:104270008091E8008E778093E800CBCF8491809383
:10428000F1003196615071092F5F3F4FE6CF809169
:104290006202882341F0853041F08091E80083FF7D
:1042A000BDCF81E0089582E0089583E00895982FBE
:1042B000973028F08F708093E90081E00895909303
:1042C000E900242F762F50E0981731F07091EC0020
:1042D0002091ED005091F00021FD02C09F5FE8CFDA
:1042E0003091EB003E7F3093EB003091ED003D7F4D
:1042F0003093ED003091EB0031603093EB00709320
:10430000EC002093ED005093F0002091EE0027FD8B
:10431000E5CF80E008958091630287FF13C080910C
:10432000E80082FF06C08091E8008B778093E80068
:1043300004C0809162028111F2CF089580916202DF
:104340008823D9F38091E80080FFF8CF8091E800BE
:104350008E77ECCF2091E4003091E50095E6A9013D
:104360002091EC00822F817020FF06C08091E80030
:1043700080FF06C080E008952091E80022FD1AC069
:1043800080916202882389F0853089F08091EB006A
:1043900085FD0FC02091E4003091E50042175307DE
:1043A000F9F29150E1F684E0089582E0089583E007
:1043B000089581E008950E9449220E945122E0EE72
:1043C000F0E0808181608083E8EDF0E080818F778C
:1043D000808319BCA7EDB0E08C918E7F8C93808197
:1043E0008F7E80831092610208950F931F93CF9365
:1043F000DF930E9449220E945122C8EDD0E08881BB
:104400008F77888388818068888388818F7D88837F
:1044100019BC1092620210925E0210926002109219
:104420005F0200EE10E0F80180818B7F808388813D
:104430008160888342E060E080E00E945721E1EEE5
:10444000F0E080818E7F8083E2EEF0E08081816009
:104450008083808188608083F80180818E7F808363
:10446000888180618883DF91CF911F910F9108959A
:10447000E8EDF0E080818F7E8083E7EDF0E08081E1
:104480008160808384E082BF81E0809361020C942C
:10449000F521E8EDF0E080818E7F80831092E200CC
:1044A00008951092DA001092E10008951F920F9281
:1044B0000FB60F9211242F933F934F935F936F93F7
:1044C0007F938F939F93AF93BF93EF93FF938091CD
:1044D000E10082FF0BC08091E20082FF07C0809163
:1044E000E1008B7F8093E1000E94C0248091DA007C
:1044F00080FF19C08091D80080FF15C08091DA003C
:104500008E7F8093DA008091D90080FF96C080E191
:1045100089BD82E189BD09B400FEFDCF81E08093B1
:1045200062020E94A61E8091E10080FF19C0809166
:10453000E20080FF15C08091E2008E7F8093E20050
:104540008091E20080618093E2008091D8008062D7
:104550008093D80019BC85E0809362020E94B91E46
:104560008091E10084FF2BC08091E20084FF27C08E
:1045700080E189BD82E189BD89B5982F917080FF66
:10458000FBCF8091D8008F7D8093D8008091E1008F
:104590008F7E8093E1008091E2008F7E8093E20025
:1045A0008091E20081608093E20080915E02882326
:1045B00009F449C084E0809362020E94C11E809188
:1045C000E10083FF29C08091E20083FF25C0809134
:1045D000E100877F8093E10082E080936202109285
:1045E0005E028091E1008E7F8093E1008091E20085
:1045F0008E7F8093E2008091E20080618093E200F0
:1046000042E060E080E00E9457218091F0008860E5
:104610008093F0000E94B71EFF91EF91BF91AF9180
:104620009F918F917F916F915F914F913F912F91CA
:104630000F900FBE0F901F90189519BC1092620238
:104640000E94B41E70CF8091E30087FD93E09093A9
:104650006202B3CF1F920F920FB60F9211242F93C5
:104660003F934F935F936F937F938F939F93AF93FA
:10467000BF93CF93DF93EF93FF93D091E900DF7067
:104680008091EC00C82FC17080FDC0E81092E90055
:104690008091F000877F8093F00078940E946E23D1
:1046A0001092E9008091F00088608093F000CD2B9B
:1046B000CF70C093E900FF91EF91DF91CF91BF914F
:1046C000AF919F918F917F916F915F914F913F91AA
:1046D0002F910F900FBE0F901F9018951F93CF939F
:1046E000DF93CDB7DEB7AA970FB6F894DEBF0FBE43
:1046F000CDBF83E692E02091F100FC012193CF0130
:10470000F2E08B369F07B9F70E94DF1E8091E80028
:1047100083FF1EC180916302909164029A3008F079
:1047200017C1E92FF0E0E758F84D0C94F0248038D9
:1047300099F0823809F00CC1809167028F70873040
:1047400008F006C18093E9008091EB0085FB882783
:1047500080F91092E90006C080915F02909160029A
:10476000911182609091E800977F9093E800809388
:10477000F1001092F1008091E8008E77E5C0882367
:1047800009F4D3C0823009F0E3C080916502811141
:10479000D6C0809167028F702FEF280F263008F067
:1047A000D7C08093E9002091EB0020FFC8C0933070
:1047B00031F48091EB0080628093EB00C0C0909157
:1047C000EB0090619093EB0021E030E001C0220FFC
:1047D0008A95EAF72093EA001092EA008091EB00B4
:1047E0008860EACF8111B4C0109165021F77809173
:1047F000E3008078812B8093E3008091E800877F3D
:104800008093E8000E948B218091E80080FFFCCF1C
:104810008091E30080688093E30082E0111183E0DF
:104820008093620295C08058823008F091C08091D8
:104830006502909166028C3D23E09207A1F583E02A
:104840008A838AE289834FB7F894DE01139620E0C9
:104850003EE051E2E32FF0E050935700E49120FF57
:1048600003C0E295EF703F5FEF708E2F90E0EA306B
:10487000C0F0C7968D939D932F5F243159F74FBF9A
:104880008091E800877F8093E8006AE270E0CE01C3
:1048900001960E949A208091E8008B778093E8002F
:1048A00057C0C096E7CF6091670270916802AE0171
:1048B0004F5F5F4F0E94DB1FBC01892B09F448C08A
:1048C0009091E800977F9093E80089819A810E94F7
:1048D000F820E1CF8038E1F58091E800877F809370
:1048E000E80080915E028093F10045CF811130C0D5
:1048F00090916502923060F58091E800877F809307
:10490000E80090935E020E948B2180915E028823D2
:1049100011F084E005C08091E30087FDFACF81E0CB
:10492000809362020E94CB1E13C080916502813089
:1049300079F481E0933009F080E080936002109276
:10494000E9008091E800877F8093E8000E948B2136
:104950008091E80083FF0AC08091E800877F809300
:10496000E8008091EB0080628093EB00AA960FB67E
:10497000F894DEBF0FBECDBFDF91CF911F91089598
:104980000895CF93809162028823A1F0C091E9003D
:10499000CF709091EC00892F817090FD80E8C82B3A
:1049A0001092E9008091E80083FD0E946E23CF7091
:1049B000C093E900CF91089597FB072E16F4009459
:1049C00007D077FD09D00E94F62407FC05D03EF4FD
:1049D000909581959F4F0895709561957F4F0895AB
:1049E000EE0FFF1F0590F491E02D0994AA1BBB1B4D
:1049F00051E107C0AA1FBB1FA617B70710F0A61BDF
:104A0000B70B881F991F5A95A9F780959095BC01FF
:104A1000CD010895FB01DC0104C08D910190801946
:104A200021F441505040C8F7881B990B0895F9991B
:104A3000FECF92BD81BDF89A992780B50895A8E16F
:104A4000B0E042E050E00C944B25262FF999FECFC0
:104A500092BD81BDF89A019700B4021639F01FBAD1
:104A600020BD0FB6F894FA9AF99A0FBE08950396EE
:104A7000272F0E9426250E942525252F0E942625C6
:104A8000242F0C9426250196272F0E9426250C946E
:104A90002525DC01CB01FC01F999FECF06C0F2BD52
:104AA000E1BDF89A319600B40D9241505040B8F7EC
:104AB0000895F894FFCF7D02970299029B029D0210
:104AC0009F02B102B302B502B702B90280028002AE
:104AD00080028002800280028002800280028002C6
:104AE00080028002800280028002800280028002B6
:104AF00080028002A102A302A502A702A902AB02C2
:104B0000AD02AF02BB02BD02BF02C102C302C502B9
:104B100080028002C702C902CB02800280028002AA
:104B20008002800280028002800280028002800275
:104B30008002800280028002800280028002800265
:104B4000CD02CF02D102D30231033303F302D502E7
:104B5000E702DA02DF02E4020903D8020E031003BF
:104B60001503210303032303E2022503F302F302E7
:104B7000F302F302F302F302F302F302F302F3028D
:104B8000F302F302F302F30235033703F302F302F5
:104B9000F302E902EB02ED02FF0201030303050346
:104BA0000703170319031B031D03F3021F03270346
:104BB00029032B032D032F0383038503F302F30241
:104BC0004B034D034F0351035B035D035F0361031D
:104BD0006303F3027303750377037903F302F302AC
:104BE000F302F302F302F302F302F302F302F3021D
:104BF000F302F302F302F30287038903F302F302E1
:104C0000F3026C03530355035703590303030503CE
:104C1000070365030C03670369036E031F037B032C
:104C200013037D037F038103060408040A04E303DE
:104C30000C040E04BF0318041A041C041E042A04E6
:104C40002C042E0430043204B403BC03C103C30398
:104C5000C803D403DE03E003E503E703B403F4036E
:104C6000F603F803FA031004D403CF03C6031204B7
:104C700014041604DC032004220424042604DA03AA
:104C80002804F2033404D803B4030404CA03CC0395
:104C9000D103D603D803D803DA03DC03E903EB031B
:104CA000ED03CF03EF03DC03FC03FE030004020467
:104CB0000404360438043A043C04AF04B104B304D9
:104CC0008C04B504B7046804C104C304C504C70454
:104CD000D304D504D704D904DB045A0465046A0458
:104CE0006C0471047D04870489048E0490045A04C2
:104CF0009D049F04A104A304B9047D0478046F04F7
:104D0000BB04BD04BF048504C904CB04CD04CF0497
:104D10008304D1049B04DD0481045A04AD047304AC
:104D200075047A047F048104810483048504920459
:104D300094049604780498048504A504A704A9049F
:104D4000AB04AD04DF04E104E304E5041C0636060D
:104D500038063A063C063E065006520654065606EB
:104D600058061F061F061F061F061F061F061F06E2
:104D70001F061F061F061F061F061F061F061F060B
:104D80001F061F061F061F061F0640064206440692
:104D9000460648064A064C064E065A065C065E065D
:104DA0006006620664061F061F06660668066A0637
:104DB0001F061F061F061F061F061F061F061F06CB
:104DC0001F061F061F061F061F061F061F061F06BB
:104DD0001F061F061F066C066E0670067206D106B9
:104DE000D30692067406860679067E068306A90611
:104DF0007706AE06B006B506C106A306C306810651
:104E0000C5069206920692069206920692069206AF
:104E10009206920692069206920692069206D5068F
:104E2000D70692069206920688068A068C069F0688
:104E3000A106A306A506A706B706B906BB06BD06CA
:104E40009206BF06C706C906CB06CD06CF062307C6
:104E5000250792069206EB06ED06EF06F106FB0625
:104E6000FD06FF060107030792061307150717073C
:104E700019079206920692069206920692069206EA
:104E800092069206920692069206920692062707CC
:104E900029079206920692060C07F306F506F70616
:104EA000F906A306A506A7060507AC060707090726
:104EB0000E07BF061B07B3061D071F072107690C56
:104EC000690C9A0C9A0CC90CC90CC90CC90C2D0D93
:104ED000B90DC80DC80D940E940E9D0E9D0E9F0E1B
:104EE0009D0E9D0E9D0E940E940EA40E9D0E9D0E75
:104EF000A40E9723BF23A824BF23A824F22313249E
:064F0000A8246A247624B7
:104F0600C800B3015F1E641EA41E621EA51E631E9A
:104F160001679495969734929335366600FF0100A3
:0C4F2600010000FFFF0000010001FF007F
:00000001FF
