:100000000C94F0010C9437020C9437020C943702D4
:100010000C9437020C9437020C9437020C9437027C
:100020000C9437020C9437020C9431220C94052363
:100030000C949B1D0C9437020C9437020C943702DD
:100040000C9437020C9432080C9437020C9437024B
:100050000C9437020C94F21D0C9437020C94370266
:100060000C9437020C9437020C9437020C9437022C
:100070000C9437020C9437020C9437020C9437021C
:100080000C9437020C9437020C9437020C9437020C
:100090000C9437020C9437020C9437020C943702FC
:1000A0000C9437020C9437020C943702A65DA85DBD
:1000B000AB5DC75DC95DCC5DE000AD5DB05DCF5DA2
:1000C000D15D2800E100AE5DB45DD45D000052005A
:1000D0000251B25DB55DCE5DD65DE500E300EB5D3E
:1000E0000000E60065425100A75DA95DC55DC85DE1
:1000F000CA5D2900AC5DAA5DC65DD05DCB5D0251D5
:10010000B15DAF5DCD5DD55DD25D00000000B35D3A
:10011000D35D0000D75D0000E2000000EC5DE70069
:1001200050004F000100B75DBA5DDA5DDC5DDF5D58
:100130000100BC5DBF5DE25DE45D01000100BD5DED
:10014000C35DE75D000001000100C15DC45DE15DCC
:10015000E95DE5000100EB5D000001000100010028
:10016000B65DB85DD85DDB5DDD5D0100BB5DB95D91
:10017000D95DE35DDE5D0100C05DBE5DE05DE85D13
:10018000E55D00000000C25DE65D0000EA5D000084
:1001900001000000EC5D01000100010029000100E8
:1001A00001004B0046004C0001000100010052001C
:1001B00049000100010001000100010000000100F0
:1001C0000100010001005100010001000100ED5D8E
:1001D0000000010001000100010001004A004D0083
:1001E00001000100010001004E004F004800010025
:1001F00001000100500001004C000000000001005F
:10020000010000000100000001000000EE5D01009F
:100210000100010000000000000000002A2B28005F
:1002200000000000000000000000000000000029A5
:10023000000000002C1E3420212224342627252EE5
:10024000362D3738271E1F2021222324252633331D
:10025000362E37381F0405060708090A0B0C0D0E49
:100260000F101112131415161718191A1B1C1D2F15
:100270003130232D350405060708090A0B0C0D0E35
:100280000F101112131415161718191A1B1C1D2FF5
:100290003130354C0000000000000000000000007C
:1002A000000000000000000000000000000000004E
:1002B00000000000000000007E0F00D4FFFFFFC719
:1002C00000000078360354005300350032004B0024
:1002D00020004E00490043004F004C004100200028
:1002E0004F0079006100790075006200690020000C
:1002F000530068006900660074000000160349009E
:100300006B006500620065005300610064006100DD
:100310006F0000000403090409023B00020100A071
:10032000FA09040000010301010009211101000183
:100330002240000705810308000A090401000103A7
:10034000000000092111010001223B000705820382
:1003500020000A1201000200000008EDFE691901E8
:10036000000102000105010906A101850605071922
:10037000E029E71500250195087501810205071997
:100380000029EF1500250195F07501810205081976
:10039000012905950575019102950175039101C02B
:1003A00005010906A101050719E029E71500250146
:1003B00095087501810295017508810105071900ED
:1003C00029FF150026FF009506750881000508190C
:1003D000012905950575019102950175039101C0EB
:1003E00011241FBECFEFDAE0DEBFCDBF04B603FE9F
:1003F00027C08091750290917602A0917702B0910A
:1004000078028730904BA740B04BD1F41092750220
:1004100010927602109277021092780214BE84B77E
:10042000877F84BF0FB6F894A8958091600088619B
:1004300080936000109260000FBEE0E0F8E3099541
:1004400011E0A0E0B1E0E4E3FEE402C005900D920B
:10045000AC33B107D9F722E0ACE3B1E001C01D92A3
:10046000A537B207E1F70E94AC190C9434250C941F
:100470000000CF93C0E080914001C81720F0109297
:100480004001CF9108958C2F90E0FC01EE0FFF1FEB
:10049000E80FF91FEA5CFD4F8081918122812223C0
:1004A00021F00E94E108CF5FE6CF0E94F808FBCF61
:1004B00080934E018EE695E00E940C0810924B014D
:1004C00010924A011092490110924801089520911A
:1004D0004F012223F9F0805E91090897D8F48091AA
:1004E0004D01FB019281992361F0811104C080913B
:1004F0004E010E943C0F80914D018F5F80934D0112
:100500000895815080934D01811104C080914E0166
:100510000C941B0F08959C01265A3D452F3131053F
:1005200030F481E06C3E7D4551F080E008C0855C90
:100530009D458697D0F781E06B3E7D45B1F7817090
:1005400008959C01265A3D4581E02031310538F05F
:100550002F51310981E02331310508F080E08170AD
:10056000089580914101811113C080914A019091B9
:100570004B01865A9D458534910550F48091480180
:10058000909149018B5E9D45029710F40E9477057A
:10059000E0914A01F0914B01E65AFD45E233F10545
:1005A00038F4EA5CFA4D0C94CB2485E30E946A0B84
:1005B00080914801909149018B3E2DE5920709F009
:1005C000A0C0E0914A01F0914B01E65BFD45E533A7
:1005D000F10508F058C0E859FA4D0C94CB248AE391
:1005E000E5CF8BE3E3CF8CE3E1CF8DE3DFCF8EE389
:1005F000DDCF8FE3DBCF80E4D9CF81E4D7CF82E4B6
:10060000D5CF83E4D3CF84E4D1CF85E4CFCF8CE4BE
:10061000CDCF8EE1CBCF8FE1C9CF80E2C7CF81E2D2
:10062000C5CF82E2C3CF83E2C1CF84E2BFCF85E2F0
:10063000BDCF86E2BBCF87E2B9CF8AE2B7CF8FE2E8
:10064000B5CF80E3B3CF81E3B1CF8BE10E946A0BDA
:1006500084E017C085E10E946A0B8CE012C08BE138
:100660000E946A0B8CE1F2CF85E10E946A0B88E060
:1006700008C083E1EBCF87E0EECF8AE00E946A0BEF
:1006800088E10E946A0B1092410110924B01109276
:100690004A0110924901109248010C94390287E0F6
:1006A000EDCF83E1D8CF8DE2ECCF8EE2EACF8CE4C0
:1006B000E8CF8AE10E946A0B82E1E3CF81E1C6CFF5
:1006C0008BE10E946A0B8CE1D9CF80E1F3CF85E00A
:1006D000BDCF87E0EFCF8AE0BECF83E1EBCF8AE2E8
:1006E000D0CF8BE1CBCF85E1E5CF8BE1B4CF83E1F8
:1006F000C5CF8DE1DFCF83E1B8CF85E0DBCF88E3E5
:10070000C0CF8C3E9D4509F0BECFE0914A01F091EB
:100710004B01E75BFD45E433F10508F0B4CFE35648
:10072000FA4D0C94CB248AE091CF87E08FCF8AE0FA
:10073000C1CF8DE18BCF81E18ECF85E19FCF80E16D
:1007400085CF8BE192CF89E199CF8DE184CF87E08E
:100750008CCF8AE08ACF8DE188CF80E17CCF81E1A8
:10076000A9CF8BE10E946A0B8CE1A4CF8BE10E94A0
:100770006A0B87E183CF85E06ECF8DE17FCF85E087
:100780007DCF85E072CF81E179CF80E177CF8AE1BB
:100790005DCF8BE18FCF8091430181110E94A7042F
:1007A0008091420181110E94EA03809141018111EF
:1007B0000E94B10280914801909149018B5E9D4554
:1007C000029718F48CE20E94FA0A81E080934201B9
:1007D0000C9439028091420181110AC08091480134
:1007E000909149018B5E9D45029710F40E94CB03C6
:1007F0008091480190914901892B19F08CE20E9467
:100800006A0B1092420110924901109248010C9417
:1008100039028091430181110E94A7048091420115
:1008200081110E94EA038091410181110E94B1026D
:10083000E0914A01F0914B01E65AFD45E534F1059E
:1008400038F4EF52FA4D0C94CB2487E30E94FA0A55
:1008500081E0809343010C9439028EE00E94FA0AF1
:1008600084E0F4CF87E1FACF8EE00E94FA0A82E1B9
:10087000EDCF86E1F3CF85E1F1CF87E10E94FA0A5F
:100880008CE0E4CF8EE00E94FA0A88E1DFCF87E1B6
:10089000FACF86E3DBCF83E3D9CF8AE2D7CF86E1F5
:1008A000EDCF87E10E94FA0A88E0D0CF8EE0FACF40
:1008B00086E1F8CF8BE0D2CF87E1D7CF8EE0DECFD5
:1008C00081E10E94FA0A81E1C1CF8BE0D7CF86E1B6
:1008D000DACF8BE0D8CF8BE0E5CF80E1E3CF86E1C4
:1008E000C4CF81E1DFCF8BE0C0CF88E3AFCF8BE215
:1008F000ADCF84E1ABCF8AE1A9CF85E1A7CF87E176
:10090000A5CF8CE1A3CF83E1A1CF8DE29FCF8EE273
:100910009DCF86E19BCF87E099CF89E097CF8AE092
:1009200095CF8BE093CF8DE091CF8EE08FCF8FE08E
:100930008DCF84E38BCF8DE189CF8BE187CF86E0AC
:1009400085CF89E183CF85E081CF80E17FCF809122
:10095000430181110BC080914A0190914B01865A4D
:100960009D458534910510F40E940904E0914A01E7
:10097000F0914B01E65AFD45E534F10538F4EA5EA5
:10098000F94D0C94CB2487E30E946A0B109243012B
:1009900010924B0110924A010C9439028EE00E9491
:1009A0006A0B84E0F1CF87E1FACF8EE00E946A0BF8
:1009B00082E1EACF86E1F3CF85E1F1CF87E10E94C2
:1009C0006A0B8CE0E1CF8EE00E946A0B88E1DCCFFD
:1009D00087E1FACF86E3D8CF83E3D6CF8AE2D4CFBC
:1009E00086E1EDCF87E10E946A0B88E0CDCF8EE0F3
:1009F000FACF86E1F8CF8BE0D2CF87E1D7CF8EE078
:100A0000DECF81E10E946A0B81E1BECF8BE0D7CFC0
:100A100086E1DACF8BE0D8CF8BE0E5CF80E1E3CF82
:100A200086E1C4CF81E1DFCF8BE0C0CF88E3ACCFDC
:100A30008BE2AACF84E1A8CF8AE1A6CF85E1A4CF3B
:100A400087E1A2CF8CE1A0CF83E19ECF8DE29CCF46
:100A50008EE29ACF86E198CF87E096CF89E094CF57
:100A60008AE092CF8BE090CF8DE08ECF8EE08CCF5E
:100A70008FE08ACF84E388CF8DE186CF8BE184CF6E
:100A800086E082CF89E180CF85E07ECF80E17CCF98
:100A900080914C01823071F028F4813041F0109245
:100AA0004C0108958530D8F70E94B102F8CF0E941A
:100AB000A704F5CF0E94EA03F2CF81E080934F01B3
:100AC0000E94480580914E010C941B0F10924F011B
:100AD0000E94480580914E010C943C0F80913E018C
:100AE00090913F01892B11F40C94480508950F93C0
:100AF0001F93CF93DF938091430181110E94A7043C
:100B00008091420181110E94EA038091410181118B
:100B10000E94B10200914A0110914B01C8010E944C
:100B2000A102D82F6091480170914901882359F0A2
:100B3000C8010E948B0290914F01D92FD82798139A
:100B400011C0C0E018C06B3E7D45D9F70D3D8DE565
:100B50001807BCF30F3D2DE512071CF00A3E1D459A
:100B600081F7D1E00E947113C82F827289F08C2F17
:100B70008D7D0E948113E0914A01F0914B01E65A6C
:100B8000FD45E233F10550F4E55AF94D0C94CB24C0
:100B90008C2F8260EECF85E30E94FA0A8091480193
:100BA000909149018B3E2DE5920709F0A2C0E0919A
:100BB0004A01F0914B01E65BFD45E533F10508F094
:100BC00058C0E357F94D0C94CB248AE3E5CF8BE36F
:100BD000E3CF8CE3E1CF8DE3DFCF8EE3DDCF8FE397
:100BE000DBCF80E4D9CF81E4D7CF82E4D5CF83E4D3
:100BF000D3CF84E4D1CF85E4CFCF8CE4CDCF8EE1C9
:100C0000CBCF8FE1C9CF80E2C7CF81E2C5CF82E2EF
:100C1000C3CF83E2C1CF84E2BFCF85E2BDCF86E2FE
:100C2000BBCF87E2B9CF8AE2B7CF8FE2B5CF80E3FF
:100C3000B3CF81E3B1CF8BE10E94FA0A84E017C001
:100C400085E10E94FA0A8CE012C08BE10E94FA0A48
:100C50008CE1F2CF85E10E94FA0A88E008C083E1C6
:100C6000EBCF87E0EECF8AE00E94FA0A88E10E948B
:100C7000FA0ADD2319F08C2F0E94811381E0809302
:100C80004101DF91CF911F910F910C94390287E0C0
:100C9000EBCF83E1D6CF8DE2EACF8EE2E8CF8CE4D2
:100CA000E6CF8AE10E94FA0A82E1E1CF81E1C4CF76
:100CB0008BE10E94FA0A8CE1D7CF80E1F3CF85E087
:100CC000BBCF87E0EFCF8AE0BCCF83E1EBCF8AE2F6
:100CD000CECF8BE1C9CF85E1E5CF8BE1B2CF83E108
:100CE000C3CF8DE1DFCF83E1B6CF85E0DBCF88E3F3
:100CF000BECF8C3E9D4509F0BCCFE0914A01F091FA
:100D00004B01E75BFD45E433F10508F0B2CFEE534C
:100D1000F94D0C94CB248AE08FCF87E08DCF8AE009
:100D2000C1CF8DE189CF81E18CCF85E19DCF80E17D
:100D300083CF8BE190CF89E197CF8DE182CF87E0A0
:100D40008ACF8AE088CF8DE186CF80E17ACF81E1BA
:100D5000A9CF8BE10E94FA0A8CE1A4CF8BE10E941B
:100D6000FA0A87E181CF85E06CCF8DE17DCF85E008
:100D70007BCF85E070CF81E177CF80E175CF8AE1CD
:100D80005BCF8BE18FCFCF92DF92FF920F931F93B8
:100D9000CF93DF93EC016B0181E090E090933F01F2
:100DA00080933E010E94CB1D8C01D6011296FC90CF
:100DB00012979E01265A3D4580914C01FF2009F46F
:100DC0009DC02534310508F043C08230E9F1F0F4CC
:100DD000882311F1813011F1D0934B01C0934A0166
:100DE000109347010093460180E095E00E9424089B
:100DF000F12C10923F0110923E018F2DDF91CF9187
:100E00001F910F91FF90DF90CF900895833049F0AC
:100E1000843011F70E94B10281E017C00E94A7043C
:100E2000DBCF8091440190914501209146013091A2
:100E30004701FC01E21BF30BA801481B590BE41707
:100E4000F50740F30E94A70484E080934C01C4CFCF
:100E50009E012B5E3D452230310590F5823049F1EF
:100E600068F4882311F1813049F1D0934901C0938E
:100E700048011093450100934401B6CF833099F0A7
:100E8000843099F780914601909147012091440167
:100E900030914501DC01A21BB30BF801E81BF90BF3
:100EA000AE17BF0748F40E94B10282E080934C0164
:100EB000DCCF0E94EA03D9CF0E94EA0383E0F6CF99
:100EC000882309F496CF80914001883090F4282F30
:100ED00030E0F901EE0FFF1FE20FF31FEA5CFD4F58
:100EE000D183C08312969C9192838F5F809340013F
:100EF0007FCF0E944805FF24F3947BCF2734310530
:100F000008F070C08230A1F180F4813009F071CF17
:100F100080914A0190914B018C179D0709F069CF90
:100F20000E94A70410924C0164CF833061F1843099
:100F300009F05FCF80914801909149018C179D077E
:100F400009F04BC08091460190914701081B190B95
:100F50002091440130914501821B930B801791072A
:100F6000C8F104311105B0F50E94EA0381E027C001
:100F700080914801909149018C179D0709F039CF64
:100F80000E94EA03CFCF80914A0190914B018C17C8
:100F90009D07C1F48091440190914501081B190BF4
:100FA0002091460130914701821B930B80179107D6
:100FB00088F00431110570F40E94A70482E0809348
:100FC0004C0117CF80914801909149018C179D07E2
:100FD00009F00FCF0E94B102A5CF80914A019091F4
:100FE0004B01F4CF882309F486CF809140018830EB
:100FF00008F07FCF282F30E0F901EE0FFF1FE20F3E
:10100000F31FEA5CFD4FD183C08312969C919283BB
:101010008F5F80934001EDCEF894909351018093BF
:1010200050011092800085E0809381001092820030
:1010300010928500109284008FEF9FEF90938900AB
:101040008093880078940895F89410928500109207
:101050008400909389008093880082E080936F00E1
:10106000789408951F920F920FB60F9211242F9328
:101070003F934F935F936F937F938F939F93AF9320
:10108000BF93EF93FF93E0915001F09151010995C7
:10109000FF91EF91BF91AF919F918F917F916F9150
:1010A0005F914F913F912F910F900FBE0F901F9026
:1010B000189581E00C9458020F931F93CF93DF9300
:1010C000EC018B01CD3E8DE5D80779F0CE3EEDE504
:1010D000DE07F9F0CE010E946702B801CE01DF9170
:1010E000CF911F910F910C94C306FB01828188233D
:1010F00051F081E191E00E94A40A85E191E00E9413
:10110000A40A0E94660580E0DF91CF911F910F91A4
:101110000895FB0182818823B1F389E191E00E9467
:10112000A40A8DE191E00E94A40A0E945D05EBCF24
:1011300081110AC082E0662359F00E94FB0E8823C9
:1011400029F08EE40E94D00B81E0089581E5FACF6A
:101150000E94FB0E882311F08BE4F4CF82E5F2CFDE
:101160009C013A9521153F4150F5FC01EE27F170A5
:10117000BC0166277270AC01442754709C01222781
:10118000387094FF0EC080E1EF2B09F480E0672BEC
:1011900009F08062452B09F08064232B89F0806878
:1011A000089581E0EF2B09F480E0672B09F082605D
:1011B000452B09F08460232B19F08860089580E0A6
:1011C0000895CF93DF93EC010E94B0089E01205E4A
:1011D00031092830310510F0209739F40E94D80BDE
:1011E0008C2FDF91CF910C94FA0A0E94280EF8CF31
:1011F000CF93DF93EC010E946A0BCE010E94B008EE
:101200009E01205E31092830310510F0CD2B21F4EC
:10121000DF91CF910C94DF0BDF91CF910C942F0EC7
:1012200081E008950C945C0808950C9414091F93B0
:10123000CF93DF9300D000D00F92CDB7DEB74983B4
:101240005A836B833091520189819A8131111DC07B
:101250006623B9F02223A9F00E940E10182F682FE0
:1012600089819A810E94B70F69817A81812F0F90BD
:101270000F900F900F900F90DF91CF911F910C94D2
:10128000BC160E94E50F182FEFCF0E940E10698147
:101290007A81EDCFFC01262F4081518162817381DB
:1012A00084810C94170981E00895CF93DF93EC01BA
:1012B00060E00E944A09BE01DF91CF910C941509AC
:1012C0000E94C8170E94AE0A0C94EC170C94EF17FA
:1012D00080E00C94AF0A089508950E94400E0E9489
:1012E0006C092FEF84E39CE0215080409040E1F7AF
:1012F00000C000000C94161E0F931F93CF93DF9332
:101300008C0161E00E944A09EC01B8010E941209B7
:101310008823A9F1B801CE010E94D11B882379F15D
:10132000B801CE010E94B919882349F1B801CE0154
:101330000E943B1B882319F1F8018281882361F008
:10134000CB35FDE5DF0721F170F4C115ECE5DE07D3
:10135000A1F0CF3DDC45C9F0C801DF91CF911F91CD
:101360000F910C941009CC358DE5D807A1F0CD353F
:10137000DD4591F70E943914EFCF0E946D0980E09E
:10138000DF91CF911F910F9108950E94F314F7CF31
:101390000E944214E1CF0E944514DECF0C946B09E9
:1013A0000E942D1C0E94AF0A0C94CE09DF92EF928E
:1013B000FF920F931F93CF93DF93E82FF0E0EC5E43
:1013C000FD4FD490282F26952695269530E0F901DB
:1013D000EC54FD4F0491877010E0082E02C0159563
:1013E00007950A94E2F701701127F901EC55FD4FBA
:1013F000E490F12C082E02C0F594E7940A94E2F7E9
:1014000091E0E922FF24F901EC56FD4FC491D0E0B0
:1014100002C0D595C7958A95E2F7C170DD27011501
:10142000110519F081EE0E94FA0AE114F10419F095
:1014300086EE0E94FA0A8D2D0E94D00BEF2819F03B
:1014400086EE0E946A0B012B19F081EE0E946A0B56
:10145000CD2B51F08CE2DF91CF911F910F91FF9036
:10146000EF90DF900C94D00BDF91CF911F910F91F3
:10147000FF90EF90DF900895EF92FF920F931F93EC
:10148000CF93DF93EC01162F0AE08881882309F4BB
:1014900054C0813009F04EC08981813099F47E01B9
:1014A00022E0E20EF11C8A810E94D00BE701219616
:1014B000812F815050F3EFE9FFE03197F1F700C041
:1014C0000000F7CF823041F47E0182E0E80EF11C8B
:1014D0008A810E94FA0AEACF833041F47E01E2E079
:1014E000EE0EF11C8A810E946A0BE0CF843011F06D
:1014F0002196DDCF2A81229690E080E0AE014F5FF9
:101500005F4F2053330B2A30310548F0019778F2B2
:10151000EFE9FFE03197F1F700C00000F7CF089F37
:10152000B001099F700D1124C901860F971F2981F1
:10153000EA01E4CF0E94D609BACFDF91CF911F9183
:101540000F91FF90EF90089560E00C943C0A08958D
:101550000C94A70A81E008950C94AA0A0895CF93E9
:10156000C82F0E94A80A8C2FCF910C94AC0ACF935D
:10157000DF93CDB7DEB72B970FB6F894DEBF0FBE63
:10158000CDBF4F83588769877A878B8761110E9407
:1015900094131E821D8285E0FE013796DE011196AE
:1015A00001900D928A95E1F78C819D81892B89F4B8
:1015B00049815A816B817C818D819E810E94B2120A
:1015C0002B960FB6F894DEBF0FBECDBFDF91CF9143
:1015D000089589819A8189238F3F51F3CE01019625
:1015E0000E9453098111E4CFEBCFFC0180819181EE
:1015F0000C945010CF93C82F882309F469C0823807
:10160000C1F40E942D1C81FD63C089E30E944C132C
:101610000E94B7132FEF81EE94E02150804090405C
:10162000E1F700C0000089E30E945313CF910C94AE
:10163000B7138338A1F40E942D1C80FD49C083E5B7
:101640000E944C130E94B7132FEF81EE94E02150BB
:1016500080409040E1F700C0000083E5E5CF84388A
:10166000A1F40E942D1C82FD33C087E40E944C131C
:101670000E94B7132FEF81EE94E0215080409040FC
:10168000E1F700C0000087E4CFCF8CEF8C0F813AE8
:1016900090F46C2F80910201909103010E94931CA1
:1016A000882329F08C2F0E9453130E94B7138C2F8C
:1016B0000E944C13BBCF80E28C0F883048F4C77077
:1016C00081E001C0880FCA95EAF70E947413AECF7B
:1016D000CF910895882309F44BC0823871F40E9499
:1016E0002D1C81FF45C089E30E944C130E94B71353
:1016F00089E30E9453130C94B713833859F40E9462
:101700002D1C80FF35C083E50E944C130E94B71347
:1017100083E5EFCF843859F40E942D1C82FF28C046
:1017200087E40E944C130E94B71387E4E2CF9CEF3A
:10173000980F913AF0F290E2980F983050F4877039
:1017400091E001C0990F8A95EAF7892F0E947A13D8
:10175000D2CF9BE5980F933020F490E080E00C947A
:10176000531C885A873120F490E080E00C94691C67
:1017700008951F93CF93DF93182FEB010E94FA0A6D
:10178000209731F4812FDF91CF911F910C946A0B38
:101790008FE99FE00197F1F700C000002197F0CF9B
:1017A00070E060E0893311F460E570E00C94B90BEF
:1017B000882321F00E9474130C94B7130895882392
:1017C00021F00E947A130C94B7130895BF92CF9220
:1017D000DF92EF92FF920F931F93CF93DF936C01F1
:1017E000D62FC72FFC011281F580F2949FE0F922D9
:1017F0000E946A13E82E8823B9F0E12E1123A1F08C
:101800008C2F807F803421F080E28D0F8830D0F0E3
:1018100080914F0282FD16C082E00E9408140E944F
:101820006A1391E0E82EE926BC2EB2948FE0B8222C
:10183000FBE0FB1508F468C0EB2DF0E0EA50F94D31
:101840000C94CB24E12CF0CF0C2F0F70C07F11F043
:101850000295007F112399F0002359F080E28D0F4B
:10186000883010F0D11107C0802F0E9474130E949D
:10187000B7138D2F41C0802F0E948713F8CF8D2F73
:101880000E946A0B002309F43FC080E28D0F88306C
:1018900010F0D11104C0802F0E947A1303C0802F52
:1018A0000E948D130E94B7132FC00C2F0F70C07FA2
:1018B000C03211F00295007FDD2381F0D13009F4B0
:1018C00069C0112309F473C0FF2009F469C0F6014F
:1018D000858180FFCECF8F70858362C080914F025B
:1018E00082FF38C0112359F0002329F0802F0E9475
:1018F00074130E94B71380E00E94FA0A05C080E0CA
:101900000E946A0B0111C7CFEB2DE850FF0B3497F3
:1019100020F40E942D1C0E94AF0AEE2009F44BC156
:101920000E94661380FD47C1F60112820E94601377
:101930000E941B0FC6010E94FC0D0E946013DF91E4
:10194000CF911F910F91FF90EF90DF90CF90BF90BC
:101950000C943C0F112389F0F11006C00E949A13D9
:10196000802B0E94D80BD0CF21E0F212F7CF0E943B
:101970009A13802B0E94A013C7CFF11006C00E94BB
:10198000AD13802F0E94DF0BBFCF31E0F31609F4B7
:10199000BBCFF5CF112331F085E08F1508F4B4CF1C
:1019A000802FDFCF94E09F1508F4AECFEACFFF2061
:1019B00041F3D93349F4FFEF27EE33E0F1502040F3
:1019C0003040E1F700C000008D2F0E946A0B9CCFD1
:1019D0008C2F837009F041C0111196CF4D2F429585
:1019E00046954770440F440F0D2F0F7010E030E004
:1019F00020E0042E04C0000F111F221F331F0A9481
:101A0000D2F760E070E0CB01D4FF0FC06FE070E070
:101A100080E090E004C0660F771F881F991F4A95E9
:101A2000D2F76095709580959095C695C695C370D0
:101A3000602B712B822B932BC23049F058F4C130AC
:101A400019F00E94AD0E60CF0E949B0E5DCF0E94E8
:101A5000BF0E5ACF0E94990E57CF8695112311F0D1
:101A60008C2F8170882309F44FCF4D2F42954695D6
:101A70004770440F440F0D2F0F7010E030E020E04E
:101A8000042E04C0000F111F221F331F0A94D2F727
:101A900060E070E0CB01D4FF0FC06FE070E080E049
:101AA00090E004C0660F771F881F991F4A95D2F7F0
:101AB0006095709580959095C695C695C370602B7E
:101AC000712B822B932BC23049F058F4C13019F09E
:101AD0000E94920F19CF0E94800F16CF0E94A40F70
:101AE00013CF0E94D50E10CFCF70112329F08C2F69
:101AF0000E941B0F8D2F35CF8D2F0E94DF0B8C2F57
:101B00000E943C0F01CFD23F51F160F4D03FB9F0B9
:101B1000D13F81F0112309F449C0F110AACE8C2FD6
:101B20008F7121C0D33F11F1D43FA1F780914F02B3
:101B300082FF26C08C2F8F71112311F314C0112343
:101B400049F084E08F1508F4DFCE8C2F8F710E944E
:101B50005F0FDACE95E09F1508F4D6CEF6CF8C2F26
:101B60008F711111CDCF0E941B0FCECE112329F002
:101B70008C2F8F710E94060FC7CE0E94E10EC4CE3B
:101B8000112349F0CF718C2F0E941B0F63E08C2F23
:101B90000E94ED13B9CE81E00E940814E1E0EF1538
:101BA00008F0B2CE82E00E940814AECEF11001CF50
:101BB0008C2F8F71A5CFDF91CF911F910F91FF9047
:101BC000EF90DF90CF90BF9008950F931F93CF9326
:101BD000DF93EC01688179818A810E945A108C011F
:101BE0000E94B60F0E94980EB801CE01DF91CF91EE
:101BF0001F910F910C94E60BCF93DF93EC018B8137
:101C00009C81892B29F08881998189238F3F59F400
:101C1000DF91CF910895CE010E94E50DCE01DF91B5
:101C2000CF910C945509CE010E947C098111F3CF0C
:101C30000E946A13882361F38A81882349F3809183
:101C40004F0282FDE5CF82E0DF91CF910C94081422
:101C5000882321F00E9487130C94B71308958823DA
:101C600021F00E948D130C94B71308950E949413D1
:101C70000E9497130C94B7130E945A130C94360EBB
:101C80000E9484130C943C0EE92FE295EF70E25011
:101C9000EE3070F4F0E0EE5FF84D0C94CB24803F12
:101CA00019F020F4883E20F481E00895843FE1F3A8
:101CB00080E00895883EC0F3813FD1F7F5CF93FBD4
:101CC000882780F90895FC01808191810E9450103D
:101CD0000C94440ECF93DF9300D000D00F92CDB779
:101CE000DEB70F900F900F900F900F90DF91CF9174
:101CF0000895CF93DF9300D000D000D0CDB7DEB7EA
:101D000026960FB6F894DEBF0FBECDBFDF91CF9100
:101D1000089508950C94890E0E948A0E60937F01A5
:101D20007093800180938101909382010C94360E10
:101D300008950C948C0E0F931F9300917F011091C6
:101D400080012091810130918201602B712B822BC7
:101D5000932B1F910F910C948C0E0F931F93009156
:101D60007F011091800120918101309182016023D7
:101D70007123822393231F910F910C948C0E0F9348
:101D80001F9300917F01109180012091810130917A
:101D9000820160277127822793271F910F910C944E
:101DA0008C0E0C94890E0C94D10E0E94D30E60936D
:101DB0007B0170937C0180937D0190937E010C9454
:101DC000360E60E070E0CB010C94D50E6115710504
:101DD0008105910529F481E0442361F080E00895B4
:101DE000DC01CB0104C0B695A795979587954A95D8
:101DF000D2F781700895482F60917B0170917C012A
:101E000080917D0190917E010C94E60E0F931F93BB
:101E100041E050E060E070E08A019B0104C0000FE7
:101E2000111F221F331F8A95D2F7C901B8011F91D4
:101E30000F910C94D50E0F931F9341E050E060E09A
:101E400070E004C0440F551F661F771F8A95D2F7B4
:101E500080917B0190917C01A0917D01B0917E01E8
:101E60008A019B01082B192B2A2B3B2BC901B80196
:101E70001F910F910C94D50E0F931F9341E050E0EA
:101E800060E070E004C0440F551F661F771F8A95FD
:101E9000D2F7CB01BA01609570958095909500912D
:101EA0007B0110917C0120917D0130917E016023A6
:101EB0007123822393231F910F910C94D50E0F93BE
:101EC0001F9341E050E060E070E004C0440F551FF4
:101ED000661F771F8A95D2F780917B0190917C01D4
:101EE000A0917D01B0917E018A019B0108271927ED
:101EF0002A273B27C901B8011F910F910C94D50ED9
:101F00000F931F9300917B0110917C0120917D0123
:101F100030917E01602B712B822B932B1F910F919F
:101F20000C94D50E0F931F9300917B0110917C01AF
:101F300020917D0130917E016023712382239323C0
:101F40001F910F910C94D50E0F931F9300917B015D
:101F500010917C0120917D0130917E0160277127D5
:101F6000822793271F910F910C94D50E0895E92F86
:101F7000EE0FE90FEE0F8E0F982F977041E001C022
:101F8000440F9A95EAF786958695869595E0899F00
:101F9000F0011124ED5AFE4F30E020E070E0519145
:101FA000DF011197CB01022E02C0969587950A9406
:101FB000E2F7817081958527842385278C932F5F95
:101FC0003F4F2530310559F70895E92FEE0FE90FFE
:101FD000EE0F8E0F982F977086958695869525E043
:101FE000829FF0011124ED5AFE4F50E040E080E066
:101FF000219130E0092E02C0369527950A94E2F728
:1020000021703327042E01C0220F0A94EAF7822B95
:102010004F5F5F4F4530510559F70895BF92CF92FA
:10202000DF92EF92FF920F931F93CF93DF938C0178
:10203000C0907B01D0907C01E0907D01F0907E010A
:1020400080917F0190918001A0918101B0918201E6
:10205000C82AD92AEA2AFB2ACFE1D0E0BC2ED70130
:10206000C6010C2E04C0B695A795979587950A943E
:10207000D2F780FD0EC0219788F7B12C8B2DDF9110
:10208000CF911F910F91FF90EF90DF90CF90BF9075
:102090000895B8018C2F0E94D016019761F3EECFFE
:1020A000CF93DF93EC010E940E10BE01DF91CF9120
:1020B0000C94D0161F93CF93DF93EB0190915201B4
:1020C000992331F0CB01DF91CF911F910C945010E7
:1020D000882379F0CB010E940E10182F682FCE01B3
:1020E0000E94B70FBE01812FDF91CF911F910C94F9
:1020F000D016CB010E94E50F182FF4CF1F93CF937A
:10210000DF93C091830116E0809184018C1304C099
:10211000DF91CF911F910895D0E01C9FF0011D9F8A
:10212000F00D1124EB57FE4F408151816281738184
:10213000848195810E94790E2196C770E5CF4091E8
:10214000B5015091B6016091B7017091B8018091CD
:10215000B9019091BA010C94790EFF920F931F93DD
:10216000CF93DF938091BA01807FD1F48091B70142
:102170008823B1F080918301109184016091B501B1
:102180007091B601A091B801B091B901062F072353
:10219000C0910001D091010196E0F92E181306C0FC
:1021A000DF91CF911F910F91FF90089590E01097CC
:1021B00011F00F3F19F401968770F0CFF89E90014F
:1021C000F99E300D1124F901EB57FE4F4181471361
:1021D000F2CF40814613EFCF42814111ECCF4381D2
:1021E00054814A1B5B0B4C175D0728F78091BA019D
:1021F0008F7080618093BA01F901E657FE4F8081AC
:102200008F708061808385EB91E00E94FC0DDF91EF
:10221000CF911F910F91FF900C947E10AF92BF92BF
:10222000CF92DF92EF92FF920F931F93CF93DF93A2
:10223000CDB7DEB761970FB6F894DEBF0FBECDBF46
:102240008C0185E0F801DE011D9601900D928A95C2
:10225000E1F7F801E28085EBC82E81E0D82E60918D
:10226000B8017091B9016115710509F45FC19091D0
:10227000B5012091B601892F82238F3F09F456C101
:1022800040815181A380B480F090B701F501E61B35
:10229000F70BBF01E0910001F0910101FF2009F46B
:1022A000F6C08091BA01382F307F6E177F0708F093
:1022B000AFC0311179C0FE2C251323C0941321C067
:1022C000E1101FC08F7080618093BA010E949F103F
:1022D000C6010E94FC0D8091BA01F80185838F2D03
:1022E00061960FB6F894DEBF0FBECDBFDF91CF91E0
:1022F0001F910F91FF90EF90DF90CF90BF90AF9024
:102300000895AB2829F0842F85238F3F09F027C13A
:1023100080E0F82FF170DF2E80FF3CC080918301B8
:102320002091840136E0821315C04D875E878D852C
:102330009E850E945010292F22952F702230F0F098
:10234000243018F59F70F1F0F8019581907FD1F459
:10235000D12C1EC090E0389FF001399FF00D112460
:10236000EB57FE4F6181651306C06081641303C0A3
:1023700062816E110FC001968770D5CF9F7011F0EA
:10238000882331F3805E883018F3C8010E94FC0D69
:10239000FD2CA5CFEE2009F4A2CF8091BA01816077
:1023A0008093BA01F12C9BCF251306C0941304C06F
:1023B000F801EE2009F487C0C8010E94630E88234B
:1023C00019F1EE2009F18091BA01803270F020916C
:1023D000B5013091B60138872F831986BB86AA864E
:1023E0008C87CE0107960E94FC0D86E0F801A5EBD4
:1023F000B1E001900D928A95E1F70E94AD100E9424
:102400009F10FF24F3946BCFC8010E94FC0DF9CFFD
:10241000311113C07A2DB98AA88A6E2D89890E943C
:102420006A0E85EB91E00E94FC0D86E0F6011192A8
:102430008A95E9F70E949F10B5CF25130FC094131A
:102440000DC0E1100BC0F8018583C8010E94FC0D8E
:1024500086E0F60111928A95E9F741CFC8010E9402
:10246000630E882389F2EE2079F28091BA018032DE
:1024700008F4BBCF2091B5013091B6013A8329838E
:102480001B82BD82AC828E83CE010196ACCF6E17CB
:102490007F0708F03EC0FE2CEE2009F4B5CF2513CF
:1024A0002AC0941328C08091BA0180FD1BC0982FC8
:1024B000907FC1F0F8018583903F31F0982F907F95
:1024C000905F8F70892B8583C8010E94FC0D86E088
:1024D000F801A5EBB1E001900D928A95E1F70E9419
:1024E0009F10FDCE86E0F801A5EBB1E001900D92C2
:1024F0008A95E1F7F4CEC8010E94630E811175CF71
:102500008091BA0181608093BA01C8010E94FC0DDC
:10251000E6CE7A2DB98AA88A6E2D89890E946A0E24
:1025200086E0F60111928A95E9F7D9CFEE2009F4F9
:102530006BCFC8010E94630EF82E882309F464CF84
:1025400086E0F801A5EBB1E001900D928A95E1F7E4
:1025500085EB91E00E94F50A0E94AD10C0CF81E0AA
:102560008E25D7CE1F93CF93DF93CDB7DEB72C97B1
:102570000FB6F894DEBF0FBECDBF4F835887698773
:102580007A878B879C87CE0107960E940E1188233D
:1025900069F08A859B85892B39F04F815885842F76
:1025A00085238F3F09F071C016E05FC086E0FE0111
:1025B0003796DE01119601900D928A95E1F78A8592
:1025C0009B85892B89F38F81988589238F3F61F3C0
:1025D0002091840130E0C9010196877099274091CC
:1025E00083014817190671F40E94400E109284016D
:1025F0001092830186E0E5EBF1E0DF011D928A9500
:10260000E9F7D2CF96E0929FD001939FB00D1124AD
:10261000AB57BE4FFE01319601900D929A95E1F7AE
:10262000809384010E947E10BFCF819FC00111243E
:102630008B579E4F0E940E118823E9F0E091830191
:102640001E9FF0011124EB57FE4F408151816281A2
:102650007381848195810E94790E8091830190E03D
:1026600001968770992780938301809183019091CF
:1026700084018913DACF2C960FB6F894DEBF0FBE13
:10268000CDBFDF91CF911F91089569857A858B85A4
:102690009C850E94790E88CF682F809102019091CD
:1026A00003010C94131D682F809102019091030186
:1026B0000C941E1D80910201909103010C94291D20
:1026C0008091BB0185958595859508958091BB0185
:1026D000877008959091BB01977081E009F480E0C4
:1026E00008958091DF0108959091DF01892B8093F7
:1026F000DF01089580959091DF0198239093DF0189
:1027000008958093DF0108951092DF01089590915C
:10271000DE01892B8093DE01089580959091DE0182
:1027200098239093DE0108951092DE01089510928F
:10273000DD0108958091BC01089508950C949D13C6
:1027400090914F0292FD08C09091BC01981721F022
:102750008093BC010C949E1308958091BC01882342
:1027600029F01092BC0180E00C949E130895E09132
:102770000201F09103018091DF018083E091020169
:10278000F091030180819091DE01892B8083E0919B
:102790000201F091030180819091DD01892B8083FA
:1027A0009091BC01992381F0E0910201F091030125
:1027B0008081892B808380910201909103010E9486
:1027C0007F1C81110E94AD13809102019091030141
:1027D0000C94391C08950C94EA1390914F0292FDC9
:1027E00010C098E0899F90011124622B6093BB0177
:1027F0000E941B0F8091BB018595859585950C9452
:10280000EB130C941B0F1092BB0180E00C94EB13A4
:102810009091BB01809589238093BB01282F27705D
:1028200091F4282F082E000C330B9217130659F041
:1028300090914F0292FD07C08595859585950E94E0
:102840003C0F0C940314089590914F0292FB2227A1
:1028500020F9281769F080FB92F990934F0280913C
:102860004E0290914F020E946F1482E00C94081463
:10287000089580914F0282FB882780F991E0892793
:102880000C94241481E00C94241480E00C942414FF
:102890006FEF7FEF90E080E00C941E2590E080E0E9
:1028A0000E94FA2421E0893E9E4F09F020E0822F09
:1028B000089582E090E00C94F22483E090E00C9480
:1028C000F224CF9384E090E00E94F224C82F82E2A9
:1028D00090E00E94F224982F8C2FCF910895CF93EF
:1028E000C92F682F84E090E00E9400256C2F82E2BF
:1028F00090E0CF910C940025AB01BC018FE090E0FB
:102900000C941225AB01BC0183E190E00C941225DC
:1029100060E070E0CB010C94821460E070E0CB01C9
:102920000E947C140C94881469EE7EEF90E080E0A5
:102930000E941E2560E082E090E00E94002560E099
:1029400083E090E00E94002510927F0110928001A8
:10295000109281011092820160E084E090E00E9478
:10296000002560E082E290E00E94002560E085E0C2
:1029700090E00E94002560E086E090E00E94002543
:102980006FEF87E090E00E94002540E050E0BA0140
:1029900088E090E00E94122560E08DE090E00E94C7
:1029A000002540E050E0BA0188E190E00E94122545
:1029B00060E087E190E00E94002540E050E0BA012D
:1029C0008CE190E00E94122570E060E080E290E0EF
:1029D0000E941E2540E050E0BA0188E190E00E948C
:1029E00012250C948D140C949414682F8EE090E0B2
:1029F0000C9400250E94D71D6093F3017093F4019D
:102A00008093F5019093F6016093EF017093F001CC
:102A10008093F1019093F20108950E94D71D609375
:102A2000F3017093F4018093F5019093F6016093A4
:102A3000EB017093EC018093ED019093EE0108950A
:102A400085B7806885BF85B7806885BF089508957C
:102A500008950C94271508950C942B150E942015A9
:102A60008EEA97E10E94231C0E9428150C942915D8
:102A700081E008950C943815089508950E943C153E
:102A80000C943D150E94C21D0E94F9180E94E51A7F
:102A90000C942C15AF92BF92CF92DF92EF92FF92DF
:102AA0000F931F93CF93DF93CDB7DEB72A970FB65F
:102AB000F894DEBF0FBECDBF0E940E1981110E9497
:102AC000FA1481EEA82E81E0B82E10E000E0C02EAE
:102AD000802F0E94F117E82EF501F1905F01F816A2
:102AE00009F451C08091F70181FD0E94F7178F2DE5
:102AF0008E25D12CFF24F394982F9F2109F43EC0FA
:102B00000E943A15882399F0DE82CF82EF2081E07F
:102B100009F480E088870E94CB1D8160782F9A8716
:102B200089874E815F8168858A850E94B70AF8018E
:102B3000EF51FE4F8081F826F0820E94F41A811135
:102B40000E940D150E942D1C9091E001891791F1B2
:102B50000E942D1C8093E0012A960FB6F894DEBFE8
:102B60000FBECDBFDF91CF911F910F91FF90EF90DE
:102B7000DF90CF90BF90AF900C94AF0AD394FF0C2E
:102B8000F6E0DF12B9CF0F5F1F4F0A30110509F0D1
:102B90009ECF8FEF89838A831B820E94CB1D816029
:102BA000782F9D838C8349815A816B818D810E940E
:102BB000B70AC3CF2A960FB6F894DEBF0FBECDBFBB
:102BC000DF91CF911F910F91FF90EF90DF90CF9009
:102BD000BF90AF900895CF93DF930E94D416EC017D
:102BE000811523E5920790F5811532E5930708F0EA
:102BF00096C081159042C8F4C11581E0D80788F4C9
:102C0000C53AD10548F4C430D10558F4C130D105D6
:102C100041F0D0E0C0E005C0CE01805E9109089788
:102C2000C0F7CE01DF91CF910895C11591E5D90785
:102C300008F070C0C11520E5D20708F04EC0C115DC
:102C400030E4D30730F3DF70D06AEBCF811546E56F
:102C50009407F0F4C11585E5D80708F075C0C115D3
:102C600094E5D90708F06BC0CE018370992721E065
:102C700030E002C0220F331F8A95E2F7C695C69551
:102C800090E2C99FE0011124C22BD32BDA68C9CF8F
:102C900081152AE5920778F4811539E5930708F044
:102CA0005EC0811548E5940708F4B3CFD82FCC2730
:102CB000C06FD06AB6CF90568115904208F0A9CF68
:102CC0008D2F8F710E946B1790E0982F882788278F
:102CD0009F719C012C2BE90140C0CE01E4E0969548
:102CE0008795EA95E1F783702C2F2695269523701A
:102CF00040E2249F90011124382B8C2F8370C1E077
:102D0000D0E002C0CC0FDD1F8A95E2F7C22BD32B97
:102D1000DC6887CFDC2FCC27C16FD06A82CF83706D
:102D2000992721E030E002C0220F331F8A95E2F795
:102D3000C695C69580E2C89FE0011124E7CFDC2F3D
:102D4000CC27C46FD06A6DCF8C2F0E946B17C82F11
:102D5000D0E0DC2FCC27CC27DF71D06262CF8F7020
:102D60000E946B1734E0D695C7953A95E1F7CF707E
:102D70009C2FEC01D06955CF972F70E026E0929FF1
:102D8000600D711D1124FB019CE3899FE00DF11D75
:102D90001124EE0FFF1FE455FF4F85919491089584
:102DA0000E94BC160C94EB1582389105B1F1B0F479
:102DB0008133910509F475C048F48932910509F40D
:102DC00069C08A32910509F473C00895853391056D
:102DD00009F459C08933910501F10895833E9105A5
:102DE000A9F138F4803E9105F9F0823E910549F150
:102DF0000895863E9105A9F1873E9105C9F1843E6B
:102E0000910519F520914F0221FF1FC080914E02BC
:102E100084FD14C087EE90E0089520914E02237047
:102E2000A1F080EE90E0089520914E0220FD47C071
:102E300030914F0230FF09C024FF44C090E080E091
:102E400004C020914E0222FDF7CF089520914E023A
:102E500022FD3BC030914F0230FDE3CF24FFF5CF80
:102E6000EDCF20914E0223FFF0CF24FDE7CFD2CF4C
:102E700020914E0223FD2CC030914F0231FFEECF46
:102E800084EE90E0089520914E0225FFDECF89E286
:102E900090E0089520914E0225FFD7CF85E390E082
:102EA000089520914E0226FFD0CF8AE290E0089547
:102EB00020914E0226FFC9CF81E390E0089589E377
:102EC00090E0089583EE90E0089582EE90E00895FA
:102ED00086EE90E0089590914E0292FF06C0282F52
:102EE00028712830F9F4877F846093FF06C0282F6B
:102EF00028712831F1F4877E846120914F0220FFF0
:102F000006C0382F38713830D9F4877F816021FFAF
:102F100006C0282F28712831D1F4877E816194FD65
:102F2000877E0895282F24712430F9F68B7F8860DE
:102F3000DCCF282F2471243101F78B7E8861DDCF0F
:102F4000382F3171313019F78E7F8860E0CF282F0C
:102F50002171213121F78E7E8861E1CF80E00895D3
:102F60000C9448140E940E198FE39CE90197F1F725
:102F700000C000000E940E1980E00E94F11780FF3F
:102F800004C00E94B0170C94161E08950C94B2173A
:102F90000E944E14811102C00E94F3140E94591421
:102FA0008093F7010E94611490934F0280934E0228
:102FB0000E94C6170E945D14682F70E090E080E0C8
:102FC0000E94990E60917B0170917C0180917D013E
:102FD00090917E010C94D30E0C94590808950C9492
:102FE000EE17E82FF0E0E65AFD4F8081089508952E
:102FF00080EA8A95F1F7089500C008950C94F817B7
:10300000F894E82FE295EF70F0E031A1282F2F70AF
:1030100081E090E001C0880F2A95EAF7982F9095FB
:10302000932391A392A1892B82A378940895F89475
:10303000E82FE295EF70F0E031A1282F2F7081E0AA
:1030400090E001C0880F2A95EAF7382B31A392A1AE
:103050008095892382A378940895DF92EF92FF925E
:103060000F931F93CF93DF93EC01D62E062F10E022
:10307000F801E95DFE4FE0808FEFE81681F18E2DBB
:103080000E9417180E94FC17E1E2F1E047E251E0CC
:1030900081E0F12C91919F3F79F0A92FA295AF701B
:1030A000B0E090962C9130E09F7002C03595279546
:1030B0009A95E2F7982F20FD90E0F92A880F4E1795
:1030C0005F0741F78E2D0E94001861E0F11001C0EA
:1030D00060E08D2D0E94FE17C00FD11FF882DF9196
:1030E000CF911F910F91FF90EF90DF900895CF92B5
:1030F000DF92EF92FF920F931F93CF93DF93E82E0F
:10310000092F162FF42EC62FD0E0CF5DDE4F888119
:103110008F3F09F445C00E9417180E94FC1787E2F0
:10312000C82E81E0D82EEE2DF02FAF014B5F5F4F00
:1031300000E0EF2CE094D6019D916D0181919F01FB
:10314000215031099F3F41F1692F62956F7070E006
:10315000DB0190966C9170E09F7002C07595679549
:103160009A95E2F760FD18C08F29D9018C9301E090
:10317000E417F50701F788818F3F11F00E940018CE
:10318000602F812FDF91CF911F910F91FF90EF90D2
:10319000DF90CF900C94FE178E21D9018C93E8CF4D
:1031A000DF91CF911F910F91FF90EF90DF90CF9023
:1031B00008950F931F93CF93DF93C7E2D1E08991D6
:1031C0008F3F11F00E94001881E0CC32D807B9F788
:1031D000C1E2D1E007E211E089918F3F11F00E9436
:1031E00000180C171D07C1F7DF91CF911F910F91A8
:1031F00008950E94D9188AE0EAE5F2E0DF01982FED
:103200001D929A95E9F7E8EFF1E0DF011D928A95AA
:10321000E9F785E00E9469190C946009EF92FF922A
:103220000F931F93CF93DF93CDB7DEB72A970FB6D7
:10323000F894DEBF0FBECDBF8E010F5F1F4F8AE037
:10324000F80111928A95E9F7F12C6F2DC8010E94BF
:103250002D18F394F5E0FF12F8CFF12CEE24E3944F
:103260004E2D6F2DCE0106960E947718F394EE0C2A
:1032700086E0F812F5CF4AE050E0B80188EF91E01F
:103280000E94E524FF24F394009709F4F12C892B84
:1032900041F08AE0F801A8EFB1E001900D928A9523
:1032A000E1F72F2D4AE06AE572E088EF91E00E9495
:1032B0006A190E9466098F2D2A960FB6F894DEBF10
:1032C0000FBECDBFDF91CF911F910F91FF90EF9077
:1032D00008950895FF920F931F93CF93DF93F82ED5
:1032E000092F162FD72FC42F222349F081E0809376
:1032F00004020E94CB1D90930302809302028091EE
:1033000004028823A1F080910202909103020E949E
:10331000E31D059760F0EF2DF02FA12FBD2FCE0FED
:10332000DF2FD11DEC17FD0741F410920402DF914D
:10333000CF911F910F91FF90089581918D93F2CFBE
:103340000E948B1F0E9442150C94971F0E949B1F86
:103350000E944A150C94B51F0E94551D0E94721FB1
:103360000E942E150E94A0190E94A6190E943E15C7
:10337000FBCFCF93DF93EC01FB018281882309F41B
:1033800020C1C430FDE5DF07C8F5CB3F9CE5D90778
:1033900030F49E0122503C452431310598F50E94BD
:1033A000611490934F0280934E02C031FCE5DF0719
:1033B00009F4E0C008F061C0C8309CE5D90709F401
:1033C000CBC088F5C430FCE5DF0709F4B3C0E8F4EE
:1033D000C2309CE5D90709F4A7C080914E028260F3
:1033E000C330DC4509F4A3C080914E0290914F0296
:1033F0000E946F140E94400E80E004C0C236EDE5CA
:10340000DE0769F2DF91CF91089580914E028061CD
:10341000C630FCE5DF0709F48AC008F48FC080914C
:103420004E02806284C080914E028D7FCC309CE53C
:10343000D90709F47CC070F480914E028C60CA30C8
:10344000FCE5DF0709F473C008F48AC080914E02DE
:103450008E7F6DC080914E02877FCE309CE5D9076C
:1034600009F465C080914E028B7FCF30DC4508F4B3
:103470005EC080914E028F7E5AC0CD3FFCE5DF07D3
:1034800009F474C040F5C4319CE5D90709F48AC039
:1034900058F4C231FCE5DF0709F474C008F46EC0CB
:1034A00080914E02837F43C0CB3F9CE5D90709F44E
:1034B00049C008F04DC0C531DC4509F095CF809179
:1034C0004E0282FB992790F921E0922790FB82F926
:1034D00090FB83F92CC0C1308DE5D80709F458C0A2
:1034E00088F480914F028360CF3FECE5DE0769F1FD
:1034F00080914F028D7FC115DD4538F180914F02DB
:103500008C7F23C0C3308DE5D80709F458C008F478
:1035100052C0C236DD4509F067CF90914E02892F27
:103520008F7E94FF806103C080914E028160809302
:103530004E025ACF80914E028460F9CF80914E02A4
:103540008860F5CF80914F02816080934F024CCF0D
:1035500080914F028260F9CF80914E028064E7CF64
:103560000E94400E80914E028068E1CF80914F0210
:103570008E7FEBCF80914E028F7DD9CF80914E020E
:103580008F7BD5CF0E94400E80914E028F77CFCF98
:1035900080914F02982F909591708E7F892B90FB90
:1035A00081F9D3CF0E94400E90914E02892F97FB54
:1035B00087F98058BCCF81E00E94F51415CF80E0D8
:1035C000FBCF81E01FCF0C9498085098589A5198DF
:1035D000599A89B18170499905C090E0892B8093EF
:1035E0000702089592E0FACFE0910702EE0FEE0F86
:1035F000E093070249B1842F817049B141FB222732
:1036000020F941FF02C022E030E0822BE82BE0935A
:103610000702EF70F0E0E45DFE4F808190910602BA
:10362000890F8093060220E0843054F080910502D7
:103630008F5F8093050260E080E00E94E31A21E042
:10364000809106028D3F54F4809105028150809351
:10365000050261E080E00E94E31A21E08091060209
:10366000082E000C990B64E070E00E94B724809350
:103670000602822F0895CF93DF93EB0186319C459C
:1036800011F50E9471139A81992399F08A7A91E039
:1036900009F490E090930802811109C089E20E9428
:1036A0004C130E94B71380E0DF91CF91089585E31A
:1036B000F6CF80910802811104C089E20E94531361
:1036C000F0CF85E3FBCF81E0EFCF0F931F93CF9334
:1036D000DF93C42FD22FFC0182818823C9F040934D
:1036E0000B020E94CB1D90930A028093090280E294
:1036F0008C0F883008F050C0C77081E001C0880F7F
:10370000CA95EAF7DF91CF911F910F910C94D80BD6
:1037100010910B02141335C08091090290910A0296
:103720000E94E31D883C910560F5C0E2CD0F1D1796
:10373000B9F080E2810F883040F4177081E001C059
:10374000880F1A95EAF70E94DF0BC83048F481E031
:103750009D2F977001C0880F9A95EAF70E94D80BA9
:10376000802F0E94D00BC830B8F4D77081E001C020
:10377000880FDA95EAF7DF91CF911F910F910C94A2
:10378000DF0B80E28C0F883038F4C77081E001C015
:10379000880FCA95EAF7EFCFDF91CF911F910F9174
:1037A00008950F939C01CB01243F4CE5340759F158
:1037B000A8F4293DFCE53F0701F12A3D4CE534071B
:1037C000D1F1283D3C4591F406E221EE41EE68ED51
:1037D0007CE50E94651B80E00F910895263FFCE583
:1037E0003F07E9F0B0F0273F3C45F9F0FC0182814A
:1037F000882339F110920B02EFCF07E225EE45EE58
:1038000069ED7CE5E6CF06E221EE40EE64EF7CE573
:10381000E0CF07E225EE44EE65EF7CE5DACF06E285
:1038200021EE42EE66EF7CE5D4CF07E225EE46EED0
:1038300067EF7CE5CECF08E221E045EE6AED7CE55E
:10384000C8CF81E0C9CF90933D0180933C0108959A
:1038500090931102809310020895E0911002F0916C
:103860001102309721F00190F081E02D099480E061
:103870000895E0911002F0911102309799F0209193
:103880001001222359F020914E0227FF07C0DC01CE
:103890002C9111962C93119726E02C930280F381A2
:1038A000E02D0994089520910E0230910F022817FF
:1038B000390771F090930F0280930E02E09110028D
:1038C000F0911102309721F00680F781E02D0994E4
:1038D000089520910C0230910D022817390771F0DC
:1038E00090930D0280930C02E0911002F09111026E
:1038F000309721F00084F185E02D09940895FC01B2
:10390000329680911001882321F080914E029EE131
:1039100087FF96E080E0915008F4089521912223DA
:10392000D1F38F5FF8CF662301F12091100122239C
:10393000F1F020914E0227FF1AC0462F469546957A
:1039400046954E3190F4677021E030E002C0220FBE
:10395000331F6A95E2F7840F911DFC01828190E08C
:103960002823392381E0232B69F480E00895FC01AA
:10397000329608962191261721F0E817F907D1F71A
:10398000F4CF81E008959C01FC0132969FEF80E026
:103990004191461751F09F3F19F4411101C0982FF2
:1039A0008F5F8630A9F79F3F09F40895290F311DD5
:1039B00097FD3A95F90162830895FC0132960896C5
:1039C0002191261303C0DF0111971C92E817F90714
:1039D000B9F70895E62FE695E695E695EE3168F499
:1039E000E80FF92FF11D677021E030E001C0220FD0
:1039F0006A95EAF78281822B82830895E62FE69505
:103A0000E695E695EE3170F4E80FF92FF11D677039
:103A100021E030E001C0220F6A95EAF7209582810B
:103A200028232283089520911001222329F0209138
:103A30004E0227FD0C94EA1C0C94C31C209110012B
:103A4000222329F020914E0227FD0C94FE1C0C9499
:103A5000DD1CFC01329680911001882351F0809189
:103A60004E0287FF06C08EE1DF011D928A95E9F7BD
:103A7000089586E0F9CF08950C943B1D811105C08F
:103A800081E0809312020C943C1D82E0FACF83E027
:103A9000809312020C943C1D0C943E1D81E0809397
:103AA00012020C943C1D0C944E1D089580916C02E2
:103AB000843031F10E9468091092130288E190E08D
:103AC00020E40FB6F894A895809360000FBE209371
:103AD000600083B7817F846083BF83B7816083BFC9
:103AE0007894889583B78E7F83BF0FB6F894A89596
:103AF00080916000886180936000109260000FBE2A
:103B0000089508950895CF930E94811D0E940E1973
:103B10000E94821DC0E08C2F0E94F117811105C008
:103B2000CF5FCA30C1F7CF91089581E0FCCF0E94EA
:103B3000400E0C94D0091F921FB61F9211248F9330
:103B40009F93AF93BF9380911302811113C0809113
:103B5000640290916502A0916602B091670241965D
:103B6000A11DB11D8093640290936502A09366022B
:103B7000B0936702BF91AF919F918F911F901FBE2D
:103B80001F90189582E084BD93E095BD9AEF97BD94
:103B900080936E0008952FB7F894809164029091FD
:103BA0006502A0916602B09167022FBF08952FB7FA
:103BB000F894609164027091650280916602909120
:103BC00067022FBF08959C014FB7F894809164025B
:103BD00090916502A0916602B09167024FBF821B6F
:103BE000930B089578941F921FB61F9211248F9300
:103BF0009F93AF93BF938091640290916502A091CF
:103C00006602B09167020196A11DB11D8093640206
:103C100090936502A0936602B0936702BF91AF9143
:103C20009F918F911F901FBE1F90189581E08093E8
:103C3000E00080E28093D8001092C9008FE19EE4FA
:103C40000197F1F700C0000087E090EBDC01809362
:103C5000750290937602A0937702B093780288E180
:103C60009CE00FB6F894A895809360000FBE9093E7
:103C70006000FFCF80913402089508950895CF9396
:103C8000DF93EC01809110018823B1F180914E0205
:103C900087FF32C060E282E08093E9008FEF90916D
:103CA000E800815095FD06C095ED9A95F1F700006A
:103CB0008111F5CF8091E80085FF1BC08091100134
:103CC00070E050E040E0811104C050E040E068E066
:103CD00070E0CE010E9426208091E8008E778093CC
:103CE000E80080E2FE01A4E1B2E001900D928A9525
:103CF000E1F7DF91CF91089568E081E0CDCF08959D
:103D0000089580916B02811109C00E94B6210E9422
:103D100013228091E20084608093E2000895109263
:103D20006B0208950C944E1D6091680281E0611150
:103D300001C080E00C94471D90916C0281E09430AA
:103D400009F080E0609168020C944C1D42E061EC47
:103D500081E00E94322142E261EC82E00E94322145
:103D600090916C0281E0943009F080E060916802EB
:103D70000C943E1D80916E02833009F460C030F4D3
:103D80008130C9F1823009F49CC008958A3009F469
:103D900088C08B3009F46EC0893009F04FC0809123
:103DA0006D02813209F04AC08091710290917202D5
:103DB000029708F043C08091E800877F8093E80075
:103DC0008091E80082FF36C09091F3008091F2006C
:103DD000029731F48091F100813011F0863021F4A6
:103DE0008091F100809334028091E8008B7780937A
:103DF000E8000C94662180916D02813AF9F480917B
:103E0000E800877F8093E8008091710290917202B0
:103E1000892B61F460E284E192E070E00E947520F9
:103E20008091E8008B778093E800089560E090E04F
:103E300080E0F3CF80916C028111C2CF0895809110
:103E40006D02813AD9F78091710290917202892BAB
:103E5000A9F78091E800877F8093E8008091E800CF
:103E600080FFFCCF809110018093F1008091E800E9
:103E70008E77BDCF80916D02813201F78091710202
:103E800090917202892BD1F68091E800877F809310
:103E9000E8000E94662180916F02809310010C94CB
:103EA000400E80916D02813249F68091E800877F53
:103EB0008093E8000E946621809170028093350211
:103EC000089580916D02813A09F0B8CF8091E800A1
:103ED000877F8093E8008091E80080FFFCCF80918D
:103EE0003502C2CF84B7877F84BF0FB6F894A895F8
:103EF00080916000886180936000109260000FBE26
:103F000080E890E00FB6F894809361009093610090
:103F10000FBE0C94531D0E94B6210E941322E2EEA4
:103F2000F0E080818460808378940C949C2484E009
:103F300091E00C94281C80916C028530A9F480914A
:103F40006C02853011F00C94971D0E94561D8091D3
:103F50006A028823A1F30E94831D882381F30E94B3
:103F600010200E94400EEBCF089508950C94B81FC6
:103F7000292F33272330310519F168F42130310519
:103F800009F444C02230310509F445C090E080E0D6
:103F900030E020E025C02132310549F122323105DF
:103FA000A9F780E490E020EA33E061157105C1F0E3
:103FB0008BE390E025E633E06130710589F0E6CFD0
:103FC00099278130910581F0009729F00297F1F649
:103FD000E4ECF2E002C0E4E1F3E0849190E09F01C0
:103FE000FA01318320830895ECEFF2E0F6CF89E007
:103FF00090E02AE233E06115710591F389E090E0E9
:1040000023E433E06130710559F3C0CF82E190E0E1
:1040100023E533E0E5CF8BE390E028E133E0E0CF28
:1040200080E189BD82E189BD09B400FEFDCF8091A8
:10403000D8008F7D8093D8008091E00082608093CB
:10404000E0008091E00081FDFCCF0895AF92BF9227
:10405000CF92DF92FF920F931F93CF93DF936C0168
:10406000EB018A010E948521F82E811123C00115E0
:10407000110539F0F80180819181C81BD90BC80E58
:10408000D91EB12CA12C2097A9F08091E80085FDC4
:1040900022C08091E8008E778093E8000115110519
:1040A000A1F0F80180819181A80EB91EB182A08291
:1040B00085E0F82E8F2DDF91CF911F910F91FF900A
:1040C000DF90CF90BF90AF9008950E948521882304
:1040D000D1F2F82EEFCFF60181916F018093F100BC
:1040E0002197FFEFAF1ABF0ACECFFC018091730278
:1040F0009091740286179707A0F06115710529F455
:104100009091E8009E779093E80090E0611571052A
:1041100051F4911108C08091E80082FF34C080E022
:104120000895BC01F2CF80916C028823C1F18530E3
:10413000C1F18091E80083FD30C08091E80082FDEC
:10414000EACF8091E80080FFE1CF8091F3002091D9
:10415000F200382F6115710519F02830310558F03B
:1041600091E02830310509F090E02091E8002E77A9
:104170002093E800CBCF81918093F10061507109C9
:104180002F5F3F4FE7CF80916C02882341F085304D
:1041900041F08091E80083FFBECF81E0089582E086
:1041A000089583E00895FC01809173029091740258
:1041B00086179707A0F06115710529F48091E80032
:1041C0008E778093E80090E06115710551F49111AC
:1041D00008C08091E80082FF35C080E00895BC01EE
:1041E000F2CF80916C028823C9F18530C9F18091AA
:1041F000E80083FD31C08091E80082FDEACF809124
:10420000E80080FFE1CF8091F3002091F200382F89
:104210006115710519F02830310558F091E028300A
:10422000310509F090E08091E8008E778093E800F6
:10423000CBCF84918093F1003196615071092F5F4B
:104240003F4FE6CF80916C02882341F0853041F0EA
:104250008091E80083FFBDCF81E0089582E008955A
:1042600083E00895982F973028F08F708093E900AD
:1042700081E008959093E900242F762F50E098175D
:1042800031F07091EC002091ED005091F00021FD93
:1042900002C09F5FE8CF3091EB003E7F3093EB0090
:1042A0003091ED003D7F3093ED003091EB003160B7
:1042B0003093EB007093EC002093ED005093F000EE
:1042C0002091EE0027FDE5CF80E0089580916D02FA
:1042D00087FF13C08091E80082FF06C08091E8004C
:1042E0008B778093E80004C080916C028111F2CF3B
:1042F000089580916C028823D9F38091E80080FFB3
:10430000F8CF8091E8008E77ECCF2091E4003091D7
:10431000E50095E6A9012091EC00822F817020FF35
:1043200006C08091E80080FF06C080E008952091DB
:10433000E80022FD1AC080916C02882389F0853044
:1043400089F08091EB0085FD0FC02091E400309151
:10435000E50042175307F9F29150E1F684E0089521
:1043600082E0089583E0089581E008950E94242268
:104370000E942C22E0EEF0E0808181608083E8EDF5
:10438000F0E080818F77808319BCA7EDB0E08C913D
:104390008E7F8C9380818F7E808310926B02089534
:1043A0000F931F93CF93DF930E9424220E942C220D
:1043B000C8EDD0E088818F77888388818068888382
:1043C00088818F7D888319BC10926C0210926802DC
:1043D00010926A021092690200EE10E0F8018081EA
:1043E0008B7F808388818160888342E060E080E009
:1043F0000E943221E1EEF0E080818E7F8083E2EE48
:10440000F0E0808181608083808188608083F80112
:1044100080818E7F8083888180618883DF91CF91C6
:104420001F910F910895E8EDF0E080818F7E8083E9
:10443000E7EDF0E080818160808384E082BF81E0ED
:1044400080936B020C94D021E8EDF0E080818E7FA8
:1044500080831092E20008951092DA001092E10039
:1044600008951F920F920FB60F9211242F933F932E
:104470004F935F936F937F938F939F93AF93BF936C
:10448000EF93FF938091E10082FF0BC08091E200E7
:1044900082FF07C08091E1008B7F8093E1000E9442
:1044A0009B248091DA0080FF19C08091D80080FFA2
:1044B00015C08091DA008E7F8093DA008091D90058
:1044C00080FF96C080E189BD82E189BD09B400FE0C
:1044D000FDCF81E080936C020E94811E8091E100FB
:1044E00080FF19C08091E20080FF15C08091E2003A
:1044F0008E7F8093E2008091E20080618093E200F1
:104500008091D80080628093D80019BC85E08093A8
:104510006C020E94941E8091E10084FF2BC0809168
:10452000E20084FF27C080E189BD82E189BD89B5B1
:10453000982F917080FFFBCF8091D8008F7D809362
:10454000D8008091E1008F7E8093E1008091E200AD
:104550008F7E8093E2008091E20081608093E20090
:1045600080916802882309F449C084E080936C023A
:104570000E949C1E8091E10083FF29C08091E2008F
:1045800083FF25C08091E100877F8093E10082E076
:1045900080936C02109268028091E1008E7F80937C
:1045A000E1008091E2008E7F8093E2008091E20042
:1045B00080618093E20042E060E080E00E9432216E
:1045C0008091F00088608093F0000E94921EFF911D
:1045D000EF91BF91AF919F918F917F916F915F917B
:1045E0004F913F912F910F900FBE0F901F901895F4
:1045F00019BC10926C020E948F1E70CF8091E30054
:1046000087FD93E090936C02B3CF1F920F920FB689
:104610000F9211242F933F934F935F936F937F9348
:104620008F939F93AF93BF93CF93DF93EF93FF93BA
:10463000D091E900DF708091EC00C82FC17080FD3F
:10464000C0E81092E9008091F000877F8093F0002D
:1046500078940E9449231092E9008091F0008860CC
:104660008093F000CD2BCF70C093E900FF91EF91C4
:10467000DF91CF91BF91AF919F918F917F916F917A
:104680005F914F913F912F910F900FBE0F901F9010
:1046900018951F93CF93DF93CDB7DEB7AA970FB6C8
:1046A000F894DEBF0FBECDBF8DE692E02091F10001
:1046B000FC012193CF01F2E085379F07B9F70E94F3
:1046C000BA1E8091E80083FF1EC180916D02909117
:1046D0006E029A3008F017C1E92FF0E0E05FF84D64
:1046E0000C94CB24803899F0823809F00CC1809169
:1046F00071028F70873008F006C18093E9008091C5
:10470000EB0085FB882780F91092E90006C08091B4
:10471000690290916A02911182609091E800977FFE
:104720009093E8008093F1001092F1008091E800EE
:104730008E77E5C0882309F4D3C0823009F0E3C046
:1047400080916F028111D6C0809171028F702FEF1E
:10475000280F263008F0D7C08093E9002091EB00A5
:1047600020FFC8C0933031F48091EB0080628093C9
:10477000EB00C0C09091EB0090619093EB0021E0C2
:1047800030E001C0220F8A95EAF72093EA001092E8
:10479000EA008091EB008860EACF8111B4C01091EB
:1047A0006F021F778091E3008078812B8093E30074
:1047B0008091E800877F8093E8000E9466218091C5
:1047C000E80080FFFCCF8091E30080688093E300E5
:1047D00082E0111183E080936C0295C08058823092
:1047E00008F091C080916F02909170028C3D23E09F
:1047F0009207A1F583E08A838AE289834FB7F89410
:10480000DE01139620E03EE051E2E32FF0E050930A
:104810005700E49120FF03C0E295EF703F5FEF7017
:104820008E2F90E0EA30C0F0C7968D939D932F5F56
:10483000243159F74FBF8091E800877F8093E800CB
:104840006AE270E0CE0101960E9475208091E80036
:104850008B778093E80057C0C096E7CF60917102D4
:1048600070917202AE014F5F5F4F0E94B61FBC0194
:10487000892B09F448C09091E800977F9093E80055
:1048800089819A810E94D320E1CF8038E1F580911F
:10489000E800877F8093E800809168028093F100B0
:1048A00045CF811130C090916F02923060F58091B8
:1048B000E800877F8093E800909368020E94662159
:1048C00080916802882311F084E005C08091E300A4
:1048D00087FDFACF81E080936C020E94A61E13C070
:1048E00080916F02813079F481E0933009F080E0AB
:1048F00080936A021092E9008091E800877F80939C
:10490000E8000E9466218091E80083FF0AC0809140
:10491000E800877F8093E8008091EB0080628093BD
:10492000EB00AA960FB6F894DEBF0FBECDBFDF91A5
:10493000CF911F9108950895CF9380916C028823A1
:10494000A1F0C091E900CF709091EC00892F8170A7
:1049500090FD80E8C82B1092E9008091E80083FD6B
:104960000E944923CF70C093E900CF91089597FB2F
:10497000072E16F4009407D077FD09D00E94D124A9
:1049800007FC05D03EF4909581959F4F0895709552
:1049900061957F4F0895EE0FFF1F0590F491E02D74
:1049A0000994AA1BBB1B51E107C0AA1FBB1FA61776
:1049B000B70710F0A61BB70B881F991F5A95A9F7C8
:1049C00080959095BC01CD010895FB01DC0104C0E8
:1049D0008D910190801921F441505040C8F7881BF7
:1049E000990B0895F999FECF92BD81BDF89A992748
:1049F00080B50895A8E1B0E042E050E00C9426258F
:104A0000262FF999FECF92BD81BDF89A019700B487
:104A1000021639F01FBA20BD0FB6F894FA9AF99A27
:104A20000FBE08950396272F0E9401250E9400259E
:104A3000252F0E940125242F0C9401250196272F54
:104A40000E9401250C940025DC01CB01FC01F999A1
:104A5000FECF06C0F2BDE1BDF89A319600B40D92CA
:104A600041505040B8F70895F894FFCFD502EF02B7
:104A7000F102F302F502F70209030B030D030F0322
:104A80001103D802D802D802D802D802D802D8021C
:104A9000D802D802D802D802D802D802D802D80246
:104AA000D802D802D802D802D802F902FB02FD02CD
:104AB000FF02010303030503070313031503170391
:104AC00019031B031D03D802D8021F03210323036C
:104AD000250337032A032F033403590328035E03F6
:104AE00060036503710353037303320375034303C8
:104AF0004303430343034303430343034303430386
:104B00004303430343034303430343034303430375
:104B10004303430339033B033D034F035103530353
:104B200055035703670369036B036D0343036F0367
:104B3000770379037B037D037F0393039503970337
:104B40009903A303A503A703A903AB034303BB0373
:104B5000BD03BF03C10343034303430343034303B1
:104B60004303430343034303430343034303430315
:104B7000430343034303430343034303B4039B033C
:104B80009D039F03A103530355035703AD035C0328
:104B9000AF03B103B6036F03C3036303C503C703C6
:104BA000C903770479047B0454047D047F04300432
:104BB00089048B048D048F049B049D049F04A1042D
:104BC000A30425042D0432043404390445044F049D
:104BD00051045604580425046504670469046B04F1
:104BE00081044504400437048304850487044D048C
:104BF00091049304950497044B0499046304A50459
:104C00004904250475043B043D0442044704490457
:104C100049044B044D045A045C045E0440046004DF
:104C20004D046D046F0471047304750418051A05AE
:104C30001C05F5041E052005D1042A052C052E05AA
:104C400030053C053E05400542054405C304CE043D
:104C5000D304D504DA04E604F004F204F704F904FA
:104C6000C304060508050A050C052205E604E1044F
:104C7000D804240526052805EE043205340536053A
:104C80003805EC043A0504054605EA04C304160594
:104C9000DC04DE04E304E804EA04EA04EC04EE04C1
:104CA000FB04FD04FF04E1040105EE040E051005FC
:104CB000120514051605CB05E505E705E905EB0525
:104CC000ED05FF050106030605060706CE05CE0520
:104CD000CE05CE05CE05CE05CE05CE05CE05CE053C
:104CE000CE05CE05CE05CE05CE05CE05CE05CE052C
:104CF000CE05CE05EF05F105F305F505F705F90538
:104D0000FB05FD0509060B060D060F061106130629
:104D1000CE05CE051506170619061B062D0620061C
:104D200025062A0651061E06560658065D06690621
:104D30004B066B0628066D06390639063906390614
:104D4000390639063906390639063906390639066B
:104D500039063906390639063906390639062F0665
:104D600031063306470649064B064D064F065F06D9
:104D7000610663066506390667066F0671067306E7
:104D8000750677068B068D068F0691069B069D0697
:104D90009F06A106A3063906B306B506B706B906EF
:104DA000390639063906390639063906390639060B
:104DB00039063906390639063906390639063906FB
:104DC000390639063906AC06930695069706990604
:104DD0004B064D064F06A5065406A706A906AE06C5
:104DE0006706BB065B06BD06BF06C106240C240C85
:104DF000550C550C840C840C840C840CE80C740D3C
:104E0000830D830D4F0E4F0E580E580E5A0E580E2E
:104E1000580E580E4F0E4F0E5F0E580E580E5F0E66
:104E200072239A2383249A238324CD23EE2383247D
:044E300045245124A0
:104E3400C800BD013A1E3F1E7F1E3D1E801E3E1E41
:104E44000101018B000101910001018A000101901F
:104E540000679495969734929335366600FF010067
:0C4E6400010000FFFF0000010001FF0042
:00000001FF
