:100000000C9498010C94DF010C94DF010C94DF0137
:100010000C94DF010C94DF010C94DF010C94DF01E0
:100020000C94DF010C94DF010C9421210C94F52138
:100030000C948B1C0C94DF010C94DF010C94DF01F9
:100040000C94DF010C94EB070C94DF010C94DF019E
:100050000C94DF010C94E21C0C94DF010C94DF0182
:100060000C94DF010C94DF010C94DF010C94DF0190
:100070000C94DF010C94DF010C94DF010C94DF0180
:100080000C94DF010C94DF010C94DF010C94DF0170
:100090000C94DF010C94DF010C94DF010C94DF0160
:1000A0000C94DF010C94DF010C94DF01A65DA85DC8
:1000B000AB5DC75DC95DCC5DE000AD5DB05DCF5DA2
:1000C000D15D2800E100AE5DB45DD45D000052005A
:1000D0000251B25DB55DCE5DD65DE500E300EB5D3E
:1000E0000000E60065425100A75DA95DC55DC85DE1
:1000F000CA5D2900AC5DAA5DC65DD05DCB5D0251D5
:10010000B15DAF5DCD5DD55DD25D00000000B35D3A
:10011000D35D0000D75D0000E2000000EC5DE70069
:1001200050004F000100B75DBA5DDA5DDC5DDF5D58
:100130000100BC5DBF5DE25DE45D01000100BD5DED
:10014000C35DE75D000001000100C15DC45DE15DCC
:10015000E95DE5000100EB5D000001000100010028
:10016000B65DB85DD85DDB5DDD5D0100BB5DB95D91
:10017000D95DE35DDE5D0100C05DBE5DE05DE85D13
:10018000E55D00000000C25DE65D0000EA5D000084
:1001900001000000EC5D01000100010029000100E8
:1001A00001004B0046004C0001000100010052001C
:1001B00049000100010001000100010000000100F0
:1001C0000100010001005100010001000100ED5D8E
:1001D0000000010001000100010001004A004D0083
:1001E00001000100010001004E004F004800010025
:1001F00001000100500001004C000000000001005F
:10020000010000000100000001000000EE5D01009F
:1002100001000100360354005300350032004B004A
:1002200020004E00490043004F004C0041002000D8
:100230004F007900610079007500620069002000BC
:10024000530068006900660074000000160349004E
:100250006B0065006200650053006100640061008E
:100260006F0000000403090409023B00020100A022
:10027000FA09040000010301010009211101000134
:100280002240000705810308000A09040100010358
:10029000000000092111010001223B000705820333
:1002A00020000A1201000200000008EDFE69190199
:1002B000000102000105010906A1018506050719D3
:1002C000E029E71500250195087501810205071948
:1002D0000029EF1500250195F07501810205081927
:1002E000012905950575019102950175039101C0DC
:1002F00005010906A101050719E029E715002501F7
:10030000950875018102950175088101050719009D
:1003100029FF150026FF00950675088100050819BC
:10032000012905950575019102950175039101C09B
:1003300011241FBECFEFDAE0DEBFCDBF04B603FE4F
:1003400027C08091650290916602A0916702B091EA
:1003500068028730904BA740B04BD1F410926502F1
:1003600010926602109267021092680214BE84B75F
:10037000877F84BF0FB6F894A8958091600088614C
:1003800080936000109260000FBEE0E0F8E30995F2
:1003900011E0A0E0B1E0E4E1FCE402C005900D92C0
:1003A000AC32B107D9F722E0ACE2B1E001C01D9256
:1003B000A536B207E1F70E949C180C9424240C94F3
:1003C0000000CF93C0E080913001C81720F0109258
:1003D0003001CF9108958C2F90E0FC01EE0FFF1FAC
:1003E000E80FF91FEA5DFD4F808191812281222370
:1003F00021F00E94A208CF5FE6CF0E94B908FBCF90
:1004000080933E0183E796E00E94C50710923B016E
:1004100010923A01109239011092380108952091FA
:100420003F012223F9F0805E91090897D8F480916A
:100430003D01FB019281992361F0811104C08091FB
:100440003E010E942C0E80913D018F5F80933D0103
:100450000895815080933D01811104C080913E0137
:100460000C940B0E08959C01265A3D452F31310501
:1004700030F481E06C3E7D4551F080E008C0855C41
:100480009D458697D0F781E06B3E7D45B1F7817041
:1004900008959C01265A3D4581E02031310538F010
:1004A0002F51310981E02331310508F080E081705E
:1004B000089580913101811113C080913A0190918A
:1004C0003B01865A9D458534910550F48091380151
:1004D000909139018B5E9D45029710F40E9416059C
:1004E000E0913A01F0913B01E65AFD45E233F10516
:1004F00038F4EA5DFB4D0C94BB2385E30E945A0A55
:1005000080913801909139018B3E2DE5920709F0D9
:10051000A0C0E0913A01F0913B01E65BFD45E53377
:10052000F10508F058C0E85AFB4D0C94BB238AE350
:10053000E5CF8BE3E3CF8CE3E1CF8DE3DFCF8EE339
:10054000DDCF8FE3DBCF80E4D9CF81E4D7CF82E466
:10055000D5CF83E4D3CF84E4D1CF85E4CFCF8CE46F
:10056000CDCF8EE1CBCF8FE1C9CF80E2C7CF81E283
:10057000C5CF82E2C3CF83E2C1CF84E2BFCF85E2A1
:10058000BDCF86E2BBCF87E2B9CF8AE2B7CF8FE299
:10059000B5CF80E3B3CF81E3B1CF8BE10E945A0A9C
:1005A00084E017C085E10E945A0A8CE012C08BE1FA
:1005B0000E945A0A8CE1F2CF85E10E945A0A88E033
:1005C00008C083E1EBCF87E0EECF8AE00E945A0AB1
:1005D00088E10E945A0A1092310110923B01109258
:1005E0003A0110923901109238010C94E10187E030
:1005F000EDCF83E1D8CF8DE2ECCF8EE2EACF8CE471
:10060000E8CF8AE10E945A0A82E1E3CF81E1C6CFB6
:100610008BE10E945A0A8CE1D9CF80E1F3CF85E0CB
:10062000BDCF87E0EFCF8AE0BECF83E1EBCF8AE298
:10063000D0CF8BE1CBCF85E1E5CF8BE1B4CF83E1A8
:10064000C5CF8DE1DFCF83E1B8CF85E0DBCF88E395
:10065000C0CF8C3E9D4509F0BECFE0913A01F091AC
:100660003B01E75BFD45E433F10508F0B4CFE35708
:10067000FB4D0C94BB238AE091CF87E08FCF8AE0BB
:10068000C1CF8DE18BCF81E18ECF85E19FCF80E11E
:1006900085CF8BE192CF89E199CF8DE184CF87E03F
:1006A0008CCF8AE08ACF8DE188CF80E17CCF81E159
:1006B000A9CF8BE10E945A0A8CE1A4CF8BE10E9462
:1006C0005A0A87E183CF85E06ECF8DE17FCF85E049
:1006D0007DCF85E072CF81E179CF80E177CF8AE16C
:1006E0005DCF8BE18FCF8091330181110E944F0448
:1006F0008091320181110E94920380913101811118
:100700000E94590280913801909139018B5E9D457C
:10071000029718F48CE20E94EA0981E0809332018A
:100720000C94E1018091320181110AC0809138015D
:10073000909139018B5E9D45029710F40E947303DE
:100740008091380190913901892B19F08CE20E9437
:100750005A0A1092320110923901109238010C9409
:10076000E1018091330181110E944F048091320197
:1007700081110E9492038091310181110E945902DE
:10078000E0913A01F0913B01E65AFD45E534F1056F
:1007900038F4EF53FB4D0C94BB2387E30E94EA0926
:1007A00081E0809333010C94E1018EE00E94EA091C
:1007B00084E0F4CF87E1FACF8EE00E94EA0982E17B
:1007C000EDCF86E1F3CF85E1F1CF87E10E94EA0921
:1007D0008CE0E4CF8EE00E94EA0988E1DFCF87E178
:1007E000FACF86E3DBCF83E3D9CF8AE2D7CF86E1A6
:1007F000EDCF87E10E94EA0988E0D0CF8EE0FACF02
:1008000086E1F8CF8BE0D2CF87E1D7CF8EE0DECF85
:1008100081E10E94EA0981E1C1CF8BE0D7CF86E177
:10082000DACF8BE0D8CF8BE0E5CF80E1E3CF86E174
:10083000C4CF81E1DFCF8BE0C0CF88E3AFCF8BE2C5
:10084000ADCF84E1ABCF8AE1A9CF85E1A7CF87E126
:10085000A5CF8CE1A3CF83E1A1CF8DE29FCF8EE224
:100860009DCF86E19BCF87E099CF89E097CF8AE043
:1008700095CF8BE093CF8DE091CF8EE08FCF8FE03F
:100880008DCF84E38BCF8DE189CF8BE187CF86E05D
:1008900085CF89E183CF85E081CF80E17FCF8091D3
:1008A000330181110BC080913A0190913B01865A2E
:1008B0009D458534910510F40E94B103E0913A0101
:1008C000F0913B01E65AFD45E534F10538F4EA5F65
:1008D000FA4D0C94BB2387E30E945A0A109233010D
:1008E00010923B0110923A010C94E1018EE00E94BB
:1008F0005A0A84E0F1CF87E1FACF8EE00E945A0ACB
:1009000082E1EACF86E1F3CF85E1F1CF87E10E9472
:100910005A0A8CE0E1CF8EE00E945A0A88E1DCCFCF
:1009200087E1FACF86E3D8CF83E3D6CF8AE2D4CF6C
:1009300086E1EDCF87E10E945A0A88E0CDCF8EE0B4
:10094000FACF86E1F8CF8BE0D2CF87E1D7CF8EE028
:10095000DECF81E10E945A0A81E1BECF8BE0D7CF82
:1009600086E1DACF8BE0D8CF8BE0E5CF80E1E3CF33
:1009700086E1C4CF81E1DFCF8BE0C0CF88E3ACCF8D
:100980008BE2AACF84E1A8CF8AE1A6CF85E1A4CFEC
:1009900087E1A2CF8CE1A0CF83E19ECF8DE29CCFF7
:1009A0008EE29ACF86E198CF87E096CF89E094CF08
:1009B0008AE092CF8BE090CF8DE08ECF8EE08CCF0F
:1009C0008FE08ACF84E388CF8DE186CF8BE184CF1F
:1009D00086E082CF89E180CF85E07ECF80E17CCF49
:1009E00080913C01823071F028F4813041F0109206
:1009F0003C0108958530D8F70E945902F8CF0E9433
:100A00004F04F5CF0E949203F2CF81E080933F0123
:100A10000E94F00480913E010C940B0E10923F0155
:100A20000E94F00480913E010C942C0E0F931F93B2
:100A3000CF93DF938091330181110E944F04809105
:100A4000320181110E9492038091310181110E9433
:100A5000590200913A0110913B01C8010E944902DC
:100A6000D82F6091380170913901882359F0C8015D
:100A70000E94330290913F01D92FD827981311C0BB
:100A8000C0E018C06B3E7D45D9F70D3D8DE51807D8
:100A9000BCF30F3D2DE512071CF00A3E1D4581F702
:100AA000D1E00E946112C82F827289F08C2F8D7D57
:100AB0000E947112E0913A01F0913B01E65AFD4526
:100AC000E233F10550F4E55BFA4D0C94BB238C2F17
:100AD0008260EECF85E30E94EA098091380190910F
:100AE00039018B3E2DE5920709F0A2C0E0913A0151
:100AF000F0913B01E65BFD45E533F10508F058C098
:100B0000E358FA4D0C94BB238AE3E5CF8BE3E3CFA4
:100B10008CE3E1CF8DE3DFCF8EE3DDCF8FE3DBCF5F
:100B200080E4D9CF81E4D7CF82E4D5CF83E4D3CF9B
:100B300084E4D1CF85E4CFCF8CE4CDCF8EE1CBCF91
:100B40008FE1C9CF80E2C7CF81E2C5CF82E2C3CFB8
:100B500083E2C1CF84E2BFCF85E2BDCF86E2BBCFC7
:100B600087E2B9CF8AE2B7CF8FE2B5CF80E3B3CFC8
:100B700081E3B1CF8BE10E94EA0984E017C085E1EF
:100B80000E94EA098CE012C08BE10E94EA098CE124
:100B9000F2CF85E10E94EA0988E008C083E1EBCF4B
:100BA00087E0EECF8AE00E94EA0988E10E94EA0924
:100BB000DD2319F08C2F0E94711281E080933101A6
:100BC000DF91CF911F910F910C94E10187E0EBCF62
:100BD00083E1D6CF8DE2EACF8EE2E8CF8CE4E6CF98
:100BE0008AE10E94EA0982E1E1CF81E1C4CF8BE191
:100BF0000E94EA098CE1D7CF80E1F3CF85E0BBCF3B
:100C000087E0EFCF8AE0BCCF83E1EBCF8AE2CECFA3
:100C10008BE1C9CF85E1E5CF8BE1B2CF83E1C3CFD3
:100C20008DE1DFCF83E1B6CF85E0DBCF88E3BECFB8
:100C30008C3E9D4509F0BCCFE0913A01F0913B011B
:100C4000E75BFD45E433F10508F0B2CFEE54FA4D11
:100C50000C94BB238AE08FCF87E08DCF8AE0C1CF91
:100C60008DE189CF81E18CCF85E19DCF80E183CF7C
:100C70008BE190CF89E197CF8DE182CF87E08ACF5A
:100C80008AE088CF8DE186CF80E17ACF81E1A9CF5C
:100C90008BE10E94EA098CE1A4CF8BE10E94EA0972
:100CA00087E181CF85E06CCF8DE17DCF85E07BCF83
:100CB00085E070CF81E177CF80E175CF8AE15BCFAE
:100CC0008BE18FCF80913C01823049F018F4813064
:100CD00021F00895853028F008950C94B1030C9408
:100CE00073030C94160580912E0190912F01892B8E
:100CF00011F40C9462060895CF92DF92FF920F9345
:100D00001F93CF93DF93EC016B0181E090E0909310
:100D10002F0180932E010E94BB1C8C01D6011296DC
:100D2000FC9012979E01265A3D4580913C01FF2080
:100D300009F49DC02534310508F043C08230E9F143
:100D4000F0F4882311F1813011F1D0933B01C0936D
:100D50003A01109337010093360180E095E00E943C
:100D6000DD07F12C10922F0110922E018F2DDF91B3
:100D7000CF911F910F91FF90DF90CF900895833016
:100D800049F0843011F70E94590281E017C00E9497
:100D90004F04DBCF809134019091350120913601D1
:100DA00030913701FC01E21BF30BA801481B590BE2
:100DB000E417F50740F30E944F0484E080933C0160
:100DC000C4CF9E012B5E3D452230310590F5823027
:100DD00049F168F4882311F1813049F1D093390148
:100DE000C09338011093350100933401B6CF83309E
:100DF00099F0843099F780913601909137012091D4
:100E0000340130913501DC01A21BB30BF801E81B62
:100E1000F90BAE17BF0748F40E94590282E0809395
:100E20003C01DCCF0E949203D9CF0E94920383E061
:100E3000F6CF882309F496CF80913001883090F462
:100E4000282F30E0F901EE0FFF1FE20FF31FEA5DDC
:100E5000FD4FD183C08312969C9192838F5F8093C4
:100E600030017FCF0E946206FF24F3947BCF2734AA
:100E7000310508F070C08230A1F180F4813009F0B2
:100E800071CF80913A0190913B018C179D0709F039
:100E900069CF0E944F0410923C0164CF833061F10E
:100EA000843009F05FCF80913801909139018C171F
:100EB0009D0709F04BC08091360190913701081BC6
:100EC000190B2091340130913501821B930B80174F
:100ED0009107C8F104311105B0F50E94920381E039
:100EE00027C080913801909139018C179D0709F036
:100EF00039CF0E949203CFCF80913A0190913B016C
:100F00008C179D07C1F48091340190913501081B25
:100F1000190B2091360130913701821B930B8017FA
:100F2000910788F00431110570F40E944F0482E0AB
:100F300080933C0117CF80913801909139018C1733
:100F40009D0709F00FCF0E945902A5CF80913A0169
:100F500090913B01F4CF882309F486CF8091300132
:100F6000883008F07FCF282F30E0F901EE0FFF1F07
:100F7000E20FF31FEA5DFD4FD183C08312969C916F
:100F800092838F5F80933001EDCEF894909341016E
:100F9000809340011092800085E080938100109240
:100FA000820010928500109284008FEF9FEF909343
:100FB00089008093880078940895F89410928500B1
:100FC00010928400909389008093880082E080933F
:100FD0006F00789408951F920F920FB60F9211240C
:100FE0002F933F934F935F936F937F938F939F9331
:100FF000AF93BF93EF93FF93E0914001F0914101D4
:101000000995FF91EF91BF91AF919F918F917F9142
:101010006F915F914F913F912F910F900FBE0F9065
:101020001F90189581E00C9400020F931F93CF93AB
:10103000DF93EC018B01CD3E8DE5D80779F0CE3EF4
:10104000EDE5DE0721F1CE010E940F02B801CE01CD
:10105000DF91CF911F910F910C947C06FB0182814F
:10106000882371F08BE80E94EA0981E90E94EA096D
:101070000E940E0580E0DF91CF911F910F9108959E
:1010800081E90E945A0A8BE80E945A0AF3CFFB01B9
:101090008281882349F08AE80E94EA0980E90E9457
:1010A000EA090E940505E6CF80E90E945A0A8AE80B
:1010B000EBCF81110AC082E0662359F00E94EB0D4C
:1010C000882329F08EE40E94C00A81E0089581E51A
:1010D000FACF0E94EB0D882311F08BE4F4CF82E568
:1010E000F2CF9C013A9521153F4150F5FC01EE27C6
:1010F000F170BC0166277270AC01442754709C01EA
:101100002227387094FF0EC080E1EF2B09F480E0B5
:10111000672B09F08062452B09F08064232B89F04E
:101120008068089581E0EF2B09F480E0672B09F0D7
:101130008260452B09F08460232B19F088600895A4
:1011400080E00895CF93DF93EC010E9471089E0127
:10115000205E31092830310510F0209739F40E94C3
:10116000C80A8C2FDF91CF910C94EA090E94180DC8
:10117000F8CFCF93DF93EC010E945A0ACE010E9470
:1011800071089E01205E31092830310510F0CD2B09
:1011900021F4DF91CF910C94CF0ADF91CF910C9481
:1011A0001F0D81E008950C94150808950C94D5083E
:1011B0001F93CF93DF9300D000D00F92CDB7DEB74F
:1011C00049835A836B833091420189819A8131111D
:1011D0001DC06623B9F02223A9F00E94FE0E182F2D
:1011E000682F89819A810E94A70E69817A81812F57
:1011F0000F900F900F900F900F90DF91CF911F9154
:101200000C94AC150E94D50E182FEFCF0E94FE0E45
:1012100069817A81EDCFFC01262F40815181628165
:10122000738184810C94D80881E00895CF93DF9373
:10123000EC0160E00E940B09BE01DF91CF910C949C
:10124000D6080E94B8160E949E090C94DC160C94D5
:10125000DF1680E00C949F09089508950E94300DD8
:101260000E942D092FEF84E39CE0215080409040A4
:10127000E1F700C000000C94061D0F931F93CF935D
:10128000DF938C0161E00E940B09EC01B8010E9420
:10129000D3088823A9F1B801CE010E94C11A88237E
:1012A00079F1B801CE010E94A918882349F1B8014B
:1012B000CE010E942B1A882319F1F801828188231C
:1012C00061F0CB35FDE5DF0721F170F4C115ECE5E8
:1012D000DE07A1F0CF3DDC45C9F0C801DF91CF9119
:1012E0001F910F910C94D108CC358DE5D807A1F052
:1012F000CD35DD4591F70E942913EFCF0E942E09CD
:1013000080E0DF91CF911F910F9108950E94E31328
:10131000F7CF0E943213E1CF0E943513DECF0C9439
:101320002C090E941D1B0E949F090C948F0908958F
:101330000C94970981E008950C949A090895CF932D
:10134000C82F0E9498098C2FCF910C949C09CF93A1
:10135000DF93CDB7DEB72B970FB6F894DEBF0FBE85
:10136000CDBF4F83588769877A878B8761110E9429
:1013700084121E821D8285E0FE013796DE011196E1
:1013800001900D928A95E1F78C819D81892B89F4DA
:1013900049815A816B817C818D819E810E94A2113D
:1013A0002B960FB6F894DEBF0FBECDBFDF91CF9165
:1013B000089589819A8189238F3F51F3CE01019647
:1013C0000E9414098111E4CFEBCFFC01808191814F
:1013D0000C94400FCF93C82F882309F469C082383A
:1013E000C1F40E941D1B81FD63C089E30E943C1271
:1013F0000E94A7122FEF81EE94E021508040904090
:10140000E1F700C0000089E30E944312CF910C94E1
:10141000A7128338A1F40E941D1B80FD49C083E5FB
:101420000E943C120E94A7122FEF81EE94E02150FF
:1014300080409040E1F700C0000083E5E5CF8438AC
:10144000A1F40E941D1B82FD33C087E40E943C1260
:101450000E94A7122FEF81EE94E02150804090402F
:10146000E1F700C0000087E4CFCF8CEF8C0F813A0A
:1014700090F46C2F80910201909103010E94831BD4
:10148000882329F08C2F0E9443120E94A7128C2FD0
:101490000E943C12BBCF80E28C0F883048F4C770AA
:1014A00081E001C0880FCA95EAF70E946412AECFAE
:1014B000CF910895882309F44BC0823871F40E94BB
:1014C0001D1B81FF45C089E30E943C120E94A712A8
:1014D00089E30E9443120C94A712833859F40E94A6
:1014E0001D1B80FF35C083E50E943C120E94A7129D
:1014F00083E5EFCF843859F40E941D1B82FF28C07A
:1015000087E40E943C120E94A71287E4E2CF9CEF7E
:10151000980F913AF0F290E2980F983050F487705B
:1015200091E001C0990F8A95EAF7892F0E946A120B
:10153000D2CF9BE5980F933020F490E080E00C949C
:10154000431B885A873120F490E080E00C94591BAB
:1015500008951F93CF93DF93182FEB010E94EA09A0
:10156000209731F4812FDF91CF911F910C945A0A6B
:101570008FE99FE00197F1F700C000002197F0CFBD
:1015800070E060E0893311F460E570E00C94A90A22
:10159000882321F00E9464120C94A71208958823D6
:1015A00021F00E946A120C94A7120895BF92CF9264
:1015B000DF92EF92FF920F931F93CF93DF936C0113
:1015C000D62FC72FFC011281F580F2949FE0F922FB
:1015D0000E945A12E82E8823B9F0E12E1123A1F0BF
:1015E0008C2F807F803421F080E28D0F8830D0F006
:1015F00080913F0282FD16C082E00E94F8120E9494
:101600005A1291E0E82EE926BC2EB2948FE0B8225F
:10161000FBE0FB1508F468C0EB2DF0E0EA51FA4D51
:101620000C94BB23E12CF0CF0C2F0F70C07F11F076
:101630000295007F112399F0002359F080E28D0F6D
:10164000883010F0D11107C0802F0E9464120E94D0
:10165000A7128D2F41C0802F0E947712F8CF8D2FB7
:101660000E945A0A002309F43FC080E28D0F88309F
:1016700010F0D11104C0802F0E946A1203C0802F85
:101680000E947D120E94A7122FC00C2F0F70C07FE6
:10169000C03211F00295007FDD2381F0D13009F4D2
:1016A00069C0112309F473C0FF2009F469C0F60171
:1016B000858180FFCECF8F70858362C080913F028D
:1016C00082FF38C0112359F0002329F0802F0E9497
:1016D00064120E94A71280E00E94EA0905C080E01F
:1016E0000E945A0A0111C7CFEB2DE850FF0B349727
:1016F00020F40E941D1B0E949F09EE2009F44BC19B
:101700000E94561280FD47C1F60112820E945012BB
:101710000E940B0EC6010E94EC0C0E945012DF9139
:10172000CF911F910F91FF90EF90DF90CF90BF90DE
:101730000C942C0E112389F0F11006C00E948A121D
:10174000802B0E94C80AD0CF21E0F212F7CF0E946E
:101750008A12802B0E949012C7CFF11006C00E94FF
:101760009D12802F0E94CF0ABFCF31E0F31609F4FB
:10177000BBCFF5CF112331F085E08F1508F4B4CF3E
:10178000802FDFCF94E09F1508F4AECFEACFFF2083
:1017900041F3D93349F4FFEF27EE33E0F150204015
:1017A0003040E1F700C000008D2F0E945A0A9CCF04
:1017B0008C2F837009F041C0111196CF4D2F4295A7
:1017C00046954770440F440F0D2F0F7010E030E026
:1017D00020E0042E04C0000F111F221F331F0A94A3
:1017E000D2F760E070E0CB01D4FF0FC06FE070E093
:1017F00080E090E004C0660F771F881F991F4A950C
:10180000D2F76095709580959095C695C695C370F2
:10181000602B712B822B932BC23049F058F4C130CE
:1018200019F00E949D0D60CF0E948B0D5DCF0E942C
:10183000AF0D5ACF0E94890D57CF8695112311F015
:101840008C2F8170882309F44FCF4D2F42954695F8
:101850004770440F440F0D2F0F7010E030E020E070
:10186000042E04C0000F111F221F331F0A94D2F749
:1018700060E070E0CB01D4FF0FC06FE070E080E06B
:1018800090E004C0660F771F881F991F4A95D2F712
:101890006095709580959095C695C695C370602BA0
:1018A000712B822B932BC23049F058F4C13019F0C0
:1018B0000E94820E19CF0E94700E16CF0E94940EC5
:1018C00013CF0E94C50D10CFCF70112329F08C2F9C
:1018D0000E940B0E8D2F35CF8D2F0E94CF0A8C2F9B
:1018E0000E942C0E01CFD23F51F160F4D03FB9F0ED
:1018F000D13F81F0112309F449C0F110AACE8C2FF9
:101900008F7121C0D33F11F1D43FA1F780913F02E5
:1019100082FF26C08C2F8F71112311F314C0112365
:1019200049F084E08F1508F4DFCE8C2F8F710E9470
:101930004F0EDACE95E09F1508F4D6CEF6CF8C2F59
:101940008F711111CDCF0E940B0ECECE112329F035
:101950008C2F8F710E94F60DC7CE0E94D10DC4CE80
:10196000112349F0CF718C2F0E940B0E63E08C2F56
:101970000E94DD12B9CE81E00E94F812E1E0EF157D
:1019800008F0B2CE82E00E94F812AECEF11001CF84
:101990008C2F8F71A5CFDF91CF911F910F91FF9069
:1019A000EF90DF90CF90BF9008950F931F93CF9348
:1019B000DF93EC01688179818A810E944A0F8C0152
:1019C0000E94A60E0E94880DB801CE01DF91CF9132
:1019D0001F910F910C94D60ACF93DF93EC018B816A
:1019E0009C81892B29F08881998189238F3F59F423
:1019F000DF91CF910895CE010E94D50CCE01DF91E9
:101A0000CF910C941609CE010E943D098111F3CFAC
:101A10000E945A12882361F38A81882349F38091B6
:101A20003F0282FDE5CF82E0DF91CF910C94F81266
:101A3000882321F00E9477120C94A712089588231E
:101A400021F00E947D120C94A71208950E94841226
:101A50000E9487120C94A7120E944A120C94260D21
:101A60000E9474120C942C0DE92FE295EF70E25055
:101A7000EE3070F4F0E0EE50FA4D0C94BB23803F52
:101A800019F020F4883E20F481E00895843FE1F3CA
:101A900080E00895883EC0F3813FD1F7F5CF93FBF6
:101AA000882780F90895FC01808191810E94400F70
:101AB0000C94340DCF93DF9300D000D00F92CDB7AC
:101AC000DEB70F900F900F900F900F90DF91CF9196
:101AD0000895CF93DF9300D000D000D0CDB7DEB70C
:101AE00026960FB6F894DEBF0FBECDBFDF91CF9123
:101AF000089508950C94790D0E947A0D60936F01FA
:101B00007093700180937101909372010C94260D73
:101B100008950C947C0D0F931F9300916F01109109
:101B200070012091710130917201602B712B822B19
:101B3000932B1F910F910C947C0D0F931F93009189
:101B40006F01109170012091710130917201602339
:101B50007123822393231F910F910C947C0D0F937B
:101B60001F9300916F0110917001209171013091CC
:101B7000720160277127822793271F910F910C9480
:101B80007C0D0C94790D0C94C10D0E94C30D6093D3
:101B90006B0170936C0180936D0190936E010C94B6
:101BA000260D60E070E0CB010C94C50D6115710548
:101BB0008105910529F481E0442361F080E00895D6
:101BC000DC01CB0104C0B695A795979587954A95FA
:101BD000D2F781700895482F60916B0170916C016C
:101BE00080916D0190916E010C94D60D0F931F930F
:101BF00041E050E060E070E08A019B0104C0000F0A
:101C0000111F221F331F8A95D2F7C901B8011F91F6
:101C10000F910C94C50D0F931F9341E050E060E0CD
:101C200070E004C0440F551F661F771F8A95D2F7D6
:101C300080916B0190916C01A0916D01B0916E014A
:101C40008A019B01082B192B2A2B3B2BC901B801B8
:101C50001F910F910C94C50D0F931F9341E050E01D
:101C600060E070E004C0440F551F661F771F8A951F
:101C7000D2F7CB01BA01609570958095909500914F
:101C80006B0110916C0120916D0130916E01602308
:101C90007123822393231F910F910C94C50D0F93F1
:101CA0001F9341E050E060E070E004C0440F551F16
:101CB000661F771F8A95D2F780916B0190916C0116
:101CC000A0916D01B0916E018A019B01082719272F
:101CD0002A273B27C901B8011F910F910C94C50D0C
:101CE0000F931F9300916B0110916C0120916D0176
:101CF00030916E01602B712B822B932B1F910F91D2
:101D00000C94C50D0F931F9300916B0110916C0102
:101D100020916D0130916E01602371238223932302
:101D20001F910F910C94C50D0F931F9300916B01A0
:101D300010916C0120916D0130916E016027712727
:101D4000822793271F910F910C94C50D0895E92FB9
:101D5000EE0FE90FEE0F8E0F982F977041E001C044
:101D6000440F9A95EAF786958695869595E0899F22
:101D7000F0011124ED5BFE4F30E020E070E0519166
:101D8000DF011197CB01022E02C0969587950A9428
:101D9000E2F7817081958527842385278C932F5FB7
:101DA0003F4F2530310559F70895E92FEE0FE90F20
:101DB000EE0F8E0F982F977086958695869525E065
:101DC000829FF0011124ED5BFE4F50E040E080E087
:101DD000219130E0092E02C0369527950A94E2F74A
:101DE00021703327042E01C0220F0A94EAF7822BB8
:101DF0004F5F5F4F4530510559F70895BF92CF921D
:101E0000DF92EF92FF920F931F93CF93DF938C019A
:101E1000C0906B01D0906C01E0906D01F0906E016C
:101E200080916F0190917001A0917101B091720148
:101E3000C82AD92AEA2AFB2ACFE1D0E0BC2ED70152
:101E4000C6010C2E04C0B695A795979587950A9460
:101E5000D2F780FD0EC0219788F7B12C8B2DDF9132
:101E6000CF911F910F91FF90EF90DF90CF90BF9097
:101E70000895B8018C2F0E94C015019761F3EECF31
:101E8000CF93DF93EC010E94FE0EBE01DF91CF9154
:101E90000C94C0151F93CF93DF93EB0190914201F7
:101EA000992331F0CB01DF91CF911F910C94400F1A
:101EB000882379F0CB010E94FE0E182F682FCE01E7
:101EC0000E94A70EBE01812FDF91CF911F910C942C
:101ED000C015CB010E94D50E182FF4CF1F93CF93BE
:101EE000DF93C091730116E0809174018C1304C0DC
:101EF000DF91CF911F910895D0E01C9FF0011D9FAD
:101F0000F00D1124EB58FE4F4081518162817381A5
:101F1000848195810E94690D2196C770E5CF40911B
:101F2000A5015091A6016091A7017091A80180912F
:101F3000A9019091AA010C94690DFF920F931F9330
:101F4000CF93DF938091AA01807FD1F48091A70184
:101F50008823B1F080917301109174016091A50103
:101F60007091A601A091A801B091A901062F0723A5
:101F7000C0910001D091010196E0F92E181306C01E
:101F8000DF91CF911F910F91FF90089590E01097EE
:101F900011F00F3F19F401968770F0CFF89E900171
:101FA000F99E300D1124F901EB58FE4F4181471382
:101FB000F2CF40814613EFCF42814111ECCF4381F4
:101FC00054814A1B5B0B4C175D0728F78091AA01CF
:101FD0008F7080618093AA01F901E658FE4F8081DD
:101FE0008F708061808385EA91E00E94EC0CDF9124
:101FF000CF911F910F91FF900C946E0FAF92BF92F3
:10200000CF92DF92EF92FF920F931F93CF93DF93C4
:10201000CDB7DEB761970FB6F894DEBF0FBECDBF68
:102020008C0185E0F801DE011D9601900D928A95E4
:10203000E1F7F801E28085EAC82E81E0D82E6091B0
:10204000A8017091A9016115710509F45FC1909112
:10205000A5012091A601892F82238F3F09F456C143
:1020600040815181A380B480F090A701F501E61B67
:10207000F70BBF01E0910001F0910101FF2009F48D
:10208000F6C08091AA01382F307F6E177F0708F0C5
:10209000AFC0311179C0FE2C251323C0941321C089
:1020A000E1101FC08F7080618093AA010E948F0F82
:1020B000C6010E94EC0C8091AA01F80185838F2D46
:1020C00061960FB6F894DEBF0FBECDBFDF91CF9102
:1020D0001F910F91FF90EF90DF90CF90BF90AF9046
:1020E0000895AB2829F0842F85238F3F09F027C15D
:1020F00080E0F82FF170DF2E80FF3CC080917301EB
:102100002091740136E0821315C04D875E878D855E
:102110009E850E94400F292F22952F702230F0F0CB
:10212000243018F59F70F1F0F8019581907FD1F47B
:10213000D12C1EC090E0389FF001399FF00D112482
:10214000EB58FE4F6181651306C06081641303C0C4
:1021500062816E110FC001968770D5CF9F7011F00C
:10216000882331F3805E883018F3C8010E94EC0C9C
:10217000FD2CA5CFEE2009F4A2CF8091AA018160A9
:102180008093AA01F12C9BCF251306C0941304C0A1
:10219000F801EE2009F487C0C8010E94530D88237E
:1021A00019F1EE2009F18091AA01803270F020919E
:1021B000A5013091A60138872F831986BB86AA8690
:1021C0008C87CE0107960E94EC0C86E0F801A5EA08
:1021D000B1E001900D928A95E1F70E949D0F0E9457
:1021E0008F0FFF24F3946BCFC8010E94EC0CF9CF42
:1021F000311113C07A2DB98AA88A6E2D89890E945F
:102200005A0D85EA91E00E94EC0C86E0F6011192ED
:102210008A95E9F70E948F0FB5CF25130FC094134D
:102220000DC0E1100BC0F8018583C8010E94EC0CC1
:1022300086E0F60111928A95E9F741CFC8010E9424
:10224000530D882389F2EE2079F28091AA01803221
:1022500008F4BBCF2091A5013091A6013A832983D0
:102260001B82BD82AC828E83CE010196ACCF6E17ED
:102270007F0708F03EC0FE2CEE2009F4B5CF2513F1
:102280002AC0941328C08091AA0180FD1BC0982FFA
:10229000907FC1F0F8018583903F31F0982F907FB7
:1022A000905F8F70892B8583C8010E94EC0C86E0BB
:1022B000F801A5EAB1E001900D928A95E1F70E943C
:1022C0008F0FFDCE86E0F801A5EAB1E001900D92F6
:1022D0008A95E1F7F4CEC8010E94530D811175CFA4
:1022E0008091AA0181608093AA01C8010E94EC0C30
:1022F000E6CE7A2DB98AA88A6E2D89890E945A0D58
:1023000086E0F60111928A95E9F7D9CFEE2009F41B
:102310006BCFC8010E94530DF82E882309F464CFB7
:1023200086E0F801A5EAB1E001900D928A95E1F707
:1023300085EA91E00E94E5090E949D0FC0CF81E0EF
:102340008E25D7CE1F93CF93DF93CDB7DEB72C97D3
:102350000FB6F894DEBF0FBECDBF4F835887698795
:102360007A878B879C87CE0107960E94FE0F882371
:1023700069F08A859B85892B39F04F815885842F98
:1023800085238F3F09F071C016E05FC086E0FE0133
:102390003796DE01119601900D928A95E1F78A85B4
:1023A0009B85892B89F38F81988589238F3F61F3E2
:1023B0002091740130E0C9010196877099274091FE
:1023C00073014817190671F40E94300D10927401C0
:1023D0001092730186E0E5EAF1E0DF011D928A9533
:1023E000E9F7D2CF96E0929FD001939FB00D1124D0
:1023F000AB58BE4FFE01319601900D929A95E1F7D0
:10240000809374010E946E0FBFCF819FC001112481
:102410008B589E4F0E94FE0F8823E9F0E0917301D4
:102420001E9FF0011124EB58FE4F408151816281C3
:102430007381848195810E94690D8091730190E080
:102440000196877099278093730180917301909111
:1024500074018913DACF2C960FB6F894DEBF0FBE45
:10246000CDBFDF91CF911F91089569857A858B85C6
:102470009C850E94690D88CF682F80910201909100
:1024800003010C94031C682F8091020190910301B9
:102490000C940E1C80910201909103010C94191C64
:1024A0008091AB0185958595859508958091AB01C7
:1024B000877008959091AB01977081E009F480E0F6
:1024C00008958091CF0108959091CF01892B809339
:1024D000CF01089580959091CF0198239093CF01DB
:1024E00008958093CF0108951092CF01089590919F
:1024F000CE01892B8093CE01089580959091CE01D5
:1025000098239093CE0108951092CE0108951092D1
:10251000CD0108958091AC01089508950C948D1219
:1025200090913F0292FD08C09091AC01981721F064
:102530008093AC010C948E1208958091AC01882395
:1025400029F01092AC0180E00C948E120895E09175
:102550000201F09103018091CF018083E09102019B
:10256000F091030180819091CE01892B8083E091CD
:102570000201F091030180819091CD01892B80832C
:102580009091AC01992381F0E0910201F091030157
:102590008081892B808380910201909103010E94A8
:1025A0006F1B81110E949D12809102019091030185
:1025B0000C94291B08950C94DA1290913F0292FD1D
:1025C00010C098E0899F90011124622B6093AB01A9
:1025D0000E940B0E8091AB018595859585950C9495
:1025E000DB120C940B0E1092AB0180E00C94DB120A
:1025F0009091AB01809589238093AB01282F2770A0
:1026000091F4282F082E000C330B9217130659F063
:1026100090913F0292FD07C08595859585950E9412
:102620002C0E0C94F312089590913F0292FB2227F6
:1026300020F9281769F080FB92F990933F0280916E
:102640003E0290913F020E945F1382E00C94F812C8
:10265000089580913F0282FB882780F991E08927C5
:102660000C94141381E00C94141380E00C94141354
:102670006FEF7FEF90E080E00C940E2490E080E01C
:102680000E94EA2321E0893E9E4F09F020E0822F3C
:10269000089582E090E00C94E22383E090E00C94B3
:1026A000E223CF9384E090E00E94E223C82F82E2ED
:1026B00090E00E94E223982F8C2FCF910895CF9322
:1026C000C92F682F84E090E00E94F0236C2F82E2F3
:1026D00090E0CF910C94F023AB01BC018FE090E02F
:1026E0000C940224AB01BC0183E190E00C94022421
:1026F00060E070E0CB010C94721360E070E0CB01FD
:102700000E946C130C94781369EE7EEF90E080E0E9
:102710000E940E2460E082E090E00E94F02360E0DE
:1027200083E090E00E94F02310926F0110927001FC
:10273000109271011092720160E084E090E00E94BA
:10274000F02360E082E290E00E94F02360E085E008
:1027500090E00E94F02360E086E090E00E94F02389
:102760006FEF87E090E00E94F02340E050E0BA0174
:1027700088E090E00E94022460E08DE090E00E94FA
:10278000F02340E050E0BA0188E190E00E9402248A
:1027900060E087E190E00E94F02340E050E0BA0161
:1027A0008CE190E00E94022470E060E080E290E022
:1027B0000E940E2440E050E0BA0188E190E00E94BF
:1027C00002240C947D130C948413682F8EE090E007
:1027D0000C94F0230E94C71C6093E3017093E40102
:1027E0008093E5019093E6016093DF017093E0012F
:1027F0008093E1019093E20108950E94C71C6093C9
:10280000E3017093E4018093E5019093E601609306
:10281000DB017093DC018093DD019093DE0108956C
:1028200085B7806885BF85B7806885BF089508959E
:1028300008950C94171408950C941B140E941014FE
:102840008EE996E10E94131B0E9418140C9419142F
:1028500081E008950C942814089508950E942C1482
:102860000C942D140E94B21C0E94E9170E94D519E5
:102870000C941C14AF92BF92CF92DF92EF92FF9212
:102880000F931F93CF93DF93CDB7DEB72A970FB681
:10289000F894DEBF0FBECDBF0E94FE1781110E94CB
:1028A000EA1381EDA82E81E0B82E10E000E0C02EE2
:1028B000802F0E94E116E82EF501F1905F01F816D5
:1028C00009F451C08091E70181FD0E94E7168F2D28
:1028D0008E25D12CFF24F394982F9F2109F43EC01C
:1028E0000E942A14882399F0DE82CF82EF2081E0B3
:1028F00009F480E088870E94BB1C8160782F9A874A
:1029000089874E815F8168858A850E94A709F801C1
:10291000EF52FE4F8081F826F0820E94E419811167
:102920000E94FD130E941D1B9091D001891791F107
:102930000E941D1B8093D0012A960FB6F894DEBF2B
:102940000FBECDBFDF91CF911F910F91FF90EF9000
:10295000DF90CF90BF90AF900C949F09D394FF0C61
:10296000F6E0DF12B9CF0F5F1F4F0A30110509F0F3
:102970009ECF8FEF89838A831B820E94BB1C81605C
:10298000782F9D838C8349815A816B818D810E9430
:10299000A709C3CF2A960FB6F894DEBF0FBECDBFEE
:1029A000DF91CF911F910F91FF90EF90DF90CF902B
:1029B000BF90AF900895CF93DF930E94C415EC01B0
:1029C000811523E5920790F5811532E5930708F00C
:1029D00096C081159042C8F4C11581E0D80788F4EB
:1029E000C53AD10548F4C430D10558F4C130D105F9
:1029F00041F0D0E0C0E005C0CE01805E91090897AB
:102A0000C0F7CE01DF91CF910895C11591E5D907A7
:102A100008F070C0C11520E5D20708F04EC0C115FE
:102A200030E4D30730F3DF70D06AEBCF811546E591
:102A30009407F0F4C11585E5D80708F075C0C115F5
:102A400094E5D90708F06BC0CE018370992721E087
:102A500030E002C0220F331F8A95E2F7C695C69573
:102A600090E2C99FE0011124C22BD32BDA68C9CFB1
:102A700081152AE5920778F4811539E5930708F066
:102A80005EC0811548E5940708F4B3CFD82FCC2752
:102A9000C06FD06AB6CF90568115904208F0A9CF8A
:102AA0008D2F8F710E945B1690E0982F88278827C2
:102AB0009F719C012C2BE90140C0CE01E4E096956A
:102AC0008795EA95E1F783702C2F2695269523703C
:102AD00040E2249F90011124382B8C2F8370C1E099
:102AE000D0E002C0CC0FDD1F8A95E2F7C22BD32BBA
:102AF000DC6887CFDC2FCC27C16FD06A82CF837090
:102B0000992721E030E002C0220F331F8A95E2F7B7
:102B1000C695C69580E2C89FE0011124E7CFDC2F5F
:102B2000CC27C46FD06A6DCF8C2F0E945B16C82F44
:102B3000D0E0DC2FCC27CC27DF71D06262CF8F7042
:102B40000E945B1634E0D695C7953A95E1F7CF70B1
:102B50009C2FEC01D06955CF972F70E026E0929F13
:102B6000600D711D1124FB019CE3899FE00DF11D97
:102B70001124EE0FFF1FE455FF4F859194910895A6
:102B80000E94AC150C94DB1482389105B1F1B0F4BD
:102B90008133910509F475C048F48932910509F42F
:102BA00069C08A32910509F473C00895853391058F
:102BB00009F459C08933910501F10895833E9105C7
:102BC000A9F138F4803E9105F9F0823E910549F172
:102BD0000895863E9105A9F1873E9105C9F1843E8D
:102BE000910519F520913F0221FF1FC080913E02FF
:102BF00084FD14C087EE90E0089520913E0223707A
:102C0000A1F080EE90E0089520913E0220FD47C0A3
:102C100030913F0230FF09C024FF44C090E080E0C3
:102C200004C020913E0222FDF7CF089520913E027C
:102C300022FD3BC030913F0230FDE3CF24FFF5CFB2
:102C4000EDCF20913E0223FFF0CF24FDE7CFD2CF7E
:102C500020913E0223FD2CC030913F0231FFEECF88
:102C600084EE90E0089520913E0225FFDECF89E2B8
:102C700090E0089520913E0225FFD7CF85E390E0B4
:102C8000089520913E0226FFD0CF8AE290E0089579
:102C900020913E0226FFC9CF81E390E0089589E3A9
:102CA00090E0089583EE90E0089582EE90E008951C
:102CB00086EE90E0089590913E0292FF06C0282F84
:102CC00028712830F9F4877F846093FF06C0282F8D
:102CD00028712831F1F4877E846120913F0220FF22
:102CE00006C0382F38713830D9F4877F816021FFD2
:102CF00006C0282F28712831D1F4877E816194FD88
:102D0000877E0895282F24712430F9F68B7F886000
:102D1000DCCF282F2471243101F78B7E8861DDCF31
:102D2000382F3171313019F78E7F8860E0CF282F2E
:102D30002171213121F78E7E8861E1CF80E00895F5
:102D40000C9438130E94FE178FE39CE90197F1F76A
:102D500000C000000E94FE1780E00E94E11680FF84
:102D600004C00E94A0160C94061D08950C94A2168F
:102D70000E943E13811102C00E94E3130E94491376
:102D80008093E7010E94511390933F0280933E028B
:102D90000E94B6160E944D13682F70E090E080E00C
:102DA0000E94890D60916B0170916C0180916D01A1
:102DB00090916E010C94C30D0C94120808950C941C
:102DC000DE16E82FF0E0E65BFD4F80810895089560
:102DD00080EA8A95F1F7089500C008950C94E816EA
:102DE000F894E82FE295EF70F0E031A1282F2F70D2
:102DF00081E090E001C0880F2A95EAF7982F90951E
:102E0000932391A392A1892B82A378940895F89497
:102E1000E82FE295EF70F0E031A1282F2F7081E0CC
:102E200090E001C0880F2A95EAF7382B31A392A1D0
:102E30008095892382A378940895DF92EF92FF9280
:102E40000F931F93CF93DF93EC01D62E062F10E044
:102E5000F801E95EFE4FE0808FEFE81681F18E2DDC
:102E60000E9407170E94EC16E1E1F1E047E151E012
:102E700081E0F12C91919F3F79F0A92FA295AF703D
:102E8000B0E090962C9130E09F7002C03595279568
:102E90009A95E2F7982F20FD90E0F92A880F4E17B7
:102EA0005F0741F78E2D0E94F01661E0F11001C01E
:102EB00060E08D2D0E94EE16C00FD11FF882DF91C9
:102EC000CF911F910F91FF90EF90DF900895CF92D7
:102ED000DF92EF92FF920F931F93CF93DF93E82E31
:102EE000092F162FF42EC62FD0E0CF5EDE4F88813B
:102EF0008F3F09F445C00E9407170E94EC1687E136
:102F0000C82E81E0D82EEE2DF02FAF014B5F5F4F22
:102F100000E0EF2CE094D6019D916D0181919F011D
:102F2000215031099F3F41F1692F62956F7070E028
:102F3000DB0190966C9170E09F7002C0759567956B
:102F40009A95E2F760FD18C08F29D9018C9301E0B2
:102F5000E417F50701F788818F3F11F00E94F01602
:102F6000602F812FDF91CF911F910F91FF90EF90F4
:102F7000DF90CF900C94EE168E21D9018C93E8CF80
:102F8000DF91CF911F910F91FF90EF90DF90CF9045
:102F900008950F931F93CF93DF93C7E1D1E08991F9
:102FA0008F3F11F00E94F01681E0CC31D807B9F7BD
:102FB000C1E1D1E007E111E089918F3F11F00E945A
:102FC000F0160C171D07C1F7DF91CF911F910F91DC
:102FD00008950E94C9178AE0EAE4F2E0DF01982F21
:102FE0001D929A95E9F7E8EEF1E0DF011D928A95CE
:102FF000E9F785E00E9459180C942109EF92FF929D
:103000000F931F93CF93DF93CDB7DEB72A970FB6F9
:10301000F894DEBF0FBECDBF8E010F5F1F4F8AE059
:10302000F80111928A95E9F7F12C6F2DC8010E94E1
:103030001D17F394F5E0FF12F8CFF12CEE24E39482
:103040004E2D6F2DCE0106960E946717F394EE0C5D
:1030500086E0F812F5CF4AE050E0B80188EE91E042
:103060000E94D523FF24F394009709F4F12C892BB7
:1030700041F08AE0F801A8EEB1E001900D928A9546
:10308000E1F72F2D4AE06AE472E088EE91E00E94B9
:103090005A180E9427098F2D2A960FB6F894DEBF82
:1030A0000FBECDBFDF91CF911F910F91FF90EF9099
:1030B00008950895FF920F931F93CF93DF93F82EF7
:1030C000092F162FD72FC42F222349F081E0809398
:1030D000F4010E94BB1C9093F3018093F201809154
:1030E000F4018823A1F08091F2019091F3010E94F4
:1030F000D31C059760F0EF2DF02FA12FBD2FCE0F21
:10310000DF2FD11DEC17FD0741F41092F401DF9180
:10311000CF911F910F91FF90089581918D93F2CFE0
:103120000E947B1E0E9432140C94871E0E948B1EEC
:103130000E943A140C94A51E0E94451C0E94621E17
:103140000E941E140E9490180E9496180E942E142D
:10315000FBCFCF93DF93EC01FB018281882309F43D
:1031600020C1C430FDE5DF07C8F5CB3F9CE5D9079A
:1031700030F49E0122503C452431310598F50E94DF
:10318000511390933F0280933E02C031FCE5DF076C
:1031900009F4E0C008F061C0C8309CE5D90709F423
:1031A000CBC088F5C430FCE5DF0709F4B3C0E8F410
:1031B000C2309CE5D90709F4A7C080913E02826025
:1031C000C330DC4509F4A3C080913E0290913F02D8
:1031D0000E945F130E94300D80E004C0C236EDE50E
:1031E000DE0769F2DF91CF91089580913E02806100
:1031F000C630FCE5DF0709F48AC008F48FC080916F
:103200003E02806284C080913E028D7FCC309CE57E
:10321000D90709F47CC070F480913E028C60CA30FA
:10322000FCE5DF0709F473C008F48AC080913E0210
:103230008E7F6DC080913E02877FCE309CE5D9079E
:1032400009F465C080913E028B7FCF30DC4508F4E5
:103250005EC080913E028F7E5AC0CD3FFCE5DF0705
:1032600009F474C040F5C4319CE5D90709F48AC05B
:1032700058F4C231FCE5DF0709F474C008F46EC0ED
:1032800080913E02837F43C0CB3F9CE5D90709F480
:1032900049C008F04DC0C531DC4509F095CF80919B
:1032A0003E0282FB992790F921E0922790FB82F958
:1032B00090FB83F92CC0C1308DE5D80709F458C0C4
:1032C00088F480913F028360CF3FECE5DE0769F12F
:1032D00080913F028D7FC115DD4538F180913F021D
:1032E0008C7F23C0C3308DE5D80709F458C008F49B
:1032F00052C0C236DD4509F067CF90913E02892F5A
:103300008F7E94FF806103C080913E028160809334
:103310003E025ACF80913E028460F9CF80913E02F6
:103320008860F5CF80913F02816080933F024CCF4F
:1033300080913F028260F9CF80913E028064E7CFA6
:103340000E94300D80913E028068E1CF80913F0263
:103350008E7FEBCF80913E028F7DD9CF80913E0250
:103360008F7BD5CF0E94300D80913E028F77CFCFDB
:1033700080913F02982F909591708E7F892B90FBC2
:1033800081F9D3CF0E94300D90913E02892F97FB97
:1033900087F98058BCCF81E00E94E51315CF80E00B
:1033A000FBCF81E01FCF0C9459085098589A519840
:1033B000599A89B18170499905C090E0892B809311
:1033C000F701089592E0FACFE091F701EE0FEE0FCA
:1033D000E093F70149B1842F817049B141FB222765
:1033E00020F941FF02C022E030E0822BE82BE0937D
:1033F000F701EF70F0E0E45EFE4F80819091F601FE
:10340000890F8093F60120E0843054F08091F5011B
:103410008F5F8093F50160E080E00E94D31921E086
:103420008091F6018D3F54F48091F5018150809395
:10343000F50161E080E00E94D31921E08091F6015E
:10344000082E000C990B64E070E00E94A723809383
:10345000F601822F0895CF93DF93EB0186319C45CF
:1034600011F50E9461129A81992399F08A7A91E06C
:1034700009F490E09093F801811109C089E20E945B
:103480003C120E94A71280E0DF91CF91089585E35E
:10349000F6CF8091F801811104C089E20E944312A5
:1034A000F0CF85E3FBCF81E0EFCF0F931F93CF9356
:1034B000DF93C42FD22FFC0182818823C9F040936F
:1034C000FB010E94BB1C9093FA018093F90180E2FA
:1034D0008C0F883008F050C0C77081E001C0880FA1
:1034E000CA95EAF7DF91CF911F910F910C94C80A0A
:1034F0001091FB01141335C08091F9019091FA01EC
:103500000E94D31C883C910560F5C0E2CD0F1D17C9
:10351000B9F080E2810F883040F4177081E001C07B
:10352000880F1A95EAF70E94CF0AC83048F481E064
:103530009D2F977001C0880F9A95EAF70E94C80ADC
:10354000802F0E94C00AC830B8F4D77081E001C053
:10355000880FDA95EAF7DF91CF911F910F910C94C4
:10356000CF0A80E28C0F883038F4C77081E001C048
:10357000880FCA95EAF7EFCFDF91CF911F910F9196
:1035800008950F939C01CB01243F4CE5340759F17A
:10359000A8F4293DFCE53F0701F12A3D4CE534073D
:1035A000D1F1283D3C4591F406E221EE41EE68ED73
:1035B0007CE50E94551A80E00F910895263FFCE5B6
:1035C0003F07E9F0B0F0273F3C45F9F0FC0182816C
:1035D000882339F11092FB01EFCF07E225EE45EE8B
:1035E00069ED7CE5E6CF06E221EE40EE64EF7CE596
:1035F000E0CF07E225EE44EE65EF7CE5DACF06E2A8
:1036000021EE42EE66EF7CE5D4CF07E225EE46EEF2
:1036100067EF7CE5CECF08E221E045EE6AED7CE580
:10362000C8CF81E0C9CF90932D0180932C010895DC
:1036300090930102809300020895E0910002F091BE
:103640000102309721F00190F081E02D099480E093
:103650000895E0910002F0910102309799F02091D5
:103660001001222359F020913E0227FF07C0DC0100
:103670002C9111962C93119726E02C930280F381C4
:10368000E02D099408952091FE013091FF01281743
:10369000390771F09093FF018093FE01E0910002E1
:1036A000F0910102309721F00680F781E02D099416
:1036B00008952091FC013091FD012817390771F020
:1036C0009093FD018093FC01E0910002F0910102D2
:1036D000309721F00084F185E02D09940895FC01D4
:1036E000329680911001882321F080913E029EE164
:1036F00087FF96E080E0915008F4089521912223FD
:10370000D1F38F5FF8CF662301F1209110012223BE
:10371000F1F020913E0227FF1AC0462F46954695AC
:1037200046954E3190F4677021E030E002C0220FE0
:10373000331F6A95E2F7840F911DFC01828190E0AE
:103740002823392381E0232B69F480E00895FC01CC
:10375000329608962191261721F0E817F907D1F73C
:10376000F4CF81E008959C01FC0132969FEF80E048
:103770004191461751F09F3F19F4411101C0982F14
:103780008F5F8630A9F79F3F09F40895290F311DF7
:1037900097FD3A95F90162830895FC0132960896E7
:1037A0002191261303C0DF0111971C92E817F90736
:1037B000B9F70895E62FE695E695E695EE3168F4BB
:1037C000E80FF92FF11D677021E030E001C0220FF2
:1037D0006A95EAF78281822B82830895E62FE69527
:1037E000E695E695EE3170F4E80FF92FF11D67705C
:1037F00021E030E001C0220F6A95EAF7209582812E
:1038000028232283089520911001222329F020915A
:103810003E0227FD0C94DA1B0C94B31B209110017F
:10382000222329F020913E0227FD0C94EE1B0C94DC
:10383000CD1BFC01329680911001882351F08091BC
:103840003E0287FF06C08EE1DF011D928A95E9F7EF
:10385000089586E0F9CF08950C942B1C811105C0C2
:1038600081E0809302020C942C1C82E0FACF83E06A
:10387000809302020C942C1C0C942E1C81E08093EB
:1038800002020C942C1C0C943E1C089580915C0246
:10389000843031F10E9429091092030288E190E0FE
:1038A00020E40FB6F894A895809360000FBE209393
:1038B000600083B7817F846083BF83B7816083BFEB
:1038C0007894889583B78E7F83BF0FB6F894A895B8
:1038D00080916000886180936000109260000FBE4C
:1038E000089508950895CF930E94711C0E94FE17B9
:1038F0000E94721CC0E08C2F0E94E116811105C04D
:10390000CF5FCA30C1F7CF91089581E0FCCF0E940C
:10391000300D0C9491091F921FB61F9211248F93A2
:103920009F93AF93BF9380910302811113C0809145
:10393000540290915502A0915602B09157024196BF
:10394000A11DB11D8093540290935502A09356027D
:10395000B0935702BF91AF919F918F911F901FBE5F
:103960001F90189582E084BD93E095BD9AEF97BDB6
:1039700080936E0008952FB7F8948091540290912F
:103980005502A0915602B09157022FBF08952FB74C
:10399000F894609154027091550280915602909172
:1039A00057022FBF08959C014FB7F894809154029D
:1039B00090915502A0915602B09157024FBF821BC1
:1039C000930B089578941F921FB61F9211248F9322
:1039D0009F93AF93BF938091540290915502A09111
:1039E0005602B09157020196A11DB11D8093540259
:1039F00090935502A0935602B0935702BF91AF9196
:103A00009F918F911F901FBE1F90189581E080930A
:103A1000E00080E28093D8001092C9008FE19EE41C
:103A20000197F1F700C0000087E090EBDC01809384
:103A3000650290936602A0936702B093680288E1E2
:103A40009CE00FB6F894A895809360000FBE909309
:103A50006000FFCF80912402089508950895CF93C8
:103A6000DF93EC01809110018823B1F180913E0237
:103A700087FF32C060E282E08093E9008FEF90918F
:103A8000E800815095FD06C095ED9A95F1F700008C
:103A90008111F5CF8091E80085FF1BC08091100156
:103AA00070E050E040E0811104C050E040E068E088
:103AB00070E0CE010E94161F8091E8008E778093FF
:103AC000E80080E2FE01A4E0B2E001900D928A9548
:103AD000E1F7DF91CF91089568E081E0CDCF0895BF
:103AE000089580915B02811109C00E94A6200E9466
:103AF00003218091E20084608093E2000895109297
:103B00005B0208950C943E1C6091580281E06111A3
:103B100001C080E00C94371C90915C0281E09430ED
:103B200009F080E0609158020C943C1C42E061EC8A
:103B300081E00E94222042E261EC82E00E94222089
:103B400090915C0281E0943009F080E0609158022D
:103B50000C942E1C80915E02833009F460C030F416
:103B60008130C9F1823009F49CC008958A3009F48B
:103B700088C08B3009F46EC0893009F04FC0809145
:103B80005D02813209F04AC0809161029091620227
:103B9000029708F043C08091E800877F8093E80097
:103BA0008091E80082FF36C09091F3008091F2008E
:103BB000029731F48091F100813011F0863021F4C8
:103BC0008091F100809324028091E8008B778093AC
:103BD000E8000C94562080915D02813AF9F48091BE
:103BE000E800877F8093E8008091610290916202F3
:103BF000892B61F460E284E092E070E00E94651F2E
:103C00008091E8008B778093E800089560E090E071
:103C100080E0F3CF80915C028111C2CF0895809142
:103C20005D02813AD9F78091610290916202892BFD
:103C3000A9F78091E800877F8093E8008091E800F1
:103C400080FFFCCF809110018093F1008091E8000B
:103C50008E77BDCF80915D02813201F78091610244
:103C600090916202892BD1F68091E800877F809342
:103C7000E8000E94562080915F02809310010C940E
:103C8000300D80915D02813249F68091E800877F96
:103C90008093E8000E945620809160028093250264
:103CA000089580915D02813A09F0B8CF8091E800D3
:103CB000877F8093E8008091E80080FFFCCF8091AF
:103CC0002502C2CF84B7877F84BF0FB6F894A8952A
:103CD00080916000886180936000109260000FBE48
:103CE00080E890E00FB6F8948093610090936100B3
:103CF0000FBE0C94431C0E94A6200E940321E2EEFA
:103D0000F0E080818460808378940C948C2384E03C
:103D100091E00C94181B80915C028530A9F480918D
:103D20005C02853011F00C94871C0E94461C809127
:103D30005A028823A1F30E94731C882381F30E94F6
:103D4000001F0E94300DEBCF089508950C94A81E1B
:103D5000292F33272330310519F168F4213031053B
:103D600009F444C02230310509F445C090E080E0F8
:103D700030E020E025C02132310549F12232310501
:103D8000A9F780E490E020EF32E061157105C1F001
:103D90008BE390E025EB32E06130710589F0E6CFEE
:103DA00099278130910581F0009729F00297F1F66B
:103DB000E4E1F2E002C0E4E6F2E0849190E09F01E9
:103DC000FA01318320830895ECE4F2E0F6CF89E034
:103DD00090E02AE732E06115710591F389E090E007
:103DE00023E932E06130710559F3C0CF82E190E000
:103DF00023EA32E0E5CF8BE390E028E632E0E0CF43
:103E000080E189BD82E189BD09B400FEFDCF8091CA
:103E1000D8008F7D8093D8008091E00082608093ED
:103E2000E0008091E00081FDFCCF0895AF92BF9249
:103E3000CF92DF92FF920F931F93CF93DF936C018A
:103E4000EB018A010E947520F82E811123C0011513
:103E5000110539F0F80180819181C81BD90BC80E7A
:103E6000D91EB12CA12C2097A9F08091E80085FDE6
:103E700022C08091E8008E778093E800011511053B
:103E8000A1F0F80180819181A80EB91EB182A082B3
:103E900085E0F82E8F2DDF91CF911F910F91FF902C
:103EA000DF90CF90BF90AF9008950E947520882337
:103EB000D1F2F82EEFCFF60181916F018093F100DE
:103EC0002197FFEFAF1ABF0ACECFFC0180916302AA
:103ED0009091640286179707A0F06115710529F487
:103EE0009091E8009E779093E80090E0611571054D
:103EF00051F4911108C08091E80082FF34C080E045
:103F00000895BC01F2CF80915C028823C1F1853015
:103F1000C1F18091E80083FD30C08091E80082FD0E
:103F2000EACF8091E80080FFE1CF8091F3002091FB
:103F3000F200382F6115710519F02830310558F05D
:103F400091E02830310509F090E02091E8002E77CB
:103F50002093E800CBCF81918093F10061507109EB
:103F60002F5F3F4FE7CF80915C02882341F085307F
:103F700041F08091E80083FFBECF81E0089582E0A8
:103F8000089583E00895FC0180916302909164029A
:103F900086179707A0F06115710529F48091E80054
:103FA0008E778093E80090E06115710551F49111CE
:103FB00008C08091E80082FF35C080E00895BC0110
:103FC000F2CF80915C028823C9F18530C9F18091DC
:103FD000E80083FD31C08091E80082FDEACF809146
:103FE000E80080FFE1CF8091F3002091F200382FAC
:103FF0006115710519F02830310558F091E028302D
:10400000310509F090E08091E8008E778093E80018
:10401000CBCF84918093F1003196615071092F5F6D
:104020003F4FE6CF80915C02882341F0853041F01C
:104030008091E80083FFBDCF81E0089582E008957C
:1040400083E00895982F973028F08F708093E900CF
:1040500081E008959093E900242F762F50E098177F
:1040600031F07091EC002091ED005091F00021FDB5
:1040700002C09F5FE8CF3091EB003E7F3093EB00B2
:104080003091ED003D7F3093ED003091EB003160D9
:104090003093EB007093EC002093ED005093F00010
:1040A0002091EE0027FDE5CF80E0089580915D022C
:1040B00087FF13C08091E80082FF06C08091E8006E
:1040C0008B778093E80004C080915C028111F2CF6D
:1040D000089580915C028823D9F38091E80080FFE5
:1040E000F8CF8091E8008E77ECCF2091E4003091FA
:1040F000E50095E6A9012091EC00822F817020FF58
:1041000006C08091E80080FF06C080E008952091FD
:10411000E80022FD1AC080915C02882389F0853076
:1041200089F08091EB0085FD0FC02091E400309173
:10413000E50042175307F9F29150E1F684E0089543
:1041400082E0089583E0089581E008950E9414219B
:104150000E941C21E0EEF0E0808181608083E8ED28
:10416000F0E080818F77808319BCA7EDB0E08C915F
:104170008E7F8C9380818F7E808310925B02089566
:104180000F931F93CF93DF930E9414210E941C2151
:10419000C8EDD0E088818F778883888180688883A4
:1041A00088818F7D888319BC10925C02109258021E
:1041B00010925A021092590200EE10E0F80180812C
:1041C0008B7F808388818160888342E060E080E02B
:1041D0000E942220E1EEF0E080818E7F8083E2EE7B
:1041E000F0E0808181608083808188608083F80135
:1041F00080818E7F8083888180618883DF91CF91E9
:104200001F910F910895E8EDF0E080818F7E80830B
:10421000E7EDF0E080818160808384E082BF81E00F
:1042200080935B020C94C020E8EDF0E080818E7FEB
:1042300080831092E20008951092DA001092E1005B
:1042400008951F920F920FB60F9211242F933F9350
:104250004F935F936F937F938F939F93AF93BF938E
:10426000EF93FF938091E10082FF0BC08091E20009
:1042700082FF07C08091E1008B7F8093E1000E9464
:104280008B238091DA0080FF19C08091D80080FFD5
:1042900015C08091DA008E7F8093DA008091D9007A
:1042A00080FF96C080E189BD82E189BD09B400FE2E
:1042B000FDCF81E080935C020E94711D8091E1003E
:1042C00080FF19C08091E20080FF15C08091E2005C
:1042D0008E7F8093E2008091E20080618093E20013
:1042E0008091D80080628093D80019BC85E08093CB
:1042F0005C020E94841D8091E10084FF2BC08091AC
:10430000E20084FF27C080E189BD82E189BD89B5D3
:10431000982F917080FFFBCF8091D8008F7D809384
:10432000D8008091E1008F7E8093E1008091E200CF
:104330008F7E8093E2008091E20081608093E200B2
:1043400080915802882309F449C084E080935C027C
:104350000E948C1D8091E10083FF29C08091E200C2
:1043600083FF25C08091E100877F8093E10082E098
:1043700080935C02109258028091E1008E7F8093BE
:10438000E1008091E2008E7F8093E2008091E20064
:1043900080618093E20042E060E080E00E942220A1
:1043A0008091F00088608093F0000E94821DFF9150
:1043B000EF91BF91AF919F918F917F916F915F919D
:1043C0004F913F912F910F900FBE0F901F90189516
:1043D00019BC10925C020E947F1D70CF8091E30097
:1043E00087FD93E090935C02B3CF1F920F920FB6BC
:1043F0000F9211242F933F934F935F936F937F936B
:104400008F939F93AF93BF93CF93DF93EF93FF93DC
:10441000D091E900DF708091EC00C82FC17080FD61
:10442000C0E81092E9008091F000877F8093F0004F
:1044300078940E9439221092E9008091F0008860FF
:104440008093F000CD2BCF70C093E900FF91EF91E6
:10445000DF91CF91BF91AF919F918F917F916F919C
:104460005F914F913F912F910F900FBE0F901F9032
:1044700018951F93CF93DF93CDB7DEB7AA970FB6EA
:10448000F894DEBF0FBECDBF8DE592E02091F10024
:10449000FC012193CF01F2E085369F07B9F70E9416
:1044A000AA1D8091E80083FF1EC180915D0290915A
:1044B0005E029A3008F017C1E92FF0E0E050FA4DA3
:1044C0000C94BB23803899F0823809F00CC180919C
:1044D00061028F70873008F006C18093E9008091F7
:1044E000EB0085FB882780F91092E90006C08091D7
:1044F000590290915A02911182609091E800977F41
:104500009093E8008093F1001092F1008091E80010
:104510008E77E5C0882309F4D3C0823009F0E3C068
:1045200080915F028111D6C0809161028F702FEF60
:10453000280F263008F0D7C08093E9002091EB00C7
:1045400020FFC8C0933031F48091EB0080628093EB
:10455000EB00C0C09091EB0090619093EB0021E0E4
:1045600030E001C0220F8A95EAF72093EA0010920A
:10457000EA008091EB008860EACF8111B4C010910D
:104580005F021F778091E3008078812B8093E300A6
:104590008091E800877F8093E8000E9456208091F8
:1045A000E80080FFFCCF8091E30080688093E30007
:1045B00082E0111183E080935C0295C080588230C4
:1045C00008F091C080915F02909160028C3D23E0E1
:1045D0009207A1F583E08A838AE289834FB7F89432
:1045E000DE01139620E03EE051E2E32FF0E050932D
:1045F0005700E49120FF03C0E295EF703F5FEF703A
:104600008E2F90E0EA30C0F0C7968D939D932F5F78
:10461000243159F74FBF8091E800877F8093E800ED
:104620006AE270E0CE0101960E94651F8091E80069
:104630008B778093E80057C0C096E7CF6091610206
:1046400070916202AE014F5F5F4F0E94A61EBC01D7
:10465000892B09F448C09091E800977F9093E80077
:1046600089819A810E94C31FE1CF8038E1F5809152
:10467000E800877F8093E800809158028093F100E2
:1046800045CF811130C090915F02923060F58091EA
:10469000E800877F8093E800909358020E9456209C
:1046A00080915802882311F084E005C08091E300D6
:1046B00087FDFACF81E080935C020E94961D13C0B3
:1046C00080915F02813079F481E0933009F080E0DD
:1046D00080935A021092E9008091E800877F8093CE
:1046E000E8000E9456208091E80083FF0AC0809174
:1046F000E800877F8093E8008091EB0080628093E0
:10470000EB00AA960FB6F894DEBF0FBECDBFDF91C7
:10471000CF911F9108950895CF9380915C028823D3
:10472000A1F0C091E900CF709091EC00892F8170C9
:1047300090FD80E8C82B1092E9008091E80083FD8D
:104740000E943922CF70C093E900CF91089597FB62
:10475000072E16F4009407D077FD09D00E94C123DC
:1047600007FC05D03EF4909581959F4F0895709574
:1047700061957F4F0895EE0FFF1F0590F491E02D96
:104780000994AA1BBB1B51E107C0AA1FBB1FA61798
:10479000B70710F0A61BB70B881F991F5A95A9F7EA
:1047A00080959095BC01CD010895FB01DC0104C00A
:1047B0008D910190801921F441505040C8F7881B19
:1047C000990B0895F999FECF92BD81BDF89A99276A
:1047D00080B50895A8E1B0E042E050E00C941624C2
:1047E000262FF999FECF92BD81BDF89A019700B4AA
:1047F000021639F01FBA20BD0FB6F894FA9AF99A4A
:104800000FBE08950396272F0E94F1230E94F023E4
:10481000252F0E94F123242F0C94F1230196272F9A
:104820000E94F1230C94F023DC01CB01FC01F999E7
:10483000FECF06C0F2BDE1BDF89A319600B40D92EC
:1048400041505040B8F70895F894FFCF7D02970289
:1048500099029B029D029F02B102B302B502B70208
:10486000B9028002800280028002800280028002FF
:104870008002800280028002800280028002800228
:1048800080028002800280028002A102A302A502AF
:10489000A702A902AB02AD02AF02BB02BD02BF027A
:1048A000C102C302C50280028002C702C902CB0254
:1048B000CD02DF02D202D702DC020103D0020603DE
:1048C00008030D031903FB021B03DA021D03EB02AD
:1048D000EB02EB02EB02EB02EB02EB02EB02EB0270
:1048E000EB02EB02EB02EB02EB02EB02EB02EB0260
:1048F000EB02EB02E102E302E502F702F902FB023E
:10490000FD02FF020F03110313031503EB0217034C
:104910001F0321032303250327033B033D033F0319
:1049200041034B034D034F0351035303EB02630356
:10493000650367036903EB02EB02EB02EB02EB0298
:10494000EB02EB02EB02EB02EB02EB02EB02EB02FF
:10495000EB02EB02EB02EB02EB02EB025C03430324
:10496000450347034903FB02FD02FF02550304030D
:10497000570359035E0317036B030B036D036F03A8
:1049800071031F0421042304FC0325042704D80316
:10499000310433043504370443044504470449040F
:1049A0004B04CD03D503DA03DC03E103ED03F70386
:1049B000F903FE030004CD030D040F0411041304D6
:1049C0002904ED03E803DF032B042D042F04F50372
:1049D00039043B043D043F04F30341040B044D043C
:1049E000F103CD031D04E303E503EA03EF03F10341
:1049F000F103F303F503020404040604E8030804C6
:104A0000F5031504170419041B041D04C004C20493
:104A1000C4049D04C604C8047904D204D404D60492
:104A2000D804E404E604E804EA04EC046B04760425
:104A30007B047D0482048E0498049A049F04A104DC
:104A40006B04AE04B004B204B404CA048E04890436
:104A50008004CC04CE04D0049604DA04DC04DE0422
:104A6000E0049404E204AC04EE0492046B04BE047B
:104A7000840486048B0490049204920494049604A3
:104A8000A304A504A7048904A9049604B604B804E1
:104A9000BA04BC04BE046A058405860588058A0537
:104AA0008C059E05A005A205A405A6056D056D054E
:104AB0006D056D056D056D056D056D056D056D0566
:104AC0006D056D056D056D056D056D056D056D0556
:104AD0006D056D058E059005920594059605980562
:104AE0009A059C05A805AA05AC05AE05B005B2055A
:104AF0006D056D05B405B605B805BA05CC05BF054D
:104B0000C405C905F005BD05F505F705FC05080652
:104B1000EA050A06C7050C06D805D805D805D80544
:104B2000D805D805D805D805D805D805D805D8059D
:104B3000D805D805D805D805D805D805D805CE0597
:104B4000D005D205E605E805EA05EC05EE05FE050B
:104B5000000602060406D80506060E061006120612
:104B6000140616062A062C062E0630063A063C06C1
:104B70003E0640064206D80552065406560658061A
:104B8000D805D805D805D805D805D805D805D8053D
:104B9000D805D805D805D805D805D805D805D8052D
:104BA000D805D805D8054B06320634063606380631
:104BB000EA05EC05EE054406F305460648064D06F3
:104BC00006065A06FA055C065E066006140B140B10
:104BD000450B450B740B740B740B740BD80B640CE6
:104BE000730C730C3F0D3F0D480D480D4A0D480DD9
:104BF000480D480D3F0D3F0D4F0D480D480D4F0D11
:104C000062228A2273238A227323BD22DE22732327
:044C100035234123E4
:104C1400C800AD012A1D2F1D6F1D2D1D701D2E1DD9
:104C240001679495969734929335366600FF010098
:0C4C3400010000FFFF0000010001FF0074
:00000001FF
