:100000000C947A020C94C1020C94C1020C94C102AB
:100010000C94C1020C94C1020C94C1020C94C10254
:100020000C94C1020C94C1020C9494240C94682585
:100030000C94901E0C94C1020C94C1020C94C10249
:100040000C94C1020C94400B0C94C1020C94C1029C
:100050000C94C1020C94F61E0C94C1020C94C102C3
:100060000C94C1020C94C1020C94C1020C94C10204
:100070000C94C1020C94C1020C94C1020C94C102F4
:100080000C94C1020C94C1020C94C1020C94C102E4
:100090000C94C1020C94C1020C94C1020C94C102D4
:1000A0000C94C1020C94C1020C94C10229001E00E0
:1000B000385D200021002200395D3A5D3B5D3C5DEA
:1000C0003D5D3E5D3F5D2A002B0014001A000800D4
:1000D000150017001C0018000C001200130030005F
:1000E0003200405DE00004001600070009000A002D
:1000F0000B000D000E000F00415D425D0000280066
:10010000E10000001D001B000600190005001100A1
:1001100010003600370038000000E5000251E3000F
:10012000E200000000002C002C0000000000000095
:10013000E600E7006542E4002900085D095D0A5D0C
:100140000B5D0C5D0D5D0E5D0F5D105D115D125D53
:10015000135D2A002B00155D165D175D185D195D96
:100160001A5D1B5D1C5D1D5D1E5D1F5D205D145DC8
:10017000E000215D225D235D245D255D265D275D18
:10018000285D295D2A5D2B5D00002800E10000004C
:100190002C5D2D5D2E5D2F5D305D315D325D335DFB
:1001A000345D355D0000E5000251E300E20000002F
:1001B0000000375D365D0000000000000100010016
:1001C00001000100435D3A003B003C003D003E0061
:1001D0003F004000410042004300440045004C0005
:1001E0000100010001000100010001004A004E0071
:1001F0004B004D00460001004800010001000100D5
:1002000001000100010001005000510052004F00A8
:1002100049004C0000002800E1000000010001003E
:1002200001000100010001000100010001000100C6
:100230000000010002510100010000000000455DC6
:10024000445D000000000000010001000100010009
:1002500000000000000000002A2B28000000000021
:100260000000000000000000000000290000000065
:100270002C1E3420212224342627252E362D3738D3
:10028000271E1F202122232425263333362E3738DC
:100290001F0405060708090A0B0C0D0E0F1011129A
:1002A000131415161718191A1B1C1D2F3130232D66
:1002B000350405060708090A0B0C0D0E0F10111264
:1002C000131415161718191A1B1C1D2F3130354C15
:1002D000000000000000000000000000000000001E
:1002E000000000000000000000000000000000000E
:1002F00000000000000000000000000000000000FE
:1003000000000000000000000000000000000000ED
:1003100000000000000000000000000000000000DD
:1003200000000000000000000000000000000000CD
:1003300000000000000000000000000000000000BD
:1003400000000000000000000000000000000000AD
:10035000000000000000000000000000000000009D
:10036000000000000000000000000000000000008D
:100370000001010101010100010101010000000073
:100380000000000000000000000001000100010169
:10039000010101010101010101010101010101014D
:1003A0000101010101010101010101000000010140
:1003B000000000000000000000000000000000003D
:1003C0000000000000000000000000010101010029
:1003D000040330000000420358004400360034009B
:1003E000200033002E00300020004E004900430062
:1003F0004F004C00410020004A00500020004F00F8
:1004000079006100790075006200690020005300E6
:10041000680069006600740000000C035800490081
:1004200055004400490000000403090409023B0090
:10043000020100A0FA0904000001030101000921E2
:10044000110100012240000705810308000A090488
:1004500001000103000000092111010001223B00FD
:100460000705820320000A1201100100000008EDB8
:10047000FE636301000102030105010906A1018574
:1004800005050719E029E715002501950875018183
:10049000020507190029EF1500250195F075018166
:1004A0000205081901290595057501910295017547
:1004B000039101C005010906A101050719E029E71B
:1004C00015002501950875018102950175088101C6
:1004D0000507190029FF150026FF009506750881FC
:1004E0000005081901290595057501910295017509
:1004F000039101C011241FBECFEFDAE0DEBFCDBFF4
:1005000004B603FE27C08091490490914A04A0914B
:100510004B04B0914C048730904BA740B04BD1F4C2
:100520001092490410924A0410924B0410924C0409
:1005300014BE84B7877F84BF0FB6F894A8958091C6
:100540006000886180936000109260000FBEE0E060
:10055000F8E3099513E0A0E0B1E0ECE2F0E502C0B9
:1005600005900D92AA31B107D9F724E0AAE1B3E0D2
:1005700001C01D92A934B207E1F70E94C5210C9475
:1005800062270C9400008093260383EB94E00C9484
:100590001A0B8091270308951092240310921B03D5
:1005A00010921A03089581E0809327030E94CC02E1
:1005B000809126030C94CD1A109227030E94CC023E
:1005C000809126030C94EE1A209127032223F9F040
:1005D000805E91090897D8F480912503FB019281F0
:1005E000992361F0811104C0809126030E94EE1AC4
:1005F000809125038F5F8093250308958150809318
:100600002503811104C0809126030C94CD1A08950E
:10061000E0912203F0912303E850FD45EE32F1050D
:1006200008F08FC0EC59F84D0C941A278DE091E03A
:100630000C949A0C86EC91E0FBCF8FE091E0F8CF20
:1006400081E191E0F5CF83E191E0F2CF85E191E0A6
:10065000EFCF87E191E0ECCF89E191E0E9CF86E44B
:1006600091E0E6CF8BE191E0E3CF8DE191E0E0CF47
:100670008FE191E0DDCF87E291E0DACF89E291E08E
:10068000D7CF8CE291E0D4CF8FE291E0D1CF82E35B
:1006900091E0CECF85E391E0CBCF88E391E0C8CF66
:1006A0008BE391E0C5CF88E792E0C2CF8EE391E083
:1006B000BFCF88E491E0BCCF8AE491E0B9CF8CE46D
:1006C00091E0B6CF84E892E0B3CF86E591E0B0CF79
:1006D00089E591E0ADCF8CE591E0AACF8FE591E07F
:1006E000A7CF82E691E0A4CF85E691E0A1CF88E68E
:1006F00091E09ECF8EE792E09BCF8BE691E098CF82
:100700008EE691E095CF82E791E092CF8CE791E081
:100710008FCF8FE791E08CCF82E891E089CF85E899
:1007200091E086CF88E891E083CF8BE891E080CF9D
:100730008EE891E07DCF81E991E07ACF84E991E084
:1007400077CF08958091200390912103892B21F088
:1007500086E991E00C949A0C089580912003909181
:10076000210386332DE5920709F090C0E091220322
:10077000F0912303E850FD45EE32F10508F0F2C098
:10078000EE56F84D0C941A2788E991E00C949A0CD7
:1007900088EA91E0FBCF82EB91E0F8CF82EC91E028
:1007A000F5CF84EC91E0F2CF88EC91E0EFCF80EDD3
:1007B00091E0ECCF8AED91E0E9CF80E791E0E6CFE0
:1007C00084EE91E0E3CF86EE91E0E0CF80EF91E020
:1007D000DDCF88EF91E0DACF87E892E0D7CF8BEFDB
:1007E00091E0D4CF8EEF91E0D1CF82E092E0CECFF6
:1007F00085E092E0CBCF88E092E0C8CF8BE092E03A
:10080000C5CF8EE092E0C2CF81E192E0BFCF8CE411
:1008100091E0BCCF84E192E0B9CF82E292E0B6CF22
:1008200087E192E0B3CF8AE192E0B0CF8EE192E02F
:10083000ADCF81E292E0AACF84E292E0A7CF87E237
:1008400092E0A4CF8AE292E0A1CF8EE691E09ECF23
:100850008DE292E09BCF8DE191E098CF80E392E032
:1008600095CF8FEF91E092CF83E392E08FCF86E335
:1008700092E08CCF89E392E089CF8CE392E086CF3F
:100880008FE392E083CF82E492E080CF87339D456F
:1008900009F068C0E0912203F0912303E850FD4580
:1008A000EE32F10508F05EC0E054F84D0C941A27C2
:1008B00084E492E06BCF87E492E068CF8AE492E030
:1008C00065CF8DE492E062CF84E792E05FCF80E570
:1008D00092E05CCF83E592E059CF86E592E056CF77
:1008E00089E592E053CF8CE592E050CF8EE592E01F
:1008F0004DCF81E692E04ACF84E692E047CF87E68B
:1009000092E044CF8AE692E041CF8DE692E03ECF7E
:1009100080E492E03BCF80E792E038CF83E792E03B
:1009200035CF87E792E032CF8BE792E02FCF8DE78C
:1009300092E02CCF80E892E029CF83E892E026CFA6
:1009400086E892E023CF89E892E020CF8BE192E025
:100950001DCF8CE892E01ACF8FE892E017CF82E9A2
:1009600092E014CF089580911A0390911B03892B74
:1009700049F480912403823071F028F4813041F0F1
:100980001092240308958530D8F70E94AD03F8CF64
:100990000E940803F5CF0E94A203F2CFEF92FF92CC
:1009A0000F931F93CF93DF938C017B0181E090E045
:1009B00090931B0380931A030E94C01EEC01F70161
:1009C000F280980128503D45FF2009F48EC08091A7
:1009D00024032E32310508F042C08230E1F1E8F400
:1009E000882309F1813009F1109323030093220336
:1009F000D0931F03C0931E0380E699E00E94320B40
:100A0000F12C10921B0310921A038F2DDF91CF91BE
:100A10001F910F91FF90EF900895833049F084303B
:100A200019F70E94AD0381E017C00E940803DCCFD4
:100A300080911C0390911D0320911E0330911F0390
:100A4000AC01421B530BFE01E81BF90B4E175F076D
:100A500040F30E94080384E080932403C5CF9801EB
:100A600026533D452230310590F5823049F168F436
:100A7000882311F1813049F1109321030093200361
:100A8000D0931D03C0931C03B7CF833099F08430FB
:100A900099F780911E0390911F0320911C033091C0
:100AA0001D03AC01421B530BFE01E81BF90B4E1753
:100AB0005F0748F40E94AD0382E080932403DCCFFB
:100AC0000E94A203D9CF0E94A20383E0F6CF823016
:100AD00009F44CC028F48130E1F01092240391CF46
:100AE0008530D8F70E94AD03F8CF2033310508F0E8
:100AF0006EC080912403823089F170F4813009F056
:100B000080CF80912203909123038017910709F0F1
:100B100078CF0E940803E1CF833059F1843009F087
:100B200070CF80912003909121038017910709F0E5
:100B300049C080911E0390911F03C81BD90B2091BF
:100B40001C0330911D03821B930B8C179D0750F2E1
:100B5000649740F60E94A20381E028C080912003A0
:100B6000909121038017910709F04BCF0E94A203B7
:100B7000B4CF809122039091230380179107C9F489
:100B800080911C0390911D03C81BD90B20911E035B
:100B900030911F03821B930B8C179D0708F4A2CF83
:100BA000649708F09FCF0E94080382E0809324039B
:100BB00028CF80912003909121038017910709F09D
:100BC00020CF90CF8091220390912303F6CFFF2472
:100BD000F39417CFCF93FB018C332DE5920709F4E3
:100BE000A6C208F062C088332DE5920709F416C149
:100BF00028F5813E910509F4C4C0853E910509F4AC
:100C0000E8C080914203882329F085EE0E941714E2
:100C10001092420380914103882329F081EE0E94C3
:100C2000A11310924103C0914003CC2309F4CFC01B
:100C300085EE0E94A11310924003B2C0C2818A3394
:100C40002DE5920709F4DEC108F463C1CC2309F451
:100C50004EC280912903811105C080912803882309
:100C600009F42BC281E080932D03809141038823F6
:100C700029F081EE0E94A11310924103809140035C
:100C8000882329F085EE0E94A113109240038091E1
:100C90004E03882319F084E30E94171484E30E9412
:100CA000A11381E080934E03E6C080342DE59207C6
:100CB00009F48FC3B8F5C2818E332DE5920709F48C
:100CC000EDC208F490C2CC2309F459C380912903E2
:100CD000811105C080912803882309F447C381E06E
:100CE0008093310380914103882329F081EE0E9493
:100CF000A1131092410380914003882329F085EECF
:100D00000E94A1131092400380914D03882319F093
:100D100083E30E94171483E30E94A11381E0809370
:100D20004D03A9C082342DE5920709F40FC408F4DD
:100D3000ACC383349D4509F064CF8281882309F4D4
:100D400059C480912903811105C08091280388230B
:100D500009F447C481E080933403809141038823E0
:100D600029F081EE0E94A11310924103809140036B
:100D7000882309F4EDC085EE0E94A1131092400370
:100D8000E7C0C281CC2379F080914203882329F007
:100D900085EE0E9417141092420381E0809329038C
:100DA0008C2FCF91089580914103882329F081EE03
:100DB0000E94A1131092410380914003882329F0DF
:100DC00085EE0E94A1131092400310922903C1E006
:100DD000E7CFC281CC2369F080914203882329F0B8
:100DE00085EE0E9417141092420381E0809328033D
:100DF000D7CF80914103882329F081EE0E94A1136F
:100E00001092410380914003882329F085EE0E94CF
:100E1000A1131092400310922803D9CFC281CC2392
:100E200009F445C080912903811104C090912803E1
:100E3000992319F1C1E0C0932A03882329F081EE98
:100E40000E941714C093410380912803882331F036
:100E500085EE0E94171481E08093400380914C033B
:100E6000882319F08FE20E9417148FE20E94A113C9
:100E700081E080934C03C0E093CF81E08093350301
:100E800080914203882329F085EE0E941714109266
:100E9000420380914303882319F08FE10E941714C5
:100EA0008FE10E94A11381E080934303E4CF8091FE
:100EB0002A038823E9F010922A0380914C038823A7
:100EC00019F08FE20E94171410924C038091410395
:100ED000882329F081EE0E94A11310924103809192
:100EE0004003882329F085EE0E94A113109240034D
:100EF00080913503882309F4BECF10923503809189
:100F00004303882319F08FE10E94171410924303C2
:100F100047CFCC2309F444C080912903811104C038
:100F200090912803992311F1C1E0C0932B038823EA
:100F300029F081EE0E941714C09341038091280389
:100F4000882331F085EE0E94171481E080934003DE
:100F500080914A03882319F08EE20E9417148EE2D2
:100F60000E94A11381E080934A0385CF81E08093A2
:100F7000360380914203882329F085EE0E941714DE
:100F80001092420380914403882319F083E20E9467
:100F9000171483E20E94A11381E0809344036BCF76
:100FA00080912B038823E9F010922B0380914A0350
:100FB000882319F08EE20E94171410924A03809140
:100FC0004103882329F081EE0E94A113109241036E
:100FD00080914003882329F085EE0E94A11310928E
:100FE000400380913603882309F445CF10923603DD
:100FF00080914403882319F083E20E941714109211
:101000004403CECECC23C9F180912903811104C0C1
:10101000809128038823B9F081E080932C0380918C
:101020004103882329F081EE0E94A113109241030D
:1010300080914003882309F4A5CF85EE0E94A11377
:10104000109240039FCF81E0809337038091420349
:10105000882329F085EE0E94171410924203809194
:101060004503882319F084E20E94171484E20E9449
:10107000A11381E080934503FECE80912C03882349
:1010800059F010922C0380914403882319F083E2D5
:101090000E9417141092440380913703882309F4A7
:1010A000EACE1092370380914503882319F084E239
:1010B0000E9417141092450373CE81E08093380389
:1010C00080914203882329F085EE0E941714109224
:1010D000420380914603882319F085E20E94171489
:1010E00085E20E94A11381E080934603C4CE8091E3
:1010F0002D03882359F010922D0380914E038823ED
:1011000019F084E30E94171410924E038091380363
:10111000882309F4B0CE10923803809146038823C7
:1011200019F085E20E9417141092460339CEC2814D
:10113000CC23C9F180912903811104C08091280337
:101140008823B9F081E080932E03809141038823A6
:1011500029F081EE0E94A113109241038091400377
:10116000882309F4B6CF85EE0E94A11310924003A4
:10117000B0CF81E08093390380914203882329F026
:1011800085EE0E9417141092420380914703882332
:1011900019F086E20E94171486E20E94A11381E0F2
:1011A0008093470368CE80912E03882359F01092D4
:1011B0002E0380914603882319F085E20E941714BC
:1011C0001092460380913903882309F454CE10927B
:1011D000390380914703882319F086E20E9417148F
:1011E00010924703DDCDCC23C9F1809129038111F1
:1011F00004C0C0912803CC23B9F081E080932F0371
:1012000080914103882329F081EE0E94A11310925E
:10121000410380914003882309F4B7CF85EE0E94F3
:10122000A11310924003B1CF81E080933A038091E3
:101230004203882329F085EE0E941714109242037E
:1012400080914803882319F087E20E94171487E2EF
:101250000E94A11381E080934803A2CD80912F03C7
:10126000882359F010922F0380914703882319F0A7
:1012700086E20E9417141092470380913A03882354
:1012800009F4F9CD10923A0380914803882319F0AC
:1012900087E20E9417141092480382CDCC2309F4F0
:1012A00045C080912903811104C0809128038823BF
:1012B00019F181E08093300380914103882329F064
:1012C00081EE0E94A1131092410380914003882374
:1012D00029F085EE0E94A1131092400380914F03E4
:1012E000882319F087E80E94171487E80E94A11349
:1012F00081E080934F03BFCD81E080933B038091D9
:101300004203882329F085EE0E94171410924203AD
:1013100080914903882319F08DE20E9417148DE211
:101320000E94A11381E080934903A5CD80913003F1
:10133000882359F01092300380914F03882319F0CD
:1013400087E80E94171410924F0380913B03882373
:1013500009F491CD10923B0380914903882319F041
:101360008DE20E941714109249031ACDC1E0C09378
:101370003C0385EE0E94A113C0934203C9CF809124
:101380003103882359F01092310380914D03882353
:1013900019F083E30E94171410924D0380913C03CF
:1013A000882309F468CD10923C0380914903882377
:1013B00019F08DE20E9417141092490380914203A4
:1013C000882309F458CD85EE0E9417141092420329
:1013D00052CDC281CC23C9F180912903811104C06F
:1013E00080912803882319F181E080933203809152
:1013F0004103882329F081EE0E94A113109241033A
:1014000080914003882329F085EE0E94A113109259
:10141000400380914B03882319F089E80E94171438
:1014200089E80E94A11381E080934B0324CD81E0E1
:1014300080933D0380914203882309F44FCF85EECA
:101440000E9417141092420349CF809132038823DF
:1014500059F01092320380914B03882319F089E8E8
:101460000E94171410924B0380913D03882309F4C6
:1014700002CD10923D0380914F03882319F087E835
:101480000E94171410924F038BCCC281CC2361F1C0
:1014900080912903811104C0909128039923B1F010
:1014A000C1E0C0933203882329F081EE0E94171413
:1014B000C093410380912803882309F4E8CB85EE8B
:1014C0000E94171481E080934003E1CB81E0809378
:1014D0003D0380914203882309F416CC85EE0E94D7
:1014E00017141092420310CC809132038823E9F044
:1014F0001092320380914E03882319F084E30E94F6
:10150000171410924E0380914103882329F081EE35
:101510000E94A1131092410380914003882329F077
:1015200085EE0E94A1131092400380913D03882311
:1015300009F4A1CC10923D0380914D03882319F04A
:1015400083E30E94171410924D032ACC82818823D2
:1015500041F180912903811104C0809128038823DF
:10156000B9F081E08093330380914103882329F00F
:1015700081EE0E94A11310924103809140038823C1
:1015800009F487CC85EE0E94A1131092400381CC10
:10159000C1E0C0933E0385EE0E94A113C0934203B5
:1015A0005ECD80913303882359F0109233038091EC
:1015B0004303882319F08FE10E941714109243030C
:1015C00080913E03882309F456CC10923E0380910B
:1015D0004503882319F084E20E94171410924503F2
:1015E000EDCEC1E0C0933F0385EE0E94A113C093EE
:1015F000420334CC80913403882359F01092340391
:1016000080914A03882319F08EE20E9417141092E9
:101610004A0380913F03882309F42DCC10923F03A5
:1016200080914C03882319F08FE20E9417141092C6
:101630004C03C4CEF89490935103809350031092BE
:10164000800085E0809381001092820010928500D6
:10165000109284008FEF9FEF909389008093880011
:1016600078940895F89410928500109284009093D5
:1016700089008093880082E080936F0078940895B9
:101680001F920F920FB60F9211242F933F934F93F7
:101690005F936F937F938F939F93AF93BF93EF93DA
:1016A000FF93E0915003F09151030995FF91EF9161
:1016B000BF91AF919F918F917F916F915F914F916A
:1016C0003F912F910F900FBE0F901F901895229A67
:1016D0002A98089522982A980895CF93C82F81FFB9
:1016E00006C00E94670B8C2FCF910C94A70C0E9410
:1016F0006A0BF9CF81E00C94C3020F931F93CF9331
:10170000DF93EC018B01C4348DE5D80781F0C5343B
:10171000EDE5DE0701F10E94C90281112BC0B8017D
:10172000CE01DF91CF911F910F910C94EA05FB013F
:101730008281882351F085E992E00E949A0C89E920
:1017400092E00E949A0C0E94DC0280E0DF91CF912F
:101750001F910F910895FB0182818823B1F38DE9D8
:1017600092E00E949A0C81EA92E00E949A0C0E94F8
:10177000D302EBCFB801CE010E94E402B801CE0142
:101780000E94CE048111CBCFE0CF81E008950C946C
:101790007D0B1F93CF93DF9300D000D00F92CDB776
:1017A000DEB749835A836B8320916A0389819A81CA
:1017B00021111BC06623A9F00E94BD1B182F682FA2
:1017C00089819A810E94691B69817A81812F0F909A
:1017D0000F900F900F900F90DF91CF911F910C946D
:1017E000030D0E94951B182FEFCF0E94BD1B69812E
:1017F0007A81EDCFFC0140815181628173818481C6
:101800000C94C90B1F93CF93DF9390E0FC01E05B36
:10181000FD4F1491FC01E05BFC4FD49180539D4F30
:10182000FC01C491DD2319F081EE0E94A113CC23A9
:1018300019F086EE0E94A113812F0E946614CC231A
:1018400019F086EE0E941714DD2331F081EEDF914E
:10185000CF911F910C941714DF91CF911F91089590
:10186000EF92FF920F931F93CF93DF93EC01162F0C
:101870000AE08881882309F456C0813009F050C0FD
:101880008981813061F47E0122E0E20EF11CCA817F
:101890008C2F0E94A1138C2F0E94171409C0823034
:1018A00099F47E0182E0E80EF11C8A810E94A11366
:1018B000E7012196812F8150E0F2EFE9FFE03197B7
:1018C000F1F700C00000F7CF833031F47E01E2E091
:1018D000EE0EF11C8A81E0CF843011F02196E9CF21
:1018E0002A81229690E080E0AE014F5F5F4F205347
:1018F000330B2A30310548F00197D8F2EFE9FFE0C9
:101900003197F1F700C00000F7CF089FB001099FA1
:10191000700D1124C901860F971F2981EA01E4CFB8
:101920000E94020CC6CFDF91CF911F910F91FF90C3
:10193000EF90089560E00C94300C0E94011D81111D
:1019400002C00E94A81D0C94050F0C94080F089566
:1019500081E008950C94A80CCF93C82F0E946D0BC2
:101960008C2FCF910C94AA0C08950E94A9160E9466
:10197000B40C2FEF84E39CE0215080409040E1F7CD
:1019800000C000000C941A1F0F931F93CF93DF9396
:10199000EC010E94FA0B8C01BE010E94C70B882348
:1019A00029F1BE01C8010E94BF108823F9F0BE01D1
:1019B000C8010E9400118823C9F0BE01C8010E941D
:1019C0002312882399F08A81882339F001158CE548
:1019D000180751F00E3D1C4579F0CE01DF91CF91F3
:1019E0001F910F910C94C50B0E94B50C80E0DF9104
:1019F000CF911F910F9108950E94A81DF7CF90E0FD
:101A000080E008950895972F70E02EE0929F600D7A
:101A1000711D1124FB0196E4899FE00DF11D112435
:101A2000EE0FFF1FE455FF4F859194910895FC013F
:101A3000EE0FFF1FE053FC4F859194910895CF93D3
:101A4000DF930E94030D0E942B0EEC01811520E50F
:101A5000920708F041C0811530E4930708F0B4C044
:101A6000803E910518F5803C910508F09DC0883AAC
:101A7000910570F4853A910508F08EC0813091058A
:101A8000F9F00097E9F00497D8F4D0E0C0E018C06E
:101A90008F3B9105D0F7C85AD0E0CC0FDD1FCB5556
:101AA000DD4F0990D881C02DD4640AC081159042C1
:101AB00058F4C11581E0D80718F4C83ED10528F7BD
:101AC000CE01DF91CF910895C11590E3D90708F0B9
:101AD00071C0CE019F706AC0811525E5920758F547
:101AE000811534E5930708F09EC0811542E59407FF
:101AF00050F4C11581E5D80708F469C0DC2FCC2764
:101B0000C16FD06ADDCF982F969596959E01237070
:101B10003327C115D34508F077C0C1E0D0E002C03B
:101B2000CC0FDD1F2A95E2F720E2929FC00111241D
:101B3000C82BD92B67C0C11589E5D807A8F4C115F2
:101B400098E5D90708F074C0C11526E5D20708F05A
:101B50009CCF8C2F0E94C20EC82FD0E0DC2FCC2748
:101B6000CC27DF71D062ACCFC1153AE5D30708F4BA
:101B700064C0CE0190568115904208F086CF8D2F1B
:101B80008F710E94C20E90E0982F882788279F713E
:101B90009C012C2BE901E6CFC55AD0E0CD52DD4F98
:101BA000C881D0E0D0648CCF805C91090E94170D71
:101BB000EC0186CFCE019927D3FF03C0EC01D86C8E
:101BC0007FCFEC01D06C7CCFDF70D06A79CFCE01B3
:101BD000E4E096958795EA95E1F783702C2F26959A
:101BE0002695237090E2299F90011124382B8C2F89
:101BF0008370C1E0D0E002C0CC0FDD1F8A95E2F710
:101C0000C22BD32BDC685CCFC1E0D0E002C0CC0F8C
:101C1000DD1F2A95E2F730E2939FC0011124C82B03
:101C2000D92BDA684DCFD82FCC27C46FD06A48CFD4
:101C3000DC2FCC27C06FD06A43CF8C2F8F700E94CF
:101C4000C20E34E0D695C7953A95E1F7CF709C2F38
:101C5000EC01D06935CF82389105B1F1B0F4813310
:101C6000910509F475C048F48932910509F469C0F9
:101C70008A32910509F473C008958533910509F4FA
:101C800059C08933910501F10895833E9105A9F169
:101C900038F4803E9105F9F0823E910549F10895AE
:101CA000863E9105A9F1873E9105C9F1843E9105D3
:101CB00019F520913B0421FF1FC080913A0484FD57
:101CC00014C087EE90E0089520913A042370A1F0AB
:101CD00080EE90E0089520913A0420FD47C03091B5
:101CE0003B0430FF09C024FF44C090E080E004C002
:101CF00020913A0422FDF7CF089520913A0422FD65
:101D00003BC030913B0430FDE3CF24FFF5CFEDCF56
:101D100020913A0423FFF0CF24FDE7CFD2CF2091CA
:101D20003A0423FD2CC030913B0431FFEECF84EE0A
:101D300090E0089520913A0425FFDECF89E290E0FB
:101D4000089520913A0425FFD7CF85E390E00895C8
:101D500020913A0426FFD0CF8AE290E008952091A6
:101D60003A0426FFC9CF81E390E0089589E390E02B
:101D7000089583EE90E0089582EE90E0089586EE57
:101D800090E0089590913A0492FF06C0282F2871A0
:101D90002830F9F4877F846093FF06C0282F2871CC
:101DA0002831F1F4877E846120913B0420FF06C036
:101DB000382F38713830D9F4877F816021FF06C011
:101DC000282F28712831D1F4877E816194FD877E88
:101DD0000895282F24712430F9F68B7F8860DCCF9A
:101DE000282F2471243101F78B7E8861DDCF382FB5
:101DF0003171313019F78E7F8860E0CF282F217143
:101E0000213121F78E7E8861E1CF0C947A0B089501
:101E10000C94070FE82FF0E0EE0FFF1FE45DFB4F7F
:101E2000808191810895089580EA8A95F1F7089557
:101E3000CF93DF93A4EEB2E049EE52E0C1E0D0E0F0
:101E40008D91E82FE295EF70F0E061A18F709E0117
:101E500001C0220F8A95EAF7922F9095962391A3BD
:101E600082A1822B82A34A175B0751F7A6EDB2E04D
:101E700061E070E08D91E82FE295EF70F0E041A114
:101E80008F709B0101C0220F8A95EAF7922F9095DF
:101E9000942391A382A1822B82A382E0A43EB8075F
:101EA00049F7109223041092220410922D041092EC
:101EB0002C04109225041092240410922F041092E6
:101EC0002E041092270410922604109231041092CE
:101ED00030041092290410922804109233041092B6
:101EE000320410922B0410922A041092350410929E
:101EF000340485E00E941810DF91CF910C949D0C62
:101F00004F925F926F927F928F929F92AF92BF9209
:101F1000CF92DF92EF92FF920F931F93CF93DF93B5
:101F200002E214E094EEC92E92E0D92E912CAA245C
:101F3000A394B12CD8016D907C90F801119211926C
:101F40008F01D6018D916D01C82FC295CF70D0E061
:101F500099A18F70750101C0EE0C8A95EAF7892F5F
:101F60008E2989A38AA18E2C809488218AA30E941D
:101F7000140F86ED482E82E0582E30E020E0F80164
:101F80003297D2016D912D01862F82958F7090E04E
:101F9000DC0190968C914081518190E06F7002C07D
:101FA000959587956A95E2F780FD3FC0C501022EA1
:101FB00002C0880F991F0A94E2F7842B952B918316
:101FC00080832F5F3F4F2E303105D9F689A18822BB
:101FD00089A28AA1E82AEAA281E02081318126151E
:101FE000370509F480E0982AB4E00C321B0709F0A9
:101FF000A1CF292D45E06CE274E082E294E00E94DA
:1020000019100E94A50C892DDF91CF911F910F917E
:10201000FF90EF90DF90CF90BF90AF909F908F9008
:102020007F906F905F904F90089590E080E0C5CFD3
:102030000895FF920F931F93CF93DF93F82E092FEC
:10204000162FD72FC42F222349F081E08093540309
:102050000E94C01E909353038093520380915403B7
:102060008823A1F080915203909153030E94CC1ECB
:10207000069760F0EF2DF02FA12FBD2F90E080E0AC
:10208000D0E08C179D0744F010925403DF91CF915C
:102090001F910F91FF900895219131912D933D93C0
:1020A0000196EFCF0F931F93CF93DF93C62FD42FBB
:1020B000022FFC0182818823C9F0609357030E949C
:1020C000C01E909356038093550380E28C0F883096
:1020D00008F050C0C77081E001C0880FCA95EAF7C8
:1020E000DF91CF911F910F910C94791410915703A8
:1020F000161335C080915503909156030E94CC1E53
:10210000883C910560F5C0E2CD0F1D17B9F080E263
:10211000810F883040F4177081E001C0880F1A9554
:10212000EAF70E948014C83048F481E09D2F977030
:1021300001C0880F9A95EAF70E947914802F0E94B7
:102140006614C830B8F4D77081E001C0880FDA9502
:10215000EAF7DF91CF911F910F910C94801480E2E8
:102160008C0F883038F4C77081E001C0880FCA95A1
:10217000EAF7EFCFDF91CF911F910F9108959C0166
:10218000CB01233F4CE5340731F190F4283DFCE5C9
:102190003F07E9F0293D4CE5340769F1273D3C450F
:1021A00079F426E241EE61EE0E94521080E008953B
:1021B000253FFCE53F07B9F090F0263F3C45B9F0DC
:1021C000FC0182818823D1F010925703089527E201
:1021D00045EE65EEE9CF26E241EE60EEE5CF27E27F
:1021E00045EE64EEE1CF26E241EE62EEDDCF27E27E
:1021F00045EE66EED9CF28E241E0EBCF81E00895CD
:10220000CF93DF93EC01FB018281882309F419C18C
:10221000C230FCE5DF07C0F1C6319CE5D90730F0DC
:102220009E012A5F3C452930310570F50E941E1D34
:1022300090933B0480933A04C031ECE5DE0709F447
:10224000CFC008F05BC0C8308CE5D80709F4B6C031
:1022500088F5C430ECE5DE0709F4A8C0C0F4C2304C
:102260008CE5D80709F49CC080913A048260C330A1
:10227000DC4509F498C080913A0490913B040E9497
:102280002C1D0E94A91680E0DF91CF9108958091C6
:102290003A048061C630ECE5DE0709F484C0809121
:1022A0003A048860C730DC4508F47DC080913A0468
:1022B000806279C0CC308CE5D80709F489C070F40D
:1022C00080913A048C60CA30ECE5DE0709F46BC0FB
:1022D00008F478C080913A048E7F65C0CE308CE5DA
:1022E000D80709F479C080913A048B7FCF30DC4560
:1022F00008F459C080913A048F7E55C0CB3FECE57D
:10230000DE0709F457C030F5C3318CE5D80709F46E
:102310006FC078F4C131ECE5DE0709F465C0C23165
:10232000DC4509F0A8CF0E94A91680913A048F7766
:102330003AC0C5318CE5D80709F462C008F476C00C
:1023400080913B048160CA3FDC4509F094CF8093C3
:102350003B0491CFCF3FFCE5DF0709F44DC088F483
:1023600080913B048D7FCD3F9CE5D90781F380911F
:102370003B048E7FCE3FDC4550F380913B0483606D
:10238000E6CFC130FDE5DF0709F459C008F444C0C9
:1023900080E0C230DD4509F06ECF0E94AA1D6BCFF0
:1023A00080913A04816080933A0465CF80913A0429
:1023B0008460F9CF80913B048260C9CF80913A0458
:1023C0008064F1CF0E94A91680913A048068EBCF17
:1023D00080913A048D7FE7CF80913A04877FE3CFE5
:1023E00080913A048F7DDFCF80913A048F7BDBCFE1
:1023F00080913A04837FD7CF80913B048C7FA7CF15
:1024000080913A0482FB992790F921E0922790FB72
:1024100082F990FB83F9C7CF80913B04982F909568
:1024200091708E7F892B90FB81F991CF0E94A91624
:1024300090913A04892F97FB87F98058B4CF81E0B7
:10244000ACCF81E021CFCF93DF93EB0186319C4568
:1024500011F50E94521C9A81992399F08A7A91E091
:1024600009F490E090935803811109C089E20E9419
:102470002D1C0E949E1C80E0DF91CF91089585E382
:10248000F6CF80915803811104C089E20E94341C68
:10249000F0CF85E3FBCF81E0EFCF90935E03809395
:1024A0005D030895E0915D03F0915E03309721F0A4
:1024B0000190F081E02D099480E00895E0915D03A2
:1024C000F0915E03309799F020910C01222359F08E
:1024D00020913A0427FF07C0DC012C9111962C9320
:1024E000119725E02C930280F381E02D0994089543
:1024F00020915B0330915C032817390771F09093AA
:102500005C0380935B03E0915D03F0915E03309781
:1025100021F00680F781E02D099408952091590358
:1025200030915A032817390771F090935A0380931A
:102530005903E0915D03F0915E03309721F0008430
:10254000F185E02D0994089585B7806885BF85B72A
:10255000806885BF0895089508950C94AB1208957E
:102560000C94AF120E94A4120E94AC120C94AD12F3
:1025700081E008950E94B71E0E94180F0E94891FD3
:102580000C94B0127F928F929F92AF92BF92CF9293
:10259000DF92EF92FF920F931F93CF93DF93CDB70C
:1025A000DEB72A970FB6F894DEBF0FBECDBF0E94EC
:1025B000800F0E94B812882309F46FC040E6A42E51
:1025C00043E0B42E10E000E0702E802F0E940A0F2E
:1025D0006C01F501819091905F018816990609F4CC
:1025E00056C08091FD0381FD0E94130F80E0EE2410
:1025F000E394F12C8C249D2494012E213F21232B44
:1026000009F43FC08E837F82CE20DF2081E0CD2879
:1026100009F480E088870E94C01E8160782F9A8725
:1026200089874E815F8168858A850E947213000FB9
:10263000111FF801E05AFC4F80819181E826F926AC
:10264000F182E0820E94521290915F038917B1F1EA
:102650000E94521280935F032A960FB6F894DEBF51
:102660000FBECDBFDF91CF911F910F91FF90EF90E3
:10267000DF90CF90BF90AF909F908F907F900C9401
:10268000AC0C8F5FEE0CFF1C8E3009F0B5CF0F5FE6
:102690001F4F0530110509F097CF8FEF89838A838B
:1026A0001B820E94C01E8160782F9D838C8349818C
:1026B0005A816B818D810E947213C4CF2A960FB606
:1026C000F894DEBF0FBECDBFDF91CF911F910F9168
:1026D000FF90EF90DF90CF90BF90AF909F908F9042
:1026E0007F900895CF93DF93CDB7DEB72B970FB6CA
:1026F000F894DEBF0FBECDBF4F83588769877A87B6
:102700008B871E821D8285E0FE013796DE011196C1
:1027100001900D928A95E1F749815A816B817C8104
:102720008D819E812B960FB6F894DEBF0FBECDBF74
:10273000DF91CF910C944919FC01808191810C9417
:10274000FF1B882309F472C08238B9F40E94521228
:1027500081FD6CC089E30E942D1C0E949E1C2FEFFE
:1027600081EE94E0215080409040E1F700C00000ED
:1027700089E30E94341C0C949E1C8338A1F40E94AF
:10278000521280FD53C083E50E942D1C0E949E1CA6
:102790002FEF81EE94E0215080409040E1F700C09F
:1027A000000083E5E6CF8438A1F40E94521282FD36
:1027B0003DC087E40E942D1C0E949E1C2FEF81EEDD
:1027C00094E0215080409040E1F700C0000087E491
:1027D000D0CF9CEF980F913A18F40E942D1CCBCFCC
:1027E00090E2980F983050F4E82FE77081E001C034
:1027F000880FEA95EAF70E94551CBDCFEBE5E80F7C
:10280000E33038F4F0E0E95EFC4F808190E00C9416
:102810007812885A873150F4E82FF0E0EE0FFF1F4E
:10282000E751FD4F808191810C948E120895882389
:1028300009F44BC0823871F40E94521281FF45C0E6
:1028400089E30E942D1C0E949E1C89E30E94341C77
:102850000C949E1C833859F40E94521280FF35C09C
:1028600083E50E942D1C0E949E1C83E5EFCF8438D7
:1028700059F40E94521282FF28C087E40E942D1C46
:102880000E949E1C87E4E2CF9CEF980F913AF0F2F1
:1028900090E2980F983050F4877091E001C0990F42
:1028A0008A95EAF7892F0E945B1CD2CF9BE5980F8F
:1028B000933020F490E080E00C947812885A8731AD
:1028C00020F490E080E00C948E120895CF93C82FEE
:1028D0000E94A113C93349F42FEF87EE93E02150F2
:1028E00080409040E1F700C000008C2FCF910C9405
:1028F0001714882321F00E94551C0C949E1C0895E7
:10290000882321F00E945B1C0C949E1C0895BF92AA
:10291000CF92DF92EF92FF920F931F93CF93DF93AB
:102920006C01D62FC72FFC01158112951F700281F3
:1029300001110E94721C0E944B1CE82E882371F02A
:102940000023B1F080E28D0F883090F082E00E9489
:10295000E91C0E944B1C91E0E82EE926BC2EB294A3
:102960009FE0B922EB2DF0E0E251F84D0C941A27CC
:10297000E12CF4CF1C2F1F70C07F11F01295107F37
:102980000023A9F0112359F080E28D0F883010F058
:10299000D11109C0812F0E94551C0E949E1C8D2FB1
:1029A0000E94A11314C0812F0E94651CF6CF8D2FA9
:1029B0000E941714112359F080E28D0F883010F017
:1029C000D1112CC0812F0E945B1C0E949E1C2B2DBC
:1029D0002850330B2430310520F40E9452120E94FB
:1029E000AC0CEE2009F477C10E94471C80FD73C136
:1029F000F60112820E94411C0E94CD1AC6010E945B
:102A000075160E94411CDF91CF911F910F91FF908D
:102A1000EF90DF90CF90BF900C94EE1A812F0E9420
:102A20006B1CD3CFFC2FFF70FF2EC07FC03219F07C
:102A3000F29480EFF822DD2369F0D13049F10023D0
:102A400091F1112351F1F601858180FFA8CF8F709C
:102A5000858323C0002381F0111106C00E94851CCC
:102A60008F290E947914B3CF1130C1F70E94851CC1
:102A70008F290E948B1CABCF111106C00E94941CA1
:102A80008F2D0E948014A3CF113009F4A0CFF6CF70
:102A9000002329F0163008F09ACF8F2DE2CF1530A1
:102AA00008F095CFEDCF112359F3D93349F4FFEF57
:102AB00027EE33E0F15020403040E1F700C0000045
:102AC0008D2F0E94171483CF8C2F837009F041C083
:102AD00001117DCF4D2F429546954770440F440F0D
:102AE0000D2F0F7010E030E020E0042E04C0000F26
:102AF000111F221F331F0A94D2F760E070E0CB0150
:102B0000D4FF0FC06FE070E080E090E004C0660F7B
:102B1000771F881F991F4A95D2F760957095809509
:102B20009095C695C695C370602B712B822B932B05
:102B3000C23049F058F4C13019F00E947F1A47CFD3
:102B40000E946D1A44CF0E94911A41CF0E946B1AC5
:102B50003ECF8695002311F08C2F8170882309F4D5
:102B600036CF4D2F429546954770440F440F0D2F99
:102B70000F7010E030E020E0042E04C0000F111FA1
:102B8000221F331F0A94D2F760E070E0CB01D4FF1C
:102B90000FC06FE070E080E090E004C0660F771F28
:102BA000881F991F4A95D2F76095709580959095EA
:102BB000C695C695C370602B712B822B932BC230A8
:102BC00049F058F4C13019F00E94441B00CF0E9414
:102BD000321BFDCE0E94561BFACE0E94A71AF7CEDA
:102BE000CF70002329F08C2F0E94CD1A8D2F39CF62
:102BF0008D2F0E9480148C2F0E94EE1AE8CED23FB7
:102C000089F160F4D03FC9F0D13F29F1002309F4E4
:102C100042C01111C4CE8C2F8F7121C0D33F39F126
:102C2000D43FA1F7002369F1CF718C2F0E94CD1AF8
:102C300063E08C2F0E94D41CCACE002341F01530D3
:102C400008F0C5CE8C2F8F710E94111BC0CE16309C
:102C500008F0BDCEF7CF8C2F8F71002369F20E9450
:102C6000CD1AB5CE8C2F8F710023C9F3C5CF0023A9
:102C700029F08C2F8F710E94B81AA9CE0E94B31A26
:102C8000A6CE81E00E94E91C123008F4A0CE82E0BA
:102C90000E94E91C9CCE112359F0D93309F010CFC2
:102CA0008FEF97EEE3E081509040E040E1F706CFF0
:102CB0008C2F8F71A1CF4C2F4F706D2FC6010E94AA
:102CC000FF0C0E94E31983CE4C2F4F706D2FC6016D
:102CD0000E94020D7CCEDF91CF911F910F91FF904A
:102CE000EF90DF90CF90BF9008950F931F93CF93F5
:102CF000DF93EC018B819C81892B29F0888199815C
:102D000089238F3F29F4DF91CF911F910F9108956F
:102D1000CE010E94C40C8823B1F3688179818A8135
:102D20000E94091C8C010E94681B0E946A1AB8014B
:102D3000CE01DF91CF911F910F910C9487140E94C7
:102D4000721C0E94821C0C949E1C0E943B1C0C94C2
:102D50009F160E94621C0C94A516E92FE295EF7055
:102D6000E250EE3070F4F0E0E250F84D0C941A2787
:102D7000803F19F020F4883E20F481E00895843FDC
:102D8000E1F380E00895883EC0F3813FD1F7F5CFAD
:102D900093FB882780F908950E94FF1B0C94AD16C1
:102DA000CF93DF9300D000D00F92CDB7DEB70F9056
:102DB0000F900F900F900F90DF91CF910895CF93C8
:102DC000DF9300D000D000D0CDB7DEB726960FB687
:102DD000F894DEBF0FBECDBFDF91CF9108951F9352
:102DE000CF93DF93C0916B0316E080916C038C133B
:102DF00004C0DF91CF911F910895D0E01C9FF00196
:102E00001D9FF00D1124E359FC4F408151816281D7
:102E10007381848195810E94DF162196C770E5CF6A
:102E200040919D0350919E0360919F037091A00378
:102E30008091A1039091A2030C94DF161F93CF936E
:102E4000DF938091A203807FC1F480919F03882348
:102E5000A1F080916B03C0916C0360919D03709110
:102E60009E034091A0035091A103D62FD723DA01EE
:102E7000A095B09516E0C81304C0DF91CF911F91C3
:102E8000089590E04115510511F0DF3F31F40196AE
:102E90008770F1CF2A0F3B1F17C0189FF001199FB1
:102EA000F00D1124E359FC4F21812713F0CF20812D
:102EB0002613EDCF22812111EACF238134812417FB
:102EC000350740F3241B350B283C310500F72091D2
:102ED000A2032F7020612093A20326E0289FF00117
:102EE000299FF00D1124EE58FC4F80818F70806176
:102EF00080838DE993E00E947516DF91CF911F9139
:102F00000C94EF16BF92CF92DF92EF92FF920F9345
:102F10001F93CF93DF93CDB7DEB761970FB6F894C9
:102F2000DEBF0FBECDBF8C0185E0F801DE011D962E
:102F300001900D928A95E1F7D8014C9111965C9120
:102F400011971296EC9012978091A0039091A10393
:102F5000009709F47FC120919D0330919E03622F59
:102F600063236F3F09F476C11396CD90DC90B09047
:102F70009F03BB2009F411C1C816D906D0F1F60190
:102F8000E81BF90BCF01FF24F394883C910508F06E
:102F9000F12C8091A203982F907FFF2009F4B8C0F4
:102FA00091117FC0FE2C351329C0241327C0E110D6
:102FB00025C08F7080618093A2030E9410178DE955
:102FC00093E00E9475168091A203D80115968C9308
:102FD0008F2D61960FB6F894DEBF0FBECDBFDF9187
:102FE000CF911F910F91FF90EF90DF90CF90BF9006
:102FF0000895809590958C0D9D1DC5CFCD2829F005
:10300000852F84238F3F09F041C180E0B82FB17034
:10301000DB2E80FF3CC080916B0320916C0336E077
:10302000821315C04D875E878D859E850E94FF1B8C
:10303000292F22952F702230F0F0243018F59F7040
:10304000F1F0F8019581907FD1F4D12C1EC090E071
:10305000389FF001399FF00D1124E359FC4F618135
:10306000651306C06081641303C06281E6120FC05D
:1030700001968770D5CF9F7011F0882331F3805E61
:10308000883018F3C8010E947516FD2CA1CFEE20E0
:1030900009F49ECF8091A20381608093A203F12C5A
:1030A00097CF351306C0241304C0D801EE2009F4CD
:1030B0009AC04D875E878D859E850E94CC16882399
:1030C00019F1EE2009F18091A203803270F0209175
:1030D0009D0330919E0338872F831986DB86CA862D
:1030E0008C87CE0107960E94751686E0F801ADE93F
:1030F000B3E001900D928A95E1F70E941E170E949D
:103100001017FF24F39464CFC8010E947516F9CFFD
:10311000911113C07C2DD98AC88A6E2D89890E948D
:10312000D0168DE993E00E94751686E0EDE9F3E094
:10313000DF011D928A95E9F763C0351312C024138D
:1031400010C0E1100EC0F8018583C8010E947516F9
:10315000EDE9F3E086E0DF011D928A95E9F7FB2CAB
:1031600037CF4D875E878D859E850E94CC1688233C
:1031700059F2EE2049F28091A203803208F4B5CFD3
:1031800020919D0330919E033A8329831B82DD8227
:10319000CC828E83CE010196A6CFC816D90698F1AF
:1031A000F601E81BF90BCF01F12C883C910508F0E2
:1031B00049C0FE2CEE2009F4A7CF351332C02413EA
:1031C00030C08091A20380FD23C0982F907F01F131
:1031D000D80115968C931597903F39F0982F907FD2
:1031E000905F8F70892B15968C93C8010E9475167D
:1031F00086E0F801ADE9B3E001900D928A95E1F720
:103200000E941017E5CE809590958C0D9D1DCCCF1A
:1032100086E0F801ADE9B3E001900D928A95E1F7FF
:10322000D7CE4D875E878D859E850E94CC168111F5
:103230005CCF8091A20381608093A203C8010E94A9
:103240007516C6CE7C2DD98AC88A6E2D89890E94B2
:10325000D0166BCFEE2009F457CF4D875E878D8552
:103260009E850E94CC16F82E882309F44DCF86E067
:10327000F801ADE9B3E001900D928A95E1F78DE98F
:1032800093E00E949C130E941E17BACF81E08E2506
:10329000BDCE1F93CF93DF93CDB7DEB72C970FB67C
:1032A000F894DEBF0FBECDBF4F83588769877A87FA
:1032B0008B879C87CE0107960E948217882369F02E
:1032C0008A859B85892B39F04F815885842F8523EA
:1032D0008F3F09F071C016E05FC086E0FE013796AF
:1032E000DE01119601900D928A95E1F78A859B8502
:1032F000892B89F388859F8189238F3F61F32091F2
:103300006C0330E0C90101968770992740916B03E7
:103310004817190671F40E94A91610926C031092B6
:103320006B0386E0EDE9F3E0DF011D928A95E9F792
:10333000D2CF96E0929FD001939FB00D1124A35954
:10334000BC4FFE01319601900D929A95E1F7809362
:103350006C030E94EF16BFCF819FC00111248359D7
:103360009C4F0E9482178823E9F0E0916B031E9F17
:10337000F0011124E359FC4F408151816281738136
:10338000848195810E94DF1680916B0390E0019605
:103390008770992780936B0380916B0390916C03E6
:1033A0008913DACF2C960FB6F894DEBF0FBECDBFCF
:1033B000DF91CF911F91089569857A858B859C85D2
:1033C0000E94DF1688CFEF92FF920F931F93CF9347
:1033D000DF938C01892B81F0F12CEE24E394E8013A
:1033E0002196F8018491843770F4843008F05FC02E
:1033F0008130B1F08230A1F1DF91CF911F910F9117
:10340000FF90EF900895853709F44CC008F43DC053
:103410009CE7980F903780F78F770E94171449C068
:103420000E5F1F4FFE01849190E2980F983060F478
:103430008770FE2D01C0FF0F8A95EAF78F2F0E943B
:10344000751C0E949E1C02C00E94A1138F2D8150EA
:1034500030F2EFE9FFE03197F1F700C00000F7CF5D
:103460000E5F1F4FFE01849190E2980F983050F448
:103470008770FE2D01C0FF0F8A95EAF78F2F0E94FB
:103480007B1CDFCF0E941714E1CF0E5F1F4FFE01A0
:10349000C491C150D8F28FE99FE00197F1F700C0C5
:1034A0000000F7CF0E5F1F4FFE01F490CFCF0E94B8
:1034B000A1138E01CBCF08950C945B1A0E945C1A65
:1034C0006093D4037093D5038093D6039093D7036E
:1034D0000C949F1608950C945E1A0F931F930091FD
:1034E000D4031091D5032091D6033091D703602BDC
:1034F000712B822B932B1F910F910C945E1A0F93BB
:103500001F930091D4031091D5032091D6033091DD
:10351000D70360237123822393231F910F910C946F
:103520005E1A0F931F930091D4031091D50320913D
:10353000D6033091D70360277127822793271F91E5
:103540000F910C945E1A0C945B1A0C94A31A0E94AF
:10355000A51A6093D0037093D1038093D203909304
:10356000D3030C949F1660E070E0CB010C94A71A73
:103570000F931F9341E050E060E070E08A019B01EF
:1035800004C0000F111F221F331F8A95D2F7C901F3
:10359000B8011F910F910C94A71A0F931F9341E04C
:1035A00050E060E070E004C0440F551F661F771FB5
:1035B0008A95D2F78091D0039091D103A091D20344
:1035C000B091D3038A019B01082B192B2A2B3B2B8B
:1035D000C901B8011F910F910C94A71A0F931F9363
:1035E00041E050E060E070E004C0440F551F661FEA
:1035F000771F8A95D2F7CB01BA01609570958095B7
:1036000090950091D0031091D1032091D203309175
:10361000D30360237123822393231F910F910C9472
:10362000A71A0F931F9341E050E060E070E004C0E0
:10363000440F551F661F771F8A95D2F78091D003DC
:103640009091D103A091D203B091D3038A019B0141
:10365000082719272A273B27C901B8011F910F9175
:103660000C94A71A0F931F930091D0031091D103CC
:103670002091D2033091D303602B712B822B932B9B
:103680001F910F910C94A71A0F931F930091D003D1
:103690001091D1032091D2033091D3036023712381
:1036A000822393231F910F910C94A71A0F931F93BA
:1036B0000091D0031091D1032091D2033091D30314
:1036C00060277127822793271F910F910C94A71AC7
:1036D00008952EE0929F800D1124982F977041E05D
:1036E00001C0440F9A95EAF786958695869595E0F0
:1036F000899FF0011124ED55FC4F90E080E070E0CF
:103700005191DF0111979B01082E02C03695279534
:103710000A94E2F7217021952527242325272C934D
:1037200001968530910561F708952EE0929F800DF6
:103730001124982F977086958695869525E0829F0F
:10374000F0011124ED55FC4F50E040E080E0219164
:1037500030E0092E02C0369527950A94E2F72170D1
:103760003327042E01C0220F0A94EAF7822B4F5F01
:103770005F4F4530510559F70895BF92CF92DF92C0
:10378000EF92FF920F931F93CF93DF938C01C09022
:10379000D003D090D103E090D203F090D303809176
:1037A000D4039091D503A091D603B091D703C82A32
:1037B000D92AEA2AFB2ACFE1D0E0BC2ED701C601E4
:1037C0000C2E04C0B695A795979587950A94D2F7C5
:1037D00080FD0EC0219788F7B12C8B2DDF91CF9102
:1037E0001F910F91FF90EF90DF90CF90BF900895C1
:1037F000B8018C2F0E941F0D019761F3EECFCF937C
:10380000DF93EC010E94BD1BBE01DF91CF910C94B0
:103810001F0D1F93CF93DF93EB0190916A039923C0
:1038200031F0CB01DF91CF911F910C94FF1B8823C6
:1038300079F0CB010E94BD1B182F682FCE010E948A
:10384000691BBE01812FDF91CF911F910C941F0D39
:10385000CB010E94951B182FF4CF682F8091000197
:10386000909101010C94131E682F8091000190919A
:1038700001010C941E1E80910001909101010C9495
:10388000291E8091D8038595859585950895809109
:10389000D803877008959091D803977081E009F458
:1038A00080E008958091FC0308959091FC03892B9A
:1038B0008093FC03089580959091FC039823909346
:1038C000FC0308951092FC0308959091FB03892B4B
:1038D0008093FB03089580959091FB039823909328
:1038E000FB0308951092FB0308959091FA03892B2E
:1038F0008093FA03089580959091FA03982390930A
:10390000FA0308951092FA0308958091D903089557
:1039100008950C94881C9091D903981721F08093F6
:10392000D9030C94891C08958091D903882329F028
:103930001092D90380E00C94891C0895E091000155
:10394000F09101018091FC038083E0910001F091EE
:10395000010180819091FB03892B8083E09100011C
:10396000F091010180819091FA03892B80839091DD
:10397000D903992381F0E0910001F0910101808148
:10398000892B808380910001909101010E94AF1DDD
:1039900081110E94941C80910001909101010C946E
:1039A0005E1208950C94D11C98E0899F9001112417
:1039B000622B6093D8030E94CD1A8091D80385951D
:1039C000859585950C94D21C1092D80380E00C94B8
:1039D000D21C9091D803809589238093D803282FF7
:1039E000277071F4282F082E000C330B9217130642
:1039F00039F08595859585950E94EE1A0C94E41C06
:103A0000089590E080E00E94282721E08C3E9E4FA0
:103A100009F020E0822F089582E090E00C942027A6
:103A2000682F82E090E00C942E2783E090E00C94C5
:103A30002027682F83E090E00C942E27CF9384E01A
:103A400090E00E942027C82F81E290E00E9420276A
:103A5000982F8C2FCF910895CF93C92F682F84E092
:103A600090E00E942E276C2F81E290E0CF910C9481
:103A70002E27AB01BC018FE090E00C944027AB01F6
:103A8000BC0183E190E00C94402760E070E0CB0142
:103A90000C943F1D60E070E0CB010E94391D0C9436
:103AA000451D6CEE7EEF90E080E00E944C2760E0C8
:103AB00082E090E00E942E2760E083E090E00E9488
:103AC0002E271092D4031092D5031092D603109291
:103AD000D70360E084E090E00E942E2760E081E25E
:103AE00090E00E942E2760E085E090E00E942E2763
:103AF00060E086E090E00E942E276FEF87E090E084
:103B00000E942E2740E050E0BA0188E090E00E9439
:103B1000402760E08DE090E00E942E2740E050E0DA
:103B2000BA0188E190E00E94402760E087E190E0E0
:103B30000E942E2740E050E0BA018CE190E00E9404
:103B4000402760E080E290E00E942E270C944A1DFE
:103B50000C94511D682F8EE090E00C942E27FC01F0
:103B6000329680910C01882321F080913A049EE1E5
:103B700087FF96E080E0915008F408952191222378
:103B8000D1F38F5FF8CF9C01FC0132969FEF80E06C
:103B90004191461751F09F3F19F4411101C0982FF0
:103BA0008F5F8630A9F79F3F09F40895290F311DD3
:103BB00097FD3A95F90162830895FC0132960896C3
:103BC0002191261303C0DF0111971C92E817F90712
:103BD000B9F70895E62FE695E695E695EE3168F497
:103BE000E80FF92FF11D677021E030E001C0220FCE
:103BF0006A95EAF78281822B82830895E62FE69503
:103C0000E695E695EE3170F4E80FF92FF11D677037
:103C100021E030E001C0220F6A95EAF72095828109
:103C200028232283089520910C01222329F020913A
:103C30003A0427FD0C94EA1D0C94C31D20910C013D
:103C4000222329F020913A0427FD0C94FE1D0C94A8
:103C5000DD1DFC01329680910C01882351F080918A
:103C60003A0487FF06C08EE1DF011D928A95E9F7CD
:103C7000089586E0F9CF089508950C943C1E0E94A3
:103C80003D1E80914004843049F11092FE0388E18A
:103C900090E020E40FB6F894A895809360000FBEE2
:103CA0002093600080E00E94AC0C0E943D1E83B710
:103CB000817F846083BF83B7816083BF7894889558
:103CC00083B78E7F83BF0FB6F894A895809160006C
:103CD000886180936000109260000FBE089508957F
:103CE000CF930E943B1E0E94800F0E946F1EC0E077
:103CF0008C2F0E940A0F892B31F4CF5FC530C1F79A
:103D000080E0CF91089581E0FCCF08950C94851E4A
:103D10000E94A9160E9452120E94AC0C0C94861E9E
:103D20001F921FB61F9211248F939F93AF93BF933F
:103D30008091FE03811113C0809136049091370465
:103D4000A0913804B09139044196A11DB11D809312
:103D5000360490933704A0933804B0933904BF918C
:103D6000AF919F918F911F901FBE1F90189582E079
:103D700084BD93E095BD9AEF97BD80936E00089542
:103D80002FB7F8948091360490913704A0913804AD
:103D9000B09139042FBF0895CF92DF92EF92FF9236
:103DA0000F931F932FB7F894409136045091370426
:103DB00060913804709139042FBF6A017B01EE24B1
:103DC000FF248C0130E020E0C016D106E206F306A5
:103DD00050F0481B590BCA011F910F91FF90EF90B3
:103DE000DF90CF90089541505109F3CF78941F92FE
:103DF0001FB61F9211248F939F93AF93BF9380910F
:103E0000360490913704A0913804B091390401969A
:103E1000A11DB11D8093360490933704A0933804FC
:103E2000B0933904BF91AF919F918F911F901FBEA6
:103E30001F90189581E08093E00080E28093D80085
:103E40001092C9008FE19EE40197F1F700C00000D5
:103E500087E090EBDC018093490490934A04A0939F
:103E60004B04B0934C0488E19CE00FB6F894A895FD
:103E7000809360000FBE90936000FFCFAF92BF921F
:103E8000CF92DF92EF92FF920F931F93CF93C0E0F8
:103E9000CC24C394D12CE82EF12C8C2F0E940A0F35
:103EA0005C0110E000E0C601002E02C0880F991FDF
:103EB0000A94E2F78A219B21892B99F40F5F1F4F07
:103EC0000E30110581F7CF5FC53039F780E0CF9113
:103ED0001F910F91FF90EF90DF90CF90BF90AF9028
:103EE0000895602F7C2F80E00E94030DE816F906EC
:103EF00029F781E0ECCFCF93C82F8CE20E943E1FC0
:103F0000882321F08C2FCF910C943E1F80E0CF911D
:103F10000895CF930E94011D811102C00E94A81D27
:103F2000C5E608C00E94800F8FE39CE90197F1F776
:103F300000C00000C150B1F789E20E947B1F8111CF
:103F400000C18AE20E947B1F81110E94A81D85E0AA
:103F50000E947B1F81110E941A1F0E940C1D8093DA
:103F6000FD0387E00E947B1F882371F08BE10E9494
:103F70007B1F882309F4C2C09091FD03892F8D7F98
:103F800091FF82608093FD038091FD030E94101DCC
:103F90000E941E1D90933B0480933A0480EE0E9481
:103FA0007B1F882341F090913A04892F8E7F90FFE8
:103FB000816080933A0489E30E947B1F882341F04B
:103FC00090913A04892F8D7F91FF826080933A040B
:103FD00082EE0E947B1F882341F090913A04892F42
:103FE0008B7F92FF846080933A0486EE0E947B1F51
:103FF000882341F090913A04892F877F93FF88604E
:1040000080933A0483EE0E947B1F882341F09091B5
:104010003A04892F8F7E94FF806180933A0485E370
:104020000E947B1F882341F090913A04892F8F7D55
:1040300095FF806280933A0481E30E947B1F88236E
:1040400041F090913A04892F8F7B96FF8064809392
:104050003A0481E10E947B1F882341F090913A0449
:10406000892F97FB87F9805880933A0480913A040E
:1040700090913B040E942C1D87E20E947B1FC82F59
:104080008EE10E947B1F8111C2608FE10E947B1F25
:104090008111C46080E20E947B1F8111C86081E2AF
:1040A0000E947B1F8111C06182E20E947B1F8111EF
:1040B000C06283E20E947B1F8111C06484E20E947F
:1040C0007B1F8823C1F1C0688C2F0E94191D6C2FA3
:1040D00070E090E080E00E946B1A8FE00E947B1FEE
:1040E000882319F081E00E94AA1D85E10E947B1FB0
:1040F000882339F180E0CF910C94AA1D8EE00E94B4
:104100007B1F882339F09091FD03892F8B7F92FFCD
:10411000846038CF80E10E947B1F9091FD0388234B
:1041200029F0892F877F93FF88602CCF892F8E7F7E
:1041300090FF816027CFC111C7CF0E94151D682F46
:10414000C7CFCF91089580911F04089508950895D1
:10415000CF93DF93EC010E946C22823011F0843007
:10416000B9F580910C018823B1F180913A0487FF61
:1041700032C060E282E08093E9008FEF9091E80026
:10418000815095FD06C095ED9A95F1F700008111DB
:10419000F5CF8091E80085FF1BC080910C0170E095
:1041A00050E040E0811104C050E040E068E070E081
:1041B000CE010E9489228091E8008E778093E800EA
:1041C00080E2FE01AFEFB3E001900D928A95E1F736
:1041D000DF91CF91089568E081E0CDCF089580917F
:1041E0003F04811109C00E9419240E947624809105
:1041F000E20084608093E200089510923F040895E5
:10420000089508950C94881E42E061EC81E00E94BC
:10421000952342E261EC82E00C9495238091420464
:10422000833009F45FC030F48130C1F1823009F489
:104230009BC008958A3009F487C08B3009F46DC0A3
:10424000893009F04EC080914104813209F049C0A3
:104250008091450490914604029708F042C08091F5
:10426000E800877F8093E8008091E80082FF35C0F6
:104270009091F3008091F200029729F48091F1006F
:104280008B7F813021F48091F10080931F04809115
:10429000E8008B778093E8000C94C9238091410457
:1042A000813AF9F48091E800877F8093E80080915B
:1042B000450490914604892B61F460E28FEF93E00E
:1042C00070E00E94D8228091E8008B778093E8000C
:1042D000089560E090E080E0F3CF80914004811188
:1042E000C3CF089580914104813AD9F78091450464
:1042F00090914604892BA9F78091E800877F8093ED
:10430000E8008091E80080FFFCCF80910C01809351
:10431000F1008091E8008E77BDCF80914104813219
:1043200001F78091450490914604892BD1F6809144
:10433000E800877F8093E8000E94C92380914304AE
:1043400080930C010C94A91680914104813249F6A6
:104350008091E800877F8093E8000E94C9238091C4
:10436000440480932004089580914104813A09F027
:10437000B8CF8091E800877F8093E8008091E800C3
:1043800080FFFCCF80912004C2CF84B7877F84BF99
:104390000FB6F894A89580916000886180936000C2
:1043A000109260000FBE80E890E00FB6F894809302
:1043B0006100909361000FBE0E94B2120E94192406
:1043C0000E9476248091E20084608093E2007894D9
:1043D0000E94FF260E94BA1282E091E00E944D12D4
:1043E00080914004853019F00E94C212F9CF0E94DA
:1043F0003F1E80913E04882399F30E94701E8823FB
:1044000079F30E947322ECCF0C940622292F3327D4
:104410002330310519F168F42130310509F44AC01F
:104420002230310509F44BC090E080E030E020E01C
:1044300028C02132310579F122323105A9F780E413
:1044400090E024EB34E061157105D9F08BE390E046
:1044500029E734E061307105A1F0E6CF992781307A
:10446000910599F0009741F08230910589F003970A
:10447000D9F6E0EDF3E002C0E8E2F4E0849190E0E8
:104480009F01FA01318320830895EAE1F4E0F6CF39
:10449000E6EDF3E0F3CF89E090E02EE334E0611540
:1044A000710579F389E090E027E534E0613071052A
:1044B00041F3BACF82E190E027E634E0E2CF8BE32C
:1044C00090E02CE234E0DDCF80914004843011F4A0
:1044D00082E0089581E0089580912104811102C055
:1044E0000C946422089580E189BD82E189BD09B4FC
:1044F00000FEFDCF8091D8008F7D8093D800809101
:10450000E00082608093E0008091E00081FDFCCFBC
:104510000895AF92BF92CF92DF92FF920F931F93B5
:10452000CF93DF936C01EB018A010E94E823F82E00
:10453000811123C00115110539F0F80180819181A5
:10454000C81BD90BC80ED91EB12CA12C2097A9F0DD
:104550008091E80085FD22C08091E8008E778093ED
:10456000E80001151105A1F0F80180819181A80EE4
:10457000B91EB182A08285E0F82E8F2DDF91CF91F8
:104580001F910F91FF90DF90CF90BF90AF90089553
:104590000E94E8238823D1F2F82EEFCFF601819113
:1045A0006F018093F1002197FFEFAF1ABF0ACECFC2
:1045B000FC01809147049091480486179707A0F06A
:1045C0006115710529F49091E8009E779093E800B9
:1045D00090E06115710551F4911108C08091E800D7
:1045E00082FF34C080E00895BC01F2CF8091400486
:1045F0008823C1F18530C1F18091E80083FD30C08E
:104600008091E80082FDEACF8091E80080FFE1CF51
:104610008091F3002091F200382F6115710519F097
:104620002830310558F091E02830310509F090E04C
:104630002091E8002E772093E800CBCF81918093E2
:10464000F100615071092F5F3F4FE7CF8091400427
:10465000882341F0853041F08091E80083FFBECF90
:1046600081E0089582E0089583E00895FC0180913F
:1046700047049091480486179707A0F061157105CB
:1046800029F48091E8008E778093E80090E061152E
:10469000710551F4911108C08091E80082FF35C086
:1046A00080E00895BC01F2CF809140048823C9F1D5
:1046B0008530C9F18091E80083FD31C08091E80028
:1046C00082FDEACF8091E80080FFE1CF8091F30086
:1046D0002091F200382F6115710519F0283031054D
:1046E00058F091E02830310509F090E08091E80021
:1046F0008E778093E800CBCF84918093F100319640
:10470000615071092F5F3F4FE6CF809140048823AD
:1047100041F0853041F08091E80083FFBDCF81E01A
:10472000089582E0089583E00895982F973028F047
:104730008F708093E90081E008959093E900242F21
:10474000762F50E0981731F07091EC002091ED0039
:104750005091F00021FD02C09F5FE8CF3091EB0047
:104760003E7F3093EB003091ED003D7F3093ED00C4
:104770003091EB0031603093EB007093EC002093AC
:10478000ED005093F0002091EE0027FDE5CF80E092
:1047900008958091410487FF13C08091E80082FF53
:1047A00006C08091E8008B778093E80004C0809178
:1047B00040048111F2CF0895809140048823D9F3F9
:1047C0008091E80080FFF8CF8091E8008E77ECCFF1
:1047D0002091E4003091E50095E6A9012091EC00DC
:1047E000822F817020FF06C08091E80080FF06C004
:1047F00080E008952091E80022FD1AC080914004D5
:10480000882389F0853089F08091EB0085FD0FC009
:104810002091E4003091E50042175307F9F29150DE
:10482000E1F684E0089582E0089583E0089581E050
:1048300008950E9487240E948F24E0EEF0E080819A
:1048400081608083E8EDF0E080818F77808319BC00
:10485000A7EDB0E08C918E7F8C9380818F7E8083DA
:1048600010923F0408950F931F93CF93DF930E94FC
:1048700087240E948F24C8EDD0E088818F778883B9
:1048800088818068888388818F7D888319BC109295
:10489000400410923C0410923E0410923D0400EE3D
:1048A00010E0F80180818B7F80838881816088831C
:1048B00042E060E080E00E949523E1EEF0E080813C
:1048C0008E7F8083E2EEF0E0808181608083808152
:1048D00088608083F80180818E7F808388818061F9
:1048E0008883DF91CF911F910F910895E8EDF0E05B
:1048F00080818F7E8083E7EDF0E08081816080831E
:1049000084E082BF81E080933F040C943324E8ED7F
:10491000F0E080818E7F80831092E20008951092F3
:10492000DA001092E10008951F920F920FB60F92D5
:1049300011242F933F934F935F936F937F938F93A4
:104940009F93AF93BF93EF93FF938091E10082FF1A
:104950000BC08091E20082FF07C08091E1008B7F55
:104960008093E1000E94FE268091DA0080FF19C04A
:104970008091D80080FF15C08091DA008E7F8093EF
:10498000DA008091D90080FF96C080E189BD82E184
:1049900089BD09B400FEFDCF81E0809340040E94F0
:1049A000EF208091E10080FF19C08091E20080FF3C
:1049B00015C08091E2008E7F8093E2008091E2003A
:1049C00080618093E2008091D80080628093D8005B
:1049D00019BC85E0809340040E9401218091E10090
:1049E00084FF2BC08091E20084FF27C080E189BD55
:1049F00082E189BD89B5982F917080FFFBCF8091AE
:104A0000D8008F7D8093D8008091E1008F7E8093C5
:104A1000E1008091E2008F7E8093E2008091E200CD
:104A200081608093E20080913C04882309F449C0AE
:104A300084E0809340040E9402218091E10083FF82
:104A400029C08091E20083FF25C08091E100877F2B
:104A50008093E10082E08093400410923C048091B6
:104A6000E1008E7F8093E1008091E2008E7F809351
:104A7000E2008091E20080618093E20042E060E029
:104A800080E00E9495238091F00088608093F00080
:104A90000E940021FF91EF91BF91AF919F918F9163
:104AA0007F916F915F914F913F912F910F900FBE2A
:104AB0000F901F90189519BC109240040E94FD2081
:104AC00070CF8091E30087FD93E090934004B3CFD3
:104AD0001F920F920FB60F9211242F933F934F9373
:104AE0005F936F937F938F939F93AF93BF93CF9376
:104AF000DF93EF93FF93D091E900DF708091EC009A
:104B0000C82FC17080FDC0E81092E9008091F000CC
:104B1000877F8093F00078940E94AC251092E90082
:104B20008091F00088608093F000CD2BCF70C0930F
:104B3000E900FF91EF91DF91CF91BF91AF919F91EC
:104B40008F917F916F915F914F913F912F910F9036
:104B50000FBE0F901F9018951F93CF93DF93CDB783
:104B6000DEB7AA970FB6F894DEBF0FBECDBF81E4C3
:104B700094E02091F100FC012193CF01F4E089340D
:104B80009F07B9F70E940E218091E80083FF1EC1A4
:104B900080914104909142049A3008F017C1E92FA6
:104BA000F0E0E45FF74D0C941A27803899F08238D2
:104BB00009F00CC1809145048F70873008F006C160
:104BC0008093E9008091EB0085FB882780F91092A3
:104BD000E90006C080913D0490913E0491118260ED
:104BE0009091E800977F9093E8008093F1001092F5
:104BF000F1008091E8008E77E5C0882309F4D3C0E6
:104C0000823009F0E3C0809143048111D6C08091C5
:104C100045048F702FEF280F263008F0D7C08093FF
:104C2000E9002091EB0020FFC8C0933031F480915F
:104C3000EB0080628093EB00C0C09091EB0090612C
:104C40009093EB0021E030E001C0220F8A95EAF753
:104C50002093EA001092EA008091EB008860EACF8E
:104C60008111B4C0109143041F778091E3008078D4
:104C7000812B8093E3008091E800877F8093E80098
:104C80000E94C9238091E80080FFFCCF8091E3005F
:104C900080688093E30082E0111183E080934004F8
:104CA00095C08058823008F091C080914304909163
:104CB00044048C3D23E09207A1F583E08A838AE2D5
:104CC00089834FB7F894DE01139620E03EE051E26D
:104CD000E32FF0E050935700E49120FF03C0E295EA
:104CE000EF703F5FEF708E2F90E0EA30C0F0C79614
:104CF0008D939D932F5F243159F74FBF8091E8002A
:104D0000877F8093E8006AE270E0CE0101960E94FE
:104D1000D8228091E8008B778093E80057C0C09636
:104D2000E7CF6091450470914604AE014F5F5F4F3D
:104D30000E940422BC01892B09F448C09091E8002C
:104D4000977F9093E80089819A810E943623E1CF72
:104D50008038E1F58091E800877F8093E8008091BA
:104D60003C048093F10045CF811130C09091430401
:104D7000923060F58091E800877F8093E8009093FF
:104D80003C040E94C92380913C04882311F084E0F4
:104D900005C08091E30087FDFACF81E08093400455
:104DA0000E94042113C080914304813079F481E092
:104DB000933009F080E080933E041092E9008091E6
:104DC000E800877F8093E8000E94C9238091E80073
:104DD00083FF0AC08091E800877F8093E80080917C
:104DE000EB0080628093EB00AA960FB6F894DEBFCA
:104DF0000FBECDBFDF91CF911F9108950895CF933E
:104E0000809140048823A1F0C091E900CF70909177
:104E1000EC00892F817090FD80E8C82B1092E9008A
:104E20008091E80083FD0E94AC25CF70C093E9001B
:104E3000CF910895EE0FFF1F0590F491E02D099496
:104E4000F999FECF92BD81BDF89A992780B5089552
:104E5000A8E1B0E042E050E00C945427262FF999E5
:104E6000FECF92BD81BDF89A019700B4021639F0C9
:104E70001FBA20BD0FB6F894FA9AF99A0FBE08959A
:104E80000396272F0E942F270E942E27252F0E944E
:104E90002F27242F0C942F270196272F0E942F278E
:104EA0000C942E27DC01CB01FC01F999FECF06C042
:104EB000F2BDE1BDF89A319600B40D9241505040D8
:104EC000B8F70895F894FFCF16031A031D032003C3
:104ED0002303260329032C032F033203350338034E
:104EE0005F033B033E034103440347034A034D036F
:104EF00050035303560359035C03620365036803BD
:104F00006B036E037103740377037A037D038003DD
:104F10008303860389038C038F039203950398030D
:104F20009B039E03C403C803CB03CE03D103D40366
:104F3000D703DA03DD03E003E303E6030704E90331
:104F4000EC03EF03F203F503F803FB03FE03010494
:104F50000404CE03D1030A040D0410041304160440
:104F600019041C041F042204B204250428042B0481
:104F70002E043104340437043A043D04400443044D
:104F8000C403C803CB03CE03D103D403D703DA038E
:104F9000DD03E003E303E6030704B20458045B0403
:104FA0005E046104640467046A046D04700473049D
:104FB000CE03760479047C047F048204850488048B
:104FC0008B048E0491049404B20497049A049D0403
:104FD000A004A304A604A904AC04AF04BA14BA1430
:104FE00012151215E714E714E714E7146415F01509
:104FF000FF15FF155B16E714E7146416B816B8160C
:10500000C116C116C316C116C116C116B816B816F8
:10501000C816C116C116C816D525FD25E626FD25DC
:0C502000E62630265126E626A826B426F7
:10502C00DA03A320A820A620A720EE20013100330C
:10503C00003400350036003700380030002D0001F8
:10504C0002E12D0103E1002E006B61007461006B25
:10505C006F007361007261007469006B750001016F
:10506C0039010136010139002C003B0001013901E5
:10507C000187010139007369007465006B65007369
:10508C006500686100746F006B69006E6E00010151
:10509C002A000101390101370101390068690073E7
:1050AC0075006875006865006D6500736F006E654E
:1050BC0000686F002F0020000101390102E101019D
:1050CC00380103E101013900010139010138010105
:1050DC0039000101390102E101012E0103E1010155
:1050EC0039005D00010132000102E15D0103E100C4
:1050FC000102E10101320103E1000102E10101348D
:10510C000103E10028000102E10101870103E10034
:10511C000102E13B0103E1006C61007269006C79F2
:10512C0061007265007061006469006775006475E8
:10513C0000706900776F006E61006C7975006D6F9F
:10514C0000626100646F00676900706F006C75002D
:10515C00726F006C69007075007A6F007065006288
:10516C006F003F00676100646100676F007A610047
:10517C006E69007275006D61006C65005B00767580
:10518C00007A69006465006765007A65006D6900E6
:10519C006E6F006C796F006C74750027006269008B
:1051AC007A75006275006265006E75006D7500772A
:1051BC0061006C6F0001018B000101910001018AFB
:1051CC000001019000E200E900EA00B500B600B76A
:1051DC0000CD008301CC008A0192019401210223AD
:1051EC000224022502260227022A02B300B4006F11
:1051FC00007000818283F0F1C667663694313735D2
:10520C00349796339091929395E200E900EA00B5B9
:10521C0000B600B700CD008301CC008A0192019446
:10522C00012102230224022502260227022A02B3AC
:0A523C0000B4006F0070008182834F
:00000001FF
