:100000000C948C020C94D3020C94D3020C94D30263
:100010000C94D3020C94D3020C94D3020C94D3020C
:100020000C94D3020C94D3020C94A5220C94D3020A
:100030000C94211E0C94D3020C94D3020C94D30282
:100040000C94D3020C9422060C94D3020C94D30289
:100050000C94D3020C94781E0C94D3020C94D3020B
:100060000C94D3020C94D3020C94D3020C94D302BC
:100070000C94D3020C94D3020C94D3020C94D302AC
:100080000C94D3020C94D3020C94D3020C94D3029C
:100090000C94D3020C94D3020C94D3020C94D3028C
:1000A0000C94D3020C94D3020C94D30229001E00AA
:1000B0001F0020002100220023002400250026002C
:1000C00027002D002E002A002B0014001A00080023
:1000D000150017001C0018000C00120013002F0060
:1000E00030003100E00004001600070009000A009B
:1000F0000B000D000E000F0033003400000028003C
:10010000E10000001D001B000600190005001100A1
:1001100010003600370038000000E5000251E3000F
:10012000E200000000002C002C0000000000000095
:10013000E600E7006542E4002900635D645D655DFB
:10014000665D675D685D695D6A5D6B5D6C5D6D5D7B
:100150006E5D2A002B00705D715D725D735D745D74
:10016000755D765D775D785D795D7A5D7B5D6F5DF0
:10017000E0007C5D7D5D7E5D7F5D805D815D825D9B
:10018000835D845D855D865D00002800E1000000E0
:10019000875D885D895D8A5D8B5D8C5D8D5D8E5D23
:1001A0008F5D905D0000E5000251E300E200000079
:1001B0000000925D915D0000000000000100010060
:1001C0000100010035003A003B003C003D003E00CC
:1001D0003F004000410042004300440045004C0005
:1001E0000100010001000100010001004A004E0071
:1001F0004B004D00460001004800010001000100D5
:1002000001000100010001005000510052004F00A8
:1002100049004C0000002800E1000000010001003E
:1002200001000100010001000100010001000100C6
:100230000000010002510100010000000000945D77
:10024000935D0000000000000100010001000100BA
:1002500000000000000000002A2B28000000000021
:100260000000000000000000000000290000000065
:100270002C1E3420212224342627252E362D3738D3
:10028000271E1F202122232425263333362E3738DC
:100290001F0405060708090A0B0C0D0E0F1011129A
:1002A000131415161718191A1B1C1D2F3130232D66
:1002B000350405060708090A0B0C0D0E0F10111264
:1002C000131415161718191A1B1C1D2F3130354C15
:1002D000000000000000000000000000000000001E
:1002E000000000000000000000000000000000000E
:1002F000000000007E0F00D4FFFFFFC70000007861
:1003000000010101010101010101020202020202D8
:1003100002020203030303030303030404040404AB
:100320000404050505050506060606060707070772
:100330000708080808090909090A0A0A0B0B0B0C27
:100340000C0C0D0D0D0E0E0E0F0F0F1010111111C4
:100350001212131314141515161617171818191945
:100360001A1A1B1B1C1D1D1E1E1F202021222223AA
:100370002424252626272829292A2B2C2D2D2E2FEB
:1003800030313232333435363738393A3B3C3D3E02
:100390003F404142434445464748494A4C4D4E4FF1
:1003A00050515354555658595A5B5D5E5F616264B3
:1003B000656668696B6C6D6F7072737577787A7B40
:1003C0007D7E8082838587888A8C8E8F9193959697
:1003D000989A9C9EA0A2A3A5A7A9ABADAFB1B3B5B7
:1003E000B7BABCBEC0C2C4C6C9CBCDCFD1D4D6D893
:1003F000DBDDDFE2E4E7E9EBEEF0F3F5F8FAFDFF31
:100400003C035800440036003000200033002E002A
:10041000300020004E00490043004F004C004100D6
:1004200020004F00790061007900750062006900CA
:1004300020005300680069006600740000000C038F
:100440005800490055004400490000000403090415
:1004500009023B00020100A0FA09040000010301A7
:100460000100092111010001224000070581030854
:10047000000A090401000103000000092111010024
:1004800001223B000705820320000A12010002003E
:1004900000000844786363010001020001050109BE
:1004A00006A1018505050719E029E7150025019535
:1004B00008750181020507190029EF15002501952E
:1004C000F07501810205081901290595057501914D
:1004D00002950175039101C005010906A1010507F7
:1004E00019E029E71500250195087501810295019C
:1004F000750881010507190029FF150026FF0095E1
:1005000006750881000508190129059505750191F1
:1005100002950175039101C011241FBECFEFDAE0EF
:10052000DEBFCDBF04B603FE27C08091FF039091CC
:100530000004A0910104B09102048730904BA740C1
:10054000B04BD1F41092FF031092000410920104FA
:100550001092020414BE84B7877F84BF0FB6F8944C
:10056000A89580916000886180936000109260007F
:100570000FBEE0E0F8E3099512E0A0E0B1E0EAE0A8
:10058000FCE402C005900D92A03CB107D9F723E02E
:10059000A0ECB2E001C01D92AF3FB207E1F70E94AC
:1005A00053170C9451250C9400008093CE0285ECD7
:1005B00094E00C94FC058091CF0208951092CC0237
:1005C0001092C3021092C202089581E08093CF027C
:1005D0000E94DE028091CE020C94810C1092CF0218
:1005E0000E94DE028091CE020C94A20C2091CF02D8
:1005F0002223F9F0805E91090897D8F48091CD020A
:10060000FB019281992361F0811104C08091CE0297
:100610000E94A20C8091CD028F5F8093CD0208953D
:1006200081508093CD02811104C08091CE020C9440
:10063000810C0895E091CA02F091CB02E356FD458A
:10064000EE32F10508F08FC0ED5AFA4D0C94F62405
:1006500082E191E00C944E088BEC91E0FBCF84E1B9
:1006600091E0F8CF86E191E0F5CF88E191E0F2CF1B
:100670008AE191E0EFCF8CE191E0ECCF8EE191E067
:10068000E9CF8BE491E0E6CF80E291E0E3CF82E234
:1006900091E0E0CF84E291E0DDCF8CE291E0DACF2F
:1006A0008EE291E0D7CF81E391E0D4CF84E391E073
:1006B000D1CF87E391E0CECF8AE391E0CBCF8DE33A
:1006C00091E0C8CF80E491E0C5CF8DE792E0C2CF42
:1006D00083E491E0BFCF8DE491E0BCCF8FE491E063
:1006E000B9CF81E591E0B6CF89E892E0B3CF8BE551
:1006F00091E0B0CF8EE591E0ADCF81E691E0AACF59
:1007000084E691E0A7CF87E691E0A4CF8AE691E066
:10071000A1CF8DE691E09ECF83E892E09BCF80E76A
:1007200091E098CF83E791E095CF87E791E092CF72
:1007300081E891E08FCF84E891E08CCF87E891E069
:1007400089CF8AE891E086CF8DE891E083CF80E978
:1007500091E080CF83E991E07DCF86E991E07ACF87
:1007600089E991E077CF08958091C8029091C902FC
:10077000892B21F08BE991E00C944E08089580912B
:10078000C8029091C90281392DE5920709F090C005
:10079000E091CA02F091CB02E356FD45EE32F1053D
:1007A00008F0F2C0EF57FA4D0C94F6248DE991E071
:1007B0000C944E088DEA91E0FBCF87EB91E0F8CFE7
:1007C00087EC91E0F5CF89EC91E0F2CF8DEC91E0F0
:1007D000EFCF85ED91E0ECCF8FED91E0E9CF85E7AC
:1007E00091E0E6CF89EE91E0E3CF8BEE91E0E0CFB0
:1007F00085EF91E0DDCF8DEF91E0DACF8CE892E0EC
:10080000D7CF80E092E0D4CF83E092E0D1CF87E0F1
:1008100092E0CECF8AE092E0CBCF8DE092E0C8CFDD
:1008200080E192E0C5CF83E192E0C2CF86E192E021
:10083000BFCF81E591E0BCCF89E192E0B9CF87E2FB
:1008400092E0B6CF8CE192E0B3CF8FE192E0B0CFEF
:1008500083E292E0ADCF86E292E0AACF89E292E015
:10086000A7CF8CE292E0A4CF8FE292E0A1CF83E702
:1008700091E09ECF82E392E09BCF82E291E098CF1D
:1008800085E392E095CF84E092E092CF88E392E016
:100890008FCF8BE392E08CCF8EE392E089CF81E41F
:1008A00092E086CF84E492E083CF87E492E080CF29
:1008B00082399D4509F068C0E091CA02F091CB02EF
:1008C000E356FD45EE32F10508F05EC0E155FA4D04
:1008D0000C94F62489E492E06BCF8CE492E068CF2C
:1008E0008FE492E065CF82E592E062CF89E792E003
:1008F0005FCF85E592E05CCF88E592E059CF8BE54C
:1009000092E056CF8EE592E053CF81E692E050CF51
:1009100083E692E04DCF86E692E04ACF89E692E008
:1009200047CF8CE692E044CF8FE692E041CF82E75A
:1009300092E03ECF85E492E03BCF85E792E038CF6E
:1009400088E792E035CF8CE792E032CF80E892E002
:100950002FCF82E892E02CCF85E892E029CF88E87B
:1009600092E026CF8BE892E023CF8EE892E020CF72
:1009700080E292E01DCF81E992E01ACF84E992E013
:1009800017CF87E992E014CF08958091C202909129
:10099000C302892B49F48091CC02823071F028F493
:1009A000813041F01092CC0208958530D8F70E9432
:1009B000BF03F8CF0E941A03F5CF0E94B403F2CF11
:1009C000EF92FF920F931F93CF93DF938C017B01E4
:1009D00081E090E09093C3028093C2020E94511E76
:1009E000EC01F701F280980123563D45FF2009F400
:1009F0008EC08091CC022E32310508F042C0823088
:100A0000E1F1E8F4882309F1813009F11093CB0278
:100A10000093CA02D093C702C093C60280E699E051
:100A20000E941406F12C1092C3021092C2028F2D64
:100A3000DF91CF911F910F91FF90EF900895833038
:100A400049F0843019F70E94BF0381E017C00E946B
:100A50001A03DCCF8091C4029091C5022091C60296
:100A60003091C702AC01421B530BFE01E81BF90B8E
:100A70004E175F0740F30E941A0384E08093CC0274
:100A8000C5CF980121593D452230310590F582307E
:100A900049F168F4882311F1813049F11093C902BA
:100AA0000093C802D093C502C093C402B7CF83306D
:100AB00099F0843099F78091C6029091C7022091F5
:100AC000C4023091C502AC01421B530BFE01E81B6E
:100AD000F90B4E175F0748F40E94BF0382E0809332
:100AE000CC02DCCF0E94B403D9CF0E94B40383E0D0
:100AF000F6CF823009F44CC028F48130E1F0109236
:100B0000CC0291CF8530D8F70E94BF03F8CF2033B5
:100B1000310508F06EC08091CC02823089F170F40A
:100B2000813009F080CF8091CA029091CB0280176A
:100B3000910709F078CF0E941A03E1CF833059F171
:100B4000843009F070CF8091C8029091C90280175B
:100B5000910709F049C08091C6029091C702C81B55
:100B6000D90B2091C4023091C502821B930B8C17C4
:100B70009D0750F2649740F60E94B40381E028C0BC
:100B80008091C8029091C9028017910709F04BCF5C
:100B90000E94B403B4CF8091CA029091CB02801717
:100BA0009107C9F48091C4029091C502C81BD90B6A
:100BB0002091C6023091C702821B930B8C179D07B0
:100BC00008F4A2CF649708F09FCF0E941A0382E036
:100BD0008093CC0228CF8091C8029091C9028017DF
:100BE000910709F020CF90CF8091CA029091CB025B
:100BF000F6CFFF24F39417CFF8949093D10280930B
:100C0000D0021092800085E08093810010928200D3
:100C100010928500109284008FEF9FEF90938900CF
:100C20008093880078940895F8941092850010922B
:100C30008400909389008093880082E080936F0005
:100C4000789408951F920F920FB60F9211242F934C
:100C50003F934F935F936F937F938F939F93AF9344
:100C6000BF93EF93FF93E091D002F091D1020995E9
:100C7000FF91EF91BF91AF919F918F917F916F9174
:100C80005F914F913F912F910F900FBE0F901F904A
:100C90001895229A2A98089522982A980895CF9311
:100CA000C82F81FF06C00E9449068C2FCF910C945B
:100CB00051080E944C06F9CF81E00C94D502CF93E5
:100CC000C0E02C2F40E060E080E00E94D019CF5FB0
:100CD000CD30B9F72CE048E26FEF8AEA0E94E419C0
:100CE000CF910C94EE020F931F93CF93DF93EC01FF
:100CF0008B01C3398DE5D807A1F0C439EDE5DE07D6
:100D000051F10E94DB028823C9F1B801CE010E9493
:100D1000F602B801CE01DF91CF911F910F910C9493
:100D2000E004FB018281882389F08AE992E00E9435
:100D30004E088EE992E00E944E080E94EE022CE0DE
:100D400048E26FEF8AEA0E94E41980E0DF91CF91D8
:100D50001F910F910895FB0182818823B9F382EAE4
:100D600092E00E944E0886EA92E00E944E080E949D
:100D7000E5022CE048E26FEF85E5E5CF81E0E6CFC4
:100D800081E008950C94730608950C94C4061F9393
:100D9000CF93DF9300D000D00F92CDB7DEB7498359
:100DA0005A836B833091D20289819A8131111DC09F
:100DB0006623B9F02223A9F00E94710D182F682F25
:100DC00089819A810E941D0D69817A81812F0F90FE
:100DD0000F900F900F900F90DF91CF911F910C9477
:100DE000BC130E94490D182FEFCF0E94710D69812D
:100DF0007A81EDCFFC01262F408151816281738180
:100E000084810C94C70681E00895CF93DF93EC01B1
:100E100060E00E94FA06BE01DF91CF910C94C506F6
:100E20000E94C1150E9456080C94E5150C94E81513
:100E300008950E94C60B0E9418072FEF84E39CE0E0
:100E4000215080409040E1F700C000000C949C1EAF
:100E50000F931F93CF93DF938C0161E00E94FA06FA
:100E6000EC01B8010E94C2068823D9F1B801CE0175
:100E70000E941B1B8823A9F1B801CE010E946D1BA3
:100E8000882379F1B801CE010E94901C882349F192
:100E9000B801CE010E94071A882319F1F801828156
:100EA000882361F0CB35FDE5DF0721F170F4C11532
:100EB000ECE5DE07A1F0CF3DDC45C9F0C801DF91CC
:100EC000CF911F910F910C94C006CC358DE5D807BA
:100ED000A1F0CD35DD4591F70E944E11EFCF0E9474
:100EE000190780E0DF91CF911F910F9108950E9423
:100EF000C512F7CF0E945711E1CF0E945A11DECFE1
:100F0000DF92EF92FF920F931F93CF93DF93E82F1F
:100F1000F0E0E05BFD4FD490282F2695269526958E
:100F200030E0F901E051FD4F0491877010E0082E88
:100F300002C0159507950A94E2F701701127F9018F
:100F4000E052FD4FE490F12C082E02C0F594E79496
:100F50000A94E2F791E0E922FF24F901E053FD4F02
:100F6000C491D0E002C0D595C7958A95E2F7C170CB
:100F7000DD270115110519F081EE0E94A208E11488
:100F8000F10419F086EE0E94A2088D2D0E947809C6
:100F9000EF2819F086EE0E941209012B19F081EE5C
:100FA0000E941209CD2B51F08CE2DF91CF911F915D
:100FB0000F91FF90EF90DF900C947809DF91CF9123
:100FC0001F910F91FF90EF90DF900895EF92FF92A5
:100FD0000F931F93CF93DF93EC01162F0AE08881C4
:100FE000882309F454C0813009F04EC089818130D2
:100FF00099F47E0122E0E20EF11C8A810E947809B8
:10100000E7012196812F815050F3EFE9FFE03197FE
:10101000F1F700C00000F7CF823041F47E0182E09A
:10102000E80EF11C8A810E94A208EACF833041F4C5
:101030007E01E2E0EE0EF11C8A810E941209E0CFEF
:10104000843011F02196DDCF2A81229690E080E055
:10105000AE014F5F5F4F2053330B2A30310548F00C
:10106000019778F2EFE9FFE03197F1F700C0000057
:10107000F7CF089FB001099F700D1124C901860F99
:10108000971F2981EA01E4CF0E948007BACFDF9140
:10109000CF911F910F91FF90EF90089560E00C9415
:1010A000E607089581E008950C9452080895CF93BF
:1010B000C82F0E944F068C2FCF910C945408CF93C9
:1010C000DF93CDB7DEB72B970FB6F894DEBF0FBE18
:1010D000CDBF4F83588769877A878B8761110E94BC
:1010E0007D111E821D8285E0FE013796DE0111967C
:1010F00001900D928A95E1F78C819D81892B89F46D
:1011000049815A816B817C818D819E810E947D10F5
:101110002B960FB6F894DEBF0FBECDBFDF91CF91F7
:10112000089589819A8189238F3F51F3CE010196D9
:101130000E9403078111E4CFEBCFFC0180819181F4
:101140000C94B30DCF93C82F882309F469C082385B
:10115000C1F40E94BF1C81FD63C089E30E94171186
:101160000E94AD112FEF81EE94E02150804090401D
:10117000E1F700C0000089E30E941E11CF910C949A
:10118000AD118338A1F40E94BF1C80FD49C083E5E6
:101190000E9417110E94AD112FEF81EE94E02150B3
:1011A00080409040E1F700C0000083E5E5CF84383F
:1011B000A1F40E94BF1C82FD33C087E40E94171176
:1011C0000E94AD112FEF81EE94E0215080409040BD
:1011D000E1F700C0000087E4CFCF8CEF8C0F813A9D
:1011E00090F46C2F80910001909101010E94251DC7
:1011F000882329F08C2F0E941E110E94AD118C2F84
:101200000E941711BBCF80E28C0F883048F4C77062
:1012100081E001C0880FCA95EAF70E946011AECF45
:10122000CF910895882309F44BC0823871F40E944D
:10123000BF1C81FF45C089E30E9417110E94AD11B8
:1012400089E30E941E110C94AD11833859F40E9459
:10125000BF1C80FF35C083E50E9417110E94AD11AD
:1012600083E5EFCF843859F40E94BF1C82FF28C069
:1012700087E40E9417110E94AD1187E4E2CF9CEF32
:10128000980F913AF0F290E2980F983050F48770EE
:1012900091E001C0990F8A95EAF7892F0E946611A3
:1012A000D2CF9BE5980F933020F490E080E00C942F
:1012B000E51C885A873120F490E080E00C94FB1CF8
:1012C00008951F93CF93DF93182FEB010E94A2087C
:1012D000209731F4812FDF91CF911F910C94120947
:1012E0008FE99FE00197F1F700C000002197F0CF50
:1012F00070E060E0893311F460E570E00C946109FE
:10130000882321F00E9460110C94AD110895882368
:1013100021F00E9466110C94AD110895BF92CF92F6
:10132000DF92EF92FF920F931F93CF93DF936C01A5
:10133000D62FC72FFC010281158112951F700E94C4
:101340003511E82E8823A1F0E02E002389F08C2FA0
:10135000807F803429F080E28D0FE12C883040F0CE
:1013600082E00E94FE110E94351191E0E82EE926EC
:10137000BC2EB2949FE0B922EB2DF0E0E352FA4D7F
:101380000C94F6241C2F1F70C07F11F01295107F53
:101390000023A9F0112359F080E28D0F883010F05E
:1013A000D11109C0812F0E9460110E94AD118D2FB3
:1013B0000E94A20814C0812F0E947011F6CF8D2FB9
:1013C0000E941209112359F080E28D0F883010F02D
:1013D000D1112CC0812F0E9466110E94AD112B2DBE
:1013E0002850330B2430310520F40E94BF1C0E948A
:1013F0005708EE2009F477C10E94311180FD73C1B6
:10140000F60112820E942B110E94810CC6010E94DB
:10141000940B0E942B11DF91CF911F910F91FF90A0
:10142000EF90DF90CF90BF900C94A20C812F0E9480
:101430007611D3CFFC2FFF70FF2EC07FC03219F082
:10144000F29480EFF822DD2369F0D13049F10023D6
:1014500091F1112351F1F601858180FFA8CF8F70A2
:10146000858323C0002381F0111106C00E949011D2
:101470008F290E948009B3CF1130C1F70E949011CB
:101480008F290E949611ABCF111106C00E94A311A3
:101490008F2D0E948709A3CF113009F4A0CFF6CF7A
:1014A000002329F0163008F09ACF8F2DE2CF1530A7
:1014B00008F095CFEDCF112359F3D93349F4FFEF5D
:1014C00027EE33E0F15020403040E1F700C000004B
:1014D0008D2F0E94120983CF8C2F837009F041C099
:1014E00001117DCF4D2F429546954770440F440F13
:1014F0000D2F0F7010E030E020E0042E04C0000F2C
:10150000111F221F331F0A94D2F760E070E0CB0155
:10151000D4FF0FC06FE070E080E090E004C0660F81
:10152000771F881F991F4A95D2F76095709580950F
:101530009095C695C695C370602B712B822B932B0B
:10154000C23049F058F4C13019F00E94330C47CF33
:101550000E94210C44CF0E94450C41CF0E941F0CD9
:101560003ECF8695002311F08C2F8170882309F4DB
:1015700036CF4D2F429546954770440F440F0D2F9F
:101580000F7010E030E020E0042E04C0000F111FA7
:10159000221F331F0A94D2F760E070E0CB01D4FF22
:1015A0000FC06FE070E080E090E004C0660F771F2E
:1015B000881F991F4A95D2F76095709580959095F0
:1015C000C695C695C370602B712B822B932BC230AE
:1015D00049F058F4C13019F00E94F80C00CF0E9475
:1015E000E60CFDCE0E940A0DFACE0E945B0CF7CEEF
:1015F000CF70002329F08C2F0E94810C8D2F39CFC2
:101600008D2F0E9487098C2F0E94A20CE8CED23F1A
:1016100089F160F4D03FC9F0D13F29F1002309F4EA
:1016200042C01111C4CE8C2F8F7121C0D33F39F12C
:10163000D43FA1F7002369F1CF718C2F0E94810C58
:1016400063E08C2F0E94E311CACE002341F01530D5
:1016500008F0C5CE8C2F8F710E94C50CC0CE1630FD
:1016600008F0BDCEF7CF8C2F8F71002369F20E9456
:10167000810CB5CE8C2F8F710023C9F3C5CF002309
:1016800029F08C2F8F710E946C0CA9CE0E94670CE0
:10169000A6CE81E00E94FE11123008F4A0CE82E0B6
:1016A0000E94FE119CCE112359F0D93309F010CFBE
:1016B0008FEF97EEE3E081509040E040E1F706CFF6
:1016C0008C2F8F71A1CF4C2F4F706D2FC6010E94B0
:1016D000B8130E94E10D83CE4C2F4F706D2FC601C1
:1016E0000E94BB137CCEDF91CF911F910F91FF9091
:1016F000EF90DF90CF90BF9008950F931F93CF93FB
:10170000DF93EC01688179818A810E94BD0D8C0193
:101710000E941C0D0E941E0CB801CE01DF91CF91DA
:101720001F910F910C948E09CF93DF93EC018B8165
:101730009C81892B29F08881998189238F3F59F4D5
:10174000DF91CF910895CE010E947D0BCE01DF91F4
:10175000CF910C940507CE010E9428078111F3CF89
:101760000E943511882361F38A81882349F382E03E
:10177000DF91CF910C94FE110E947D110E948D117A
:101780000C94AD110E9425110C94BC0B0E946D119C
:101790000C94C20BE92FE295EF70E250EE3070F43A
:1017A000F0E0E351FA4D0C94F624803F19F020F458
:1017B000883E20F481E00895843FE1F380E00895BD
:1017C000883EC0F3813FD1F7F5CF93FB882780F99E
:1017D0000895FC01808191810E94B30D0C94CA0B85
:1017E000CF93DF9300D000D00F92CDB7DEB70F902C
:1017F0000F900F900F900F90DF91CF910895CF939E
:10180000DF9300D000D000D0CDB7DEB726960FB65C
:10181000F894DEBF0FBECDBFDF91CF91089508953C
:101820000C940F0C0E94100C60930403709305033A
:1018300080930603909307030C94BC0B08950C94BB
:10184000120C0F931F930091040310910503209134
:10185000060330910703602B712B822B932B1F9172
:101860000F910C94120C0F931F930091040310918D
:10187000050320910603309107036023712382231F
:1018800093231F910F910C94120C0F931F930091AF
:10189000040310910503209106033091070360278C
:1018A0007127822793271F910F910C94120C0C948F
:1018B0000F0C0C94570C0E94590C6093000370930A
:1018C000010380930203909303030C94BC0B60E02C
:1018D00070E0CB010C945B0C0F931F9341E050E040
:1018E00060E070E08A019B0104C0000F111F221FFD
:1018F000331F8A95D2F7C901B8011F910F910C943B
:101900005B0C0F931F9341E050E060E070E004C077
:10191000440F551F661F771F8A95D2F780910003E9
:1019200090910103A0910203B09103038A019B01EE
:10193000082B192B2A2B3B2BC901B8011F910F91A2
:101940000C945B0C0F931F9341E050E060E070E05B
:1019500004C0440F551F661F771F8A95D2F7CB012D
:10196000BA01609570958095909500910003109153
:10197000010320910203309103036023712382232A
:1019800093231F910F910C945B0C0F931F9341E0D5
:1019900050E060E070E004C0440F551F661F771FE1
:1019A0008A95D2F78091000390910103A0910203E0
:1019B000B09103038A019B01082719272A273B2797
:1019C000C901B8011F910F910C945B0C0F931F93E9
:1019D0000091000310910103209102033091030351
:1019E000602B712B822B932B1F910F910C945B0C0E
:1019F0000F931F93009100031091010320910203A4
:101A00003091030360237123822393231F910F914D
:101A10000C945B0C0F931F93009100031091010332
:101A200020910203309103036027712782279327B7
:101A30001F910F910C945B0C08952EE0929F800DE6
:101A40001124982F977041E001C0440F9A95EAF74E
:101A500086958695869595E0899FF0011124ED5233
:101A6000FD4F90E080E070E05191DF0111979B0104
:101A7000082E02C0369527950A94E2F72170219529
:101A80002527242325272C9301968530910561F77E
:101A900008952EE0929F800D1124982F97708695BF
:101AA0008695869525E0829FF0011124ED52FD4F29
:101AB00050E040E080E0219130E0092E02C03695F0
:101AC00027950A94E2F721703327042E01C0220FD4
:101AD0000A94EAF7822B4F5F5F4F4530510559F763
:101AE0000895BF92CF92DF92EF92FF920F931F93D0
:101AF000CF93DF938C01C0900003D0900103E0905E
:101B00000203F09003038091040390910503A091D8
:101B10000603B0910703C82AD92AEA2AFB2ACFE193
:101B2000D0E0BC2ED701C6010C2E04C0B695A795F7
:101B3000979587950A94D2F780FD0EC0219788F774
:101B4000B12C8B2DDF91CF911F910F91FF90EF90D2
:101B5000DF90CF90BF900895B8018C2F0E94C914D8
:101B6000019761F3EECFCF93DF93EC010E94710DEB
:101B7000BE01DF91CF910C94C9141F93CF93DF93D3
:101B8000EB019091D202992331F0CB01DF91CF91FB
:101B90001F910C94B30D882379F0CB010E94710D35
:101BA000182F682FCE010E941D0DBE01812FDF91DD
:101BB000CF911F910C94C914CB010E94490D182F8D
:101BC000F4CFEF92FF920F931F93CF93DF938C018B
:101BD000892B81F0F12CEE24E394E8012196F801A1
:101BE0008491843770F4843008F05FC08130B1F0A4
:101BF0008230A1F1DF91CF911F910F91FF90EF9073
:101C00000895853709F44CC008F43DC09CE7980F4F
:101C1000903780F78F770E94120949C00E5F1F4FDF
:101C2000FE01849190E2980F983060F48770FE2D49
:101C300001C0FF0F8A95EAF78F2F0E9480110E9442
:101C4000AD1102C00E94A2088F2D815030F2EFE941
:101C5000FFE03197F1F700C00000F7CF0E5F1F4F94
:101C6000FE01849190E2980F983050F48770FE2D19
:101C700001C0FF0F8A95EAF78F2F0E948611DFCFF0
:101C80000E941209E1CF0E5F1F4FFE01C491C150A7
:101C9000D8F28FE99FE00197F1F700C00000F7CF7D
:101CA0000E5F1F4FFE01F490CFCF0E94A2088E015D
:101CB000CBCF1F93CF93DF93C091080316E08091A1
:101CC00009038C1304C0DF91CF911F910895D0E0D8
:101CD0001C9FF0011D9FF00D1124E65FFC4F408119
:101CE000518162817381848195810E94FF0B2196CD
:101CF000C770E5CF40913A0350913B0360913C039C
:101D000070913D0380913E0390913F030C94FF0B33
:101D10001F93CF93DF9380913F03807FA9F480913D
:101D20003C03882389F080910803C09109036091E6
:101D30003A0370913B03A0913D03B0913E03D62F2F
:101D4000D72316E0C81304C0DF91CF911F910895E7
:101D500090E0109711F0DF3F19F401968770F2CFF1
:101D6000189F9001199F300D1124F901E65FFC4F77
:101D700041814713F2CF40814613EFCF4281411199
:101D8000ECCF438154814A1B5B0B483C510528F73B
:101D900080913F038F70806180933F03F901E15F81
:101DA000FC4F80818F70806180838AE393E00E9482
:101DB000940BDF91CF911F910C94590EAF92BF926B
:101DC000CF92DF92EF92FF920F931F93CF93DF9307
:101DD000CDB7DEB761970FB6F894DEBF0FBECDBFAB
:101DE0008C0185E0F801DE011D9601900D928A9527
:101DF000E1F7F801E2808AE3C82E83E0D82E6091F3
:101E00003D0370913E036115710509F45AC190912B
:101E10003A0320913B03892F82238F3F09F451C15C
:101E200040815181A380B480F0903C03F501E61B12
:101E3000F70BFF2009F4F6C080913F03382F307F65
:101E4000E83CF10508F0AFC0311179C0FE2C251334
:101E500023C0941321C0E1101FC08F708061809354
:101E60003F030E947A0EC6010E94940B80913F03AB
:101E7000F80185838F2D61960FB6F894DEBF0FBEF3
:101E8000CDBFDF91CF911F910F91FF90EF90DF9029
:101E9000CF90BF90AF900895AB2829F0842F852371
:101EA0008F3F09F027C180E0F82FF170DF2E80FF0F
:101EB0003CC0809108032091090336E0821315C0CD
:101EC0004D875E878D859E850E94B30D292F2295B3
:101ED0002F702230F0F0243018F59F70F1F0F801E7
:101EE0009581907FD1F4D12C1EC090E0389FF001F5
:101EF000399FF00D1124E65FFC4F6181651306C028
:101F00006081641303C06281E6120FC0019687707E
:101F1000D5CF9F7011F0882331F3805E883018F39D
:101F2000C8010E94940BFD2CA5CFEE2009F4A2CF8E
:101F300080913F03816080933F03F12C9BCF251359
:101F400006C0941304C0F801EE2009F487C0C8014C
:101F50000E94E90B882319F1EE2009F180913F03DB
:101F6000803270F020913A0330913B0338872F8301
:101F70001986BB86AA868C87CE0107960E94940B91
:101F800086E0F801AAE3B3E001900D928A95E1F7AB
:101F90000E94880E0E947A0EFF24F3946BCFC80132
:101FA0000E94940BF9CF311113C07A2DB98AA88AF7
:101FB0006E2D89890E94F00B8AE393E00E94940BB6
:101FC00086E0F60111928A95E9F70E947A0EB5CF64
:101FD00025130FC094130DC0E1100BC0F8018583C9
:101FE000C8010E94940B86E0F60111928A95E9F7E8
:101FF00041CFC8010E94E90B882389F2EE2079F2D3
:1020000080913F03803208F4BBCF20913A03309196
:102010003B033A8329831B82BD82AC828E83CE012F
:102020000196ACCFE83CF10508F03EC0FE2CEE2056
:1020300009F4B5CF25132AC0941328C080913F031B
:1020400080FD1BC0982F907FC1F0F8018583903FE1
:1020500031F0982F907F905F8F70892B8583C80116
:102060000E94940B86E0F801AAE3B3E001900D9280
:102070008A95E1F70E947A0EFDCE86E0F801AAE388
:10208000B3E001900D928A95E1F7F4CEC8010E9469
:10209000E90B811175CF80913F03816080933F03ED
:1020A000C8010E94940BE6CE7A2DB98AA88A6E2DBB
:1020B00089890E94F00B86E0F60111928A95E9F772
:1020C000D9CFEE2009F46BCFC8010E94E90BF82E9E
:1020D000882309F464CF86E0F801AAE3B3E0019015
:1020E0000D928A95E1F78AE393E00E949D080E9491
:1020F000880EC0CF81E08E25D7CE1F93CF93DF937C
:10210000CDB7DEB72C970FB6F894DEBF0FBECDBFAC
:102110004F83588769877A878B879C87CE0107967C
:102120000E94DE0E882369F08A859B85892B39F011
:102130004F815885842F85238F3F09F071C016E0A9
:102140005FC086E0FE013796DE01119601900D9288
:102150008A95E1F78A859B85892B89F38F819885FC
:1021600089238F3F61F32091090330E0C901019673
:1021700087709927409108034817190671F40E9447
:10218000C60B109209031092080386E0EAE3F3E01D
:10219000DF011D928A95E9F7D2CF96E0929FD00198
:1021A000939FB00D1124A65FBC4FFE0131960190A4
:1021B0000D929A95E1F7809309030E94590EBFCFC3
:1021C000819FC0011124865F9C4F0E94DE0E8823F0
:1021D000E9F0E09108031E9FF0011124E65FFC4F37
:1021E0004081518162817381848195810E94FF0BBE
:1021F0008091080390E001968770992780930803E7
:1022000080910803909109038913DACF2C960FB6B9
:10221000F894DEBF0FBECDBFDF91CF911F9108951F
:1022200069857A858B859C850E94FF0B88CF682FF6
:1022300080910001909101010C94A51D682F80915F
:102240000001909101010C94B01D809100019091CA
:1022500001010C94BB1D8091400385958595859562
:10226000089580914003877008959091400397707E
:1022700081E009F480E008959091AD0392FB22275C
:1022800020F9281751F080FB92F99093AD038091CB
:10229000AC039091AD030C94411208958091AD036D
:1022A00082FB882780F991E089270C943C1181E01A
:1022B0000C943C1180E00C943C11809164030895CF
:1022C00090916403892B8093640308958095909185
:1022D000640398239093640308951092640308950F
:1022E00090916303892B8093630308958095909167
:1022F00063039823909363030895109263030895F2
:1023000090916203892B8093620308958095909148
:1023100062039823909362030895109262030895D4
:1023200080914103089508950C9493119091AD0309
:1023300092FD08C090914103981721F080934103CA
:102340000C949411089580914103882329F01092F0
:10235000410380E00C9494110895E0910001F09104
:102360000101809164038083E0910001F0910101FB
:10237000808190916303892B8083E0910001F0912B
:102380000101808190916203892B808390914103A8
:10239000992381F0E0910001F09101018081892B66
:1023A000808380910001909101010E94111D811193
:1023B0000E94A31180910001909101010C94CB1C0B
:1023C00008950C94E0119091AD0392FD10C098E037
:1023D000899F90011124622B609340030E94810C1D
:1023E000809140038595859585950C94E1110C9419
:1023F000810C1092400380E00C94E1119091400315
:102400008095892380934003282F277039F4282F43
:10241000082E000C330B9217130621F49091AD0394
:1024200092FF07C08595859585950E94A20C0C9416
:10243000F91108956FEF7FEF90E080E00C943B2559
:1024400090E080E00E94172521E0893E9E4F09F030
:1024500020E0822F089582E090E00C94092583E02B
:1024600090E00C940925CF9384E090E00E94092528
:10247000C82F82E290E00E940925982F8C2FCF91DF
:102480000895CF93C92F682F84E090E00E941D2506
:102490006C2F82E290E0CF910C941D25AB01BC0122
:1024A0008FE090E00C942F25AB01BC0183E190E01C
:1024B0000C942F2560E070E0CB010C94541260E086
:1024C00070E0CB010E944E120C945A1269EE7EEF1E
:1024D00090E080E00E943B2560E082E090E00E9476
:1024E0001D2560E083E090E00E941D25109204030A
:1024F00010920503109206031092070360E084E037
:1025000090E00E941D2560E082E290E00E941D257F
:1025100060E085E090E00E941D2560E086E090E0AC
:102520000E941D256FEF87E090E00E941D2540E08E
:1025300050E0BA0188E090E00E942F2560E08DE035
:1025400090E00E941D2540E050E0BA0188E190E053
:102550000E942F2560E087E190E00E941D2540E069
:1025600050E0BA018CE190E00E942F2570E060E01D
:1025700080E290E00E943B2540E050E0BA0188E113
:1025800090E00E942F250C945F120C946612682F25
:102590008EE090E00C941D250E945D1E60937403F4
:1025A0007093750380937603909377036093700321
:1025B000709371038093720390937303089585B7AA
:1025C000806885BF85B7806885BF089508950895A0
:1025D0000C94E6120C945F060E94DF1287EA95E1E4
:1025E0000E94C01E0E94E7120C94E81281E0089538
:1025F0000C94F612089508950E94FA120C94FB129E
:102600000E94481E0E94A6160E949F190C94EA126E
:102610008F929F92AF92BF92CF92DF92EF92FF92F2
:102620000F931F93CF93DF93CDB7DEB72A970FB6E3
:10263000F894DEBF0FBECDBF0E94CE1681110E945E
:10264000CC1256E6852E53E0952E10E000E0A02E29
:10265000802F0E94EA156C01F401E190F1904F0186
:10266000E816F90609F45AC08091780381FD0E94AA
:10267000F315C7018C259D25B12CEE24E394F12C94
:102680009C012E213F21232B09F442C00E94F81205
:102690008823A9F0BE82AF82CE20DF2081E0CD2842
:1026A00009F480E088870E94511E8160782F9A8704
:1026B00089874E815F8168858A850E945F08000F47
:1026C000111FF801EA59FC4F80819181E826F92613
:1026D000F182E0820E94BF1C909165038917A9F1E5
:1026E0000E94BF1C809365032A960FB6F894DEBF44
:1026F0000FBECDBFDF91CF911F910F91FF90EF9053
:10270000DF90CF90BF90AF909F908F900C94570820
:10271000B394EE0CFF1CFEE0BF12B2CF0F5F1F4F51
:102720000530110509F093CF8FEF89838A831B82CF
:102730000E94511E8160782F9D838C8349815A812C
:102740006B818D810E945F08C5CF2A960FB6F894E1
:10275000DEBF0FBECDBFDF91CF911F910F91FF90D4
:10276000EF90DF90CF90BF90AF909F908F900895A3
:1027700090E080E008950895972F70E02EE0929FFA
:10278000600D711D1124FB0196E4899FE00DF11D80
:102790001124EE0FFF1FE455FF4F8591949108958A
:1027A000FC01EE0FFF1FE050FD4F859194910895BD
:1027B000CF93DF930E94CD14EC01811521E59207A0
:1027C000D0F5811530E5930708F096C08115904249
:1027D000F8F4C11581E0D807B8F4C03ED10588F4FB
:1027E000C03CD10508F07BC0C130D10569F020970D
:1027F00059F0CE010497813A910530F0D0E0C0E065
:1028000003C0C83ED105D0F7CE01DF91CF91089526
:10281000C11590E4D90708F06CC0CE019F70C115B6
:1028200020E3D20708F45EC0CE019927D3FF5EC033
:10283000EC01D86CE9CF811535E5930700F58115DA
:1028400044E5940708F08DC0C11583E5D80708F06A
:1028500074C0C11592E5D90708F46AC0CE0183702F
:10286000992721E030E002C0220F331F8A95E2F75A
:10287000C695C69580E2C89FE001112455C0811518
:1028800029E59207A0F4811538E5930708F06EC09A
:10289000811546E5940708F0B1CF0E946415C82F52
:1028A000D0E0DC2FCC27CC27DF71D062ADCFC115B3
:1028B0008AE5D80708F45FC0CE0190568115904292
:1028C00008F09CCF8D2F8F710E94641590E0982F97
:1028D000882788279F719C012C2BE901E6CFCE0128
:1028E000805C91090E94D013EC018ECFEC01D06C7A
:1028F0008BCFDF70D06A88CFE4E096958795EA9514
:10290000E1F783702C2F26952695237040E2249FB3
:1029100090011124382B8C2F8370C1E0D0E002C0CD
:10292000CC0FDD1F8A95E2F7C22BD32BDC686CCF6E
:10293000DC2FCC27C16FD06A67CFCE018370992777
:1029400021E030E002C0220F331F8A95E2F7C695DE
:10295000C69590E2C99FE0011124C22BD32BDA68FF
:1029600053CFD82FCC27C46FD06A4ECFD82FCC27C7
:10297000C06FD06A49CF8C2F8F700E94641534E0ED
:10298000D695C7953A95E1F7CF709C2FEC01D069A9
:102990003BCF0E94BC130C94D81382389105B1F13F
:1029A000B0F48133910509F475C048F4893291057A
:1029B00009F469C08A32910509F473C0089585331A
:1029C000910509F459C08933910501F10895833EB9
:1029D0009105A9F138F4803E9105F9F0823E910508
:1029E00049F10895863E9105A9F1873E9105C9F107
:1029F000843E910519F52091AD0321FF1FC0809100
:102A0000AC0384FD14C087EE90E008952091AC03E0
:102A10002370A1F080EE90E008952091AC0320FD9A
:102A200047C03091AD0330FF09C024FF44C090E09F
:102A300080E004C02091AC0322FDF7CF08952091DF
:102A4000AC0322FD3BC03091AD0330FDE3CF24FF4A
:102A5000F5CFEDCF2091AC0323FFF0CF24FDE7CFDE
:102A6000D2CF2091AC0323FD2CC03091AD0331FFB8
:102A7000EECF84EE90E008952091AC0325FFDECFE9
:102A800089E290E008952091AC0325FFD7CF85E33C
:102A900090E008952091AC0326FFD0CF8AE290E029
:102AA00008952091AC0326FFC9CF81E390E00895FB
:102AB00089E390E0089583EE90E0089582EE90E03F
:102AC000089586EE90E008959091AC0392FF06C0C1
:102AD000282F28712830F9F4877F846093FF06C07F
:102AE000282F28712831F1F4877E84612091AD036D
:102AF00020FF06C0382F38713830D9F4877F8160C5
:102B000021FF06C0282F28712831D1F4877E8161EA
:102B100094FD877E0895282F24712430F9F68B7F49
:102B20008860DCCF282F2471243101F78B7E8861E7
:102B3000DDCF382F3171313019F78E7F8860E0CFCB
:102B4000282F2171213121F78E7E8861E1CF80E02D
:102B500008950C941A120E94CE168FE39CE90197F7
:102B6000F1F700C000000E94CE1680E00E94EA1536
:102B700080FF04C00E94A9150C949C1E08950C941B
:102B8000AB150E942012811102C00E94C5120E9442
:102B90002B12809378030E9433129093AD0380939D
:102BA000AC030E94BF150E942F12682F70E090E0C6
:102BB00080E00E941F0C60910003709101038091DE
:102BC0000203909103030C94590C0C945C06089535
:102BD0000C94E715E82FF0E0EE0FFF1FE854FC4FD0
:102BE000808191810895089580EA8A95F1F708958A
:102BF00000C008950C94F415F894E82FE295EF7056
:102C0000F0E031A1282F2F7081E090E001C0880F03
:102C10002A95EAF7982F9095932391A392A1892B57
:102C200082A378940895CF93DF93C8EBD2E0899183
:102C30008F3F11F00E94FC1582E0CD3BD807B9F719
:102C4000CAEAD2E089918F3F11F00E94FC1582E020
:102C5000C83BD807B9F7DF91CF910895AF92BF92E3
:102C6000CF92DF92EF92FF920F931F93CF93DF9358
:102C70008C01B62EC62FD0E0CE0188549D4F7C012A
:102C8000FC0120812F3F09F453C0F894E22FE29514
:102C9000EF70F0E031A12F7081E090E001C0880F6B
:102CA0002A95EAF7932F982B91A392A180958923D7
:102CB00082A378940E94F815EAEAF2E030E020E07E
:102CC000D12CC12C41E050E081918F3FE1F1A82F40
:102CD000A295AF70B0E090966C9170E08F7002C0DA
:102CE000759567958A95E2F760FD2DC0CA01022EA1
:102CF00002C0880F991F0A94E2F7C82AD92A2F5FC9
:102D00003F4F2E30310501F7F70180818F3F11F0E1
:102D10000E94FC1561E0C114D10409F460E08B2D20
:102D20000E94FA15CC0FDD1FC00FD11FD982C882B7
:102D3000DF91CF911F910F91FF90EF90DF90CF9097
:102D4000BF90AF90089590E080E0D7CF0E94131617
:102D5000AEEAB3E011961C921E92E8EBF3E011820A
:102D6000108213961C921E9212971382128215964D
:102D70001C921E9214971582148217961C921E9212
:102D800016971782168219961C921E921897118612
:102D9000108685E00E9419170C941007FF920F937C
:102DA0001F93CF93DF93CDB7DEB72A970FB6F89472
:102DB000DEBF0FBECDBF8E010F5F1F4F8AE0F8014F
:102DC00011928A95E9F7F12C6F2DC8010E942E16F9
:102DD000F394F5E0FF12F8CF4AE050E0B8018EEA34
:102DE00093E00E94FC24FF24F394009709F4F12C53
:102DF000892B41F08AE0F801AEEAB3E001900D9230
:102E00008A95E1F72F2D45E068EB73E08EEA93E0B9
:102E10000E941A170E9416078F2D2A960FB6F89453
:102E2000DEBF0FBECDBFDF91CF911F910F91FF90FD
:102E300008950895FF920F931F93CF93DF93F82E79
:102E4000092F162FD72FC42F222349F081E080931A
:102E50007B030E94511E90937A03809379038091A3
:102E60007B038823A1F08091790390917A030E94DB
:102E7000691E059760F0EF2DF02FA12FBD2F90E078
:102E800080E0D0E08C179D0744F010927B03DF9127
:102E9000CF911F910F91FF900895219131912D9322
:102EA0003D930196EFCF0E94CD1D0E94E01F0E942E
:102EB000F91F0E940B200E94FC12FBCFEF92FF92A1
:102EC0000F931F93CF93DF93EB01E82FD11110C025
:102ED000442321F0F0E0E050FD4FE4916E2F7E2F6F
:102EE0008E2FDF91CF911F910F91FF90EF9008955A
:102EF0000D2F10E0282F30E0442329F020503D4FC3
:102F0000F901249130E0F6E0CF9FC0011124EFEFEA
:102F1000F0E0BF010E94E224AB018C2F90E0880F0B
:102F2000991FA5E5A49FB001A59F700D1124861BD4
:102F3000970B982F990F980FBF01601B710B629F21
:102F4000D001639FB00D729FB00D11248B2F9D9FF8
:102F5000B0011124672F7727EF01C61BD70BBE01E5
:102F6000629FE001639FD00D729FD00D11247F01FD
:102F7000E91AF108E09EB001E19E700DF09E700D1F
:102F80001124672F7727E61BF70BE29F8001E39F51
:102F9000100DF29F100D1124E12F722F42305105B8
:102FA00099F048F44115510569F04130510581F01F
:102FB000EB2F8D2F07C04430510569F080F046306B
:102FC0005105B1F76E2F8DCFE22F7B2F812FFACFD6
:102FD000E22F7D2FF7CFEB2F822F712FF3CF7B2F97
:102FE000822FED2FEFCF41E00C945E170C94F31776
:102FF000CF93DF93762FE901682F842F0E94F61775
:10300000798368838A83DF91CF9108958091C20389
:10301000982F9E7F39F48091C203817082608093E3
:10302000C20308958430B8F7089588E090E00C94C6
:103030001125CF92DF92EF92FF926B017C010E94EB
:103040000618B701A60188E090E0FF90EF90DF90AE
:10305000CF900C942F25E2ECF3E083E08083118283
:103060008FEF828383831482608171818281938157
:103070000C9419189091C603933018F49F5F9093A5
:10308000C603882351F06091C2037091C3038091FD
:10309000C4039091C5030C941918089581E00C9411
:1030A0003A189091C603992319F091509093C60352
:1030B000882351F06091C2037091C3038091C403CF
:1030C0009091C5030C941918089581E00C9451183F
:1030D00070E00C94831A609103018091C20380FF19
:1030E0000AC08091020123E0829FC001112489530C
:1030F0009C4F0C946818809104019091050123E085
:10310000829FF0011124E953FC4F891750F7118277
:10311000108212828F5F3396F8CFE2ECF3E0808169
:103120008E7F808360817181828193810E941918D2
:103130002FEF80E792E0215080409040E1F700C0FF
:1031400000000C946B189091C20390FF14C09091F2
:1031500004012091050133E0939FF0011124E9530C
:10316000FC4F921710F00C946B188183608342839C
:103170009F5F3396F6CF0895EF92FF920F931F93C0
:10318000CF93DF9300D00F92CDB7DEB7F82E062F86
:10319000142FE22E8091C20380FF28C0E82FE6950D
:1031A000F0E0E354FD4F908190937D038E7F823059
:1031B00059F49E012F5F3F4F8F2D0E94F8174B81CE
:1031C00069818A810E94A318F092C3030093C4030B
:1031D0001093C503EE2051F06091C2037091C303B8
:1031E0008091C4039091C5030E9419180F900F900D
:1031F0000F90DF91CF911F910F91FF90EF90089565
:10320000E2ECF3E09181282F438162818AE0890F0B
:103210000C94BC1881E00C940019E2ECF3E091816D
:10322000282F4381628186EF890F0C94BC1881E0BE
:103230000C940D19E2ECF3E0628121E1620F08F4D5
:103240006FEF282F438181810C94BC1881E00C948E
:103250001A19E2ECF3E0628121E1621B08F460E0FC
:10326000282F438181810C94BC1881E00C9429198A
:10327000E2ECF3E0438121E1420F08F44FEF282F05
:10328000628181810C94BC1881E00C943819E2ECC5
:10329000F3E0438121E1421B08F440E0282F6281E2
:1032A00081810C94BC1881E00C94471920E00C94A7
:1032B000BC188091C20380FF18C081708260809327
:1032C000C203662351F06091C2037091C3038091E1
:1032D000C4039091C5030E9419184091C5036091E1
:1032E000C4038091C3030C9456190895682F81E09C
:1032F0000C94591981E00C947619682F9091C203AF
:1033000096958FEF890F09F481E00C94591981E0AB
:103310000C947D1961E00C945919E2ECF3E0808182
:103320008160808386950C948A198091C20380FD08
:103330000C948D180C948D1960E00C94591980919F
:103340007C0381112CC00E942012811104C00E94B4
:10335000C5120E942B180E9415186093C203709327
:10336000C3038093C4039093C5036E7F61F40E94EE
:103370002B180E9415186093C2037093C3038093A7
:10338000C4039093C5030E9406188091C20380FF76
:1033900003C086950E949C1981E080937C03089568
:1033A0009091C20390FF0FC02D3068F430E0F90116
:1033B000EE0FFF1FE20FF31FE953FC4F8183608381
:1033C00042830C946B1808951F93CF93DF9300D022
:1033D0000F92CDB7DEB7122F9091C20390FF0BC0B2
:1033E0009E012F5F3F4F0E94F817212F4B8169816B
:1033F0008A810E94D0190F900F900F90DF91CF918A
:103400001F910895FA01811101C0FB0109940F93E6
:103410001F93CF938C01FB01C281CC2309F471C0AF
:103420000E945D1182720A3CFCE51F0709F460C02E
:1034300048F5063CECE51E0709F455C078F4043C59
:103440009CE5190709F443C008F048C0033C1C453B
:10345000D9F18C2FCF911F910F91089545E359E138
:1034600066E279E1083C9CE51907A9F14AE059E1D7
:1034700067E179E1093C1C4570F146E259E165E3F9
:1034800079E129C00E3CFCE51F07B9F1A0F445E63F
:1034900058E16EE478E10C3CECE51E07E1F044E411
:1034A00059E163E579E10D3C1C45A8F04EE458E193
:1034B00065E678E110C0073D8CE5180718F00E3579
:1034C0001D4539F6C0E0C5CF0E949519FBCF47E8EE
:1034D00059E16AE779E10E94021AF4CF4AE759E11B
:1034E00067E879E1F8CF47E159E16AE079E1F3CFA4
:1034F00043E559E164E479E1EECF81E00E948A1965
:10350000E1CFC1E0A6CF869A41B34F7B51B350645F
:10351000EFB7F8949B01220F331F260F371F280F98
:10352000391F2817390741F4EFBF8FE594E0019761
:10353000F1F700C000000895DC016D91CD0178E045
:1035400051BB000000C067FF41BB660F000000C018
:1035500000C000C041BB00C07A9591F7E2CF0F9345
:103560001F93CF93DF93C42FD22FFC018281882336
:10357000C9F0409381030E94511E90938003809371
:103580007F0380E28C0F883008F050C0C77081E064
:1035900001C0880FCA95EAF7DF91CF911F910F9173
:1035A0000C94800910918103141335C080917F031E
:1035B000909180030E94691E883C910560F5C0E2ED
:1035C000CD0F1D17B9F080E2810F883040F41770DD
:1035D00081E001C0880F1A95EAF70E948709C83078
:1035E00048F481E09D2F977001C0880F9A95EAF703
:1035F0000E948009802F0E947809C830B8F4D770E3
:1036000081E001C0880FDA95EAF7DF91CF911F9131
:103610000F910C94870980E28C0F883038F4C770C2
:1036200081E001C0880FCA95EAF7EFCFDF91CF9113
:103630001F910F9108950F939C01CB01243F4CE5FE
:10364000340759F1A8F4293DFCE53F0701F12A3D73
:103650004CE53407D1F1283D3C4591F406E221EEDA
:1036600041EE68ED7CE50E94AF1A80E00F9108956D
:10367000263FFCE53F07E9F0B0F0273F3C45F9F075
:10368000FC018281882339F110928103EFCF07E298
:1036900025EE45EE69ED7CE5E6CF06E221EE40EE53
:1036A00064EF7CE5E0CF07E225EE44EE65EF7CE5D4
:1036B000DACF06E221EE42EE66EF7CE5D4CF07E2F8
:1036C00025EE46EE67EF7CE5CECF08E221E045EE41
:1036D0006AED7CE5C8CF81E0C9CFCF93DF93EC01E1
:1036E000FB018281882309F419C1C230FCE5DF07A0
:1036F000C0F1C6319CE5D90730F09E012B5F3C45F7
:103700002930310570F50E9433129093AD038093F8
:10371000AC03C031ECE5DE0709F4CFC008F05BC0B4
:10372000C8308CE5D80709F4B6C088F5C430ECE59C
:10373000DE0709F4A8C0C0F4C2308CE5D80709F44C
:103740009CC08091AC038260C330DC4509F498C012
:103750008091AC039091AD030E9441120E94C60B70
:1037600080E0DF91CF9108958091AC038061C630F5
:10377000ECE5DE0709F484C08091AC038860C730B3
:10378000DC4508F47DC08091AC03806279C0CC3008
:103790008CE5D80709F489C070F48091AC038C6083
:1037A000CA30ECE5DE0709F46BC008F478C08091FC
:1037B000AC038E7F65C0CE308CE5D80709F479C0A4
:1037C0008091AC038B7FCF30DC4508F459C08091E9
:1037D000AC038F7E55C0CC3FECE5DE0709F457C043
:1037E00030F5C3318CE5D80709F46FC078F4C131E6
:1037F000ECE5DE0709F465C0C231DC4509F0A8CF6D
:103800000E94C60B8091AC038F773AC0C5318CE51E
:10381000D80709F462C008F476C08091AD038160D6
:10382000CB3FDC4509F094CF8093AD0391CFC11518
:10383000FDE5DF0709F44DC088F48091AD038D7F6D
:10384000CE3F9CE5D90781F38091AD038E7FCF3FBA
:10385000DC4550F38091AD038360E6CFC230FDE5D7
:10386000DF0709F459C008F444C080E0C330DD45E7
:1038700009F06ECF0E94C7126BCF8091AC038160BC
:103880008093AC0365CF8091AC038460F9CF8091C5
:10389000AD038260C9CF8091AC038064F1CF0E94F8
:1038A000C60B8091AC038068EBCF8091AC038D7F19
:1038B000E7CF8091AC03877FE3CF8091AC038F7D0E
:1038C000DFCF8091AC038F7BDBCF8091AC03837F14
:1038D000D7CF8091AD038C7FA7CF8091AC0382FBC3
:1038E000992790F921E0922790FB82F990FB83F9C8
:1038F000C7CF8091AD03982F909591708E7F892BC3
:1039000090FB81F991CF0E94C60B9091AC03892F57
:1039100097FB87F98058B4CF81E0ACCF81E021CF0D
:10392000CF93DF93EB0186319C4511F50E945D1129
:103930009A81992399F08A7A91E009F490E0909322
:103940008203811109C089E20E9417110E94AD1102
:1039500080E0DF91CF91089585E3F6CF80918203D7
:10396000811104C089E20E941E11F0CF85E3FBCFD4
:1039700081E0EFCF90938803809387030895E091CF
:103980008703F0918803309721F00190F081E02DBA
:10399000099480E00895E0918703F09188033097BF
:1039A00099F020911101222359F02091AC0327FFB7
:1039B00007C0DC012C9111962C93119725E02C93D4
:1039C0000280F381E02D09940895209185033091C0
:1039D00086032817390771F0909386038093850337
:1039E000E0918703F0918803309721F00680F781FA
:1039F000E02D0994089520918303309184032817C2
:103A0000390771F09093840380938303E0918703D7
:103A1000F0918803309721F00084F185E02D09941E
:103A20000895FC01329680911101882321F0809144
:103A3000AC039EE187FF96E080E0915008F4089582
:103A400021912223D1F38F5FF8CF662301F12091DA
:103A500011012223F1F02091AC0327FF1AC0462F59
:103A60004695469546954E3190F4677021E030E0DA
:103A700002C0220F331F6A95E2F7840F911DFC01EB
:103A8000828190E02823392381E0232B69F480E0B0
:103A90000895FC01329608962191261721F0E81727
:103AA000F907D1F7F4CF81E008959C01FC0132962B
:103AB0009FEF80E04191461751F09F3F19F441116B
:103AC00001C0982F8F5F8630A9F79F3F09F40895B2
:103AD000290F311D97FD3A95F90162830895FC0184
:103AE000329608962191261303C0DF0111971C928C
:103AF000E817F907B9F70895E62FE695E695E695F4
:103B0000EE3168F4E80FF92FF11D677021E030E025
:103B100001C0220F6A95EAF78281822B8283089581
:103B2000E62FE695E695E695EE3170F4E80FF92F6D
:103B3000F11D677021E030E001C0220F6A95EAF7BD
:103B40002095828128232283089520911101222328
:103B500029F02091AC0327FD0C947C1D0C94551D7D
:103B600020911101222329F02091AC0327FD0C9410
:103B7000901D0C946F1DFC013296809111018823D9
:103B800051F08091AC0387FF06C08EE1DF011D92EA
:103B90008A95E9F7089586E0F9CF08950895089584
:103BA0000C94CF1D8091F603843049F10E94D01D02
:103BB00080E00E9457081092890388E190E020E499
:103BC0000FB6F894A895809360000FBE2093600014
:103BD00083B7817F846083BF83B7816083BF78941C
:103BE000889583B78E7F83BF0FB6F894A895809190
:103BF0006000886180936000109260000FBE08959D
:103C00000895CF930E94CE1D0E94CE160E94001EE2
:103C1000C0E08C2F0E94EA15892B31F4CF5FC530AC
:103C2000C1F780E0CF91089581E0FCCF08950C9416
:103C3000161E0E94C60B0E94BF1C0E9457080C94BF
:103C4000171E1F921FB61F9211248F939F93AF933D
:103C5000BF9380918903811113C08091EE039091ED
:103C6000EF03A091F003B091F1034196A11DB11DA6
:103C70008093EE039093EF03A093F003B093F103CE
:103C8000BF91AF919F918F911F901FBE1F9018956C
:103C900082E084BD93E095BD9AEF97BD80936E005E
:103CA00008952FB7F8948091EE039091EF03A091BF
:103CB000F003B091F1032FBF08952FB7F8946091EE
:103CC000EE037091EF038091F0039091F1032FBF09
:103CD00008959C014FB7F8948091EE039091EF0303
:103CE000A091F003B091F1034FBF821B930B089595
:103CF00078941F921FB61F9211248F939F93AF93B6
:103D0000BF938091EE039091EF03A091F003B091E7
:103D1000F1030196A11DB11D8093EE039093EF0373
:103D2000A093F003B093F103BF91AF919F918F9156
:103D30001F901FBE1F90189581E08093E00080E2E5
:103D40008093D8001092C9008FE19EE40197F1F7AB
:103D500000C0000087E090EBDC018093FF039093AC
:103D60000004A0930104B093020488E19CE00FB624
:103D7000F894A895809360000FBE90936000FFCFE9
:103D80009093C1028093C00208958091AA03089580
:103D90000895CF93DF93EC01809111018823B1F155
:103DA0008091AC0387FF32C060E282E08093E9003B
:103DB0008FEF9091E800815095FD06C095ED9A95A2
:103DC000F1F700008111F5CF8091E80085FF1BC05D
:103DD0008091110170E050E040E0811104C050E09A
:103DE00040E068E070E0CE010E9498208091E800F9
:103DF0008E778093E80080E2FE01AAE8B3E00190AC
:103E00000D928A95E1F7DF91CF91089568E081E006
:103E1000CDCF089508958091F503811109C00E94C6
:103E20002A220E9487228091E20084608093E2002F
:103E300008951092F503089508950895089542E0B5
:103E400061EC81E00E94A62142E261EC82E00C94E8
:103E5000A6218091F803833009F45FC030F48130EB
:103E6000C1F1823009F49BC008958A3009F487C0FB
:103E70008B3009F46DC0893009F04EC08091F70392
:103E8000813209F049C08091FB039091FC030297B5
:103E900008F042C08091E800877F8093E80080911D
:103EA000E80082FF35C09091F3008091F200029704
:103EB00029F48091F1008B7F813021F48091F10011
:103EC0008093AA038091E8008B778093E8000C949C
:103ED000DA218091F703813AF9F48091E800877F35
:103EE0008093E8008091FB039091FC03892B61F49F
:103EF00060E28AE893E070E00E94E9208091E800A7
:103F00008B778093E800089560E090E080E0F3CF45
:103F10008091F6038111C3CF08958091F703813A10
:103F2000D9F78091FB039091FC03892BA9F780912D
:103F3000E800877F8093E8008091E80080FFFCCF55
:103F4000809111018093F1008091E8008E77BDCFC0
:103F50008091F703813201F78091FB039091FC037C
:103F6000892BD1F68091E800877F8093E8000E943A
:103F7000DA218091F903809311010C94C60B809192
:103F8000F703813249F68091E800877F8093E8004B
:103F90000E94DA218091FA038093AB030895809107
:103FA000F703813A09F0B8CF8091E800877F8093CA
:103FB000E8008091E80080FFFCCF8091AB03C2CF86
:103FC00084B7877F84BF0FB6F894A895809160006E
:103FD000886180936000109260000FBE80E890E0DE
:103FE0000FB6F89480936100909361000FBE0C941B
:103FF000EC120E942A220E948722E2EEF0E08081E9
:104000008460808378940E94C7240E94001387E014
:1040100091E00C94BA1C8091F603853031F48091C4
:10402000F603853031F00E94191E0E9408130C948B
:10403000C7240E94D21D8091F403882381F30E943B
:10404000011E882361F30E9482200E94C60BE7CFE5
:104050000C942A20292F33272330310519F168F4D5
:104060002130310509F444C02230310509F445C03E
:1040700090E080E030E020E025C02132310549F1B8
:1040800022323105A9F780E490E028ED34E0611593
:104090007105C1F08BE390E02DE934E061307105EA
:1040A00089F0E6CF99278130910581F0009729F0BA
:1040B0000297F1F6E0E0F4E002C0ECE4F4E0849171
:1040C00090E09F01FA01318320830895EEE3F4E04C
:1040D000F6CF89E090E022E634E06115710591F3B6
:1040E00089E090E02BE734E06130710559F3C0CFEF
:1040F00082E190E02BE834E0E5CF8BE390E020E52F
:1041000034E0E0CF80E189BD82E189BD09B400FEE1
:10411000FDCF8091D8008F7D8093D8008091E00002
:1041200082608093E0008091E00081FDFCCF0895E3
:10413000AF92BF92CF92DF92FF920F931F93CF93D4
:10414000DF936C01EB018A010E94F921F82E8111A5
:1041500025C00115110539F0F80180819181C81B36
:10416000D90BC80ED91EB12CA12C2097B9F0809183
:10417000E80085FD24C08091E8008E778093E800F8
:104180000E94C72401151105A1F0F80180819181D9
:10419000A80EB91EB182A08285E0F82E8F2DDF9186
:1041A000CF911F910F91FF90DF90CF90BF90AF9074
:1041B00008950E94F9218823C1F2F82EEFCFF6016D
:1041C00081916F018093F1002197FFEFAF1ABF0A31
:1041D000CCCFFC018091FD039091FE0386179707D9
:1041E000A0F06115710529F49091E8009E779093F5
:1041F000E80090E06115710551F4911108C08091BB
:10420000E80082FF34C080E00895BC01F2CF8091C5
:10421000F6038823C1F18530C1F18091E80083FD68
:1042200030C08091E80082FDEACF8091E80080FFF5
:10423000E1CF8091F3002091F200382F61157105D4
:1042400019F02830310558F091E02830310509F097
:1042500090E02091E8002E772093E800CBCF819169
:104260008093F100615071092F5F3F4FE7CF80913C
:10427000F603882341F0853041F08091E80083FF08
:10428000BECF81E0089582E0089583E00895FC01A7
:104290008091FD039091FE0386179707A0F06115AA
:1042A000710529F48091E8008E778093E80090E012
:1042B0006115710551F4911108C08091E80082FFE9
:1042C00035C080E00895BC01F2CF8091F6038823C9
:1042D000C9F18530C9F18091E80083FD31C080913A
:1042E000E80082FDEACF8091E80080FFE1CF809175
:1042F000F3002091F200382F6115710519F0283074
:10430000310558F091E02830310509F090E08091B6
:10431000E8008E778093E800CBCF84918093F10002
:104320003196615071092F5F3F4FE6CF8091F603C0
:10433000882341F0853041F08091E80083FFBDCFB4
:1043400081E0089582E0089583E00895982F9730E2
:1043500028F08F708093E90081E008959093E90040
:10436000242F762F50E0981731F07091EC002091B7
:10437000ED005091F00021FD02C09F5FE8CF309129
:10438000EB003E7F3093EB003091ED003D7F3093AA
:10439000ED003091EB0031603093EB007093EC0056
:1043A0002093ED005093F0002091EE0027FDE5CF23
:1043B00080E008958091F70387FF13C08091E800A3
:1043C00082FF06C08091E8008B778093E80004C0EC
:1043D0008091F6038111F2CF08958091F60388232E
:1043E000D9F38091E80080FFF8CF8091E8008E77C4
:1043F000ECCF2091E4003091E50095E6A9012091F1
:10440000EC00822F817020FF06C08091E80080FFC1
:1044100006C080E008952091E80022FD1AC0809136
:10442000F603882389F0853089F08091EB0085FDC3
:104430000FC02091E4003091E50042175307F9F2D4
:104440009150E1F684E0089582E0089583E00895B4
:1044500081E008950E9498220E94A022E0EEF0E000
:10446000808181608083E8EDF0E080818F778083B8
:1044700019BCA7EDB0E08C918E7F8C9380818F7EEC
:1044800080831092F50308950F931F93CF93DF93CA
:104490000E9498220E94A022C8EDD0E088818F77E8
:1044A000888388818068888388818F7D888319BC10
:1044B0001092F6031092F2031092F4031092F30399
:1044C00000EE10E0F80180818B7F8083888181601D
:1044D000888342E060E080E00E94A621E1EEF0E007
:1044E00080818E7F8083E2EEF0E080818160808336
:1044F000808188608083F80180818E7F80838881BD
:1045000080618883DF91CF911F910F910895E8ED2D
:10451000F0E080818F7E8083E7EDF0E08081816034
:10452000808384E082BF81E08093F5030C94442271
:10453000E8EDF0E080818E7F80831092E2000895A4
:104540001092DA001092E10008951F920F920FB6B8
:104550000F9211242F933F934F935F936F937F9309
:104560008F939F93AF93BF93EF93FF938091E1005D
:1045700082FF0BC08091E20082FF07C08091E100C2
:104580008B7F8093E1000E94C6248091DA0080FF37
:1045900019C08091D80080FF15C08091DA008E7F0D
:1045A0008093DA008091D90080FF91C080E189BDBD
:1045B00082E189BD09B400FEFDCF81E08093F6035E
:1045C0000E940B1F8091E10080FF19C08091E200E2
:1045D00080FF15C08091E2008E7F8093E200809181
:1045E000E20080618093E2008091D8008062809335
:1045F000D80019BC85E08093F6030E941D1F8091AE
:10460000E10084FF2BC08091E20084FF27C080E19D
:1046100089BD82E189BD89B5982F917080FFFBCF5C
:104620008091D8008F7D8093D8008091E1008F7EAB
:104630008093E1008091E2008F7E8093E200809180
:10464000E20081608093E2008091F203882309F404
:1046500044C084E08093F6030E941E1F8091E10015
:1046600083FF24C08091E20083FF20C08091E1009D
:10467000877F8093E10082E08093F6031092F2033B
:104680008091E1008E7F8093E1008091E2008E7F37
:104690008093E2008091E20080618093E20042E03A
:1046A00060E080E00E94A6210E941C1FFF91EF9114
:1046B000BF91AF919F918F917F916F915F914F913A
:1046C0003F912F910F900FBE0F901F90189519BC1E
:1046D0001092F6030E94191F75CF8091E30087FDA9
:1046E00093E09093F603B8CF1F93CF93DF93CDB7AA
:1046F000DEB7AA970FB6F894DEBF0FBECDBF87EF27
:1047000093E02091F100FC012193CF01F3E08F3F72
:104710009F07B9F70E94291F8091E80083FF1EC1FF
:104720008091F7039091F8039A3008F017C1E92FB0
:10473000F0E0E550FA4D0C94F624803899F0823878
:1047400009F00CC18091FB038F70873008F006C11F
:104750008093E9008091EB0085FB882780F9109217
:10476000E90006C08091F3039091F40391118260F7
:104770009091E800977F9093E8008093F100109269
:10478000F1008091E8008E77E5C0882309F4D3C05A
:10479000823009F0E3C08091F9038111D6C0809185
:1047A000FB038F702FEF280F263008F0D7C08093BF
:1047B000E9002091EB0020FFC8C0933031F48091D4
:1047C000EB0080628093EB00C0C09091EB009061A1
:1047D0009093EB0021E030E001C0220F8A95EAF7C8
:1047E0002093EA001092EA008091EB008860EACF03
:1047F0008111B4C01091F9031F778091E300807894
:10480000812B8093E3008091E800877F8093E8000C
:104810000E94DA218091E80080FFFCCF8091E300C4
:1048200080688093E30082E0111183E08093F603B7
:1048300095C08058823008F091C08091F903909122
:10484000FA038C3D23E09207A1F583E08A838AE294
:1048500089834FB7F894DE01139620E03EE051E2E1
:10486000E32FF0E050935700E49120FF03C0E2955E
:10487000EF703F5FEF708E2F90E0EA30C0F0C79688
:104880008D939D932F5F243159F74FBF8091E8009E
:10489000877F8093E8006AE270E0CE0101960E9473
:1048A000E9208091E8008B778093E80057C0C0969C
:1048B000E7CF6091FB037091FC03AE014F5F5F4F48
:1048C0000E942820BC01892B09F448C09091E8007F
:1048D000977F9093E80089819A810E944721E1CFD8
:1048E0008038E1F58091E800877F8093E80080912F
:1048F000F2038093F10045CF811130C09091F9030C
:10490000923060F58091E800877F8093E800909373
:10491000F2030E94DA218091F203882311F084E0EF
:1049200005C08091E30087FDFACF81E08093F60314
:104930000E941F1F13C08091F903813079F481E038
:10494000933009F080E08093F4031092E9008091A5
:10495000E800877F8093E8000E94DA218091E800D8
:1049600083FF0AC08091E800877F8093E8008091F0
:10497000EB0080628093EB00AA960FB6F894DEBF3E
:104980000FBECDBFDF91CF911F9108950895CF93B2
:104990008091F6038823A1F0C091E900CF70909137
:1049A000EC00892F817090FD80E8C82B1092E900FF
:1049B0008091E80083FD0E947423CF70C093E900CA
:1049C000CF910895AA1BBB1B51E107C0AA1FBB1FB3
:1049D000A617B70710F0A61BB70B881F991F5A958B
:1049E000A9F780959095BC01CD010895EE0FFF1FAA
:1049F0000590F491E02D0994FB01DC0104C08D9138
:104A00000190801921F441505040C8F7881B990B40
:104A10000895F999FECF92BD81BDF89A992780B586
:104A20000895A6E1B0E044E050E00C944325A8E1ED
:104A3000B0E042E050E00C944325262FF999FECFD8
:104A400092BD81BDF89A019700B4021639F01FBAE1
:104A500020BD0FB6F894FA9AF99A0FBE08950396FE
:104A6000272F0E941E250E941D25252F0E941E25EE
:104A7000242F0C941E250196272F0E941E250C948E
:104A80001D25DC01CB01FC01F999FECF06C0F2BD6A
:104A9000E1BDF89A319600B40D9241505040B8F7FC
:104AA0000895F894FFCF28032C032F033203350316
:104AB00038033B033E034103440347034A037103A6
:104AC0004D0350035303560359035C035F03620312
:104AD000650368036B036E03740377037A037D0336
:104AE00080038303860389038C038F03920395035A
:104AF00098039B039E03A103A403A703AA03AD038A
:104B0000B003D603DA03DD03E003E303E603E903BE
:104B1000EC03EF03F203F503F8031904FB03FE03B0
:104B20000104040407040A040D0410041304160409
:104B3000E003E3031C041F042204250428042B04BF
:104B40002E0431043404C40437043A043D04400400
:104B50004304460449044C044F0452045504D6034C
:104B6000DA03DD03E003E303E603E903EC03EF0309
:104B7000F203F503F8031904C4046A046D04700415
:104B80007304760479047C047F0482048504E003C2
:104B900088048B048E049104940497049A049D0461
:104BA000A004A304A604C404A904AC04AF04B20482
:104BB000B504B804BB04BE04C104C209C2091A0A80
:104BC0001A0AEF09EF09EF09EF096C0AF80A070B57
:104BD000070B630BEF09EF096C0BD50BD50BDE0B45
:104BE000DE0BE00BDE0BDE0BDE0BD50BD50BE50B86
:104BF000DE0BDE0BE50B9D23C523AE24C523AE24BF
:0A4C0000F8231924AE2470247C244C
:104C0A004203000D000D0DC51EC91E091FC81E0A4C
:104C1A001F013100330034003500360037003800F8
:104C2A0030002D000102E12D0103E1002E006B612D
:104C3A00007461006B6F0073610072610074690037
:104C4A006B7500010139010136010139002C003B65
:104C5A000001013901018701013900736900746596
:104C6A00006B6500736500686100746F006B690012
:104C7A006E6E0001012A0001013901013701013973
:104C8A00006869007375006875006865006D6500E5
:104C9A00736F006E6500686F002F002000010139F4
:104CAA000102E10101380103E10101390001013981
:104CBA00010138010139000101390102E101012E26
:104CCA000103E1010139005D00010132000102E145
:104CDA005D0103E1000102E10101320103E100018A
:104CEA0002E10101340103E10028000102E10101AE
:104CFA00870103E1000102E13B0103E10078610061
:104D0A0072690078796100726500706100646900F7
:104D1A00677500647500706900776F006E610078CE
:104D2A007975006D6F00626100646F0067690070D9
:104D3A006F00787500726F007869007075007A6F7D
:104D4A0000706500626F003F006761006461006780
:104D5A006F007A61006E69007275006D6100786596
:104D6A00005B007675007A69006465006765007A01
:104D7A0065006D69006E6F0078796F007874750050
:104D8A0027006269007A75006275006265006E75B7
:104D9A00006D7500776100786F0001018B000101D9
:104DAA00910001018A0001019000F0F1C6676636A0
:104DBA009431373534979633909192939500010048
:00000001FF
