:100000000C9407020C944E020C944E020C944E0277
:100010000C944E020C944E020C944E020C944E0220
:100020000C944E020C944E020C9429240C944E0213
:100030000C943C1E0C944E020C944E020C944E02F6
:100040000C944E020C94CD0A0C944E020C944E0269
:100050000C944E020C94871E0C944E020C944E028B
:100060000C944E020C944E020C944E020C944E02D0
:100070000C944E020C944E020C944E020C944E02C0
:100080000C944E020C944E020C944E020C944E02B0
:100090000C944E020C944E020C944E020C944E02A0
:1000A0000C944E020C944E020C944E0229001E0039
:1000B000385D200021002200395D3A5D3B5D3C5DEA
:1000C0003D5D3E5D3F5D2A002B0014001A000800D4
:1000D000150017001C0018000C001200130030005F
:1000E0003200405DE00004001600070009000A002D
:1000F0000B000D000E000F00415D425D0000280066
:10010000E10000001D001B000600190005001100A1
:1001100010003600370038000000E5000251E3000F
:10012000E200000000002C002C0000000000000095
:10013000E600E7006542E4002900085D095D0A5D0C
:100140000B5D0C5D0D5D0E5D0F5D105D115D125D53
:10015000135D2A002B00155D165D175D185D195D96
:100160001A5D1B5D1C5D1D5D1E5D1F5D205D145DC8
:10017000E000215D225D235D245D255D265D275D18
:10018000285D295D2A5D2B5D00002800E10000004C
:100190002C5D2D5D2E5D2F5D305D315D325D335DFB
:1001A000345D355D0000E5000251E300E20000002F
:1001B0000000375D365D0000000000000100010016
:1001C00001000100435D3A003B003C003D003E0061
:1001D0003F004000410042004300440045004C0005
:1001E0000100010001000100010001004A004E0071
:1001F0004B004D00460001004800010001000100D5
:1002000001000100010001005000510052004F00A8
:1002100049004C0000002800E1000000010001003E
:1002200001000100010001000100010001000100C6
:100230000000010002510100010000000000455DC6
:10024000445D000000000000010001000100010009
:1002500000000000000000002A2B28000000000021
:100260000000000000000000000000290000000065
:100270002C1E3420212224342627252E362D3738D3
:10028000271E1F202122232425263333362E3738DC
:100290001F0405060708090A0B0C0D0E0F1011129A
:1002A000131415161718191A1B1C1D2F3130232D66
:1002B000350405060708090A0B0C0D0E0F10111264
:1002C000131415161718191A1B1C1D2F3130354C15
:1002D000000000000000000000000000000000001E
:1002E000000000007E0F00D4FFFFFFC70000007871
:1002F0000403300000003C03580044003600300086
:10030000200033002E00300020004E004900430042
:100310004F004C00410020004F007900610079003F
:1003200075006200690020005300680069006600E3
:10033000740000000C0358004900550044004900B7
:1003400000000403090409023B00020100A0FA09AD
:1003500004000001030101000921110100012240F4
:10036000000705810308000A0904010001030000D9
:1003700000092111010001223B0007058203200032
:100380000A120110010000000844786363010001B3
:1003900002030105010906A1018505050719E029E8
:1003A000E715002501950875018102050719002947
:1003B000EF1500250195F075018102050819012945
:1003C00005950575019102950175039101C005011F
:1003D0000906A101050719E029E71500250195087F
:1003E000750181029501750881010507190029FF32
:1003F000150026FF009506750881000508190129DA
:1004000005950575019102950175039101C01124AF
:100410001FBECFEFDAE0DEBFCDBF04B603FE27C0BC
:100420008091E7039091E803A091E903B091EA037A
:100430008730904BA740B04BD1F41092E703109255
:10044000E8031092E9031092EA0314BE84B7877F91
:1004500084BF0FB6F894A89580916000886180935E
:100460006000109260000FBEE0E0F8E3099512E032
:10047000A0E0B1E0E4ECFEE402C005900D92A83BE0
:10048000B107D9F723E0A8EBB2E001C01D92A73E67
:10049000B207E1F70E9456210C94AE260C9400009E
:1004A0008093C40280E494E00C94A70A8091C50272
:1004B00008951092C2021092B9021092B8020895E3
:1004C00081E08093C5020E9459028091C4020C947D
:1004D000491A1092C5020E9459028091C4020C94DC
:1004E0006A1A2091C5022223F9F0805E91090897CB
:1004F000D8F48091C302FB019281992361F08111AC
:1005000004C08091C4020E946A1A8091C3028F5F66
:100510008093C302089581508093C302811104C067
:100520008091C4020C94491A0895E091C002F091A0
:10053000C102E850FD45EE32F10508F08FC0E055EC
:10054000F94D0C9466268DE091E00C94540C86ECE9
:1005500091E0FBCF8FE091E0F8CF81E191E0F5CF22
:1005600083E191E0F2CF85E191E0EFCF87E191E087
:10057000ECCF89E191E0E9CF86E491E0E6CF8BE131
:1005800091E0E3CF8DE191E0E0CF8FE191E0DDCF2D
:1005900087E291E0DACF89E291E0D7CF8CE291E077
:1005A000D4CF8FE291E0D1CF82E391E0CECF85E34B
:1005B00091E0CBCF88E391E0C8CF8BE391E0C5CF4A
:1005C00088E792E0C2CF8EE391E0BFCF88E491E06C
:1005D000BCCF8AE491E0B9CF8CE491E0B6CF84E857
:1005E00092E0B3CF86E591E0B0CF89E591E0ADCF61
:1005F0008CE591E0AACF8FE591E0A7CF82E691E06C
:10060000A4CF85E691E0A1CF88E691E09ECF8EE76A
:1006100092E09BCF8BE691E098CF8EE691E095CF6C
:1006200082E791E092CF8CE791E08FCF8FE791E066
:100630008CCF82E891E089CF85E891E086CF88E889
:1006400091E083CF8BE891E080CF8EE891E07DCF81
:1006500081E991E07ACF84E991E077CF08958091A4
:10066000BE029091BF02892B21F086E991E00C94A3
:10067000540C08958091BE029091BF0286332DE5FF
:10068000920709F090C0E091C002F091C102E850D9
:10069000FD45EE32F10508F0F2C0E252F94D0C943E
:1006A000662688E991E00C94540C88EA91E0FBCF2F
:1006B00082EB91E0F8CF82EC91E0F5CF84EC91E011
:1006C000F2CF88EC91E0EFCF80ED91E0ECCF8AEDB6
:1006D00091E0E9CF80E791E0E6CF84EE91E0E3CFCF
:1006E00086EE91E0E0CF80EF91E0DDCF88EF91E002
:1006F000DACF87E892E0D7CF8BEF91E0D4CF8EEFBF
:1007000091E0D1CF82E092E0CECF85E092E0CBCFF6
:1007100088E092E0C8CF8BE092E0C5CF8EE092E017
:10072000C2CF81E192E0BFCF8CE491E0BCCF84E105
:1007300092E0B9CF82E292E0B6CF87E192E0B3CF08
:100740008AE192E0B0CF8EE192E0ADCF81E292E01B
:10075000AACF84E292E0A7CF87E292E0A4CF8AE218
:1007600092E0A1CF8EE691E09ECF8DE292E09BCF0A
:100770008DE191E098CF80E392E095CF8FEF91E00B
:1007800092CF83E392E08FCF86E392E08CCF89E330
:1007900092E089CF8CE392E086CF8FE392E083CF23
:1007A00082E492E080CF87339D4509F068C0E091F4
:1007B000C002F091C102E850FD45EE32F10508F0AB
:1007C0005EC0E45FF84D0C94662684E492E06BCF43
:1007D00087E492E068CF8AE492E065CF8DE492E00E
:1007E00062CF84E792E05FCF80E592E05CCF83E563
:1007F00092E059CF86E592E056CF89E592E053CF5B
:100800008CE592E050CF8EE592E04DCF81E692E00C
:100810004ACF84E692E047CF87E692E044CF8AE66B
:1008200092E041CF8DE692E03ECF80E492E03BCF74
:1008300080E792E038CF83E792E035CF87E792E018
:1008400032CF8BE792E02FCF8DE792E02CCF80E87C
:1008500092E029CF83E892E026CF86E892E023CF8A
:1008600089E892E020CF8BE192E01DCF8CE892E006
:100870001ACF8FE892E017CF82E992E014CF089563
:100880008091B8029091B902892B49F48091C202FB
:10089000823071F028F4813041F01092C202089544
:1008A0008530D8F70E943A03F8CF0E949502F5CF21
:1008B0000E942F03F2CFEF92FF920F931F93CF93DB
:1008C000DF938C017B0181E090E09093B9028093EB
:1008D000B8020E946C1EEC01F701F28098012850CA
:1008E0003D45FF2009F48EC08091C2022E323105B1
:1008F00008F042C08230E1F1E8F4882309F1813048
:1009000009F11093C1020093C002D093BD02C093BD
:10091000BC0280E699E00E94BF0AF12C1092B90255
:100920001092B8028F2DDF91CF911F910F91FF9000
:10093000EF900895833049F0843019F70E943A030C
:1009400081E017C00E949502DCCF8091BA0290919D
:10095000BB022091BC023091BD02AC01421B530B83
:10096000FE01E81BF90B4E175F0740F30E9495024A
:1009700084E08093C202C5CF980126533D452230C2
:10098000310590F5823049F168F4882311F1813006
:1009900049F11093BF020093BE02D093BB02C093F3
:1009A000BA02B7CF833099F0843099F78091BC02B6
:1009B0009091BD022091BA023091BB02AC01421B62
:1009C000530BFE01E81BF90B4E175F0748F40E941A
:1009D0003A0382E08093C202DCCF0E942F03D9CF7A
:1009E0000E942F0383E0F6CF823009F44CC028F434
:1009F0008130E1F01092C20291CF8530D8F70E9489
:100A00003A03F8CF2033310508F06EC08091C2025E
:100A1000823089F170F4813009F080CF8091C0027A
:100A20009091C1028017910709F078CF0E9495023A
:100A3000E1CF833059F1843009F070CF8091BE024C
:100A40009091BF028017910709F049C08091BC02C4
:100A50009091BD02C81BD90B2091BA023091BB0204
:100A6000821B930B8C179D0750F2649740F60E94EF
:100A70002F0381E028C08091BE029091BF028017B1
:100A8000910709F04BCF0E942F03B4CF8091C00291
:100A90009091C10280179107C9F48091BA02909198
:100AA000BB02C81BD90B2091BC023091BD02821B36
:100AB000930B8C179D0708F4A2CF649708F09FCF83
:100AC0000E94950282E08093C20228CF8091BE02EC
:100AD0009091BF028017910709F020CF90CF8091AD
:100AE000C0029091C102F6CFFF24F39417CFCF93A9
:100AF000FB018C332DE5920709F4A6C208F062C011
:100B000088332DE5920709F416C128F5813E910539
:100B100009F4C4C0853E910509F4E8C08091E00263
:100B2000882329F085EE0E94A4131092E0028091A0
:100B3000DF02882329F081EE0E9434131092DF0235
:100B4000C091DE02CC2309F4CFC085EE0E9434139D
:100B50001092DE02B2C0C2818A332DE5920709F4F9
:100B6000DEC108F463C1CC2309F44EC28091C702F0
:100B7000811105C08091C602882309F42BC281E04F
:100B80008093CB028091DF02882329F081EE0E94BE
:100B900034131092DF028091DE02882329F085EE63
:100BA0000E9434131092DE028091EC02882319F027
:100BB00084E30E94A41384E30E94341381E08093B1
:100BC000EC02E6C080342DE5920709F48FC3B8F536
:100BD000C2818E332DE5920709F4EDC208F490C26C
:100BE000CC2309F459C38091C702811105C08091BB
:100BF000C602882309F447C381E08093CF02809125
:100C0000DF02882329F081EE0E9434131092DF0264
:100C10008091DE02882329F085EE0E943413109221
:100C2000DE028091EB02882319F083E30E94A41373
:100C300083E30E94341381E08093EB02A9C08234E5
:100C40002DE5920709F40FC408F4ACC383349D4525
:100C500009F064CF8281882309F459C48091C702C6
:100C6000811105C08091C602882309F447C481E040
:100C70008093D2028091DF02882329F081EE0E94C6
:100C800034131092DF028091DE02882309F4EDC054
:100C900085EE0E9434131092DE02E7C0C281CC239D
:100CA00079F08091E002882329F085EE0E94A41358
:100CB0001092E00281E08093C7028C2FCF910895BB
:100CC0008091DF02882329F081EE0E943413109274
:100CD000DF028091DE02882329F085EE0E94341322
:100CE0001092DE021092C702C1E0E7CFC281CC238E
:100CF00069F08091E002882329F085EE0E94A41318
:100D00001092E00281E08093C602D7CF8091DF028B
:100D1000882329F081EE0E9434131092DF02809123
:100D2000DE02882329F085EE0E9434131092DE0241
:100D30001092C602D9CFC281CC2309F445C080915C
:100D4000C702811104C09091C602992319F1C1E034
:100D5000C093C802882329F081EE0E94A413C09397
:100D6000DF028091C602882331F085EE0E94A41331
:100D700081E08093DE028091EA02882319F08FE2FD
:100D80000E94A4138FE20E94341381E08093EA0250
:100D9000C0E093CF81E08093D3028091E00288236A
:100DA00029F085EE0E94A4131092E0028091E102E6
:100DB000882319F08FE10E94A4138FE10E9434135D
:100DC00081E08093E102E4CF8091C8028823E9F0BA
:100DD0001092C8028091EA02882319F08FE20E94E3
:100DE000A4131092EA028091DF02882329F081EE99
:100DF0000E9434131092DF028091DE02882329F0D2
:100E000085EE0E9434131092DE028091D302882373
:100E100009F4BECF1092D3028091E102882319F029
:100E20008FE10E94A4131092E10247CFCC2309F472
:100E300044C08091C702811104C09091C6029923D9
:100E400011F1C1E0C093C902882329F081EE0E940C
:100E5000A413C093DF028091C602882331F085EE8F
:100E60000E94A41381E08093DE028091E80288232F
:100E700019F08EE20E94A4138EE20E94341381E0E6
:100E80008093E80285CF81E08093D4028091E002D4
:100E9000882329F085EE0E94A4131092E00280912D
:100EA000E202882319F083E20E94A41383E20E94E5
:100EB000341381E08093E2026BCF8091C9028823D2
:100EC000E9F01092C9028091E802882319F08EE2BD
:100ED0000E94A4131092E8028091DF02882329F077
:100EE00081EE0E9434131092DF028091DE0288238B
:100EF00029F085EE0E9434131092DE028091D40214
:100F0000882309F445CF1092D4028091E20288230D
:100F100019F083E20E94A4131092E202CECECC23F9
:100F2000C9F18091C702811104C08091C602882353
:100F3000B9F081E08093CA028091DF02882329F012
:100F400081EE0E9434131092DF028091DE0288232A
:100F500009F4A5CF85EE0E9434131092DE029FCFD4
:100F600081E08093D5028091E002882329F085EE0C
:100F70000E94A4131092E0028091E302882319F0EA
:100F800084E20E94A41384E20E94341381E08093DF
:100F9000E302FECE8091CA02882359F01092CA0261
:100FA0008091E202882319F083E20E94A413109238
:100FB000E2028091D502882309F4EACE1092D5028C
:100FC0008091E302882319F084E20E94A413109216
:100FD000E30273CE81E08093D6028091E002882301
:100FE00029F085EE0E94A4131092E0028091E402A1
:100FF000882319F085E20E94A41385E20E9434132D
:1010000081E08093E402C4CE8091CB02882359F022
:101010001092CB028091EC02882319F084E30E94A5
:10102000A4131092EC028091D602882309F4B0CE6A
:101030001092D6028091E402882319F085E20E9482
:10104000A4131092E40239CEC281CC23C9F180915D
:10105000C702811104C08091C6028823B9F081E0E3
:101060008093CC028091DF02882329F081EE0E94D8
:1010700034131092DF028091DE02882309F4B6CF88
:1010800085EE0E9434131092DE02B0CF81E080938F
:10109000D7028091E002882329F085EE0E94A413F4
:1010A0001092E0028091E502882319F086E20E9406
:1010B000A41386E20E94341381E08093E50268CE97
:1010C0008091CC02882359F01092CC028091E402E6
:1010D000882319F085E20E94A4131092E402809103
:1010E000D702882309F454CE1092D7028091E502EA
:1010F000882319F086E20E94A4131092E502DDCD48
:10110000CC23C9F18091C702811104C0C091C602ED
:10111000CC23B9F081E08093CD028091DF02882357
:1011200029F081EE0E9434131092DF028091DE02DA
:10113000882309F4B7CF85EE0E9434131092DE02A3
:10114000B1CF81E08093D8028091E002882329F01A
:1011500085EE0E94A4131092E0028091E60288239B
:1011600019F087E20E94A41387E20E94341381E001
:101170008093E602A2CD8091CD02882359F010928F
:10118000CD028091E502882319F086E20E94A41323
:101190001092E5028091D802882309F4F9CD1092CB
:1011A000D8028091E602882319F087E20E94A413F6
:1011B0001092E60282CDCC2309F445C08091C7028B
:1011C000811104C08091C602882319F181E08093C7
:1011D000CE028091DF02882329F081EE0E94341331
:1011E0001092DF028091DE02882329F085EE0E94B2
:1011F00034131092DE028091ED02882319F087E803
:101200000E94A41387E80E94341381E08093ED02CA
:10121000BFCD81E08093D9028091E002882329F03C
:1012200085EE0E94A4131092E0028091E7028823C9
:1012300019F08DE20E94A4138DE20E94341381E024
:101240008093E702A5CD8091CE02882359F01092B9
:10125000CE028091ED02882319F087E80E94A41342
:101260001092ED028091D902882309F491CD109259
:10127000D9028091E702882319F08DE20E94A4131D
:101280001092E7021ACDC1E0C093DA0285EE0E9407
:101290003413C093E002C9CF8091CF02882359F064
:1012A0001092CF028091EB02882319F083E30E9411
:1012B000A4131092EB028091DA02882309F468CD1E
:1012C0001092DA028091E702882319F08DE20E94E1
:1012D000A4131092E7028091E002882309F458CD0C
:1012E00085EE0E94A4131092E00252CDC281CC235D
:1012F000C9F18091C702811104C08091C602882380
:1013000019F181E08093D0028091DF02882329F0D7
:1013100081EE0E9434131092DF028091DE02882356
:1013200029F085EE0E9434131092DE028091E902CA
:10133000882319F089E80E94A41389E80E943413D5
:1013400081E08093E90224CD81E08093DB028091EB
:10135000E002882309F44FCF85EE0E94A413109277
:10136000E00249CF8091D002882359F01092D00238
:101370008091E902882319F089E80E94A413109251
:10138000E9028091DB02882309F402CD1092DB028E
:101390008091ED02882319F087E80E94A41310922F
:1013A000ED028BCCC281CC2361F18091C702811107
:1013B00004C09091C6029923B1F0C1E0C093D0025D
:1013C000882329F081EE0E94A413C093DF0280914C
:1013D000C602882309F4E8CB85EE0E94A41381E0BD
:1013E0008093DE02E1CB81E08093DB028091E0021A
:1013F000882309F416CC85EE0E94A4131092E00213
:1014000010CC8091D0028823E9F01092D002809114
:10141000EC02882319F084E30E94A4131092EC02DA
:101420008091DF02882329F081EE0E94341310920C
:10143000DF028091DE02882329F085EE0E943413BA
:101440001092DE028091DB02882309F4A1CC109275
:10145000DB028091EB02882319F083E30E94A4133E
:101460001092EB022ACC8281882341F18091C7023D
:10147000811104C08091C6028823B9F081E0809375
:10148000D1028091DF02882329F081EE0E9434137B
:101490001092DF028091DE02882309F487CC85EE6A
:1014A0000E9434131092DE0281CCC1E0C093DC02B2
:1014B00085EE0E943413C093E0025ECD8091D1028C
:1014C000882359F01092D1028091E102882319F00B
:1014D0008FE10E94A4131092E1028091DC02882324
:1014E00009F456CC1092DC028091E302882319F0B3
:1014F00084E20E94A4131092E302EDCEC1E0C093F7
:10150000DD0285EE0E943413C093E00234CC80915A
:10151000D202882359F01092D2028091E8028823E7
:1015200019F08EE20E94A4131092E8028091DD026D
:10153000882309F42DCC1092DD028091EA028823E1
:1015400019F08FE20E94A4131092EA02C4CEF8941C
:101550009093EF028093EE021092800085E08093DA
:1015600081001092820010928500109284008FEF0B
:101570009FEF909389008093880078940895F89461
:1015800010928500109284009093890080938800C7
:1015900082E080936F00789408951F920F920FB6A7
:1015A0000F9211242F933F934F935F936F937F93E9
:1015B0008F939F93AF93BF93EF93FF93E091EE02CE
:1015C000F091EF020995FF91EF91BF91AF919F913B
:1015D0008F917F916F915F914F913F912F910F90DC
:1015E0000FBE0F901F901895229A2A98089522985E
:1015F0002A980895CF93C82F81FF06C00E94F40A4D
:101600008C2FCF910C94610C0E94F70AF9CF81E0E6
:101610000C9450020F931F93CF93DF93EC018B0137
:10162000C4348DE5D80781F0C534EDE5DE0701F15E
:101630000E94560281112BC0B801CE01DF91CF91DB
:101640001F910F910C947705FB018281882351F043
:1016500085E992E00E94540C89E992E00E94540CC2
:101660000E94690280E0DF91CF911F910F91089550
:10167000FB0182818823B1F38DE992E00E94540C32
:1016800081EA92E00E94540C0E946002EBCFB80104
:10169000CE010E947102B801CE010E945B0481114B
:1016A000CBCFE0CF81E008950C940A0B08950C9401
:1016B000560B1F93CF93DF9300D000D00F92CDB77E
:1016C000DEB749835A836B833091080389819A81FD
:1016D00031111DC06623B9F02223A9F00E94391BE5
:1016E000182F682F89819A810E94E51A69817A8171
:1016F000812F0F900F900F900F900F90DF91CF914F
:101700001F910C94BE0C0E94111B182FEFCF0E944A
:10171000391B69817A81EDCFFC01262F40815181EF
:101720006281738184810C94590BCF93DF93EC0118
:1017300060E00E948C0BBE01DF91CF910C94570B9F
:10174000FF920F931F93CF93DF93E82FF0E0E05BBE
:10175000FD4FF490C82FC695C695C695D0E0FE0102
:10176000E052FD4F0491877010E0082E02C01595DD
:1017700007950A94E2F701701127C053DD4FFE016F
:10178000C491D0E002C0D595C7958A95E2F7C170A3
:10179000DD270115110519F081EE0E943413209701
:1017A00019F086EE0E9434138F2D0E94F313CD2B77
:1017B00019F086EE0E94A413012B41F081EEDF9117
:1017C000CF911F910F91FF900C94A413DF91CF91B3
:1017D0001F910F91FF900895EF92FF920F931F9327
:1017E000CF93DF93EC01162F0AE08881882309F458
:1017F00054C0813009F04EC08981813099F47E0156
:1018000022E0E20EF11C8A810E94F313E701219687
:10181000812F815050F3EFE9FFE03197F1F700C0DD
:101820000000F7CF823041F47E0182E0E80EF11C27
:101830008A810E943413EACF833041F47E01E2E0D2
:10184000EE0EF11C8A810E94A413E0CF843011F0C7
:101850002196DDCF2A81229690E080E0AE014F5F95
:101860005F4F2053330B2A30310548F0019778F24F
:10187000EFE9FFE03197F1F700C00000F7CF089FD4
:10188000B001099F700D1124C901860F971F29818E
:10189000EA01E4CF0E94A00BBACFDF91CF911F9154
:1018A0000F91FF90EF90089560E00C94EC0B0E9474
:1018B0007D1C811102C00E94241D0C94A70E0C9463
:1018C000AA0E089581E008950C94620CCF93C82F5E
:1018D0000E94FA0A8C2FCF910C94640C08950E94F8
:1018E0004F160E946E0C2FEF84E39CE02150804045
:1018F0009040E1F700C000000C94AB1E0F931F93C3
:10190000CF93DF93EC0161E00E948C0B8C01BE0150
:101910000E94540B882329F1BE01C8010E94501077
:101920008823F9F0BE01C8010E9491108823C9F0F4
:10193000BE01C8010E94B411882399F08A818823CE
:1019400039F001158CE5180751F00E3D1C4579F072
:10195000CE01DF91CF911F910F910C94520B0E94F9
:101960006F0C80E0DF91CF911F910F9108950E943D
:10197000241DF7CF90E080E008950895972F70E040
:101980002EE0929F600D711D1124FB0196E4899F4A
:10199000E00DF11D1124EE0FFF1FE455FF4F85915F
:1019A00094910895FC01EE0FFF1FE051FD4F8591CA
:1019B00094910895CF93DF930E94BE0C0E94CD0DA9
:1019C000EC01811521E59207D0F5811530E59307EB
:1019D00008F096C081159042F8F4C11581E0D8074F
:1019E000B8F4C03ED10588F4C03CD10508F07BC0F6
:1019F000C130D10569F0209759F0CE010497813AA2
:101A0000910530F0D0E0C0E003C0C83ED105D0F76A
:101A1000CE01DF91CF910895C11590E4D90708F068
:101A20006CC0CE019F70C11520E3D20708F45EC0E0
:101A3000CE019927D3FF5EC0EC01D86CE9CF8115A8
:101A400035E5930700F5811544E5940708F08DC04E
:101A5000C11583E5D80708F074C0C11592E5D90710
:101A600008F46AC0CE018370992721E030E002C0FB
:101A7000220F331F8A95E2F7C695C69580E2C89F6C
:101A8000E001112455C0811529E59207A0F48115C4
:101A900038E5930708F06EC0811546E5940708F015
:101AA000B1CF0E94640EC82FD0E0DC2FCC27CC270A
:101AB000DF71D062ADCFC1158AE5D80708F45FC0E9
:101AC000CE0190568115904208F09CCF8D2F8F71DA
:101AD0000E94640E90E0982F882788279F719C01B0
:101AE0002C2BE901E6CFCE01805C91090E94D20C3B
:101AF000EC018ECFEC01D06C8BCFDF70D06A88CF39
:101B0000E4E096958795EA95E1F783702C2F26956A
:101B10002695237040E2249F90011124382B8C2FAE
:101B20008370C1E0D0E002C0CC0FDD1F8A95E2F7E0
:101B3000C22BD32BDC686CCFDC2FCC27C16FD06AD3
:101B400067CFCE018370992721E030E002C0220FD9
:101B5000331F8A95E2F7C695C69590E2C99FE001CA
:101B60001124C22BD32BDA6853CFD82FCC27C46FC4
:101B7000D06A4ECFD82FCC27C06FD06A49CF8C2FD8
:101B80008F700E94640E34E0D695C7953A95E1F7C0
:101B9000CF709C2FEC01D0693BCF82389105B1F119
:101BA000B0F48133910509F475C048F48932910588
:101BB00009F469C08A32910509F473C00895853328
:101BC000910509F459C08933910501F10895833EC7
:101BD0009105A9F138F4803E9105F9F0823E910516
:101BE00049F10895863E9105A9F1873E9105C9F115
:101BF000843E910519F52091D90321FF1FC08091E2
:101C0000D80384FD14C087EE90E008952091D80396
:101C10002370A1F080EE90E008952091D80320FD7C
:101C200047C03091D90330FF09C024FF44C090E081
:101C300080E004C02091D80322FDF7CF08952091C1
:101C4000D80322FD3BC03091D90330FDE3CF24FF00
:101C5000F5CFEDCF2091D80323FFF0CF24FDE7CFC0
:101C6000D2CF2091D80323FD2CC03091D90331FF6E
:101C7000EECF84EE90E008952091D80325FFDECFCB
:101C800089E290E008952091D80325FFD7CF85E31E
:101C900090E008952091D80326FFD0CF8AE290E00B
:101CA00008952091D80326FFC9CF81E390E00895DD
:101CB00089E390E0089583EE90E0089582EE90E04D
:101CC000089586EE90E008959091D80392FF06C0A3
:101CD000282F28712830F9F4877F846093FF06C08D
:101CE000282F28712831F1F4877E84612091D9034F
:101CF00020FF06C0382F38713830D9F4877F8160D3
:101D000021FF06C0282F28712831D1F4877E8161F8
:101D100094FD877E0895282F24712430F9F68B7F57
:101D20008860DCCF282F2471243101F78B7E8861F5
:101D3000DDCF382F3171313019F78E7F8860E0CFD9
:101D4000282F2171213121F78E7E8861E1CF0C94FB
:101D5000070B08950C94A90EE82FF0E0EE0FFF1F7B
:101D6000E653FC4F808191810895089580EA8A9519
:101D7000F1F70895CF93DF93A3EBB2E048EB52E085
:101D8000C1E0D0E08D91E82FE295EF70F0E061A125
:101D90008F709E0101C0220F8A95EAF7922F9095CD
:101DA000962391A382A1822B82A34A175B0751F746
:101DB000A5EAB2E061E070E08D91E82FE295EF7066
:101DC000F0E041A18F709B0101C0220F8A95EAF7D4
:101DD000922F9095942391A382A1822B82A382E0DB
:101DE000A33BB80749F71092C1031092C0031092A9
:101DF000CB031092CA031092C3031092C203109235
:101E0000CD031092CC031092C5031092C40310921C
:101E1000CF031092CE031092C7031092C603109204
:101E2000D1031092D0031092C9031092C8031092EC
:101E3000D3031092D20385E00E94A90FDF91CF91C6
:101E40000C94570C8F929F92AF92BF92CF92DF92D9
:101E5000EF92FF920F931F93CF93DF9383EBE82EC4
:101E600082E0F82E00EC13E0912CAA24A394B12C6C
:101E7000F70181917F01C82FC295CF70D0E099A161
:101E80008F70650101C0CC0C8A95EAF7892F8C29E7
:101E900089A38AA18C2C809488218AA30E94B60EE3
:101EA000E5EAF2E050E040E030E020E06191A62F6A
:101EB000A295AF70B0E090968C9190E06F7002C0E8
:101EC000959587956A95E2F780FD3EC0C501042E81
:101ED00002C0880F991F0A94E2F7282B392B4F5F15
:101EE0005F4F4E30510511F789A1882289A28AA13E
:101EF000C82ACAA2F801808191812817390739F1CF
:101F00003183208381E0982A0E5F1F4FF8EBEF1694
:101F1000F2E0FF0609F0ACCF292D45E06AEC73E052
:101F200080EC93E00E94AA0F0E945F0C892DDF9144
:101F3000CF911F910F91FF90EF90DF90CF90BF90C6
:101F4000AF909F908F90089590E080E0C6CF80E0A2
:101F5000DACF0895FF920F931F93CF93DF93F82E5C
:101F6000092F162FD72FC42F222349F081E0809309
:101F7000F2020E946C1E9093F1028093F002809115
:101F8000F2028823A1F08091F0029091F1020E9468
:101F9000781E069760F0EF2DF02FA12FBD2F90E057
:101FA00080E0D0E08C179D0744F01092F202DF91A0
:101FB000CF911F910F91FF900895219131912D9311
:101FC0003D930196EFCF0F931F93CF93DF93C62FCF
:101FD000D42F022FFC0182818823C9F06093F5027F
:101FE0000E946C1E9093F4028093F30280E28C0FA7
:101FF000883008F050C0C77081E001C0880FCA95D2
:10200000EAF7DF91CF911F910F910C940614109174
:10201000F502161335C08091F3029091F4020E94EC
:10202000781E883C910560F5C0E2CD0F1D17B9F010
:1020300080E2810F883040F4177081E001C0880F82
:102040001A95EAF70E940D14C83048F481E09D2FDC
:10205000977001C0880F9A95EAF70E940614802FA6
:102060000E94F313C830B8F4D77081E001C0880F24
:10207000DA95EAF7DF91CF911F910F910C940D142F
:1020800080E28C0F883038F4C77081E001C0880F7F
:10209000CA95EAF7EFCFDF91CF911F910F91089585
:1020A0009C01CB01233F4CE5340731F190F4283DEE
:1020B000FCE53F07E9F0293D4CE5340769F1273D90
:1020C0003C4579F426E241EE61EE0E94E30F80E0A8
:1020D0000895253FFCE53F07B9F090F0263F3C45C9
:1020E000B9F0FC0182818823D1F01092F5020895A5
:1020F00027E245EE65EEE9CF26E241EE60EEE5CF60
:1021000027E245EE64EEE1CF26E241EE62EEDDCF5E
:1021100027E245EE66EED9CF28E241E0EBCF81E041
:102120000895CF93DF93EC01FB018281882309F4AA
:1021300019C1C230FCE5DF07C0F1C6319CE5D90703
:1021400030F09E012A5F3C452930310570F50E9430
:102150009A1C9093D9038093D803C031ECE5DE0735
:1021600009F4CFC008F05BC0C8308CE5D80709F48B
:10217000B6C088F5C430ECE5DE0709F4A8C0C0F4A9
:10218000C2308CE5D80709F49CC08091D8038260E6
:10219000C330DC4509F498C08091D8039091D903ED
:1021A0000E94A81C0E944F1680E0DF91CF910895F5
:1021B0008091D8038061C630ECE5DE0709F484C065
:1021C0008091D8038860C730DC4508F47DC08091D9
:1021D000D803806279C0CC308CE5D80709F489C077
:1021E00070F48091D8038C60CA30ECE5DE0709F406
:1021F0006BC008F478C08091D8038E7F65C0CE3064
:102200008CE5D80709F479C08091D8038B7FCF3053
:10221000DC4508F459C08091D8038F7E55C0CB3F70
:10222000ECE5DE0709F457C030F5C3318CE5D8077B
:1022300009F46FC078F4C131ECE5DE0709F465C03C
:10224000C231DC4509F0A8CF0E944F168091D80317
:102250008F773AC0C5318CE5D80709F462C008F41D
:1022600076C08091D9038160CA3FDC4509F094CFE4
:102270008093D90391CFCF3FFCE5DF0709F44DC030
:1022800088F48091D9038D7FCD3F9CE5D90781F3F8
:102290008091D9038E7FCE3FDC4550F38091D903E6
:1022A0008360E6CFC130FDE5DF0709F459C008F4CB
:1022B00044C080E0C230DD4509F06ECF0E94261D8B
:1022C0006BCF8091D80381608093D80365CF8091D4
:1022D000D8038460F9CF8091D9038260C9CF8091FF
:1022E000D8038064F1CF0E944F168091D803806894
:1022F000EBCF8091D8038D7FE7CF8091D803877F84
:10230000E3CF8091D8038F7DDFCF8091D8038F7B7F
:10231000DBCF8091D803837FD7CF8091D9038C7F87
:10232000A7CF8091D80382FB992790F921E09227CB
:1023300090FB82F990FB83F9C7CF8091D903982F46
:10234000909591708E7F892B90FB81F991CF0E949F
:102350004F169091D803892F97FB87F98058B4CFF7
:1023600081E0ACCF81E021CFCF93DF93EB018631C9
:102370009C4511F50E94CE1B9A81992399F08A7A87
:1023800091E009F490E09093F602811109C089E28E
:102390000E94A91B0E941A1C80E0DF91CF91089532
:1023A00085E3F6CF8091F602811104C089E20E9494
:1023B000B01BF0CF85E3FBCF81E0EFCF9093FC0221
:1023C0008093FB020895E091FB02F091FC023097AC
:1023D00021F00190F081E02D099480E00895E091D2
:1023E000FB02F091FC02309799F020910C0122231E
:1023F00059F02091D80327FF07C0DC012C911196DA
:102400002C93119725E02C930280F381E02D099401
:1024100008952091F9023091FA022817390771F0D6
:102420009093FA028093F902E091FB02F091FC0292
:10243000309721F00680F781E02D099408952091CE
:10244000F7023091F8022817390771F09093F802DB
:102450008093F702E091FB02F091FC02309721F0AB
:102460000084F185E02D0994089585B7806885BFC3
:1024700085B7806885BF0895089508950C943C122F
:1024800008950C9440120E9435120E943D120C9443
:102490003E1281E008950C9449120E94631E0E942E
:1024A000BA0E0E941A1F0C9441127F928F929F9233
:1024B000AF92BF92CF92DF92EF92FF920F931F9352
:1024C000CF93DF93CDB7DEB72A970FB6F894DEBF70
:1024D0000FBECDBF0E94220F0E944B12882309F429
:1024E0006FC04EEFA42E42E0B42E10E000E0702E3C
:1024F000802F0E94AC0E6C01F501819091905F01DC
:102500008816990609F456C080919B0381FD0E94AC
:10251000B50E80E0EE24E394F12C8C249D249401EC
:102520002E213F21232B09F43FC08E837F82CE20B2
:10253000DF2081E0CD2809F480E088870E946C1EAE
:102540008160782F9A8789874E815F8168858A8527
:102550000E940513000F111FF801E250FD4F80810A
:102560009181E826F926F182E0820E94E3119091A0
:10257000FD028917B1F10E94E3118093FD022A96B2
:102580000FB6F894DEBF0FBECDBFDF91CF911F9184
:102590000F91FF90EF90DF90CF90BF90AF909F9002
:1025A0008F907F900C94660C8F5FEE0CFF1C8E302A
:1025B00009F0B5CF0F5F1F4F0530110509F097CF18
:1025C0008FEF89838A831B820E946C1E8160782F23
:1025D0009D838C8349815A816B818D810E94051373
:1025E000C4CF2A960FB6F894DEBF0FBECDBFDF91E1
:1025F000CF911F910F91FF90EF90DF90CF90BF9000
:10260000AF909F908F907F900895CF93DF93CDB739
:10261000DEB72B970FB6F894DEBF0FBECDBF4F834A
:10262000588769877A878B871E821D8285E0FE0125
:102630003796DE01119601900D928A95E1F7498156
:102640005A816B817C818D819E812B960FB6F89487
:10265000DEBF0FBECDBFDF91CF910C94C518FC013A
:10266000808191810C947B1BCF93C82F882309F420
:1026700069C08238C1F40E94E31181FD63C089E31F
:102680000E94A91B0E941A1C2FEF81EE94E021509A
:1026900080409040E1F700C0000089E30E94B01B39
:1026A000CF910C941A1C8338A1F40E94E31180FD91
:1026B00049C083E50E94A91B0E941A1C2FEF81EEDE
:1026C00094E0215080409040E1F700C0000083E595
:1026D000E5CF8438A1F40E94E31182FD33C087E482
:1026E0000E94A91B0E941A1C2FEF81EE94E021503A
:1026F00080409040E1F700C0000087E4CFCF8CEF2E
:102700008C0F813A90F46C2F80910001909101011F
:102710000E943F1D882329F08C2F0E94B01B0E942D
:102720001A1C8C2F0E94A91BBBCF80E28C0F883013
:1027300048F4C77081E001C0880FCA95EAF70E948B
:10274000D11BAECFCF910895882309F44BC08238B6
:1027500071F40E94E31181FF45C089E30E94A91B27
:102760000E941A1C89E30E94B01B0C941A1C833827
:1027700059F40E94E31180FF35C083E50E94A91B34
:102780000E941A1C83E5EFCF843859F40E94E311AC
:1027900082FF28C087E40E94A91B0E941A1C87E4BC
:1027A000E2CF9CEF980F913AF0F290E2980F9830B8
:1027B00050F4877091E001C0990F8A95EAF7892F4C
:1027C0000E94D71BD2CF9BE5980F933020F490E066
:1027D00080E00C940912885A873120F490E080E060
:1027E0000C941F120895CF93C82F0E943413C9333D
:1027F00049F42FEF87EE93E0215080409040E1F7BD
:1028000000C000008C2FCF910C94A413882321F0DA
:102810000E94D11B0C941A1C0895882321F00E9459
:10282000D71B0C941A1C0895BF92CF92DF92EF929F
:10283000FF920F931F93CF93DF936C01D62FC72F77
:10284000FC01158112951F70028101110E94EE1B7F
:102850000E94C71BE82E882391F00023D1F08C2F13
:10286000807F803421F080E28D0F883090F082E00C
:102870000E94651C0E94C71B91E0E82EE926BC2E31
:10288000B2949FE0B922EB2DF0E0E65CF84D0C9499
:102890006626E12CF4CF1C2F1F70C07F11F012951B
:1028A000107F0023A9F0112359F080E28D0F8830AA
:1028B00010F0D11109C0812F0E94D11B0E941A1C57
:1028C0008D2F0E94341314C0812F0E94E11BF6CF7C
:1028D0008D2F0E94A413112359F080E28D0F8830B0
:1028E00010F0D1112CC0812F0E94D71B0E941A1CFE
:1028F0002B2D2850330B2430310520F40E94E31196
:102900000E94660CEE2009F477C10E94C31B80FD73
:1029100073C1F60112820E94BD1B0E94491AC601B2
:102920000E941D160E94BD1BDF91CF911F910F9138
:10293000FF90EF90DF90CF90BF900C946A1A812F98
:102940000E94E71BD3CFFC2FFF70FF2EC07FC03249
:1029500019F0F29480EFF822DD2369F0D13049F1CB
:10296000002391F1112351F1F601858180FFA8CF59
:102970008F70858323C0002381F0111106C00E944F
:10298000011C8F290E940614B3CF1130C1F70E9499
:10299000011C8F290E94071CABCF111106C00E9499
:1029A000101C8F2D0E940D14A3CF113009F4A0CF5D
:1029B000F6CF002329F0163008F09ACF8F2DE2CF02
:1029C000153008F095CFEDCF112359F3D93349F4E1
:1029D000FFEF27EE33E0F15020403040E1F700C038
:1029E00000008D2F0E94A41383CF8C2F837009F0D9
:1029F00041C001117DCF4D2F429546954770440F40
:102A0000440F0D2F0F7010E030E020E0042E04C0C2
:102A1000000F111F221F331F0A94D2F760E070E0ED
:102A2000CB01D4FF0FC06FE070E080E090E004C005
:102A3000660F771F881F991F4A95D2F7609570958A
:102A400080959095C695C695C370602B712B822B8F
:102A5000932BC23049F058F4C13019F00E94FB1991
:102A600047CF0E94E91944CF0E940D1A41CF0E941E
:102A7000E7193ECF8695002311F08C2F81708823B3
:102A800009F436CF4D2F429546954770440F440FB9
:102A90000D2F0F7010E030E020E0042E04C0000F76
:102AA000111F221F331F0A94D2F760E070E0CB01A0
:102AB000D4FF0FC06FE070E080E090E004C0660FCC
:102AC000771F881F991F4A95D2F76095709580955A
:102AD0009095C695C695C370602B712B822B932B56
:102AE000C23049F058F4C13019F00E94C01A00CF2A
:102AF0000E94AE1AFDCE0E94D21AFACE0E94231A6C
:102B0000F7CECF70002329F08C2F0E94491A8D2F09
:102B100039CF8D2F0E940D148C2F0E946A1AE8CE97
:102B2000D23F89F160F4D03FC9F0D13F29F10023B1
:102B300009F442C01111C4CE8C2F8F7121C0D33F34
:102B400039F1D43FA1F7002369F1CF718C2F0E9496
:102B5000491A63E08C2F0E94501CCACE002341F01A
:102B6000153008F0C5CE8C2F8F710E948D1AC0CE03
:102B7000163008F0BDCEF7CF8C2F8F71002369F28D
:102B80000E94491AB5CE8C2F8F710023C9F3C5CF8F
:102B9000002329F08C2F8F710E94341AA9CE0E9435
:102BA0002F1AA6CE81E00E94651C123008F4A0CE38
:102BB00082E00E94651C9CCE112359F0D93309F0A4
:102BC00010CF8FEF97EEE3E081509040E040E1F7C7
:102BD00006CF8C2F8F71A1CF4C2F4F706D2FC60158
:102BE0000E94BA0C0E945F1983CE4C2F4F706D2F3C
:102BF000C6010E94BD0C7CCEDF91CF911F910F9139
:102C0000FF90EF90DF90CF90BF9008950F931F93A8
:102C1000CF93DF93EC01688179818A810E94851BC3
:102C20008C010E94E41A0E94E619B801CE01DF91DE
:102C3000CF911F910F910C941414CF93DF93EC015B
:102C40008B819C81892B29F08881998189238F3FF1
:102C500059F4DF91CF910895CE010E940616CE015E
:102C6000DF91CF910C94950BCE010E947E0C8111C7
:102C7000F3CF0E94C71B882361F38A81882349F31D
:102C800082E0DF91CF910C94651C0E94EE1B0E94A4
:102C9000FE1B0C941A1C0E94B71B0C9445160E9434
:102CA000DE1B0C944B16E92FE295EF70E250EE30EC
:102CB00070F4F0E0E65BF84D0C946626803F19F066
:102CC00020F4883E20F481E00895843FE1F380E021
:102CD0000895883EC0F3813FD1F7F5CF93FB882755
:102CE00080F908950E947B1B0C945316CF93DF93B9
:102CF00000D000D00F92CDB7DEB70F900F900F909D
:102D00000F900F90DF91CF910895CF93DF9300D074
:102D100000D000D0CDB7DEB726960FB6F894DEBF50
:102D20000FBECDBFDF91CF9108951F93CF93DF9357
:102D3000C091090316E080910A038C1304C0DF914F
:102D4000CF911F910895D0E01C9FF0011D9FF00DC1
:102D50001124E55FFC4F4081518162817381848140
:102D600095810E9485162196C770E5CF40913B035F
:102D700050913C0360913D0370913E0380913F036D
:102D8000909140030C9485161F93CF93DF9380910D
:102D90004003807FA9F480913D03882389F08091CE
:102DA0000903C0910A0360913B0370913C03A09119
:102DB0003E03B0913F03D62FD72316E0C81304C0BB
:102DC000DF91CF911F91089590E0109711F0DF3FB0
:102DD00019F401968770F2CF189F9001199F300D5A
:102DE0001124F901E55FFC4F41814713F2CF408187
:102DF0004613EFCF42814111ECCF438154814A1BEE
:102E00005B0B483C510528F7809140038F7080612F
:102E100080934003F901E05FFC4F80818F708061F7
:102E200080838BE393E00E941D16DF91CF911F9169
:102E30000C949516AF92BF92CF92DF92EF92FF92D1
:102E40000F931F93CF93DF93CDB7DEB761970FB684
:102E5000F894DEBF0FBECDBF8C0185E0F801DE0126
:102E60001D9601900D928A95E1F7F80140815181FC
:102E7000E2808BE3C82E83E0D82E60913E037091F0
:102E80003F036115710509F461C190913B032091E5
:102E90003C03892F82238F3F09F458C1A380B4805B
:102EA000F0903D03F501E61BF70BFF2009F4FCC091
:102EB00080914003382F307FE83CF10508F0B2C024
:102EC000311179C0FE2C251323C0941321C0E110C9
:102ED0001FC08F708061809340030E94B616C601A8
:102EE0000E941D1680914003F80185838F2D619605
:102EF0000FB6F894DEBF0FBECDBFDF91CF911F910B
:102F00000F91FF90EF90DF90CF90BF90AF9008951A
:102F1000AB2829F0842F85238F3F09F033C180E04F
:102F2000F82FF170DF2E80FF3CC0809109032091C3
:102F30000A0336E0821315C04D875E878D859E8516
:102F40000E947B1B292F22952F702230F0F0243015
:102F500018F59F70F1F0F8019581907FD1F4D12C94
:102F60001EC090E0389FF001399FF00D1124E55FFD
:102F7000FC4F6181651306C06081641303C06281E8
:102F80006E110FC001968770D5CF9F7011F0882306
:102F900031F3805E883018F3C8010E941D16FD2CA5
:102FA000A5CFEE2009F4A2CF8091400381608093E9
:102FB0004003F12C9BCF251306C0941304C0F801E5
:102FC000EE2009F48DC04D875E878D859E850E9419
:102FD0007216882319F1EE2009F1809140038032A6
:102FE00070F020913B0330913C0338872F83198682
:102FF000BB86AA868C87CE0107960E941D1686E0A6
:10300000F801ABE3B3E001900D928A95E1F70E94DD
:10301000C4160E94B616FF24F39468CFC8010E941C
:103020001D16F9CF311113C07A2DB98AA88A6E2DD9
:1030300089890E9476168BE393E00E941D1686E034
:10304000F60111928A95E9F70E94B616B2CF2513C0
:103050000FC094130DC0E1100BC0F8018583C801A7
:103060000E941D1686E0F60111928A95E9F73ECF7F
:103070004D875E878D859E850E947216882371F22A
:10308000EE2061F280914003803208F4B8CF2091A5
:103090003B0330913C033A8329831B82BD82AC827F
:1030A0008E83CE010196A9CFE83CF10508F041C01E
:1030B000FE2CEE2009F4B2CF25132AC0941328C0A9
:1030C0008091400380FD1BC0982F907FC1F0F801D4
:1030D0008583903F31F0982F907F905F8F70892B80
:1030E0008583C8010E941D1686E0F801ABE3B3E0BA
:1030F00001900D928A95E1F70E94B616F7CE86E010
:10310000F801ABE3B3E001900D928A95E1F7EECEC2
:103110004D875E878D859E850E94721681116FCFC7
:1031200080914003816080934003C8010E941D1676
:10313000DDCE7A2DB98AA88A6E2D89890E947616ED
:1031400086E0F60111928A95E9F7D6CFEE2009F4D0
:1031500065CF4D875E878D859E850E947216F82EFD
:10316000882309F45BCF86E0F801ABE3B3E001907C
:103170000D928A95E1F78BE393E00E942F130E9452
:10318000C416BACF81E08E25CBCE1F93CF93DF93A9
:10319000CDB7DEB72C970FB6F894DEBF0FBECDBF0C
:1031A0004F83588769877A878B879C87CE010796DC
:1031B0000E941A17882369F08A859B85892B39F02C
:1031C0004F815885842F85238F3F09F071C016E009
:1031D0005FC086E0FE013796DE01119601900D92E8
:1031E0008A95E1F78A859B85892B89F388859F815C
:1031F00089238F3F61F320910A0330E0C9010196D2
:1032000087709927409109034817190671F40E94A5
:103210004F1610920A031092090386E0EBE3F3E0E5
:10322000DF011D928A95E9F7D2CF96E0929FD001F7
:10323000939FB00D1124A55FBC4FFE013196019004
:103240000D929A95E1F780930A030E949516BFCFDD
:10325000819FC0011124855F9C4F0E941A1788230B
:10326000E9F0E09109031E9FF0011124E55FFC4F96
:103270004081518162817381848195810E9485168C
:103280008091090390E00196877099278093090344
:103290008091090390910A038913DACF2C960FB617
:1032A000F894DEBF0FBECDBFDF91CF911F9108957F
:1032B00069857A858B859C850E94851688CFEF92DB
:1032C000FF920F931F93CF93DF938C01892B81F093
:1032D000F12CEE24E394E8012196F80184918437DF
:1032E00070F4843008F05FC08130B1F08230A1F119
:1032F000DF91CF911F910F91FF90EF900895853747
:1033000009F44CC008F43DC09CE7980F903780F753
:103310008F770E94A41349C00E5F1F4FFE01849156
:1033200090E2980F983060F48770FE2D01C0FF0F77
:103330008A95EAF78F2F0E94F11B0E941A1C02C087
:103340000E9434138F2D815030F2EFE9FFE0319766
:10335000F1F700C00000F7CF0E5F1F4FFE01849110
:1033600090E2980F983050F48770FE2D01C0FF0F47
:103370008A95EAF78F2F0E94F71BDFCF0E94A413D4
:10338000E1CF0E5F1F4FFE01C491C150D8F28FE90B
:103390009FE00197F1F700C00000F7CF0E5F1F4FCD
:1033A000FE01F490CFCF0E9434138E01CBCF08954D
:1033B0000C94D7190E94D819609372037093730309
:1033C00080937403909375030C94451608950C94A0
:1033D000DA190F931F9300917203109173032091D8
:1033E000740330917503602B712B822B932B1F91EB
:1033F0000F910C94DA190F931F930091720310919F
:103400007303209174033091750360237123822329
:1034100093231F910F910C94DA190F931F9300912E
:103420007203109173032091740330917503602728
:103430007127822793271F910F910C94DA190C940E
:10344000D7190C941F1A0E94211A60936E0370936F
:103450006F0380937003909371030C94451660E0A2
:1034600070E0CB010C94231A0F931F9341E050E0BE
:1034700060E070E08A019B0104C0000F111F221F51
:10348000331F8A95D2F7C901B8011F910F910C948F
:10349000231A0F931F9341E050E060E070E004C0F6
:1034A000440F551F661F771F8A95D2F780916E03D0
:1034B00090916F03A0917003B09171038A019B01F9
:1034C000082B192B2A2B3B2BC901B8011F910F91F7
:1034D0000C94231A0F931F9341E050E060E070E0DA
:1034E00004C0440F551F661F771F8A95D2F7CB0182
:1034F000BA01609570958095909500916E0310913A
:103500006F03209170033091710360237123822334
:1035100093231F910F910C94231A0F931F9341E053
:1035200050E060E070E004C0440F551F661F771F35
:103530008A95D2F780916E0390916F03A0917003EA
:10354000B09171038A019B01082719272A273B277D
:10355000C901B8011F910F910C94231A0F931F9367
:1035600000916E0310916F032091700330917103ED
:10357000602B712B822B932B1F910F910C94231A8C
:103580000F931F9300916E0310916F0320917003AE
:103590003091710360237123822393231F910F9134
:1035A0000C94231A0F931F9300916E0310916F03D5
:1035B0002091700330917103602771278227932730
:1035C0001F910F910C94231A08952EE0929F800D65
:1035D0001124982F977041E001C0440F9A95EAF7A3
:1035E00086958695869595E0899FF0011124EF5B7D
:1035F000FC4F90E080E070E05191DF0111979B015A
:10360000082E02C0369527950A94E2F7217021957D
:103610002527242325272C9301968530910561F7D2
:1036200008952EE0929F800D1124982F9770869513
:103630008695869525E0829FF0011124EF5BFC4F73
:1036400050E040E080E0219130E0092E02C0369544
:1036500027950A94E2F721703327042E01C0220F28
:103660000A94EAF7822B4F5F5F4F4530510559F7B7
:103670000895BF92CF92DF92EF92FF920F931F9324
:10368000CF93DF938C01C0906E03D0906F03E090D6
:103690007003F09071038091720390917303A09175
:1036A0007403B0917503C82AD92AEA2AFB2ACFE10C
:1036B000D0E0BC2ED701C6010C2E04C0B695A7954C
:1036C000979587950A94D2F780FD0EC0219788F7C9
:1036D000B12C8B2DDF91CF911F910F91FF90EF9027
:1036E000DF90CF90BF900895B8018C2F0E94DA0C24
:1036F000019761F3EECFCF93DF93EC010E94391B6A
:10370000BE01DF91CF910C94DA0C1F93CF93DF931E
:10371000EB0190910803992331F0CB01DF91CF9118
:103720001F910C947B1B882379F0CB010E94391BDD
:10373000182F682FCE010E94E51ABE01812FDF915C
:10374000CF911F910C94DA0CCB010E94111B182F02
:10375000F4CF682F80910001909101010C94BF1D5E
:10376000682F80910001909101010C94CA1D8091F5
:103770000001909101010C94D51D809176038595EF
:103780008595859508958091760387700895909129
:103790007603977081E009F480E0089580919A03A0
:1037A000089590919A03892B80939A0308958095A8
:1037B00090919A03982390939A03089510929A03F4
:1037C000089590919903892B80939903089580958A
:1037D00090919903982390939903089510929903D7
:1037E000089590919803892B80939803089580956C
:1037F00090919803982390939803089510929803BA
:10380000089580917703089508950C94041C909175
:103810007703981721F0809377030C94051C089583
:1038200080917703882329F01092770380E00C942D
:10383000051C0895E0910001F091010180919A0327
:103840008083E0910001F0910101808190919903C2
:10385000892B8083E0910001F0910101808190919A
:103860009803892B808390917703992381F0E091CD
:103870000001F09101018081892B808380910001FA
:10388000909101010E942B1D81110E94101C8091BA
:103890000001909101010C94EF1108950C944D1CBE
:1038A00098E0899F90011124622B609376030E9417
:1038B000491A809176038595859585950C944E1CC3
:1038C0001092760380E00C944E1C909176038095C4
:1038D000892380937603282F277071F4282F082ED0
:1038E000000C330B9217130639F085958595859555
:1038F0000E946A1A0C94601C089590E080E00E9477
:10390000742621E08C3E9E4F09F020E0822F08951E
:1039100082E090E00C946C26682F82E090E00C949A
:103920007A2683E090E00C946C26682F83E090E088
:103930000C947A26CF9384E090E00E946C26C82FE6
:1039400081E290E00E946C26982F8C2FCF910895F1
:10395000CF93C92F682F84E090E00E947A266C2FC5
:1039600081E290E0CF910C947A26AB01BC018FE00C
:1039700090E00C948C26AB01BC0183E190E00C94A8
:103980008C2660E070E0CB010C94BB1C60E070E022
:10399000CB010E94B51C0C94C11C6CEE7EEF90E034
:1039A00080E00E94982660E082E090E00E947A2603
:1039B00060E083E090E00E947A26109272031092F9
:1039C0007303109274031092750360E084E090E03A
:1039D0000E947A2660E081E290E00E947A2660E010
:1039E00085E090E00E947A2660E086E090E00E9408
:1039F0007A266FEF87E090E00E947A2640E050E060
:103A0000BA0188E090E00E948C2660E08DE090E0B2
:103A10000E947A2640E050E0BA0188E190E00E94DE
:103A20008C2660E087E190E00E947A2640E050E03A
:103A3000BA018CE190E00E948C2660E080E290E088
:103A40000E947A260C94C61C0C94CD1C682F8EE024
:103A500090E00C947A26FC01329680910C01882328
:103A600021F08091D8039EE187FF96E080E091509D
:103A700008F4089521912223D1F38F5FF8CF6623B4
:103A800001F120910C012223F1F02091D80327FFAE
:103A90001AC0462F4695469546954E3190F467706C
:103AA00021E030E002C0220F331F6A95E2F7840F55
:103AB000911DFC01828190E02823392381E0232B92
:103AC00069F480E00895FC0132960896219126174A
:103AD00021F0E817F907D1F7F4CF81E008959C01B0
:103AE000FC0132969FEF80E04191461751F09F3FD5
:103AF00019F4411101C0982F8F5F8630A9F79F3FBD
:103B000009F40895290F311D97FD3A95F901628353
:103B10000895FC01329608962191261303C0DF0117
:103B200011971C92E817F907B9F70895E62FE69563
:103B3000E695E695EE3168F4E80FF92FF11D677010
:103B400021E030E001C0220F6A95EAF78281822BE2
:103B500082830895E62FE695E695E695EE3170F4BA
:103B6000E80FF92FF11D677021E030E001C0220F4E
:103B70006A95EAF72095828128232283089520916F
:103B80000C01222329F02091D80327FD0C94961DC7
:103B90000C946F1D20910C01222329F02091D80351
:103BA00027FD0C94AA1D0C94891DFC01329680916E
:103BB0000C01882351F08091D80387FF06C08EE165
:103BC000DF011D928A95E9F7089586E0F9CF0895FF
:103BD00008950C94E81D0E94E91D8091DE03843055
:103BE00049F110929C0388E190E020E40FB6F8942C
:103BF000A895809360000FBE2093600080E00E9433
:103C0000660C0E94E91D83B7817F846083BF83B700
:103C1000816083BF7894889583B78E7F83BF0FB60A
:103C2000F894A8958091600088618093600010925C
:103C300060000FBE08950895CF930E94E71D0E9473
:103C4000220F0E941B1EC0E08C2F0E94AC0E892BFD
:103C500031F4CF5FC530C1F780E0CF91089581E0A6
:103C6000FCCF08950C94311E0E944F160E94E31160
:103C70000E94660C0C94321E1F921FB61F921124D4
:103C80008F939F93AF93BF9380919C03811113C037
:103C90008091D4039091D503A091D603B091D7031E
:103CA0004196A11DB11D8093D4039093D503A09399
:103CB000D603B093D703BF91AF919F918F911F907F
:103CC0001FBE1F90189582E084BD93E095BD9AEFCA
:103CD00097BD80936E0008952FB7F8948091D40318
:103CE0009091D503A091D603B091D7032FBF08952B
:103CF0009C014FB7F8948091D4039091D503A09183
:103D0000D603B091D7034FBF821B930B08957894CD
:103D10001F921FB61F9211248F939F93AF93BF934F
:103D20008091D4039091D503A091D603B091D7038D
:103D30000196A11DB11D8093D4039093D503A09348
:103D4000D603B093D703BF91AF919F918F911F90EE
:103D50001FBE1F90189581E08093E00080E2809361
:103D6000D8001092C9008FE19EE40197F1F700C0DE
:103D7000000087E090EBDC018093E7039093E80379
:103D8000A093E903B093EA0388E19CE00FB6F894AE
:103D9000A895809360000FBE90936000FFCFAF9214
:103DA000BF92CF92DF92EF92FF920F931F93CF9328
:103DB000C0E0CC24C394D12CE82EF12C8C2F0E948F
:103DC000AC0E5C0110E000E0C601002E02C0880FBE
:103DD000991F0A94E2F78A219B21892B99F40F5F9E
:103DE0001F4F0E30110581F7CF5FC53039F780E0E6
:103DF000CF911F910F91FF90EF90DF90CF90BF90E8
:103E0000AF900895602F7C2F80E00E94BE0CE816D2
:103E1000F90629F781E0ECCFCF93C82F8CE20E94FE
:103E2000CF1E882321F08C2FCF910C94CF1E80E0E1
:103E3000CF910895CF930E947D1C811102C00E94F2
:103E4000241DC5E608C00E94220F8FE39CE901975C
:103E5000F1F700C00000C150B1F789E20E940C1FC9
:103E6000811100C18AE20E940C1F81110E94241D51
:103E700085E00E940C1F81110E94AB1E0E94881CCD
:103E800080939B0387E00E940C1F882371F08BE1D5
:103E90000E940C1F882309F4C2C090919B03892FB4
:103EA0008D7F91FF826080939B0380919B030E9492
:103EB0008C1C0E949A1C9093D9038093D80380EEA7
:103EC0000E940C1F882341F09091D803892F8E7F88
:103ED00090FF81608093D80389E30E940C1F8823A0
:103EE00041F09091D803892F8D7F91FF826080935C
:103EF000D80382EE0E940C1F882341F09091D803D2
:103F0000892F8B7F92FF84608093D80386EE0E9476
:103F10000C1F882341F09091D803892F877F93FF4E
:103F200088608093D80383EE0E940C1F882341F0A1
:103F30009091D803892F8F7E94FF80618093D8035E
:103F400085E30E940C1F882341F09091D803892FAC
:103F50008F7D95FF80628093D80381E30E940C1FC0
:103F6000882341F09091D803892F8F7B96FF80643E
:103F70008093D80381E10E940C1F882341F0909127
:103F8000D803892F97FB87F980588093D8038091B5
:103F9000D8039091D9030E94A81C87E20E940C1FAD
:103FA000C82F8EE10E940C1F8111C2608FE10E9418
:103FB0000C1F8111C46080E20E940C1F8111C86037
:103FC00081E20E940C1F8111C06182E20E940C1FDD
:103FD0008111C06283E20E940C1F8111C06484E2DF
:103FE0000E940C1F8823C1F1C0688C2F0E94951C71
:103FF0006C2F70E090E080E00E94E7198FE00E9453
:104000000C1F882319F081E00E94261D85E10E9483
:104010000C1F882339F180E0CF910C94261D8EE08F
:104020000E940C1F882339F090919B03892F8B7F6E
:1040300092FF846038CF80E10E940C1F90919B0317
:10404000882329F0892F877F93FF88602CCF892FC1
:104050008E7F90FF816027CFC111C7CF0E94911C36
:10406000682FC7CFCF9108958091BD03089508951B
:104070000895CF93DF93EC010E94FF21823011F06D
:104080008430B9F580910C018823B1F18091D80377
:1040900087FF32C060E282E08093E9008FEF909169
:1040A000E800815095FD06C095ED9A95F1F7000066
:1040B0008111F5CF8091E80085FF1BC080910C0134
:1040C00070E050E040E0811104C050E040E068E062
:1040D00070E0CE010E941C228091E8008E778093D0
:1040E000E80080E2FE01ADE9B3E001900D928A950F
:1040F000E1F7DF91CF91089568E081E0CDCF089599
:104100008091DD03811109C00E94AE230E940B241F
:104110008091E20084608093E20008951092DD03B4
:104120000895089508950C94341E42E061EC81E0F6
:104130000E942A2342E261EC82E00C942A238091BF
:10414000E003833009F45FC030F48130C1F1823084
:1041500009F49BC008958A3009F487C08B3009F4B4
:104160006DC0893009F04EC08091DF03813209F0C3
:1041700049C08091E3039091E403029708F042C0A4
:104180008091E800877F8093E8008091E80082FFBB
:1041900035C09091F3008091F200029729F480914C
:1041A000F1008B7F813021F48091F1008093BD0379
:1041B0008091E8008B778093E8000C945E238091D7
:1041C000DF03813AF9F48091E800877F8093E8006B
:1041D0008091E3039091E403892B61F460E28DE91F
:1041E00093E070E00E946D228091E8008B778093CD
:1041F000E800089560E090E080E0F3CF8091DE0376
:104200008111C3CF08958091DF03813AD9F780915E
:10421000E3039091E403892BA9F78091E800877F5D
:104220008093E8008091E80080FFFCCF80910C0132
:104230008093F1008091E8008E77BDCF8091DF03FD
:10424000813201F78091E3039091E403892BD1F649
:104250008091E800877F8093E8000E945E23809130
:10426000E10380930C010C944F168091DF0381329F
:1042700049F68091E800877F8093E8000E945E23E2
:104280008091E2038093BE0308958091DF03813A19
:1042900009F0B8CF8091E800877F8093E800809193
:1042A000E80080FFFCCF8091BE03C2CF84B7877F38
:1042B00084BF0FB6F894A8958091600088618093C0
:1042C0006000109260000FBE80E890E00FB6F89496
:1042D00080936100909361000FBE0E9443120E9480
:1042E000AE230E940B248091E20084608093E20060
:1042F00078940E944B260E944D1282E091E00E9429
:10430000DE118091DE03853029F00E9455120E9453
:104310004B26F7CF0E94EB1D8091DC03882389F3A5
:104320000E941C1E882369F30E940622EACF0C9487
:104330009921292F33272330310519F168F42130D1
:10434000310509F44AC02230310509F44BC090E030
:1043500080E030E020E028C02132310579F12232BE
:104360003105A9F780E490E02EEC33E0611571058A
:10437000D9F08BE390E023E933E061307105A1F0DF
:10438000E6CF99278130910599F0009741F082306E
:10439000910589F00397D9F6E0EFF2E002C0E2E47C
:1043A000F3E0849190E09F01FA0131832083089526
:1043B000E4E3F3E0F6CFE6EFF2E0F3CF89E090E05C
:1043C00028E533E06115710579F389E090E021E794
:1043D00033E06130710541F3BACF82E190E021E82A
:1043E00033E0E2CF8BE390E026E433E0DDCF809151
:1043F000DE03843011F482E0089581E00895809115
:10440000BF03811102C00C94F721089580E189BD9A
:1044100082E189BD09B400FEFDCF8091D8008F7D77
:104420008093D8008091E00082608093E0008091CA
:10443000E00081FDFCCF0895AF92BF92CF92DF9252
:10444000FF920F931F93CF93DF936C01EB018A01CF
:104450000E947D23F82E811125C00115110539F028
:10446000F80180819181C81BD90BC80ED91EB12CCF
:10447000A12C2097B9F08091E80085FD24C080919F
:10448000E8008E778093E8000E944B260115110505
:10449000A1F0F80180819181A80EB91EB182A0829D
:1044A00085E0F82E8F2DDF91CF911F910F91FF9016
:1044B000DF90CF90BF90AF9008950E947D23882316
:1044C000C1F2F82EEFCFF60181916F018093F100D8
:1044D0002197FFEFAF1ABF0ACCCFFC018091E50313
:1044E0009091E60386179707A0F06115710529F4EE
:1044F0009091E8009E779093E80090E06115710537
:1045000051F4911108C08091E80082FF34C080E02E
:104510000895BC01F2CF8091DE038823C1F185307C
:10452000C1F18091E80083FD30C08091E80082FDF8
:10453000EACF8091E80080FFE1CF8091F3002091E5
:10454000F200382F6115710519F02830310558F047
:1045500091E02830310509F090E02091E8002E77B5
:104560002093E800CBCF81918093F10061507109D5
:104570002F5F3F4FE7CF8091DE03882341F08530E6
:1045800041F08091E80083FFBECF81E0089582E092
:10459000089583E00895FC018091E5039091E6037E
:1045A00086179707A0F06115710529F48091E8003E
:1045B0008E778093E80090E06115710551F49111B8
:1045C00008C08091E80082FF35C080E00895BC01FA
:1045D000F2CF8091DE038823C9F18530C9F1809143
:1045E000E80083FD31C08091E80082FDEACF809130
:1045F000E80080FFE1CF8091F3002091F200382F96
:104600006115710519F02830310558F091E0283016
:10461000310509F090E08091E8008E778093E80002
:10462000CBCF84918093F1003196615071092F5F57
:104630003F4FE6CF8091DE03882341F0853041F083
:104640008091E80083FFBDCF81E0089582E0089566
:1046500083E00895982F973028F08F708093E900B9
:1046600081E008959093E900242F762F50E0981769
:1046700031F07091EC002091ED005091F00021FD9F
:1046800002C09F5FE8CF3091EB003E7F3093EB009C
:104690003091ED003D7F3093ED003091EB003160C3
:1046A0003093EB007093EC002093ED005093F000FA
:1046B0002091EE0027FDE5CF80E008958091DF0393
:1046C00087FF13C08091E80082FF06C08091E80058
:1046D0008B778093E80004C08091DE038111F2CFD4
:1046E00008958091DE038823D9F38091E80080FF4C
:1046F000F8CF8091E8008E77ECCF2091E4003091E4
:10470000E50095E6A9012091EC00822F817020FF41
:1047100006C08091E80080FF06C080E008952091E7
:10472000E80022FD1AC08091DE03882389F08530DD
:1047300089F08091EB0085FD0FC02091E40030915D
:10474000E50042175307F9F29150E1F684E008952D
:1047500082E0089583E0089581E008950E941C247A
:104760000E942424E0EEF0E0808181608083E8ED07
:10477000F0E080818F77808319BCA7EDB0E08C9149
:104780008E7F8C9380818F7E80831092DD030895CD
:104790000F931F93CF93DF930E941C240E94242425
:1047A000C8EDD0E088818F7788838881806888838E
:1047B00088818F7D888319BC1092DE031092DA0302
:1047C0001092DC031092DB0300EE10E0F801808110
:1047D0008B7F808388818160888342E060E080E015
:1047E0000E942A23E1EEF0E080818E7F8083E2EE5A
:1047F000F0E0808181608083808188608083F8011F
:1048000080818E7F8083888180618883DF91CF91D2
:104810001F910F910895E8EDF0E080818F7E8083F5
:10482000E7EDF0E080818160808384E082BF81E0F9
:104830008093DD030C94C823E8EDF0E080818E7F47
:1048400080831092E20008951092DA001092E10045
:1048500008951F920F920FB60F9211242F933F933A
:104860004F935F936F937F938F939F93AF93BF9378
:10487000EF93FF938091E10082FF0BC08091E200F3
:1048800082FF07C08091E1008B7F8093E1000E944E
:104890004A268091DA0080FF19C08091D80080FFFD
:1048A00015C08091DA008E7F8093DA008091D90064
:1048B00080FF91C080E189BD82E189BD09B400FE1D
:1048C000FDCF81E08093DE030E9480208091E10093
:1048D00080FF19C08091E20080FF15C08091E20046
:1048E0008E7F8093E2008091E20080618093E200FD
:1048F0008091D80080628093D80019BC85E08093B5
:10490000DE030E9492208091E10084FF2BC0809101
:10491000E20084FF27C080E189BD82E189BD89B5BD
:10492000982F917080FFFBCF8091D8008F7D80936E
:10493000D8008091E1008F7E8093E1008091E200B9
:104940008F7E8093E2008091E20081608093E2009C
:104950008091DA03882309F444C084E08093DE0365
:104960000E9493208091E10083FF24C08091E200A7
:1049700083FF20C08091E100877F8093E10082E087
:104980008093DE031092DA038091E1008E7F8093A2
:10499000E1008091E2008E7F8093E2008091E2004E
:1049A00080618093E20042E060E080E00E942A2380
:1049B0000E949120FF91EF91BF91AF919F918F91B4
:1049C0007F916F915F914F913F912F910F900FBE0B
:1049D0000F901F90189519BC1092DE030E948E2034
:1049E00075CF8091E30087FD93E09093DE03B8CF0D
:1049F0001F93CF93DF93CDB7DEB7AA970FB6F89486
:104A0000DEBF0FBECDBF8FED93E02091F100FC0122
:104A10002193CF01F3E0873E9F07B9F70E949F20C3
:104A20008091E80083FF1EC18091DF039091E00335
:104A30009A3008F017C1E92FF0E0E85AF84D0C94CD
:104A40006626803899F0823809F00CC18091E30322
:104A50008F70873008F006C18093E9008091EB00E9
:104A600085FB882780F91092E90006C08091DB035E
:104A70009091DC03911182609091E800977F909370
:104A8000E8008093F1001092F1008091E8008E77A9
:104A9000E5C0882309F4D3C0823009F0E3C08091D7
:104AA000E1038111D6C08091E3038F702FEF280FAF
:104AB000263008F0D7C08093E9002091EB0020FF5A
:104AC000C8C0933031F48091EB0080628093EB009A
:104AD000C0C09091EB0090619093EB0021E030E03A
:104AE00001C0220F8A95EAF72093EA001092EA00AB
:104AF0008091EB008860EACF8111B4C01091E1038E
:104B00001F778091E3008078812B8093E300809170
:104B1000E800877F8093E8000E945E238091E80090
:104B200080FFFCCF8091E30080688093E30082E007
:104B3000111183E08093DE0395C08058823008F025
:104B400091C08091E1039091E2038C3D23E09207B4
:104B5000A1F583E08A838AE289834FB7F894DE0166
:104B6000139620E03EE051E2E32FF0E0509357002F
:104B7000E49120FF03C0E295EF703F5FEF708E2F4E
:104B800090E0EA30C0F0C7968D939D932F5F24315B
:104B900059F74FBF8091E800877F8093E8006AE271
:104BA00070E0CE0101960E946D228091E8008B7723
:104BB0008093E80057C0C096E7CF6091E3037091FF
:104BC000E403AE014F5F5F4F0E949721BC01892B28
:104BD00009F448C09091E800977F9093E80089819C
:104BE0009A810E94CB22E1CF8038E1F58091E800E4
:104BF000877F8093E8008091DA038093F10045CFAE
:104C0000811130C09091E103923060F58091E8000D
:104C1000877F8093E8009093DA030E945E2380915F
:104C2000DA03882311F084E005C08091E30087FD5A
:104C3000FACF81E08093DE030E94952013C080911B
:104C4000E103813079F481E0933009F080E08093D2
:104C5000DC031092E9008091E800877F8093E800F0
:104C60000E945E238091E80083FF0AC08091E800E3
:104C7000877F8093E8008091EB0080628093EB0057
:104C8000AA960FB6F894DEBF0FBECDBFDF91CF91CD
:104C90001F9108950895CF938091DE038823A1F09A
:104CA000C091E900CF709091EC00892F817090FD48
:104CB00080E8C82B1092E9008091E80083FD0E94F3
:104CC000F824CF70C093E900CF910895EE0FFF1F35
:104CD0000590F491E02D0994F999FECF92BD81BD24
:104CE000F89A992780B50895A8E1B0E042E050E035
:104CF0000C94A026262FF999FECF92BD81BDF89A7B
:104D0000019700B4021639F01FBA20BD0FB6F8940F
:104D1000FA9AF99A0FBE08950396272F0E947B26D0
:104D20000E947A26252F0E947B26242F0C947B2616
:104D30000196272F0E947B260C947A26DC01CB015A
:104D4000FC01F999FECF06C0F2BDE1BDF89A31969B
:104D500000B40D9241505040B8F70895F894FFCF39
:104D6000A302A702AA02AD02B002B302B602B902C0
:104D7000BC02BF02C202C502EC02C802CB02CE02D4
:104D8000D102D402D702DA02DD02E002E302E60237
:104D9000E902EF02F202F502F802FB02FE02010351
:104DA000040307030A030D03100313031603190377
:104DB0001C031F032203250328032B035103550360
:104DC00058035B035E036103640367036A036D03B7
:104DD000700373039403760379037C037F038203D8
:104DE000850388038B038E0391035B035E039703A4
:104DF0009A039D03A003A303A603A903AC03AF0377
:104E00003F04B203B503B803BB03BE03C103C4032D
:104E1000C703CA03CD03D0035103550358035B03F3
:104E20005E036103640367036A036D037003730326
:104E300094033F04E503E803EB03EE03F103F403FB
:104E4000F703FA03FD0300045B03030406040904EB
:104E50000C040F041204150418041B041E0421047E
:104E60003F04240427042A042D04300433043604A8
:104E700039043C044B144B14A314A3147814781471
:104E800078147814F514811590159015EC15781494
:104E90007814F5155E165E1667166716691667169E
:104EA000671667165E165E166E16671667166E161E
:104EB000212549253226492532267C259D25322665
:044EC000F4250026AF
:104EC400780334203920372038207F200131003303
:104ED400003400350036003700380030002D000162
:104EE40002E12D0103E1002E006B61007461006B8F
:104EF4006F007361007261007469006B75000101D9
:104F040039010136010139002C003B00010139014E
:104F14000187010139007369007465006B650073D2
:104F24006500686100746F006B69006E6E000101BA
:104F34002A00010139010137010139006869007350
:104F440075006875006865006D6500736F006E65B7
:104F540000686F002F0020000101390102E1010106
:104F6400380103E10101390001013901013801016E
:104F740039000101390102E101012E0103E10101BE
:104F840039005D00010132000102E15D0103E1002D
:104F94000102E10101320103E1000102E1010134F6
:104FA4000103E10028000102E10101870103E1009E
:104FB4000102E13B0103E1006C61007269006C795C
:104FC4006100726500706100646900677500647552
:104FD40000706900776F006E61006C7975006D6F09
:104FE40000626100646F00676900706F006C750097
:104FF400726F006C69007075007A6F0070650062F2
:105004006F003F00676100646100676F007A6100B0
:105014006E69007275006D61006C65005B007675E9
:10502400007A69006465006765007A65006D69004F
:105034006E6F006C796F006C7475002700626900F4
:105044007A75006275006265006E75006D75007793
:1050540061006C6F0001018B000101910001018A64
:105064000001019000F0F1C667663694313735349B
:085074009796339091929395F9
:00000001FF
