:100000000C947A020C94C1020C94C1020C94C102AB
:100010000C94C1020C94C1020C94C1020C94C10254
:100020000C94C1020C94C1020C943D1F0C9411203D
:100030000C9439190C94C1020C94C1020C94C102A5
:100040000C94C1020C94F6050C94C1020C94C102EC
:100050000C94C1020C949F190C94C1020C94C1021F
:100060000C94C1020C94C1020C94C1020C94C10204
:100070000C94C1020C94C1020C94C1020C94C102F4
:100080000C94C1020C94C1020C94C1020C94C102E4
:100090000C94C1020C94C1020C94C1020C94C102D4
:1000A0000C94C1020C94C1020C94C10229001E00E0
:1000B0001F0020002100220023002400250026002C
:1000C00027002D002E002A002B0014001A00080023
:1000D000150017001C0018000C00120013002F0060
:1000E00030003100E00004001600070009000A009B
:1000F0000B000D000E000F0033003400000028003C
:10010000E10000001D001B000600190005001100A1
:1001100010003600370038000000E5000251E3000F
:10012000E200000000002C002C0000000000000095
:10013000E600E7006542E4002900085D095D0A5D0C
:100140000B5D0C5D0D5D0E5D0F5D105D115D125D53
:10015000135D2A002B00155D165D175D185D195D96
:100160001A5D1B5D1C5D1D5D1E5D1F5D205D145DC8
:10017000E000215D225D235D245D255D265D275D18
:10018000285D295D2A5D2B5D00002800E10000004C
:100190002C5D2D5D2E5D2F5D305D315D325D335DFB
:1001A000345D355D0000E5000251E300E20000002F
:1001B0000000375D365D0000000000000100010016
:1001C0000100010035003A003B003C003D003E00CC
:1001D0003F004000410042004300440045004C0005
:1001E0000000000000000000000000004A004E0077
:1001F0004B004D00460000004800000000000000D9
:1002000000000000000000005000510052004F00AC
:1002100049004C0000002800E10000000000000040
:1002200000000000000000000000000000000000CE
:1002300000000000025100002C0200000000395DA7
:10024000385D0000000000002C028B00010001005E
:1002500000000000000000002A2B28000000000021
:100260000000000000000000000000290000000065
:100270002C1E3420212224342627252E362D3738D3
:10028000271E1F202122232425263333362E3738DC
:100290001F0405060708090A0B0C0D0E0F1011129A
:1002A000131415161718191A1B1C1D2F3130232D66
:1002B000350405060708090A0B0C0D0E0F10111264
:1002C000131415161718191A1B1C1D2F3130354C15
:1002D000000000000000000000000000000000001E
:1002E000000000000000000000000000000000000E
:1002F00000000000000000000000000000000000FE
:1003000000000000000000000000000000000000ED
:1003100000000000000000000000000000000000DD
:1003200000000000000000000000000000000000CD
:1003300000000000000000000000000000000000BD
:1003400000000000000000000000000000000000AD
:10035000000000000000000000000000000000009D
:10036000000000000000000000000000000000008D
:100370000001010101010100010101010000000073
:100380000000000000000000000001000100010169
:10039000010101010101010101010101010101014D
:1003A0000101010101010101010101000000010140
:1003B000000000000000000000000000000000003D
:1003C0000000000000000000000000010101010029
:1003D000040330000000420358004400360034009B
:1003E000200033002E00300020004E004900430062
:1003F0004F004C00410020004A00500020004F00F8
:1004000079006100790075006200690020005300E6
:10041000680069006600740000000C035800490081
:1004200055004400490000000403090409023B0090
:10043000020100A0FA0904000001030101000921E2
:10044000110100012240000705810308000A090488
:1004500001000103000000092111010001223B00FD
:100460000705820320000A1201100100000008EDB8
:10047000FE636301000102030105010906A1018574
:1004800005050719E029E715002501950875018183
:10049000020507190029EF1500250195F075018166
:1004A0000205081901290595057501910295017547
:1004B000039101C005010906A101050719E029E71B
:1004C00015002501950875018102950175088101C6
:1004D0000507190029FF150026FF009506750881FC
:1004E0000005081901290595057501910295017509
:1004F000039101C011241FBECFEFDAE0DEBFCDBFF4
:1005000004B603FE27C080910D0490910E04A091C3
:100510000F04B09110048730904BA740B04BD1F43A
:1005200010920D0410920E0410920F0410921004F9
:1005300014BE84B7877F84BF0FB6F894A8958091C6
:100540006000886180936000109260000FBEE0E060
:10055000F8E3099513E0A0E0B1E0EEE7F5E402C0AE
:1005600005900D92A630B107D9F724E0A6E0B3E0DC
:1005700001C01D92AD30B207E1F70E946E1C0C94D1
:100580000B220C94000080931203089580911303B2
:100590000895109210031092070310920603089515
:1005A00081E0809313030E94C902809112030C948E
:1005B0007615109213030E94C902809112030C94C5
:1005C0009715209113032223F9F0805E9109089773
:1005D000D8F480911103FB019281992361F081117C
:1005E00004C0809112030E949715809111038F5FC0
:1005F000809311030895815080931103811104C0E9
:10060000809112030C9476150895E0910E03F091F9
:100610000F03E850FD45EE32F10508F08FC0E35FAF
:10062000FD4D0C94C32188E491E00C9443078DE0C8
:1006300091E0FBCF8FE091E0F8CF81E191E0F5CF41
:1006400083E191E0F2CF85E191E0EFCF87E191E0A6
:10065000ECCF89E191E0E9CF82E092E0E6CF8BE157
:1006600091E0E3CF8DE191E0E0CF8FE191E0DDCF4C
:1006700081E291E0DACF83E291E0D7CF86E291E0A8
:10068000D4CF89E291E0D1CF8CE291E0CECF8FE25E
:1006900091E0CBCF82E391E0C8CF85E391E0C5CF75
:1006A00086E692E0C2CF88E391E0BFCF82E491E09A
:1006B000BCCF84E491E0B9CF86E491E0B6CF82E785
:1006C00092E0B3CF8AE491E0B0CF8DE491E0ADCF7A
:1006D00080E591E0AACF83E591E0A7CF86E591E0A0
:1006E000A4CF89E591E0A1CF8CE591E09ECF8CE687
:1006F00092E09BCF8FE591E098CF82E691E095CF95
:1007000086E691E092CF80E791E08FCF83E791E09A
:100710008CCF86E791E089CF89E791E086CF8CE79F
:1007200091E083CF8FE791E080CF82E891E07DCFA9
:1007300085E891E07ACF88E891E077CF08958091BD
:100740000C0390910D03892B21F08AE891E00C9421
:100750004307089580910C0390910D0386332DE596
:10076000920709F090C0E0910E03F0910F03E8505A
:10077000FD45EE32F10508F0EFC0E55CFD4D0C944F
:10078000C3218CE891E00C9443078CE991E0FBCF06
:1007900086EA91E0F8CF86EB91E0F5CF88EB91E027
:1007A000F2CF8AEB91E0EFCF82EC91E0ECCF84E6E0
:1007B00091E0E9CF8AEC91E0E6CF8CEC91E0E3CFD9
:1007C0008EEC91E0E0CF86ED91E0DDCF8EED91E013
:1007D000DACF85E792E0D7CF81EE91E0D4CF84EEF7
:1007E00091E0D1CF88EE91E0CECF8BEE91E0CBCFF0
:1007F0008EEE91E0C8CF81EF91E0C5CF84EF91E01C
:10080000C2CF87EF91E0BFCF8AEF91E0BCCF84E009
:1008100092E0B9CF82E192E0B6CF87E092E0B3CF29
:100820008AE092E0B0CF8EE092E0ADCF81E192E03D
:10083000AACF84E192E0A7CF87E192E0A4CF8AE13A
:1008400092E0A1CF82E691E09ECF8DE192E09BCF36
:100850008DE191E098CF80E292E095CF85EE91E036
:1008600092CF83E292E08FCF86E292E08CCF89E252
:1008700092E089CF8CE292E086CF8FE292E083CF44
:1008800082E392E080CF87339D4509F065C0E09117
:100890000E03F0910F03E850FD45EE32F10508F02C
:1008A0005BC0E759FD4D0C94C32184E392E06BCF0C
:1008B00087E392E068CF8AE392E065CF8DE392E030
:1008C00062CF82E692E05FCF80E492E05CCF83E487
:1008D00092E059CF86E492E056CF89E492E053CF7C
:1008E0008CE492E050CF8FE492E04DCF82E592E02D
:1008F0004ACF85E592E047CF88E592E044CF8BE58B
:1009000092E041CF80E392E03ECF8EE592E03BCF94
:1009100081E692E038CF85E692E035CF89E692E035
:1009200032CF8BE692E02FCF8EE692E02CCF81E79C
:1009300092E029CF84E792E026CF87E792E023CFA9
:100940008BE092E020CF8AE792E01DCF8DE792E026
:100950001ACF80E892E017CF0895EF92FF920F939D
:100960001F93CF93DF938C017B0181E090E0909304
:100970000703809306030E946919EC01F701F280D6
:10098000980128503D45FF2009F4ADC08091100327
:100990002E32310508F051C0823041F1E8F488234D
:1009A00089F1813001F110930F0300930E03D0936E
:1009B0000B03C0930A0380E699E00E94E805F12C3E
:1009C00010920703109206038F2DDF91CF911F9194
:1009D0000F91FF90EF9008958330B1F0843019F7B4
:1009E0000E94AA030FC00E940503DDCF8091080377
:1009F000909109039E01281B390B27393105C8F056
:100A00000E949F0381E016C0809108039091090322
:100A10009E01281B390B2739310510F740910A0335
:100A200050910B03841B950B82179307C8F20E9409
:100A3000050384E080931003B6CF980126533D450B
:100A40002230310508F041C0823079F168F4882302
:100A500041F18130D1F010930D0300930C03D0933A
:100A60000903C0930803A7CF833061F0843099F75E
:100A700080910A0390910B039E01281B390B2739A3
:100A80003105B0F00E94AA030CC080910A03909136
:100A90000B03FE01E81BF90BE739F105A0F00E94FA
:100AA000050382E080931003D6CF0E949F03D3CF2B
:100AB0004091080350910903841B950B82179307FB
:100AC00008F30E949F0383E0EDCF823009F44CC00D
:100AD00028F48130E1F01092100372CF8530D8F7FE
:100AE0000E94AA03F8CF2033310508F06EC0809130
:100AF0001003823089F170F4813009F061CF809168
:100B00000E0390910F038017910709F059CF0E94AF
:100B10000503E1CF833059F1843009F051CF809142
:100B20000C0390910D038017910709F049C0809143
:100B30000A0390910B03C81BD90B20910803309135
:100B40000903821B930B8C179D0750F2649740F6A4
:100B50000E949F0381E028C080910C0390910D03B7
:100B60008017910709F02CCF0E949F03B4CF80918A
:100B70000E0390910F0380179107C9F48091080329
:100B800090910903C81BD90B20910A0330910B03E4
:100B9000821B930B8C179D0708F4A2CF649708F073
:100BA0009FCF0E94050382E08093100309CF8091BC
:100BB0000C0390910D038017910709F001CF90CF9E
:100BC00080910E0390910F03F6CFFF24F394F8CE9B
:100BD000F89410928500109284009093890080937D
:100BE000880082E080936F00789408951F920F929E
:100BF0000FB60F9211242F933F934F935F936F93F0
:100C00007F938F939F93AF93BF93EF93FF93E09165
:100C10001403F09115030995FF91EF91BF91AF91E6
:100C20009F918F917F916F915F914F913F912F9104
:100C30000F900FBE0F901F901895229A2A98089532
:100C400022982A980895CF93C82F81FF06C00E944A
:100C50001D068C2FCF910C9450070E942006F9CFCF
:100C600081E00C94C3020F931F93CF93DF93EC01A9
:100C70008B01C8338DE5D807A1F0C933EDE5DE0758
:100C800001F10E94C602882339F1B801CE010E9409
:100C9000E102B801CE01DF91CF911F910F910C9429
:100CA000AD04FB018281882339F083E892E00E9441
:100CB00043070E94D90280E0DF91CF911F910F91ED
:100CC0000895FB0182818823B9F38DE892E00E94A8
:100CD00043070E94D002EFCF81E0EECF81E008957C
:100CE0000C9433061F93CF93DF9300D000D00F9264
:100CF000CDB7DEB749835A836B8320912E03898158
:100D00009A8121111BC06623A9F00E946616182F34
:100D1000682F89819A810E94121669817A81812FB8
:100D20000F900F900F900F900F90DF91CF911F9128
:100D30000C94AC070E943E16182FEFCF0E94661647
:100D400069817A81EDCFFC0140815181628173819B
:100D500084810C9472061F93CF93DF9390E0FC0183
:100D6000E05BFD4F1491FC01E05BFC4FD49180539C
:100D70009D4FFC01C491DD2319F081EE0E944A0EC3
:100D8000CC2319F086EE0E944A0E812F0E940F0F8D
:100D9000CC2319F086EE0E94C00EDD2331F081EEE7
:100DA000DF91CF911F910C94C00EDF91CF911F91D5
:100DB0000895EF92FF920F931F93CF93DF93EC016F
:100DC000162F0AE08881882309F456C0813009F083
:100DD00050C08981813061F47E0122E0E20EF11C75
:100DE000CA818C2F0E944A0E8C2F0E94C00E09C00F
:100DF000823099F47E0182E0E80EF11C8A810E9423
:100E00004A0EE7012196812F8150E0F2EFE9FFE0E1
:100E10003197F1F700C00000F7CF833031F47E0145
:100E2000E2E0EE0EF11C8A81E0CF843011F02196D1
:100E3000E9CF2A81229690E080E0AE014F5F5F4FBC
:100E40002053330B2A30310548F00197D8F2EFE9EF
:100E5000FFE03197F1F700C00000F7CF089FB00125
:100E6000099F700D1124C901860F971F2981EA017E
:100E7000E4CF0E94AB06C6CFDF91CF911F910F91B7
:100E8000FF90EF90089560E00C94D9060E94AA1795
:100E9000811102C00E9451180C94AE090C94B10942
:100EA000089581E008950C945107CF93C82F0E94B4
:100EB00023068C2FCF910C94530708950E94521152
:100EC0000E945D072FEF84E39CE02150804090401A
:100ED000E1F700C000000C94C3190F931F93CF9348
:100EE000DF93EC010E94A3068C01BE010E947006F4
:100EF000882329F1BE01C8010E94680B8823F9F0FC
:100F0000BE01C8010E94A90B8823C9F0BE01C80117
:100F10000E94CC0C882399F08A81882339F001152E
:100F20008CE5180751F00E3D1C4579F0CE01DF919C
:100F3000CF911F910F910C946E060E945E0780E086
:100F4000DF91CF911F910F9108950E945118F7CF13
:100F500090E080E008950895972F70E02EE0929F32
:100F6000600D711D1124FB0196E4899FE00DF11DB8
:100F70001124EE0FFF1FE455FF4F859194910895C2
:100F8000FC01EE0FFF1FE053FC4F859194910895F3
:100F9000CF93DF930E94AC070E94D408EC01811527
:100FA00020E5920708F041C0811530E4930708F06E
:100FB000B4C0803E910518F5803C910508F09DC0B5
:100FC000883A910570F4853A910508F08EC0813019
:100FD0009105F9F00097E9F00497D8F4D0E0C0E06B
:100FE00018C08F3B9105D0F7C85AD0E0CC0FDD1F59
:100FF000CF56DD4F0990D881C02DD4640AC0811529
:10100000904258F4C11581E0D80718F4C83ED105C4
:1010100028F7CE01DF91CF910895C11590E3D9074C
:1010200008F071C0CE019F706AC0811525E5920756
:1010300058F5811534E5930708F09EC0811542E507
:10104000940750F4C11581E5D80708F469C0DC2F76
:10105000CC27C16FD06ADDCF982F969596959E01CB
:1010600023703327C115D34508F077C0C1E0D0E025
:1010700002C0CC0FDD1F2A95E2F720E2929FC0014B
:101080001124C82BD92B67C0C11589E5D807A8F44E
:10109000C11598E5D90708F074C0C11526E5D20737
:1010A00008F09CCF8C2F0E946B09C82FD0E0DC2F5A
:1010B000CC27CC27DF71D062ACCFC1153AE5D3077E
:1010C00008F464C0CE0190568115904208F086CF96
:1010D0008D2F8F710E946B0990E0982F88278827A9
:1010E0009F719C012C2BE901E6CFC55AD0E0C15479
:1010F000DD4FC881D0E0D0648CCF805C91090E9424
:10110000C007EC0186CFCE019927D3FF03C0EC01C5
:10111000D86C7FCFEC01D06C7CCFDF70D06A79CFF8
:10112000CE01E4E096958795EA95E1F783702C2F40
:1011300026952695237090E2299F90011124382B43
:101140008C2F8370C1E0D0E002C0CC0FDD1F8A95E8
:10115000E2F7C22BD32BDC685CCFC1E0D0E002C049
:10116000CC0FDD1F2A95E2F730E2939FC0011124D6
:10117000C82BD92BDA684DCFD82FCC27C46FD06AB3
:1011800048CFDC2FCC27C06FD06A43CF8C2F8F7015
:101190000E946B0934E0D695C7953A95E1F7CF7078
:1011A0009C2FEC01D06935CF82389105B1F1B0F4B4
:1011B0008133910509F475C048F48932910509F429
:1011C00069C08A32910509F473C008958533910589
:1011D00009F459C08933910501F10895833E9105C1
:1011E000A9F138F4803E9105F9F0823E910549F16C
:1011F0000895863E9105A9F1873E9105C9F1843E87
:10120000910519F52091FF0321FF1FC08091FE0376
:1012100084FD14C087EE90E008952091FE032370B2
:10122000A1F080EE90E008952091FE0320FD47C0DC
:101230003091FF0330FF09C024FF44C090E080E0FC
:1012400004C02091FE0322FDF7CF08952091FE03F4
:1012500022FD3BC03091FF0330FDE3CF24FFF5CFEB
:10126000EDCF2091FE0323FFF0CF24FDE7CFD2CFB7
:101270002091FE0323FD2CC03091FF0331FFEECF00
:1012800084EE90E008952091FE0325FFDECF89E2F1
:1012900090E008952091FE0325FFD7CF85E390E0ED
:1012A00008952091FE0326FFD0CF8AE290E00895B2
:1012B0002091FE0326FFC9CF81E390E0089589E3E2
:1012C00090E0089583EE90E0089582EE90E0089516
:1012D00086EE90E008959091FE0392FF06C0282FBD
:1012E00028712830F9F4877F846093FF06C0282F87
:1012F00028712831F1F4877E84612091FF0320FF5B
:1013000006C0382F38713830D9F4877F816021FFCB
:1013100006C0282F28712831D1F4877E816194FD81
:10132000877E0895282F24712430F9F68B7F8860FA
:10133000DCCF282F2471243101F78B7E8861DDCF2B
:10134000382F3171313019F78E7F8860E0CF282F28
:101350002171213121F78E7E8861E1CF0C94300616
:1013600008950C94B009E82FF0E0EE0FFF1FE05154
:10137000FC4F808191810895089580EA8A95F1F764
:101380000895CF93DF93A0EDB2E045ED52E0C1E0C8
:10139000D0E08D91E82FE295EF70F0E061A18F70C1
:1013A0009E0101C0220F8A95EAF7922F909596230D
:1013B00091A382A1822B82A34A175B0751F7A2EC6B
:1013C000B2E061E070E08D91E82FE295EF70F0E01F
:1013D00041A18F709B0101C0220F8A95EAF7922FDD
:1013E0009095942391A382A1822B82A382E0A03DB9
:1013F000B80749F71092E7031092E6031092F10341
:101400001092F0031092E9031092E8031092F30394
:101410001092F2031092EB031092EA031092F5037C
:101420001092F4031092ED031092EC031092F70364
:101430001092F6031092EF031092EE031092F9034C
:101440001092F80385E00E94C10ADF91CF910C94BD
:1014500046074F925F926F927F928F929F92AF92C8
:10146000BF92CF92DF92EF92FF920F931F93CF9391
:10147000DF9306EE13E090EDC92E92E0D92E912C69
:10148000AA24A394B12CD8016D907C90F8011192FC
:1014900011928F01D6018D916D01C82FC295CF7029
:1014A000D0E099A18F70750101C0EE0C8A95EAF722
:1014B000892F8E2989A38AA18E2C809488218AA3C2
:1014C0000E94BD0982EC482E82E0582E30E020E0D8
:1014D000F8013297D2016D912D01862F82958F7080
:1014E00090E0DC0190968C914081518190E06F708A
:1014F00002C0959587956A95E2F780FD3FC0C501CA
:10150000022E02C0880F991F0A94E2F7842B952BB4
:10151000918380832F5F3F4F2E303105D9F689A10B
:10152000882289A28AA1E82AEAA281E02081318169
:101530002615370509F480E0982AB3E0003F1B0721
:1015400009F0A1CF292D45E060EF73E086EE93E02E
:101550000E94C20A0E944E07892DDF91CF911F91F0
:101560000F91FF90EF90DF90CF90BF90AF909F9042
:101570008F907F906F905F904F90089590E080E003
:10158000C5CF0895FF920F931F93CF93DF93F82E4B
:10159000092F162FD72FC42F222349F081E08093E3
:1015A00018030E9469199093170380931603809182
:1015B00018038823A1F080911603909117030E94CD
:1015C0007519069760F0EF2DF02FA12FBD2F90E039
:1015D00080E0D0E08C179D0744F010921803DF9153
:1015E000CF911F910F91FF900895219131912D93EB
:1015F0003D930196EFCF0F931F93CF93DF93C62FA9
:10160000D42F022FFC0182818823C9F060931B0331
:101610000E94691990931A038093190380E28C0F3A
:10162000883008F050C0C77081E001C0880FCA95AB
:10163000EAF7DF91CF911F910F910C94220F109137
:101640001B03161335C08091190390911A030E9451
:101650007519883C910560F5C0E2CD0F1D17B9F0F2
:1016600080E2810F883040F4177081E001C0880F5C
:101670001A95EAF70E94290FC83048F481E09D2F9F
:10168000977001C0880F9A95EAF70E94220F802F69
:101690000E940F0FC830B8F4D77081E001C0880FE6
:1016A000DA95EAF7DF91CF911F910F910C94290FF2
:1016B00080E28C0F883038F4C77081E001C0880F59
:1016C000CA95EAF7EFCFDF91CF911F910F9108955F
:1016D0009C01CB01233F4CE5340731F190F4283DC8
:1016E000FCE53F07E9F0293D4CE5340769F1273D6A
:1016F0003C4579F426E241EE61EE0E94FB0A80E06F
:101700000895253FFCE53F07B9F090F0263F3C45A2
:10171000B9F0FC0182818823D1F010921B03089557
:1017200027E245EE65EEE9CF26E241EE60EEE5CF39
:1017300027E245EE64EEE1CF26E241EE62EEDDCF38
:1017400027E245EE66EED9CF28E241E0EBCF81E01B
:101750000895CF93DF93EC01FB018281882309F484
:1017600019C1C230FCE5DF07C0F1C6319CE5D907DD
:1017700030F09E012A5F3C452930310570F50E940A
:10178000C7179093FF038093FE03C031ECE5DE079B
:1017900009F4CFC008F05BC0C8308CE5D80709F465
:1017A000B6C088F5C430ECE5DE0709F4A8C0C0F483
:1017B000C2308CE5D80709F49CC08091FE0382609A
:1017C000C330DC4509F498C08091FE039091FF037B
:1017D0000E94D5170E94521180E0DF91CF910895A9
:1017E0008091FE038061C630ECE5DE0709F484C019
:1017F0008091FE038860C730DC4508F47DC080918D
:10180000FE03806279C0CC308CE5D80709F489C02A
:1018100070F48091FE038C60CA30ECE5DE0709F4B9
:101820006BC008F478C08091FE038E7F65C0CE3017
:101830008CE5D80709F479C08091FE038B7FCF3007
:10184000DC4508F459C08091FE038F7E55C0CB3F24
:10185000ECE5DE0709F457C030F5C3318CE5D80755
:1018600009F46FC078F4C131ECE5DE0709F465C016
:10187000C231DC4509F0A8CF0E9452118091FE03CD
:101880008F773AC0C5318CE5D80709F462C008F4F7
:1018900076C08091FF038160CA3FDC4509F094CF98
:1018A0008093FF0391CFCF3FFCE5DF0709F44DC0E4
:1018B00088F48091FF038D7FCD3F9CE5D90781F3AC
:1018C0008091FF038E7FCE3FDC4550F38091FF0374
:1018D0008360E6CFC130FDE5DF0709F459C008F4A5
:1018E00044C080E0C230DD4509F06ECF0E9453183D
:1018F0006BCF8091FE0381608093FE0365CF809162
:10190000FE038460F9CF8091FF038260C9CF80918C
:10191000FE038064F1CF0E9452118091FE03806823
:10192000EBCF8091FE038D7FE7CF8091FE03877F11
:10193000E3CF8091FE038F7DDFCF8091FE038F7B0D
:10194000DBCF8091FE03837FD7CF8091FF038C7F15
:10195000A7CF8091FE0382FB992790F921E092277F
:1019600090FB82F990FB83F9C7CF8091FF03982FFA
:10197000909591708E7F892B90FB81F991CF0E9479
:1019800052119091FE03892F97FB87F98058B4CFAD
:1019900081E0ACCF81E021CFCF93DF93EB018631A3
:1019A0009C4511F50E94FB169A81992399F08A7A39
:1019B00091E009F490E090931C03811109C089E241
:1019C0000E94D6160E94471780E0DF91CF910895BC
:1019D00085E3F6CF80911C03811104C089E20E9447
:1019E000DD16F0CF85E3FBCF81E0EFCF90932203AC
:1019F000809321030895E0912103F0912203309711
:101A000021F00190F081E02D099480E00895E091AB
:101A10002103F0912203309799F020910C012223A9
:101A200059F02091FE0327FF07C0DC012C9111968D
:101A30002C93119725E02C930280F381E02D0994DB
:101A4000089520911F03309120032817390771F062
:101A50009093200380931F03E0912103F0912203D0
:101A6000309721F00680F781E02D099408952091A8
:101A70001D0330911E032817390771F090931E0340
:101A800080931D03E0912103F0912203309721F010
:101A90000084F185E02D0994089585B7806885BF9D
:101AA00085B7806885BF0895089508950C94540DF6
:101AB00008950C94580D0E944D0D0E94550D0C94E4
:101AC000560D81E008950E9460190E94C1090E948C
:101AD000321A0C94590D7F928F929F92AF92BF92BF
:101AE000CF92DF92EF92FF920F931F93CF93DF93EA
:101AF000CDB7DEB72A970FB6F894DEBF0FBECDBFC5
:101B00000E94290A0E94610D882309F46FC044E2F3
:101B1000A42E43E0B42E10E000E0702E802F0E942F
:101B2000B3096C01F501819091905F0188169906C7
:101B300009F456C08091C10381FD0E94BC0980E078
:101B4000EE24E394F12C8C249D2494012E213F213A
:101B5000232B09F43FC08E837F82CE20DF2081E0DB
:101B6000CD2809F480E088870E9469198160782F68
:101B70009A8789874E815F8168858A850E941B0EBE
:101B8000000F111FF801EC5DFC4F80819181E82668
:101B9000F926F182E0820E94FB0C909123038917C1
:101BA000B1F10E94FB0C809323032A960FB6F894A0
:101BB000DEBF0FBECDBFDF91CF911F910F91FF9080
:101BC000EF90DF90CF90BF90AF909F908F907F90DD
:101BD0000C9455078F5FEE0CFF1C8E3009F0B5CFCB
:101BE0000F5F1F4F0530110509F097CF8FEF8983E5
:101BF0008A831B820E9469198160782F9D838C8360
:101C000049815A816B818D810E941B0EC4CF2A9617
:101C10000FB6F894DEBF0FBECDBFDF91CF911F91FD
:101C20000F91FF90EF90DF90CF90BF90AF909F907B
:101C30008F907F900895CF93DF93CDB7DEB72B972A
:101C40000FB6F894DEBF0FBECDBF4F8358876987AC
:101C50007A878B871E821D8285E0FE013796DE0122
:101C6000119601900D928A95E1F749815A816B8115
:101C70007C818D819E812B960FB6F894DEBF0FBEBE
:101C8000CDBFDF91CF910C94F213FC018081918143
:101C90000C94A816882309F472C08238B9F40E9403
:101CA000FB0C81FD6CC089E30E94D6160E94471789
:101CB0002FEF81EE94E0215080409040E1F700C08A
:101CC000000089E30E94DD160C9447178338A1F4C5
:101CD0000E94FB0C80FD53C083E50E94D6160E9433
:101CE00047172FEF81EE94E0215080409040E1F7BC
:101CF00000C0000083E5E6CF8438A1F40E94FB0C0D
:101D000082FD3DC087E40E94D6160E9447172FEF40
:101D100081EE94E0215080409040E1F700C0000047
:101D200087E4D0CF9CEF980F913A18F40E94D61612
:101D3000CBCF90E2980F983050F4E82FE77081E015
:101D400001C0880FEA95EAF70E94FE16BDCFEBE5C9
:101D5000E80FE33038F4F0E0ED5FFC4F808190E075
:101D60000C94210D885A873150F4E82FF0E0EE0FE3
:101D7000FF1FEB52FD4F808191810C94370D089528
:101D8000882309F44BC0823871F40E94FB0C81FF58
:101D900045C089E30E94D6160E94471789E30E9436
:101DA000DD160C944717833859F40E94FB0C80FF12
:101DB00035C083E50E94D6160E94471783E5EFCF12
:101DC000843859F40E94FB0C82FF28C087E40E94EB
:101DD000D6160E94471787E4E2CF9CEF980F913AFE
:101DE000F0F290E2980F983050F4877091E001C0C3
:101DF000990F8A95EAF7892F0E940417D2CF9BE5A5
:101E0000980F933020F490E080E00C94210D885AD4
:101E1000873120F490E080E00C94370D0895CF9343
:101E2000C82F0E944A0EC93349F42FEF87EE93E082
:101E3000215080409040E1F700C000008C2FCF91EE
:101E40000C94C00E882321F00E94FE160C944717B4
:101E50000895882321F00E9404170C9447170895D1
:101E6000BF92CF92DF92EF92FF920F931F93CF9387
:101E7000DF936C01D62FC72FFC01158112951F70BF
:101E8000028101110E941B170E94F416E82E88237C
:101E900071F00023B1F080E28D0F883090F082E085
:101EA0000E9492170E94F41691E0E82EE926BC2EBB
:101EB000B2949FE0B922EB2DF0E0E956FD4D0C9471
:101EC000C321E12CF4CF1C2F1F70C07F11F012959D
:101ED000107F0023A9F0112359F080E28D0F883084
:101EE00010F0D11109C0812F0E94FE160E944717E1
:101EF0008D2F0E944A0E14C0812F0E940E17F6CF1C
:101F00008D2F0E94C00E112359F080E28D0F883072
:101F100010F0D1112CC0812F0E9404170E94471786
:101F20002B2D2850330B2430310520F40E94FB0C5C
:101F30000E945507EE2009F477C10E94F01680FD3B
:101F400073C1F60112820E94EA160E947615C6013C
:101F50000E941E110E94EA16DF91CF911F910F91EE
:101F6000FF90EF90DF90CF90BF900C949715812F4A
:101F70000E941417D3CFFC2FFF70FF2EC07FC032FA
:101F800019F0F29480EFF822DD2369F0D13049F1A5
:101F9000002391F1112351F1F601858180FFA8CF33
:101FA0008F70858323C0002381F0111106C00E9429
:101FB0002E178F290E94220FB3CF1130C1F70E9434
:101FC0002E178F290E943417ABCF111106C00E9423
:101FD0003D178F2D0E94290FA3CF113009F4A0CFF8
:101FE000F6CF002329F0163008F09ACF8F2DE2CFDC
:101FF000153008F095CFEDCF112359F3D93349F4BB
:10200000FFEF27EE33E0F15020403040E1F700C011
:1020100000008D2F0E94C00E83CF8C2F837009F09B
:1020200041C001117DCF4D2F429546954770440F19
:10203000440F0D2F0F7010E030E020E0042E04C09C
:10204000000F111F221F331F0A94D2F760E070E0C7
:10205000CB01D4FF0FC06FE070E080E090E004C0DF
:10206000660F771F881F991F4A95D2F76095709564
:1020700080959095C695C695C370602B712B822B69
:10208000932BC23049F058F4C13019F00E94281542
:1020900047CF0E94161544CF0E943A1541CF0E94A7
:1020A00014153ECF8695002311F08C2F8170882364
:1020B00009F436CF4D2F429546954770440F440F93
:1020C0000D2F0F7010E030E020E0042E04C0000F50
:1020D000111F221F331F0A94D2F760E070E0CB017A
:1020E000D4FF0FC06FE070E080E090E004C0660FA6
:1020F000771F881F991F4A95D2F760957095809534
:102100009095C695C695C370602B712B822B932B2F
:10211000C23049F058F4C13019F00E94ED1500CFDB
:102120000E94DB15FDCE0E94FF15FACE0E945015CD
:10213000F7CECF70002329F08C2F0E9476158D2FBB
:1021400039CF8D2F0E94290F8C2F0E949715E8CE32
:10215000D23F89F160F4D03FC9F0D13F29F100238B
:1021600009F442C01111C4CE8C2F8F7121C0D33F0E
:1021700039F1D43FA1F7002369F1CF718C2F0E9470
:10218000761563E08C2F0E947D17CACE002341F0A4
:10219000153008F0C5CE8C2F8F710E94BA15C0CEB5
:1021A000163008F0BDCEF7CF8C2F8F71002369F267
:1021B0000E947615B5CE8C2F8F710023C9F3C5CF41
:1021C000002329F08C2F8F710E946115A9CE0E94E7
:1021D0005C15A6CE81E00E949217123008F4A0CEC2
:1021E00082E00E9492179CCE112359F0D93309F056
:1021F00010CF8FEF97EEE3E081509040E040E1F7A1
:1022000006CF8C2F8F71A1CF4C2F4F706D2FC60131
:102210000E94A8070E948C1483CE4C2F4F706D2F04
:10222000C6010E94AB077CCEDF91CF911F910F9129
:10223000FF90EF90DF90CF90BF9008950F931F9382
:10224000CF93DF93EC018B819C81892B29F08881CE
:10225000998189238F3F29F4DF91CF911F910F91AD
:102260000895CE010E946D078823B1F368817981BA
:102270008A810E94B2168C010E9411160E941315C9
:10228000B801CE01DF91CF911F910F910C94300FC7
:102290000E941B170E942B170C9447170E94E416EC
:1022A0000C9448110E940B170C944E11E92FE295E3
:1022B000EF70E250EE3070F4F0E0E955FD4D0C9413
:1022C000C321803F19F020F4883E20F481E0089576
:1022D000843FE1F380E00895883EC0F3813FD1F769
:1022E000F5CF93FB882780F908950E94A8160C94D7
:1022F0005611CF93DF9300D000D00F92CDB7DEB749
:102300000F900F900F900F900F90DF91CF91089545
:10231000CF93DF9300D000D000D0CDB7DEB72696A4
:102320000FB6F894DEBF0FBECDBFDF91CF910895F9
:102330001F93CF93DF93C0912F0316E0809130035A
:102340008C1304C0DF91CF911F910895D0E01C9FA2
:10235000F0011D9FF00D1124EF5CFC4F4081518175
:1023600062817381848195810E9488112196C77052
:10237000E5CF4091610350916203609163037091D6
:10238000640380916503909166030C9488111F93F8
:10239000CF93DF9380916603807FC1F480916303C4
:1023A0008823A1F080912F03C091300360916103D5
:1023B000709162034091640350916503D62FD72337
:1023C000DA01A095B09516E0C81304C0DF91CF9153
:1023D0001F91089590E04115510511F0DF3F31F450
:1023E00001968770F1CF2A0F3B1F17C0189FF0018D
:1023F000199FF00D1124EF5CFC4F21812713F0CFC2
:1024000020812613EDCF22812111EACF238134814F
:102410002417350740F3241B350B283C310500F702
:10242000209166032F7020612093660326E0289F89
:10243000F001299FF00D1124EA5CFC4F80818F7020
:102440008061808381E693E00E941E11DF91CF912D
:102450001F910C949811BF92CF92DF92EF92FF924E
:102460000F931F93CF93DF93CDB7DEB761970FB66E
:10247000F894DEBF0FBECDBF8C0185E0F801DE0110
:102480001D9601900D928A95E1F7D8014C91119615
:102490005C9111971296EC90129780916403909141
:1024A0006503009709F47FC12091610330916203B5
:1024B000622F63236F3F09F476C11396CD90DC90B1
:1024C000B0906303BB2009F411C1C816D906D0F13E
:1024D000F601E81BF90BCF01FF24F394883C91052A
:1024E00008F0F12C80916603982F907FFF2009F46B
:1024F000B8C091117FC0FE2C351329C0241327C00A
:10250000E11025C08F708061809366030E94B9112D
:1025100081E693E00E941E1180916603D801159612
:102520008C938F2D61960FB6F894DEBF0FBECDBF92
:10253000DF91CF911F910F91FF90EF90DF90CF909F
:10254000BF900895809590958C0D9D1DC5CFCD2889
:1025500029F0852F84238F3F09F041C180E0B82FF7
:10256000B170DB2E80FF3CC080912F03209130039F
:1025700036E0821315C04D875E878D859E850E944B
:10258000A816292F22952F702230F0F0243018F54C
:102590009F70F1F0F8019581907FD1F4D12C1EC08D
:1025A00090E0389FF001399FF00D1124EF5CFC4F53
:1025B0006181651306C06081641303C06281E61205
:1025C0000FC001968770D5CF9F7011F0882331F32B
:1025D000805E883018F3C8010E941E11FD2CA1CF27
:1025E000EE2009F49ECF809166038160809366039C
:1025F000F12C97CF351306C0241304C0D801EE2068
:1026000009F49AC04D875E878D859E850E9475115D
:10261000882319F1EE2009F180916603803270F071
:10262000209161033091620338872F831986DB86FE
:10263000CA868C87CE0107960E941E1186E0F8019B
:10264000A1E6B3E001900D928A95E1F70E94C711CF
:102650000E94B911FF24F39464CFC8010E941E1197
:10266000F9CF911113C07C2DD98AC88A6E2D898922
:102670000E94791181E693E00E941E1186E0E1E656
:10268000F3E0DF011D928A95E9F763C0351312C0AC
:10269000241310C0E1100EC0F8018583C8010E9408
:1026A0001E11E1E6F3E086E0DF011D928A95E9F76D
:1026B000FB2C37CF4D875E878D859E850E947511D7
:1026C000882359F2EE2049F280916603803208F4A3
:1026D000B5CF20916103309162033A8329831B8235
:1026E000DD82CC828E83CE010196A6CFC816D90694
:1026F00098F1F601E81BF90BCF01F12C883C91050C
:1027000008F049C0FE2CEE2009F4A7CF351332C0E3
:10271000241330C08091660380FD23C0982F907FE2
:1027200001F1D80115968C931597903F39F0982FA9
:10273000907F905F8F70892B15968C93C8010E94B3
:102740001E1186E0F801A1E6B3E001900D928A9592
:10275000E1F70E94B911E5CE809590958C0D9D1DF5
:10276000CCCF86E0F801A1E6B3E001900D928A9506
:10277000E1F7D7CE4D875E878D859E850E947511C6
:1027800081115CCF80916603816080936603C801EC
:102790000E941E11C6CE7C2DD98AC88A6E2D8989C9
:1027A0000E9479116BCFEE2009F457CF4D875E87D9
:1027B0008D859E850E947511F82E882309F44DCFD2
:1027C00086E0F801A1E6B3E001900D928A95E1F769
:1027D00081E693E00E94450E0E94C711BACF81E0C6
:1027E0008E25BDCE1F93CF93DF93CDB7DEB72C9749
:1027F0000FB6F894DEBF0FBECDBF4F8358876987F1
:102800007A878B879C87CE0107960E942B1288239C
:1028100069F08A859B85892B39F04F815885842FF3
:1028200085238F3F09F071C016E05FC086E0FE018E
:102830003796DE01119601900D928A95E1F78A850F
:102840009B85892B89F388859F8189238F3F61F33D
:102850002091300330E0C90101968770992740919B
:102860002F034817190671F40E9452111092300379
:1028700010922F0386E0E1E6F3E0DF011D928A95D6
:10288000E9F7D2CF96E0929FD001939FB00D11242B
:10289000AF5CBC4FFE01319601900D929A95E1F725
:1028A000809330030E949811BFCF819FC0011124F3
:1028B0008F5C9C4F0E942B128823E9F0E0912F033C
:1028C0001E9FF0011124EF5CFC4F40815181628119
:1028D0007381848195810E94881180912F0390E0FB
:1028E00001968770992780932F0380912F039091F1
:1028F00030038913DACF2C960FB6F894DEBF0FBEE3
:10290000CDBFDF91CF911F91089569857A858B8521
:102910009C850E94881188CFEF92FF920F931F939E
:10292000CF93DF938C01892B81F0F12CEE24E3947B
:10293000E8012196F8018491843770F4843008F01E
:102940005FC08130B1F08230A1F1DF91CF911F9152
:102950000F91FF90EF900895853709F44CC008F46B
:102960003DC09CE7980F903780F78F770E94C00E8C
:1029700049C00E5F1F4FFE01849190E2980F98307E
:1029800060F48770FE2D01C0FF0F8A95EAF78F2F44
:102990000E941E170E94471702C00E944A0E8F2DE8
:1029A000815030F2EFE9FFE03197F1F700C000000D
:1029B000F7CF0E5F1F4FFE01849190E2980F983081
:1029C00050F48770FE2D01C0FF0F8A95EAF78F2F14
:1029D0000E942417DFCF0E94C00EE1CF0E5F1F4F71
:1029E000FE01C491C150D8F28FE99FE00197F1F741
:1029F00000C00000F7CF0E5F1F4FFE01F490CFCF55
:102A00000E944A0E8E01CBCF08950C9404150E94AB
:102A10000515609398037093990380939A0390939C
:102A20009B030C94481108950C9407150F931F9362
:102A3000009198031091990320919A0330919B0380
:102A4000602B712B822B932B1F910F910C940715E8
:102A50000F931F93009198031091990320919A036B
:102A600030919B0360237123822393231F910F9145
:102A70000C9407150F931F930091980310919903DD
:102A800020919A0330919B03602771278227932717
:102A90001F910F910C9407150C9404150C944C1570
:102AA0000E944E1560939403709395038093960350
:102AB000909397030C94481160E070E0CB010C9464
:102AC00050150F931F9341E050E060E070E08A01E1
:102AD0009B0104C0000F111F221F331F8A95D2F7DC
:102AE000C901B8011F910F910C9450150F931F93BA
:102AF00041E050E060E070E004C0440F551F661FE5
:102B0000771F8A95D2F78091940390919503A091B5
:102B10009603B09197038A019B01082B192B2A2B4E
:102B20003B2BC901B8011F910F910C9450150F93C5
:102B30001F9341E050E060E070E004C0440F551F77
:102B4000661F771F8A95D2F7CB01BA016095709501
:102B50008095909500919403109195032091960390
:102B60003091970360237123822393231F910F9148
:102B70000C9450150F931F9341E050E060E070E01B
:102B800004C0440F551F661F771F8A95D2F78091A6
:102B9000940390919503A0919603B09197038A01B5
:102BA0009B01082719272A273B27C901B8011F9134
:102BB0000F910C9450150F931F9300919403109153
:102BC00095032091960330919703602B712B822BF4
:102BD000932B1F910F910C9450150F931F930091FD
:102BE00094031091950320919603309197036023ED
:102BF0007123822393231F910F910C9450150F93EF
:102C00001F930091940310919503209196033091A6
:102C1000970360277127822793271F910F910C94A8
:102C2000501508952EE0929F800D1124982F9770D3
:102C300041E001C0440F9A95EAF7869586958695FE
:102C400095E0899FF0011124E959FC4F90E080E064
:102C500070E05191DF0111979B01082E02C036955B
:102C600027950A94E2F7217021952527242325270B
:102C70002C9301968530910561F708952EE0929F7F
:102C8000800D1124982F977086958695869525E05E
:102C9000829FF0011124E959FC4F50E040E080E0B0
:102CA000219130E0092E02C0369527950A94E2F76B
:102CB00021703327042E01C0220F0A94EAF7822BD9
:102CC0004F5F5F4F4530510559F70895BF92CF923E
:102CD000DF92EF92FF920F931F93CF93DF938C01BC
:102CE000C0909403D0909503E0909603F0909703E2
:102CF0008091980390919903A0919A03B0919B03BE
:102D0000C82AD92AEA2AFB2ACFE1D0E0BC2ED70173
:102D1000C6010C2E04C0B695A795979587950A9481
:102D2000D2F780FD0EC0219788F7B12C8B2DDF9153
:102D3000CF911F910F91FF90EF90DF90CF90BF90B8
:102D40000895B8018C2F0E94C807019761F3EECF58
:102D5000CF93DF93EC010E946616BE01DF91CF9105
:102D60000C94C8071F93CF93DF93EB0190912E0330
:102D7000992331F0CB01DF91CF911F910C94A816CC
:102D8000882379F0CB010E946616182F682FCE0198
:102D90000E941216BE01812FDF91CF911F910C94DA
:102DA000C807CB010E943E16182FF4CF682F8091E0
:102DB0000001909101010C94BC18682F80910001D2
:102DC000909101010C94C71880910001909101012C
:102DD0000C94D21880919C038595859585950895CE
:102DE00080919C038770089590919C03977081E077
:102DF00009F480E008958091C00308959091C00384
:102E0000892B8093C003089580959091C0039823E7
:102E10009093C00308951092C00308959091BF034A
:102E2000892B8093BF03089580959091BF039823C9
:102E30009093BF0308951092BF0308959091BE032D
:102E4000892B8093BE03089580959091BE039823AB
:102E50009093BE0308951092BE03089580919D0340
:102E6000089508950C94311790919D03981721F0BF
:102E700080939D030C943217089580919D038823BD
:102E800029F010929D0380E00C9432170895E09190
:102E90000001F09101018091C0038083E091000165
:102EA000F091010180819091BF03892B8083E09193
:102EB0000001F091010180819091BE03892B8083F4
:102EC00090919D03992381F0E0910001F09101011F
:102ED0008081892B808380910001909101010E9463
:102EE000581881110E943D178091000190910101B5
:102EF0000C94070D08950C947A1798E0899F90011F
:102F00001124622B60939C030E94761580919C0390
:102F10008595859585950C947B1710929C0380E090
:102F20000C947B1790919C038095892380939C033C
:102F3000282F277071F4282F082E000C330B9217BE
:102F4000130639F08595859585950E9497150C9403
:102F50008D17089590E080E00E94D12121E08C3E01
:102F60009E4F09F020E0822F089582E090E00C94BB
:102F7000C921682F82E090E00C94D72183E090E093
:102F80000C94C921682F83E090E00C94D721CF9353
:102F900084E090E00E94C921C82F81E290E00E9465
:102FA000C921982F8C2FCF910895CF93C92F682FC7
:102FB00084E090E00E94D7216C2F81E290E0CF91D5
:102FC0000C94D721AB01BC018FE090E00C94E92177
:102FD000AB01BC0183E190E00C94E92160E070E07A
:102FE000CB010C94E81760E070E0CB010E94E2177F
:102FF0000C94EE176CEE7EEF90E080E00E94F521DD
:1030000060E082E090E00E94D72160E083E090E001
:103010000E94D721109298031092990310929A035C
:1030200010929B0360E084E090E00E94D72160E072
:1030300081E290E00E94D72160E085E090E00E946C
:10304000D72160E086E090E00E94D7216FEF87E013
:1030500090E00E94D72140E050E0BA0188E090E083
:103060000E94E92160E08DE090E00E94D72140E0DD
:1030700050E0BA0188E190E00E94E92160E087E138
:1030800090E00E94D72140E050E0BA018CE190E04E
:103090000E94E92160E080E290E00E94D7210C9438
:1030A000F3170C94FA17682F8EE090E00C94D72158
:1030B000FC01329680910C01882321F08091FE035F
:1030C0009EE187FF96E080E0915008F408952191F9
:1030D0002223D1F38F5FF8CF9C01FC0132969FEF42
:1030E00080E04191461751F09F3F19F4411101C012
:1030F000982F8F5F8630A9F79F3F09F40895290F15
:10310000311D97FD3A95F90162830895FC013296CD
:1031100008962191261303C0DF0111971C92E8172E
:10312000F907B9F70895E62FE695E695E695EE31AD
:1031300068F4E80FF92FF11D677021E030E001C05D
:10314000220F6A95EAF78281822B82830895E62F07
:10315000E695E695E695EE3170F4E80FF92FF11D4E
:10316000677021E030E001C0220F6A95EAF72095F0
:10317000828128232283089520910C01222329F0A3
:103180002091FE0327FD0C9493180C946C18209149
:103190000C01222329F02091FE0327FD0C94A7188F
:1031A0000C948618FC01329680910C01882351F012
:1031B0008091FE0387FF06C08EE1DF011D928A9594
:1031C000E9F7089586E0F9CF089508950C94E5187D
:1031D0000E94E61880910404843049F11092C203E1
:1031E00088E190E020E40FB6F894A8958093600001
:1031F0000FBE2093600080E00E9455070E94E618F1
:1032000083B7817F846083BF83B7816083BF7894F5
:10321000889583B78E7F83BF0FB6F894A895809169
:103220006000886180936000109260000FBE089576
:103230000895CF930E94E4180E94290A0E94181949
:10324000C0E08C2F0E94B309892B31F4CF5FC530C9
:10325000C1F780E0CF91089581E0FCCF08950C94F0
:103260002E190E9452110E94FB0C0E9455070C94CB
:103270002F191F921FB61F9211248F939F93AF9304
:10328000BF938091C203811113C08091FA03909182
:10329000FB03A091FC03B091FD034196A11DB11D5C
:1032A0008093FA039093FB03A093FC03B093FD0378
:1032B000BF91AF919F918F911F901FBE1F90189546
:1032C00082E084BD93E095BD9AEF97BD80936E0038
:1032D00008952FB7F8948091FA039091FB03A09181
:1032E000FC03B091FD032FBF0895CF92DF92EF92C0
:1032F000FF920F931F932FB7F8944091FA035091C8
:10330000FB036091FC037091FD032FBF6A017B01F9
:10331000EE24FF248C0130E020E0C016D106E20646
:10332000F30650F0481B590BCA011F910F91FF90F3
:10333000EF90DF90CF90089541505109F3CF7894EA
:103340001F921FB61F9211248F939F93AF93BF9329
:103350008091FA039091FB03A091FC03B091FD03CF
:103360000196A11DB11D8093FA039093FB03A093D6
:10337000FC03B093FD03BF91AF919F918F911F907C
:103380001FBE1F90189581E08093E00080E280933B
:10339000D8001092C9008FE19EE40197F1F700C0B8
:1033A000000087E090EBDC0180930D0490930E0405
:1033B000A0930F04B093100488E19CE00FB6F8943A
:1033C000A895809360000FBE90936000FFCFAF92EE
:1033D000BF92CF92DF92EF92FF920F931F93CF9302
:1033E000C0E0CC24C394D12CE82EF12C8C2F0E9469
:1033F000B3095C0110E000E0C601002E02C0880F96
:10340000991F0A94E2F78A219B21892B99F40F5F77
:103410001F4F0E30110581F7CF5FC53039F780E0BF
:10342000CF911F910F91FF90EF90DF90CF90BF90C1
:10343000AF900895602F7C2F80E00E94AC07E816C3
:10344000F90629F781E0ECCFCF93C82F8CE20E94D8
:10345000E719882321F08C2FCF910C94E71980E095
:10346000CF910895CF930E94AA17811102C00E94A4
:103470005118C5E608C00E94290A8FE39CE901970C
:10348000F1F700C00000C150B1F789E20E94241A90
:10349000811100C18AE20E94241A81110E945118F0
:1034A00085E00E94241A81110E94C3190E94B51759
:1034B0008093C10387E00E94241A882371F08BE176
:1034C0000E94241A882309F4C2C09091C103892F55
:1034D0008D7F91FF82608093C1038091C1030E9420
:1034E000B9170E94C7179093FF038093FE0380EEE5
:1034F0000E94241A882341F09091FE03892F8E7F29
:1035000090FF81608093FE0389E30E94241A882340
:1035100041F09091FE03892F8D7F91FF826080930F
:10352000FE0382EE0E94241A882341F09091FE034C
:10353000892F8B7F92FF84608093FE0386EE0E942A
:10354000241A882341F09091FE03892F877F93FFEF
:1035500088608093FE0383EE0E94241A882341F042
:103560009091FE03892F8F7E94FF80618093FE03EC
:1035700085E30E94241A882341F09091FE03892F4D
:103580008F7D95FF80628093FE0381E30E94241A61
:10359000882341F09091FE03892F8F7B96FF8064F2
:1035A0008093FE0381E10E94241A882341F09091C8
:1035B000FE03892F97FB87F980588093FE03809143
:1035C000FE039091FF030E94D51787E20E94241A00
:1035D000C82F8EE10E94241A8111C2608FE10E94DF
:1035E000241A8111C46080E20E94241A8111C860EB
:1035F00081E20E94241A8111C06182E20E94241A91
:103600008111C06283E20E94241A8111C06484E2A5
:103610000E94241A8823C1F1C0688C2F0E94C2170F
:103620006C2F70E090E080E00E9414158FE00E9403
:10363000241A882319F081E00E94531885E10E9422
:10364000241A882339F180E0CF910C9453188EE02E
:103650000E94241A882339F09091C103892F8B7F0F
:1036600092FF846038CF80E10E94241A9091C103B8
:10367000882329F0892F877F93FF88602CCF892F9B
:103680008E7F90FF816027CFC111C7CF0E94BE17E8
:10369000682FC7CFCF9108958091E30308950895CF
:1036A0000895CF93DF93EC010E94151D823011F035
:1036B0008430B9F580910C018823B1F18091FE032B
:1036C00087FF32C060E282E08093E9008FEF909143
:1036D000E800815095FD06C095ED9A95F1F7000040
:1036E0008111F5CF8091E80085FF1BC080910C010E
:1036F00070E050E040E0811104C050E040E068E03C
:1037000070E0CE010E94321D8091E8008E77809398
:10371000E80080E2FE01A3ECB3E001900D928A95EF
:10372000E1F7DF91CF91089568E081E0CDCF089572
:1037300080910304811109C00E94C21E0E941F1FB4
:103740008091E20084608093E20008951092030467
:103750000895089508950C94311942E061EC81E0D8
:103760000E943E1E42E261EC82E00C943E1E80917B
:103770000604833009F45FC030F48130C1F1823037
:1037800009F49BC008958A3009F487C08B3009F48E
:103790006DC0893009F04EC080910504813209F076
:1037A00049C08091090490910A04029708F042C030
:1037B0008091E800877F8093E8008091E80082FF95
:1037C00035C09091F3008091F200029729F4809126
:1037D000F1008B7F813021F48091F1008093E3032D
:1037E0008091E8008B778093E8000C94721E8091A2
:1037F0000504813AF9F48091E800877F8093E8001E
:103800008091090490910A04892B61F460E283ECB1
:1038100093E070E00E94811D8091E8008B77809397
:10382000E800089560E090E080E0F3CF8091040428
:103830008111C3CF089580910504813AD9F7809111
:10384000090490910A04892BA9F78091E800877FE9
:103850008093E8008091E80080FFFCCF80910C010C
:103860008093F1008091E8008E77BDCF80910504B0
:10387000813201F78091090490910A04892BD1F6D5
:103880008091E800877F8093E8000E94721E8091FB
:10389000070480930C010C9452118091050481322D
:1038A00049F68091E800877F8093E8000E94721EAD
:1038B000809108048093E403089580910504813A7F
:1038C00009F0B8CF8091E800877F8093E80080916D
:1038D000E80080FFFCCF8091E403C2CF84B7877FEC
:1038E00084BF0FB6F894A89580916000886180939A
:1038F0006000109260000FBE80E890E00FB6F89470
:1039000080936100909361000FBE0E945B0D0E9446
:10391000C21E0E941F1F8091E20084608093E2001B
:1039200078940E94A8210E94630D82E091E00E9499
:10393000F60C80910404853019F00E946B0DF9CFCC
:103940000E94E81880910204882399F30E941919B3
:10395000882379F30E941C1DECCF0C94AF1C292FF7
:1039600033272330310519F168F42130310509F48A
:103970004AC02230310509F44BC090E080E030E0CD
:1039800020E028C02132310579F122323105A9F732
:1039900080E490E024EB34E061157105D9F08BE30D
:1039A00090E029E734E061307105A1F0E6CF992776
:1039B0008130910599F0009741F08230910589F0AE
:1039C0000397D9F6E0EDF3E002C0E8E2F4E0849179
:1039D00090E09F01FA01318320830895EAE1F4E049
:1039E000F6CFE6EDF3E0F3CF89E090E02EE334E0AC
:1039F0006115710579F389E090E027E534E06130E5
:103A0000710541F3BACF82E190E027E634E0E2CFDE
:103A10008BE390E02CE234E0DDCF8091040484302D
:103A200011F482E0089581E008958091E503811109
:103A300002C00C940D1D089580E189BD82E189BD0D
:103A400009B400FEFDCF8091D8008F7D8093D8000F
:103A50008091E00082608093E0008091E00081FD31
:103A6000FCCF0895AF92BF92CF92DF92FF920F9357
:103A70001F93CF93DF936C01EB018A010E94911E8B
:103A8000F82E811123C00115110539F0F80180814C
:103A90009181C81BD90BC80ED91EB12CA12C20971F
:103AA000A9F08091E80085FD22C08091E8008E7722
:103AB0008093E80001151105A1F0F8018081918142
:103AC000A80EB91EB182A08285E0F82E8F2DDF915D
:103AD000CF911F910F91FF90DF90CF90BF90AF904B
:103AE00008950E94911E8823D1F2F82EEFCFF6019F
:103AF00081916F018093F1002197FFEFAF1ABF0A08
:103B0000CECFFC0180910B0490910C04861797078F
:103B1000A0F06115710529F49091E8009E779093CB
:103B2000E80090E06115710551F4911108C0809191
:103B3000E80082FF34C080E00895BC01F2CF80919C
:103B400004048823C1F18530C1F18091E80083FD30
:103B500030C08091E80082FDEACF8091E80080FFCC
:103B6000E1CF8091F3002091F200382F61157105AB
:103B700019F02830310558F091E02830310509F06E
:103B800090E02091E8002E772093E800CBCF819140
:103B90008093F100615071092F5F3F4FE7CF809113
:103BA0000404882341F0853041F08091E80083FFD0
:103BB000BECF81E0089582E0089583E00895FC017E
:103BC00080910B0490910C0486179707A0F0611563
:103BD000710529F48091E8008E778093E80090E0E9
:103BE0006115710551F4911108C08091E80082FFC0
:103BF00035C080E00895BC01F2CF80910404882391
:103C0000C9F18530C9F18091E80083FD31C0809110
:103C1000E80082FDEACF8091E80080FFE1CF80914B
:103C2000F3002091F200382F6115710519F028304A
:103C3000310558F091E02830310509F090E080918D
:103C4000E8008E778093E800CBCF84918093F100D9
:103C50003196615071092F5F3F4FE6CF8091040488
:103C6000882341F0853041F08091E80083FFBDCF8B
:103C700081E0089582E0089583E00895982F9730B9
:103C800028F08F708093E90081E008959093E90017
:103C9000242F762F50E0981731F07091EC0020918E
:103CA000ED005091F00021FD02C09F5FE8CF309100
:103CB000EB003E7F3093EB003091ED003D7F309381
:103CC000ED003091EB0031603093EB007093EC002D
:103CD0002093ED005093F0002091EE0027FDE5CFFA
:103CE00080E008958091050487FF13C08091E8006B
:103CF00082FF06C08091E8008B778093E80004C0C3
:103D0000809104048111F2CF0895809104048823E6
:103D1000D9F38091E80080FFF8CF8091E8008E779A
:103D2000ECCF2091E4003091E50095E6A9012091C7
:103D3000EC00822F817020FF06C08091E80080FF98
:103D400006C080E008952091E80022FD1AC080910D
:103D50000404882389F0853089F08091EB0085FD8B
:103D60000FC02091E4003091E50042175307F9F2AB
:103D70009150E1F684E0089582E0089583E008958B
:103D800081E008950E94301F0E94381FE0EEF0E0AD
:103D9000808181608083E8EDF0E080818F7780838F
:103DA00019BCA7EDB0E08C918E7F8C9380818F7EC3
:103DB00080831092030408950F931F93CF93DF9392
:103DC0000E94301F0E94381FC8EDD0E088818F7795
:103DD000888388818068888388818F7D888319BCE7
:103DE0001092040410920004109202041092010434
:103DF00000EE10E0F80180818B7F808388818160F4
:103E0000888342E060E080E00E943E1EE1EEF0E048
:103E100080818E7F8083E2EEF0E08081816080830C
:103E2000808188608083F80180818E7F8083888193
:103E300080618883DF91CF911F910F910895E8ED04
:103E4000F0E080818F7E8083E7EDF0E0808181600B
:103E5000808384E082BF81E0809303040C94DC1EA5
:103E6000E8EDF0E080818E7F80831092E20008957B
:103E70001092DA001092E10008951F920F920FB68F
:103E80000F9211242F933F934F935F936F937F93E0
:103E90008F939F93AF93BF93EF93FF938091E10034
:103EA00082FF0BC08091E20082FF07C08091E10099
:103EB0008B7F8093E1000E94A7218091DA0080FF30
:103EC00019C08091D80080FF15C08091DA008E7FE4
:103ED0008093DA008091D90080FF96C080E189BD8F
:103EE00082E189BD09B400FEFDCF81E08093040426
:103EF0000E94981B8091E10080FF19C08091E20030
:103F000080FF15C08091E2008E7F8093E200809157
:103F1000E20080618093E2008091D800806280930B
:103F2000D80019BC85E0809304040E94AA1B8091EC
:103F3000E10084FF2BC08091E20084FF27C080E174
:103F400089BD82E189BD89B5982F917080FFFBCF33
:103F50008091D8008F7D8093D8008091E1008F7E82
:103F60008093E1008091E2008F7E8093E200809157
:103F7000E20081608093E20080910004882309F4CC
:103F800049C084E0809304040E94AB1B8091E1004F
:103F900083FF29C08091E20083FF25C08091E1006A
:103FA000877F8093E10082E08093040410920004F4
:103FB0008091E1008E7F8093E1008091E2008E7F0E
:103FC0008093E2008091E20080618093E20042E011
:103FD00060E080E00E943E1E8091F0008860809347
:103FE000F0000E94A91BFF91EF91BF91AF919F91AB
:103FF0008F917F916F915F914F913F912F910F9092
:104000000FBE0F901F90189519BC109204040E94C7
:10401000A61B70CF8091E30087FD93E0909304048A
:10402000B3CF1F920F920FB60F9211242F933F938D
:104030004F935F936F937F938F939F93AF93BF93B0
:10404000CF93DF93EF93FF93D091E900DF708091DE
:10405000EC00C82FC17080FDC0E81092E90080918B
:10406000F000877F8093F00078940E945520109292
:10407000E9008091F00088608093F000CD2BCF7034
:10408000C093E900FF91EF91DF91CF91BF91AF9184
:104090009F918F917F916F915F914F913F912F9160
:1040A0000F900FBE0F901F9018951F93CF93DF9323
:1040B000CDB7DEB7AA970FB6F894DEBF0FBECDBF5F
:1040C00085E094E02091F100FC012193CF01F4E020
:1040D0008D309F07B9F70E94B71B8091E80083FFDE
:1040E0001EC180910504909106049A3008F017C112
:1040F000E92FF0E0EB54FD4D0C94C321803899F08A
:10410000823809F00CC1809109048F70873008F063
:1041100006C18093E9008091EB0085FB882780F938
:104120001092E90006C0809101049091020491115F
:1041300082609091E800977F9093E8008093F1006F
:104140001092F1008091E8008E77E5C0882309F491
:10415000D3C0823009F0E3C0809107048111D6C03A
:10416000809109048F702FEF280F263008F0D7C0F8
:104170008093E9002091EB0020FFC8C0933031F418
:104180008091EB0080628093EB00C0C09091EB00C7
:1041900090619093EB0021E030E001C0220F8A95FE
:1041A000EAF72093EA001092EA008091EB00886021
:1041B000EACF8111B4C0109107041F778091E3000A
:1041C0008078812B8093E3008091E800877F809343
:1041D000E8000E94721E8091E80080FFFCCF809171
:1041E000E30080688093E30082E0111183E0809314
:1041F000040495C08058823008F091C08091070473
:10420000909108048C3D23E09207A1F583E08A8316
:104210008AE289834FB7F894DE01139620E03EE0EE
:1042200051E2E32FF0E050935700E49120FF03C0E8
:10423000E295EF703F5FEF708E2F90E0EA30C0F0B4
:10424000C7968D939D932F5F243159F74FBF80916F
:10425000E800877F8093E8006AE270E0CE01019673
:104260000E94811D8091E8008B778093E80057C001
:10427000C096E7CF6091090470910A04AE014F5FC8
:104280005F4F0E94AD1CBC01892B09F448C090917E
:10429000E800977F9093E80089819A810E94DF1D52
:1042A000E1CF8038E1F58091E800877F8093E800D6
:1042B000809100048093F10045CF811130C090912E
:1042C0000704923060F58091E800877F8093E800D2
:1042D000909300040E94721E80910004882311F0C4
:1042E00084E005C08091E30087FDFACF81E08093F0
:1042F00004040E94AD1B13C080910704813079F43F
:1043000081E0933009F080E0809302041092E9008C
:104310008091E800877F8093E8000E94721E809160
:10432000E80083FF0AC08091E800877F8093E8005F
:104330008091EB0080628093EB00AA960FB6F89410
:10434000DEBF0FBECDBFDF91CF911F9108950895BD
:10435000CF93809104048823A1F0C091E900CF702D
:104360009091EC00892F817090FD80E8C82B10920D
:10437000E9008091E80083FD0E945520CF70C09332
:10438000E900CF910895EE0FFF1F0590F491E02D05
:104390000994F999FECF92BD81BDF89A992780B50D
:1043A0000895A8E1B0E042E050E00C94FD21262FF2
:1043B000F999FECF92BD81BDF89A019700B402161B
:1043C00039F01FBA20BD0FB6F894FA9AF99A0FBEC9
:1043D00008950396272F0E94D8210E94D721252FC8
:1043E0000E94D821242F0C94D8210196272F0E94B7
:1043F000D8210C94D721DC01CB01FC01F999FECF27
:1044000006C0F2BDE1BDF89A319600B40D9241505C
:104410005040B8F70895F894FFCF130317031A0319
:104420001D0320032303260329032C032F03320338
:1044300035035C0338033B033E0341034403470356
:104440004A034D0350035303560359035F036203AA
:10445000650368036B036E037103740377037A03C8
:104460007D0380038303860389038C038F039203F8
:10447000950398039B03C103C503C803CB03CE0375
:10448000D103D403D703DA03DD03E003E303040419
:10449000E603E903EC03EF03F203F503F803FB0380
:1044A000FE030104CB03CE0307040A040D04100429
:1044B0001304160419041C041F04AC04220425046C
:1044C00028042B042E043104340437043A043D0438
:1044D0004004C103C503C803CB03CE03D103D403F7
:1044E000D703DA03DD03E003E3030404AC0455045B
:1044F00058045B045E046104640467046A046D0488
:10450000CB03CE0370047304760479047C047F0427
:104510008204850488048B048E04AC049104940402
:1045200097049A049D04A004A304A604A904630F9D
:10453000630FBB0FBB0F900F900F900F900F0D10DC
:104540009910A810A8100411900F900F0D1161116F
:1045500061116A116A116C116A116A116A11611193
:10456000611171116A116A1171117E20A6208F21CB
:0E457000A6208F21D920FA208F2151215D2114
:10457E009E034C1B511B4F1B501B971B01320033CC
:10458E00003400350036003700380030002D003D75
:10459E00002E006B61007461006B6F00736100721E
:1045AE0061007469006B750001013901013601016A
:1045BE0039002C003B000101310073690074650065
:1045CE006B6500736500686100746F006B69006E47
:1045DE006E0001012A000101390101370101390084
:1045EE006869007375006875006865006D65007315
:1045FE006F006E6500686F002F0020000101390109
:10460E0002E10101380103E1010139000101390123
:10461E000138010139000101390102E101013501C1
:10462E0003E1010139005B005D000101395B01010D
:10463E0039000101395D010139002800290001020C
:10464E00E12D0103E1000102E13D0103E1006C6196
:10465E00007269006C7961007265007061006469B6
:10466E000067750064750070690001013901013140
:10467E0001013900776F006E61006C7975006D6F06
:10468E0000626100646F00676900706F006C7500F6
:10469E00726F006C69007075007A6F007065006251
:1046AE006F003F00676100646100676F007A610010
:1046BE006E69007275006D61006C65007675007A2A
:1046CE0069006465006765007A65006D69006E6F4C
:1046DE00006C796F006C74750027006269007A7542
:1046EE00006275006265006E75006D750077610081
:1046FE006C6F0001018B01018B01018B0001018A9E
:10470E0000E200E900EA00B500B600B700CD008374
:10471E0001CC008A01920194012102230224022578
:10472E0002260227022A02B300B4006F0070008135
:10473E008283F0F1C66766369431373534979633F7
:10474E009091929395E200E900EA00B500B600B7A9
:10475E0000CD008301CC008A019201940121022335
:10476E000224022502260227022A02B300B4006F99
:06477E000070008182833F
:00000001FF
